{
  "contractName": "Antique",
  "abi": [
    {
      "inputs": [],
      "stateMutability": "nonpayable",
      "type": "constructor"
    },
    {
      "anonymous": false,
      "inputs": [
        {
          "indexed": false,
          "internalType": "uint256",
          "name": "antiqueID",
          "type": "uint256"
        },
        {
          "indexed": false,
          "internalType": "uint256",
          "name": "documentationID",
          "type": "uint256"
        },
        {
          "indexed": false,
          "internalType": "uint256",
          "name": "verificationID",
          "type": "uint256"
        },
        {
          "indexed": false,
          "internalType": "uint256",
          "name": "descriptionID",
          "type": "uint256"
        },
        {
          "indexed": false,
          "internalType": "address payable",
          "name": "uploader",
          "type": "address"
        }
      ],
      "name": "AntiqueAdded",
      "type": "event"
    },
    {
      "anonymous": false,
      "inputs": [
        {
          "indexed": false,
          "internalType": "uint256",
          "name": "antiqueID",
          "type": "uint256"
        },
        {
          "indexed": false,
          "internalType": "uint256",
          "name": "documentationID",
          "type": "uint256"
        },
        {
          "indexed": false,
          "internalType": "uint256",
          "name": "verificationID",
          "type": "uint256"
        },
        {
          "indexed": false,
          "internalType": "uint256",
          "name": "descriptionID",
          "type": "uint256"
        },
        {
          "indexed": false,
          "internalType": "address payable",
          "name": "updater",
          "type": "address"
        }
      ],
      "name": "AntiqueUpdate",
      "type": "event"
    },
    {
      "inputs": [],
      "name": "antiqueCount",
      "outputs": [
        {
          "internalType": "uint256",
          "name": "",
          "type": "uint256"
        }
      ],
      "stateMutability": "view",
      "type": "function",
      "constant": true
    },
    {
      "inputs": [
        {
          "internalType": "uint256",
          "name": "",
          "type": "uint256"
        }
      ],
      "name": "antiqueMap",
      "outputs": [
        {
          "internalType": "uint256",
          "name": "antiqueID",
          "type": "uint256"
        },
        {
          "internalType": "uint256",
          "name": "documentationID",
          "type": "uint256"
        },
        {
          "internalType": "uint256",
          "name": "verificationID",
          "type": "uint256"
        },
        {
          "internalType": "uint256",
          "name": "descriptionID",
          "type": "uint256"
        }
      ],
      "stateMutability": "view",
      "type": "function",
      "constant": true
    },
    {
      "inputs": [],
      "name": "name",
      "outputs": [
        {
          "internalType": "string",
          "name": "",
          "type": "string"
        }
      ],
      "stateMutability": "view",
      "type": "function",
      "constant": true
    },
    {
      "inputs": [
        {
          "internalType": "uint256",
          "name": "_documentationID",
          "type": "uint256"
        },
        {
          "internalType": "uint256",
          "name": "_verificationID",
          "type": "uint256"
        },
        {
          "internalType": "uint256",
          "name": "_descriptionID",
          "type": "uint256"
        },
        {
          "internalType": "address payable",
          "name": "_uploader",
          "type": "address"
        }
      ],
      "name": "AddAntique",
      "outputs": [
        {
          "internalType": "uint256",
          "name": "",
          "type": "uint256"
        }
      ],
      "stateMutability": "nonpayable",
      "type": "function"
    },
    {
      "inputs": [
        {
          "internalType": "uint256",
          "name": "_antiqueID",
          "type": "uint256"
        },
        {
          "internalType": "uint256",
          "name": "_documentationID",
          "type": "uint256"
        },
        {
          "internalType": "uint256",
          "name": "_verificationID",
          "type": "uint256"
        },
        {
          "internalType": "uint256",
          "name": "_descriptionID",
          "type": "uint256"
        },
        {
          "internalType": "address payable",
          "name": "_uploader",
          "type": "address"
        }
      ],
      "name": "UpdateAntique",
      "outputs": [],
      "stateMutability": "nonpayable",
      "type": "function"
    },
    {
      "inputs": [
        {
          "internalType": "uint256",
          "name": "_antiqueID",
          "type": "uint256"
        }
      ],
      "name": "GetAntiqueByID",
      "outputs": [
        {
          "components": [
            {
              "internalType": "uint256",
              "name": "antiqueID",
              "type": "uint256"
            },
            {
              "internalType": "uint256",
              "name": "documentationID",
              "type": "uint256"
            },
            {
              "internalType": "uint256",
              "name": "verificationID",
              "type": "uint256"
            },
            {
              "internalType": "uint256",
              "name": "descriptionID",
              "type": "uint256"
            }
          ],
          "internalType": "struct Antique.AntiqueObject",
          "name": "",
          "type": "tuple"
        }
      ],
      "stateMutability": "view",
      "type": "function",
      "constant": true
    },
    {
      "inputs": [
        {
          "internalType": "uint256",
          "name": "_antiqueID",
          "type": "uint256"
        }
      ],
      "name": "ValidateAntiqueID",
      "outputs": [
        {
          "internalType": "bool",
          "name": "",
          "type": "bool"
        }
      ],
      "stateMutability": "view",
      "type": "function",
      "constant": true
    }
  ],
  "bytecode": "0x60806040526040518060400160405280600781526020017f416e7469717565000000000000000000000000000000000000000000000000008152506000908051906020019061004f9291906100b3565b50600060015534801561006157600080fd5b506040518060400160405280600781526020017f416e746971756500000000000000000000000000000000000000000000000000815250600090805190602001906100ad9291906100b3565b506101b6565b8280546100bf90610185565b90600052602060002090601f0160209004810192826100e15760008555610128565b82601f106100fa57805160ff1916838001178555610128565b82800160010185558215610128579182015b8281111561012757825182559160200191906001019061010c565b5b5090506101359190610139565b5090565b5b8082111561015257600081600090555060010161013a565b5090565b7f4e487b7100000000000000000000000000000000000000000000000000000000600052602260045260246000fd5b6000600282049050600182168061019d57607f821691505b6020821081036101b0576101af610156565b5b50919050565b610ac680620001c66000396000f3fe608060405234801561001057600080fd5b506004361061007d5760003560e01c8063697419901161005b57806369741990146100ec5780639b0b53621461011f578063a7ccf9281461014f578063cbf041821461017f5761007d565b806306fdde03146100825780634020c980146100a05780634ba2e60f146100bc575b600080fd5b61008a61019d565b6040516100979190610669565b60405180910390f35b6100ba60048036038101906100b59190610724565b61022b565b005b6100d660048036038101906100d1919061079f565b6103aa565b6040516100e39190610815565b60405180910390f35b61010660048036038101906101019190610830565b6104da565b604051610116949392919061085d565b60405180910390f35b61013960048036038101906101349190610830565b61050a565b60405161014691906108bd565b60405180910390f35b61016960048036038101906101649190610830565b610534565b604051610176919061093c565b60405180910390f35b6101876105a2565b6040516101949190610815565b60405180910390f35b600080546101aa90610986565b80601f01602080910402602001604051908101604052809291908181526020018280546101d690610986565b80156102235780601f106101f857610100808354040283529160200191610223565b820191906000526020600020905b81548152906001019060200180831161020657829003601f168201915b505050505081565b60008511801561023d57506001548511155b61024657600080fd5b600115156102538661050a565b15151461025f57600080fd5b600073ffffffffffffffffffffffffffffffffffffffff168173ffffffffffffffffffffffffffffffffffffffff160361029857600080fd5b6000600260008781526020019081526020016000206040518060800160405290816000820154815260200160018201548152602001600282015481526020016003820154815250509050848160200151146102f857848160200181815250505b8381604001511461030e57838160400181815250505b8281606001511461032457828160600181815250505b8060026000888152602001908152602001600020600082015181600001556020820151816001015560408201518160020155606082015181600301559050507f08eb4004c4efcad21137c1fc482f59847f6add2f28ee534922197e3efd5639b6868686868660405161039a9594939291906109c6565b60405180910390a1505050505050565b60008085116103b857600080fd5b600084116103c557600080fd5b600083116103d257600080fd5b600073ffffffffffffffffffffffffffffffffffffffff168273ffffffffffffffffffffffffffffffffffffffff160361040b57600080fd5b6001600081548092919061041e90610a48565b919050555060006040518060800160405280600154815260200187815260200186815260200185815250905080600260006001548152602001908152602001600020600082015181600001556020820151816001015560408201518160020155606082015181600301559050507f015ab2fe8e9231d469170f9334a657df2419991bddd4400238369a5d547b39d9600154878787876040516104c49594939291906109c6565b60405180910390a1600154915050949350505050565b60026020528060005260406000206000915090508060000154908060010154908060020154908060030154905084565b6000808211158061051c575060015482115b1561052a576000905061052f565b600190505b919050565b61053c6105a8565b600115156105498361050a565b15151461055557600080fd5b600260008381526020019081526020016000206040518060800160405290816000820154815260200160018201548152602001600282015481526020016003820154815250509050919050565b60015481565b6040518060800160405280600081526020016000815260200160008152602001600081525090565b600081519050919050565b600082825260208201905092915050565b60005b8381101561060a5780820151818401526020810190506105ef565b83811115610619576000848401525b50505050565b6000601f19601f8301169050919050565b600061063b826105d0565b61064581856105db565b93506106558185602086016105ec565b61065e8161061f565b840191505092915050565b600060208201905081810360008301526106838184610630565b905092915050565b600080fd5b6000819050919050565b6106a381610690565b81146106ae57600080fd5b50565b6000813590506106c08161069a565b92915050565b600073ffffffffffffffffffffffffffffffffffffffff82169050919050565b60006106f1826106c6565b9050919050565b610701816106e6565b811461070c57600080fd5b50565b60008135905061071e816106f8565b92915050565b600080600080600060a086880312156107405761073f61068b565b5b600061074e888289016106b1565b955050602061075f888289016106b1565b9450506040610770888289016106b1565b9350506060610781888289016106b1565b92505060806107928882890161070f565b9150509295509295909350565b600080600080608085870312156107b9576107b861068b565b5b60006107c7878288016106b1565b94505060206107d8878288016106b1565b93505060406107e9878288016106b1565b92505060606107fa8782880161070f565b91505092959194509250565b61080f81610690565b82525050565b600060208201905061082a6000830184610806565b92915050565b6000602082840312156108465761084561068b565b5b6000610854848285016106b1565b91505092915050565b60006080820190506108726000830187610806565b61087f6020830186610806565b61088c6040830185610806565b6108996060830184610806565b95945050505050565b60008115159050919050565b6108b7816108a2565b82525050565b60006020820190506108d260008301846108ae565b92915050565b6108e181610690565b82525050565b6080820160008201516108fd60008501826108d8565b50602082015161091060208501826108d8565b50604082015161092360408501826108d8565b50606082015161093660608501826108d8565b50505050565b600060808201905061095160008301846108e7565b92915050565b7f4e487b7100000000000000000000000000000000000000000000000000000000600052602260045260246000fd5b6000600282049050600182168061099e57607f821691505b6020821081036109b1576109b0610957565b5b50919050565b6109c0816106e6565b82525050565b600060a0820190506109db6000830188610806565b6109e86020830187610806565b6109f56040830186610806565b610a026060830185610806565b610a0f60808301846109b7565b9695505050505050565b7f4e487b7100000000000000000000000000000000000000000000000000000000600052601160045260246000fd5b6000610a5382610690565b91507fffffffffffffffffffffffffffffffffffffffffffffffffffffffffffffffff8203610a8557610a84610a19565b5b60018201905091905056fea26469706673582212207dc9406f24ff6c1f2b61d941217a5eb2343c371ef625892f911b0be84dd51d2664736f6c634300080e0033",
  "immutableReferences": {},
  "source": "// SPDX-License-Identifier: MIT\r\npragma solidity ^0.8.14;\r\n\r\ncontract Antique {\r\n    string public name = \"Antique\";\r\n    uint256 public antiqueCount = 0;\r\n\r\n    //Antique List\r\n    mapping(uint256 => AntiqueObject) public antiqueMap;\r\n\r\n    //Mapping Antique ID ==> Documentation ID\r\n    //Example: Antique ID = 1 => Documentation ID =\r\n    // mapping(uint256 => uint256) public antiqueDocumentationMap;\r\n    // mapping(uint256 => uint256) public antiqueDescriptionsMap;\r\n    // mapping(uint256 => uint256) public antiqueVerificationMap;\r\n\r\n    constructor() {\r\n        name = \"Antique\";\r\n    }\r\n\r\n    struct AntiqueObject {\r\n        uint256 antiqueID;\r\n        uint256 documentationID;\r\n        uint256 verificationID;\r\n        uint256 descriptionID;\r\n    }\r\n\r\n    event AntiqueAdded(\r\n        uint256 antiqueID,\r\n        uint256 documentationID,\r\n        uint256 verificationID,\r\n        uint256 descriptionID,\r\n        address payable uploader\r\n    );\r\n    event AntiqueUpdate(\r\n        uint256 antiqueID,\r\n        uint256 documentationID,\r\n        uint256 verificationID,\r\n        uint256 descriptionID,\r\n        address payable updater\r\n    );\r\n\r\n    //POST: ADD Antique\r\n    function AddAntique(\r\n        uint256 _documentationID,\r\n        uint256 _verificationID,\r\n        uint256 _descriptionID,\r\n        address payable _uploader\r\n    ) public returns (uint256) {\r\n        //Check Parameter\r\n        require(_documentationID > 0);\r\n        require(_verificationID > 0);\r\n        require(_descriptionID > 0);\r\n        require(_uploader != address(0));\r\n\r\n        //Update Blockchain Data\r\n        antiqueCount++;\r\n        AntiqueObject memory _antiqueDataCreated = AntiqueObject(\r\n            antiqueCount,\r\n            _documentationID,\r\n            _verificationID,\r\n            _descriptionID\r\n        );\r\n        // // console.log(_antiqueDataCreated);\r\n        antiqueMap[antiqueCount] = _antiqueDataCreated;\r\n        // antiqueDocumentationMap[antiqueCount] = _documentationID;\r\n        // antiqueDescriptionsMap[antiqueCount] = _descriptionID;\r\n        // antiqueVerificationMap[antiqueCount] = _verificationID;\r\n\r\n        emit AntiqueAdded(\r\n            antiqueCount,\r\n            _documentationID,\r\n            _verificationID,\r\n            _descriptionID,\r\n            _uploader\r\n        );\r\n        return antiqueCount;\r\n    }\r\n\r\n    //PUT: Update Antique Object\r\n    function UpdateAntique(\r\n        uint256 _antiqueID,\r\n        uint256 _documentationID,\r\n        uint256 _verificationID,\r\n        uint256 _descriptionID,\r\n        address payable _uploader\r\n    ) public {\r\n        require(_antiqueID > 0 && _antiqueID <= antiqueCount);\r\n        //Validate Antique ID\r\n        require(ValidateAntiqueID(_antiqueID) == true);\r\n        require(_uploader != address(0));\r\n        AntiqueObject memory _antiqueData = antiqueMap[_antiqueID];\r\n        if (_antiqueData.documentationID != _documentationID) {\r\n            _antiqueData.documentationID = _documentationID;\r\n        }\r\n        if (_antiqueData.verificationID != _verificationID) {\r\n            _antiqueData.verificationID = _verificationID;\r\n        }\r\n        if (_antiqueData.descriptionID != _descriptionID) {\r\n            _antiqueData.descriptionID = _descriptionID;\r\n        }\r\n\r\n        //Update To Blockchain\r\n        antiqueMap[_antiqueID] = _antiqueData;\r\n        emit AntiqueUpdate(\r\n            _antiqueID,\r\n            _documentationID,\r\n            _verificationID,\r\n            _descriptionID,\r\n            _uploader\r\n        );\r\n    }\r\n\r\n    //GET Antique Object By ID\r\n    function GetAntiqueByID(uint256 _antiqueID)\r\n        external\r\n        view\r\n        returns (AntiqueObject memory)\r\n    {\r\n        require(ValidateAntiqueID(_antiqueID) == true);\r\n        return antiqueMap[_antiqueID];\r\n    }\r\n\r\n    //Validate Antique Object\r\n    function ValidateAntiqueID(uint256 _antiqueID) public view returns (bool) {\r\n        if (_antiqueID <= 0 || _antiqueID > antiqueCount) \r\n            return false;\r\n        // Valdiate Documentation ID, Description ID and Verification ID\r\n        return true;\r\n    }\r\n}\r\n",
  "sourcePath": "C:\\Users\\Natha\\OneDrive - The University of Sydney (Students)\\University of Sydney Materials\\Studying\\Year 5\\Semester 1\\Thesis B\\Thesis B Project Code\\truffle\\contracts\\Database\\Antique.sol",
  "compiler": {
    "name": "solc",
    "version": "0.8.14+commit.80d49f37.Emscripten.clang"
  },
  "schemaVersion": "3.4.11",
  "updatedAt": "2023-02-21T13:19:42.718Z",
  "networkType": "ethereum",
  "devdoc": {
    "kind": "dev",
    "methods": {},
    "version": 1
  },
  "userdoc": {
    "kind": "user",
    "methods": {},
    "version": 1
  }
}