{
  "contractName": "DatabaseController",
  "abi": [
    {
      "inputs": [],
      "name": "name",
      "outputs": [
        {
          "internalType": "string",
          "name": "",
          "type": "string"
        }
      ],
      "stateMutability": "view",
      "type": "function",
      "constant": true
    },
    {
      "inputs": [
        {
          "internalType": "address",
          "name": "_antiqueContractAddress",
          "type": "address"
        }
      ],
      "name": "setAntiqueContractAddress",
      "outputs": [],
      "stateMutability": "payable",
      "type": "function",
      "payable": true
    },
    {
      "inputs": [
        {
          "internalType": "address",
          "name": "_documentationContractAddress",
          "type": "address"
        }
      ],
      "name": "setDocumentationContractAddress",
      "outputs": [],
      "stateMutability": "payable",
      "type": "function",
      "payable": true
    },
    {
      "inputs": [
        {
          "internalType": "address",
          "name": "_verificationContractAddress",
          "type": "address"
        }
      ],
      "name": "setVerificationContractAddress",
      "outputs": [],
      "stateMutability": "payable",
      "type": "function",
      "payable": true
    },
    {
      "inputs": [
        {
          "internalType": "address",
          "name": "_descriptionContractAddress",
          "type": "address"
        }
      ],
      "name": "setDescriptionContractAddress",
      "outputs": [],
      "stateMutability": "payable",
      "type": "function",
      "payable": true
    },
    {
      "inputs": [
        {
          "internalType": "address payable",
          "name": "_ownerAddress",
          "type": "address"
        },
        {
          "internalType": "uint256",
          "name": "_ownerID",
          "type": "uint256"
        },
        {
          "internalType": "uint256",
          "name": "_personVerificationID",
          "type": "uint256"
        },
        {
          "internalType": "uint256",
          "name": "_ioTDeviceID",
          "type": "uint256"
        },
        {
          "internalType": "string",
          "name": "_estimateManufactureYears",
          "type": "string"
        },
        {
          "internalType": "string",
          "name": "_antiqueRareness",
          "type": "string"
        },
        {
          "internalType": "string",
          "name": "_antiqueAuthenticity",
          "type": "string"
        },
        {
          "internalType": "string",
          "name": "_antiqueRealness",
          "type": "string"
        },
        {
          "internalType": "address payable",
          "name": "_uploader",
          "type": "address"
        }
      ],
      "name": "AddVerification",
      "outputs": [
        {
          "internalType": "uint256",
          "name": "",
          "type": "uint256"
        }
      ],
      "stateMutability": "nonpayable",
      "type": "function"
    },
    {
      "inputs": [
        {
          "internalType": "uint256",
          "name": "_verificationID",
          "type": "uint256"
        },
        {
          "internalType": "address payable",
          "name": "_newOwnerAddress",
          "type": "address"
        },
        {
          "internalType": "uint256",
          "name": "_newOwnerID",
          "type": "uint256"
        },
        {
          "internalType": "uint256",
          "name": "_newPersonVerificationID",
          "type": "uint256"
        },
        {
          "internalType": "uint256",
          "name": "_newIoTDeviceID",
          "type": "uint256"
        },
        {
          "internalType": "string",
          "name": "_newEstimateManufactureYears",
          "type": "string"
        },
        {
          "internalType": "string",
          "name": "_newAntiqueRareness",
          "type": "string"
        },
        {
          "internalType": "string",
          "name": "_newAntiqueAuthenticity",
          "type": "string"
        },
        {
          "internalType": "string",
          "name": "_newAntiqueRealness",
          "type": "string"
        },
        {
          "internalType": "address payable",
          "name": "_uploader",
          "type": "address"
        }
      ],
      "name": "UpdateVerification",
      "outputs": [],
      "stateMutability": "nonpayable",
      "type": "function"
    },
    {
      "inputs": [
        {
          "internalType": "uint256",
          "name": "_verificationID",
          "type": "uint256"
        }
      ],
      "name": "ValidateVerificationID",
      "outputs": [
        {
          "internalType": "bool",
          "name": "",
          "type": "bool"
        }
      ],
      "stateMutability": "nonpayable",
      "type": "function"
    },
    {
      "inputs": [
        {
          "internalType": "uint256",
          "name": "_verificationID",
          "type": "uint256"
        }
      ],
      "name": "GetVerificationByID",
      "outputs": [
        {
          "components": [
            {
              "internalType": "uint256",
              "name": "verificationID",
              "type": "uint256"
            },
            {
              "internalType": "uint256",
              "name": "antiqueID",
              "type": "uint256"
            },
            {
              "internalType": "address payable",
              "name": "ownerAddress",
              "type": "address"
            },
            {
              "internalType": "uint256",
              "name": "ownerID",
              "type": "uint256"
            },
            {
              "internalType": "uint256",
              "name": "personVerificationID",
              "type": "uint256"
            },
            {
              "internalType": "uint256",
              "name": "ioTDeviceID",
              "type": "uint256"
            },
            {
              "internalType": "string",
              "name": "estimateManufactureYears",
              "type": "string"
            },
            {
              "internalType": "string",
              "name": "antiqueRareness",
              "type": "string"
            },
            {
              "internalType": "string",
              "name": "antiqueAuthenticity",
              "type": "string"
            },
            {
              "internalType": "string",
              "name": "antiqueRealness",
              "type": "string"
            },
            {
              "internalType": "uint256",
              "name": "uploadTime",
              "type": "uint256"
            },
            {
              "internalType": "address payable",
              "name": "uploader",
              "type": "address"
            }
          ],
          "internalType": "struct IVerification.VerificateionObject",
          "name": "",
          "type": "tuple"
        }
      ],
      "stateMutability": "nonpayable",
      "type": "function"
    },
    {
      "inputs": [
        {
          "internalType": "uint256",
          "name": "_antiqueObjectID",
          "type": "uint256"
        },
        {
          "internalType": "string",
          "name": "_materialCreated",
          "type": "string"
        },
        {
          "internalType": "uint256",
          "name": "_antiqueHeight",
          "type": "uint256"
        },
        {
          "internalType": "uint256",
          "name": "_antiqueLength",
          "type": "uint256"
        },
        {
          "internalType": "uint256",
          "name": "_anitqueWidth",
          "type": "uint256"
        },
        {
          "internalType": "string",
          "name": "_filehash",
          "type": "string"
        },
        {
          "internalType": "uint256",
          "name": "_fileSize",
          "type": "uint256"
        },
        {
          "internalType": "string",
          "name": "_fileType",
          "type": "string"
        },
        {
          "internalType": "string",
          "name": "_fileName",
          "type": "string"
        },
        {
          "internalType": "address payable",
          "name": "_uploader",
          "type": "address"
        }
      ],
      "name": "AddDescription",
      "outputs": [
        {
          "internalType": "uint256",
          "name": "",
          "type": "uint256"
        }
      ],
      "stateMutability": "nonpayable",
      "type": "function"
    },
    {
      "inputs": [
        {
          "internalType": "uint256",
          "name": "_descriptionID",
          "type": "uint256"
        },
        {
          "internalType": "string",
          "name": "_newMaterialCreated",
          "type": "string"
        },
        {
          "internalType": "uint256",
          "name": "_antiqueHeight",
          "type": "uint256"
        },
        {
          "internalType": "uint256",
          "name": "_antiqueLength",
          "type": "uint256"
        },
        {
          "internalType": "uint256",
          "name": "_anitqueWidth",
          "type": "uint256"
        },
        {
          "internalType": "address payable",
          "name": "_uploader",
          "type": "address"
        }
      ],
      "name": "UpdateDescriptionMaterials",
      "outputs": [],
      "stateMutability": "nonpayable",
      "type": "function"
    },
    {
      "inputs": [
        {
          "internalType": "uint256",
          "name": "_descriptionID",
          "type": "uint256"
        },
        {
          "internalType": "string",
          "name": "_filehash",
          "type": "string"
        },
        {
          "internalType": "uint256",
          "name": "_fileSize",
          "type": "uint256"
        },
        {
          "internalType": "string",
          "name": "_fileType",
          "type": "string"
        },
        {
          "internalType": "string",
          "name": "_fileName",
          "type": "string"
        },
        {
          "internalType": "address payable",
          "name": "_uploader",
          "type": "address"
        }
      ],
      "name": "UpdateDescriptionUploadFile",
      "outputs": [],
      "stateMutability": "nonpayable",
      "type": "function"
    },
    {
      "inputs": [
        {
          "internalType": "uint256",
          "name": "_descriptionID",
          "type": "uint256"
        }
      ],
      "name": "ValidateDescriptionID",
      "outputs": [
        {
          "internalType": "bool",
          "name": "",
          "type": "bool"
        }
      ],
      "stateMutability": "nonpayable",
      "type": "function"
    },
    {
      "inputs": [
        {
          "internalType": "uint256",
          "name": "_descriptionID",
          "type": "uint256"
        }
      ],
      "name": "GetDescriptionByID",
      "outputs": [
        {
          "components": [
            {
              "internalType": "uint256",
              "name": "descriptionID",
              "type": "uint256"
            },
            {
              "internalType": "uint256",
              "name": "antiqueID",
              "type": "uint256"
            },
            {
              "internalType": "string",
              "name": "materialCreated",
              "type": "string"
            },
            {
              "internalType": "uint256",
              "name": "antiqueHeight",
              "type": "uint256"
            },
            {
              "internalType": "uint256",
              "name": "antiqueLength",
              "type": "uint256"
            },
            {
              "internalType": "uint256",
              "name": "anitqueWidth",
              "type": "uint256"
            },
            {
              "internalType": "string",
              "name": "filehash",
              "type": "string"
            },
            {
              "internalType": "uint256",
              "name": "fileSize",
              "type": "uint256"
            },
            {
              "internalType": "string",
              "name": "fileType",
              "type": "string"
            },
            {
              "internalType": "string",
              "name": "fileName",
              "type": "string"
            },
            {
              "internalType": "uint256",
              "name": "uploadTime",
              "type": "uint256"
            },
            {
              "internalType": "address payable",
              "name": "uploader",
              "type": "address"
            }
          ],
          "internalType": "struct IDescription.DescriptionObject",
          "name": "",
          "type": "tuple"
        }
      ],
      "stateMutability": "nonpayable",
      "type": "function"
    },
    {
      "inputs": [
        {
          "internalType": "string",
          "name": "_fileHash",
          "type": "string"
        },
        {
          "internalType": "uint256",
          "name": "_fileSize",
          "type": "uint256"
        },
        {
          "internalType": "string",
          "name": "_fileType",
          "type": "string"
        },
        {
          "internalType": "string",
          "name": "_fileName",
          "type": "string"
        },
        {
          "internalType": "string",
          "name": "_fileDescription",
          "type": "string"
        },
        {
          "internalType": "address payable",
          "name": "_uploader",
          "type": "address"
        }
      ],
      "name": "AddDocumentation",
      "outputs": [
        {
          "internalType": "uint256",
          "name": "",
          "type": "uint256"
        }
      ],
      "stateMutability": "nonpayable",
      "type": "function"
    },
    {
      "inputs": [
        {
          "internalType": "uint256",
          "name": "_documentationID",
          "type": "uint256"
        },
        {
          "internalType": "string",
          "name": "_fileHash",
          "type": "string"
        },
        {
          "internalType": "uint256",
          "name": "_fileSize",
          "type": "uint256"
        },
        {
          "internalType": "string",
          "name": "_fileType",
          "type": "string"
        },
        {
          "internalType": "string",
          "name": "_fileName",
          "type": "string"
        },
        {
          "internalType": "string",
          "name": "_fileDescription",
          "type": "string"
        },
        {
          "internalType": "address payable",
          "name": "_uploader",
          "type": "address"
        }
      ],
      "name": "UpdateDocumentation",
      "outputs": [],
      "stateMutability": "nonpayable",
      "type": "function"
    },
    {
      "inputs": [
        {
          "internalType": "uint256",
          "name": "_documentationID",
          "type": "uint256"
        }
      ],
      "name": "ValidateDocumentationID",
      "outputs": [
        {
          "internalType": "bool",
          "name": "",
          "type": "bool"
        }
      ],
      "stateMutability": "nonpayable",
      "type": "function"
    },
    {
      "inputs": [
        {
          "internalType": "uint256",
          "name": "_documentationID",
          "type": "uint256"
        }
      ],
      "name": "GetDocumentationByID",
      "outputs": [
        {
          "components": [
            {
              "internalType": "uint256",
              "name": "documentationID",
              "type": "uint256"
            },
            {
              "internalType": "uint256",
              "name": "antiqueID",
              "type": "uint256"
            },
            {
              "internalType": "string",
              "name": "filehash",
              "type": "string"
            },
            {
              "internalType": "uint256",
              "name": "fileSize",
              "type": "uint256"
            },
            {
              "internalType": "string",
              "name": "fileType",
              "type": "string"
            },
            {
              "internalType": "string",
              "name": "fileName",
              "type": "string"
            },
            {
              "internalType": "string",
              "name": "fileDescription",
              "type": "string"
            },
            {
              "internalType": "uint256",
              "name": "uploadTime",
              "type": "uint256"
            },
            {
              "internalType": "address payable",
              "name": "uploader",
              "type": "address"
            }
          ],
          "internalType": "struct IDocumentation.DocumentationObject",
          "name": "",
          "type": "tuple"
        }
      ],
      "stateMutability": "nonpayable",
      "type": "function"
    },
    {
      "inputs": [
        {
          "internalType": "uint256",
          "name": "_documentationID",
          "type": "uint256"
        },
        {
          "internalType": "uint256",
          "name": "_verificationID",
          "type": "uint256"
        },
        {
          "internalType": "uint256",
          "name": "_descriptionID",
          "type": "uint256"
        },
        {
          "internalType": "address payable",
          "name": "_uploader",
          "type": "address"
        }
      ],
      "name": "AddAntique",
      "outputs": [
        {
          "internalType": "uint256",
          "name": "",
          "type": "uint256"
        }
      ],
      "stateMutability": "nonpayable",
      "type": "function"
    },
    {
      "inputs": [
        {
          "internalType": "uint256",
          "name": "_antiqueID",
          "type": "uint256"
        },
        {
          "internalType": "uint256",
          "name": "_documentationID",
          "type": "uint256"
        },
        {
          "internalType": "uint256",
          "name": "_verificationID",
          "type": "uint256"
        },
        {
          "internalType": "uint256",
          "name": "_descriptionID",
          "type": "uint256"
        },
        {
          "internalType": "address payable",
          "name": "_uploader",
          "type": "address"
        }
      ],
      "name": "UpdateAntique",
      "outputs": [],
      "stateMutability": "nonpayable",
      "type": "function"
    },
    {
      "inputs": [
        {
          "internalType": "uint256",
          "name": "_antiqueID",
          "type": "uint256"
        }
      ],
      "name": "ValidateAntiqueID",
      "outputs": [
        {
          "internalType": "bool",
          "name": "",
          "type": "bool"
        }
      ],
      "stateMutability": "nonpayable",
      "type": "function"
    },
    {
      "inputs": [
        {
          "internalType": "uint256",
          "name": "_antiqueID",
          "type": "uint256"
        }
      ],
      "name": "GetAntiqueByID",
      "outputs": [
        {
          "components": [
            {
              "internalType": "uint256",
              "name": "antiqueID",
              "type": "uint256"
            },
            {
              "internalType": "uint256",
              "name": "documentationID",
              "type": "uint256"
            },
            {
              "internalType": "uint256",
              "name": "verificationID",
              "type": "uint256"
            },
            {
              "internalType": "uint256",
              "name": "descriptionID",
              "type": "uint256"
            }
          ],
          "internalType": "struct IAntique.AntiqueObject",
          "name": "",
          "type": "tuple"
        }
      ],
      "stateMutability": "nonpayable",
      "type": "function"
    }
  ],
  "bytecode": "0x60806040526040518060400160405280601281526020017f4461746162617365436f6e74726f6c6c6572000000000000000000000000000081525060009080519060200190620000519291906200006b565b5060006005553480156200006457600080fd5b506200017f565b82805462000079906200014a565b90600052602060002090601f0160209004810192826200009d5760008555620000e9565b82601f10620000b857805160ff1916838001178555620000e9565b82800160010185558215620000e9579182015b82811115620000e8578251825591602001919060010190620000cb565b5b509050620000f89190620000fc565b5090565b5b8082111562000117576000816000905550600101620000fd565b5090565b7f4e487b7100000000000000000000000000000000000000000000000000000000600052602260045260246000fd5b600060028204905060018216806200016357607f821691505b6020821081036200017957620001786200011b565b5b50919050565b613c2e806200018f6000396000f3fe6080604052600436106101355760003560e01c80638c39b67f116100ab578063d27fbe471161006f578063d27fbe4714610445578063d89b8f2c14610482578063db15b7871461049e578063ddf4732c146104db578063e9ebc0b814610504578063ef1a56681461054157610135565b80638c39b67f146103495780639b0b536214610386578063a7ccf928146103c3578063b9d7bea314610400578063c0e6740c1461041c57610135565b80634961904a116100fd5780634961904a146102315780634ba2e60f1461026e57806354041718146102ab57806357d54785146102c75780635e928b85146102f057806376e7e4df1461030c57610135565b806306fdde031461013a57806324dd74b6146101655780632c3b462c146101a2578063330ba56a146101cb5780634020c98014610208575b600080fd5b34801561014657600080fd5b5061014f61057e565b60405161015c9190611ffb565b60405180910390f35b34801561017157600080fd5b5061018c600480360381019061018791906121fa565b61060c565b6040516101999190612358565b60405180910390f35b3480156101ae57600080fd5b506101c960048036038101906101c49190612373565b6106ce565b005b3480156101d757600080fd5b506101f260048036038101906101ed9190612454565b61076f565b6040516101ff919061249c565b60405180910390f35b34801561021457600080fd5b5061022f600480360381019061022a91906124b7565b610816565b005b34801561023d57600080fd5b5061025860048036038101906102539190612454565b610c88565b6040516102659190612674565b60405180910390f35b34801561027a57600080fd5b5061029560048036038101906102909190612696565b610d3a565b6040516102a29190612358565b60405180910390f35b6102c560048036038101906102c0919061273b565b6111ad565b005b3480156102d357600080fd5b506102ee60048036038101906102e99190612768565b61122a565b005b61030a6004803603810190610305919061273b565b6112d5565b005b34801561031857600080fd5b50610333600480360381019061032e91906128b7565b611352565b6040516103409190612358565b60405180910390f35b34801561035557600080fd5b50610370600480360381019061036b9190612454565b611408565b60405161037d919061249c565b60405180910390f35b34801561039257600080fd5b506103ad60048036038101906103a89190612454565b6114af565b6040516103ba919061249c565b60405180910390f35b3480156103cf57600080fd5b506103ea60048036038101906103e59190612454565b611822565b6040516103f79190612a09565b60405180910390f35b61041a6004803603810190610415919061273b565b6118cf565b005b34801561042857600080fd5b50610443600480360381019061043e9190612a24565b61194c565b005b34801561045157600080fd5b5061046c60048036038101906104679190612454565b6119eb565b604051610479919061249c565b60405180910390f35b61049c6004803603810190610497919061273b565b611a92565b005b3480156104aa57600080fd5b506104c560048036038101906104c09190612454565b611b0f565b6040516104d29190612be6565b60405180910390f35b3480156104e757600080fd5b5061050260048036038101906104fd9190612c08565b611bc1565b005b34801561051057600080fd5b5061052b60048036038101906105269190612d1a565b611c63565b6040516105389190612358565b60405180910390f35b34801561054d57600080fd5b5061056860048036038101906105639190612454565b611d22565b6040516105759190612f6d565b60405180910390f35b6000805461058b90612fbe565b80601f01602080910402602001604051908101604052809291908181526020018280546105b790612fbe565b80156106045780601f106105d957610100808354040283529160200191610604565b820191906000526020600020905b8154815290600101906020018083116105e757829003601f168201915b505050505081565b6000600860009054906101000a900473ffffffffffffffffffffffffffffffffffffffff1673ffffffffffffffffffffffffffffffffffffffff166324dd74b68c8c8c8c8c8c8c8c8c8c6040518b63ffffffff1660e01b815260040161067b9a99989796959493929190612ffe565b6020604051808303816000875af115801561069a573d6000803e3d6000fd5b505050506040513d601f19601f820116820180604052508101906106be91906130cb565b90509a9950505050505050505050565b600860009054906101000a900473ffffffffffffffffffffffffffffffffffffffff1673ffffffffffffffffffffffffffffffffffffffff166345f39d55878787878742886040518863ffffffff1660e01b815260040161073597969594939291906130f8565b600060405180830381600087803b15801561074f57600080fd5b505af1158015610763573d6000803e3d6000fd5b50505050505050505050565b6000600860009054906101000a900473ffffffffffffffffffffffffffffffffffffffff1673ffffffffffffffffffffffffffffffffffffffff1663330ba56a836040518263ffffffff1660e01b81526004016107cc9190612358565b6020604051808303816000875af11580156107eb573d6000803e3d6000fd5b505050506040513d601f19601f8201168201806040525081019061080f91906131a8565b9050919050565b60011515600660009054906101000a900473ffffffffffffffffffffffffffffffffffffffff1673ffffffffffffffffffffffffffffffffffffffff16638c39b67f866040518263ffffffff1660e01b81526004016108759190612358565b6020604051808303816000875af1158015610894573d6000803e3d6000fd5b505050506040513d601f19601f820116820180604052508101906108b891906131a8565b1515146108c457600080fd5b60011515600760009054906101000a900473ffffffffffffffffffffffffffffffffffffffff1673ffffffffffffffffffffffffffffffffffffffff1663d27fbe47856040518263ffffffff1660e01b81526004016109239190612358565b6020604051808303816000875af1158015610942573d6000803e3d6000fd5b505050506040513d601f19601f8201168201806040525081019061096691906131a8565b15151461097257600080fd5b60011515600860009054906101000a900473ffffffffffffffffffffffffffffffffffffffff1673ffffffffffffffffffffffffffffffffffffffff1663330ba56a846040518263ffffffff1660e01b81526004016109d19190612358565b6020604051808303816000875af11580156109f0573d6000803e3d6000fd5b505050506040513d601f19601f82011682018060405250810190610a1491906131a8565b151514610a2057600080fd5b60011515610a2d866114af565b151514610a3957600080fd5b600960009054906101000a900473ffffffffffffffffffffffffffffffffffffffff1673ffffffffffffffffffffffffffffffffffffffff16634020c98086868686866040518663ffffffff1660e01b8152600401610a9c9594939291906131d5565b600060405180830381600087803b158015610ab657600080fd5b505af1158015610aca573d6000803e3d6000fd5b50505050600660009054906101000a900473ffffffffffffffffffffffffffffffffffffffff1673ffffffffffffffffffffffffffffffffffffffff1663287c1b158587846040518463ffffffff1660e01b8152600401610b2d93929190613228565b600060405180830381600087803b158015610b4757600080fd5b505af1158015610b5b573d6000803e3d6000fd5b50505050600760009054906101000a900473ffffffffffffffffffffffffffffffffffffffff1673ffffffffffffffffffffffffffffffffffffffff16630bb6c06b8487846040518463ffffffff1660e01b8152600401610bbe93929190613228565b600060405180830381600087803b158015610bd857600080fd5b505af1158015610bec573d6000803e3d6000fd5b50505050600860009054906101000a900473ffffffffffffffffffffffffffffffffffffffff1673ffffffffffffffffffffffffffffffffffffffff16631d6607b78387846040518463ffffffff1660e01b8152600401610c4f93929190613228565b600060405180830381600087803b158015610c6957600080fd5b505af1158015610c7d573d6000803e3d6000fd5b505050505050505050565b610c90611dd4565b600660009054906101000a900473ffffffffffffffffffffffffffffffffffffffff1673ffffffffffffffffffffffffffffffffffffffff16634961904a836040518263ffffffff1660e01b8152600401610ceb9190612358565b6000604051808303816000875af1158015610d0a573d6000803e3d6000fd5b505050506040513d6000823e3d601f19601f82011682018060405250810190610d33919061343e565b9050919050565b600060011515600660009054906101000a900473ffffffffffffffffffffffffffffffffffffffff1673ffffffffffffffffffffffffffffffffffffffff16638c39b67f876040518263ffffffff1660e01b8152600401610d9b9190612358565b6020604051808303816000875af1158015610dba573d6000803e3d6000fd5b505050506040513d601f19601f82011682018060405250810190610dde91906131a8565b151514610dea57600080fd5b60011515600760009054906101000a900473ffffffffffffffffffffffffffffffffffffffff1673ffffffffffffffffffffffffffffffffffffffff1663d27fbe47866040518263ffffffff1660e01b8152600401610e499190612358565b6020604051808303816000875af1158015610e68573d6000803e3d6000fd5b505050506040513d601f19601f82011682018060405250810190610e8c91906131a8565b151514610e9857600080fd5b60011515600860009054906101000a900473ffffffffffffffffffffffffffffffffffffffff1673ffffffffffffffffffffffffffffffffffffffff1663330ba56a856040518263ffffffff1660e01b8152600401610ef79190612358565b6020604051808303816000875af1158015610f16573d6000803e3d6000fd5b505050506040513d601f19601f82011682018060405250810190610f3a91906131a8565b151514610f4657600080fd5b6000600960009054906101000a900473ffffffffffffffffffffffffffffffffffffffff1673ffffffffffffffffffffffffffffffffffffffff16634ba2e60f878787876040518563ffffffff1660e01b8152600401610fa99493929190613487565b6020604051808303816000875af1158015610fc8573d6000803e3d6000fd5b505050506040513d601f19601f82011682018060405250810190610fec91906130cb565b9050600660009054906101000a900473ffffffffffffffffffffffffffffffffffffffff1673ffffffffffffffffffffffffffffffffffffffff1663287c1b158783866040518463ffffffff1660e01b815260040161104d93929190613228565b600060405180830381600087803b15801561106757600080fd5b505af115801561107b573d6000803e3d6000fd5b50505050600760009054906101000a900473ffffffffffffffffffffffffffffffffffffffff1673ffffffffffffffffffffffffffffffffffffffff16630bb6c06b8683866040518463ffffffff1660e01b81526004016110de93929190613228565b600060405180830381600087803b1580156110f857600080fd5b505af115801561110c573d6000803e3d6000fd5b50505050600860009054906101000a900473ffffffffffffffffffffffffffffffffffffffff1673ffffffffffffffffffffffffffffffffffffffff16631d6607b78583866040518463ffffffff1660e01b815260040161116f93929190613228565b600060405180830381600087803b15801561118957600080fd5b505af115801561119d573d6000803e3d6000fd5b5050505080915050949350505050565b600073ffffffffffffffffffffffffffffffffffffffff168173ffffffffffffffffffffffffffffffffffffffff16036111e657600080fd5b80600660006101000a81548173ffffffffffffffffffffffffffffffffffffffff021916908373ffffffffffffffffffffffffffffffffffffffff16021790555050565b600760009054906101000a900473ffffffffffffffffffffffffffffffffffffffff1673ffffffffffffffffffffffffffffffffffffffff166357d547858b8b8b8b8b8b8b8b8b8b6040518b63ffffffff1660e01b81526004016112979a999897969594939291906134cc565b600060405180830381600087803b1580156112b157600080fd5b505af11580156112c5573d6000803e3d6000fd5b5050505050505050505050505050565b600073ffffffffffffffffffffffffffffffffffffffff168173ffffffffffffffffffffffffffffffffffffffff160361130e57600080fd5b80600960006101000a81548173ffffffffffffffffffffffffffffffffffffffff021916908373ffffffffffffffffffffffffffffffffffffffff16021790555050565b6000600660009054906101000a900473ffffffffffffffffffffffffffffffffffffffff1673ffffffffffffffffffffffffffffffffffffffff166376e7e4df8888888888886040518763ffffffff1660e01b81526004016113b996959493929190613584565b6020604051808303816000875af11580156113d8573d6000803e3d6000fd5b505050506040513d601f19601f820116820180604052508101906113fc91906130cb565b90509695505050505050565b6000600660009054906101000a900473ffffffffffffffffffffffffffffffffffffffff1673ffffffffffffffffffffffffffffffffffffffff16638c39b67f836040518263ffffffff1660e01b81526004016114659190612358565b6020604051808303816000875af1158015611484573d6000803e3d6000fd5b505050506040513d601f19601f820116820180604052508101906114a891906131a8565b9050919050565b600060011515600960009054906101000a900473ffffffffffffffffffffffffffffffffffffffff1673ffffffffffffffffffffffffffffffffffffffff16639b0b5362846040518263ffffffff1660e01b81526004016115109190612358565b6020604051808303816000875af115801561152f573d6000803e3d6000fd5b505050506040513d601f19601f8201168201806040525081019061155391906131a8565b151503611818576000600960009054906101000a900473ffffffffffffffffffffffffffffffffffffffff1673ffffffffffffffffffffffffffffffffffffffff1663a7ccf928846040518263ffffffff1660e01b81526004016115b79190612358565b6080604051808303816000875af11580156115d6573d6000803e3d6000fd5b505050506040513d601f19601f820116820180604052508101906115fa9190613679565b905060011515600860009054906101000a900473ffffffffffffffffffffffffffffffffffffffff1673ffffffffffffffffffffffffffffffffffffffff1663330ba56a83606001516040518263ffffffff1660e01b815260040161165f9190612358565b6020604051808303816000875af115801561167e573d6000803e3d6000fd5b505050506040513d601f19601f820116820180604052508101906116a291906131a8565b1515148015611756575060011515600760009054906101000a900473ffffffffffffffffffffffffffffffffffffffff1673ffffffffffffffffffffffffffffffffffffffff1663d27fbe4783604001516040518263ffffffff1660e01b815260040161170f9190612358565b6020604051808303816000875af115801561172e573d6000803e3d6000fd5b505050506040513d601f19601f8201168201806040525081019061175291906131a8565b1515145b8015611807575060011515600660009054906101000a900473ffffffffffffffffffffffffffffffffffffffff1673ffffffffffffffffffffffffffffffffffffffff16638c39b67f83602001516040518263ffffffff1660e01b81526004016117c09190612358565b6020604051808303816000875af11580156117df573d6000803e3d6000fd5b505050506040513d601f19601f8201168201806040525081019061180391906131a8565b1515145b1561181657600191505061181d565b505b600090505b919050565b61182a611e36565b600960009054906101000a900473ffffffffffffffffffffffffffffffffffffffff1673ffffffffffffffffffffffffffffffffffffffff1663a7ccf928836040518263ffffffff1660e01b81526004016118859190612358565b6080604051808303816000875af11580156118a4573d6000803e3d6000fd5b505050506040513d601f19601f820116820180604052508101906118c89190613679565b9050919050565b600073ffffffffffffffffffffffffffffffffffffffff168173ffffffffffffffffffffffffffffffffffffffff160361190857600080fd5b80600760006101000a81548173ffffffffffffffffffffffffffffffffffffffff021916908373ffffffffffffffffffffffffffffffffffffffff16021790555050565b600860009054906101000a900473ffffffffffffffffffffffffffffffffffffffff1673ffffffffffffffffffffffffffffffffffffffff1663c0e6740c8787878787876040518763ffffffff1660e01b81526004016119b1969594939291906136a6565b600060405180830381600087803b1580156119cb57600080fd5b505af11580156119df573d6000803e3d6000fd5b50505050505050505050565b6000600760009054906101000a900473ffffffffffffffffffffffffffffffffffffffff1673ffffffffffffffffffffffffffffffffffffffff1663d27fbe47836040518263ffffffff1660e01b8152600401611a489190612358565b6020604051808303816000875af1158015611a67573d6000803e3d6000fd5b505050506040513d601f19601f82011682018060405250810190611a8b91906131a8565b9050919050565b600073ffffffffffffffffffffffffffffffffffffffff168173ffffffffffffffffffffffffffffffffffffffff1603611acb57600080fd5b80600860006101000a81548173ffffffffffffffffffffffffffffffffffffffff021916908373ffffffffffffffffffffffffffffffffffffffff16021790555050565b611b17611e5e565b600760009054906101000a900473ffffffffffffffffffffffffffffffffffffffff1673ffffffffffffffffffffffffffffffffffffffff1663db15b787836040518263ffffffff1660e01b8152600401611b729190612358565b6000604051808303816000875af1158015611b91573d6000803e3d6000fd5b505050506040513d6000823e3d601f19601f82011682018060405250810190611bba91906138a0565b9050919050565b600660009054906101000a900473ffffffffffffffffffffffffffffffffffffffff1673ffffffffffffffffffffffffffffffffffffffff1663ddf4732c888888888888886040518863ffffffff1660e01b8152600401611c2897969594939291906138e9565b600060405180830381600087803b158015611c4257600080fd5b505af1158015611c56573d6000803e3d6000fd5b5050505050505050505050565b6000600760009054906101000a900473ffffffffffffffffffffffffffffffffffffffff1673ffffffffffffffffffffffffffffffffffffffff1663e9ebc0b88b8b8b8b8b8b8b8b8b6040518a63ffffffff1660e01b8152600401611cd099989796959493929190613974565b6020604051808303816000875af1158015611cef573d6000803e3d6000fd5b505050506040513d601f19601f82011682018060405250810190611d1391906130cb565b90509998505050505050505050565b611d2a611eeb565b600860009054906101000a900473ffffffffffffffffffffffffffffffffffffffff1673ffffffffffffffffffffffffffffffffffffffff1663ef1a5668836040518263ffffffff1660e01b8152600401611d859190612358565b6000604051808303816000875af1158015611da4573d6000803e3d6000fd5b505050506040513d6000823e3d601f19601f82011682018060405250810190611dcd9190613baf565b9050919050565b6040518061012001604052806000815260200160008152602001606081526020016000815260200160608152602001606081526020016060815260200160008152602001600073ffffffffffffffffffffffffffffffffffffffff1681525090565b6040518060800160405280600081526020016000815260200160008152602001600081525090565b6040518061018001604052806000815260200160008152602001600073ffffffffffffffffffffffffffffffffffffffff1681526020016000815260200160008152602001600081526020016060815260200160608152602001606081526020016060815260200160008152602001600073ffffffffffffffffffffffffffffffffffffffff1681525090565b6040518061018001604052806000815260200160008152602001606081526020016000815260200160008152602001600081526020016060815260200160008152602001606081526020016060815260200160008152602001600073ffffffffffffffffffffffffffffffffffffffff1681525090565b600081519050919050565b600082825260208201905092915050565b60005b83811015611f9c578082015181840152602081019050611f81565b83811115611fab576000848401525b50505050565b6000601f19601f8301169050919050565b6000611fcd82611f62565b611fd78185611f6d565b9350611fe7818560208601611f7e565b611ff081611fb1565b840191505092915050565b600060208201905081810360008301526120158184611fc2565b905092915050565b6000604051905090565b600080fd5b600080fd5b6000819050919050565b61204481612031565b811461204f57600080fd5b50565b6000813590506120618161203b565b92915050565b600080fd5b600080fd5b7f4e487b7100000000000000000000000000000000000000000000000000000000600052604160045260246000fd5b6120a982611fb1565b810181811067ffffffffffffffff821117156120c8576120c7612071565b5b80604052505050565b60006120db61201d565b90506120e782826120a0565b919050565b600067ffffffffffffffff82111561210757612106612071565b5b61211082611fb1565b9050602081019050919050565b82818337600083830152505050565b600061213f61213a846120ec565b6120d1565b90508281526020810184848401111561215b5761215a61206c565b5b61216684828561211d565b509392505050565b600082601f83011261218357612182612067565b5b813561219384826020860161212c565b91505092915050565b600073ffffffffffffffffffffffffffffffffffffffff82169050919050565b60006121c78261219c565b9050919050565b6121d7816121bc565b81146121e257600080fd5b50565b6000813590506121f4816121ce565b92915050565b6000806000806000806000806000806101408b8d03121561221e5761221d612027565b5b600061222c8d828e01612052565b9a505060208b013567ffffffffffffffff81111561224d5761224c61202c565b5b6122598d828e0161216e565b995050604061226a8d828e01612052565b985050606061227b8d828e01612052565b975050608061228c8d828e01612052565b96505060a08b013567ffffffffffffffff8111156122ad576122ac61202c565b5b6122b98d828e0161216e565b95505060c06122ca8d828e01612052565b94505060e08b013567ffffffffffffffff8111156122eb576122ea61202c565b5b6122f78d828e0161216e565b9350506101008b013567ffffffffffffffff8111156123195761231861202c565b5b6123258d828e0161216e565b9250506101206123378d828e016121e5565b9150509295989b9194979a5092959850565b61235281612031565b82525050565b600060208201905061236d6000830184612349565b92915050565b60008060008060008060c087890312156123905761238f612027565b5b600061239e89828a01612052565b965050602087013567ffffffffffffffff8111156123bf576123be61202c565b5b6123cb89828a0161216e565b95505060406123dc89828a01612052565b945050606087013567ffffffffffffffff8111156123fd576123fc61202c565b5b61240989828a0161216e565b935050608087013567ffffffffffffffff81111561242a5761242961202c565b5b61243689828a0161216e565b92505060a061244789828a016121e5565b9150509295509295509295565b60006020828403121561246a57612469612027565b5b600061247884828501612052565b91505092915050565b60008115159050919050565b61249681612481565b82525050565b60006020820190506124b1600083018461248d565b92915050565b600080600080600060a086880312156124d3576124d2612027565b5b60006124e188828901612052565b95505060206124f288828901612052565b945050604061250388828901612052565b935050606061251488828901612052565b9250506080612525888289016121e5565b9150509295509295909350565b61253b81612031565b82525050565b600082825260208201905092915050565b600061255d82611f62565b6125678185612541565b9350612577818560208601611f7e565b61258081611fb1565b840191505092915050565b612594816121bc565b82525050565b6000610120830160008301516125b36000860182612532565b5060208301516125c66020860182612532565b50604083015184820360408601526125de8282612552565b91505060608301516125f36060860182612532565b506080830151848203608086015261260b8282612552565b91505060a083015184820360a08601526126258282612552565b91505060c083015184820360c086015261263f8282612552565b91505060e083015161265460e0860182612532565b5061010083015161266961010086018261258b565b508091505092915050565b6000602082019050818103600083015261268e818461259a565b905092915050565b600080600080608085870312156126b0576126af612027565b5b60006126be87828801612052565b94505060206126cf87828801612052565b93505060406126e087828801612052565b92505060606126f1878288016121e5565b91505092959194509250565b60006127088261219c565b9050919050565b612718816126fd565b811461272357600080fd5b50565b6000813590506127358161270f565b92915050565b60006020828403121561275157612750612027565b5b600061275f84828501612726565b91505092915050565b6000806000806000806000806000806101408b8d03121561278c5761278b612027565b5b600061279a8d828e01612052565b9a505060206127ab8d828e016121e5565b99505060406127bc8d828e01612052565b98505060606127cd8d828e01612052565b97505060806127de8d828e01612052565b96505060a08b013567ffffffffffffffff8111156127ff576127fe61202c565b5b61280b8d828e0161216e565b95505060c08b013567ffffffffffffffff81111561282c5761282b61202c565b5b6128388d828e0161216e565b94505060e08b013567ffffffffffffffff8111156128595761285861202c565b5b6128658d828e0161216e565b9350506101008b013567ffffffffffffffff8111156128875761288661202c565b5b6128938d828e0161216e565b9250506101206128a58d828e016121e5565b9150509295989b9194979a5092959850565b60008060008060008060c087890312156128d4576128d3612027565b5b600087013567ffffffffffffffff8111156128f2576128f161202c565b5b6128fe89828a0161216e565b965050602061290f89828a01612052565b955050604087013567ffffffffffffffff8111156129305761292f61202c565b5b61293c89828a0161216e565b945050606087013567ffffffffffffffff81111561295d5761295c61202c565b5b61296989828a0161216e565b935050608087013567ffffffffffffffff81111561298a5761298961202c565b5b61299689828a0161216e565b92505060a06129a789828a016121e5565b9150509295509295509295565b6080820160008201516129ca6000850182612532565b5060208201516129dd6020850182612532565b5060408201516129f06040850182612532565b506060820151612a036060850182612532565b50505050565b6000608082019050612a1e60008301846129b4565b92915050565b60008060008060008060c08789031215612a4157612a40612027565b5b6000612a4f89828a01612052565b965050602087013567ffffffffffffffff811115612a7057612a6f61202c565b5b612a7c89828a0161216e565b9550506040612a8d89828a01612052565b9450506060612a9e89828a01612052565b9350506080612aaf89828a01612052565b92505060a0612ac089828a016121e5565b9150509295509295509295565b600061018083016000830151612ae66000860182612532565b506020830151612af96020860182612532565b506040830151612b0c604086018261258b565b506060830151612b1f6060860182612532565b506080830151612b326080860182612532565b5060a0830151612b4560a0860182612532565b5060c083015184820360c0860152612b5d8282612552565b91505060e083015184820360e0860152612b778282612552565b915050610100830151848203610100860152612b938282612552565b915050610120830151848203610120860152612baf8282612552565b915050610140830151612bc6610140860182612532565b50610160830151612bdb61016086018261258b565b508091505092915050565b60006020820190508181036000830152612c008184612acd565b905092915050565b600080600080600080600060e0888a031215612c2757612c26612027565b5b6000612c358a828b01612052565b975050602088013567ffffffffffffffff811115612c5657612c5561202c565b5b612c628a828b0161216e565b9650506040612c738a828b01612052565b955050606088013567ffffffffffffffff811115612c9457612c9361202c565b5b612ca08a828b0161216e565b945050608088013567ffffffffffffffff811115612cc157612cc061202c565b5b612ccd8a828b0161216e565b93505060a088013567ffffffffffffffff811115612cee57612ced61202c565b5b612cfa8a828b0161216e565b92505060c0612d0b8a828b016121e5565b91505092959891949750929550565b60008060008060008060008060006101208a8c031215612d3d57612d3c612027565b5b6000612d4b8c828d016121e5565b9950506020612d5c8c828d01612052565b9850506040612d6d8c828d01612052565b9750506060612d7e8c828d01612052565b96505060808a013567ffffffffffffffff811115612d9f57612d9e61202c565b5b612dab8c828d0161216e565b95505060a08a013567ffffffffffffffff811115612dcc57612dcb61202c565b5b612dd88c828d0161216e565b94505060c08a013567ffffffffffffffff811115612df957612df861202c565b5b612e058c828d0161216e565b93505060e08a013567ffffffffffffffff811115612e2657612e2561202c565b5b612e328c828d0161216e565b925050610100612e448c828d016121e5565b9150509295985092959850929598565b600061018083016000830151612e6d6000860182612532565b506020830151612e806020860182612532565b5060408301518482036040860152612e988282612552565b9150506060830151612ead6060860182612532565b506080830151612ec06080860182612532565b5060a0830151612ed360a0860182612532565b5060c083015184820360c0860152612eeb8282612552565b91505060e0830151612f0060e0860182612532565b50610100830151848203610100860152612f1a8282612552565b915050610120830151848203610120860152612f368282612552565b915050610140830151612f4d610140860182612532565b50610160830151612f6261016086018261258b565b508091505092915050565b60006020820190508181036000830152612f878184612e54565b905092915050565b7f4e487b7100000000000000000000000000000000000000000000000000000000600052602260045260246000fd5b60006002820490506001821680612fd657607f821691505b602082108103612fe957612fe8612f8f565b5b50919050565b612ff8816121bc565b82525050565b600061014082019050613014600083018d612349565b8181036020830152613026818c611fc2565b9050613035604083018b612349565b613042606083018a612349565b61304f6080830189612349565b81810360a08301526130618188611fc2565b905061307060c0830187612349565b81810360e08301526130828186611fc2565b90508181036101008301526130978185611fc2565b90506130a7610120830184612fef565b9b9a5050505050505050505050565b6000815190506130c58161203b565b92915050565b6000602082840312156130e1576130e0612027565b5b60006130ef848285016130b6565b91505092915050565b600060e08201905061310d600083018a612349565b818103602083015261311f8189611fc2565b905061312e6040830188612349565b81810360608301526131408187611fc2565b905081810360808301526131548186611fc2565b905061316360a0830185612349565b61317060c0830184612fef565b98975050505050505050565b61318581612481565b811461319057600080fd5b50565b6000815190506131a28161317c565b92915050565b6000602082840312156131be576131bd612027565b5b60006131cc84828501613193565b91505092915050565b600060a0820190506131ea6000830188612349565b6131f76020830187612349565b6132046040830186612349565b6132116060830185612349565b61321e6080830184612fef565b9695505050505050565b600060608201905061323d6000830186612349565b61324a6020830185612349565b6132576040830184612fef565b949350505050565b600080fd5b600080fd5b600061327c613277846120ec565b6120d1565b9050828152602081018484840111156132985761329761206c565b5b6132a3848285611f7e565b509392505050565b600082601f8301126132c0576132bf612067565b5b81516132d0848260208601613269565b91505092915050565b6000815190506132e8816121ce565b92915050565b600061012082840312156133055761330461325f565b5b6133106101206120d1565b90506000613320848285016130b6565b6000830152506020613334848285016130b6565b602083015250604082015167ffffffffffffffff81111561335857613357613264565b5b613364848285016132ab565b6040830152506060613378848285016130b6565b606083015250608082015167ffffffffffffffff81111561339c5761339b613264565b5b6133a8848285016132ab565b60808301525060a082015167ffffffffffffffff8111156133cc576133cb613264565b5b6133d8848285016132ab565b60a08301525060c082015167ffffffffffffffff8111156133fc576133fb613264565b5b613408848285016132ab565b60c08301525060e061341c848285016130b6565b60e083015250610100613431848285016132d9565b6101008301525092915050565b60006020828403121561345457613453612027565b5b600082015167ffffffffffffffff8111156134725761347161202c565b5b61347e848285016132ee565b91505092915050565b600060808201905061349c6000830187612349565b6134a96020830186612349565b6134b66040830185612349565b6134c36060830184612fef565b95945050505050565b6000610140820190506134e2600083018d612349565b6134ef602083018c612fef565b6134fc604083018b612349565b613509606083018a612349565b6135166080830189612349565b81810360a08301526135288188611fc2565b905081810360c083015261353c8187611fc2565b905081810360e08301526135508186611fc2565b90508181036101008301526135658185611fc2565b9050613575610120830184612fef565b9b9a5050505050505050505050565b600060c082019050818103600083015261359e8189611fc2565b90506135ad6020830188612349565b81810360408301526135bf8187611fc2565b905081810360608301526135d38186611fc2565b905081810360808301526135e78185611fc2565b90506135f660a0830184612fef565b979650505050505050565b6000608082840312156136175761361661325f565b5b61362160806120d1565b90506000613631848285016130b6565b6000830152506020613645848285016130b6565b6020830152506040613659848285016130b6565b604083015250606061366d848285016130b6565b60608301525092915050565b60006080828403121561368f5761368e612027565b5b600061369d84828501613601565b91505092915050565b600060c0820190506136bb6000830189612349565b81810360208301526136cd8188611fc2565b90506136dc6040830187612349565b6136e96060830186612349565b6136f66080830185612349565b61370360a0830184612fef565b979650505050505050565b600061018082840312156137255761372461325f565b5b6137306101806120d1565b90506000613740848285016130b6565b6000830152506020613754848285016130b6565b6020830152506040613768848285016132d9565b604083015250606061377c848285016130b6565b6060830152506080613790848285016130b6565b60808301525060a06137a4848285016130b6565b60a08301525060c082015167ffffffffffffffff8111156137c8576137c7613264565b5b6137d4848285016132ab565b60c08301525060e082015167ffffffffffffffff8111156137f8576137f7613264565b5b613804848285016132ab565b60e08301525061010082015167ffffffffffffffff81111561382957613828613264565b5b613835848285016132ab565b6101008301525061012082015167ffffffffffffffff81111561385b5761385a613264565b5b613867848285016132ab565b6101208301525061014061387d848285016130b6565b61014083015250610160613893848285016132d9565b6101608301525092915050565b6000602082840312156138b6576138b5612027565b5b600082015167ffffffffffffffff8111156138d4576138d361202c565b5b6138e08482850161370e565b91505092915050565b600060e0820190506138fe600083018a612349565b81810360208301526139108189611fc2565b905061391f6040830188612349565b81810360608301526139318187611fc2565b905081810360808301526139458186611fc2565b905081810360a08301526139598185611fc2565b905061396860c0830184612fef565b98975050505050505050565b60006101208201905061398a600083018c612fef565b613997602083018b612349565b6139a4604083018a612349565b6139b16060830189612349565b81810360808301526139c38188611fc2565b905081810360a08301526139d78187611fc2565b905081810360c08301526139eb8186611fc2565b905081810360e08301526139ff8185611fc2565b9050613a0f610100830184612fef565b9a9950505050505050505050565b60006101808284031215613a3457613a3361325f565b5b613a3f6101806120d1565b90506000613a4f848285016130b6565b6000830152506020613a63848285016130b6565b602083015250604082015167ffffffffffffffff811115613a8757613a86613264565b5b613a93848285016132ab565b6040830152506060613aa7848285016130b6565b6060830152506080613abb848285016130b6565b60808301525060a0613acf848285016130b6565b60a08301525060c082015167ffffffffffffffff811115613af357613af2613264565b5b613aff848285016132ab565b60c08301525060e0613b13848285016130b6565b60e08301525061010082015167ffffffffffffffff811115613b3857613b37613264565b5b613b44848285016132ab565b6101008301525061012082015167ffffffffffffffff811115613b6a57613b69613264565b5b613b76848285016132ab565b61012083015250610140613b8c848285016130b6565b61014083015250610160613ba2848285016132d9565b6101608301525092915050565b600060208284031215613bc557613bc4612027565b5b600082015167ffffffffffffffff811115613be357613be261202c565b5b613bef84828501613a1d565b9150509291505056fea2646970667358221220ef2bfe0786d320136f9a53841bd58580a35292762d99651931877dd81983970064736f6c634300080e0033",
  "immutableReferences": {},
  "source": "// SPDX-License-Identifier: MIT\r\npragma solidity ^0.8.14;\r\n\r\n// A. Documentation Contract\r\ninterface IDocumentation {\r\n    struct DocumentationObject {\r\n        uint256 documentationID;\r\n        uint256 antiqueID;\r\n        string filehash;\r\n        uint256 fileSize;\r\n        string fileType;\r\n        string fileName;\r\n        string fileDescription;\r\n        uint256 uploadTime;\r\n        address payable uploader;\r\n    }\r\n\r\n    function AddDocumentation(\r\n        string memory _fileHash,\r\n        uint256 _fileSize,\r\n        string memory _fileType,\r\n        string memory _fileName,\r\n        string memory _fileDescription,\r\n        address payable _uploader\r\n    ) external returns (uint256);\r\n\r\n    function UpdateDocumentation(\r\n        uint256 _documentationID,\r\n        string memory _fileHash,\r\n        uint256 _fileSize,\r\n        string memory _fileType,\r\n        string memory _fileName,\r\n        string memory _fileDescription,\r\n        address payable _uploader\r\n    ) external;\r\n\r\n    function ValidateDocumentationID(uint256 _documentationID)\r\n        external\r\n        returns (bool);\r\n\r\n    function SetAntiqueIDByDocumentationID(\r\n        uint256 _documentationID,\r\n        uint256 _antiqueID,\r\n        address payable _uploader\r\n    ) external;\r\n\r\n    function GetDocumentationByID(uint256 _documentationID)\r\n        external\r\n        returns (DocumentationObject memory);\r\n}\r\n\r\n//B. Verification Contract\r\ninterface IVerification {\r\n    struct VerificateionObject {\r\n        //Owner And Appraiser Data\r\n        uint256 verificationID;\r\n        uint256 antiqueID;\r\n        address payable ownerAddress;\r\n        uint256 ownerID;\r\n        uint256 personVerificationID;\r\n\r\n        //Antique Object Data\r\n        uint256 ioTDeviceID;\r\n        string estimateManufactureYears;\r\n        string antiqueRareness;\r\n        string antiqueAuthenticity;\r\n        string antiqueRealness;\r\n\r\n        //Time And Sender Data\r\n        uint256 uploadTime;\r\n        address payable uploader;\r\n    }\r\n\r\n    function AddVerification \r\n    (\r\n        //Owner and Appraiser Data\r\n        address payable _ownerAddress,\r\n        uint256 _ownerID,\r\n        uint256 _personVerificationID,\r\n        \r\n        //Antique Object Data\r\n        uint256 _ioTDeviceID,\r\n        string memory _estimateManufactureYears,\r\n        string memory _antiqueRareness,\r\n        string memory _antiqueAuthenticity,\r\n        string memory _antiqueRealness,\r\n\r\n        //Time Data    \r\n        address payable _uploader\r\n    )  external returns (uint256);\r\n\r\n     function UpdateVerification \r\n    (\r\n        //Owner and Appraiser Data\r\n        uint256 _verificationID,\r\n        address payable _newOwnerAddress,\r\n        uint256 _newOwnerID,\r\n        uint256 _newPersonVerificationID,\r\n        \r\n        //Antique Object Data\r\n        uint256 _newIoTDeviceID,\r\n        string memory _newEstimateManufactureYears,\r\n        string memory _newAntiqueRareness,\r\n        string memory _newAntiqueAuthenticity,\r\n        string memory _newAntiqueRealness,\r\n\r\n        //Time Data\r\n        address payable _uploader    \r\n    ) external;\r\n\r\n    function ValidateVerificationID(uint256 _verificationID)\r\n        external\r\n        returns (bool);\r\n\r\n    function SetAntiqueIDByVerificationID(\r\n        uint256 _verificationID,\r\n        uint256 _antiqueID,\r\n        address payable _uploader\r\n    ) external;\r\n\r\n    function GetVerificationByID(uint256 _verificationID)\r\n        external\r\n        returns (VerificateionObject memory);\r\n}\r\n\r\n//C. Description Contract\r\n\r\ninterface IDescription {\r\n    struct DescriptionObject {\r\n        uint256 descriptionID;\r\n        uint256 antiqueID;\r\n\r\n        //Description Dimension\r\n        string materialCreated;\r\n        uint256 antiqueHeight;\r\n        uint256 antiqueLength;\r\n        uint256 anitqueWidth;\r\n        \r\n        //Description File Upload\r\n        string filehash;\r\n        uint256 fileSize;\r\n        string fileType;\r\n        string fileName;\r\n\r\n        uint256 uploadTime;\r\n        address payable uploader;\r\n    }\r\n\r\n     function  AddDescription\r\n    (\r\n        uint256 _antiqueObjectID,\r\n        string memory _materialCreated,\r\n        uint256 _antiqueHeight,\r\n        uint256 _antiqueLength,\r\n        uint256 _anitqueWidth,\r\n        string memory filehash,\r\n        uint256 fileSize,\r\n        string memory fileType,\r\n        string memory fileName,\r\n        address payable _uploader\r\n    ) external returns (uint256);\r\n\r\n    function UpdateDescriptionMaterials \r\n    (\r\n        uint256 _descriptionID,\r\n        string memory _newMaterialCreated,\r\n        uint256 _antiqueHeight,\r\n        uint256 _antiqueLength,\r\n        uint256 _anitqueWidth,\r\n        address payable _uploader\r\n    ) external;\r\n\r\n    function UpdateDescriptionUploadFile \r\n    (\r\n        uint256 _descriptionID,\r\n        string memory filehash,\r\n        uint256 fileSize,\r\n        string memory fileType,\r\n        string memory fileName,\r\n        uint256 _uploadTime,\r\n        address payable _uploader\r\n    ) external;\r\n\r\n    function ValidateDescriptionID(uint256 _descriptionID)\r\n        external\r\n        returns (bool);\r\n\r\n    function SetAntiqueIDByDescriptionID(\r\n        uint256 _descriptionID,\r\n        uint256 _antiqueID,\r\n        address payable _uploader\r\n    ) external;\r\n\r\n    function GetDescriptionByID(uint256 _descriptionID)\r\n        external\r\n        returns (DescriptionObject memory);\r\n}\r\n\r\n// D. Antique Contract\r\ninterface IAntique {\r\n    struct AntiqueObject {\r\n        uint256 antiqueID;\r\n        uint256 documentationID;\r\n        uint256 verificationID;\r\n        uint256 descriptionID;\r\n    }\r\n\r\n    function AddAntique(\r\n        uint256 _documentationID,\r\n        uint256 _verificationID,\r\n        uint256 _descriptionID,\r\n        address payable _uploader\r\n    ) external returns (uint256);\r\n\r\n    function UpdateAntique(\r\n        uint256 _antiqueID,\r\n        uint256 _documentationID,\r\n        uint256 _verificationID,\r\n        uint256 _descriptionID,\r\n        address payable _uploader\r\n    ) external;\r\n\r\n    function ValidateAntiqueID(uint256 _antiqueID) external returns (bool);\r\n\r\n    function GetAntiqueByID(uint256 _antiqueID)\r\n        external\r\n        returns (AntiqueObject memory);\r\n}\r\n\r\ncontract DatabaseController {\r\n    string public name = \"DatabaseController\";\r\n    address antiqueContractAddress;\r\n    address descriptionContractAddress;\r\n    address documentationContractAddress;\r\n    address verificationContractAddress;\r\n    uint256 antiqueCount = 0;\r\n\r\n    IDocumentation documentationContract;\r\n    IVerification verificationContract;\r\n    IDescription descriptionContract;\r\n    IAntique antiqueContract;\r\n\r\n    function setAntiqueContractAddress(address _antiqueContractAddress)\r\n        public\r\n        payable\r\n    {\r\n        require(_antiqueContractAddress != address(0));\r\n        antiqueContract = IAntique(_antiqueContractAddress);\r\n    }\r\n\r\n    function setDocumentationContractAddress (address _documentationContractAddress)\r\n    public payable\r\n    {\r\n        require (_documentationContractAddress != address(0));\r\n        documentationContract = IDocumentation(_documentationContractAddress);\r\n    }\r\n\r\n    function setVerificationContractAddress (address _verificationContractAddress)\r\n    public payable\r\n    {\r\n        require (_verificationContractAddress != address(0));\r\n        verificationContract = IVerification(_verificationContractAddress);\r\n    }\r\n\r\n    function setDescriptionContractAddress(address _descriptionContractAddress)\r\n    public payable\r\n    {\r\n        require (_descriptionContractAddress != address(0));\r\n        descriptionContract = IDescription(_descriptionContractAddress);\r\n    }\r\n\r\n\r\n    // constructor(\r\n    //     address _antiqueContractAddress,\r\n    //     address _descriptionContractAddress,\r\n    //     address _documentationContractAddress,\r\n    //     address _verificationContractAddress)\r\n    // {\r\n    //    //Check Parameters\r\n    //     require(_antiqueContractAddress != address(0));\r\n    //     require(_descriptionContractAddress != address(0));\r\n    //     require(_documentationContractAddress != address(0));\r\n    //     require(_verificationContractAddress != address(0));\r\n\r\n    //     //Set the Address For Contracts\r\n    //     documentationContract = IDocumentation(_documentationContractAddress);\r\n    //     verificationContract = IVerification(_verificationContractAddress);\r\n    //     descriptionContract = IDescription(_descriptionContractAddress);\r\n    //     antiqueContract = IAntique(_antiqueContractAddress);\r\n\r\n    //     name = \"DatabaseController\";\r\n    // }\r\n\r\n    //A. Verification Functions\r\n\r\n    //1. Add Verification Function\r\n    function AddVerification \r\n    (\r\n        //Owner and Appraiser Data\r\n        address payable _ownerAddress,\r\n        uint256 _ownerID,\r\n        uint256 _personVerificationID,\r\n        \r\n        //Antique Object Data\r\n        uint256 _ioTDeviceID,\r\n        string memory _estimateManufactureYears,\r\n        string memory _antiqueRareness,\r\n        string memory _antiqueAuthenticity,\r\n        string memory _antiqueRealness,\r\n\r\n        //Time Data    \r\n        address payable _uploader\r\n    )  external returns (uint256) {\r\n        return\r\n            verificationContract.AddVerification(\r\n                payable(_ownerAddress),\r\n                _ownerID,\r\n                _personVerificationID,\r\n                _ioTDeviceID,\r\n                _estimateManufactureYears,\r\n                _antiqueRareness,\r\n                _antiqueAuthenticity,\r\n                _antiqueRealness,\r\n                _uploader\r\n            );\r\n    }\r\n\r\n    //2. Update Verification Function\r\n     function UpdateVerification \r\n    (\r\n        //Owner and Appraiser Data\r\n        uint256 _verificationID,\r\n        address payable _newOwnerAddress,\r\n        uint256 _newOwnerID,\r\n        uint256 _newPersonVerificationID,\r\n        \r\n        //Antique Object Data\r\n        uint256 _newIoTDeviceID,\r\n        string memory _newEstimateManufactureYears,\r\n        string memory _newAntiqueRareness,\r\n        string memory _newAntiqueAuthenticity,\r\n        string memory _newAntiqueRealness,\r\n\r\n        //Time Data\r\n        address payable _uploader    \r\n    )\r\n    external {\r\n        verificationContract.UpdateVerification(\r\n            _verificationID,\r\n            _newOwnerAddress,\r\n            _newOwnerID,\r\n            _newPersonVerificationID,\r\n            _newIoTDeviceID,\r\n            _newEstimateManufactureYears,\r\n            _newAntiqueRareness,\r\n            _newAntiqueAuthenticity,\r\n            _newAntiqueRealness,\r\n            _uploader\r\n        );\r\n    }\r\n\r\n    //3. Validate Verification ID\r\n    function ValidateVerificationID(uint256 _verificationID)\r\n        external\r\n        returns (bool)\r\n    {\r\n        return verificationContract.ValidateVerificationID(_verificationID);\r\n    }\r\n\r\n    //4. Get Verification By ID\r\n    function GetVerificationByID(uint256 _verificationID)\r\n        external\r\n        returns (IVerification.VerificateionObject memory)\r\n    {\r\n        return verificationContract.GetVerificationByID(_verificationID);\r\n    }\r\n\r\n    // B. Description Contract\r\n\r\n    //1. Add Description Function\r\n     function  AddDescription\r\n    (\r\n       uint256 _antiqueObjectID,\r\n        string memory _materialCreated,\r\n        uint256 _antiqueHeight,\r\n        uint256 _antiqueLength,\r\n        uint256 _anitqueWidth,\r\n\r\n        string memory _filehash,\r\n        uint256 _fileSize,\r\n        string  memory _fileType,\r\n        string memory _fileName,\r\n        address payable _uploader\r\n    ) external returns (uint256) {\r\n        return\r\n            descriptionContract.AddDescription(\r\n                _antiqueObjectID,\r\n                _materialCreated,\r\n                _antiqueHeight,\r\n                _antiqueLength,\r\n                _anitqueWidth,\r\n                _filehash,\r\n                _fileSize,\r\n                _fileType,\r\n                _fileName,\r\n                _uploader\r\n            );\r\n    }\r\n\r\n    //2. Update Description Materials Function\r\n    function UpdateDescriptionMaterials \r\n    (\r\n        uint256 _descriptionID,\r\n        string memory _newMaterialCreated,\r\n        uint256 _antiqueHeight,\r\n        uint256 _antiqueLength,\r\n        uint256 _anitqueWidth,\r\n        address payable _uploader\r\n    ) external {\r\n        descriptionContract.UpdateDescriptionMaterials(\r\n            _descriptionID,\r\n            _newMaterialCreated,\r\n            _antiqueHeight,\r\n            _antiqueLength,\r\n            _anitqueWidth,\r\n            _uploader\r\n        );\r\n    }\r\n    //2.1 Update Description Upload File\r\n    function UpdateDescriptionUploadFile\r\n    (\r\n        uint256 _descriptionID,\r\n        string memory _filehash,\r\n        uint256 _fileSize,\r\n        string memory _fileType,\r\n        string memory _fileName,\r\n        address payable _uploader\r\n    ) \r\n    external\r\n    {\r\n        descriptionContract.UpdateDescriptionUploadFile\r\n        (\r\n            _descriptionID,\r\n            _filehash,\r\n            _fileSize,\r\n            _fileType,\r\n            _fileName,\r\n            block.timestamp,\r\n            _uploader\r\n        );\r\n\r\n    }\r\n\r\n    //3. Validate Description ID\r\n    function ValidateDescriptionID(uint256 _descriptionID)\r\n        external\r\n        returns (bool)\r\n    {\r\n        return descriptionContract.ValidateDescriptionID(_descriptionID);\r\n    }\r\n\r\n    //4. Get Description By Description ID\r\n    function GetDescriptionByID(uint256 _descriptionID)\r\n        external\r\n        returns (IDescription.DescriptionObject memory)\r\n    {\r\n        return descriptionContract.GetDescriptionByID(_descriptionID);\r\n    }\r\n\r\n    //C. Documentation Contract\r\n    //Return Unit256 ID - ID for Created Documentation\r\n\r\n    //1. Add Documentation\r\n    function AddDocumentation(\r\n        string memory _fileHash,\r\n        uint256 _fileSize,\r\n        string memory _fileType,\r\n        string memory _fileName,\r\n        string memory _fileDescription,\r\n        address payable _uploader\r\n    ) external returns (uint256) {\r\n        return\r\n            documentationContract.AddDocumentation(\r\n                _fileHash,\r\n                _fileSize,\r\n                _fileType,\r\n                _fileName,\r\n                _fileDescription,\r\n                _uploader\r\n            );\r\n    }\r\n\r\n    //2. Update Documentation\r\n    function UpdateDocumentation(\r\n        uint256 _documentationID,\r\n        string memory _fileHash,\r\n        uint256 _fileSize,\r\n        string memory _fileType,\r\n        string memory _fileName,\r\n        string memory _fileDescription,\r\n        address payable _uploader\r\n    ) external {\r\n        documentationContract.UpdateDocumentation(\r\n            _documentationID,\r\n            _fileHash,\r\n            _fileSize,\r\n            _fileType,\r\n            _fileName,\r\n            _fileDescription,\r\n            _uploader\r\n        );\r\n    }\r\n\r\n    //3. Validate Documentation\r\n    function ValidateDocumentationID(uint256 _documentationID)\r\n        external\r\n        returns (bool)\r\n    {\r\n        return documentationContract.ValidateDocumentationID(_documentationID);\r\n    }\r\n\r\n    //4. Get Documentation By ID\r\n    function GetDocumentationByID(uint256 _documentationID)\r\n        external\r\n        returns (IDocumentation.DocumentationObject memory)\r\n    {\r\n        return documentationContract.GetDocumentationByID(_documentationID);\r\n    }\r\n\r\n    // D.Antique Contract\r\n    // 1. Add Antique Object\r\n    function AddAntique(\r\n        uint256 _documentationID,\r\n        uint256 _verificationID,\r\n        uint256 _descriptionID,\r\n        address payable _uploader\r\n    ) external returns (uint256) {\r\n        //Check Parameters\r\n        require(\r\n            documentationContract.ValidateDocumentationID(_documentationID) ==\r\n                true\r\n        );\r\n        require(\r\n            verificationContract.ValidateVerificationID(_verificationID) == true\r\n        );\r\n        require(\r\n            descriptionContract.ValidateDescriptionID(_descriptionID) == true\r\n        );\r\n\r\n        // Create A New Antique Object\r\n        uint256 _antiqueID = antiqueContract.AddAntique(\r\n            _documentationID,\r\n            _verificationID,\r\n            _descriptionID,\r\n            _uploader\r\n        );\r\n\r\n        // Set Antique ID In Verification Object, Documentation Object and Description Object\r\n        documentationContract.SetAntiqueIDByDocumentationID(\r\n            _documentationID,\r\n            _antiqueID,\r\n            _uploader\r\n        );\r\n        verificationContract.SetAntiqueIDByVerificationID(\r\n            _verificationID,\r\n            _antiqueID,\r\n            _uploader\r\n        );\r\n        descriptionContract.SetAntiqueIDByDescriptionID(\r\n            _descriptionID,\r\n            _antiqueID,\r\n            _uploader\r\n        );\r\n        return _antiqueID;\r\n    }\r\n\r\n    //2. Update Antique Object\r\n    function UpdateAntique(\r\n        uint256 _antiqueID,\r\n        uint256 _documentationID,\r\n        uint256 _verificationID,\r\n        uint256 _descriptionID,\r\n        address payable _uploader\r\n    ) external {\r\n        //Check Parameters\r\n\r\n        require(\r\n            documentationContract.ValidateDocumentationID(_documentationID) ==\r\n                true\r\n        );\r\n        require(\r\n            verificationContract.ValidateVerificationID(_verificationID) == true\r\n        );\r\n        require(\r\n            descriptionContract.ValidateDescriptionID(_descriptionID) == true\r\n        );\r\n\r\n        //Update Antique Object Data\r\n        require(ValidateAntiqueID(_antiqueID) == true);\r\n        antiqueContract.UpdateAntique(\r\n            _antiqueID,\r\n            _documentationID,\r\n            _verificationID,\r\n            _descriptionID,\r\n            _uploader\r\n        );\r\n\r\n        //Update Description, Verification and Documentation Data\r\n        documentationContract.SetAntiqueIDByDocumentationID(\r\n            _documentationID,\r\n            _antiqueID,\r\n            _uploader\r\n        );\r\n        verificationContract.SetAntiqueIDByVerificationID(\r\n            _verificationID,\r\n            _antiqueID,\r\n            _uploader\r\n        );\r\n        descriptionContract.SetAntiqueIDByDescriptionID(\r\n            _descriptionID,\r\n            _antiqueID,\r\n            _uploader\r\n        );\r\n    }\r\n\r\n    //3. Validate Antique Object ID\r\n    function ValidateAntiqueID(uint256 _antiqueID) public returns (bool) {\r\n        if (antiqueContract.ValidateAntiqueID(_antiqueID) == true) {\r\n            IAntique.AntiqueObject memory _antiqueData = antiqueContract\r\n                .GetAntiqueByID(_antiqueID);\r\n            if (\r\n                descriptionContract.ValidateDescriptionID(\r\n                    _antiqueData.descriptionID\r\n                ) ==\r\n                true &&\r\n                verificationContract.ValidateVerificationID(\r\n                    _antiqueData.verificationID\r\n                ) ==\r\n                true &&\r\n                documentationContract.ValidateDocumentationID(\r\n                    _antiqueData.documentationID\r\n                ) ==\r\n                true\r\n            ) {\r\n                return true;\r\n            }\r\n        }\r\n        return false;\r\n    }\r\n\r\n    //4. Get Antique By ID\r\n    function GetAntiqueByID(uint256 _antiqueID)\r\n        public\r\n        returns (IAntique.AntiqueObject memory)\r\n    {\r\n        return antiqueContract.GetAntiqueByID(_antiqueID);\r\n    }\r\n}\r\n",
  "sourcePath": "C:\\Users\\Natha\\OneDrive - The University of Sydney (Students)\\University of Sydney Materials\\Studying\\Year 5\\Semester 1\\Thesis B\\Thesis B Project Code\\truffle\\contracts\\DatabaseController.sol",
  "compiler": {
    "name": "solc",
    "version": "0.8.14+commit.80d49f37.Emscripten.clang"
  },
  "schemaVersion": "3.4.11",
  "updatedAt": "2023-02-21T13:19:48.929Z",
  "networkType": "ethereum",
  "devdoc": {
    "kind": "dev",
    "methods": {},
    "version": 1
  },
  "userdoc": {
    "kind": "user",
    "methods": {},
    "version": 1
  }
}