{
  "contractName": "DatabaseController",
  "abi": [
    {
      "inputs": [],
      "name": "name",
      "outputs": [
        {
          "internalType": "string",
          "name": "",
          "type": "string"
        }
      ],
      "stateMutability": "view",
      "type": "function",
      "constant": true
    },
    {
      "inputs": [
        {
          "internalType": "address",
          "name": "_antiqueContractAddress",
          "type": "address"
        }
      ],
      "name": "setAntiqueContractAddress",
      "outputs": [],
      "stateMutability": "payable",
      "type": "function",
      "payable": true
    },
    {
      "inputs": [
        {
          "internalType": "address",
          "name": "_documentationContractAddress",
          "type": "address"
        }
      ],
      "name": "setDocumentationContractAddress",
      "outputs": [],
      "stateMutability": "payable",
      "type": "function",
      "payable": true
    },
    {
      "inputs": [
        {
          "internalType": "address",
          "name": "_verificationContractAddress",
          "type": "address"
        }
      ],
      "name": "setVerificationContractAddress",
      "outputs": [],
      "stateMutability": "payable",
      "type": "function",
      "payable": true
    },
    {
      "inputs": [
        {
          "internalType": "address",
          "name": "_descriptionContractAddress",
          "type": "address"
        }
      ],
      "name": "setDescriptionContractAddress",
      "outputs": [],
      "stateMutability": "payable",
      "type": "function",
      "payable": true
    },
    {
      "inputs": [
        {
          "internalType": "address payable",
          "name": "_ownerAddress",
          "type": "address"
        },
        {
          "internalType": "uint256",
          "name": "_ownerID",
          "type": "uint256"
        },
        {
          "internalType": "uint256",
          "name": "_personVerificationID",
          "type": "uint256"
        },
        {
          "internalType": "uint256",
          "name": "_ioTDeviceID",
          "type": "uint256"
        },
        {
          "internalType": "string",
          "name": "_estimateManufactureYears",
          "type": "string"
        },
        {
          "internalType": "string",
          "name": "_antiqueRareness",
          "type": "string"
        },
        {
          "internalType": "string",
          "name": "_antiqueAuthenticity",
          "type": "string"
        },
        {
          "internalType": "string",
          "name": "_antiqueRealness",
          "type": "string"
        },
        {
          "internalType": "address payable",
          "name": "_uploader",
          "type": "address"
        }
      ],
      "name": "AddVerification",
      "outputs": [
        {
          "internalType": "uint256",
          "name": "",
          "type": "uint256"
        }
      ],
      "stateMutability": "nonpayable",
      "type": "function"
    },
    {
      "inputs": [
        {
          "internalType": "uint256",
          "name": "_verificationID",
          "type": "uint256"
        },
        {
          "internalType": "address payable",
          "name": "_newOwnerAddress",
          "type": "address"
        },
        {
          "internalType": "uint256",
          "name": "_newOwnerID",
          "type": "uint256"
        },
        {
          "internalType": "uint256",
          "name": "_newPersonVerificationID",
          "type": "uint256"
        },
        {
          "internalType": "uint256",
          "name": "_newIoTDeviceID",
          "type": "uint256"
        },
        {
          "internalType": "string",
          "name": "_newEstimateManufactureYears",
          "type": "string"
        },
        {
          "internalType": "string",
          "name": "_newAntiqueRareness",
          "type": "string"
        },
        {
          "internalType": "string",
          "name": "_newAntiqueAuthenticity",
          "type": "string"
        },
        {
          "internalType": "string",
          "name": "_newAntiqueRealness",
          "type": "string"
        },
        {
          "internalType": "address payable",
          "name": "_uploader",
          "type": "address"
        }
      ],
      "name": "UpdateVerification",
      "outputs": [],
      "stateMutability": "nonpayable",
      "type": "function"
    },
    {
      "inputs": [
        {
          "internalType": "uint256",
          "name": "_verificationID",
          "type": "uint256"
        }
      ],
      "name": "ValidateVerificationID",
      "outputs": [
        {
          "internalType": "bool",
          "name": "",
          "type": "bool"
        }
      ],
      "stateMutability": "nonpayable",
      "type": "function"
    },
    {
      "inputs": [
        {
          "internalType": "uint256",
          "name": "_verificationID",
          "type": "uint256"
        }
      ],
      "name": "GetVerificationByID",
      "outputs": [
        {
          "components": [
            {
              "internalType": "uint256",
              "name": "verificationID",
              "type": "uint256"
            },
            {
              "internalType": "uint256",
              "name": "antiqueID",
              "type": "uint256"
            },
            {
              "internalType": "address payable",
              "name": "ownerAddress",
              "type": "address"
            },
            {
              "internalType": "uint256",
              "name": "ownerID",
              "type": "uint256"
            },
            {
              "internalType": "uint256",
              "name": "personVerificationID",
              "type": "uint256"
            },
            {
              "internalType": "uint256",
              "name": "ioTDeviceID",
              "type": "uint256"
            },
            {
              "internalType": "string",
              "name": "estimateManufactureYears",
              "type": "string"
            },
            {
              "internalType": "string",
              "name": "antiqueRareness",
              "type": "string"
            },
            {
              "internalType": "string",
              "name": "antiqueAuthenticity",
              "type": "string"
            },
            {
              "internalType": "string",
              "name": "antiqueRealness",
              "type": "string"
            },
            {
              "internalType": "uint256",
              "name": "uploadTime",
              "type": "uint256"
            },
            {
              "internalType": "address payable",
              "name": "uploader",
              "type": "address"
            }
          ],
          "internalType": "struct IVerification.VerificateionObject",
          "name": "",
          "type": "tuple"
        }
      ],
      "stateMutability": "nonpayable",
      "type": "function"
    },
    {
      "inputs": [
        {
          "internalType": "uint256",
          "name": "_antiqueObjectID",
          "type": "uint256"
        },
        {
          "internalType": "string",
          "name": "_materialCreated",
          "type": "string"
        },
        {
          "internalType": "uint256",
          "name": "_antiqueHeight",
          "type": "uint256"
        },
        {
          "internalType": "uint256",
          "name": "_antiqueLength",
          "type": "uint256"
        },
        {
          "internalType": "uint256",
          "name": "_anitqueWidth",
          "type": "uint256"
        },
        {
          "internalType": "address payable",
          "name": "_uploader",
          "type": "address"
        }
      ],
      "name": "AddDescription",
      "outputs": [
        {
          "internalType": "uint256",
          "name": "",
          "type": "uint256"
        }
      ],
      "stateMutability": "nonpayable",
      "type": "function"
    },
    {
      "inputs": [
        {
          "internalType": "uint256",
          "name": "_descriptionID",
          "type": "uint256"
        },
        {
          "internalType": "string",
          "name": "_newMaterialCreated",
          "type": "string"
        },
        {
          "internalType": "uint256",
          "name": "_antiqueHeight",
          "type": "uint256"
        },
        {
          "internalType": "uint256",
          "name": "_antiqueLength",
          "type": "uint256"
        },
        {
          "internalType": "uint256",
          "name": "_anitqueWidth",
          "type": "uint256"
        },
        {
          "internalType": "address payable",
          "name": "_uploader",
          "type": "address"
        }
      ],
      "name": "UpdateDescriptionMaterials",
      "outputs": [],
      "stateMutability": "nonpayable",
      "type": "function"
    },
    {
      "inputs": [
        {
          "internalType": "uint256",
          "name": "_descriptionID",
          "type": "uint256"
        }
      ],
      "name": "ValidateDescriptionID",
      "outputs": [
        {
          "internalType": "bool",
          "name": "",
          "type": "bool"
        }
      ],
      "stateMutability": "nonpayable",
      "type": "function"
    },
    {
      "inputs": [
        {
          "internalType": "uint256",
          "name": "_descriptionID",
          "type": "uint256"
        }
      ],
      "name": "GetDescriptionByID",
      "outputs": [
        {
          "components": [
            {
              "internalType": "uint256",
              "name": "descriptionID",
              "type": "uint256"
            },
            {
              "internalType": "uint256",
              "name": "antiqueID",
              "type": "uint256"
            },
            {
              "internalType": "string",
              "name": "materialCreated",
              "type": "string"
            },
            {
              "internalType": "uint256",
              "name": "antiqueHeight",
              "type": "uint256"
            },
            {
              "internalType": "uint256",
              "name": "antiqueLength",
              "type": "uint256"
            },
            {
              "internalType": "uint256",
              "name": "anitqueWidth",
              "type": "uint256"
            },
            {
              "internalType": "uint256",
              "name": "uploadTime",
              "type": "uint256"
            },
            {
              "internalType": "address payable",
              "name": "uploader",
              "type": "address"
            }
          ],
          "internalType": "struct IDescription.DescriptionObject",
          "name": "",
          "type": "tuple"
        }
      ],
      "stateMutability": "nonpayable",
      "type": "function"
    },
    {
      "inputs": [
        {
          "internalType": "string",
          "name": "_fileHash",
          "type": "string"
        },
        {
          "internalType": "uint256",
          "name": "_fileSize",
          "type": "uint256"
        },
        {
          "internalType": "string",
          "name": "_fileType",
          "type": "string"
        },
        {
          "internalType": "string",
          "name": "_fileName",
          "type": "string"
        },
        {
          "internalType": "string",
          "name": "_fileDescription",
          "type": "string"
        },
        {
          "internalType": "address payable",
          "name": "_uploader",
          "type": "address"
        }
      ],
      "name": "AddDocumentation",
      "outputs": [
        {
          "internalType": "uint256",
          "name": "",
          "type": "uint256"
        }
      ],
      "stateMutability": "nonpayable",
      "type": "function"
    },
    {
      "inputs": [
        {
          "internalType": "uint256",
          "name": "_documentationID",
          "type": "uint256"
        },
        {
          "internalType": "string",
          "name": "_fileHash",
          "type": "string"
        },
        {
          "internalType": "uint256",
          "name": "_fileSize",
          "type": "uint256"
        },
        {
          "internalType": "string",
          "name": "_fileType",
          "type": "string"
        },
        {
          "internalType": "string",
          "name": "_fileName",
          "type": "string"
        },
        {
          "internalType": "string",
          "name": "_fileDescription",
          "type": "string"
        },
        {
          "internalType": "address payable",
          "name": "_uploader",
          "type": "address"
        }
      ],
      "name": "UpdateDocumentation",
      "outputs": [],
      "stateMutability": "nonpayable",
      "type": "function"
    },
    {
      "inputs": [
        {
          "internalType": "uint256",
          "name": "_documentationID",
          "type": "uint256"
        }
      ],
      "name": "ValidateDocumentationID",
      "outputs": [
        {
          "internalType": "bool",
          "name": "",
          "type": "bool"
        }
      ],
      "stateMutability": "nonpayable",
      "type": "function"
    },
    {
      "inputs": [
        {
          "internalType": "uint256",
          "name": "_documentationID",
          "type": "uint256"
        }
      ],
      "name": "GetDocumentationByID",
      "outputs": [
        {
          "components": [
            {
              "internalType": "uint256",
              "name": "documentationID",
              "type": "uint256"
            },
            {
              "internalType": "uint256",
              "name": "antiqueID",
              "type": "uint256"
            },
            {
              "internalType": "string",
              "name": "filehash",
              "type": "string"
            },
            {
              "internalType": "uint256",
              "name": "fileSize",
              "type": "uint256"
            },
            {
              "internalType": "string",
              "name": "fileType",
              "type": "string"
            },
            {
              "internalType": "string",
              "name": "fileName",
              "type": "string"
            },
            {
              "internalType": "string",
              "name": "fileDescription",
              "type": "string"
            },
            {
              "internalType": "uint256",
              "name": "uploadTime",
              "type": "uint256"
            },
            {
              "internalType": "address payable",
              "name": "uploader",
              "type": "address"
            }
          ],
          "internalType": "struct IDocumentation.DocumentationObject",
          "name": "",
          "type": "tuple"
        }
      ],
      "stateMutability": "nonpayable",
      "type": "function"
    },
    {
      "inputs": [
        {
          "internalType": "uint256",
          "name": "_documentationID",
          "type": "uint256"
        },
        {
          "internalType": "uint256",
          "name": "_verificationID",
          "type": "uint256"
        },
        {
          "internalType": "uint256",
          "name": "_descriptionID",
          "type": "uint256"
        },
        {
          "internalType": "address payable",
          "name": "_uploader",
          "type": "address"
        }
      ],
      "name": "AddAntique",
      "outputs": [
        {
          "internalType": "uint256",
          "name": "",
          "type": "uint256"
        }
      ],
      "stateMutability": "nonpayable",
      "type": "function"
    },
    {
      "inputs": [
        {
          "internalType": "uint256",
          "name": "_antiqueID",
          "type": "uint256"
        },
        {
          "internalType": "uint256",
          "name": "_documentationID",
          "type": "uint256"
        },
        {
          "internalType": "uint256",
          "name": "_verificationID",
          "type": "uint256"
        },
        {
          "internalType": "uint256",
          "name": "_descriptionID",
          "type": "uint256"
        },
        {
          "internalType": "address payable",
          "name": "_uploader",
          "type": "address"
        }
      ],
      "name": "UpdateAntique",
      "outputs": [],
      "stateMutability": "nonpayable",
      "type": "function"
    },
    {
      "inputs": [
        {
          "internalType": "uint256",
          "name": "_antiqueID",
          "type": "uint256"
        }
      ],
      "name": "ValidateAntiqueID",
      "outputs": [
        {
          "internalType": "bool",
          "name": "",
          "type": "bool"
        }
      ],
      "stateMutability": "nonpayable",
      "type": "function"
    },
    {
      "inputs": [
        {
          "internalType": "uint256",
          "name": "_antiqueID",
          "type": "uint256"
        }
      ],
      "name": "GetAntiqueByID",
      "outputs": [
        {
          "components": [
            {
              "internalType": "uint256",
              "name": "antiqueID",
              "type": "uint256"
            },
            {
              "internalType": "uint256",
              "name": "documentationID",
              "type": "uint256"
            },
            {
              "internalType": "uint256",
              "name": "verificationID",
              "type": "uint256"
            },
            {
              "internalType": "uint256",
              "name": "descriptionID",
              "type": "uint256"
            }
          ],
          "internalType": "struct IAntique.AntiqueObject",
          "name": "",
          "type": "tuple"
        }
      ],
      "stateMutability": "nonpayable",
      "type": "function"
    }
  ],
  "bytecode": "0x60806040526040518060400160405280601281526020017f4461746162617365436f6e74726f6c6c6572000000000000000000000000000081525060009080519060200190620000519291906200006b565b5060006005553480156200006457600080fd5b506200017f565b82805462000079906200014a565b90600052602060002090601f0160209004810192826200009d5760008555620000e9565b82601f10620000b857805160ff1916838001178555620000e9565b82800160010185558215620000e9579182015b82811115620000e8578251825591602001919060010190620000cb565b5b509050620000f89190620000fc565b5090565b5b8082111562000117576000816000905550600101620000fd565b5090565b7f4e487b7100000000000000000000000000000000000000000000000000000000600052602260045260246000fd5b600060028204905060018216806200016357607f821691505b6020821081036200017957620001786200011b565b5b50919050565b6136b0806200018f6000396000f3fe60806040526004361061012a5760003560e01c80638c39b67f116100ab578063d27fbe471161006f578063d27fbe4714610411578063d89b8f2c1461044e578063db15b7871461046a578063ddf4732c146104a7578063e9ebc0b8146104d0578063ef1a56681461050d5761012a565b80638c39b67f146103155780639b0b536214610352578063a7ccf9281461038f578063b9d7bea3146103cc578063c0e6740c146103e85761012a565b80634ba2e60f116100f25780634ba2e60f1461023a578063540417181461027757806357d54785146102935780635e928b85146102bc57806376e7e4df146102d85761012a565b806306fdde031461012f578063330ba56a1461015a5780634020c98014610197578063481814c2146101c05780634961904a146101fd575b600080fd5b34801561013b57600080fd5b5061014461054a565b6040516101519190611efe565b60405180910390f35b34801561016657600080fd5b50610181600480360381019061017c9190611f6a565b6105d8565b60405161018e9190611fb2565b60405180910390f35b3480156101a357600080fd5b506101be60048036038101906101b9919061202b565b61067f565b005b3480156101cc57600080fd5b506101e760048036038101906101e291906121db565b610af1565b6040516101f49190612293565b60405180910390f35b34801561020957600080fd5b50610224600480360381019061021f9190611f6a565b610ba7565b60405161023191906123f0565b60405180910390f35b34801561024657600080fd5b50610261600480360381019061025c9190612412565b610c59565b60405161026e9190612293565b60405180910390f35b610291600480360381019061028c91906124b7565b6110cc565b005b34801561029f57600080fd5b506102ba60048036038101906102b591906124e4565b611149565b005b6102d660048036038101906102d191906124b7565b6111f4565b005b3480156102e457600080fd5b506102ff60048036038101906102fa9190612633565b611271565b60405161030c9190612293565b60405180910390f35b34801561032157600080fd5b5061033c60048036038101906103379190611f6a565b611327565b6040516103499190611fb2565b60405180910390f35b34801561035e57600080fd5b5061037960048036038101906103749190611f6a565b6113ce565b6040516103869190611fb2565b60405180910390f35b34801561039b57600080fd5b506103b660048036038101906103b19190611f6a565b611741565b6040516103c39190612785565b60405180910390f35b6103e660048036038101906103e191906124b7565b6117ee565b005b3480156103f457600080fd5b5061040f600480360381019061040a91906121db565b61186b565b005b34801561041d57600080fd5b5061043860048036038101906104339190611f6a565b61190a565b6040516104459190611fb2565b60405180910390f35b610468600480360381019061046391906124b7565b6119b1565b005b34801561047657600080fd5b50610491600480360381019061048c9190611f6a565b611a2e565b60405161049e91906128b9565b60405180910390f35b3480156104b357600080fd5b506104ce60048036038101906104c991906128db565b611ae0565b005b3480156104dc57600080fd5b506104f760048036038101906104f291906129ed565b611b82565b6040516105049190612293565b60405180910390f35b34801561051957600080fd5b50610534600480360381019061052f9190611f6a565b611c41565b6040516105419190612bd7565b60405180910390f35b6000805461055790612c28565b80601f016020809104026020016040519081016040528092919081815260200182805461058390612c28565b80156105d05780601f106105a5576101008083540402835291602001916105d0565b820191906000526020600020905b8154815290600101906020018083116105b357829003601f168201915b505050505081565b6000600860009054906101000a900473ffffffffffffffffffffffffffffffffffffffff1673ffffffffffffffffffffffffffffffffffffffff1663330ba56a836040518263ffffffff1660e01b81526004016106359190612293565b6020604051808303816000875af1158015610654573d6000803e3d6000fd5b505050506040513d601f19601f820116820180604052508101906106789190612c85565b9050919050565b60011515600660009054906101000a900473ffffffffffffffffffffffffffffffffffffffff1673ffffffffffffffffffffffffffffffffffffffff16638c39b67f866040518263ffffffff1660e01b81526004016106de9190612293565b6020604051808303816000875af11580156106fd573d6000803e3d6000fd5b505050506040513d601f19601f820116820180604052508101906107219190612c85565b15151461072d57600080fd5b60011515600760009054906101000a900473ffffffffffffffffffffffffffffffffffffffff1673ffffffffffffffffffffffffffffffffffffffff1663d27fbe47856040518263ffffffff1660e01b815260040161078c9190612293565b6020604051808303816000875af11580156107ab573d6000803e3d6000fd5b505050506040513d601f19601f820116820180604052508101906107cf9190612c85565b1515146107db57600080fd5b60011515600860009054906101000a900473ffffffffffffffffffffffffffffffffffffffff1673ffffffffffffffffffffffffffffffffffffffff1663330ba56a846040518263ffffffff1660e01b815260040161083a9190612293565b6020604051808303816000875af1158015610859573d6000803e3d6000fd5b505050506040513d601f19601f8201168201806040525081019061087d9190612c85565b15151461088957600080fd5b60011515610896866113ce565b1515146108a257600080fd5b600960009054906101000a900473ffffffffffffffffffffffffffffffffffffffff1673ffffffffffffffffffffffffffffffffffffffff16634020c98086868686866040518663ffffffff1660e01b8152600401610905959493929190612cc1565b600060405180830381600087803b15801561091f57600080fd5b505af1158015610933573d6000803e3d6000fd5b50505050600660009054906101000a900473ffffffffffffffffffffffffffffffffffffffff1673ffffffffffffffffffffffffffffffffffffffff1663287c1b158587846040518463ffffffff1660e01b815260040161099693929190612d14565b600060405180830381600087803b1580156109b057600080fd5b505af11580156109c4573d6000803e3d6000fd5b50505050600760009054906101000a900473ffffffffffffffffffffffffffffffffffffffff1673ffffffffffffffffffffffffffffffffffffffff16630bb6c06b8487846040518463ffffffff1660e01b8152600401610a2793929190612d14565b600060405180830381600087803b158015610a4157600080fd5b505af1158015610a55573d6000803e3d6000fd5b50505050600860009054906101000a900473ffffffffffffffffffffffffffffffffffffffff1673ffffffffffffffffffffffffffffffffffffffff16631d6607b78387846040518463ffffffff1660e01b8152600401610ab893929190612d14565b600060405180830381600087803b158015610ad257600080fd5b505af1158015610ae6573d6000803e3d6000fd5b505050505050505050565b6000600860009054906101000a900473ffffffffffffffffffffffffffffffffffffffff1673ffffffffffffffffffffffffffffffffffffffff1663481814c28888888888886040518763ffffffff1660e01b8152600401610b5896959493929190612d4b565b6020604051808303816000875af1158015610b77573d6000803e3d6000fd5b505050506040513d601f19601f82011682018060405250810190610b9b9190612dc8565b90509695505050505050565b610baf611cf3565b600660009054906101000a900473ffffffffffffffffffffffffffffffffffffffff1673ffffffffffffffffffffffffffffffffffffffff16634961904a836040518263ffffffff1660e01b8152600401610c0a9190612293565b6000604051808303816000875af1158015610c29573d6000803e3d6000fd5b505050506040513d6000823e3d601f19601f82011682018060405250810190610c529190612fd4565b9050919050565b600060011515600660009054906101000a900473ffffffffffffffffffffffffffffffffffffffff1673ffffffffffffffffffffffffffffffffffffffff16638c39b67f876040518263ffffffff1660e01b8152600401610cba9190612293565b6020604051808303816000875af1158015610cd9573d6000803e3d6000fd5b505050506040513d601f19601f82011682018060405250810190610cfd9190612c85565b151514610d0957600080fd5b60011515600760009054906101000a900473ffffffffffffffffffffffffffffffffffffffff1673ffffffffffffffffffffffffffffffffffffffff1663d27fbe47866040518263ffffffff1660e01b8152600401610d689190612293565b6020604051808303816000875af1158015610d87573d6000803e3d6000fd5b505050506040513d601f19601f82011682018060405250810190610dab9190612c85565b151514610db757600080fd5b60011515600860009054906101000a900473ffffffffffffffffffffffffffffffffffffffff1673ffffffffffffffffffffffffffffffffffffffff1663330ba56a856040518263ffffffff1660e01b8152600401610e169190612293565b6020604051808303816000875af1158015610e35573d6000803e3d6000fd5b505050506040513d601f19601f82011682018060405250810190610e599190612c85565b151514610e6557600080fd5b6000600960009054906101000a900473ffffffffffffffffffffffffffffffffffffffff1673ffffffffffffffffffffffffffffffffffffffff16634ba2e60f878787876040518563ffffffff1660e01b8152600401610ec8949392919061301d565b6020604051808303816000875af1158015610ee7573d6000803e3d6000fd5b505050506040513d601f19601f82011682018060405250810190610f0b9190612dc8565b9050600660009054906101000a900473ffffffffffffffffffffffffffffffffffffffff1673ffffffffffffffffffffffffffffffffffffffff1663287c1b158783866040518463ffffffff1660e01b8152600401610f6c93929190612d14565b600060405180830381600087803b158015610f8657600080fd5b505af1158015610f9a573d6000803e3d6000fd5b50505050600760009054906101000a900473ffffffffffffffffffffffffffffffffffffffff1673ffffffffffffffffffffffffffffffffffffffff16630bb6c06b8683866040518463ffffffff1660e01b8152600401610ffd93929190612d14565b600060405180830381600087803b15801561101757600080fd5b505af115801561102b573d6000803e3d6000fd5b50505050600860009054906101000a900473ffffffffffffffffffffffffffffffffffffffff1673ffffffffffffffffffffffffffffffffffffffff16631d6607b78583866040518463ffffffff1660e01b815260040161108e93929190612d14565b600060405180830381600087803b1580156110a857600080fd5b505af11580156110bc573d6000803e3d6000fd5b5050505080915050949350505050565b600073ffffffffffffffffffffffffffffffffffffffff168173ffffffffffffffffffffffffffffffffffffffff160361110557600080fd5b80600660006101000a81548173ffffffffffffffffffffffffffffffffffffffff021916908373ffffffffffffffffffffffffffffffffffffffff16021790555050565b600760009054906101000a900473ffffffffffffffffffffffffffffffffffffffff1673ffffffffffffffffffffffffffffffffffffffff166357d547858b8b8b8b8b8b8b8b8b8b6040518b63ffffffff1660e01b81526004016111b69a99989796959493929190613062565b600060405180830381600087803b1580156111d057600080fd5b505af11580156111e4573d6000803e3d6000fd5b5050505050505050505050505050565b600073ffffffffffffffffffffffffffffffffffffffff168173ffffffffffffffffffffffffffffffffffffffff160361122d57600080fd5b80600960006101000a81548173ffffffffffffffffffffffffffffffffffffffff021916908373ffffffffffffffffffffffffffffffffffffffff16021790555050565b6000600660009054906101000a900473ffffffffffffffffffffffffffffffffffffffff1673ffffffffffffffffffffffffffffffffffffffff166376e7e4df8888888888886040518763ffffffff1660e01b81526004016112d89695949392919061311a565b6020604051808303816000875af11580156112f7573d6000803e3d6000fd5b505050506040513d601f19601f8201168201806040525081019061131b9190612dc8565b90509695505050505050565b6000600660009054906101000a900473ffffffffffffffffffffffffffffffffffffffff1673ffffffffffffffffffffffffffffffffffffffff16638c39b67f836040518263ffffffff1660e01b81526004016113849190612293565b6020604051808303816000875af11580156113a3573d6000803e3d6000fd5b505050506040513d601f19601f820116820180604052508101906113c79190612c85565b9050919050565b600060011515600960009054906101000a900473ffffffffffffffffffffffffffffffffffffffff1673ffffffffffffffffffffffffffffffffffffffff16639b0b5362846040518263ffffffff1660e01b815260040161142f9190612293565b6020604051808303816000875af115801561144e573d6000803e3d6000fd5b505050506040513d601f19601f820116820180604052508101906114729190612c85565b151503611737576000600960009054906101000a900473ffffffffffffffffffffffffffffffffffffffff1673ffffffffffffffffffffffffffffffffffffffff1663a7ccf928846040518263ffffffff1660e01b81526004016114d69190612293565b6080604051808303816000875af11580156114f5573d6000803e3d6000fd5b505050506040513d601f19601f82011682018060405250810190611519919061320f565b905060011515600860009054906101000a900473ffffffffffffffffffffffffffffffffffffffff1673ffffffffffffffffffffffffffffffffffffffff1663330ba56a83606001516040518263ffffffff1660e01b815260040161157e9190612293565b6020604051808303816000875af115801561159d573d6000803e3d6000fd5b505050506040513d601f19601f820116820180604052508101906115c19190612c85565b1515148015611675575060011515600760009054906101000a900473ffffffffffffffffffffffffffffffffffffffff1673ffffffffffffffffffffffffffffffffffffffff1663d27fbe4783604001516040518263ffffffff1660e01b815260040161162e9190612293565b6020604051808303816000875af115801561164d573d6000803e3d6000fd5b505050506040513d601f19601f820116820180604052508101906116719190612c85565b1515145b8015611726575060011515600660009054906101000a900473ffffffffffffffffffffffffffffffffffffffff1673ffffffffffffffffffffffffffffffffffffffff16638c39b67f83602001516040518263ffffffff1660e01b81526004016116df9190612293565b6020604051808303816000875af11580156116fe573d6000803e3d6000fd5b505050506040513d601f19601f820116820180604052508101906117229190612c85565b1515145b1561173557600191505061173c565b505b600090505b919050565b611749611d55565b600960009054906101000a900473ffffffffffffffffffffffffffffffffffffffff1673ffffffffffffffffffffffffffffffffffffffff1663a7ccf928836040518263ffffffff1660e01b81526004016117a49190612293565b6080604051808303816000875af11580156117c3573d6000803e3d6000fd5b505050506040513d601f19601f820116820180604052508101906117e7919061320f565b9050919050565b600073ffffffffffffffffffffffffffffffffffffffff168173ffffffffffffffffffffffffffffffffffffffff160361182757600080fd5b80600760006101000a81548173ffffffffffffffffffffffffffffffffffffffff021916908373ffffffffffffffffffffffffffffffffffffffff16021790555050565b600860009054906101000a900473ffffffffffffffffffffffffffffffffffffffff1673ffffffffffffffffffffffffffffffffffffffff1663c0e6740c8787878787876040518763ffffffff1660e01b81526004016118d096959493929190612d4b565b600060405180830381600087803b1580156118ea57600080fd5b505af11580156118fe573d6000803e3d6000fd5b50505050505050505050565b6000600760009054906101000a900473ffffffffffffffffffffffffffffffffffffffff1673ffffffffffffffffffffffffffffffffffffffff1663d27fbe47836040518263ffffffff1660e01b81526004016119679190612293565b6020604051808303816000875af1158015611986573d6000803e3d6000fd5b505050506040513d601f19601f820116820180604052508101906119aa9190612c85565b9050919050565b600073ffffffffffffffffffffffffffffffffffffffff168173ffffffffffffffffffffffffffffffffffffffff16036119ea57600080fd5b80600860006101000a81548173ffffffffffffffffffffffffffffffffffffffff021916908373ffffffffffffffffffffffffffffffffffffffff16021790555050565b611a36611d7d565b600760009054906101000a900473ffffffffffffffffffffffffffffffffffffffff1673ffffffffffffffffffffffffffffffffffffffff1663db15b787836040518263ffffffff1660e01b8152600401611a919190612293565b6000604051808303816000875af1158015611ab0573d6000803e3d6000fd5b505050506040513d6000823e3d601f19601f82011682018060405250810190611ad991906133ce565b9050919050565b600660009054906101000a900473ffffffffffffffffffffffffffffffffffffffff1673ffffffffffffffffffffffffffffffffffffffff1663ddf4732c888888888888886040518863ffffffff1660e01b8152600401611b479796959493929190613417565b600060405180830381600087803b158015611b6157600080fd5b505af1158015611b75573d6000803e3d6000fd5b5050505050505050505050565b6000600760009054906101000a900473ffffffffffffffffffffffffffffffffffffffff1673ffffffffffffffffffffffffffffffffffffffff1663e9ebc0b88b8b8b8b8b8b8b8b8b6040518a63ffffffff1660e01b8152600401611bef999897969594939291906134a2565b6020604051808303816000875af1158015611c0e573d6000803e3d6000fd5b505050506040513d601f19601f82011682018060405250810190611c329190612dc8565b90509998505050505050505050565b611c49611e0a565b600860009054906101000a900473ffffffffffffffffffffffffffffffffffffffff1673ffffffffffffffffffffffffffffffffffffffff1663ef1a5668836040518263ffffffff1660e01b8152600401611ca49190612293565b6000604051808303816000875af1158015611cc3573d6000803e3d6000fd5b505050506040513d6000823e3d601f19601f82011682018060405250810190611cec9190613631565b9050919050565b6040518061012001604052806000815260200160008152602001606081526020016000815260200160608152602001606081526020016060815260200160008152602001600073ffffffffffffffffffffffffffffffffffffffff1681525090565b6040518060800160405280600081526020016000815260200160008152602001600081525090565b6040518061018001604052806000815260200160008152602001600073ffffffffffffffffffffffffffffffffffffffff1681526020016000815260200160008152602001600081526020016060815260200160608152602001606081526020016060815260200160008152602001600073ffffffffffffffffffffffffffffffffffffffff1681525090565b60405180610100016040528060008152602001600081526020016060815260200160008152602001600081526020016000815260200160008152602001600073ffffffffffffffffffffffffffffffffffffffff1681525090565b600081519050919050565b600082825260208201905092915050565b60005b83811015611e9f578082015181840152602081019050611e84565b83811115611eae576000848401525b50505050565b6000601f19601f8301169050919050565b6000611ed082611e65565b611eda8185611e70565b9350611eea818560208601611e81565b611ef381611eb4565b840191505092915050565b60006020820190508181036000830152611f188184611ec5565b905092915050565b6000604051905090565b600080fd5b600080fd5b6000819050919050565b611f4781611f34565b8114611f5257600080fd5b50565b600081359050611f6481611f3e565b92915050565b600060208284031215611f8057611f7f611f2a565b5b6000611f8e84828501611f55565b91505092915050565b60008115159050919050565b611fac81611f97565b82525050565b6000602082019050611fc76000830184611fa3565b92915050565b600073ffffffffffffffffffffffffffffffffffffffff82169050919050565b6000611ff882611fcd565b9050919050565b61200881611fed565b811461201357600080fd5b50565b60008135905061202581611fff565b92915050565b600080600080600060a0868803121561204757612046611f2a565b5b600061205588828901611f55565b955050602061206688828901611f55565b945050604061207788828901611f55565b935050606061208888828901611f55565b925050608061209988828901612016565b9150509295509295909350565b600080fd5b600080fd5b7f4e487b7100000000000000000000000000000000000000000000000000000000600052604160045260246000fd5b6120e882611eb4565b810181811067ffffffffffffffff82111715612107576121066120b0565b5b80604052505050565b600061211a611f20565b905061212682826120df565b919050565b600067ffffffffffffffff821115612146576121456120b0565b5b61214f82611eb4565b9050602081019050919050565b82818337600083830152505050565b600061217e6121798461212b565b612110565b90508281526020810184848401111561219a576121996120ab565b5b6121a584828561215c565b509392505050565b600082601f8301126121c2576121c16120a6565b5b81356121d284826020860161216b565b91505092915050565b60008060008060008060c087890312156121f8576121f7611f2a565b5b600061220689828a01611f55565b965050602087013567ffffffffffffffff81111561222757612226611f2f565b5b61223389828a016121ad565b955050604061224489828a01611f55565b945050606061225589828a01611f55565b935050608061226689828a01611f55565b92505060a061227789828a01612016565b9150509295509295509295565b61228d81611f34565b82525050565b60006020820190506122a86000830184612284565b92915050565b6122b781611f34565b82525050565b600082825260208201905092915050565b60006122d982611e65565b6122e381856122bd565b93506122f3818560208601611e81565b6122fc81611eb4565b840191505092915050565b61231081611fed565b82525050565b60006101208301600083015161232f60008601826122ae565b50602083015161234260208601826122ae565b506040830151848203604086015261235a82826122ce565b915050606083015161236f60608601826122ae565b506080830151848203608086015261238782826122ce565b91505060a083015184820360a08601526123a182826122ce565b91505060c083015184820360c08601526123bb82826122ce565b91505060e08301516123d060e08601826122ae565b506101008301516123e5610100860182612307565b508091505092915050565b6000602082019050818103600083015261240a8184612316565b905092915050565b6000806000806080858703121561242c5761242b611f2a565b5b600061243a87828801611f55565b945050602061244b87828801611f55565b935050604061245c87828801611f55565b925050606061246d87828801612016565b91505092959194509250565b600061248482611fcd565b9050919050565b61249481612479565b811461249f57600080fd5b50565b6000813590506124b18161248b565b92915050565b6000602082840312156124cd576124cc611f2a565b5b60006124db848285016124a2565b91505092915050565b6000806000806000806000806000806101408b8d03121561250857612507611f2a565b5b60006125168d828e01611f55565b9a505060206125278d828e01612016565b99505060406125388d828e01611f55565b98505060606125498d828e01611f55565b975050608061255a8d828e01611f55565b96505060a08b013567ffffffffffffffff81111561257b5761257a611f2f565b5b6125878d828e016121ad565b95505060c08b013567ffffffffffffffff8111156125a8576125a7611f2f565b5b6125b48d828e016121ad565b94505060e08b013567ffffffffffffffff8111156125d5576125d4611f2f565b5b6125e18d828e016121ad565b9350506101008b013567ffffffffffffffff81111561260357612602611f2f565b5b61260f8d828e016121ad565b9250506101206126218d828e01612016565b9150509295989b9194979a5092959850565b60008060008060008060c087890312156126505761264f611f2a565b5b600087013567ffffffffffffffff81111561266e5761266d611f2f565b5b61267a89828a016121ad565b965050602061268b89828a01611f55565b955050604087013567ffffffffffffffff8111156126ac576126ab611f2f565b5b6126b889828a016121ad565b945050606087013567ffffffffffffffff8111156126d9576126d8611f2f565b5b6126e589828a016121ad565b935050608087013567ffffffffffffffff81111561270657612705611f2f565b5b61271289828a016121ad565b92505060a061272389828a01612016565b9150509295509295509295565b60808201600082015161274660008501826122ae565b50602082015161275960208501826122ae565b50604082015161276c60408501826122ae565b50606082015161277f60608501826122ae565b50505050565b600060808201905061279a6000830184612730565b92915050565b6000610180830160008301516127b960008601826122ae565b5060208301516127cc60208601826122ae565b5060408301516127df6040860182612307565b5060608301516127f260608601826122ae565b50608083015161280560808601826122ae565b5060a083015161281860a08601826122ae565b5060c083015184820360c086015261283082826122ce565b91505060e083015184820360e086015261284a82826122ce565b91505061010083015184820361010086015261286682826122ce565b91505061012083015184820361012086015261288282826122ce565b9150506101408301516128996101408601826122ae565b506101608301516128ae610160860182612307565b508091505092915050565b600060208201905081810360008301526128d381846127a0565b905092915050565b600080600080600080600060e0888a0312156128fa576128f9611f2a565b5b60006129088a828b01611f55565b975050602088013567ffffffffffffffff81111561292957612928611f2f565b5b6129358a828b016121ad565b96505060406129468a828b01611f55565b955050606088013567ffffffffffffffff81111561296757612966611f2f565b5b6129738a828b016121ad565b945050608088013567ffffffffffffffff81111561299457612993611f2f565b5b6129a08a828b016121ad565b93505060a088013567ffffffffffffffff8111156129c1576129c0611f2f565b5b6129cd8a828b016121ad565b92505060c06129de8a828b01612016565b91505092959891949750929550565b60008060008060008060008060006101208a8c031215612a1057612a0f611f2a565b5b6000612a1e8c828d01612016565b9950506020612a2f8c828d01611f55565b9850506040612a408c828d01611f55565b9750506060612a518c828d01611f55565b96505060808a013567ffffffffffffffff811115612a7257612a71611f2f565b5b612a7e8c828d016121ad565b95505060a08a013567ffffffffffffffff811115612a9f57612a9e611f2f565b5b612aab8c828d016121ad565b94505060c08a013567ffffffffffffffff811115612acc57612acb611f2f565b5b612ad88c828d016121ad565b93505060e08a013567ffffffffffffffff811115612af957612af8611f2f565b5b612b058c828d016121ad565b925050610100612b178c828d01612016565b9150509295985092959850929598565b600061010083016000830151612b4060008601826122ae565b506020830151612b5360208601826122ae565b5060408301518482036040860152612b6b82826122ce565b9150506060830151612b8060608601826122ae565b506080830151612b9360808601826122ae565b5060a0830151612ba660a08601826122ae565b5060c0830151612bb960c08601826122ae565b5060e0830151612bcc60e0860182612307565b508091505092915050565b60006020820190508181036000830152612bf18184612b27565b905092915050565b7f4e487b7100000000000000000000000000000000000000000000000000000000600052602260045260246000fd5b60006002820490506001821680612c4057607f821691505b602082108103612c5357612c52612bf9565b5b50919050565b612c6281611f97565b8114612c6d57600080fd5b50565b600081519050612c7f81612c59565b92915050565b600060208284031215612c9b57612c9a611f2a565b5b6000612ca984828501612c70565b91505092915050565b612cbb81611fed565b82525050565b600060a082019050612cd66000830188612284565b612ce36020830187612284565b612cf06040830186612284565b612cfd6060830185612284565b612d0a6080830184612cb2565b9695505050505050565b6000606082019050612d296000830186612284565b612d366020830185612284565b612d436040830184612cb2565b949350505050565b600060c082019050612d606000830189612284565b8181036020830152612d728188611ec5565b9050612d816040830187612284565b612d8e6060830186612284565b612d9b6080830185612284565b612da860a0830184612cb2565b979650505050505050565b600081519050612dc281611f3e565b92915050565b600060208284031215612dde57612ddd611f2a565b5b6000612dec84828501612db3565b91505092915050565b600080fd5b600080fd5b6000612e12612e0d8461212b565b612110565b905082815260208101848484011115612e2e57612e2d6120ab565b5b612e39848285611e81565b509392505050565b600082601f830112612e5657612e556120a6565b5b8151612e66848260208601612dff565b91505092915050565b600081519050612e7e81611fff565b92915050565b60006101208284031215612e9b57612e9a612df5565b5b612ea6610120612110565b90506000612eb684828501612db3565b6000830152506020612eca84828501612db3565b602083015250604082015167ffffffffffffffff811115612eee57612eed612dfa565b5b612efa84828501612e41565b6040830152506060612f0e84828501612db3565b606083015250608082015167ffffffffffffffff811115612f3257612f31612dfa565b5b612f3e84828501612e41565b60808301525060a082015167ffffffffffffffff811115612f6257612f61612dfa565b5b612f6e84828501612e41565b60a08301525060c082015167ffffffffffffffff811115612f9257612f91612dfa565b5b612f9e84828501612e41565b60c08301525060e0612fb284828501612db3565b60e083015250610100612fc784828501612e6f565b6101008301525092915050565b600060208284031215612fea57612fe9611f2a565b5b600082015167ffffffffffffffff81111561300857613007611f2f565b5b61301484828501612e84565b91505092915050565b60006080820190506130326000830187612284565b61303f6020830186612284565b61304c6040830185612284565b6130596060830184612cb2565b95945050505050565b600061014082019050613078600083018d612284565b613085602083018c612cb2565b613092604083018b612284565b61309f606083018a612284565b6130ac6080830189612284565b81810360a08301526130be8188611ec5565b905081810360c08301526130d28187611ec5565b905081810360e08301526130e68186611ec5565b90508181036101008301526130fb8185611ec5565b905061310b610120830184612cb2565b9b9a5050505050505050505050565b600060c08201905081810360008301526131348189611ec5565b90506131436020830188612284565b81810360408301526131558187611ec5565b905081810360608301526131698186611ec5565b9050818103608083015261317d8185611ec5565b905061318c60a0830184612cb2565b979650505050505050565b6000608082840312156131ad576131ac612df5565b5b6131b76080612110565b905060006131c784828501612db3565b60008301525060206131db84828501612db3565b60208301525060406131ef84828501612db3565b604083015250606061320384828501612db3565b60608301525092915050565b60006080828403121561322557613224611f2a565b5b600061323384828501613197565b91505092915050565b6000610180828403121561325357613252612df5565b5b61325e610180612110565b9050600061326e84828501612db3565b600083015250602061328284828501612db3565b602083015250604061329684828501612e6f565b60408301525060606132aa84828501612db3565b60608301525060806132be84828501612db3565b60808301525060a06132d284828501612db3565b60a08301525060c082015167ffffffffffffffff8111156132f6576132f5612dfa565b5b61330284828501612e41565b60c08301525060e082015167ffffffffffffffff81111561332657613325612dfa565b5b61333284828501612e41565b60e08301525061010082015167ffffffffffffffff81111561335757613356612dfa565b5b61336384828501612e41565b6101008301525061012082015167ffffffffffffffff81111561338957613388612dfa565b5b61339584828501612e41565b610120830152506101406133ab84828501612db3565b610140830152506101606133c184828501612e6f565b6101608301525092915050565b6000602082840312156133e4576133e3611f2a565b5b600082015167ffffffffffffffff81111561340257613401611f2f565b5b61340e8482850161323c565b91505092915050565b600060e08201905061342c600083018a612284565b818103602083015261343e8189611ec5565b905061344d6040830188612284565b818103606083015261345f8187611ec5565b905081810360808301526134738186611ec5565b905081810360a08301526134878185611ec5565b905061349660c0830184612cb2565b98975050505050505050565b6000610120820190506134b8600083018c612cb2565b6134c5602083018b612284565b6134d2604083018a612284565b6134df6060830189612284565b81810360808301526134f18188611ec5565b905081810360a08301526135058187611ec5565b905081810360c08301526135198186611ec5565b905081810360e083015261352d8185611ec5565b905061353d610100830184612cb2565b9a9950505050505050505050565b6000610100828403121561356257613561612df5565b5b61356d610100612110565b9050600061357d84828501612db3565b600083015250602061359184828501612db3565b602083015250604082015167ffffffffffffffff8111156135b5576135b4612dfa565b5b6135c184828501612e41565b60408301525060606135d584828501612db3565b60608301525060806135e984828501612db3565b60808301525060a06135fd84828501612db3565b60a08301525060c061361184828501612db3565b60c08301525060e061362584828501612e6f565b60e08301525092915050565b60006020828403121561364757613646611f2a565b5b600082015167ffffffffffffffff81111561366557613664611f2f565b5b6136718482850161354b565b9150509291505056fea264697066735822122026423525cba801843df5e0101e95b42b4765ec3b566f096f71d314157406a81564736f6c634300080e0033",
  "immutableReferences": {},
  "source": "// SPDX-License-Identifier: MIT\r\npragma solidity ^0.8.14;\r\n\r\n// A. Documentation Contract\r\ninterface IDocumentation {\r\n    struct DocumentationObject {\r\n        uint256 documentationID;\r\n        uint256 antiqueID;\r\n        string filehash;\r\n        uint256 fileSize;\r\n        string fileType;\r\n        string fileName;\r\n        string fileDescription;\r\n        uint256 uploadTime;\r\n        address payable uploader;\r\n    }\r\n\r\n    function AddDocumentation(\r\n        string memory _fileHash,\r\n        uint256 _fileSize,\r\n        string memory _fileType,\r\n        string memory _fileName,\r\n        string memory _fileDescription,\r\n        address payable _uploader\r\n    ) external returns (uint256);\r\n\r\n    function UpdateDocumentation(\r\n        uint256 _documentationID,\r\n        string memory _fileHash,\r\n        uint256 _fileSize,\r\n        string memory _fileType,\r\n        string memory _fileName,\r\n        string memory _fileDescription,\r\n        address payable _uploader\r\n    ) external;\r\n\r\n    function ValidateDocumentationID(uint256 _documentationID)\r\n        external\r\n        returns (bool);\r\n\r\n    function SetAntiqueIDByDocumentationID(\r\n        uint256 _documentationID,\r\n        uint256 _antiqueID,\r\n        address payable _uploader\r\n    ) external;\r\n\r\n    function GetDocumentationByID(uint256 _documentationID)\r\n        external\r\n        returns (DocumentationObject memory);\r\n}\r\n\r\n//B. Verification Contract\r\ninterface IVerification {\r\n    struct VerificateionObject {\r\n        //Owner And Appraiser Data\r\n        uint256 verificationID;\r\n        uint256 antiqueID;\r\n        address payable ownerAddress;\r\n        uint256 ownerID;\r\n        uint256 personVerificationID;\r\n\r\n        //Antique Object Data\r\n        uint256 ioTDeviceID;\r\n        string estimateManufactureYears;\r\n        string antiqueRareness;\r\n        string antiqueAuthenticity;\r\n        string antiqueRealness;\r\n\r\n        //Time And Sender Data\r\n        uint256 uploadTime;\r\n        address payable uploader;\r\n    }\r\n\r\n    function AddVerification \r\n    (\r\n        //Owner and Appraiser Data\r\n        address payable _ownerAddress,\r\n        uint256 _ownerID,\r\n        uint256 _personVerificationID,\r\n        \r\n        //Antique Object Data\r\n        uint256 _ioTDeviceID,\r\n        string memory _estimateManufactureYears,\r\n        string memory _antiqueRareness,\r\n        string memory _antiqueAuthenticity,\r\n        string memory _antiqueRealness,\r\n\r\n        //Time Data    \r\n        address payable _uploader\r\n    )  external returns (uint256);\r\n\r\n     function UpdateVerification \r\n    (\r\n        //Owner and Appraiser Data\r\n        uint256 _verificationID,\r\n        address payable _newOwnerAddress,\r\n        uint256 _newOwnerID,\r\n        uint256 _newPersonVerificationID,\r\n        \r\n        //Antique Object Data\r\n        uint256 _newIoTDeviceID,\r\n        string memory _newEstimateManufactureYears,\r\n        string memory _newAntiqueRareness,\r\n        string memory _newAntiqueAuthenticity,\r\n        string memory _newAntiqueRealness,\r\n\r\n        //Time Data\r\n        address payable _uploader    \r\n    ) external;\r\n\r\n    function ValidateVerificationID(uint256 _verificationID)\r\n        external\r\n        returns (bool);\r\n\r\n    function SetAntiqueIDByVerificationID(\r\n        uint256 _verificationID,\r\n        uint256 _antiqueID,\r\n        address payable _uploader\r\n    ) external;\r\n\r\n    function GetVerificationByID(uint256 _verificationID)\r\n        external\r\n        returns (VerificateionObject memory);\r\n}\r\n\r\n//C. Description Contract\r\n\r\ninterface IDescription {\r\n    struct DescriptionObject {\r\n        uint256 descriptionID;\r\n        uint256 antiqueID;\r\n        string materialCreated;\r\n        uint256 antiqueHeight;\r\n        uint256 antiqueLength;\r\n        uint256 anitqueWidth;\r\n        uint256 uploadTime;\r\n        address payable uploader;\r\n    }\r\n\r\n     function  AddDescription\r\n    (\r\n        uint256 _antiqueObjectID,\r\n        string memory _materialCreated,\r\n        uint256 _antiqueHeight,\r\n        uint256 _antiqueLength,\r\n        uint256 _anitqueWidth,\r\n        address payable _uploader\r\n    ) external returns (uint256);\r\n\r\n    function UpdateDescriptionMaterials \r\n    (\r\n        uint256 _descriptionID,\r\n        string memory _newMaterialCreated,\r\n        uint256 _antiqueHeight,\r\n        uint256 _antiqueLength,\r\n        uint256 _anitqueWidth,\r\n        address payable _uploader\r\n    ) external;\r\n\r\n    function ValidateDescriptionID(uint256 _descriptionID)\r\n        external\r\n        returns (bool);\r\n\r\n    function SetAntiqueIDByDescriptionID(\r\n        uint256 _descriptionID,\r\n        uint256 _antiqueID,\r\n        address payable _uploader\r\n    ) external;\r\n\r\n    function GetDescriptionByID(uint256 _descriptionID)\r\n        external\r\n        returns (DescriptionObject memory);\r\n}\r\n\r\n// D. Antique Contract\r\ninterface IAntique {\r\n    struct AntiqueObject {\r\n        uint256 antiqueID;\r\n        uint256 documentationID;\r\n        uint256 verificationID;\r\n        uint256 descriptionID;\r\n    }\r\n\r\n    function AddAntique(\r\n        uint256 _documentationID,\r\n        uint256 _verificationID,\r\n        uint256 _descriptionID,\r\n        address payable _uploader\r\n    ) external returns (uint256);\r\n\r\n    function UpdateAntique(\r\n        uint256 _antiqueID,\r\n        uint256 _documentationID,\r\n        uint256 _verificationID,\r\n        uint256 _descriptionID,\r\n        address payable _uploader\r\n    ) external;\r\n\r\n    function ValidateAntiqueID(uint256 _antiqueID) external returns (bool);\r\n\r\n    function GetAntiqueByID(uint256 _antiqueID)\r\n        external\r\n        returns (AntiqueObject memory);\r\n}\r\n\r\ncontract DatabaseController {\r\n    string public name = \"DatabaseController\";\r\n    address antiqueContractAddress;\r\n    address descriptionContractAddress;\r\n    address documentationContractAddress;\r\n    address verificationContractAddress;\r\n    uint256 antiqueCount = 0;\r\n\r\n    IDocumentation documentationContract;\r\n    IVerification verificationContract;\r\n    IDescription descriptionContract;\r\n    IAntique antiqueContract;\r\n\r\n    function setAntiqueContractAddress(address _antiqueContractAddress)\r\n        public\r\n        payable\r\n    {\r\n        require(_antiqueContractAddress != address(0));\r\n        antiqueContract = IAntique(_antiqueContractAddress);\r\n    }\r\n\r\n    function setDocumentationContractAddress (address _documentationContractAddress)\r\n    public payable\r\n    {\r\n        require (_documentationContractAddress != address(0));\r\n        documentationContract = IDocumentation(_documentationContractAddress);\r\n    }\r\n\r\n    function setVerificationContractAddress (address _verificationContractAddress)\r\n    public payable\r\n    {\r\n        require (_verificationContractAddress != address(0));\r\n        verificationContract = IVerification(_verificationContractAddress);\r\n    }\r\n\r\n    function setDescriptionContractAddress(address _descriptionContractAddress)\r\n    public payable\r\n    {\r\n        require (_descriptionContractAddress != address(0));\r\n        descriptionContract = IDescription(_descriptionContractAddress);\r\n    }\r\n\r\n\r\n    // constructor(\r\n    //     address _antiqueContractAddress,\r\n    //     address _descriptionContractAddress,\r\n    //     address _documentationContractAddress,\r\n    //     address _verificationContractAddress)\r\n    // {\r\n    //    //Check Parameters\r\n    //     require(_antiqueContractAddress != address(0));\r\n    //     require(_descriptionContractAddress != address(0));\r\n    //     require(_documentationContractAddress != address(0));\r\n    //     require(_verificationContractAddress != address(0));\r\n\r\n    //     //Set the Address For Contracts\r\n    //     documentationContract = IDocumentation(_documentationContractAddress);\r\n    //     verificationContract = IVerification(_verificationContractAddress);\r\n    //     descriptionContract = IDescription(_descriptionContractAddress);\r\n    //     antiqueContract = IAntique(_antiqueContractAddress);\r\n\r\n    //     name = \"DatabaseController\";\r\n    // }\r\n\r\n    //A. Verification Functions\r\n\r\n    //1. Add Verification Function\r\n    function AddVerification \r\n    (\r\n        //Owner and Appraiser Data\r\n        address payable _ownerAddress,\r\n        uint256 _ownerID,\r\n        uint256 _personVerificationID,\r\n        \r\n        //Antique Object Data\r\n        uint256 _ioTDeviceID,\r\n        string memory _estimateManufactureYears,\r\n        string memory _antiqueRareness,\r\n        string memory _antiqueAuthenticity,\r\n        string memory _antiqueRealness,\r\n\r\n        //Time Data    \r\n        address payable _uploader\r\n    )  external returns (uint256) {\r\n        return\r\n            verificationContract.AddVerification(\r\n                payable(_ownerAddress),\r\n                _ownerID,\r\n                _personVerificationID,\r\n                _ioTDeviceID,\r\n                _estimateManufactureYears,\r\n                _antiqueRareness,\r\n                _antiqueAuthenticity,\r\n                _antiqueRealness,\r\n                _uploader\r\n            );\r\n    }\r\n\r\n    //2. Update Verification Function\r\n     function UpdateVerification \r\n    (\r\n        //Owner and Appraiser Data\r\n        uint256 _verificationID,\r\n        address payable _newOwnerAddress,\r\n        uint256 _newOwnerID,\r\n        uint256 _newPersonVerificationID,\r\n        \r\n        //Antique Object Data\r\n        uint256 _newIoTDeviceID,\r\n        string memory _newEstimateManufactureYears,\r\n        string memory _newAntiqueRareness,\r\n        string memory _newAntiqueAuthenticity,\r\n        string memory _newAntiqueRealness,\r\n\r\n        //Time Data\r\n        address payable _uploader    \r\n    )\r\n    external {\r\n        verificationContract.UpdateVerification(\r\n            _verificationID,\r\n            _newOwnerAddress,\r\n            _newOwnerID,\r\n            _newPersonVerificationID,\r\n            _newIoTDeviceID,\r\n            _newEstimateManufactureYears,\r\n            _newAntiqueRareness,\r\n            _newAntiqueAuthenticity,\r\n            _newAntiqueRealness,\r\n            _uploader\r\n        );\r\n    }\r\n\r\n    //3. Validate Verification ID\r\n    function ValidateVerificationID(uint256 _verificationID)\r\n        external\r\n        returns (bool)\r\n    {\r\n        return verificationContract.ValidateVerificationID(_verificationID);\r\n    }\r\n\r\n    //4. Get Verification By ID\r\n    function GetVerificationByID(uint256 _verificationID)\r\n        external\r\n        returns (IVerification.VerificateionObject memory)\r\n    {\r\n        return verificationContract.GetVerificationByID(_verificationID);\r\n    }\r\n\r\n    // B. Description Contract\r\n\r\n    //1. Add Description Function\r\n     function  AddDescription\r\n    (\r\n        uint256 _antiqueObjectID,\r\n        string memory _materialCreated,\r\n        uint256 _antiqueHeight,\r\n        uint256 _antiqueLength,\r\n        uint256 _anitqueWidth,\r\n        address payable _uploader\r\n    ) external returns (uint256) {\r\n        return\r\n            descriptionContract.AddDescription(\r\n                _antiqueObjectID,\r\n                _materialCreated,\r\n                _antiqueHeight,\r\n                _antiqueLength,\r\n                _anitqueWidth,\r\n                _uploader\r\n            );\r\n    }\r\n\r\n    //2. Update Description Function\r\n    function UpdateDescriptionMaterials \r\n    (\r\n        uint256 _descriptionID,\r\n        string memory _newMaterialCreated,\r\n        uint256 _antiqueHeight,\r\n        uint256 _antiqueLength,\r\n        uint256 _anitqueWidth,\r\n        address payable _uploader\r\n    ) external {\r\n        descriptionContract.UpdateDescriptionMaterials(\r\n            _descriptionID,\r\n            _newMaterialCreated,\r\n            _antiqueHeight,\r\n            _antiqueLength,\r\n            _anitqueWidth,\r\n            _uploader\r\n        );\r\n    }\r\n\r\n    //3. Validate Description ID\r\n    function ValidateDescriptionID(uint256 _descriptionID)\r\n        external\r\n        returns (bool)\r\n    {\r\n        return descriptionContract.ValidateDescriptionID(_descriptionID);\r\n    }\r\n\r\n    //4. Get Description By Description ID\r\n    function GetDescriptionByID(uint256 _descriptionID)\r\n        external\r\n        returns (IDescription.DescriptionObject memory)\r\n    {\r\n        return descriptionContract.GetDescriptionByID(_descriptionID);\r\n    }\r\n\r\n    //C. Documentation Contract\r\n    //Return Unit256 ID - ID for Created Documentation\r\n\r\n    //1. Add Documentation\r\n    function AddDocumentation(\r\n        string memory _fileHash,\r\n        uint256 _fileSize,\r\n        string memory _fileType,\r\n        string memory _fileName,\r\n        string memory _fileDescription,\r\n        address payable _uploader\r\n    ) external returns (uint256) {\r\n        return\r\n            documentationContract.AddDocumentation(\r\n                _fileHash,\r\n                _fileSize,\r\n                _fileType,\r\n                _fileName,\r\n                _fileDescription,\r\n                _uploader\r\n            );\r\n    }\r\n\r\n    //2. Update Documentation\r\n    function UpdateDocumentation(\r\n        uint256 _documentationID,\r\n        string memory _fileHash,\r\n        uint256 _fileSize,\r\n        string memory _fileType,\r\n        string memory _fileName,\r\n        string memory _fileDescription,\r\n        address payable _uploader\r\n    ) external {\r\n        documentationContract.UpdateDocumentation(\r\n            _documentationID,\r\n            _fileHash,\r\n            _fileSize,\r\n            _fileType,\r\n            _fileName,\r\n            _fileDescription,\r\n            _uploader\r\n        );\r\n    }\r\n\r\n    //3. Validate Documentation\r\n    function ValidateDocumentationID(uint256 _documentationID)\r\n        external\r\n        returns (bool)\r\n    {\r\n        return documentationContract.ValidateDocumentationID(_documentationID);\r\n    }\r\n\r\n    //4. Get Documentation By ID\r\n    function GetDocumentationByID(uint256 _documentationID)\r\n        external\r\n        returns (IDocumentation.DocumentationObject memory)\r\n    {\r\n        return documentationContract.GetDocumentationByID(_documentationID);\r\n    }\r\n\r\n    // D.Antique Contract\r\n    // 1. Add Antique Object\r\n    function AddAntique(\r\n        uint256 _documentationID,\r\n        uint256 _verificationID,\r\n        uint256 _descriptionID,\r\n        address payable _uploader\r\n    ) external returns (uint256) {\r\n        //Check Parameters\r\n        require(\r\n            documentationContract.ValidateDocumentationID(_documentationID) ==\r\n                true\r\n        );\r\n        require(\r\n            verificationContract.ValidateVerificationID(_verificationID) == true\r\n        );\r\n        require(\r\n            descriptionContract.ValidateDescriptionID(_descriptionID) == true\r\n        );\r\n\r\n        // Create A New Antique Object\r\n        uint256 _antiqueID = antiqueContract.AddAntique(\r\n            _documentationID,\r\n            _verificationID,\r\n            _descriptionID,\r\n            _uploader\r\n        );\r\n\r\n        // Set Antique ID In Verification Object, Documentation Object and Description Object\r\n        documentationContract.SetAntiqueIDByDocumentationID(\r\n            _documentationID,\r\n            _antiqueID,\r\n            _uploader\r\n        );\r\n        verificationContract.SetAntiqueIDByVerificationID(\r\n            _verificationID,\r\n            _antiqueID,\r\n            _uploader\r\n        );\r\n        descriptionContract.SetAntiqueIDByDescriptionID(\r\n            _descriptionID,\r\n            _antiqueID,\r\n            _uploader\r\n        );\r\n        return _antiqueID;\r\n    }\r\n\r\n    //2. Update Antique Object\r\n    function UpdateAntique(\r\n        uint256 _antiqueID,\r\n        uint256 _documentationID,\r\n        uint256 _verificationID,\r\n        uint256 _descriptionID,\r\n        address payable _uploader\r\n    ) external {\r\n        //Check Parameters\r\n\r\n        require(\r\n            documentationContract.ValidateDocumentationID(_documentationID) ==\r\n                true\r\n        );\r\n        require(\r\n            verificationContract.ValidateVerificationID(_verificationID) == true\r\n        );\r\n        require(\r\n            descriptionContract.ValidateDescriptionID(_descriptionID) == true\r\n        );\r\n\r\n        //Update Antique Object Data\r\n        require(ValidateAntiqueID(_antiqueID) == true);\r\n        antiqueContract.UpdateAntique(\r\n            _antiqueID,\r\n            _documentationID,\r\n            _verificationID,\r\n            _descriptionID,\r\n            _uploader\r\n        );\r\n\r\n        //Update Description, Verification and Documentation Data\r\n        documentationContract.SetAntiqueIDByDocumentationID(\r\n            _documentationID,\r\n            _antiqueID,\r\n            _uploader\r\n        );\r\n        verificationContract.SetAntiqueIDByVerificationID(\r\n            _verificationID,\r\n            _antiqueID,\r\n            _uploader\r\n        );\r\n        descriptionContract.SetAntiqueIDByDescriptionID(\r\n            _descriptionID,\r\n            _antiqueID,\r\n            _uploader\r\n        );\r\n    }\r\n\r\n    //3. Validate Antique Object ID\r\n    function ValidateAntiqueID(uint256 _antiqueID) public returns (bool) {\r\n        if (antiqueContract.ValidateAntiqueID(_antiqueID) == true) {\r\n            IAntique.AntiqueObject memory _antiqueData = antiqueContract\r\n                .GetAntiqueByID(_antiqueID);\r\n            if (\r\n                descriptionContract.ValidateDescriptionID(\r\n                    _antiqueData.descriptionID\r\n                ) ==\r\n                true &&\r\n                verificationContract.ValidateVerificationID(\r\n                    _antiqueData.verificationID\r\n                ) ==\r\n                true &&\r\n                documentationContract.ValidateDocumentationID(\r\n                    _antiqueData.documentationID\r\n                ) ==\r\n                true\r\n            ) {\r\n                return true;\r\n            }\r\n        }\r\n        return false;\r\n    }\r\n\r\n    //4. Get Antique By ID\r\n    function GetAntiqueByID(uint256 _antiqueID)\r\n        public\r\n        returns (IAntique.AntiqueObject memory)\r\n    {\r\n        return antiqueContract.GetAntiqueByID(_antiqueID);\r\n    }\r\n}\r\n",
  "sourcePath": "C:\\Users\\Natha\\OneDrive - The University of Sydney (Students)\\University of Sydney Materials\\Studying\\Year 5\\Semester 1\\Thesis B\\Thesis B Project Code\\truffle\\contracts\\DatabaseController.sol",
  "compiler": {
    "name": "solc",
    "version": "0.8.14+commit.80d49f37.Emscripten.clang"
  },
  "schemaVersion": "3.4.11",
  "updatedAt": "2023-01-31T12:26:10.380Z",
  "networkType": "ethereum",
  "devdoc": {
    "kind": "dev",
    "methods": {},
    "version": 1
  },
  "userdoc": {
    "kind": "user",
    "methods": {},
    "version": 1
  }
}