{
  "contractName": "DatabaseController",
  "abi": [
    {
      "inputs": [],
      "name": "name",
      "outputs": [
        {
          "internalType": "string",
          "name": "",
          "type": "string"
        }
      ],
      "stateMutability": "view",
      "type": "function",
      "constant": true
    },
    {
      "inputs": [
        {
          "internalType": "address",
          "name": "_antiqueContractAddress",
          "type": "address"
        }
      ],
      "name": "setAntiqueContractAddress",
      "outputs": [],
      "stateMutability": "payable",
      "type": "function",
      "payable": true
    },
    {
      "inputs": [
        {
          "internalType": "address",
          "name": "_documentationContractAddress",
          "type": "address"
        }
      ],
      "name": "setDocumentationContractAddress",
      "outputs": [],
      "stateMutability": "payable",
      "type": "function",
      "payable": true
    },
    {
      "inputs": [
        {
          "internalType": "address",
          "name": "_verificationContractAddress",
          "type": "address"
        }
      ],
      "name": "setVerificationContractAddress",
      "outputs": [],
      "stateMutability": "payable",
      "type": "function",
      "payable": true
    },
    {
      "inputs": [
        {
          "internalType": "address",
          "name": "_descriptionContractAddress",
          "type": "address"
        }
      ],
      "name": "setDescriptionContractAddress",
      "outputs": [],
      "stateMutability": "payable",
      "type": "function",
      "payable": true
    },
    {
      "inputs": [
        {
          "internalType": "address payable",
          "name": "_ownerAddress",
          "type": "address"
        },
        {
          "internalType": "uint256",
          "name": "_ownerID",
          "type": "uint256"
        },
        {
          "internalType": "uint256",
          "name": "_personVerificationID",
          "type": "uint256"
        },
        {
          "internalType": "uint256",
          "name": "_ioTDeviceID",
          "type": "uint256"
        },
        {
          "internalType": "address payable",
          "name": "_uploader",
          "type": "address"
        }
      ],
      "name": "AddVerification",
      "outputs": [
        {
          "internalType": "uint256",
          "name": "",
          "type": "uint256"
        }
      ],
      "stateMutability": "nonpayable",
      "type": "function"
    },
    {
      "inputs": [
        {
          "internalType": "uint256",
          "name": "_verificationID",
          "type": "uint256"
        },
        {
          "internalType": "address payable",
          "name": "_newOwnerAddress",
          "type": "address"
        },
        {
          "internalType": "uint256",
          "name": "_newOwnerID",
          "type": "uint256"
        },
        {
          "internalType": "uint256",
          "name": "_newPersonVerificationID",
          "type": "uint256"
        },
        {
          "internalType": "uint256",
          "name": "_newIoTDeviceID",
          "type": "uint256"
        },
        {
          "internalType": "address payable",
          "name": "_uploader",
          "type": "address"
        }
      ],
      "name": "UpdateVerification",
      "outputs": [],
      "stateMutability": "nonpayable",
      "type": "function"
    },
    {
      "inputs": [
        {
          "internalType": "uint256",
          "name": "_verificationID",
          "type": "uint256"
        }
      ],
      "name": "ValidateVerificationID",
      "outputs": [
        {
          "internalType": "bool",
          "name": "",
          "type": "bool"
        }
      ],
      "stateMutability": "nonpayable",
      "type": "function"
    },
    {
      "inputs": [
        {
          "internalType": "uint256",
          "name": "_verificationID",
          "type": "uint256"
        }
      ],
      "name": "GetVerificationByID",
      "outputs": [
        {
          "components": [
            {
              "internalType": "uint256",
              "name": "verificationID",
              "type": "uint256"
            },
            {
              "internalType": "uint256",
              "name": "antiqueID",
              "type": "uint256"
            },
            {
              "internalType": "address payable",
              "name": "ownerAddress",
              "type": "address"
            },
            {
              "internalType": "uint256",
              "name": "ownerID",
              "type": "uint256"
            },
            {
              "internalType": "uint256",
              "name": "personVerificationID",
              "type": "uint256"
            },
            {
              "internalType": "uint256",
              "name": "ioTDeviceID",
              "type": "uint256"
            },
            {
              "internalType": "uint256",
              "name": "uploadTime",
              "type": "uint256"
            },
            {
              "internalType": "address payable",
              "name": "uploader",
              "type": "address"
            }
          ],
          "internalType": "struct IVerification.VerificateionObject",
          "name": "",
          "type": "tuple"
        }
      ],
      "stateMutability": "nonpayable",
      "type": "function"
    },
    {
      "inputs": [
        {
          "internalType": "uint256",
          "name": "_antiqueObjectID",
          "type": "uint256"
        },
        {
          "internalType": "string",
          "name": "_materialCreated",
          "type": "string"
        },
        {
          "internalType": "address payable",
          "name": "_uploader",
          "type": "address"
        }
      ],
      "name": "AddDescription",
      "outputs": [
        {
          "internalType": "uint256",
          "name": "",
          "type": "uint256"
        }
      ],
      "stateMutability": "nonpayable",
      "type": "function"
    },
    {
      "inputs": [
        {
          "internalType": "uint256",
          "name": "_descriptionID",
          "type": "uint256"
        },
        {
          "internalType": "string",
          "name": "_newMaterialCreated",
          "type": "string"
        },
        {
          "internalType": "address payable",
          "name": "_uploader",
          "type": "address"
        }
      ],
      "name": "UpdateDescriptionMaterials",
      "outputs": [],
      "stateMutability": "nonpayable",
      "type": "function"
    },
    {
      "inputs": [
        {
          "internalType": "uint256",
          "name": "_descriptionID",
          "type": "uint256"
        }
      ],
      "name": "ValidateDescriptionID",
      "outputs": [
        {
          "internalType": "bool",
          "name": "",
          "type": "bool"
        }
      ],
      "stateMutability": "nonpayable",
      "type": "function"
    },
    {
      "inputs": [
        {
          "internalType": "uint256",
          "name": "_descriptionID",
          "type": "uint256"
        }
      ],
      "name": "GetDescriptionByID",
      "outputs": [
        {
          "components": [
            {
              "internalType": "uint256",
              "name": "descriptionID",
              "type": "uint256"
            },
            {
              "internalType": "uint256",
              "name": "antiqueObjectID",
              "type": "uint256"
            },
            {
              "internalType": "string",
              "name": "materialCreated",
              "type": "string"
            },
            {
              "internalType": "uint256",
              "name": "uploadTime",
              "type": "uint256"
            },
            {
              "internalType": "address payable",
              "name": "uploader",
              "type": "address"
            }
          ],
          "internalType": "struct IDescription.DescriptionObject",
          "name": "",
          "type": "tuple"
        }
      ],
      "stateMutability": "nonpayable",
      "type": "function"
    },
    {
      "inputs": [
        {
          "internalType": "string",
          "name": "_fileHash",
          "type": "string"
        },
        {
          "internalType": "uint256",
          "name": "_fileSize",
          "type": "uint256"
        },
        {
          "internalType": "string",
          "name": "_fileType",
          "type": "string"
        },
        {
          "internalType": "string",
          "name": "_fileName",
          "type": "string"
        },
        {
          "internalType": "string",
          "name": "_fileDescription",
          "type": "string"
        },
        {
          "internalType": "address payable",
          "name": "_uploader",
          "type": "address"
        }
      ],
      "name": "AddDocumentation",
      "outputs": [
        {
          "internalType": "uint256",
          "name": "",
          "type": "uint256"
        }
      ],
      "stateMutability": "nonpayable",
      "type": "function"
    },
    {
      "inputs": [
        {
          "internalType": "uint256",
          "name": "_documentationID",
          "type": "uint256"
        },
        {
          "internalType": "string",
          "name": "_fileHash",
          "type": "string"
        },
        {
          "internalType": "uint256",
          "name": "_fileSize",
          "type": "uint256"
        },
        {
          "internalType": "string",
          "name": "_fileType",
          "type": "string"
        },
        {
          "internalType": "string",
          "name": "_fileName",
          "type": "string"
        },
        {
          "internalType": "string",
          "name": "_fileDescription",
          "type": "string"
        },
        {
          "internalType": "address payable",
          "name": "_uploader",
          "type": "address"
        }
      ],
      "name": "UpdateDocumentation",
      "outputs": [],
      "stateMutability": "nonpayable",
      "type": "function"
    },
    {
      "inputs": [
        {
          "internalType": "uint256",
          "name": "_documentationID",
          "type": "uint256"
        }
      ],
      "name": "ValidateDocumentationID",
      "outputs": [
        {
          "internalType": "bool",
          "name": "",
          "type": "bool"
        }
      ],
      "stateMutability": "nonpayable",
      "type": "function"
    },
    {
      "inputs": [
        {
          "internalType": "uint256",
          "name": "_documentationID",
          "type": "uint256"
        }
      ],
      "name": "GetDocumentationByID",
      "outputs": [
        {
          "components": [
            {
              "internalType": "uint256",
              "name": "documentationID",
              "type": "uint256"
            },
            {
              "internalType": "uint256",
              "name": "antiqueID",
              "type": "uint256"
            },
            {
              "internalType": "string",
              "name": "filehash",
              "type": "string"
            },
            {
              "internalType": "uint256",
              "name": "fileSize",
              "type": "uint256"
            },
            {
              "internalType": "string",
              "name": "fileType",
              "type": "string"
            },
            {
              "internalType": "string",
              "name": "fileName",
              "type": "string"
            },
            {
              "internalType": "string",
              "name": "fileDescription",
              "type": "string"
            },
            {
              "internalType": "uint256",
              "name": "uploadTime",
              "type": "uint256"
            },
            {
              "internalType": "address payable",
              "name": "uploader",
              "type": "address"
            }
          ],
          "internalType": "struct IDocumentation.DocumentationObject",
          "name": "",
          "type": "tuple"
        }
      ],
      "stateMutability": "nonpayable",
      "type": "function"
    },
    {
      "inputs": [
        {
          "internalType": "uint256",
          "name": "_documentationID",
          "type": "uint256"
        },
        {
          "internalType": "uint256",
          "name": "_verificationID",
          "type": "uint256"
        },
        {
          "internalType": "uint256",
          "name": "_descriptionID",
          "type": "uint256"
        },
        {
          "internalType": "address payable",
          "name": "_uploader",
          "type": "address"
        }
      ],
      "name": "AddAntique",
      "outputs": [
        {
          "internalType": "uint256",
          "name": "",
          "type": "uint256"
        }
      ],
      "stateMutability": "nonpayable",
      "type": "function"
    },
    {
      "inputs": [
        {
          "internalType": "uint256",
          "name": "_antiqueID",
          "type": "uint256"
        },
        {
          "internalType": "uint256",
          "name": "_documentationID",
          "type": "uint256"
        },
        {
          "internalType": "uint256",
          "name": "_verificationID",
          "type": "uint256"
        },
        {
          "internalType": "uint256",
          "name": "_descriptionID",
          "type": "uint256"
        },
        {
          "internalType": "address payable",
          "name": "_uploader",
          "type": "address"
        }
      ],
      "name": "UpdateAntique",
      "outputs": [],
      "stateMutability": "nonpayable",
      "type": "function"
    },
    {
      "inputs": [
        {
          "internalType": "uint256",
          "name": "_antiqueID",
          "type": "uint256"
        }
      ],
      "name": "ValidateAntiqueID",
      "outputs": [
        {
          "internalType": "bool",
          "name": "",
          "type": "bool"
        }
      ],
      "stateMutability": "nonpayable",
      "type": "function"
    },
    {
      "inputs": [
        {
          "internalType": "uint256",
          "name": "_antiqueID",
          "type": "uint256"
        }
      ],
      "name": "GetAntiqueByID",
      "outputs": [
        {
          "components": [
            {
              "internalType": "uint256",
              "name": "antiqueID",
              "type": "uint256"
            },
            {
              "internalType": "uint256",
              "name": "documentationID",
              "type": "uint256"
            },
            {
              "internalType": "uint256",
              "name": "verificationID",
              "type": "uint256"
            },
            {
              "internalType": "uint256",
              "name": "descriptionID",
              "type": "uint256"
            }
          ],
          "internalType": "struct IAntique.AntiqueObject",
          "name": "",
          "type": "tuple"
        }
      ],
      "stateMutability": "nonpayable",
      "type": "function"
    }
  ],
  "bytecode": "0x60806040526040518060400160405280601281526020017f4461746162617365436f6e74726f6c6c6572000000000000000000000000000081525060009080519060200190620000519291906200006b565b5060006005553480156200006457600080fd5b506200017f565b82805462000079906200014a565b90600052602060002090601f0160209004810192826200009d5760008555620000e9565b82601f10620000b857805160ff1916838001178555620000e9565b82800160010185558215620000e9579182015b82811115620000e8578251825591602001919060010190620000cb565b5b509050620000f89190620000fc565b5090565b5b8082111562000117576000816000905550600101620000fd565b5090565b7f4e487b7100000000000000000000000000000000000000000000000000000000600052602260045260246000fd5b600060028204905060018216806200016357607f821691505b6020821081036200017957620001786200011b565b5b50919050565b6131e6806200018f6000396000f3fe60806040526004361061012a5760003560e01c806376e7e4df116100ab578063b9d7bea31161006f578063b9d7bea314610432578063d27fbe471461044e578063d89b8f2c1461048b578063db15b787146104a7578063ddf4732c146104e4578063ef1a56681461050d5761012a565b806376e7e4df146103015780638c39b67f1461033e5780639b0b53621461037b5780639d35b96f146103b8578063a7ccf928146103f55761012a565b80634ba2e60f116100f25780634ba2e60f146102265780635404171814610263578063540c74ec1461027f5780635e928b85146102a8578063697d37f7146102c45761012a565b806306fdde031461012f5780630c61f46d1461015a578063330ba56a146101835780634020c980146101c05780634961904a146101e9575b600080fd5b34801561013b57600080fd5b5061014461054a565b6040516101519190611e9e565b60405180910390f35b34801561016657600080fd5b50610181600480360381019061017c9190611f68565b6105d8565b005b34801561018f57600080fd5b506101aa60048036038101906101a59190611ff5565b610677565b6040516101b7919061203d565b60405180910390f35b3480156101cc57600080fd5b506101e760048036038101906101e29190612058565b61071e565b005b3480156101f557600080fd5b50610210600480360381019061020b9190611ff5565b610b90565b60405161021d9190612215565b60405180910390f35b34801561023257600080fd5b5061024d60048036038101906102489190612237565b610c42565b60405161025a91906122ad565b60405180910390f35b61027d60048036038101906102789190612306565b6110b5565b005b34801561028b57600080fd5b506102a660048036038101906102a19190612468565b611132565b005b6102c260048036038101906102bd9190612306565b6111c8565b005b3480156102d057600080fd5b506102eb60048036038101906102e69190612468565b611245565b6040516102f891906122ad565b60405180910390f35b34801561030d57600080fd5b50610328600480360381019061032391906124d7565b6112f2565b60405161033591906122ad565b60405180910390f35b34801561034a57600080fd5b5061036560048036038101906103609190611ff5565b6113a8565b604051610372919061203d565b60405180910390f35b34801561038757600080fd5b506103a2600480360381019061039d9190611ff5565b61144f565b6040516103af919061203d565b60405180910390f35b3480156103c457600080fd5b506103df60048036038101906103da91906125d4565b6117c2565b6040516103ec91906122ad565b60405180910390f35b34801561040157600080fd5b5061041c60048036038101906104179190611ff5565b611875565b60405161042991906126a4565b60405180910390f35b61044c60048036038101906104479190612306565b611922565b005b34801561045a57600080fd5b5061047560048036038101906104709190611ff5565b61199f565b604051610482919061203d565b60405180910390f35b6104a560048036038101906104a09190612306565b611a46565b005b3480156104b357600080fd5b506104ce60048036038101906104c99190611ff5565b611ac3565b6040516104db9190612761565b60405180910390f35b3480156104f057600080fd5b5061050b6004803603810190610506919061277d565b611b71565b005b34801561051957600080fd5b50610534600480360381019061052f9190611ff5565b611c13565b6040516105419190612905565b60405180910390f35b6000805461055790612956565b80601f016020809104026020016040519081016040528092919081815260200182805461058390612956565b80156105d05780601f106105a5576101008083540402835291602001916105d0565b820191906000526020600020905b8154815290600101906020018083116105b357829003601f168201915b505050505081565b600760009054906101000a900473ffffffffffffffffffffffffffffffffffffffff1673ffffffffffffffffffffffffffffffffffffffff16630c61f46d8787878787876040518763ffffffff1660e01b815260040161063d96959493929190612996565b600060405180830381600087803b15801561065757600080fd5b505af115801561066b573d6000803e3d6000fd5b50505050505050505050565b6000600860009054906101000a900473ffffffffffffffffffffffffffffffffffffffff1673ffffffffffffffffffffffffffffffffffffffff1663330ba56a836040518263ffffffff1660e01b81526004016106d491906122ad565b6020604051808303816000875af11580156106f3573d6000803e3d6000fd5b505050506040513d601f19601f820116820180604052508101906107179190612a23565b9050919050565b60011515600660009054906101000a900473ffffffffffffffffffffffffffffffffffffffff1673ffffffffffffffffffffffffffffffffffffffff16638c39b67f866040518263ffffffff1660e01b815260040161077d91906122ad565b6020604051808303816000875af115801561079c573d6000803e3d6000fd5b505050506040513d601f19601f820116820180604052508101906107c09190612a23565b1515146107cc57600080fd5b60011515600760009054906101000a900473ffffffffffffffffffffffffffffffffffffffff1673ffffffffffffffffffffffffffffffffffffffff1663d27fbe47856040518263ffffffff1660e01b815260040161082b91906122ad565b6020604051808303816000875af115801561084a573d6000803e3d6000fd5b505050506040513d601f19601f8201168201806040525081019061086e9190612a23565b15151461087a57600080fd5b60011515600860009054906101000a900473ffffffffffffffffffffffffffffffffffffffff1673ffffffffffffffffffffffffffffffffffffffff1663330ba56a846040518263ffffffff1660e01b81526004016108d991906122ad565b6020604051808303816000875af11580156108f8573d6000803e3d6000fd5b505050506040513d601f19601f8201168201806040525081019061091c9190612a23565b15151461092857600080fd5b600115156109358661144f565b15151461094157600080fd5b600960009054906101000a900473ffffffffffffffffffffffffffffffffffffffff1673ffffffffffffffffffffffffffffffffffffffff16634020c98086868686866040518663ffffffff1660e01b81526004016109a4959493929190612a50565b600060405180830381600087803b1580156109be57600080fd5b505af11580156109d2573d6000803e3d6000fd5b50505050600660009054906101000a900473ffffffffffffffffffffffffffffffffffffffff1673ffffffffffffffffffffffffffffffffffffffff1663287c1b158587846040518463ffffffff1660e01b8152600401610a3593929190612aa3565b600060405180830381600087803b158015610a4f57600080fd5b505af1158015610a63573d6000803e3d6000fd5b50505050600760009054906101000a900473ffffffffffffffffffffffffffffffffffffffff1673ffffffffffffffffffffffffffffffffffffffff16630bb6c06b8487846040518463ffffffff1660e01b8152600401610ac693929190612aa3565b600060405180830381600087803b158015610ae057600080fd5b505af1158015610af4573d6000803e3d6000fd5b50505050600860009054906101000a900473ffffffffffffffffffffffffffffffffffffffff1673ffffffffffffffffffffffffffffffffffffffff16631d6607b78387846040518463ffffffff1660e01b8152600401610b5793929190612aa3565b600060405180830381600087803b158015610b7157600080fd5b505af1158015610b85573d6000803e3d6000fd5b505050505050505050565b610b98611cc5565b600660009054906101000a900473ffffffffffffffffffffffffffffffffffffffff1673ffffffffffffffffffffffffffffffffffffffff16634961904a836040518263ffffffff1660e01b8152600401610bf391906122ad565b6000604051808303816000875af1158015610c12573d6000803e3d6000fd5b505050506040513d6000823e3d601f19601f82011682018060405250810190610c3b9190612cce565b9050919050565b600060011515600660009054906101000a900473ffffffffffffffffffffffffffffffffffffffff1673ffffffffffffffffffffffffffffffffffffffff16638c39b67f876040518263ffffffff1660e01b8152600401610ca391906122ad565b6020604051808303816000875af1158015610cc2573d6000803e3d6000fd5b505050506040513d601f19601f82011682018060405250810190610ce69190612a23565b151514610cf257600080fd5b60011515600760009054906101000a900473ffffffffffffffffffffffffffffffffffffffff1673ffffffffffffffffffffffffffffffffffffffff1663d27fbe47866040518263ffffffff1660e01b8152600401610d5191906122ad565b6020604051808303816000875af1158015610d70573d6000803e3d6000fd5b505050506040513d601f19601f82011682018060405250810190610d949190612a23565b151514610da057600080fd5b60011515600860009054906101000a900473ffffffffffffffffffffffffffffffffffffffff1673ffffffffffffffffffffffffffffffffffffffff1663330ba56a856040518263ffffffff1660e01b8152600401610dff91906122ad565b6020604051808303816000875af1158015610e1e573d6000803e3d6000fd5b505050506040513d601f19601f82011682018060405250810190610e429190612a23565b151514610e4e57600080fd5b6000600960009054906101000a900473ffffffffffffffffffffffffffffffffffffffff1673ffffffffffffffffffffffffffffffffffffffff16634ba2e60f878787876040518563ffffffff1660e01b8152600401610eb19493929190612d17565b6020604051808303816000875af1158015610ed0573d6000803e3d6000fd5b505050506040513d601f19601f82011682018060405250810190610ef49190612d5c565b9050600660009054906101000a900473ffffffffffffffffffffffffffffffffffffffff1673ffffffffffffffffffffffffffffffffffffffff1663287c1b158783866040518463ffffffff1660e01b8152600401610f5593929190612aa3565b600060405180830381600087803b158015610f6f57600080fd5b505af1158015610f83573d6000803e3d6000fd5b50505050600760009054906101000a900473ffffffffffffffffffffffffffffffffffffffff1673ffffffffffffffffffffffffffffffffffffffff16630bb6c06b8683866040518463ffffffff1660e01b8152600401610fe693929190612aa3565b600060405180830381600087803b15801561100057600080fd5b505af1158015611014573d6000803e3d6000fd5b50505050600860009054906101000a900473ffffffffffffffffffffffffffffffffffffffff1673ffffffffffffffffffffffffffffffffffffffff16631d6607b78583866040518463ffffffff1660e01b815260040161107793929190612aa3565b600060405180830381600087803b15801561109157600080fd5b505af11580156110a5573d6000803e3d6000fd5b5050505080915050949350505050565b600073ffffffffffffffffffffffffffffffffffffffff168173ffffffffffffffffffffffffffffffffffffffff16036110ee57600080fd5b80600660006101000a81548173ffffffffffffffffffffffffffffffffffffffff021916908373ffffffffffffffffffffffffffffffffffffffff16021790555050565b600860009054906101000a900473ffffffffffffffffffffffffffffffffffffffff1673ffffffffffffffffffffffffffffffffffffffff1663540c74ec8484846040518463ffffffff1660e01b815260040161119193929190612d89565b600060405180830381600087803b1580156111ab57600080fd5b505af11580156111bf573d6000803e3d6000fd5b50505050505050565b600073ffffffffffffffffffffffffffffffffffffffff168173ffffffffffffffffffffffffffffffffffffffff160361120157600080fd5b80600960006101000a81548173ffffffffffffffffffffffffffffffffffffffff021916908373ffffffffffffffffffffffffffffffffffffffff16021790555050565b6000600860009054906101000a900473ffffffffffffffffffffffffffffffffffffffff1673ffffffffffffffffffffffffffffffffffffffff1663697d37f78585856040518463ffffffff1660e01b81526004016112a693929190612d89565b6020604051808303816000875af11580156112c5573d6000803e3d6000fd5b505050506040513d601f19601f820116820180604052508101906112e99190612d5c565b90509392505050565b6000600660009054906101000a900473ffffffffffffffffffffffffffffffffffffffff1673ffffffffffffffffffffffffffffffffffffffff166376e7e4df8888888888886040518763ffffffff1660e01b815260040161135996959493929190612dc7565b6020604051808303816000875af1158015611378573d6000803e3d6000fd5b505050506040513d601f19601f8201168201806040525081019061139c9190612d5c565b90509695505050505050565b6000600660009054906101000a900473ffffffffffffffffffffffffffffffffffffffff1673ffffffffffffffffffffffffffffffffffffffff16638c39b67f836040518263ffffffff1660e01b815260040161140591906122ad565b6020604051808303816000875af1158015611424573d6000803e3d6000fd5b505050506040513d601f19601f820116820180604052508101906114489190612a23565b9050919050565b600060011515600960009054906101000a900473ffffffffffffffffffffffffffffffffffffffff1673ffffffffffffffffffffffffffffffffffffffff16639b0b5362846040518263ffffffff1660e01b81526004016114b091906122ad565b6020604051808303816000875af11580156114cf573d6000803e3d6000fd5b505050506040513d601f19601f820116820180604052508101906114f39190612a23565b1515036117b8576000600960009054906101000a900473ffffffffffffffffffffffffffffffffffffffff1673ffffffffffffffffffffffffffffffffffffffff1663a7ccf928846040518263ffffffff1660e01b815260040161155791906122ad565b6080604051808303816000875af1158015611576573d6000803e3d6000fd5b505050506040513d601f19601f8201168201806040525081019061159a9190612ebc565b905060011515600860009054906101000a900473ffffffffffffffffffffffffffffffffffffffff1673ffffffffffffffffffffffffffffffffffffffff1663330ba56a83606001516040518263ffffffff1660e01b81526004016115ff91906122ad565b6020604051808303816000875af115801561161e573d6000803e3d6000fd5b505050506040513d601f19601f820116820180604052508101906116429190612a23565b15151480156116f6575060011515600760009054906101000a900473ffffffffffffffffffffffffffffffffffffffff1673ffffffffffffffffffffffffffffffffffffffff1663d27fbe4783604001516040518263ffffffff1660e01b81526004016116af91906122ad565b6020604051808303816000875af11580156116ce573d6000803e3d6000fd5b505050506040513d601f19601f820116820180604052508101906116f29190612a23565b1515145b80156117a7575060011515600660009054906101000a900473ffffffffffffffffffffffffffffffffffffffff1673ffffffffffffffffffffffffffffffffffffffff16638c39b67f83602001516040518263ffffffff1660e01b815260040161176091906122ad565b6020604051808303816000875af115801561177f573d6000803e3d6000fd5b505050506040513d601f19601f820116820180604052508101906117a39190612a23565b1515145b156117b65760019150506117bd565b505b600090505b919050565b6000600760009054906101000a900473ffffffffffffffffffffffffffffffffffffffff1673ffffffffffffffffffffffffffffffffffffffff16639d35b96f87878787876040518663ffffffff1660e01b8152600401611827959493929190612ee9565b6020604051808303816000875af1158015611846573d6000803e3d6000fd5b505050506040513d601f19601f8201168201806040525081019061186a9190612d5c565b905095945050505050565b61187d611d27565b600960009054906101000a900473ffffffffffffffffffffffffffffffffffffffff1673ffffffffffffffffffffffffffffffffffffffff1663a7ccf928836040518263ffffffff1660e01b81526004016118d891906122ad565b6080604051808303816000875af11580156118f7573d6000803e3d6000fd5b505050506040513d601f19601f8201168201806040525081019061191b9190612ebc565b9050919050565b600073ffffffffffffffffffffffffffffffffffffffff168173ffffffffffffffffffffffffffffffffffffffff160361195b57600080fd5b80600760006101000a81548173ffffffffffffffffffffffffffffffffffffffff021916908373ffffffffffffffffffffffffffffffffffffffff16021790555050565b6000600760009054906101000a900473ffffffffffffffffffffffffffffffffffffffff1673ffffffffffffffffffffffffffffffffffffffff1663d27fbe47836040518263ffffffff1660e01b81526004016119fc91906122ad565b6020604051808303816000875af1158015611a1b573d6000803e3d6000fd5b505050506040513d601f19601f82011682018060405250810190611a3f9190612a23565b9050919050565b600073ffffffffffffffffffffffffffffffffffffffff168173ffffffffffffffffffffffffffffffffffffffff1603611a7f57600080fd5b80600860006101000a81548173ffffffffffffffffffffffffffffffffffffffff021916908373ffffffffffffffffffffffffffffffffffffffff16021790555050565b611acb611d4f565b600760009054906101000a900473ffffffffffffffffffffffffffffffffffffffff1673ffffffffffffffffffffffffffffffffffffffff1663db15b787836040518263ffffffff1660e01b8152600401611b2691906122ad565b610100604051808303816000875af1158015611b46573d6000803e3d6000fd5b505050506040513d601f19601f82011682018060405250810190611b6a9190613006565b9050919050565b600660009054906101000a900473ffffffffffffffffffffffffffffffffffffffff1673ffffffffffffffffffffffffffffffffffffffff1663ddf4732c888888888888886040518863ffffffff1660e01b8152600401611bd89796959493929190613034565b600060405180830381600087803b158015611bf257600080fd5b505af1158015611c06573d6000803e3d6000fd5b5050505050505050505050565b611c1b611dc0565b600860009054906101000a900473ffffffffffffffffffffffffffffffffffffffff1673ffffffffffffffffffffffffffffffffffffffff1663ef1a5668836040518263ffffffff1660e01b8152600401611c7691906122ad565b6000604051808303816000875af1158015611c95573d6000803e3d6000fd5b505050506040513d6000823e3d601f19601f82011682018060405250810190611cbe9190613167565b9050919050565b6040518061012001604052806000815260200160008152602001606081526020016000815260200160608152602001606081526020016060815260200160008152602001600073ffffffffffffffffffffffffffffffffffffffff1681525090565b6040518060800160405280600081526020016000815260200160008152602001600081525090565b6040518061010001604052806000815260200160008152602001600073ffffffffffffffffffffffffffffffffffffffff16815260200160008152602001600081526020016000815260200160008152602001600073ffffffffffffffffffffffffffffffffffffffff1681525090565b6040518060a0016040528060008152602001600081526020016060815260200160008152602001600073ffffffffffffffffffffffffffffffffffffffff1681525090565b600081519050919050565b600082825260208201905092915050565b60005b83811015611e3f578082015181840152602081019050611e24565b83811115611e4e576000848401525b50505050565b6000601f19601f8301169050919050565b6000611e7082611e05565b611e7a8185611e10565b9350611e8a818560208601611e21565b611e9381611e54565b840191505092915050565b60006020820190508181036000830152611eb88184611e65565b905092915050565b6000604051905090565b600080fd5b600080fd5b6000819050919050565b611ee781611ed4565b8114611ef257600080fd5b50565b600081359050611f0481611ede565b92915050565b600073ffffffffffffffffffffffffffffffffffffffff82169050919050565b6000611f3582611f0a565b9050919050565b611f4581611f2a565b8114611f5057600080fd5b50565b600081359050611f6281611f3c565b92915050565b60008060008060008060c08789031215611f8557611f84611eca565b5b6000611f9389828a01611ef5565b9650506020611fa489828a01611f53565b9550506040611fb589828a01611ef5565b9450506060611fc689828a01611ef5565b9350506080611fd789828a01611ef5565b92505060a0611fe889828a01611f53565b9150509295509295509295565b60006020828403121561200b5761200a611eca565b5b600061201984828501611ef5565b91505092915050565b60008115159050919050565b61203781612022565b82525050565b6000602082019050612052600083018461202e565b92915050565b600080600080600060a0868803121561207457612073611eca565b5b600061208288828901611ef5565b955050602061209388828901611ef5565b94505060406120a488828901611ef5565b93505060606120b588828901611ef5565b92505060806120c688828901611f53565b9150509295509295909350565b6120dc81611ed4565b82525050565b600082825260208201905092915050565b60006120fe82611e05565b61210881856120e2565b9350612118818560208601611e21565b61212181611e54565b840191505092915050565b61213581611f2a565b82525050565b60006101208301600083015161215460008601826120d3565b50602083015161216760208601826120d3565b506040830151848203604086015261217f82826120f3565b915050606083015161219460608601826120d3565b50608083015184820360808601526121ac82826120f3565b91505060a083015184820360a08601526121c682826120f3565b91505060c083015184820360c08601526121e082826120f3565b91505060e08301516121f560e08601826120d3565b5061010083015161220a61010086018261212c565b508091505092915050565b6000602082019050818103600083015261222f818461213b565b905092915050565b6000806000806080858703121561225157612250611eca565b5b600061225f87828801611ef5565b945050602061227087828801611ef5565b935050604061228187828801611ef5565b925050606061229287828801611f53565b91505092959194509250565b6122a781611ed4565b82525050565b60006020820190506122c2600083018461229e565b92915050565b60006122d382611f0a565b9050919050565b6122e3816122c8565b81146122ee57600080fd5b50565b600081359050612300816122da565b92915050565b60006020828403121561231c5761231b611eca565b5b600061232a848285016122f1565b91505092915050565b600080fd5b600080fd5b7f4e487b7100000000000000000000000000000000000000000000000000000000600052604160045260246000fd5b61237582611e54565b810181811067ffffffffffffffff821117156123945761239361233d565b5b80604052505050565b60006123a7611ec0565b90506123b3828261236c565b919050565b600067ffffffffffffffff8211156123d3576123d261233d565b5b6123dc82611e54565b9050602081019050919050565b82818337600083830152505050565b600061240b612406846123b8565b61239d565b90508281526020810184848401111561242757612426612338565b5b6124328482856123e9565b509392505050565b600082601f83011261244f5761244e612333565b5b813561245f8482602086016123f8565b91505092915050565b60008060006060848603121561248157612480611eca565b5b600061248f86828701611ef5565b935050602084013567ffffffffffffffff8111156124b0576124af611ecf565b5b6124bc8682870161243a565b92505060406124cd86828701611f53565b9150509250925092565b60008060008060008060c087890312156124f4576124f3611eca565b5b600087013567ffffffffffffffff81111561251257612511611ecf565b5b61251e89828a0161243a565b965050602061252f89828a01611ef5565b955050604087013567ffffffffffffffff8111156125505761254f611ecf565b5b61255c89828a0161243a565b945050606087013567ffffffffffffffff81111561257d5761257c611ecf565b5b61258989828a0161243a565b935050608087013567ffffffffffffffff8111156125aa576125a9611ecf565b5b6125b689828a0161243a565b92505060a06125c789828a01611f53565b9150509295509295509295565b600080600080600060a086880312156125f0576125ef611eca565b5b60006125fe88828901611f53565b955050602061260f88828901611ef5565b945050604061262088828901611ef5565b935050606061263188828901611ef5565b925050608061264288828901611f53565b9150509295509295909350565b60808201600082015161266560008501826120d3565b50602082015161267860208501826120d3565b50604082015161268b60408501826120d3565b50606082015161269e60608501826120d3565b50505050565b60006080820190506126b9600083018461264f565b92915050565b610100820160008201516126d660008501826120d3565b5060208201516126e960208501826120d3565b5060408201516126fc604085018261212c565b50606082015161270f60608501826120d3565b50608082015161272260808501826120d3565b5060a082015161273560a08501826120d3565b5060c082015161274860c08501826120d3565b5060e082015161275b60e085018261212c565b50505050565b60006101008201905061277760008301846126bf565b92915050565b600080600080600080600060e0888a03121561279c5761279b611eca565b5b60006127aa8a828b01611ef5565b975050602088013567ffffffffffffffff8111156127cb576127ca611ecf565b5b6127d78a828b0161243a565b96505060406127e88a828b01611ef5565b955050606088013567ffffffffffffffff81111561280957612808611ecf565b5b6128158a828b0161243a565b945050608088013567ffffffffffffffff81111561283657612835611ecf565b5b6128428a828b0161243a565b93505060a088013567ffffffffffffffff81111561286357612862611ecf565b5b61286f8a828b0161243a565b92505060c06128808a828b01611f53565b91505092959891949750929550565b600060a0830160008301516128a760008601826120d3565b5060208301516128ba60208601826120d3565b50604083015184820360408601526128d282826120f3565b91505060608301516128e760608601826120d3565b5060808301516128fa608086018261212c565b508091505092915050565b6000602082019050818103600083015261291f818461288f565b905092915050565b7f4e487b7100000000000000000000000000000000000000000000000000000000600052602260045260246000fd5b6000600282049050600182168061296e57607f821691505b60208210810361298157612980612927565b5b50919050565b61299081611f2a565b82525050565b600060c0820190506129ab600083018961229e565b6129b86020830188612987565b6129c5604083018761229e565b6129d2606083018661229e565b6129df608083018561229e565b6129ec60a0830184612987565b979650505050505050565b612a0081612022565b8114612a0b57600080fd5b50565b600081519050612a1d816129f7565b92915050565b600060208284031215612a3957612a38611eca565b5b6000612a4784828501612a0e565b91505092915050565b600060a082019050612a65600083018861229e565b612a72602083018761229e565b612a7f604083018661229e565b612a8c606083018561229e565b612a996080830184612987565b9695505050505050565b6000606082019050612ab8600083018661229e565b612ac5602083018561229e565b612ad26040830184612987565b949350505050565b600080fd5b600080fd5b600081519050612af381611ede565b92915050565b6000612b0c612b07846123b8565b61239d565b905082815260208101848484011115612b2857612b27612338565b5b612b33848285611e21565b509392505050565b600082601f830112612b5057612b4f612333565b5b8151612b60848260208601612af9565b91505092915050565b600081519050612b7881611f3c565b92915050565b60006101208284031215612b9557612b94612ada565b5b612ba061012061239d565b90506000612bb084828501612ae4565b6000830152506020612bc484828501612ae4565b602083015250604082015167ffffffffffffffff811115612be857612be7612adf565b5b612bf484828501612b3b565b6040830152506060612c0884828501612ae4565b606083015250608082015167ffffffffffffffff811115612c2c57612c2b612adf565b5b612c3884828501612b3b565b60808301525060a082015167ffffffffffffffff811115612c5c57612c5b612adf565b5b612c6884828501612b3b565b60a08301525060c082015167ffffffffffffffff811115612c8c57612c8b612adf565b5b612c9884828501612b3b565b60c08301525060e0612cac84828501612ae4565b60e083015250610100612cc184828501612b69565b6101008301525092915050565b600060208284031215612ce457612ce3611eca565b5b600082015167ffffffffffffffff811115612d0257612d01611ecf565b5b612d0e84828501612b7e565b91505092915050565b6000608082019050612d2c600083018761229e565b612d39602083018661229e565b612d46604083018561229e565b612d536060830184612987565b95945050505050565b600060208284031215612d7257612d71611eca565b5b6000612d8084828501612ae4565b91505092915050565b6000606082019050612d9e600083018661229e565b8181036020830152612db08185611e65565b9050612dbf6040830184612987565b949350505050565b600060c0820190508181036000830152612de18189611e65565b9050612df0602083018861229e565b8181036040830152612e028187611e65565b90508181036060830152612e168186611e65565b90508181036080830152612e2a8185611e65565b9050612e3960a0830184612987565b979650505050505050565b600060808284031215612e5a57612e59612ada565b5b612e64608061239d565b90506000612e7484828501612ae4565b6000830152506020612e8884828501612ae4565b6020830152506040612e9c84828501612ae4565b6040830152506060612eb084828501612ae4565b60608301525092915050565b600060808284031215612ed257612ed1611eca565b5b6000612ee084828501612e44565b91505092915050565b600060a082019050612efe6000830188612987565b612f0b602083018761229e565b612f18604083018661229e565b612f25606083018561229e565b612f326080830184612987565b9695505050505050565b60006101008284031215612f5357612f52612ada565b5b612f5e61010061239d565b90506000612f6e84828501612ae4565b6000830152506020612f8284828501612ae4565b6020830152506040612f9684828501612b69565b6040830152506060612faa84828501612ae4565b6060830152506080612fbe84828501612ae4565b60808301525060a0612fd284828501612ae4565b60a08301525060c0612fe684828501612ae4565b60c08301525060e0612ffa84828501612b69565b60e08301525092915050565b6000610100828403121561301d5761301c611eca565b5b600061302b84828501612f3c565b91505092915050565b600060e082019050613049600083018a61229e565b818103602083015261305b8189611e65565b905061306a604083018861229e565b818103606083015261307c8187611e65565b905081810360808301526130908186611e65565b905081810360a08301526130a48185611e65565b90506130b360c0830184612987565b98975050505050505050565b600060a082840312156130d5576130d4612ada565b5b6130df60a061239d565b905060006130ef84828501612ae4565b600083015250602061310384828501612ae4565b602083015250604082015167ffffffffffffffff81111561312757613126612adf565b5b61313384828501612b3b565b604083015250606061314784828501612ae4565b606083015250608061315b84828501612b69565b60808301525092915050565b60006020828403121561317d5761317c611eca565b5b600082015167ffffffffffffffff81111561319b5761319a611ecf565b5b6131a7848285016130bf565b9150509291505056fea2646970667358221220b3e6b2ac4925af3933cde91af9c21aad6b02d414f176bcb47803a9f15e94537764736f6c634300080e0033",
  "immutableReferences": {},
  "source": "// SPDX-License-Identifier: MIT\r\npragma solidity ^0.8.14;\r\n\r\n// A. Documentation Contract\r\ninterface IDocumentation {\r\n    struct DocumentationObject {\r\n        uint256 documentationID;\r\n        uint256 antiqueID;\r\n        string filehash;\r\n        uint256 fileSize;\r\n        string fileType;\r\n        string fileName;\r\n        string fileDescription;\r\n        uint256 uploadTime;\r\n        address payable uploader;\r\n    }\r\n\r\n    function AddDocumentation(\r\n        string memory _fileHash,\r\n        uint256 _fileSize,\r\n        string memory _fileType,\r\n        string memory _fileName,\r\n        string memory _fileDescription,\r\n        address payable _uploader\r\n    ) external returns (uint256);\r\n\r\n    function UpdateDocumentation(\r\n        uint256 _documentationID,\r\n        string memory _fileHash,\r\n        uint256 _fileSize,\r\n        string memory _fileType,\r\n        string memory _fileName,\r\n        string memory _fileDescription,\r\n        address payable _uploader\r\n    ) external;\r\n\r\n    function ValidateDocumentationID(uint256 _documentationID)\r\n        external\r\n        returns (bool);\r\n\r\n    function SetAntiqueIDByDocumentationID(\r\n        uint256 _documentationID,\r\n        uint256 _antiqueID,\r\n        address payable _uploader\r\n    ) external;\r\n\r\n    function GetDocumentationByID(uint256 _documentationID)\r\n        external\r\n        returns (DocumentationObject memory);\r\n}\r\n\r\n//B. Verification Contract\r\ninterface IVerification {\r\n    struct VerificateionObject {\r\n        uint256 verificationID;\r\n        uint256 antiqueID;\r\n        address payable ownerAddress;\r\n        uint256 ownerID;\r\n        uint256 personVerificationID;\r\n        uint256 ioTDeviceID;\r\n        uint256 uploadTime;\r\n        address payable uploader;\r\n        //Need More Information: QR Code..\r\n    }\r\n\r\n    function AddVerification(\r\n        address payable _ownerAddress,\r\n        uint256 _ownerID,\r\n        uint256 _personVerificationID,\r\n        uint256 _ioTDeviceID,\r\n        address payable _uploader\r\n    ) external returns (uint256);\r\n\r\n    function UpdateVerification(\r\n        uint256 _verificationID,\r\n        address payable _newOwnerAddress,\r\n        uint256 _newOwnerID,\r\n        uint256 _newPersonVerificationID,\r\n        uint256 _newIoTDeviceID,\r\n        address payable _uploader\r\n    ) external;\r\n\r\n    function ValidateVerificationID(uint256 _verificationID)\r\n        external\r\n        returns (bool);\r\n\r\n    function SetAntiqueIDByVerificationID(\r\n        uint256 _verificationID,\r\n        uint256 _antiqueID,\r\n        address payable _uploader\r\n    ) external;\r\n\r\n    function GetVerificationByID(uint256 _verificationID)\r\n        external\r\n        returns (VerificateionObject memory);\r\n}\r\n\r\n//C. Description Contract\r\n\r\ninterface IDescription {\r\n    struct DescriptionObject {\r\n        uint256 descriptionID;\r\n        uint256 antiqueObjectID;\r\n        string materialCreated;\r\n        uint256 uploadTime;\r\n        address payable uploader;\r\n    }\r\n\r\n    function AddDescription(\r\n        uint256 _antiqueObjectID,\r\n        string memory _materialCreated,\r\n        address payable _uploader\r\n    ) external returns (uint256);\r\n\r\n    function UpdateDescriptionMaterials(\r\n        uint256 _descriptionID,\r\n        string memory _newMaterialCreated,\r\n        address payable _uploader\r\n    ) external;\r\n\r\n    function ValidateDescriptionID(uint256 _descriptionID)\r\n        external\r\n        returns (bool);\r\n\r\n    function SetAntiqueIDByDescriptionID(\r\n        uint256 _descriptionID,\r\n        uint256 _antiqueID,\r\n        address payable _uploader\r\n    ) external;\r\n\r\n    function GetDescriptionByID(uint256 _descriptionID)\r\n        external\r\n        returns (DescriptionObject memory);\r\n}\r\n\r\n// D. Antique Contract\r\ninterface IAntique {\r\n    struct AntiqueObject {\r\n        uint256 antiqueID;\r\n        uint256 documentationID;\r\n        uint256 verificationID;\r\n        uint256 descriptionID;\r\n    }\r\n\r\n    function AddAntique(\r\n        uint256 _documentationID,\r\n        uint256 _verificationID,\r\n        uint256 _descriptionID,\r\n        address payable _uploader\r\n    ) external returns (uint256);\r\n\r\n    function UpdateAntique(\r\n        uint256 _antiqueID,\r\n        uint256 _documentationID,\r\n        uint256 _verificationID,\r\n        uint256 _descriptionID,\r\n        address payable _uploader\r\n    ) external;\r\n\r\n    function ValidateAntiqueID(uint256 _antiqueID) external returns (bool);\r\n\r\n    function GetAntiqueByID(uint256 _antiqueID)\r\n        external\r\n        returns (AntiqueObject memory);\r\n}\r\n\r\ncontract DatabaseController {\r\n    string public name = \"DatabaseController\";\r\n    address antiqueContractAddress;\r\n    address descriptionContractAddress;\r\n    address documentationContractAddress;\r\n    address verificationContractAddress;\r\n    uint256 antiqueCount = 0;\r\n\r\n    IDocumentation documentationContract;\r\n    IVerification verificationContract;\r\n    IDescription descriptionContract;\r\n    IAntique antiqueContract;\r\n\r\n    function setAntiqueContractAddress(address _antiqueContractAddress)\r\n        public\r\n        payable\r\n    {\r\n        require(_antiqueContractAddress != address(0));\r\n        antiqueContract = IAntique(_antiqueContractAddress);\r\n    }\r\n\r\n    function setDocumentationContractAddress (address _documentationContractAddress)\r\n    public payable\r\n    {\r\n        require (_documentationContractAddress != address(0));\r\n        documentationContract = IDocumentation(_documentationContractAddress);\r\n    }\r\n\r\n    function setVerificationContractAddress (address _verificationContractAddress)\r\n    public payable\r\n    {\r\n        require (_verificationContractAddress != address(0));\r\n        verificationContract = IVerification(_verificationContractAddress);\r\n    }\r\n\r\n    function setDescriptionContractAddress(address _descriptionContractAddress)\r\n    public payable\r\n    {\r\n        require (_descriptionContractAddress != address(0));\r\n        descriptionContract = IDescription(_descriptionContractAddress);\r\n    }\r\n\r\n\r\n    // constructor(\r\n    //     address _antiqueContractAddress,\r\n    //     address _descriptionContractAddress,\r\n    //     address _documentationContractAddress,\r\n    //     address _verificationContractAddress)\r\n    // {\r\n    //    //Check Parameters\r\n    //     require(_antiqueContractAddress != address(0));\r\n    //     require(_descriptionContractAddress != address(0));\r\n    //     require(_documentationContractAddress != address(0));\r\n    //     require(_verificationContractAddress != address(0));\r\n\r\n    //     //Set the Address For Contracts\r\n    //     documentationContract = IDocumentation(_documentationContractAddress);\r\n    //     verificationContract = IVerification(_verificationContractAddress);\r\n    //     descriptionContract = IDescription(_descriptionContractAddress);\r\n    //     antiqueContract = IAntique(_antiqueContractAddress);\r\n\r\n    //     name = \"DatabaseController\";\r\n    // }\r\n\r\n    //A. Verification Functions\r\n\r\n    //1. Add Verification Function\r\n    function AddVerification(\r\n        address payable _ownerAddress,\r\n        uint256 _ownerID,\r\n        uint256 _personVerificationID,\r\n        uint256 _ioTDeviceID,\r\n        address payable _uploader\r\n    ) external returns (uint256) {\r\n        return\r\n            verificationContract.AddVerification(\r\n                payable(_ownerAddress),\r\n                _ownerID,\r\n                _personVerificationID,\r\n                _ioTDeviceID,\r\n                _uploader\r\n            );\r\n    }\r\n\r\n    //2. Update Verification Function\r\n    function UpdateVerification(\r\n        uint256 _verificationID,\r\n        address payable _newOwnerAddress,\r\n        uint256 _newOwnerID,\r\n        uint256 _newPersonVerificationID,\r\n        uint256 _newIoTDeviceID,\r\n        address payable _uploader\r\n    ) external {\r\n        verificationContract.UpdateVerification(\r\n            _verificationID,\r\n            _newOwnerAddress,\r\n            _newOwnerID,\r\n            _newPersonVerificationID,\r\n            _newIoTDeviceID,\r\n            _uploader\r\n        );\r\n    }\r\n\r\n    //3. Validate Verification ID\r\n    function ValidateVerificationID(uint256 _verificationID)\r\n        external\r\n        returns (bool)\r\n    {\r\n        return verificationContract.ValidateVerificationID(_verificationID);\r\n    }\r\n\r\n    //4. Get Verification By ID\r\n    function GetVerificationByID(uint256 _verificationID)\r\n        external\r\n        returns (IVerification.VerificateionObject memory)\r\n    {\r\n        return verificationContract.GetVerificationByID(_verificationID);\r\n    }\r\n\r\n    // B. Description Contract\r\n\r\n    //1. Add Description Function\r\n    function AddDescription(\r\n        uint256 _antiqueObjectID,\r\n        string memory _materialCreated,\r\n        address payable _uploader\r\n    ) external returns (uint256) {\r\n        return\r\n            descriptionContract.AddDescription(\r\n                _antiqueObjectID,\r\n                _materialCreated,\r\n                _uploader\r\n            );\r\n    }\r\n\r\n    //2. Update Description Function\r\n    function UpdateDescriptionMaterials(\r\n        uint256 _descriptionID,\r\n        string memory _newMaterialCreated,\r\n        address payable _uploader\r\n    ) external {\r\n        descriptionContract.UpdateDescriptionMaterials(\r\n            _descriptionID,\r\n            _newMaterialCreated,\r\n            _uploader\r\n        );\r\n    }\r\n\r\n    //3. Validate Description ID\r\n    function ValidateDescriptionID(uint256 _descriptionID)\r\n        external\r\n        returns (bool)\r\n    {\r\n        return descriptionContract.ValidateDescriptionID(_descriptionID);\r\n    }\r\n\r\n    //4. Get Description By Description ID\r\n    function GetDescriptionByID(uint256 _descriptionID)\r\n        external\r\n        returns (IDescription.DescriptionObject memory)\r\n    {\r\n        return descriptionContract.GetDescriptionByID(_descriptionID);\r\n    }\r\n\r\n    //C. Documentation Contract\r\n    //Return Unit256 ID - ID for Created Documentation\r\n\r\n    //1. Add Documentation\r\n    function AddDocumentation(\r\n        string memory _fileHash,\r\n        uint256 _fileSize,\r\n        string memory _fileType,\r\n        string memory _fileName,\r\n        string memory _fileDescription,\r\n        address payable _uploader\r\n    ) external returns (uint256) {\r\n        return\r\n            documentationContract.AddDocumentation(\r\n                _fileHash,\r\n                _fileSize,\r\n                _fileType,\r\n                _fileName,\r\n                _fileDescription,\r\n                _uploader\r\n            );\r\n    }\r\n\r\n    //2. Update Documentation\r\n    function UpdateDocumentation(\r\n        uint256 _documentationID,\r\n        string memory _fileHash,\r\n        uint256 _fileSize,\r\n        string memory _fileType,\r\n        string memory _fileName,\r\n        string memory _fileDescription,\r\n        address payable _uploader\r\n    ) external {\r\n        documentationContract.UpdateDocumentation(\r\n            _documentationID,\r\n            _fileHash,\r\n            _fileSize,\r\n            _fileType,\r\n            _fileName,\r\n            _fileDescription,\r\n            _uploader\r\n        );\r\n    }\r\n\r\n    //3. Validate Documentation\r\n    function ValidateDocumentationID(uint256 _documentationID)\r\n        external\r\n        returns (bool)\r\n    {\r\n        return documentationContract.ValidateDocumentationID(_documentationID);\r\n    }\r\n\r\n    //4. Get Documentation By ID\r\n    function GetDocumentationByID(uint256 _documentationID)\r\n        external\r\n        returns (IDocumentation.DocumentationObject memory)\r\n    {\r\n        return documentationContract.GetDocumentationByID(_documentationID);\r\n    }\r\n\r\n    // D.Antique Contract\r\n    // 1. Add Antique Object\r\n    function AddAntique(\r\n        uint256 _documentationID,\r\n        uint256 _verificationID,\r\n        uint256 _descriptionID,\r\n        address payable _uploader\r\n    ) external returns (uint256) {\r\n        //Check Parameters\r\n        require(\r\n            documentationContract.ValidateDocumentationID(_documentationID) ==\r\n                true\r\n        );\r\n        require(\r\n            verificationContract.ValidateVerificationID(_verificationID) == true\r\n        );\r\n        require(\r\n            descriptionContract.ValidateDescriptionID(_descriptionID) == true\r\n        );\r\n\r\n        // Create A New Antique Object\r\n        uint256 _antiqueID = antiqueContract.AddAntique(\r\n            _documentationID,\r\n            _verificationID,\r\n            _descriptionID,\r\n            _uploader\r\n        );\r\n\r\n        // Set Antique ID In Verification Object, Documentation Object and Description Object\r\n        documentationContract.SetAntiqueIDByDocumentationID(\r\n            _documentationID,\r\n            _antiqueID,\r\n            _uploader\r\n        );\r\n        verificationContract.SetAntiqueIDByVerificationID(\r\n            _verificationID,\r\n            _antiqueID,\r\n            _uploader\r\n        );\r\n        descriptionContract.SetAntiqueIDByDescriptionID(\r\n            _descriptionID,\r\n            _antiqueID,\r\n            _uploader\r\n        );\r\n        return _antiqueID;\r\n    }\r\n\r\n    //2. Update Antique Object\r\n    function UpdateAntique(\r\n        uint256 _antiqueID,\r\n        uint256 _documentationID,\r\n        uint256 _verificationID,\r\n        uint256 _descriptionID,\r\n        address payable _uploader\r\n    ) external {\r\n        //Check Parameters\r\n\r\n        require(\r\n            documentationContract.ValidateDocumentationID(_documentationID) ==\r\n                true\r\n        );\r\n        require(\r\n            verificationContract.ValidateVerificationID(_verificationID) == true\r\n        );\r\n        require(\r\n            descriptionContract.ValidateDescriptionID(_descriptionID) == true\r\n        );\r\n\r\n        //Update Antique Object Data\r\n        require(ValidateAntiqueID(_antiqueID) == true);\r\n        antiqueContract.UpdateAntique(\r\n            _antiqueID,\r\n            _documentationID,\r\n            _verificationID,\r\n            _descriptionID,\r\n            _uploader\r\n        );\r\n\r\n        //Update Description, Verification and Documentation Data\r\n        documentationContract.SetAntiqueIDByDocumentationID(\r\n            _documentationID,\r\n            _antiqueID,\r\n            _uploader\r\n        );\r\n        verificationContract.SetAntiqueIDByVerificationID(\r\n            _verificationID,\r\n            _antiqueID,\r\n            _uploader\r\n        );\r\n        descriptionContract.SetAntiqueIDByDescriptionID(\r\n            _descriptionID,\r\n            _antiqueID,\r\n            _uploader\r\n        );\r\n    }\r\n\r\n    //3. Validate Antique Object ID\r\n    function ValidateAntiqueID(uint256 _antiqueID) public returns (bool) {\r\n        if (antiqueContract.ValidateAntiqueID(_antiqueID) == true) {\r\n            IAntique.AntiqueObject memory _antiqueData = antiqueContract\r\n                .GetAntiqueByID(_antiqueID);\r\n            if (\r\n                descriptionContract.ValidateDescriptionID(\r\n                    _antiqueData.descriptionID\r\n                ) ==\r\n                true &&\r\n                verificationContract.ValidateVerificationID(\r\n                    _antiqueData.verificationID\r\n                ) ==\r\n                true &&\r\n                documentationContract.ValidateDocumentationID(\r\n                    _antiqueData.documentationID\r\n                ) ==\r\n                true\r\n            ) {\r\n                return true;\r\n            }\r\n        }\r\n        return false;\r\n    }\r\n\r\n    //4. Get Antique By ID\r\n    function GetAntiqueByID(uint256 _antiqueID)\r\n        public\r\n        returns (IAntique.AntiqueObject memory)\r\n    {\r\n        return antiqueContract.GetAntiqueByID(_antiqueID);\r\n    }\r\n}\r\n",
  "sourcePath": "C:\\Users\\Natha\\OneDrive - The University of Sydney (Students)\\University of Sydney Materials\\Studying\\Year 5\\Semester 1\\Thesis B\\Thesis B Project Code\\truffle\\contracts\\DatabaseController.sol",
  "compiler": {
    "name": "solc",
    "version": "0.8.14+commit.80d49f37.Emscripten.clang"
  },
  "schemaVersion": "3.4.11",
  "updatedAt": "2023-01-27T13:30:24.629Z",
  "networkType": "ethereum",
  "devdoc": {
    "kind": "dev",
    "methods": {},
    "version": 1
  },
  "userdoc": {
    "kind": "user",
    "methods": {},
    "version": 1
  }
}