{
  "contractName": "DatabaseController",
  "abi": [
    {
      "inputs": [],
      "name": "name",
      "outputs": [
        {
          "internalType": "string",
          "name": "",
          "type": "string"
        }
      ],
      "stateMutability": "view",
      "type": "function",
      "constant": true
    },
    {
      "inputs": [
        {
          "internalType": "address",
          "name": "_antiqueContractAddress",
          "type": "address"
        }
      ],
      "name": "setAntiqueContractAddress",
      "outputs": [],
      "stateMutability": "payable",
      "type": "function",
      "payable": true
    },
    {
      "inputs": [
        {
          "internalType": "address",
          "name": "_documentationContractAddress",
          "type": "address"
        }
      ],
      "name": "setDocumentationContractAddress",
      "outputs": [],
      "stateMutability": "payable",
      "type": "function",
      "payable": true
    },
    {
      "inputs": [
        {
          "internalType": "address",
          "name": "_verificationContractAddress",
          "type": "address"
        }
      ],
      "name": "setVerificationContractAddress",
      "outputs": [],
      "stateMutability": "payable",
      "type": "function",
      "payable": true
    },
    {
      "inputs": [
        {
          "internalType": "address",
          "name": "_descriptionContractAddress",
          "type": "address"
        }
      ],
      "name": "setDescriptionContractAddress",
      "outputs": [],
      "stateMutability": "payable",
      "type": "function",
      "payable": true
    },
    {
      "inputs": [
        {
          "internalType": "address payable",
          "name": "_ownerAddress",
          "type": "address"
        },
        {
          "internalType": "uint256",
          "name": "_ownerID",
          "type": "uint256"
        },
        {
          "internalType": "string",
          "name": "_appraiserUsername",
          "type": "string"
        },
        {
          "internalType": "uint256",
          "name": "_ioTDeviceID",
          "type": "uint256"
        },
        {
          "internalType": "string",
          "name": "_estimateManufactureYears",
          "type": "string"
        },
        {
          "internalType": "string",
          "name": "_antiqueRareness",
          "type": "string"
        },
        {
          "internalType": "string",
          "name": "_antiqueAuthenticity",
          "type": "string"
        },
        {
          "internalType": "string",
          "name": "_antiqueRealness",
          "type": "string"
        },
        {
          "internalType": "address payable",
          "name": "_uploader",
          "type": "address"
        }
      ],
      "name": "AddVerification",
      "outputs": [
        {
          "internalType": "uint256",
          "name": "",
          "type": "uint256"
        }
      ],
      "stateMutability": "nonpayable",
      "type": "function"
    },
    {
      "inputs": [
        {
          "internalType": "uint256",
          "name": "_verificationID",
          "type": "uint256"
        },
        {
          "internalType": "address payable",
          "name": "_newOwnerAddress",
          "type": "address"
        },
        {
          "internalType": "uint256",
          "name": "_newOwnerID",
          "type": "uint256"
        },
        {
          "internalType": "string",
          "name": "_appraiserUsername",
          "type": "string"
        },
        {
          "internalType": "uint256",
          "name": "_newIoTDeviceID",
          "type": "uint256"
        },
        {
          "internalType": "string",
          "name": "_newEstimateManufactureYears",
          "type": "string"
        },
        {
          "internalType": "string",
          "name": "_newAntiqueRareness",
          "type": "string"
        },
        {
          "internalType": "string",
          "name": "_newAntiqueAuthenticity",
          "type": "string"
        },
        {
          "internalType": "string",
          "name": "_newAntiqueRealness",
          "type": "string"
        },
        {
          "internalType": "address payable",
          "name": "_uploader",
          "type": "address"
        }
      ],
      "name": "UpdateVerification",
      "outputs": [],
      "stateMutability": "nonpayable",
      "type": "function"
    },
    {
      "inputs": [
        {
          "internalType": "uint256",
          "name": "_verificationID",
          "type": "uint256"
        }
      ],
      "name": "ValidateVerificationID",
      "outputs": [
        {
          "internalType": "bool",
          "name": "",
          "type": "bool"
        }
      ],
      "stateMutability": "nonpayable",
      "type": "function"
    },
    {
      "inputs": [
        {
          "internalType": "uint256",
          "name": "_verificationID",
          "type": "uint256"
        }
      ],
      "name": "GetVerificationByID",
      "outputs": [
        {
          "components": [
            {
              "internalType": "uint256",
              "name": "verificationID",
              "type": "uint256"
            },
            {
              "internalType": "uint256",
              "name": "antiqueID",
              "type": "uint256"
            },
            {
              "internalType": "address payable",
              "name": "ownerAddress",
              "type": "address"
            },
            {
              "internalType": "uint256",
              "name": "ownerID",
              "type": "uint256"
            },
            {
              "internalType": "string",
              "name": "appraiserUsername",
              "type": "string"
            },
            {
              "internalType": "uint256",
              "name": "ioTDeviceID",
              "type": "uint256"
            },
            {
              "internalType": "string",
              "name": "estimateManufactureYears",
              "type": "string"
            },
            {
              "internalType": "string",
              "name": "antiqueRareness",
              "type": "string"
            },
            {
              "internalType": "string",
              "name": "antiqueAuthenticity",
              "type": "string"
            },
            {
              "internalType": "string",
              "name": "antiqueRealness",
              "type": "string"
            },
            {
              "internalType": "uint256",
              "name": "uploadTime",
              "type": "uint256"
            },
            {
              "internalType": "address payable",
              "name": "uploader",
              "type": "address"
            }
          ],
          "internalType": "struct IVerification.VerificateionObject",
          "name": "",
          "type": "tuple"
        }
      ],
      "stateMutability": "nonpayable",
      "type": "function"
    },
    {
      "inputs": [
        {
          "internalType": "uint256",
          "name": "_antiqueObjectID",
          "type": "uint256"
        },
        {
          "internalType": "string",
          "name": "_materialCreated",
          "type": "string"
        },
        {
          "internalType": "uint256",
          "name": "_antiqueHeight",
          "type": "uint256"
        },
        {
          "internalType": "uint256",
          "name": "_antiqueLength",
          "type": "uint256"
        },
        {
          "internalType": "uint256",
          "name": "_anitqueWidth",
          "type": "uint256"
        },
        {
          "internalType": "string",
          "name": "_filehash",
          "type": "string"
        },
        {
          "internalType": "uint256",
          "name": "_fileSize",
          "type": "uint256"
        },
        {
          "internalType": "string",
          "name": "_fileType",
          "type": "string"
        },
        {
          "internalType": "string",
          "name": "_fileName",
          "type": "string"
        },
        {
          "internalType": "address payable",
          "name": "_uploader",
          "type": "address"
        }
      ],
      "name": "AddDescription",
      "outputs": [
        {
          "internalType": "uint256",
          "name": "",
          "type": "uint256"
        }
      ],
      "stateMutability": "nonpayable",
      "type": "function"
    },
    {
      "inputs": [
        {
          "internalType": "uint256",
          "name": "_descriptionID",
          "type": "uint256"
        },
        {
          "internalType": "string",
          "name": "_newMaterialCreated",
          "type": "string"
        },
        {
          "internalType": "uint256",
          "name": "_antiqueHeight",
          "type": "uint256"
        },
        {
          "internalType": "uint256",
          "name": "_antiqueLength",
          "type": "uint256"
        },
        {
          "internalType": "uint256",
          "name": "_anitqueWidth",
          "type": "uint256"
        },
        {
          "internalType": "address payable",
          "name": "_uploader",
          "type": "address"
        }
      ],
      "name": "UpdateDescriptionMaterials",
      "outputs": [],
      "stateMutability": "nonpayable",
      "type": "function"
    },
    {
      "inputs": [
        {
          "internalType": "uint256",
          "name": "_descriptionID",
          "type": "uint256"
        },
        {
          "internalType": "string",
          "name": "_filehash",
          "type": "string"
        },
        {
          "internalType": "uint256",
          "name": "_fileSize",
          "type": "uint256"
        },
        {
          "internalType": "string",
          "name": "_fileType",
          "type": "string"
        },
        {
          "internalType": "string",
          "name": "_fileName",
          "type": "string"
        },
        {
          "internalType": "address payable",
          "name": "_uploader",
          "type": "address"
        }
      ],
      "name": "UpdateDescriptionUploadFile",
      "outputs": [],
      "stateMutability": "nonpayable",
      "type": "function"
    },
    {
      "inputs": [
        {
          "internalType": "uint256",
          "name": "_descriptionID",
          "type": "uint256"
        }
      ],
      "name": "ValidateDescriptionID",
      "outputs": [
        {
          "internalType": "bool",
          "name": "",
          "type": "bool"
        }
      ],
      "stateMutability": "nonpayable",
      "type": "function"
    },
    {
      "inputs": [
        {
          "internalType": "uint256",
          "name": "_descriptionID",
          "type": "uint256"
        }
      ],
      "name": "GetDescriptionByID",
      "outputs": [
        {
          "components": [
            {
              "internalType": "uint256",
              "name": "descriptionID",
              "type": "uint256"
            },
            {
              "internalType": "uint256",
              "name": "antiqueID",
              "type": "uint256"
            },
            {
              "internalType": "string",
              "name": "materialCreated",
              "type": "string"
            },
            {
              "internalType": "uint256",
              "name": "antiqueHeight",
              "type": "uint256"
            },
            {
              "internalType": "uint256",
              "name": "antiqueLength",
              "type": "uint256"
            },
            {
              "internalType": "uint256",
              "name": "anitqueWidth",
              "type": "uint256"
            },
            {
              "internalType": "string",
              "name": "filehash",
              "type": "string"
            },
            {
              "internalType": "uint256",
              "name": "fileSize",
              "type": "uint256"
            },
            {
              "internalType": "string",
              "name": "fileType",
              "type": "string"
            },
            {
              "internalType": "string",
              "name": "fileName",
              "type": "string"
            },
            {
              "internalType": "uint256",
              "name": "uploadTime",
              "type": "uint256"
            },
            {
              "internalType": "address payable",
              "name": "uploader",
              "type": "address"
            }
          ],
          "internalType": "struct IDescription.DescriptionObject",
          "name": "",
          "type": "tuple"
        }
      ],
      "stateMutability": "nonpayable",
      "type": "function"
    },
    {
      "inputs": [
        {
          "internalType": "string",
          "name": "_fileHash",
          "type": "string"
        },
        {
          "internalType": "uint256",
          "name": "_fileSize",
          "type": "uint256"
        },
        {
          "internalType": "string",
          "name": "_fileType",
          "type": "string"
        },
        {
          "internalType": "string",
          "name": "_fileName",
          "type": "string"
        },
        {
          "internalType": "string",
          "name": "_fileDescription",
          "type": "string"
        },
        {
          "internalType": "address payable",
          "name": "_uploader",
          "type": "address"
        }
      ],
      "name": "AddDocumentation",
      "outputs": [
        {
          "internalType": "uint256",
          "name": "",
          "type": "uint256"
        }
      ],
      "stateMutability": "nonpayable",
      "type": "function"
    },
    {
      "inputs": [
        {
          "internalType": "uint256",
          "name": "_documentationID",
          "type": "uint256"
        },
        {
          "internalType": "string",
          "name": "_fileHash",
          "type": "string"
        },
        {
          "internalType": "uint256",
          "name": "_fileSize",
          "type": "uint256"
        },
        {
          "internalType": "string",
          "name": "_fileType",
          "type": "string"
        },
        {
          "internalType": "string",
          "name": "_fileName",
          "type": "string"
        },
        {
          "internalType": "string",
          "name": "_fileDescription",
          "type": "string"
        },
        {
          "internalType": "address payable",
          "name": "_uploader",
          "type": "address"
        }
      ],
      "name": "UpdateDocumentation",
      "outputs": [],
      "stateMutability": "nonpayable",
      "type": "function"
    },
    {
      "inputs": [
        {
          "internalType": "uint256",
          "name": "_documentationID",
          "type": "uint256"
        }
      ],
      "name": "ValidateDocumentationID",
      "outputs": [
        {
          "internalType": "bool",
          "name": "",
          "type": "bool"
        }
      ],
      "stateMutability": "nonpayable",
      "type": "function"
    },
    {
      "inputs": [
        {
          "internalType": "uint256",
          "name": "_documentationID",
          "type": "uint256"
        }
      ],
      "name": "GetDocumentationByID",
      "outputs": [
        {
          "components": [
            {
              "internalType": "uint256",
              "name": "documentationID",
              "type": "uint256"
            },
            {
              "internalType": "uint256",
              "name": "antiqueID",
              "type": "uint256"
            },
            {
              "internalType": "string",
              "name": "filehash",
              "type": "string"
            },
            {
              "internalType": "uint256",
              "name": "fileSize",
              "type": "uint256"
            },
            {
              "internalType": "string",
              "name": "fileType",
              "type": "string"
            },
            {
              "internalType": "string",
              "name": "fileName",
              "type": "string"
            },
            {
              "internalType": "string",
              "name": "fileDescription",
              "type": "string"
            },
            {
              "internalType": "uint256",
              "name": "uploadTime",
              "type": "uint256"
            },
            {
              "internalType": "address payable",
              "name": "uploader",
              "type": "address"
            }
          ],
          "internalType": "struct IDocumentation.DocumentationObject",
          "name": "",
          "type": "tuple"
        }
      ],
      "stateMutability": "nonpayable",
      "type": "function"
    },
    {
      "inputs": [
        {
          "internalType": "uint256",
          "name": "_documentationID",
          "type": "uint256"
        },
        {
          "internalType": "uint256",
          "name": "_verificationID",
          "type": "uint256"
        },
        {
          "internalType": "uint256",
          "name": "_descriptionID",
          "type": "uint256"
        },
        {
          "internalType": "address payable",
          "name": "_uploader",
          "type": "address"
        }
      ],
      "name": "AddAntique",
      "outputs": [
        {
          "internalType": "uint256",
          "name": "",
          "type": "uint256"
        }
      ],
      "stateMutability": "nonpayable",
      "type": "function"
    },
    {
      "inputs": [
        {
          "internalType": "uint256",
          "name": "_antiqueID",
          "type": "uint256"
        },
        {
          "internalType": "uint256",
          "name": "_documentationID",
          "type": "uint256"
        },
        {
          "internalType": "uint256",
          "name": "_verificationID",
          "type": "uint256"
        },
        {
          "internalType": "uint256",
          "name": "_descriptionID",
          "type": "uint256"
        },
        {
          "internalType": "address payable",
          "name": "_uploader",
          "type": "address"
        }
      ],
      "name": "UpdateAntique",
      "outputs": [],
      "stateMutability": "nonpayable",
      "type": "function"
    },
    {
      "inputs": [
        {
          "internalType": "uint256",
          "name": "_antiqueID",
          "type": "uint256"
        }
      ],
      "name": "ValidateAntiqueID",
      "outputs": [
        {
          "internalType": "bool",
          "name": "",
          "type": "bool"
        }
      ],
      "stateMutability": "nonpayable",
      "type": "function"
    },
    {
      "inputs": [
        {
          "internalType": "uint256",
          "name": "_antiqueID",
          "type": "uint256"
        }
      ],
      "name": "GetAntiqueByID",
      "outputs": [
        {
          "components": [
            {
              "internalType": "uint256",
              "name": "antiqueID",
              "type": "uint256"
            },
            {
              "internalType": "uint256",
              "name": "documentationID",
              "type": "uint256"
            },
            {
              "internalType": "uint256",
              "name": "verificationID",
              "type": "uint256"
            },
            {
              "internalType": "uint256",
              "name": "descriptionID",
              "type": "uint256"
            }
          ],
          "internalType": "struct IAntique.AntiqueObject",
          "name": "",
          "type": "tuple"
        }
      ],
      "stateMutability": "nonpayable",
      "type": "function"
    }
  ],
  "bytecode": "0x60806040526040518060400160405280601281526020017f4461746162617365436f6e74726f6c6c6572000000000000000000000000000081525060009080519060200190620000519291906200006b565b5060006005553480156200006457600080fd5b506200017f565b82805462000079906200014a565b90600052602060002090601f0160209004810192826200009d5760008555620000e9565b82601f10620000b857805160ff1916838001178555620000e9565b82800160010185558215620000e9579182015b82811115620000e8578251825591602001919060010190620000cb565b5b509050620000f89190620000fc565b5090565b5b8082111562000117576000816000905550600101620000fd565b5090565b7f4e487b7100000000000000000000000000000000000000000000000000000000600052602260045260246000fd5b600060028204905060018216806200016357607f821691505b6020821081036200017957620001786200011b565b5b50919050565b613c97806200018f6000396000f3fe6080604052600436106101355760003560e01c80638c39b67f116100ab578063c42865f21161006f578063c42865f214610445578063d27fbe4714610482578063d89b8f2c146104bf578063db15b787146104db578063ddf4732c14610518578063ef1a56681461054157610135565b80638c39b67f146103495780639b0b536214610386578063a7ccf928146103c3578063b9d7bea314610400578063c0e6740c1461041c57610135565b80634020c980116100fd5780634020c980146102315780634961904a1461025a5780634ba2e60f1461029757806354041718146102d45780635e928b85146102f057806376e7e4df1461030c57610135565b806306fdde031461013a5780631e02d1d61461016557806324dd74b61461018e5780632c3b462c146101cb578063330ba56a146101f4575b600080fd5b34801561014657600080fd5b5061014f61057e565b60405161015c9190611ffb565b60405180910390f35b34801561017157600080fd5b5061018c600480360381019061018791906121fa565b61060c565b005b34801561019a57600080fd5b506101b560048036038101906101b09190612365565b6106b7565b6040516101c291906124c3565b60405180910390f35b3480156101d757600080fd5b506101f260048036038101906101ed91906124de565b610779565b005b34801561020057600080fd5b5061021b600480360381019061021691906125bf565b61081a565b6040516102289190612607565b60405180910390f35b34801561023d57600080fd5b5061025860048036038101906102539190612622565b6108c1565b005b34801561026657600080fd5b50610281600480360381019061027c91906125bf565b610d33565b60405161028e91906127df565b60405180910390f35b3480156102a357600080fd5b506102be60048036038101906102b99190612801565b610de5565b6040516102cb91906124c3565b60405180910390f35b6102ee60048036038101906102e991906128a6565b611258565b005b61030a600480360381019061030591906128a6565b6112d5565b005b34801561031857600080fd5b50610333600480360381019061032e91906128d3565b611352565b60405161034091906124c3565b60405180910390f35b34801561035557600080fd5b50610370600480360381019061036b91906125bf565b611408565b60405161037d9190612607565b60405180910390f35b34801561039257600080fd5b506103ad60048036038101906103a891906125bf565b6114af565b6040516103ba9190612607565b60405180910390f35b3480156103cf57600080fd5b506103ea60048036038101906103e591906125bf565b611822565b6040516103f79190612a25565b60405180910390f35b61041a600480360381019061041591906128a6565b6118cf565b005b34801561042857600080fd5b50610443600480360381019061043e9190612a40565b61194c565b005b34801561045157600080fd5b5061046c60048036038101906104679190612ae9565b6119eb565b60405161047991906124c3565b60405180910390f35b34801561048e57600080fd5b506104a960048036038101906104a491906125bf565b611aaa565b6040516104b69190612607565b60405180910390f35b6104d960048036038101906104d491906128a6565b611b51565b005b3480156104e757600080fd5b5061050260048036038101906104fd91906125bf565b611bce565b60405161050f9190612d5f565b60405180910390f35b34801561052457600080fd5b5061053f600480360381019061053a9190612d81565b611c80565b005b34801561054d57600080fd5b50610568600480360381019061056391906125bf565b611d22565b6040516105759190612fac565b60405180910390f35b6000805461058b90612ffd565b80601f01602080910402602001604051908101604052809291908181526020018280546105b790612ffd565b80156106045780601f106105d957610100808354040283529160200191610604565b820191906000526020600020905b8154815290600101906020018083116105e757829003601f168201915b505050505081565b600760009054906101000a900473ffffffffffffffffffffffffffffffffffffffff1673ffffffffffffffffffffffffffffffffffffffff16631e02d1d68b8b8b8b8b8b8b8b8b8b6040518b63ffffffff1660e01b81526004016106799a9998979695949392919061303d565b600060405180830381600087803b15801561069357600080fd5b505af11580156106a7573d6000803e3d6000fd5b5050505050505050505050505050565b6000600860009054906101000a900473ffffffffffffffffffffffffffffffffffffffff1673ffffffffffffffffffffffffffffffffffffffff166324dd74b68c8c8c8c8c8c8c8c8c8c6040518b63ffffffff1660e01b81526004016107269a999897969594939291906130fc565b6020604051808303816000875af1158015610745573d6000803e3d6000fd5b505050506040513d601f19601f8201168201806040525081019061076991906131c9565b90509a9950505050505050505050565b600860009054906101000a900473ffffffffffffffffffffffffffffffffffffffff1673ffffffffffffffffffffffffffffffffffffffff166345f39d55878787878742886040518863ffffffff1660e01b81526004016107e097969594939291906131f6565b600060405180830381600087803b1580156107fa57600080fd5b505af115801561080e573d6000803e3d6000fd5b50505050505050505050565b6000600860009054906101000a900473ffffffffffffffffffffffffffffffffffffffff1673ffffffffffffffffffffffffffffffffffffffff1663330ba56a836040518263ffffffff1660e01b815260040161087791906124c3565b6020604051808303816000875af1158015610896573d6000803e3d6000fd5b505050506040513d601f19601f820116820180604052508101906108ba91906132a6565b9050919050565b60011515600660009054906101000a900473ffffffffffffffffffffffffffffffffffffffff1673ffffffffffffffffffffffffffffffffffffffff16638c39b67f866040518263ffffffff1660e01b815260040161092091906124c3565b6020604051808303816000875af115801561093f573d6000803e3d6000fd5b505050506040513d601f19601f8201168201806040525081019061096391906132a6565b15151461096f57600080fd5b60011515600760009054906101000a900473ffffffffffffffffffffffffffffffffffffffff1673ffffffffffffffffffffffffffffffffffffffff1663d27fbe47856040518263ffffffff1660e01b81526004016109ce91906124c3565b6020604051808303816000875af11580156109ed573d6000803e3d6000fd5b505050506040513d601f19601f82011682018060405250810190610a1191906132a6565b151514610a1d57600080fd5b60011515600860009054906101000a900473ffffffffffffffffffffffffffffffffffffffff1673ffffffffffffffffffffffffffffffffffffffff1663330ba56a846040518263ffffffff1660e01b8152600401610a7c91906124c3565b6020604051808303816000875af1158015610a9b573d6000803e3d6000fd5b505050506040513d601f19601f82011682018060405250810190610abf91906132a6565b151514610acb57600080fd5b60011515610ad8866114af565b151514610ae457600080fd5b600960009054906101000a900473ffffffffffffffffffffffffffffffffffffffff1673ffffffffffffffffffffffffffffffffffffffff16634020c98086868686866040518663ffffffff1660e01b8152600401610b479594939291906132d3565b600060405180830381600087803b158015610b6157600080fd5b505af1158015610b75573d6000803e3d6000fd5b50505050600660009054906101000a900473ffffffffffffffffffffffffffffffffffffffff1673ffffffffffffffffffffffffffffffffffffffff1663287c1b158587846040518463ffffffff1660e01b8152600401610bd893929190613326565b600060405180830381600087803b158015610bf257600080fd5b505af1158015610c06573d6000803e3d6000fd5b50505050600760009054906101000a900473ffffffffffffffffffffffffffffffffffffffff1673ffffffffffffffffffffffffffffffffffffffff16630bb6c06b8487846040518463ffffffff1660e01b8152600401610c6993929190613326565b600060405180830381600087803b158015610c8357600080fd5b505af1158015610c97573d6000803e3d6000fd5b50505050600860009054906101000a900473ffffffffffffffffffffffffffffffffffffffff1673ffffffffffffffffffffffffffffffffffffffff16631d6607b78387846040518463ffffffff1660e01b8152600401610cfa93929190613326565b600060405180830381600087803b158015610d1457600080fd5b505af1158015610d28573d6000803e3d6000fd5b505050505050505050565b610d3b611dd4565b600660009054906101000a900473ffffffffffffffffffffffffffffffffffffffff1673ffffffffffffffffffffffffffffffffffffffff16634961904a836040518263ffffffff1660e01b8152600401610d9691906124c3565b6000604051808303816000875af1158015610db5573d6000803e3d6000fd5b505050506040513d6000823e3d601f19601f82011682018060405250810190610dde919061353c565b9050919050565b600060011515600660009054906101000a900473ffffffffffffffffffffffffffffffffffffffff1673ffffffffffffffffffffffffffffffffffffffff16638c39b67f876040518263ffffffff1660e01b8152600401610e4691906124c3565b6020604051808303816000875af1158015610e65573d6000803e3d6000fd5b505050506040513d601f19601f82011682018060405250810190610e8991906132a6565b151514610e9557600080fd5b60011515600760009054906101000a900473ffffffffffffffffffffffffffffffffffffffff1673ffffffffffffffffffffffffffffffffffffffff1663d27fbe47866040518263ffffffff1660e01b8152600401610ef491906124c3565b6020604051808303816000875af1158015610f13573d6000803e3d6000fd5b505050506040513d601f19601f82011682018060405250810190610f3791906132a6565b151514610f4357600080fd5b60011515600860009054906101000a900473ffffffffffffffffffffffffffffffffffffffff1673ffffffffffffffffffffffffffffffffffffffff1663330ba56a856040518263ffffffff1660e01b8152600401610fa291906124c3565b6020604051808303816000875af1158015610fc1573d6000803e3d6000fd5b505050506040513d601f19601f82011682018060405250810190610fe591906132a6565b151514610ff157600080fd5b6000600960009054906101000a900473ffffffffffffffffffffffffffffffffffffffff1673ffffffffffffffffffffffffffffffffffffffff16634ba2e60f878787876040518563ffffffff1660e01b81526004016110549493929190613585565b6020604051808303816000875af1158015611073573d6000803e3d6000fd5b505050506040513d601f19601f8201168201806040525081019061109791906131c9565b9050600660009054906101000a900473ffffffffffffffffffffffffffffffffffffffff1673ffffffffffffffffffffffffffffffffffffffff1663287c1b158783866040518463ffffffff1660e01b81526004016110f893929190613326565b600060405180830381600087803b15801561111257600080fd5b505af1158015611126573d6000803e3d6000fd5b50505050600760009054906101000a900473ffffffffffffffffffffffffffffffffffffffff1673ffffffffffffffffffffffffffffffffffffffff16630bb6c06b8683866040518463ffffffff1660e01b815260040161118993929190613326565b600060405180830381600087803b1580156111a357600080fd5b505af11580156111b7573d6000803e3d6000fd5b50505050600860009054906101000a900473ffffffffffffffffffffffffffffffffffffffff1673ffffffffffffffffffffffffffffffffffffffff16631d6607b78583866040518463ffffffff1660e01b815260040161121a93929190613326565b600060405180830381600087803b15801561123457600080fd5b505af1158015611248573d6000803e3d6000fd5b5050505080915050949350505050565b600073ffffffffffffffffffffffffffffffffffffffff168173ffffffffffffffffffffffffffffffffffffffff160361129157600080fd5b80600660006101000a81548173ffffffffffffffffffffffffffffffffffffffff021916908373ffffffffffffffffffffffffffffffffffffffff16021790555050565b600073ffffffffffffffffffffffffffffffffffffffff168173ffffffffffffffffffffffffffffffffffffffff160361130e57600080fd5b80600960006101000a81548173ffffffffffffffffffffffffffffffffffffffff021916908373ffffffffffffffffffffffffffffffffffffffff16021790555050565b6000600660009054906101000a900473ffffffffffffffffffffffffffffffffffffffff1673ffffffffffffffffffffffffffffffffffffffff166376e7e4df8888888888886040518763ffffffff1660e01b81526004016113b9969594939291906135ca565b6020604051808303816000875af11580156113d8573d6000803e3d6000fd5b505050506040513d601f19601f820116820180604052508101906113fc91906131c9565b90509695505050505050565b6000600660009054906101000a900473ffffffffffffffffffffffffffffffffffffffff1673ffffffffffffffffffffffffffffffffffffffff16638c39b67f836040518263ffffffff1660e01b815260040161146591906124c3565b6020604051808303816000875af1158015611484573d6000803e3d6000fd5b505050506040513d601f19601f820116820180604052508101906114a891906132a6565b9050919050565b600060011515600960009054906101000a900473ffffffffffffffffffffffffffffffffffffffff1673ffffffffffffffffffffffffffffffffffffffff16639b0b5362846040518263ffffffff1660e01b815260040161151091906124c3565b6020604051808303816000875af115801561152f573d6000803e3d6000fd5b505050506040513d601f19601f8201168201806040525081019061155391906132a6565b151503611818576000600960009054906101000a900473ffffffffffffffffffffffffffffffffffffffff1673ffffffffffffffffffffffffffffffffffffffff1663a7ccf928846040518263ffffffff1660e01b81526004016115b791906124c3565b6080604051808303816000875af11580156115d6573d6000803e3d6000fd5b505050506040513d601f19601f820116820180604052508101906115fa91906136bf565b905060011515600860009054906101000a900473ffffffffffffffffffffffffffffffffffffffff1673ffffffffffffffffffffffffffffffffffffffff1663330ba56a83606001516040518263ffffffff1660e01b815260040161165f91906124c3565b6020604051808303816000875af115801561167e573d6000803e3d6000fd5b505050506040513d601f19601f820116820180604052508101906116a291906132a6565b1515148015611756575060011515600760009054906101000a900473ffffffffffffffffffffffffffffffffffffffff1673ffffffffffffffffffffffffffffffffffffffff1663d27fbe4783604001516040518263ffffffff1660e01b815260040161170f91906124c3565b6020604051808303816000875af115801561172e573d6000803e3d6000fd5b505050506040513d601f19601f8201168201806040525081019061175291906132a6565b1515145b8015611807575060011515600660009054906101000a900473ffffffffffffffffffffffffffffffffffffffff1673ffffffffffffffffffffffffffffffffffffffff16638c39b67f83602001516040518263ffffffff1660e01b81526004016117c091906124c3565b6020604051808303816000875af11580156117df573d6000803e3d6000fd5b505050506040513d601f19601f8201168201806040525081019061180391906132a6565b1515145b1561181657600191505061181d565b505b600090505b919050565b61182a611e36565b600960009054906101000a900473ffffffffffffffffffffffffffffffffffffffff1673ffffffffffffffffffffffffffffffffffffffff1663a7ccf928836040518263ffffffff1660e01b815260040161188591906124c3565b6080604051808303816000875af11580156118a4573d6000803e3d6000fd5b505050506040513d601f19601f820116820180604052508101906118c891906136bf565b9050919050565b600073ffffffffffffffffffffffffffffffffffffffff168173ffffffffffffffffffffffffffffffffffffffff160361190857600080fd5b80600760006101000a81548173ffffffffffffffffffffffffffffffffffffffff021916908373ffffffffffffffffffffffffffffffffffffffff16021790555050565b600860009054906101000a900473ffffffffffffffffffffffffffffffffffffffff1673ffffffffffffffffffffffffffffffffffffffff1663c0e6740c8787878787876040518763ffffffff1660e01b81526004016119b1969594939291906136ec565b600060405180830381600087803b1580156119cb57600080fd5b505af11580156119df573d6000803e3d6000fd5b50505050505050505050565b6000600760009054906101000a900473ffffffffffffffffffffffffffffffffffffffff1673ffffffffffffffffffffffffffffffffffffffff1663c42865f28b8b8b8b8b8b8b8b8b6040518a63ffffffff1660e01b8152600401611a5899989796959493929190613754565b6020604051808303816000875af1158015611a77573d6000803e3d6000fd5b505050506040513d601f19601f82011682018060405250810190611a9b91906131c9565b90509998505050505050505050565b6000600760009054906101000a900473ffffffffffffffffffffffffffffffffffffffff1673ffffffffffffffffffffffffffffffffffffffff1663d27fbe47836040518263ffffffff1660e01b8152600401611b0791906124c3565b6020604051808303816000875af1158015611b26573d6000803e3d6000fd5b505050506040513d601f19601f82011682018060405250810190611b4a91906132a6565b9050919050565b600073ffffffffffffffffffffffffffffffffffffffff168173ffffffffffffffffffffffffffffffffffffffff1603611b8a57600080fd5b80600860006101000a81548173ffffffffffffffffffffffffffffffffffffffff021916908373ffffffffffffffffffffffffffffffffffffffff16021790555050565b611bd6611e5e565b600760009054906101000a900473ffffffffffffffffffffffffffffffffffffffff1673ffffffffffffffffffffffffffffffffffffffff1663db15b787836040518263ffffffff1660e01b8152600401611c3191906124c3565b6000604051808303816000875af1158015611c50573d6000803e3d6000fd5b505050506040513d6000823e3d601f19601f82011682018060405250810190611c7991906139b2565b9050919050565b600660009054906101000a900473ffffffffffffffffffffffffffffffffffffffff1673ffffffffffffffffffffffffffffffffffffffff1663ddf4732c888888888888886040518863ffffffff1660e01b8152600401611ce797969594939291906139fb565b600060405180830381600087803b158015611d0157600080fd5b505af1158015611d15573d6000803e3d6000fd5b5050505050505050505050565b611d2a611eeb565b600860009054906101000a900473ffffffffffffffffffffffffffffffffffffffff1673ffffffffffffffffffffffffffffffffffffffff1663ef1a5668836040518263ffffffff1660e01b8152600401611d8591906124c3565b6000604051808303816000875af1158015611da4573d6000803e3d6000fd5b505050506040513d6000823e3d601f19601f82011682018060405250810190611dcd9190613c18565b9050919050565b6040518061012001604052806000815260200160008152602001606081526020016000815260200160608152602001606081526020016060815260200160008152602001600073ffffffffffffffffffffffffffffffffffffffff1681525090565b6040518060800160405280600081526020016000815260200160008152602001600081525090565b6040518061018001604052806000815260200160008152602001600073ffffffffffffffffffffffffffffffffffffffff1681526020016000815260200160608152602001600081526020016060815260200160608152602001606081526020016060815260200160008152602001600073ffffffffffffffffffffffffffffffffffffffff1681525090565b6040518061018001604052806000815260200160008152602001606081526020016000815260200160008152602001600081526020016060815260200160008152602001606081526020016060815260200160008152602001600073ffffffffffffffffffffffffffffffffffffffff1681525090565b600081519050919050565b600082825260208201905092915050565b60005b83811015611f9c578082015181840152602081019050611f81565b83811115611fab576000848401525b50505050565b6000601f19601f8301169050919050565b6000611fcd82611f62565b611fd78185611f6d565b9350611fe7818560208601611f7e565b611ff081611fb1565b840191505092915050565b600060208201905081810360008301526120158184611fc2565b905092915050565b6000604051905090565b600080fd5b600080fd5b6000819050919050565b61204481612031565b811461204f57600080fd5b50565b6000813590506120618161203b565b92915050565b600073ffffffffffffffffffffffffffffffffffffffff82169050919050565b600061209282612067565b9050919050565b6120a281612087565b81146120ad57600080fd5b50565b6000813590506120bf81612099565b92915050565b600080fd5b600080fd5b7f4e487b7100000000000000000000000000000000000000000000000000000000600052604160045260246000fd5b61210782611fb1565b810181811067ffffffffffffffff82111715612126576121256120cf565b5b80604052505050565b600061213961201d565b905061214582826120fe565b919050565b600067ffffffffffffffff821115612165576121646120cf565b5b61216e82611fb1565b9050602081019050919050565b82818337600083830152505050565b600061219d6121988461214a565b61212f565b9050828152602081018484840111156121b9576121b86120ca565b5b6121c484828561217b565b509392505050565b600082601f8301126121e1576121e06120c5565b5b81356121f184826020860161218a565b91505092915050565b6000806000806000806000806000806101408b8d03121561221e5761221d612027565b5b600061222c8d828e01612052565b9a5050602061223d8d828e016120b0565b995050604061224e8d828e01612052565b98505060608b013567ffffffffffffffff81111561226f5761226e61202c565b5b61227b8d828e016121cc565b975050608061228c8d828e01612052565b96505060a08b013567ffffffffffffffff8111156122ad576122ac61202c565b5b6122b98d828e016121cc565b95505060c08b013567ffffffffffffffff8111156122da576122d961202c565b5b6122e68d828e016121cc565b94505060e08b013567ffffffffffffffff8111156123075761230661202c565b5b6123138d828e016121cc565b9350506101008b013567ffffffffffffffff8111156123355761233461202c565b5b6123418d828e016121cc565b9250506101206123538d828e016120b0565b9150509295989b9194979a5092959850565b6000806000806000806000806000806101408b8d03121561238957612388612027565b5b60006123978d828e01612052565b9a505060208b013567ffffffffffffffff8111156123b8576123b761202c565b5b6123c48d828e016121cc565b99505060406123d58d828e01612052565b98505060606123e68d828e01612052565b97505060806123f78d828e01612052565b96505060a08b013567ffffffffffffffff8111156124185761241761202c565b5b6124248d828e016121cc565b95505060c06124358d828e01612052565b94505060e08b013567ffffffffffffffff8111156124565761245561202c565b5b6124628d828e016121cc565b9350506101008b013567ffffffffffffffff8111156124845761248361202c565b5b6124908d828e016121cc565b9250506101206124a28d828e016120b0565b9150509295989b9194979a5092959850565b6124bd81612031565b82525050565b60006020820190506124d860008301846124b4565b92915050565b60008060008060008060c087890312156124fb576124fa612027565b5b600061250989828a01612052565b965050602087013567ffffffffffffffff81111561252a5761252961202c565b5b61253689828a016121cc565b955050604061254789828a01612052565b945050606087013567ffffffffffffffff8111156125685761256761202c565b5b61257489828a016121cc565b935050608087013567ffffffffffffffff8111156125955761259461202c565b5b6125a189828a016121cc565b92505060a06125b289828a016120b0565b9150509295509295509295565b6000602082840312156125d5576125d4612027565b5b60006125e384828501612052565b91505092915050565b60008115159050919050565b612601816125ec565b82525050565b600060208201905061261c60008301846125f8565b92915050565b600080600080600060a0868803121561263e5761263d612027565b5b600061264c88828901612052565b955050602061265d88828901612052565b945050604061266e88828901612052565b935050606061267f88828901612052565b9250506080612690888289016120b0565b9150509295509295909350565b6126a681612031565b82525050565b600082825260208201905092915050565b60006126c882611f62565b6126d281856126ac565b93506126e2818560208601611f7e565b6126eb81611fb1565b840191505092915050565b6126ff81612087565b82525050565b60006101208301600083015161271e600086018261269d565b506020830151612731602086018261269d565b506040830151848203604086015261274982826126bd565b915050606083015161275e606086018261269d565b506080830151848203608086015261277682826126bd565b91505060a083015184820360a086015261279082826126bd565b91505060c083015184820360c08601526127aa82826126bd565b91505060e08301516127bf60e086018261269d565b506101008301516127d46101008601826126f6565b508091505092915050565b600060208201905081810360008301526127f98184612705565b905092915050565b6000806000806080858703121561281b5761281a612027565b5b600061282987828801612052565b945050602061283a87828801612052565b935050604061284b87828801612052565b925050606061285c878288016120b0565b91505092959194509250565b600061287382612067565b9050919050565b61288381612868565b811461288e57600080fd5b50565b6000813590506128a08161287a565b92915050565b6000602082840312156128bc576128bb612027565b5b60006128ca84828501612891565b91505092915050565b60008060008060008060c087890312156128f0576128ef612027565b5b600087013567ffffffffffffffff81111561290e5761290d61202c565b5b61291a89828a016121cc565b965050602061292b89828a01612052565b955050604087013567ffffffffffffffff81111561294c5761294b61202c565b5b61295889828a016121cc565b945050606087013567ffffffffffffffff8111156129795761297861202c565b5b61298589828a016121cc565b935050608087013567ffffffffffffffff8111156129a6576129a561202c565b5b6129b289828a016121cc565b92505060a06129c389828a016120b0565b9150509295509295509295565b6080820160008201516129e6600085018261269d565b5060208201516129f9602085018261269d565b506040820151612a0c604085018261269d565b506060820151612a1f606085018261269d565b50505050565b6000608082019050612a3a60008301846129d0565b92915050565b60008060008060008060c08789031215612a5d57612a5c612027565b5b6000612a6b89828a01612052565b965050602087013567ffffffffffffffff811115612a8c57612a8b61202c565b5b612a9889828a016121cc565b9550506040612aa989828a01612052565b9450506060612aba89828a01612052565b9350506080612acb89828a01612052565b92505060a0612adc89828a016120b0565b9150509295509295509295565b60008060008060008060008060006101208a8c031215612b0c57612b0b612027565b5b6000612b1a8c828d016120b0565b9950506020612b2b8c828d01612052565b98505060408a013567ffffffffffffffff811115612b4c57612b4b61202c565b5b612b588c828d016121cc565b9750506060612b698c828d01612052565b96505060808a013567ffffffffffffffff811115612b8a57612b8961202c565b5b612b968c828d016121cc565b95505060a08a013567ffffffffffffffff811115612bb757612bb661202c565b5b612bc38c828d016121cc565b94505060c08a013567ffffffffffffffff811115612be457612be361202c565b5b612bf08c828d016121cc565b93505060e08a013567ffffffffffffffff811115612c1157612c1061202c565b5b612c1d8c828d016121cc565b925050610100612c2f8c828d016120b0565b9150509295985092959850929598565b600061018083016000830151612c58600086018261269d565b506020830151612c6b602086018261269d565b506040830151612c7e60408601826126f6565b506060830151612c91606086018261269d565b5060808301518482036080860152612ca982826126bd565b91505060a0830151612cbe60a086018261269d565b5060c083015184820360c0860152612cd682826126bd565b91505060e083015184820360e0860152612cf082826126bd565b915050610100830151848203610100860152612d0c82826126bd565b915050610120830151848203610120860152612d2882826126bd565b915050610140830151612d3f61014086018261269d565b50610160830151612d546101608601826126f6565b508091505092915050565b60006020820190508181036000830152612d798184612c3f565b905092915050565b600080600080600080600060e0888a031215612da057612d9f612027565b5b6000612dae8a828b01612052565b975050602088013567ffffffffffffffff811115612dcf57612dce61202c565b5b612ddb8a828b016121cc565b9650506040612dec8a828b01612052565b955050606088013567ffffffffffffffff811115612e0d57612e0c61202c565b5b612e198a828b016121cc565b945050608088013567ffffffffffffffff811115612e3a57612e3961202c565b5b612e468a828b016121cc565b93505060a088013567ffffffffffffffff811115612e6757612e6661202c565b5b612e738a828b016121cc565b92505060c0612e848a828b016120b0565b91505092959891949750929550565b600061018083016000830151612eac600086018261269d565b506020830151612ebf602086018261269d565b5060408301518482036040860152612ed782826126bd565b9150506060830151612eec606086018261269d565b506080830151612eff608086018261269d565b5060a0830151612f1260a086018261269d565b5060c083015184820360c0860152612f2a82826126bd565b91505060e0830151612f3f60e086018261269d565b50610100830151848203610100860152612f5982826126bd565b915050610120830151848203610120860152612f7582826126bd565b915050610140830151612f8c61014086018261269d565b50610160830151612fa16101608601826126f6565b508091505092915050565b60006020820190508181036000830152612fc68184612e93565b905092915050565b7f4e487b7100000000000000000000000000000000000000000000000000000000600052602260045260246000fd5b6000600282049050600182168061301557607f821691505b60208210810361302857613027612fce565b5b50919050565b61303781612087565b82525050565b600061014082019050613053600083018d6124b4565b613060602083018c61302e565b61306d604083018b6124b4565b818103606083015261307f818a611fc2565b905061308e60808301896124b4565b81810360a08301526130a08188611fc2565b905081810360c08301526130b48187611fc2565b905081810360e08301526130c88186611fc2565b90508181036101008301526130dd8185611fc2565b90506130ed61012083018461302e565b9b9a5050505050505050505050565b600061014082019050613112600083018d6124b4565b8181036020830152613124818c611fc2565b9050613133604083018b6124b4565b613140606083018a6124b4565b61314d60808301896124b4565b81810360a083015261315f8188611fc2565b905061316e60c08301876124b4565b81810360e08301526131808186611fc2565b90508181036101008301526131958185611fc2565b90506131a561012083018461302e565b9b9a5050505050505050505050565b6000815190506131c38161203b565b92915050565b6000602082840312156131df576131de612027565b5b60006131ed848285016131b4565b91505092915050565b600060e08201905061320b600083018a6124b4565b818103602083015261321d8189611fc2565b905061322c60408301886124b4565b818103606083015261323e8187611fc2565b905081810360808301526132528186611fc2565b905061326160a08301856124b4565b61326e60c083018461302e565b98975050505050505050565b613283816125ec565b811461328e57600080fd5b50565b6000815190506132a08161327a565b92915050565b6000602082840312156132bc576132bb612027565b5b60006132ca84828501613291565b91505092915050565b600060a0820190506132e860008301886124b4565b6132f560208301876124b4565b61330260408301866124b4565b61330f60608301856124b4565b61331c608083018461302e565b9695505050505050565b600060608201905061333b60008301866124b4565b61334860208301856124b4565b613355604083018461302e565b949350505050565b600080fd5b600080fd5b600061337a6133758461214a565b61212f565b905082815260208101848484011115613396576133956120ca565b5b6133a1848285611f7e565b509392505050565b600082601f8301126133be576133bd6120c5565b5b81516133ce848260208601613367565b91505092915050565b6000815190506133e681612099565b92915050565b600061012082840312156134035761340261335d565b5b61340e61012061212f565b9050600061341e848285016131b4565b6000830152506020613432848285016131b4565b602083015250604082015167ffffffffffffffff81111561345657613455613362565b5b613462848285016133a9565b6040830152506060613476848285016131b4565b606083015250608082015167ffffffffffffffff81111561349a57613499613362565b5b6134a6848285016133a9565b60808301525060a082015167ffffffffffffffff8111156134ca576134c9613362565b5b6134d6848285016133a9565b60a08301525060c082015167ffffffffffffffff8111156134fa576134f9613362565b5b613506848285016133a9565b60c08301525060e061351a848285016131b4565b60e08301525061010061352f848285016133d7565b6101008301525092915050565b60006020828403121561355257613551612027565b5b600082015167ffffffffffffffff8111156135705761356f61202c565b5b61357c848285016133ec565b91505092915050565b600060808201905061359a60008301876124b4565b6135a760208301866124b4565b6135b460408301856124b4565b6135c1606083018461302e565b95945050505050565b600060c08201905081810360008301526135e48189611fc2565b90506135f360208301886124b4565b81810360408301526136058187611fc2565b905081810360608301526136198186611fc2565b9050818103608083015261362d8185611fc2565b905061363c60a083018461302e565b979650505050505050565b60006080828403121561365d5761365c61335d565b5b613667608061212f565b90506000613677848285016131b4565b600083015250602061368b848285016131b4565b602083015250604061369f848285016131b4565b60408301525060606136b3848285016131b4565b60608301525092915050565b6000608082840312156136d5576136d4612027565b5b60006136e384828501613647565b91505092915050565b600060c08201905061370160008301896124b4565b81810360208301526137138188611fc2565b905061372260408301876124b4565b61372f60608301866124b4565b61373c60808301856124b4565b61374960a083018461302e565b979650505050505050565b60006101208201905061376a600083018c61302e565b613777602083018b6124b4565b8181036040830152613789818a611fc2565b905061379860608301896124b4565b81810360808301526137aa8188611fc2565b905081810360a08301526137be8187611fc2565b905081810360c08301526137d28186611fc2565b905081810360e08301526137e68185611fc2565b90506137f661010083018461302e565b9a9950505050505050505050565b6000610180828403121561381b5761381a61335d565b5b61382661018061212f565b90506000613836848285016131b4565b600083015250602061384a848285016131b4565b602083015250604061385e848285016133d7565b6040830152506060613872848285016131b4565b606083015250608082015167ffffffffffffffff81111561389657613895613362565b5b6138a2848285016133a9565b60808301525060a06138b6848285016131b4565b60a08301525060c082015167ffffffffffffffff8111156138da576138d9613362565b5b6138e6848285016133a9565b60c08301525060e082015167ffffffffffffffff81111561390a57613909613362565b5b613916848285016133a9565b60e08301525061010082015167ffffffffffffffff81111561393b5761393a613362565b5b613947848285016133a9565b6101008301525061012082015167ffffffffffffffff81111561396d5761396c613362565b5b613979848285016133a9565b6101208301525061014061398f848285016131b4565b610140830152506101606139a5848285016133d7565b6101608301525092915050565b6000602082840312156139c8576139c7612027565b5b600082015167ffffffffffffffff8111156139e6576139e561202c565b5b6139f284828501613804565b91505092915050565b600060e082019050613a10600083018a6124b4565b8181036020830152613a228189611fc2565b9050613a3160408301886124b4565b8181036060830152613a438187611fc2565b90508181036080830152613a578186611fc2565b905081810360a0830152613a6b8185611fc2565b9050613a7a60c083018461302e565b98975050505050505050565b60006101808284031215613a9d57613a9c61335d565b5b613aa861018061212f565b90506000613ab8848285016131b4565b6000830152506020613acc848285016131b4565b602083015250604082015167ffffffffffffffff811115613af057613aef613362565b5b613afc848285016133a9565b6040830152506060613b10848285016131b4565b6060830152506080613b24848285016131b4565b60808301525060a0613b38848285016131b4565b60a08301525060c082015167ffffffffffffffff811115613b5c57613b5b613362565b5b613b68848285016133a9565b60c08301525060e0613b7c848285016131b4565b60e08301525061010082015167ffffffffffffffff811115613ba157613ba0613362565b5b613bad848285016133a9565b6101008301525061012082015167ffffffffffffffff811115613bd357613bd2613362565b5b613bdf848285016133a9565b61012083015250610140613bf5848285016131b4565b61014083015250610160613c0b848285016133d7565b6101608301525092915050565b600060208284031215613c2e57613c2d612027565b5b600082015167ffffffffffffffff811115613c4c57613c4b61202c565b5b613c5884828501613a86565b9150509291505056fea26469706673582212200b760b13e12fa318491454a65be99888cf1a487432f08054e82714a8719397cb64736f6c634300080e0033",
  "immutableReferences": {},
  "source": "// SPDX-License-Identifier: MIT\r\npragma solidity ^0.8.14;\r\n\r\n// A. Documentation Contract\r\ninterface IDocumentation {\r\n    struct DocumentationObject {\r\n        uint256 documentationID;\r\n        uint256 antiqueID;\r\n        string filehash;\r\n        uint256 fileSize;\r\n        string fileType;\r\n        string fileName;\r\n        string fileDescription;\r\n        uint256 uploadTime;\r\n        address payable uploader;\r\n    }\r\n\r\n    function AddDocumentation(\r\n        string memory _fileHash,\r\n        uint256 _fileSize,\r\n        string memory _fileType,\r\n        string memory _fileName,\r\n        string memory _fileDescription,\r\n        address payable _uploader\r\n    ) external returns (uint256);\r\n\r\n    function UpdateDocumentation(\r\n        uint256 _documentationID,\r\n        string memory _fileHash,\r\n        uint256 _fileSize,\r\n        string memory _fileType,\r\n        string memory _fileName,\r\n        string memory _fileDescription,\r\n        address payable _uploader\r\n    ) external;\r\n\r\n    function ValidateDocumentationID(uint256 _documentationID)\r\n        external\r\n        returns (bool);\r\n\r\n    function SetAntiqueIDByDocumentationID(\r\n        uint256 _documentationID,\r\n        uint256 _antiqueID,\r\n        address payable _uploader\r\n    ) external;\r\n\r\n    function GetDocumentationByID(uint256 _documentationID)\r\n        external\r\n        returns (DocumentationObject memory);\r\n}\r\n\r\n//B. Verification Contract\r\ninterface IVerification {\r\n    struct VerificateionObject {\r\n        //Owner And Appraiser Data\r\n        uint256 verificationID;\r\n        uint256 antiqueID;\r\n        address payable ownerAddress;\r\n        uint256 ownerID;\r\n        // uint256 personVerificationID;\r\n        string appraiserUsername;\r\n        //Antique Object Data\r\n        uint256 ioTDeviceID;\r\n        string estimateManufactureYears;\r\n        string antiqueRareness;\r\n        string antiqueAuthenticity;\r\n        string antiqueRealness;\r\n        //Time And Sender Data\r\n        uint256 uploadTime;\r\n        address payable uploader;\r\n    }\r\n\r\n    function AddVerification(\r\n        //Owner and Appraiser Data\r\n        address payable _ownerAddress,\r\n        uint256 _ownerID,\r\n        // uint256 _personVerificationID,\r\n        string memory _appraiserUsername,\r\n        //Antique Object Data\r\n        uint256 _ioTDeviceID,\r\n        string memory _estimateManufactureYears,\r\n        string memory _antiqueRareness,\r\n        string memory _antiqueAuthenticity,\r\n        string memory _antiqueRealness,\r\n        //Time Data\r\n        address payable _uploader\r\n    ) external returns (uint256);\r\n\r\n    function UpdateVerification(\r\n        //Owner and Appraiser Data\r\n        uint256 _verificationID,\r\n        address payable _newOwnerAddress,\r\n        uint256 _newOwnerID,\r\n        // uint256 _newPersonVerificationID,\r\n        string memory _appraiserUsername,\r\n        //Antique Object Data\r\n        uint256 _newIoTDeviceID,\r\n        string memory _newEstimateManufactureYears,\r\n        string memory _newAntiqueRareness,\r\n        string memory _newAntiqueAuthenticity,\r\n        string memory _newAntiqueRealness,\r\n        //Time Data\r\n        address payable _uploader\r\n    ) external;\r\n\r\n    function ValidateVerificationID(uint256 _verificationID)\r\n        external\r\n        returns (bool);\r\n\r\n    function SetAntiqueIDByVerificationID(\r\n        uint256 _verificationID,\r\n        uint256 _antiqueID,\r\n        address payable _uploader\r\n    ) external;\r\n\r\n    function GetVerificationByID(uint256 _verificationID)\r\n        external\r\n        returns (VerificateionObject memory);\r\n}\r\n\r\n//C. Description Contract\r\n\r\ninterface IDescription {\r\n    struct DescriptionObject {\r\n        uint256 descriptionID;\r\n        uint256 antiqueID;\r\n        //Description Dimension\r\n        string materialCreated;\r\n        uint256 antiqueHeight;\r\n        uint256 antiqueLength;\r\n        uint256 anitqueWidth;\r\n        //Description File Upload\r\n        string filehash;\r\n        uint256 fileSize;\r\n        string fileType;\r\n        string fileName;\r\n        uint256 uploadTime;\r\n        address payable uploader;\r\n    }\r\n\r\n    function AddDescription(\r\n        uint256 _antiqueObjectID,\r\n        string memory _materialCreated,\r\n        uint256 _antiqueHeight,\r\n        uint256 _antiqueLength,\r\n        uint256 _anitqueWidth,\r\n        string memory filehash,\r\n        uint256 fileSize,\r\n        string memory fileType,\r\n        string memory fileName,\r\n        address payable _uploader\r\n    ) external returns (uint256);\r\n\r\n    function UpdateDescriptionMaterials(\r\n        uint256 _descriptionID,\r\n        string memory _newMaterialCreated,\r\n        uint256 _antiqueHeight,\r\n        uint256 _antiqueLength,\r\n        uint256 _anitqueWidth,\r\n        address payable _uploader\r\n    ) external;\r\n\r\n    function UpdateDescriptionUploadFile(\r\n        uint256 _descriptionID,\r\n        string memory filehash,\r\n        uint256 fileSize,\r\n        string memory fileType,\r\n        string memory fileName,\r\n        uint256 _uploadTime,\r\n        address payable _uploader\r\n    ) external;\r\n\r\n    function ValidateDescriptionID(uint256 _descriptionID)\r\n        external\r\n        returns (bool);\r\n\r\n    function SetAntiqueIDByDescriptionID(\r\n        uint256 _descriptionID,\r\n        uint256 _antiqueID,\r\n        address payable _uploader\r\n    ) external;\r\n\r\n    function GetDescriptionByID(uint256 _descriptionID)\r\n        external\r\n        returns (DescriptionObject memory);\r\n}\r\n\r\n// D. Antique Contract\r\ninterface IAntique {\r\n    struct AntiqueObject {\r\n        uint256 antiqueID;\r\n        uint256 documentationID;\r\n        uint256 verificationID;\r\n        uint256 descriptionID;\r\n    }\r\n\r\n    function AddAntique(\r\n        uint256 _documentationID,\r\n        uint256 _verificationID,\r\n        uint256 _descriptionID,\r\n        address payable _uploader\r\n    ) external returns (uint256);\r\n\r\n    function UpdateAntique(\r\n        uint256 _antiqueID,\r\n        uint256 _documentationID,\r\n        uint256 _verificationID,\r\n        uint256 _descriptionID,\r\n        address payable _uploader\r\n    ) external;\r\n\r\n    function ValidateAntiqueID(uint256 _antiqueID) external returns (bool);\r\n\r\n    function GetAntiqueByID(uint256 _antiqueID)\r\n        external\r\n        returns (AntiqueObject memory);\r\n}\r\n\r\ncontract DatabaseController {\r\n    string public name = \"DatabaseController\";\r\n    address antiqueContractAddress;\r\n    address descriptionContractAddress;\r\n    address documentationContractAddress;\r\n    address verificationContractAddress;\r\n    uint256 antiqueCount = 0;\r\n\r\n    IDocumentation documentationContract;\r\n    IVerification verificationContract;\r\n    IDescription descriptionContract;\r\n    IAntique antiqueContract;\r\n\r\n    function setAntiqueContractAddress(address _antiqueContractAddress)\r\n        public\r\n        payable\r\n    {\r\n        require(_antiqueContractAddress != address(0));\r\n        antiqueContract = IAntique(_antiqueContractAddress);\r\n    }\r\n\r\n    function setDocumentationContractAddress(\r\n        address _documentationContractAddress\r\n    ) public payable {\r\n        require(_documentationContractAddress != address(0));\r\n        documentationContract = IDocumentation(_documentationContractAddress);\r\n    }\r\n\r\n    function setVerificationContractAddress(\r\n        address _verificationContractAddress\r\n    ) public payable {\r\n        require(_verificationContractAddress != address(0));\r\n        verificationContract = IVerification(_verificationContractAddress);\r\n    }\r\n\r\n    function setDescriptionContractAddress(address _descriptionContractAddress)\r\n        public\r\n        payable\r\n    {\r\n        require(_descriptionContractAddress != address(0));\r\n        descriptionContract = IDescription(_descriptionContractAddress);\r\n    }\r\n\r\n    // constructor(\r\n    //     address _antiqueContractAddress,\r\n    //     address _descriptionContractAddress,\r\n    //     address _documentationContractAddress,\r\n    //     address _verificationContractAddress)\r\n    // {\r\n    //    //Check Parameters\r\n    //     require(_antiqueContractAddress != address(0));\r\n    //     require(_descriptionContractAddress != address(0));\r\n    //     require(_documentationContractAddress != address(0));\r\n    //     require(_verificationContractAddress != address(0));\r\n\r\n    //     //Set the Address For Contracts\r\n    //     documentationContract = IDocumentation(_documentationContractAddress);\r\n    //     verificationContract = IVerification(_verificationContractAddress);\r\n    //     descriptionContract = IDescription(_descriptionContractAddress);\r\n    //     antiqueContract = IAntique(_antiqueContractAddress);\r\n\r\n    //     name = \"DatabaseController\";\r\n    // }\r\n\r\n    //A. Verification Functions\r\n\r\n    //1. Add Verification Function\r\n    function AddVerification(\r\n        //Owner and Appraiser Data\r\n        address payable _ownerAddress,\r\n        uint256 _ownerID,\r\n        // uint256 _personVerificationID,\r\n        string memory _appraiserUsername,\r\n        //Antique Object Data\r\n        uint256 _ioTDeviceID,\r\n        string memory _estimateManufactureYears,\r\n        string memory _antiqueRareness,\r\n        string memory _antiqueAuthenticity,\r\n        string memory _antiqueRealness,\r\n        //Time Data\r\n        address payable _uploader\r\n    ) external returns (uint256) {\r\n        return\r\n            verificationContract.AddVerification(\r\n                payable(_ownerAddress),\r\n                _ownerID,\r\n                // _personVerificationID,\r\n                _appraiserUsername,\r\n                _ioTDeviceID,\r\n                _estimateManufactureYears,\r\n                _antiqueRareness,\r\n                _antiqueAuthenticity,\r\n                _antiqueRealness,\r\n                _uploader\r\n            );\r\n    }\r\n\r\n    //2. Update Verification Function\r\n    function UpdateVerification(\r\n        //Owner and Appraiser Data\r\n        uint256 _verificationID,\r\n        address payable _newOwnerAddress,\r\n        uint256 _newOwnerID,\r\n        // uint256 _newPersonVerificationID,\r\n        string memory _appraiserUsername,\r\n        //Antique Object Data\r\n        uint256 _newIoTDeviceID,\r\n        string memory _newEstimateManufactureYears,\r\n        string memory _newAntiqueRareness,\r\n        string memory _newAntiqueAuthenticity,\r\n        string memory _newAntiqueRealness,\r\n        //Time Data\r\n        address payable _uploader\r\n    ) external {\r\n        verificationContract.UpdateVerification(\r\n            _verificationID,\r\n            _newOwnerAddress,\r\n            _newOwnerID,\r\n            // _newPersonVerificationID,\r\n            _appraiserUsername,\r\n            _newIoTDeviceID,\r\n            _newEstimateManufactureYears,\r\n            _newAntiqueRareness,\r\n            _newAntiqueAuthenticity,\r\n            _newAntiqueRealness,\r\n            _uploader\r\n        );\r\n    }\r\n\r\n    //3. Validate Verification ID\r\n    function ValidateVerificationID(uint256 _verificationID)\r\n        external\r\n        returns (bool)\r\n    {\r\n        return verificationContract.ValidateVerificationID(_verificationID);\r\n    }\r\n\r\n    //4. Get Verification By ID\r\n    function GetVerificationByID(uint256 _verificationID)\r\n        external\r\n        returns (IVerification.VerificateionObject memory)\r\n    {\r\n        return verificationContract.GetVerificationByID(_verificationID);\r\n    }\r\n\r\n    // B. Description Contract\r\n\r\n    //1. Add Description Function\r\n    function AddDescription(\r\n        uint256 _antiqueObjectID,\r\n        string memory _materialCreated,\r\n        uint256 _antiqueHeight,\r\n        uint256 _antiqueLength,\r\n        uint256 _anitqueWidth,\r\n        string memory _filehash,\r\n        uint256 _fileSize,\r\n        string memory _fileType,\r\n        string memory _fileName,\r\n        address payable _uploader\r\n    ) external returns (uint256) {\r\n        return\r\n            descriptionContract.AddDescription(\r\n                _antiqueObjectID,\r\n                _materialCreated,\r\n                _antiqueHeight,\r\n                _antiqueLength,\r\n                _anitqueWidth,\r\n                _filehash,\r\n                _fileSize,\r\n                _fileType,\r\n                _fileName,\r\n                _uploader\r\n            );\r\n    }\r\n\r\n    //2. Update Description Materials Function\r\n    function UpdateDescriptionMaterials(\r\n        uint256 _descriptionID,\r\n        string memory _newMaterialCreated,\r\n        uint256 _antiqueHeight,\r\n        uint256 _antiqueLength,\r\n        uint256 _anitqueWidth,\r\n        address payable _uploader\r\n    ) external {\r\n        descriptionContract.UpdateDescriptionMaterials(\r\n            _descriptionID,\r\n            _newMaterialCreated,\r\n            _antiqueHeight,\r\n            _antiqueLength,\r\n            _anitqueWidth,\r\n            _uploader\r\n        );\r\n    }\r\n\r\n    //2.1 Update Description Upload File\r\n    function UpdateDescriptionUploadFile(\r\n        uint256 _descriptionID,\r\n        string memory _filehash,\r\n        uint256 _fileSize,\r\n        string memory _fileType,\r\n        string memory _fileName,\r\n        address payable _uploader\r\n    ) external {\r\n        descriptionContract.UpdateDescriptionUploadFile(\r\n            _descriptionID,\r\n            _filehash,\r\n            _fileSize,\r\n            _fileType,\r\n            _fileName,\r\n            block.timestamp,\r\n            _uploader\r\n        );\r\n    }\r\n\r\n    //3. Validate Description ID\r\n    function ValidateDescriptionID(uint256 _descriptionID)\r\n        external\r\n        returns (bool)\r\n    {\r\n        return descriptionContract.ValidateDescriptionID(_descriptionID);\r\n    }\r\n\r\n    //4. Get Description By Description ID\r\n    function GetDescriptionByID(uint256 _descriptionID)\r\n        external\r\n        returns (IDescription.DescriptionObject memory)\r\n    {\r\n        return descriptionContract.GetDescriptionByID(_descriptionID);\r\n    }\r\n\r\n    //C. Documentation Contract\r\n    //Return Unit256 ID - ID for Created Documentation\r\n\r\n    //1. Add Documentation\r\n    function AddDocumentation(\r\n        string memory _fileHash,\r\n        uint256 _fileSize,\r\n        string memory _fileType,\r\n        string memory _fileName,\r\n        string memory _fileDescription,\r\n        address payable _uploader\r\n    ) external returns (uint256) {\r\n        return\r\n            documentationContract.AddDocumentation(\r\n                _fileHash,\r\n                _fileSize,\r\n                _fileType,\r\n                _fileName,\r\n                _fileDescription,\r\n                _uploader\r\n            );\r\n    }\r\n\r\n    //2. Update Documentation\r\n    function UpdateDocumentation(\r\n        uint256 _documentationID,\r\n        string memory _fileHash,\r\n        uint256 _fileSize,\r\n        string memory _fileType,\r\n        string memory _fileName,\r\n        string memory _fileDescription,\r\n        address payable _uploader\r\n    ) external {\r\n        documentationContract.UpdateDocumentation(\r\n            _documentationID,\r\n            _fileHash,\r\n            _fileSize,\r\n            _fileType,\r\n            _fileName,\r\n            _fileDescription,\r\n            _uploader\r\n        );\r\n    }\r\n\r\n    //3. Validate Documentation\r\n    function ValidateDocumentationID(uint256 _documentationID)\r\n        external\r\n        returns (bool)\r\n    {\r\n        return documentationContract.ValidateDocumentationID(_documentationID);\r\n    }\r\n\r\n    //4. Get Documentation By ID\r\n    function GetDocumentationByID(uint256 _documentationID)\r\n        external\r\n        returns (IDocumentation.DocumentationObject memory)\r\n    {\r\n        return documentationContract.GetDocumentationByID(_documentationID);\r\n    }\r\n\r\n    // D.Antique Contract\r\n    // 1. Add Antique Object\r\n    function AddAntique(\r\n        uint256 _documentationID,\r\n        uint256 _verificationID,\r\n        uint256 _descriptionID,\r\n        address payable _uploader\r\n    ) external returns (uint256) {\r\n        //Check Parameters\r\n        require(\r\n            documentationContract.ValidateDocumentationID(_documentationID) ==\r\n                true\r\n        );\r\n        require(\r\n            verificationContract.ValidateVerificationID(_verificationID) == true\r\n        );\r\n        require(\r\n            descriptionContract.ValidateDescriptionID(_descriptionID) == true\r\n        );\r\n\r\n        // Create A New Antique Object\r\n        uint256 _antiqueID = antiqueContract.AddAntique(\r\n            _documentationID,\r\n            _verificationID,\r\n            _descriptionID,\r\n            _uploader\r\n        );\r\n\r\n        // Set Antique ID In Verification Object, Documentation Object and Description Object\r\n        documentationContract.SetAntiqueIDByDocumentationID(\r\n            _documentationID,\r\n            _antiqueID,\r\n            _uploader\r\n        );\r\n        verificationContract.SetAntiqueIDByVerificationID(\r\n            _verificationID,\r\n            _antiqueID,\r\n            _uploader\r\n        );\r\n        descriptionContract.SetAntiqueIDByDescriptionID(\r\n            _descriptionID,\r\n            _antiqueID,\r\n            _uploader\r\n        );\r\n        return _antiqueID;\r\n    }\r\n\r\n    //2. Update Antique Object\r\n    function UpdateAntique(\r\n        uint256 _antiqueID,\r\n        uint256 _documentationID,\r\n        uint256 _verificationID,\r\n        uint256 _descriptionID,\r\n        address payable _uploader\r\n    ) external {\r\n        //Check Parameters\r\n\r\n        require(\r\n            documentationContract.ValidateDocumentationID(_documentationID) ==\r\n                true\r\n        );\r\n        require(\r\n            verificationContract.ValidateVerificationID(_verificationID) == true\r\n        );\r\n        require(\r\n            descriptionContract.ValidateDescriptionID(_descriptionID) == true\r\n        );\r\n\r\n        //Update Antique Object Data\r\n        require(ValidateAntiqueID(_antiqueID) == true);\r\n        antiqueContract.UpdateAntique(\r\n            _antiqueID,\r\n            _documentationID,\r\n            _verificationID,\r\n            _descriptionID,\r\n            _uploader\r\n        );\r\n\r\n        //Update Description, Verification and Documentation Data\r\n        documentationContract.SetAntiqueIDByDocumentationID(\r\n            _documentationID,\r\n            _antiqueID,\r\n            _uploader\r\n        );\r\n        verificationContract.SetAntiqueIDByVerificationID(\r\n            _verificationID,\r\n            _antiqueID,\r\n            _uploader\r\n        );\r\n        descriptionContract.SetAntiqueIDByDescriptionID(\r\n            _descriptionID,\r\n            _antiqueID,\r\n            _uploader\r\n        );\r\n    }\r\n\r\n    //3. Validate Antique Object ID\r\n    function ValidateAntiqueID(uint256 _antiqueID) public returns (bool) {\r\n        if (antiqueContract.ValidateAntiqueID(_antiqueID) == true) {\r\n            IAntique.AntiqueObject memory _antiqueData = antiqueContract\r\n                .GetAntiqueByID(_antiqueID);\r\n            if (\r\n                descriptionContract.ValidateDescriptionID(\r\n                    _antiqueData.descriptionID\r\n                ) ==\r\n                true &&\r\n                verificationContract.ValidateVerificationID(\r\n                    _antiqueData.verificationID\r\n                ) ==\r\n                true &&\r\n                documentationContract.ValidateDocumentationID(\r\n                    _antiqueData.documentationID\r\n                ) ==\r\n                true\r\n            ) {\r\n                return true;\r\n            }\r\n        }\r\n        return false;\r\n    }\r\n\r\n    //4. Get Antique By ID\r\n    function GetAntiqueByID(uint256 _antiqueID)\r\n        public\r\n        returns (IAntique.AntiqueObject memory)\r\n    {\r\n        return antiqueContract.GetAntiqueByID(_antiqueID);\r\n    }\r\n}\r\n",
  "sourcePath": "C:\\Users\\Natha\\OneDrive - The University of Sydney (Students)\\University of Sydney Materials\\Studying\\Year 5\\Semester 1\\Thesis B\\Thesis B Project Code\\truffle\\contracts\\DatabaseController.sol",
  "compiler": {
    "name": "solc",
    "version": "0.8.14+commit.80d49f37.Emscripten.clang"
  },
  "schemaVersion": "3.4.11",
  "updatedAt": "2023-02-21T14:29:56.383Z",
  "networkType": "ethereum",
  "devdoc": {
    "kind": "dev",
    "methods": {},
    "version": 1
  },
  "userdoc": {
    "kind": "user",
    "methods": {},
    "version": 1
  }
}