{
  "contractName": "Description",
  "abi": [
    {
      "inputs": [],
      "stateMutability": "nonpayable",
      "type": "constructor"
    },
    {
      "anonymous": false,
      "inputs": [
        {
          "indexed": false,
          "internalType": "uint256",
          "name": "descriptionID",
          "type": "uint256"
        },
        {
          "indexed": false,
          "internalType": "uint256",
          "name": "antiqueObjectID",
          "type": "uint256"
        },
        {
          "indexed": false,
          "internalType": "string",
          "name": "materialCreated",
          "type": "string"
        },
        {
          "indexed": false,
          "internalType": "uint256",
          "name": "antiqueHeight",
          "type": "uint256"
        },
        {
          "indexed": false,
          "internalType": "uint256",
          "name": "antiqueLength",
          "type": "uint256"
        },
        {
          "indexed": false,
          "internalType": "uint256",
          "name": "anitqueWidth",
          "type": "uint256"
        },
        {
          "indexed": false,
          "internalType": "uint256",
          "name": "uploadTime",
          "type": "uint256"
        },
        {
          "indexed": false,
          "internalType": "address payable",
          "name": "uploader",
          "type": "address"
        }
      ],
      "name": "addAntiqueDescription",
      "type": "event"
    },
    {
      "anonymous": false,
      "inputs": [
        {
          "indexed": false,
          "internalType": "uint256",
          "name": "descriptionID",
          "type": "uint256"
        },
        {
          "indexed": false,
          "internalType": "uint256",
          "name": "antiqueID",
          "type": "uint256"
        },
        {
          "indexed": false,
          "internalType": "uint256",
          "name": "uploadTime",
          "type": "uint256"
        },
        {
          "indexed": false,
          "internalType": "address payable",
          "name": "uploader",
          "type": "address"
        }
      ],
      "name": "setAntiqueIDByDescriptionID",
      "type": "event"
    },
    {
      "anonymous": false,
      "inputs": [
        {
          "indexed": false,
          "internalType": "uint256",
          "name": "documentationID",
          "type": "uint256"
        },
        {
          "indexed": false,
          "internalType": "string",
          "name": "newMaterialCreated",
          "type": "string"
        },
        {
          "indexed": false,
          "internalType": "uint256",
          "name": "antiqueHeight",
          "type": "uint256"
        },
        {
          "indexed": false,
          "internalType": "uint256",
          "name": "antiqueLength",
          "type": "uint256"
        },
        {
          "indexed": false,
          "internalType": "uint256",
          "name": "anitqueWidth",
          "type": "uint256"
        },
        {
          "indexed": false,
          "internalType": "uint256",
          "name": "uploadTime",
          "type": "uint256"
        },
        {
          "indexed": false,
          "internalType": "address payable",
          "name": "uploader",
          "type": "address"
        }
      ],
      "name": "updateAntiqueDescription",
      "type": "event"
    },
    {
      "inputs": [],
      "name": "descriptionCount",
      "outputs": [
        {
          "internalType": "uint256",
          "name": "",
          "type": "uint256"
        }
      ],
      "stateMutability": "view",
      "type": "function",
      "constant": true
    },
    {
      "inputs": [],
      "name": "name",
      "outputs": [
        {
          "internalType": "string",
          "name": "",
          "type": "string"
        }
      ],
      "stateMutability": "view",
      "type": "function",
      "constant": true
    },
    {
      "inputs": [
        {
          "internalType": "uint256",
          "name": "_antiqueObjectID",
          "type": "uint256"
        },
        {
          "internalType": "string",
          "name": "_materialCreated",
          "type": "string"
        },
        {
          "internalType": "uint256",
          "name": "_antiqueHeight",
          "type": "uint256"
        },
        {
          "internalType": "uint256",
          "name": "_antiqueLength",
          "type": "uint256"
        },
        {
          "internalType": "uint256",
          "name": "_anitqueWidth",
          "type": "uint256"
        },
        {
          "internalType": "address payable",
          "name": "_uploader",
          "type": "address"
        }
      ],
      "name": "AddDescription",
      "outputs": [
        {
          "internalType": "uint256",
          "name": "",
          "type": "uint256"
        }
      ],
      "stateMutability": "nonpayable",
      "type": "function"
    },
    {
      "inputs": [
        {
          "internalType": "uint256",
          "name": "_descriptionID",
          "type": "uint256"
        },
        {
          "internalType": "string",
          "name": "_newMaterialCreated",
          "type": "string"
        },
        {
          "internalType": "uint256",
          "name": "_antiqueHeight",
          "type": "uint256"
        },
        {
          "internalType": "uint256",
          "name": "_antiqueLength",
          "type": "uint256"
        },
        {
          "internalType": "uint256",
          "name": "_anitqueWidth",
          "type": "uint256"
        },
        {
          "internalType": "address payable",
          "name": "_uploader",
          "type": "address"
        }
      ],
      "name": "UpdateDescriptionMaterials",
      "outputs": [],
      "stateMutability": "nonpayable",
      "type": "function"
    },
    {
      "inputs": [
        {
          "internalType": "uint256",
          "name": "_descriptionID",
          "type": "uint256"
        }
      ],
      "name": "GetDescriptionByID",
      "outputs": [
        {
          "components": [
            {
              "internalType": "uint256",
              "name": "descriptionID",
              "type": "uint256"
            },
            {
              "internalType": "uint256",
              "name": "antiqueID",
              "type": "uint256"
            },
            {
              "internalType": "string",
              "name": "materialCreated",
              "type": "string"
            },
            {
              "internalType": "uint256",
              "name": "antiqueHeight",
              "type": "uint256"
            },
            {
              "internalType": "uint256",
              "name": "antiqueLength",
              "type": "uint256"
            },
            {
              "internalType": "uint256",
              "name": "anitqueWidth",
              "type": "uint256"
            },
            {
              "internalType": "uint256",
              "name": "uploadTime",
              "type": "uint256"
            },
            {
              "internalType": "address payable",
              "name": "uploader",
              "type": "address"
            }
          ],
          "internalType": "struct Description.DescriptionObject",
          "name": "",
          "type": "tuple"
        }
      ],
      "stateMutability": "view",
      "type": "function",
      "constant": true
    },
    {
      "inputs": [
        {
          "internalType": "uint256",
          "name": "_descriptionID",
          "type": "uint256"
        },
        {
          "internalType": "uint256",
          "name": "_newAntiqueID",
          "type": "uint256"
        },
        {
          "internalType": "address payable",
          "name": "_uploader",
          "type": "address"
        }
      ],
      "name": "SetAntiqueIDByDescriptionID",
      "outputs": [],
      "stateMutability": "nonpayable",
      "type": "function"
    },
    {
      "inputs": [
        {
          "internalType": "uint256",
          "name": "_descriptionID",
          "type": "uint256"
        }
      ],
      "name": "ValidateDescriptionID",
      "outputs": [
        {
          "internalType": "bool",
          "name": "",
          "type": "bool"
        }
      ],
      "stateMutability": "view",
      "type": "function",
      "constant": true
    }
  ],
  "bytecode": "0x60806040526040518060400160405280600d81526020017f446f63756d656e746174696f6e000000000000000000000000000000000000008152506000908051906020019062000051929190620000b9565b5060006001553480156200006457600080fd5b506040518060400160405280600d81526020017f446f63756d656e746174696f6e0000000000000000000000000000000000000081525060009080519060200190620000b2929190620000b9565b50620001cd565b828054620000c79062000198565b90600052602060002090601f016020900481019282620000eb576000855562000137565b82601f106200010657805160ff191683800117855562000137565b8280016001018555821562000137579182015b828111156200013657825182559160200191906001019062000119565b5b5090506200014691906200014a565b5090565b5b80821115620001655760008160009055506001016200014b565b5090565b7f4e487b7100000000000000000000000000000000000000000000000000000000600052602260045260246000fd5b60006002820490506001821680620001b157607f821691505b602082108103620001c757620001c662000169565b5b50919050565b6113bc80620001dd6000396000f3fe608060405234801561001057600080fd5b506004361061007d5760003560e01c8063481814c21161005b578063481814c2146100ec578063c0e6740c1461011c578063e28afdfc14610138578063ef1a5668146101565761007d565b806306fdde03146100825780631d6607b7146100a0578063330ba56a146100bc575b600080fd5b61008a610186565b6040516100979190610c9e565b60405180910390f35b6100ba60048036038101906100b59190610d68565b610214565b005b6100d660048036038101906100d19190610dbb565b610478565b6040516100e39190610e03565b60405180910390f35b61010660048036038101906101019190610f53565b6104a2565b604051610113919061100b565b60405180910390f35b61013660048036038101906101319190610f53565b61069c565b005b610140610996565b60405161014d919061100b565b60405180910390f35b610170600480360381019061016b9190610dbb565b61099c565b60405161017d919061113e565b60405180910390f35b600080546101939061118f565b80601f01602080910402602001604051908101604052809291908181526020018280546101bf9061118f565b801561020c5780601f106101e15761010080835404028352916020019161020c565b820191906000526020600020905b8154815290600101906020018083116101ef57829003601f168201915b505050505081565b6001151561022184610478565b15151461022d57600080fd5b6000600260008581526020019081526020016000206040518061010001604052908160008201548152602001600182015481526020016002820180546102729061118f565b80601f016020809104026020016040519081016040528092919081815260200182805461029e9061118f565b80156102eb5780601f106102c0576101008083540402835291602001916102eb565b820191906000526020600020905b8154815290600101906020018083116102ce57829003601f168201915b50505050508152602001600382015481526020016004820154815260200160058201548152602001600682015481526020016007820160009054906101000a900473ffffffffffffffffffffffffffffffffffffffff1673ffffffffffffffffffffffffffffffffffffffff1673ffffffffffffffffffffffffffffffffffffffff16815250509050828160200181815250508060026000868152602001908152602001600020600082015181600001556020820151816001015560408201518160020190805190602001906103c2929190610b07565b50606082015181600301556080820151816004015560a0820151816005015560c0820151816006015560e08201518160070160006101000a81548173ffffffffffffffffffffffffffffffffffffffff021916908373ffffffffffffffffffffffffffffffffffffffff1602179055509050507f99ceadde65af29c4045d9fdce70f3cfadec0a1912c8f4c6646f3c94eca2a83488484428560405161046a94939291906111cf565b60405180910390a150505050565b6000808211158061048a575060015482115b15610498576000905061049d565b600190505b919050565b6000606060008073ffffffffffffffffffffffffffffffffffffffff168473ffffffffffffffffffffffffffffffffffffffff16036104e057600080fd5b600087116104ed57600080fd5b600086116104fa57600080fd5b6000851161050757600080fd5b6000891115610514578890505b600088511115610522578791505b6001600081548092919061053590611243565b919050555060405180610100016040528060015481526020018281526020018381526020018881526020018781526020018681526020014281526020018573ffffffffffffffffffffffffffffffffffffffff16815250600260006001548152602001908152602001600020600082015181600001556020820151816001015560408201518160020190805190602001906105d1929190610b07565b50606082015181600301556080820151816004015560a0820151816005015560c0820151816006015560e08201518160070160006101000a81548173ffffffffffffffffffffffffffffffffffffffff021916908373ffffffffffffffffffffffffffffffffffffffff1602179055509050507f6f0231882907d3a5a5a1fe34d4551cc3a513a3e47021d8fc799b41ebdf66956660015482848a8a8a428b60405161068398979695949392919061128b565b60405180910390a1600154925050509695505050505050565b600084116106a957600080fd5b600083116106b657600080fd5b600082116106c357600080fd5b6000861180156106d557506001548611155b6106de57600080fd5b60008551116106ec57600080fd5b600073ffffffffffffffffffffffffffffffffffffffff168173ffffffffffffffffffffffffffffffffffffffff160361072557600080fd5b60006002600088815260200190815260200160002060405180610100016040529081600082015481526020016001820154815260200160028201805461076a9061118f565b80601f01602080910402602001604051908101604052809291908181526020018280546107969061118f565b80156107e35780601f106107b8576101008083540402835291602001916107e3565b820191906000526020600020905b8154815290600101906020018083116107c657829003601f168201915b50505050508152602001600382015481526020016004820154815260200160058201548152602001600682015481526020016007820160009054906101000a900473ffffffffffffffffffffffffffffffffffffffff1673ffffffffffffffffffffffffffffffffffffffff1673ffffffffffffffffffffffffffffffffffffffff168152505090508581604001819052508481606001818152505083816080018181525050828160a00181815250508060026000898152602001908152602001600020600082015181600001556020820151816001015560408201518160020190805190602001906108d7929190610b07565b50606082015181600301556080820151816004015560a0820151816005015560c0820151816006015560e08201518160070160006101000a81548173ffffffffffffffffffffffffffffffffffffffff021916908373ffffffffffffffffffffffffffffffffffffffff1602179055509050507f69600854c77bb787c959d63764638772b9cd331a2ef1d4ef35f9d52b0cb96b35878787878742886040516109859796959493929190611310565b60405180910390a150505050505050565b60015481565b6109a4610b8d565b600115156109b183610478565b1515146109bd57600080fd5b60026000838152602001908152602001600020604051806101000160405290816000820154815260200160018201548152602001600282018054610a009061118f565b80601f0160208091040260200160405190810160405280929190818152602001828054610a2c9061118f565b8015610a795780601f10610a4e57610100808354040283529160200191610a79565b820191906000526020600020905b815481529060010190602001808311610a5c57829003601f168201915b50505050508152602001600382015481526020016004820154815260200160058201548152602001600682015481526020016007820160009054906101000a900473ffffffffffffffffffffffffffffffffffffffff1673ffffffffffffffffffffffffffffffffffffffff1673ffffffffffffffffffffffffffffffffffffffff16815250509050919050565b828054610b139061118f565b90600052602060002090601f016020900481019282610b355760008555610b7c565b82601f10610b4e57805160ff1916838001178555610b7c565b82800160010185558215610b7c579182015b82811115610b7b578251825591602001919060010190610b60565b5b509050610b899190610be8565b5090565b60405180610100016040528060008152602001600081526020016060815260200160008152602001600081526020016000815260200160008152602001600073ffffffffffffffffffffffffffffffffffffffff1681525090565b5b80821115610c01576000816000905550600101610be9565b5090565b600081519050919050565b600082825260208201905092915050565b60005b83811015610c3f578082015181840152602081019050610c24565b83811115610c4e576000848401525b50505050565b6000601f19601f8301169050919050565b6000610c7082610c05565b610c7a8185610c10565b9350610c8a818560208601610c21565b610c9381610c54565b840191505092915050565b60006020820190508181036000830152610cb88184610c65565b905092915050565b6000604051905090565b600080fd5b600080fd5b6000819050919050565b610ce781610cd4565b8114610cf257600080fd5b50565b600081359050610d0481610cde565b92915050565b600073ffffffffffffffffffffffffffffffffffffffff82169050919050565b6000610d3582610d0a565b9050919050565b610d4581610d2a565b8114610d5057600080fd5b50565b600081359050610d6281610d3c565b92915050565b600080600060608486031215610d8157610d80610cca565b5b6000610d8f86828701610cf5565b9350506020610da086828701610cf5565b9250506040610db186828701610d53565b9150509250925092565b600060208284031215610dd157610dd0610cca565b5b6000610ddf84828501610cf5565b91505092915050565b60008115159050919050565b610dfd81610de8565b82525050565b6000602082019050610e186000830184610df4565b92915050565b600080fd5b600080fd5b7f4e487b7100000000000000000000000000000000000000000000000000000000600052604160045260246000fd5b610e6082610c54565b810181811067ffffffffffffffff82111715610e7f57610e7e610e28565b5b80604052505050565b6000610e92610cc0565b9050610e9e8282610e57565b919050565b600067ffffffffffffffff821115610ebe57610ebd610e28565b5b610ec782610c54565b9050602081019050919050565b82818337600083830152505050565b6000610ef6610ef184610ea3565b610e88565b905082815260208101848484011115610f1257610f11610e23565b5b610f1d848285610ed4565b509392505050565b600082601f830112610f3a57610f39610e1e565b5b8135610f4a848260208601610ee3565b91505092915050565b60008060008060008060c08789031215610f7057610f6f610cca565b5b6000610f7e89828a01610cf5565b965050602087013567ffffffffffffffff811115610f9f57610f9e610ccf565b5b610fab89828a01610f25565b9550506040610fbc89828a01610cf5565b9450506060610fcd89828a01610cf5565b9350506080610fde89828a01610cf5565b92505060a0610fef89828a01610d53565b9150509295509295509295565b61100581610cd4565b82525050565b60006020820190506110206000830184610ffc565b92915050565b61102f81610cd4565b82525050565b600082825260208201905092915050565b600061105182610c05565b61105b8185611035565b935061106b818560208601610c21565b61107481610c54565b840191505092915050565b61108881610d2a565b82525050565b6000610100830160008301516110a76000860182611026565b5060208301516110ba6020860182611026565b50604083015184820360408601526110d28282611046565b91505060608301516110e76060860182611026565b5060808301516110fa6080860182611026565b5060a083015161110d60a0860182611026565b5060c083015161112060c0860182611026565b5060e083015161113360e086018261107f565b508091505092915050565b60006020820190508181036000830152611158818461108e565b905092915050565b7f4e487b7100000000000000000000000000000000000000000000000000000000600052602260045260246000fd5b600060028204905060018216806111a757607f821691505b6020821081036111ba576111b9611160565b5b50919050565b6111c981610d2a565b82525050565b60006080820190506111e46000830187610ffc565b6111f16020830186610ffc565b6111fe6040830185610ffc565b61120b60608301846111c0565b95945050505050565b7f4e487b7100000000000000000000000000000000000000000000000000000000600052601160045260246000fd5b600061124e82610cd4565b91507fffffffffffffffffffffffffffffffffffffffffffffffffffffffffffffffff82036112805761127f611214565b5b600182019050919050565b6000610100820190506112a1600083018b610ffc565b6112ae602083018a610ffc565b81810360408301526112c08189610c65565b90506112cf6060830188610ffc565b6112dc6080830187610ffc565b6112e960a0830186610ffc565b6112f660c0830185610ffc565b61130360e08301846111c0565b9998505050505050505050565b600060e082019050611325600083018a610ffc565b81810360208301526113378189610c65565b90506113466040830188610ffc565b6113536060830187610ffc565b6113606080830186610ffc565b61136d60a0830185610ffc565b61137a60c08301846111c0565b9897505050505050505056fea2646970667358221220ed2fae00b83c85d0b1a674fada43ab40d0a40884edec35e43113d3dc602ead9064736f6c634300080e0033",
  "immutableReferences": {},
  "source": "// SPDX-License-Identifier: MIT\r\npragma solidity ^0.8.14;\r\n\r\ncontract Description {\r\n    string public name = 'Documentation';\r\n    uint256 public descriptionCount = 0;\r\n    mapping (uint256 => DescriptionObject) private descriptionMap;\r\n    constructor() {\r\n        name = \"Documentation\";\r\n    }\r\n\r\n    struct DescriptionObject {\r\n        uint256 descriptionID;\r\n        uint256 antiqueID;\r\n        string materialCreated;\r\n        uint256 antiqueHeight;\r\n        uint256 antiqueLength;\r\n        uint256 anitqueWidth;\r\n        uint256 uploadTime;\r\n        address payable uploader;\r\n    }\r\n    event addAntiqueDescription (\r\n        uint256 descriptionID,\r\n        uint256 antiqueObjectID,\r\n        string materialCreated,\r\n        uint256 antiqueHeight,\r\n        uint256 antiqueLength,\r\n        uint256 anitqueWidth,\r\n        uint256 uploadTime,\r\n        address payable uploader\r\n    );\r\n    event updateAntiqueDescription (\r\n        uint256 documentationID,\r\n        string newMaterialCreated,\r\n        uint256 antiqueHeight,\r\n        uint256 antiqueLength,\r\n        uint256 anitqueWidth,\r\n        uint256 uploadTime,\r\n        address payable uploader\r\n    );\r\n\r\n    event setAntiqueIDByDescriptionID (\r\n        uint256 descriptionID,\r\n        uint256 antiqueID,\r\n        uint256 uploadTime,\r\n        address payable uploader\r\n    );\r\n\r\n    //POST: Description To Blockchain\r\n\r\n    function  AddDescription\r\n    (\r\n        uint256 _antiqueObjectID,\r\n        string memory _materialCreated,\r\n        uint256 _antiqueHeight,\r\n        uint256 _antiqueLength,\r\n        uint256 _anitqueWidth,\r\n        address payable _uploader\r\n    )\r\n    public returns (uint256)\r\n    {\r\n        string memory antiqueMaterial;\r\n\r\n        //Initialise Default Antique ID = -1 \r\n        uint256 _antiqueID = 0;\r\n\r\n        require(_uploader != address(0));\r\n        require(_antiqueHeight > 0);\r\n        require(_antiqueLength > 0);\r\n        require(_anitqueWidth > 0);\r\n        // require(_antiqueObjectID > 0);\r\n        if (_antiqueObjectID > 0)\r\n        {\r\n            _antiqueID = _antiqueObjectID;\r\n        } \r\n\r\n        if (bytes(_materialCreated).length > 0)\r\n        {\r\n            antiqueMaterial = _materialCreated;\r\n        }\r\n        descriptionCount ++;\r\n        \r\n        descriptionMap[descriptionCount] = DescriptionObject (\r\n            descriptionCount,\r\n            _antiqueID,\r\n            antiqueMaterial,\r\n            _antiqueHeight,\r\n            _antiqueLength,\r\n            _anitqueWidth,\r\n            block.timestamp,\r\n            _uploader\r\n        );\r\n        emit addAntiqueDescription \r\n        (descriptionCount,\r\n        _antiqueID,\r\n        antiqueMaterial,\r\n        _antiqueHeight,\r\n        _antiqueLength,\r\n        _anitqueWidth,\r\n        block.timestamp,\r\n        _uploader); \r\n        return descriptionCount;\r\n    }\r\n\r\n    // PUT:  Description Materials In Blockchain\r\n    function UpdateDescriptionMaterials \r\n    (\r\n        uint256 _descriptionID,\r\n        string memory _newMaterialCreated,\r\n        uint256 _antiqueHeight,\r\n        uint256 _antiqueLength,\r\n        uint256 _anitqueWidth,\r\n        address payable _uploader\r\n    )\r\n    public \r\n    {\r\n        require(_antiqueHeight > 0);\r\n        require(_antiqueLength > 0);\r\n        require(_anitqueWidth > 0);\r\n        require(_descriptionID > 0 && _descriptionID <= descriptionCount);\r\n        require (bytes(_newMaterialCreated).length > 0);\r\n        require(_uploader != address(0));\r\n        DescriptionObject memory _description = descriptionMap[_descriptionID];\r\n        _description.materialCreated = _newMaterialCreated;\r\n        _description.antiqueHeight = _antiqueHeight;\r\n        _description.antiqueLength = _antiqueLength;\r\n        _description.anitqueWidth = _anitqueWidth;\r\n        descriptionMap[_descriptionID] = _description;\r\n        emit updateAntiqueDescription \r\n            (_descriptionID, \r\n            _newMaterialCreated,\r\n            _antiqueHeight,\r\n            _antiqueLength,\r\n            _anitqueWidth,\r\n            block.timestamp,\r\n            _uploader);\r\n    }\r\n\r\n    //GET Description By ID\r\n    function GetDescriptionByID\r\n    (uint256 _descriptionID)\r\n    external view returns (DescriptionObject memory)\r\n    {\r\n        require (ValidateDescriptionID(_descriptionID) == true);\r\n        return descriptionMap[_descriptionID];\r\n    }\r\n\r\n    //PUT: Antique ID by Description ID \r\n    function SetAntiqueIDByDescriptionID\r\n    (\r\n        uint256 _descriptionID,\r\n        uint256 _newAntiqueID,\r\n        address payable _uploader\r\n    )\r\n    external \r\n    {\r\n        require(ValidateDescriptionID(_descriptionID) == true);\r\n        DescriptionObject memory _descriptionData = descriptionMap[_descriptionID];\r\n        _descriptionData.antiqueID = _newAntiqueID;\r\n        //Update To the Blockchain\r\n        descriptionMap[_descriptionID] = _descriptionData;\r\n        emit setAntiqueIDByDescriptionID (_descriptionID,_newAntiqueID,block.timestamp,_uploader);\r\n    }\r\n\r\n    //Validate Description ID \r\n    function ValidateDescriptionID \r\n    (uint _descriptionID)\r\n    public view returns (bool)\r\n    {\r\n        if (_descriptionID <= 0 || _descriptionID > descriptionCount)\r\n        {\r\n            return false;\r\n        }\r\n            \r\n        // DescriptionObject memory _descriptionData = descriptionMap[_descriptionID];\r\n        // if(_descriptionData.antiqueID <= 0)\r\n        // {\r\n        //     return false;\r\n        // }\r\n        return true; \r\n    }\r\n\r\n\r\n\r\n}\r\n",
  "sourcePath": "C:\\Users\\Natha\\OneDrive - The University of Sydney (Students)\\University of Sydney Materials\\Studying\\Year 5\\Semester 1\\Thesis B\\Thesis B Project Code\\truffle\\contracts\\Database\\Description.sol",
  "compiler": {
    "name": "solc",
    "version": "0.8.14+commit.80d49f37.Emscripten.clang"
  },
  "schemaVersion": "3.4.11",
  "updatedAt": "2023-01-31T12:26:09.268Z",
  "networkType": "ethereum",
  "devdoc": {
    "kind": "dev",
    "methods": {},
    "version": 1
  },
  "userdoc": {
    "kind": "user",
    "methods": {},
    "version": 1
  }
}