{
  "contractName": "Description",
  "abi": [
    {
      "inputs": [],
      "stateMutability": "nonpayable",
      "type": "constructor"
    },
    {
      "anonymous": false,
      "inputs": [
        {
          "indexed": false,
          "internalType": "uint256",
          "name": "descriptionID",
          "type": "uint256"
        },
        {
          "indexed": false,
          "internalType": "uint256",
          "name": "antiqueObjectID",
          "type": "uint256"
        },
        {
          "indexed": false,
          "internalType": "string",
          "name": "materialCreated",
          "type": "string"
        },
        {
          "indexed": false,
          "internalType": "uint256",
          "name": "antiqueHeight",
          "type": "uint256"
        },
        {
          "indexed": false,
          "internalType": "uint256",
          "name": "antiqueLength",
          "type": "uint256"
        },
        {
          "indexed": false,
          "internalType": "uint256",
          "name": "anitqueWidth",
          "type": "uint256"
        },
        {
          "indexed": false,
          "internalType": "string",
          "name": "filehash",
          "type": "string"
        },
        {
          "indexed": false,
          "internalType": "uint256",
          "name": "fileSize",
          "type": "uint256"
        },
        {
          "indexed": false,
          "internalType": "string",
          "name": "fileType",
          "type": "string"
        },
        {
          "indexed": false,
          "internalType": "string",
          "name": "fileName",
          "type": "string"
        },
        {
          "indexed": false,
          "internalType": "uint256",
          "name": "uploadTime",
          "type": "uint256"
        },
        {
          "indexed": false,
          "internalType": "address payable",
          "name": "uploader",
          "type": "address"
        }
      ],
      "name": "addAntiqueDescription",
      "type": "event"
    },
    {
      "anonymous": false,
      "inputs": [
        {
          "indexed": false,
          "internalType": "uint256",
          "name": "descriptionID",
          "type": "uint256"
        },
        {
          "indexed": false,
          "internalType": "uint256",
          "name": "antiqueID",
          "type": "uint256"
        },
        {
          "indexed": false,
          "internalType": "uint256",
          "name": "uploadTime",
          "type": "uint256"
        },
        {
          "indexed": false,
          "internalType": "address payable",
          "name": "uploader",
          "type": "address"
        }
      ],
      "name": "setAntiqueIDByDescriptionID",
      "type": "event"
    },
    {
      "anonymous": false,
      "inputs": [
        {
          "indexed": false,
          "internalType": "uint256",
          "name": "documentationID",
          "type": "uint256"
        },
        {
          "indexed": false,
          "internalType": "string",
          "name": "newMaterialCreated",
          "type": "string"
        },
        {
          "indexed": false,
          "internalType": "uint256",
          "name": "antiqueHeight",
          "type": "uint256"
        },
        {
          "indexed": false,
          "internalType": "uint256",
          "name": "antiqueLength",
          "type": "uint256"
        },
        {
          "indexed": false,
          "internalType": "uint256",
          "name": "anitqueWidth",
          "type": "uint256"
        },
        {
          "indexed": false,
          "internalType": "uint256",
          "name": "uploadTime",
          "type": "uint256"
        },
        {
          "indexed": false,
          "internalType": "address payable",
          "name": "uploader",
          "type": "address"
        }
      ],
      "name": "updateAntiqueDescription",
      "type": "event"
    },
    {
      "anonymous": false,
      "inputs": [
        {
          "indexed": false,
          "internalType": "uint256",
          "name": "descriptionID",
          "type": "uint256"
        },
        {
          "indexed": false,
          "internalType": "string",
          "name": "filehash",
          "type": "string"
        },
        {
          "indexed": false,
          "internalType": "uint256",
          "name": "fileSize",
          "type": "uint256"
        },
        {
          "indexed": false,
          "internalType": "string",
          "name": "fileType",
          "type": "string"
        },
        {
          "indexed": false,
          "internalType": "string",
          "name": "fileName",
          "type": "string"
        },
        {
          "indexed": false,
          "internalType": "uint256",
          "name": "uploadTime",
          "type": "uint256"
        },
        {
          "indexed": false,
          "internalType": "address payable",
          "name": "uploader",
          "type": "address"
        }
      ],
      "name": "updateAntiqueDescriptionFileUpload",
      "type": "event"
    },
    {
      "inputs": [],
      "name": "descriptionCount",
      "outputs": [
        {
          "internalType": "uint256",
          "name": "",
          "type": "uint256"
        }
      ],
      "stateMutability": "view",
      "type": "function",
      "constant": true
    },
    {
      "inputs": [],
      "name": "name",
      "outputs": [
        {
          "internalType": "string",
          "name": "",
          "type": "string"
        }
      ],
      "stateMutability": "view",
      "type": "function",
      "constant": true
    },
    {
      "inputs": [
        {
          "internalType": "uint256",
          "name": "_antiqueObjectID",
          "type": "uint256"
        },
        {
          "internalType": "string",
          "name": "_materialCreated",
          "type": "string"
        },
        {
          "internalType": "uint256",
          "name": "_antiqueHeight",
          "type": "uint256"
        },
        {
          "internalType": "uint256",
          "name": "_antiqueLength",
          "type": "uint256"
        },
        {
          "internalType": "uint256",
          "name": "_anitqueWidth",
          "type": "uint256"
        },
        {
          "internalType": "string",
          "name": "_filehash",
          "type": "string"
        },
        {
          "internalType": "uint256",
          "name": "_fileSize",
          "type": "uint256"
        },
        {
          "internalType": "string",
          "name": "_fileType",
          "type": "string"
        },
        {
          "internalType": "string",
          "name": "_fileName",
          "type": "string"
        },
        {
          "internalType": "address payable",
          "name": "_uploader",
          "type": "address"
        }
      ],
      "name": "AddDescription",
      "outputs": [
        {
          "internalType": "uint256",
          "name": "",
          "type": "uint256"
        }
      ],
      "stateMutability": "nonpayable",
      "type": "function"
    },
    {
      "inputs": [
        {
          "internalType": "uint256",
          "name": "_descriptionID",
          "type": "uint256"
        },
        {
          "internalType": "string",
          "name": "_newMaterialCreated",
          "type": "string"
        },
        {
          "internalType": "uint256",
          "name": "_antiqueHeight",
          "type": "uint256"
        },
        {
          "internalType": "uint256",
          "name": "_antiqueLength",
          "type": "uint256"
        },
        {
          "internalType": "uint256",
          "name": "_anitqueWidth",
          "type": "uint256"
        },
        {
          "internalType": "address payable",
          "name": "_uploader",
          "type": "address"
        }
      ],
      "name": "UpdateDescriptionMaterials",
      "outputs": [],
      "stateMutability": "nonpayable",
      "type": "function"
    },
    {
      "inputs": [
        {
          "internalType": "uint256",
          "name": "_descriptionID",
          "type": "uint256"
        },
        {
          "internalType": "string",
          "name": "_filehash",
          "type": "string"
        },
        {
          "internalType": "uint256",
          "name": "_fileSize",
          "type": "uint256"
        },
        {
          "internalType": "string",
          "name": "_fileType",
          "type": "string"
        },
        {
          "internalType": "string",
          "name": "_fileName",
          "type": "string"
        },
        {
          "internalType": "uint256",
          "name": "_uploadTime",
          "type": "uint256"
        },
        {
          "internalType": "address payable",
          "name": "_uploader",
          "type": "address"
        }
      ],
      "name": "UpdateDescriptionUploadFile",
      "outputs": [],
      "stateMutability": "nonpayable",
      "type": "function"
    },
    {
      "inputs": [
        {
          "internalType": "uint256",
          "name": "_descriptionID",
          "type": "uint256"
        }
      ],
      "name": "GetDescriptionByID",
      "outputs": [
        {
          "components": [
            {
              "internalType": "uint256",
              "name": "descriptionID",
              "type": "uint256"
            },
            {
              "internalType": "uint256",
              "name": "antiqueID",
              "type": "uint256"
            },
            {
              "internalType": "string",
              "name": "materialCreated",
              "type": "string"
            },
            {
              "internalType": "uint256",
              "name": "antiqueHeight",
              "type": "uint256"
            },
            {
              "internalType": "uint256",
              "name": "antiqueLength",
              "type": "uint256"
            },
            {
              "internalType": "uint256",
              "name": "anitqueWidth",
              "type": "uint256"
            },
            {
              "internalType": "string",
              "name": "filehash",
              "type": "string"
            },
            {
              "internalType": "uint256",
              "name": "fileSize",
              "type": "uint256"
            },
            {
              "internalType": "string",
              "name": "fileType",
              "type": "string"
            },
            {
              "internalType": "string",
              "name": "fileName",
              "type": "string"
            },
            {
              "internalType": "uint256",
              "name": "uploadTime",
              "type": "uint256"
            },
            {
              "internalType": "address payable",
              "name": "uploader",
              "type": "address"
            }
          ],
          "internalType": "struct Description.DescriptionObject",
          "name": "",
          "type": "tuple"
        }
      ],
      "stateMutability": "view",
      "type": "function",
      "constant": true
    },
    {
      "inputs": [
        {
          "internalType": "uint256",
          "name": "_descriptionID",
          "type": "uint256"
        },
        {
          "internalType": "uint256",
          "name": "_newAntiqueID",
          "type": "uint256"
        },
        {
          "internalType": "address payable",
          "name": "_uploader",
          "type": "address"
        }
      ],
      "name": "SetAntiqueIDByDescriptionID",
      "outputs": [],
      "stateMutability": "nonpayable",
      "type": "function"
    },
    {
      "inputs": [
        {
          "internalType": "uint256",
          "name": "_descriptionID",
          "type": "uint256"
        }
      ],
      "name": "ValidateDescriptionID",
      "outputs": [
        {
          "internalType": "bool",
          "name": "",
          "type": "bool"
        }
      ],
      "stateMutability": "view",
      "type": "function",
      "constant": true
    }
  ],
  "bytecode": "0x60806040526040518060400160405280600d81526020017f446f63756d656e746174696f6e000000000000000000000000000000000000008152506000908051906020019062000051929190620000b9565b5060006001553480156200006457600080fd5b506040518060400160405280600d81526020017f446f63756d656e746174696f6e0000000000000000000000000000000000000081525060009080519060200190620000b2929190620000b9565b50620001cd565b828054620000c79062000198565b90600052602060002090601f016020900481019282620000eb576000855562000137565b82601f106200010657805160ff191683800117855562000137565b8280016001018555821562000137579182015b828111156200013657825182559160200191906001019062000119565b5b5090506200014691906200014a565b5090565b5b80821115620001655760008160009055506001016200014b565b5090565b7f4e487b7100000000000000000000000000000000000000000000000000000000600052602260045260246000fd5b60006002820490506001821680620001b157607f821691505b602082108103620001c757620001c662000169565b5b50919050565b6123b280620001dd6000396000f3fe608060405234801561001057600080fd5b50600436106100885760003560e01c806345f39d551161005b57806345f39d5514610127578063c0e6740c14610143578063e28afdfc1461015f578063ef1a56681461017d57610088565b806306fdde031461008d5780631d6607b7146100ab57806324dd74b6146100c7578063330ba56a146100f7575b600080fd5b6100956101ad565b6040516100a29190611911565b60405180910390f35b6100c560048036038101906100c091906119db565b61023b565b005b6100e160048036038101906100dc9190611b63565b6106c4565b6040516100ee9190611cc1565b60405180910390f35b610111600480360381019061010c9190611cdc565b61097e565b60405161011e9190611d24565b60405180910390f35b610141600480360381019061013c9190611d3f565b6109a8565b005b61015d60048036038101906101589190611e35565b610f0e565b005b61016761142d565b6040516101749190611cc1565b60405180910390f35b61019760048036038101906101929190611cdc565b611433565b6040516101a4919061205f565b60405180910390f35b600080546101ba906120b0565b80601f01602080910402602001604051908101604052809291908181526020018280546101e6906120b0565b80156102335780601f1061020857610100808354040283529160200191610233565b820191906000526020600020905b81548152906001019060200180831161021657829003601f168201915b505050505081565b600115156102488461097e565b15151461025457600080fd5b600060026000858152602001908152602001600020604051806101800160405290816000820154815260200160018201548152602001600282018054610299906120b0565b80601f01602080910402602001604051908101604052809291908181526020018280546102c5906120b0565b80156103125780601f106102e757610100808354040283529160200191610312565b820191906000526020600020905b8154815290600101906020018083116102f557829003601f168201915b50505050508152602001600382015481526020016004820154815260200160058201548152602001600682018054610349906120b0565b80601f0160208091040260200160405190810160405280929190818152602001828054610375906120b0565b80156103c25780601f10610397576101008083540402835291602001916103c2565b820191906000526020600020905b8154815290600101906020018083116103a557829003601f168201915b50505050508152602001600782015481526020016008820180546103e5906120b0565b80601f0160208091040260200160405190810160405280929190818152602001828054610411906120b0565b801561045e5780601f106104335761010080835404028352916020019161045e565b820191906000526020600020905b81548152906001019060200180831161044157829003601f168201915b50505050508152602001600982018054610477906120b0565b80601f01602080910402602001604051908101604052809291908181526020018280546104a3906120b0565b80156104f05780601f106104c5576101008083540402835291602001916104f0565b820191906000526020600020905b8154815290600101906020018083116104d357829003601f168201915b50505050508152602001600a8201548152602001600b820160009054906101000a900473ffffffffffffffffffffffffffffffffffffffff1673ffffffffffffffffffffffffffffffffffffffff1673ffffffffffffffffffffffffffffffffffffffff16815250509050828160200181815250508060026000868152602001908152602001600020600082015181600001556020820151816001015560408201518160020190805190602001906105a992919061175e565b50606082015181600301556080820151816004015560a0820151816005015560c08201518160060190805190602001906105e492919061175e565b5060e0820151816007015561010082015181600801908051906020019061060c92919061175e565b5061012082015181600901908051906020019061062a92919061175e565b5061014082015181600a015561016082015181600b0160006101000a81548173ffffffffffffffffffffffffffffffffffffffff021916908373ffffffffffffffffffffffffffffffffffffffff1602179055509050507f99ceadde65af29c4045d9fdce70f3cfadec0a1912c8f4c6646f3c94eca2a8348848442856040516106b694939291906120f0565b60405180910390a150505050565b6000606060008073ffffffffffffffffffffffffffffffffffffffff168473ffffffffffffffffffffffffffffffffffffffff160361070257600080fd5b60008b1161070f57600080fd5b60008a1161071c57600080fd5b6000891161072957600080fd5b600088511161073757600080fd5b600086511161074557600080fd5b600085511161075357600080fd5b6000871161076057600080fd5b60008d111561076d578c90505b60008c51111561077b578b91505b6001600081548092919061078e90612164565b919050555060405180610180016040528060015481526020018281526020018381526020018c81526020018b81526020018a81526020018981526020018881526020018781526020018681526020014281526020018573ffffffffffffffffffffffffffffffffffffffff168152506002600060015481526020019081526020016000206000820151816000015560208201518160010155604082015181600201908051906020019061084292919061175e565b50606082015181600301556080820151816004015560a0820151816005015560c082015181600601908051906020019061087d92919061175e565b5060e082015181600701556101008201518160080190805190602001906108a592919061175e565b506101208201518160090190805190602001906108c392919061175e565b5061014082015181600a015561016082015181600b0160006101000a81548173ffffffffffffffffffffffffffffffffffffffff021916908373ffffffffffffffffffffffffffffffffffffffff1602179055509050507f6de7c17bc9d05949090dd3a75fd461cdf5d57572810842d951d8495078651a9360015482848e8e8e8e8e8e8e428f6040516109619c9b9a999897969594939291906121ac565b60405180910390a1600154925050509a9950505050505050505050565b60008082111580610990575060015482115b1561099e57600090506109a3565b600190505b919050565b6000871180156109ba57506001548711155b6109c357600080fd5b600085116109d057600080fd5b60008651116109de57600080fd5b60008451116109ec57600080fd5b60008351116109fa57600080fd5b600073ffffffffffffffffffffffffffffffffffffffff168173ffffffffffffffffffffffffffffffffffffffff1603610a3357600080fd5b600060026000898152602001908152602001600020604051806101800160405290816000820154815260200160018201548152602001600282018054610a78906120b0565b80601f0160208091040260200160405190810160405280929190818152602001828054610aa4906120b0565b8015610af15780601f10610ac657610100808354040283529160200191610af1565b820191906000526020600020905b815481529060010190602001808311610ad457829003601f168201915b50505050508152602001600382015481526020016004820154815260200160058201548152602001600682018054610b28906120b0565b80601f0160208091040260200160405190810160405280929190818152602001828054610b54906120b0565b8015610ba15780601f10610b7657610100808354040283529160200191610ba1565b820191906000526020600020905b815481529060010190602001808311610b8457829003601f168201915b5050505050815260200160078201548152602001600882018054610bc4906120b0565b80601f0160208091040260200160405190810160405280929190818152602001828054610bf0906120b0565b8015610c3d5780601f10610c1257610100808354040283529160200191610c3d565b820191906000526020600020905b815481529060010190602001808311610c2057829003601f168201915b50505050508152602001600982018054610c56906120b0565b80601f0160208091040260200160405190810160405280929190818152602001828054610c82906120b0565b8015610ccf5780601f10610ca457610100808354040283529160200191610ccf565b820191906000526020600020905b815481529060010190602001808311610cb257829003601f168201915b50505050508152602001600a8201548152602001600b820160009054906101000a900473ffffffffffffffffffffffffffffffffffffffff1673ffffffffffffffffffffffffffffffffffffffff1673ffffffffffffffffffffffffffffffffffffffff16815250509050868160c00181905250858160e001818152505083816101200181905250848161010001819052508181610160019073ffffffffffffffffffffffffffffffffffffffff16908173ffffffffffffffffffffffffffffffffffffffff1681525050428161014001818152505080600260008a815260200190815260200160002060008201518160000155602082015181600101556040820151816002019080519060200190610de992919061175e565b50606082015181600301556080820151816004015560a0820151816005015560c0820151816006019080519060200190610e2492919061175e565b5060e08201518160070155610100820151816008019080519060200190610e4c92919061175e565b50610120820151816009019080519060200190610e6a92919061175e565b5061014082015181600a015561016082015181600b0160006101000a81548173ffffffffffffffffffffffffffffffffffffffff021916908373ffffffffffffffffffffffffffffffffffffffff1602179055509050507f0652054092e955846349ca13d38543b7483c7d7bee9a3a7a6eb4f21669cf1a1788888888888888604051610efc9796959493929190612282565b60405180910390a15050505050505050565b60008411610f1b57600080fd5b60008311610f2857600080fd5b60008211610f3557600080fd5b600086118015610f4757506001548611155b610f5057600080fd5b6000855111610f5e57600080fd5b600073ffffffffffffffffffffffffffffffffffffffff168173ffffffffffffffffffffffffffffffffffffffff1603610f9757600080fd5b600060026000888152602001908152602001600020604051806101800160405290816000820154815260200160018201548152602001600282018054610fdc906120b0565b80601f0160208091040260200160405190810160405280929190818152602001828054611008906120b0565b80156110555780601f1061102a57610100808354040283529160200191611055565b820191906000526020600020905b81548152906001019060200180831161103857829003601f168201915b5050505050815260200160038201548152602001600482015481526020016005820154815260200160068201805461108c906120b0565b80601f01602080910402602001604051908101604052809291908181526020018280546110b8906120b0565b80156111055780601f106110da57610100808354040283529160200191611105565b820191906000526020600020905b8154815290600101906020018083116110e857829003601f168201915b5050505050815260200160078201548152602001600882018054611128906120b0565b80601f0160208091040260200160405190810160405280929190818152602001828054611154906120b0565b80156111a15780601f10611176576101008083540402835291602001916111a1565b820191906000526020600020905b81548152906001019060200180831161118457829003601f168201915b505050505081526020016009820180546111ba906120b0565b80601f01602080910402602001604051908101604052809291908181526020018280546111e6906120b0565b80156112335780601f1061120857610100808354040283529160200191611233565b820191906000526020600020905b81548152906001019060200180831161121657829003601f168201915b50505050508152602001600a8201548152602001600b820160009054906101000a900473ffffffffffffffffffffffffffffffffffffffff1673ffffffffffffffffffffffffffffffffffffffff1673ffffffffffffffffffffffffffffffffffffffff168152505090508581604001819052508481606001818152505083816080018181525050828160a001818152505080600260008981526020019081526020016000206000820151816000015560208201518160010155604082015181600201908051906020019061130992919061175e565b50606082015181600301556080820151816004015560a0820151816005015560c082015181600601908051906020019061134492919061175e565b5060e0820151816007015561010082015181600801908051906020019061136c92919061175e565b5061012082015181600901908051906020019061138a92919061175e565b5061014082015181600a015561016082015181600b0160006101000a81548173ffffffffffffffffffffffffffffffffffffffff021916908373ffffffffffffffffffffffffffffffffffffffff1602179055509050507f69600854c77bb787c959d63764638772b9cd331a2ef1d4ef35f9d52b0cb96b358787878787428860405161141c9796959493929190612306565b60405180910390a150505050505050565b60015481565b61143b6117e4565b600115156114488361097e565b15151461145457600080fd5b60026000838152602001908152602001600020604051806101800160405290816000820154815260200160018201548152602001600282018054611497906120b0565b80601f01602080910402602001604051908101604052809291908181526020018280546114c3906120b0565b80156115105780601f106114e557610100808354040283529160200191611510565b820191906000526020600020905b8154815290600101906020018083116114f357829003601f168201915b50505050508152602001600382015481526020016004820154815260200160058201548152602001600682018054611547906120b0565b80601f0160208091040260200160405190810160405280929190818152602001828054611573906120b0565b80156115c05780601f10611595576101008083540402835291602001916115c0565b820191906000526020600020905b8154815290600101906020018083116115a357829003601f168201915b50505050508152602001600782015481526020016008820180546115e3906120b0565b80601f016020809104026020016040519081016040528092919081815260200182805461160f906120b0565b801561165c5780601f106116315761010080835404028352916020019161165c565b820191906000526020600020905b81548152906001019060200180831161163f57829003601f168201915b50505050508152602001600982018054611675906120b0565b80601f01602080910402602001604051908101604052809291908181526020018280546116a1906120b0565b80156116ee5780601f106116c3576101008083540402835291602001916116ee565b820191906000526020600020905b8154815290600101906020018083116116d157829003601f168201915b50505050508152602001600a8201548152602001600b820160009054906101000a900473ffffffffffffffffffffffffffffffffffffffff1673ffffffffffffffffffffffffffffffffffffffff1673ffffffffffffffffffffffffffffffffffffffff16815250509050919050565b82805461176a906120b0565b90600052602060002090601f01602090048101928261178c57600085556117d3565b82601f106117a557805160ff19168380011785556117d3565b828001600101855582156117d3579182015b828111156117d25782518255916020019190600101906117b7565b5b5090506117e0919061185b565b5090565b6040518061018001604052806000815260200160008152602001606081526020016000815260200160008152602001600081526020016060815260200160008152602001606081526020016060815260200160008152602001600073ffffffffffffffffffffffffffffffffffffffff1681525090565b5b8082111561187457600081600090555060010161185c565b5090565b600081519050919050565b600082825260208201905092915050565b60005b838110156118b2578082015181840152602081019050611897565b838111156118c1576000848401525b50505050565b6000601f19601f8301169050919050565b60006118e382611878565b6118ed8185611883565b93506118fd818560208601611894565b611906816118c7565b840191505092915050565b6000602082019050818103600083015261192b81846118d8565b905092915050565b6000604051905090565b600080fd5b600080fd5b6000819050919050565b61195a81611947565b811461196557600080fd5b50565b60008135905061197781611951565b92915050565b600073ffffffffffffffffffffffffffffffffffffffff82169050919050565b60006119a88261197d565b9050919050565b6119b88161199d565b81146119c357600080fd5b50565b6000813590506119d5816119af565b92915050565b6000806000606084860312156119f4576119f361193d565b5b6000611a0286828701611968565b9350506020611a1386828701611968565b9250506040611a24868287016119c6565b9150509250925092565b600080fd5b600080fd5b7f4e487b7100000000000000000000000000000000000000000000000000000000600052604160045260246000fd5b611a70826118c7565b810181811067ffffffffffffffff82111715611a8f57611a8e611a38565b5b80604052505050565b6000611aa2611933565b9050611aae8282611a67565b919050565b600067ffffffffffffffff821115611ace57611acd611a38565b5b611ad7826118c7565b9050602081019050919050565b82818337600083830152505050565b6000611b06611b0184611ab3565b611a98565b905082815260208101848484011115611b2257611b21611a33565b5b611b2d848285611ae4565b509392505050565b600082601f830112611b4a57611b49611a2e565b5b8135611b5a848260208601611af3565b91505092915050565b6000806000806000806000806000806101408b8d031215611b8757611b8661193d565b5b6000611b958d828e01611968565b9a505060208b013567ffffffffffffffff811115611bb657611bb5611942565b5b611bc28d828e01611b35565b9950506040611bd38d828e01611968565b9850506060611be48d828e01611968565b9750506080611bf58d828e01611968565b96505060a08b013567ffffffffffffffff811115611c1657611c15611942565b5b611c228d828e01611b35565b95505060c0611c338d828e01611968565b94505060e08b013567ffffffffffffffff811115611c5457611c53611942565b5b611c608d828e01611b35565b9350506101008b013567ffffffffffffffff811115611c8257611c81611942565b5b611c8e8d828e01611b35565b925050610120611ca08d828e016119c6565b9150509295989b9194979a5092959850565b611cbb81611947565b82525050565b6000602082019050611cd66000830184611cb2565b92915050565b600060208284031215611cf257611cf161193d565b5b6000611d0084828501611968565b91505092915050565b60008115159050919050565b611d1e81611d09565b82525050565b6000602082019050611d396000830184611d15565b92915050565b600080600080600080600060e0888a031215611d5e57611d5d61193d565b5b6000611d6c8a828b01611968565b975050602088013567ffffffffffffffff811115611d8d57611d8c611942565b5b611d998a828b01611b35565b9650506040611daa8a828b01611968565b955050606088013567ffffffffffffffff811115611dcb57611dca611942565b5b611dd78a828b01611b35565b945050608088013567ffffffffffffffff811115611df857611df7611942565b5b611e048a828b01611b35565b93505060a0611e158a828b01611968565b92505060c0611e268a828b016119c6565b91505092959891949750929550565b60008060008060008060c08789031215611e5257611e5161193d565b5b6000611e6089828a01611968565b965050602087013567ffffffffffffffff811115611e8157611e80611942565b5b611e8d89828a01611b35565b9550506040611e9e89828a01611968565b9450506060611eaf89828a01611968565b9350506080611ec089828a01611968565b92505060a0611ed189828a016119c6565b9150509295509295509295565b611ee781611947565b82525050565b600082825260208201905092915050565b6000611f0982611878565b611f138185611eed565b9350611f23818560208601611894565b611f2c816118c7565b840191505092915050565b611f408161199d565b82525050565b600061018083016000830151611f5f6000860182611ede565b506020830151611f726020860182611ede565b5060408301518482036040860152611f8a8282611efe565b9150506060830151611f9f6060860182611ede565b506080830151611fb26080860182611ede565b5060a0830151611fc560a0860182611ede565b5060c083015184820360c0860152611fdd8282611efe565b91505060e0830151611ff260e0860182611ede565b5061010083015184820361010086015261200c8282611efe565b9150506101208301518482036101208601526120288282611efe565b91505061014083015161203f610140860182611ede565b50610160830151612054610160860182611f37565b508091505092915050565b600060208201905081810360008301526120798184611f46565b905092915050565b7f4e487b7100000000000000000000000000000000000000000000000000000000600052602260045260246000fd5b600060028204905060018216806120c857607f821691505b6020821081036120db576120da612081565b5b50919050565b6120ea8161199d565b82525050565b60006080820190506121056000830187611cb2565b6121126020830186611cb2565b61211f6040830185611cb2565b61212c60608301846120e1565b95945050505050565b7f4e487b7100000000000000000000000000000000000000000000000000000000600052601160045260246000fd5b600061216f82611947565b91507fffffffffffffffffffffffffffffffffffffffffffffffffffffffffffffffff82036121a1576121a0612135565b5b600182019050919050565b6000610180820190506121c2600083018f611cb2565b6121cf602083018e611cb2565b81810360408301526121e1818d6118d8565b90506121f0606083018c611cb2565b6121fd608083018b611cb2565b61220a60a083018a611cb2565b81810360c083015261221c81896118d8565b905061222b60e0830188611cb2565b81810361010083015261223e81876118d8565b905081810361012083015261225381866118d8565b9050612263610140830185611cb2565b6122716101608301846120e1565b9d9c50505050505050505050505050565b600060e082019050612297600083018a611cb2565b81810360208301526122a981896118d8565b90506122b86040830188611cb2565b81810360608301526122ca81876118d8565b905081810360808301526122de81866118d8565b90506122ed60a0830185611cb2565b6122fa60c08301846120e1565b98975050505050505050565b600060e08201905061231b600083018a611cb2565b818103602083015261232d81896118d8565b905061233c6040830188611cb2565b6123496060830187611cb2565b6123566080830186611cb2565b61236360a0830185611cb2565b61237060c08301846120e1565b9897505050505050505056fea2646970667358221220d4527d5841f23036911b8f892a8099378c5cce96bad26a3dec4a186f88b64a0864736f6c634300080e0033",
  "immutableReferences": {},
  "source": "// SPDX-License-Identifier: MIT\r\npragma solidity ^0.8.14;\r\n\r\ncontract Description {\r\n    string public name = 'Documentation';\r\n    uint256 public descriptionCount = 0;\r\n    mapping (uint256 => DescriptionObject) private descriptionMap;\r\n    constructor() {\r\n        name = \"Documentation\";\r\n    }\r\n\r\n    struct DescriptionObject {\r\n        uint256 descriptionID;\r\n        uint256 antiqueID;\r\n        //Antique Description Dimension\r\n        string materialCreated;\r\n        uint256 antiqueHeight;\r\n        uint256 antiqueLength;\r\n        uint256 anitqueWidth;\r\n\r\n        //Description File Upload\r\n        string filehash;\r\n        uint256 fileSize;\r\n        string fileType;\r\n        string fileName;\r\n\r\n        uint256 uploadTime;\r\n        address payable uploader;\r\n    }\r\n    event addAntiqueDescription (\r\n        uint256 descriptionID,\r\n        uint256 antiqueObjectID,\r\n\r\n        //Antique Description Dimension\r\n        string materialCreated,\r\n        uint256 antiqueHeight,\r\n        uint256 antiqueLength,\r\n        uint256 anitqueWidth,\r\n\r\n        //Antique Description File Upload\r\n        string filehash,\r\n        uint256 fileSize,\r\n        string fileType,\r\n        string fileName,\r\n\r\n        uint256 uploadTime,\r\n        address payable uploader\r\n    );\r\n\r\n    event updateAntiqueDescription (\r\n        uint256 documentationID,\r\n        string newMaterialCreated,\r\n        uint256 antiqueHeight,\r\n        uint256 antiqueLength,\r\n        uint256 anitqueWidth,\r\n        uint256 uploadTime,\r\n        address payable uploader\r\n    );\r\n\r\n    event updateAntiqueDescriptionFileUpload (\r\n        uint256 descriptionID,\r\n        string filehash,\r\n        uint256 fileSize,\r\n        string fileType,\r\n        string fileName,\r\n        uint256 uploadTime,\r\n        address payable uploader\r\n    );\r\n\r\n    event setAntiqueIDByDescriptionID (\r\n        uint256 descriptionID,\r\n        uint256 antiqueID,\r\n        uint256 uploadTime,\r\n        address payable uploader\r\n    );\r\n\r\n    //POST: Description To Blockchain\r\n\r\n    function  AddDescription\r\n    (\r\n        uint256 _antiqueObjectID,\r\n        string memory _materialCreated,\r\n        uint256 _antiqueHeight,\r\n        uint256 _antiqueLength,\r\n        uint256 _anitqueWidth,\r\n\r\n        string memory _filehash,\r\n        uint256 _fileSize,\r\n        string  memory _fileType,\r\n        string memory _fileName,\r\n        address payable _uploader\r\n        \r\n    )\r\n    public returns (uint256)\r\n    {\r\n        string memory antiqueMaterial;\r\n\r\n        //Initialise Default Antique ID = -1 \r\n        uint256 _antiqueID = 0;\r\n\r\n        require(_uploader != address(0));\r\n        require(_antiqueHeight > 0);\r\n        require(_antiqueLength > 0);\r\n        require(_anitqueWidth > 0);\r\n        require(bytes(_filehash).length > 0);\r\n        require(bytes(_fileType).length > 0);\r\n        require(bytes(_fileName).length > 0);\r\n        require(_fileSize >0);\r\n\r\n        // require(_antiqueObjectID > 0);\r\n        if (_antiqueObjectID > 0)\r\n        {\r\n            _antiqueID = _antiqueObjectID;\r\n        } \r\n\r\n        if (bytes(_materialCreated).length > 0)\r\n        {\r\n            antiqueMaterial = _materialCreated;\r\n        }\r\n        descriptionCount ++;\r\n        \r\n        descriptionMap[descriptionCount] = DescriptionObject (\r\n            descriptionCount,\r\n            _antiqueID,\r\n            antiqueMaterial,\r\n            _antiqueHeight,\r\n            _antiqueLength,\r\n            _anitqueWidth,\r\n            _filehash,\r\n            _fileSize,\r\n            _fileType,\r\n            _fileName,\r\n            block.timestamp,\r\n            _uploader\r\n        );\r\n        emit addAntiqueDescription \r\n        (descriptionCount,\r\n        _antiqueID,\r\n        antiqueMaterial,\r\n        _antiqueHeight,\r\n        _antiqueLength,\r\n        _anitqueWidth,\r\n        _filehash,\r\n        _fileSize,\r\n        _fileType,\r\n        _fileName,\r\n        block.timestamp,\r\n        _uploader); \r\n        return descriptionCount;\r\n    }\r\n\r\n    // PUT:  Description Materials In Blockchain\r\n    function UpdateDescriptionMaterials \r\n    (\r\n        uint256 _descriptionID,\r\n        string memory _newMaterialCreated,\r\n        uint256 _antiqueHeight,\r\n        uint256 _antiqueLength,\r\n        uint256 _anitqueWidth,\r\n        address payable _uploader\r\n    )\r\n    public \r\n    {\r\n        require(_antiqueHeight > 0);\r\n        require(_antiqueLength > 0);\r\n        require(_anitqueWidth > 0);\r\n        require(_descriptionID > 0 && _descriptionID <= descriptionCount);\r\n        require (bytes(_newMaterialCreated).length > 0);\r\n        require(_uploader != address(0));\r\n        DescriptionObject memory _description = descriptionMap[_descriptionID];\r\n        _description.materialCreated = _newMaterialCreated;\r\n        _description.antiqueHeight = _antiqueHeight;\r\n        _description.antiqueLength = _antiqueLength;\r\n        _description.anitqueWidth = _anitqueWidth;\r\n        descriptionMap[_descriptionID] = _description;\r\n        emit updateAntiqueDescription \r\n            (_descriptionID, \r\n            _newMaterialCreated,\r\n            _antiqueHeight,\r\n            _antiqueLength,\r\n            _anitqueWidth,\r\n            block.timestamp,\r\n            _uploader);\r\n    }\r\n\r\n    //PUT: Description Upload File In Blockchain\r\n    function UpdateDescriptionUploadFile\r\n    (\r\n        uint256 _descriptionID,\r\n        string memory _filehash,\r\n        uint256 _fileSize,\r\n        string memory _fileType,\r\n        string memory _fileName,\r\n        uint256 _uploadTime,\r\n        address payable _uploader\r\n    )\r\n    public \r\n    {\r\n        require(_descriptionID > 0 && _descriptionID <= descriptionCount);\r\n        require( _fileSize> 0);\r\n        require (bytes(_filehash).length > 0);\r\n        require (bytes(_fileType).length > 0);\r\n        require (bytes(_fileName).length > 0);\r\n        require(_uploader != address(0));\r\n        DescriptionObject memory _description = descriptionMap[_descriptionID];\r\n        _description.filehash = _filehash;\r\n        _description.fileSize = _fileSize;\r\n        _description.fileName = _fileName;\r\n        _description.fileType = _fileType;\r\n        _description.uploader = _uploader;\r\n        _description.uploadTime = block.timestamp;\r\n        descriptionMap[_descriptionID] = _description;\r\n        emit updateAntiqueDescriptionFileUpload\r\n        (\r\n            _descriptionID,\r\n            _filehash,\r\n            _fileSize,\r\n            _fileType,\r\n            _fileName,\r\n            _uploadTime,\r\n             _uploader\r\n        );\r\n    }\r\n\r\n    //GET Description By ID\r\n    function GetDescriptionByID\r\n    (uint256 _descriptionID)\r\n    external view returns (DescriptionObject memory)\r\n    {\r\n        require (ValidateDescriptionID(_descriptionID) == true);\r\n        return descriptionMap[_descriptionID];\r\n    }\r\n\r\n    //PUT: Antique ID by Description ID \r\n    function SetAntiqueIDByDescriptionID\r\n    (\r\n        uint256 _descriptionID,\r\n        uint256 _newAntiqueID,\r\n        address payable _uploader\r\n    )\r\n    external \r\n    {\r\n        require(ValidateDescriptionID(_descriptionID) == true);\r\n        DescriptionObject memory _descriptionData = descriptionMap[_descriptionID];\r\n        _descriptionData.antiqueID = _newAntiqueID;\r\n        //Update To the Blockchain\r\n        descriptionMap[_descriptionID] = _descriptionData;\r\n        emit setAntiqueIDByDescriptionID (_descriptionID,_newAntiqueID,block.timestamp,_uploader);\r\n    }\r\n\r\n    //Validate Description ID \r\n    function ValidateDescriptionID \r\n    (uint _descriptionID)\r\n    public view returns (bool)\r\n    {\r\n        if (_descriptionID <= 0 || _descriptionID > descriptionCount)\r\n        {\r\n            return false;\r\n        }\r\n            \r\n        // DescriptionObject memory _descriptionData = descriptionMap[_descriptionID];\r\n        // if(_descriptionData.antiqueID <= 0)\r\n        // {\r\n        //     return false;\r\n        // }\r\n        return true; \r\n    }\r\n\r\n\r\n\r\n}\r\n",
  "sourcePath": "C:\\Users\\Natha\\OneDrive - The University of Sydney (Students)\\University of Sydney Materials\\Studying\\Year 5\\Semester 1\\Thesis B\\Thesis B Project Code\\truffle\\contracts\\Database\\Description.sol",
  "compiler": {
    "name": "solc",
    "version": "0.8.14+commit.80d49f37.Emscripten.clang"
  },
  "schemaVersion": "3.4.11",
  "updatedAt": "2023-02-21T13:19:47.206Z",
  "networkType": "ethereum",
  "devdoc": {
    "kind": "dev",
    "methods": {},
    "version": 1
  },
  "userdoc": {
    "kind": "user",
    "methods": {},
    "version": 1
  }
}