{
  "contractName": "Description",
  "abi": [
    {
      "inputs": [],
      "stateMutability": "nonpayable",
      "type": "constructor"
    },
    {
      "anonymous": false,
      "inputs": [
        {
          "indexed": false,
          "internalType": "uint256",
          "name": "descriptionID",
          "type": "uint256"
        },
        {
          "indexed": false,
          "internalType": "uint256",
          "name": "antiqueObjectID",
          "type": "uint256"
        },
        {
          "indexed": false,
          "internalType": "string",
          "name": "materialCreated",
          "type": "string"
        },
        {
          "indexed": false,
          "internalType": "address payable",
          "name": "uploader",
          "type": "address"
        }
      ],
      "name": "addAntiqueDescription",
      "type": "event"
    },
    {
      "anonymous": false,
      "inputs": [
        {
          "indexed": false,
          "internalType": "uint256",
          "name": "descriptionID",
          "type": "uint256"
        },
        {
          "indexed": false,
          "internalType": "uint256",
          "name": "antiqueID",
          "type": "uint256"
        },
        {
          "indexed": false,
          "internalType": "uint256",
          "name": "uploadTime",
          "type": "uint256"
        },
        {
          "indexed": false,
          "internalType": "address payable",
          "name": "uploader",
          "type": "address"
        }
      ],
      "name": "setAntiqueIDByDescriptionID",
      "type": "event"
    },
    {
      "anonymous": false,
      "inputs": [
        {
          "indexed": false,
          "internalType": "uint256",
          "name": "documentationID",
          "type": "uint256"
        },
        {
          "indexed": false,
          "internalType": "string",
          "name": "newMaterialCreated",
          "type": "string"
        },
        {
          "indexed": false,
          "internalType": "address payable",
          "name": "uploader",
          "type": "address"
        }
      ],
      "name": "updateAntiqueDescription",
      "type": "event"
    },
    {
      "inputs": [],
      "name": "descriptionCount",
      "outputs": [
        {
          "internalType": "uint256",
          "name": "",
          "type": "uint256"
        }
      ],
      "stateMutability": "view",
      "type": "function",
      "constant": true
    },
    {
      "inputs": [],
      "name": "name",
      "outputs": [
        {
          "internalType": "string",
          "name": "",
          "type": "string"
        }
      ],
      "stateMutability": "view",
      "type": "function",
      "constant": true
    },
    {
      "inputs": [
        {
          "internalType": "uint256",
          "name": "_antiqueObjectID",
          "type": "uint256"
        },
        {
          "internalType": "string",
          "name": "_materialCreated",
          "type": "string"
        },
        {
          "internalType": "address payable",
          "name": "_uploader",
          "type": "address"
        }
      ],
      "name": "AddDescription",
      "outputs": [
        {
          "internalType": "uint256",
          "name": "",
          "type": "uint256"
        }
      ],
      "stateMutability": "nonpayable",
      "type": "function"
    },
    {
      "inputs": [
        {
          "internalType": "uint256",
          "name": "_descriptionID",
          "type": "uint256"
        },
        {
          "internalType": "string",
          "name": "_newMaterialCreated",
          "type": "string"
        },
        {
          "internalType": "address payable",
          "name": "_uploader",
          "type": "address"
        }
      ],
      "name": "UpdateDescriptionMaterials",
      "outputs": [],
      "stateMutability": "nonpayable",
      "type": "function"
    },
    {
      "inputs": [
        {
          "internalType": "uint256",
          "name": "_descriptionID",
          "type": "uint256"
        }
      ],
      "name": "GetDescriptionByID",
      "outputs": [
        {
          "components": [
            {
              "internalType": "uint256",
              "name": "descriptionID",
              "type": "uint256"
            },
            {
              "internalType": "uint256",
              "name": "antiqueID",
              "type": "uint256"
            },
            {
              "internalType": "string",
              "name": "materialCreated",
              "type": "string"
            },
            {
              "internalType": "uint256",
              "name": "uploadTime",
              "type": "uint256"
            },
            {
              "internalType": "address payable",
              "name": "uploader",
              "type": "address"
            }
          ],
          "internalType": "struct Description.DescriptionObject",
          "name": "",
          "type": "tuple"
        }
      ],
      "stateMutability": "view",
      "type": "function",
      "constant": true
    },
    {
      "inputs": [
        {
          "internalType": "uint256",
          "name": "_descriptionID",
          "type": "uint256"
        },
        {
          "internalType": "uint256",
          "name": "_newAntiqueID",
          "type": "uint256"
        },
        {
          "internalType": "address payable",
          "name": "_uploader",
          "type": "address"
        }
      ],
      "name": "SetAntiqueIDByDescriptionID",
      "outputs": [],
      "stateMutability": "nonpayable",
      "type": "function"
    },
    {
      "inputs": [
        {
          "internalType": "uint256",
          "name": "_descriptionID",
          "type": "uint256"
        }
      ],
      "name": "ValidateDescriptionID",
      "outputs": [
        {
          "internalType": "bool",
          "name": "",
          "type": "bool"
        }
      ],
      "stateMutability": "view",
      "type": "function",
      "constant": true
    }
  ],
  "bytecode": "0x60806040526040518060400160405280600d81526020017f446f63756d656e746174696f6e000000000000000000000000000000000000008152506000908051906020019062000051929190620000b9565b5060006001553480156200006457600080fd5b506040518060400160405280600d81526020017f446f63756d656e746174696f6e0000000000000000000000000000000000000081525060009080519060200190620000b2929190620000b9565b50620001cd565b828054620000c79062000198565b90600052602060002090601f016020900481019282620000eb576000855562000137565b82601f106200010657805160ff191683800117855562000137565b8280016001018555821562000137579182015b828111156200013657825182559160200191906001019062000119565b5b5090506200014691906200014a565b5090565b5b80821115620001655760008160009055506001016200014b565b5090565b7f4e487b7100000000000000000000000000000000000000000000000000000000600052602260045260246000fd5b60006002820490506001821680620001b157607f821691505b602082108103620001c757620001c662000169565b5b50919050565b61117580620001dd6000396000f3fe608060405234801561001057600080fd5b506004361061007d5760003560e01c8063540c74ec1161005b578063540c74ec146100ec578063697d37f714610108578063e28afdfc14610138578063ef1a5668146101565761007d565b806306fdde03146100825780631d6607b7146100a0578063330ba56a146100bc575b600080fd5b61008a610186565b6040516100979190610b3c565b60405180910390f35b6100ba60048036038101906100b59190610c06565b610214565b005b6100d660048036038101906100d19190610c59565b61043b565b6040516100e39190610ca1565b60405180910390f35b61010660048036038101906101019190610df1565b610465565b005b610122600480360381019061011d9190610df1565b6106d2565b60405161012f9190610e6f565b60405180910390f35b610140610869565b60405161014d9190610e6f565b60405180910390f35b610170600480360381019061016b9190610c59565b61086f565b60405161017d9190610f68565b60405180910390f35b6000805461019390610fb9565b80601f01602080910402602001604051908101604052809291908181526020018280546101bf90610fb9565b801561020c5780601f106101e15761010080835404028352916020019161020c565b820191906000526020600020905b8154815290600101906020018083116101ef57829003601f168201915b505050505081565b600115156102218461043b565b15151461022d57600080fd5b6000600260008581526020019081526020016000206040518060a0016040529081600082015481526020016001820154815260200160028201805461027190610fb9565b80601f016020809104026020016040519081016040528092919081815260200182805461029d90610fb9565b80156102ea5780601f106102bf576101008083540402835291602001916102ea565b820191906000526020600020905b8154815290600101906020018083116102cd57829003601f168201915b50505050508152602001600382015481526020016004820160009054906101000a900473ffffffffffffffffffffffffffffffffffffffff1673ffffffffffffffffffffffffffffffffffffffff1673ffffffffffffffffffffffffffffffffffffffff16815250509050828160200181815250508060026000868152602001908152602001600020600082015181600001556020820151816001015560408201518160020190805190602001906103a39291906109bb565b506060820151816003015560808201518160040160006101000a81548173ffffffffffffffffffffffffffffffffffffffff021916908373ffffffffffffffffffffffffffffffffffffffff1602179055509050507f99ceadde65af29c4045d9fdce70f3cfadec0a1912c8f4c6646f3c94eca2a83488484428560405161042d9493929190610ff9565b60405180910390a150505050565b6000808211158061044d575060015482115b1561045b5760009050610460565b600190505b919050565b60008311801561047757506001548311155b61048057600080fd5b600082511161048e57600080fd5b600073ffffffffffffffffffffffffffffffffffffffff168173ffffffffffffffffffffffffffffffffffffffff16036104c757600080fd5b6000600260008581526020019081526020016000206040518060a0016040529081600082015481526020016001820154815260200160028201805461050b90610fb9565b80601f016020809104026020016040519081016040528092919081815260200182805461053790610fb9565b80156105845780601f1061055957610100808354040283529160200191610584565b820191906000526020600020905b81548152906001019060200180831161056757829003601f168201915b50505050508152602001600382015481526020016004820160009054906101000a900473ffffffffffffffffffffffffffffffffffffffff1673ffffffffffffffffffffffffffffffffffffffff1673ffffffffffffffffffffffffffffffffffffffff1681525050905082816040018190525080600260008681526020019081526020016000206000820151816000015560208201518160010155604082015181600201908051906020019061063c9291906109bb565b506060820151816003015560808201518160040160006101000a81548173ffffffffffffffffffffffffffffffffffffffff021916908373ffffffffffffffffffffffffffffffffffffffff1602179055509050507f17915ef8086651997dc9a51652fafcda7a028200c5d72214eec1c7cd56546ab18484846040516106c49392919061103e565b60405180910390a150505050565b6000606060008073ffffffffffffffffffffffffffffffffffffffff168473ffffffffffffffffffffffffffffffffffffffff160361071057600080fd5b600086111561071d578590505b60008551111561072b578491505b6001600081548092919061073e906110ab565b91905055506040518060a0016040528060015481526020018281526020018381526020014281526020018573ffffffffffffffffffffffffffffffffffffffff16815250600260006001548152602001908152602001600020600082015181600001556020820151816001015560408201518160020190805190602001906107c79291906109bb565b506060820151816003015560808201518160040160006101000a81548173ffffffffffffffffffffffffffffffffffffffff021916908373ffffffffffffffffffffffffffffffffffffffff1602179055509050507fc67cdce5e692493b16f0f1eaa9c77340024dbfb3863bf5fca8e18221fb628da760015482848760405161085394939291906110f3565b60405180910390a1600154925050509392505050565b60015481565b610877610a41565b600115156108848361043b565b15151461089057600080fd5b600260008381526020019081526020016000206040518060a001604052908160008201548152602001600182015481526020016002820180546108d290610fb9565b80601f01602080910402602001604051908101604052809291908181526020018280546108fe90610fb9565b801561094b5780601f106109205761010080835404028352916020019161094b565b820191906000526020600020905b81548152906001019060200180831161092e57829003601f168201915b50505050508152602001600382015481526020016004820160009054906101000a900473ffffffffffffffffffffffffffffffffffffffff1673ffffffffffffffffffffffffffffffffffffffff1673ffffffffffffffffffffffffffffffffffffffff16815250509050919050565b8280546109c790610fb9565b90600052602060002090601f0160209004810192826109e95760008555610a30565b82601f10610a0257805160ff1916838001178555610a30565b82800160010185558215610a30579182015b82811115610a2f578251825591602001919060010190610a14565b5b509050610a3d9190610a86565b5090565b6040518060a0016040528060008152602001600081526020016060815260200160008152602001600073ffffffffffffffffffffffffffffffffffffffff1681525090565b5b80821115610a9f576000816000905550600101610a87565b5090565b600081519050919050565b600082825260208201905092915050565b60005b83811015610add578082015181840152602081019050610ac2565b83811115610aec576000848401525b50505050565b6000601f19601f8301169050919050565b6000610b0e82610aa3565b610b188185610aae565b9350610b28818560208601610abf565b610b3181610af2565b840191505092915050565b60006020820190508181036000830152610b568184610b03565b905092915050565b6000604051905090565b600080fd5b600080fd5b6000819050919050565b610b8581610b72565b8114610b9057600080fd5b50565b600081359050610ba281610b7c565b92915050565b600073ffffffffffffffffffffffffffffffffffffffff82169050919050565b6000610bd382610ba8565b9050919050565b610be381610bc8565b8114610bee57600080fd5b50565b600081359050610c0081610bda565b92915050565b600080600060608486031215610c1f57610c1e610b68565b5b6000610c2d86828701610b93565b9350506020610c3e86828701610b93565b9250506040610c4f86828701610bf1565b9150509250925092565b600060208284031215610c6f57610c6e610b68565b5b6000610c7d84828501610b93565b91505092915050565b60008115159050919050565b610c9b81610c86565b82525050565b6000602082019050610cb66000830184610c92565b92915050565b600080fd5b600080fd5b7f4e487b7100000000000000000000000000000000000000000000000000000000600052604160045260246000fd5b610cfe82610af2565b810181811067ffffffffffffffff82111715610d1d57610d1c610cc6565b5b80604052505050565b6000610d30610b5e565b9050610d3c8282610cf5565b919050565b600067ffffffffffffffff821115610d5c57610d5b610cc6565b5b610d6582610af2565b9050602081019050919050565b82818337600083830152505050565b6000610d94610d8f84610d41565b610d26565b905082815260208101848484011115610db057610daf610cc1565b5b610dbb848285610d72565b509392505050565b600082601f830112610dd857610dd7610cbc565b5b8135610de8848260208601610d81565b91505092915050565b600080600060608486031215610e0a57610e09610b68565b5b6000610e1886828701610b93565b935050602084013567ffffffffffffffff811115610e3957610e38610b6d565b5b610e4586828701610dc3565b9250506040610e5686828701610bf1565b9150509250925092565b610e6981610b72565b82525050565b6000602082019050610e846000830184610e60565b92915050565b610e9381610b72565b82525050565b600082825260208201905092915050565b6000610eb582610aa3565b610ebf8185610e99565b9350610ecf818560208601610abf565b610ed881610af2565b840191505092915050565b610eec81610bc8565b82525050565b600060a083016000830151610f0a6000860182610e8a565b506020830151610f1d6020860182610e8a565b5060408301518482036040860152610f358282610eaa565b9150506060830151610f4a6060860182610e8a565b506080830151610f5d6080860182610ee3565b508091505092915050565b60006020820190508181036000830152610f828184610ef2565b905092915050565b7f4e487b7100000000000000000000000000000000000000000000000000000000600052602260045260246000fd5b60006002820490506001821680610fd157607f821691505b602082108103610fe457610fe3610f8a565b5b50919050565b610ff381610bc8565b82525050565b600060808201905061100e6000830187610e60565b61101b6020830186610e60565b6110286040830185610e60565b6110356060830184610fea565b95945050505050565b60006060820190506110536000830186610e60565b81810360208301526110658185610b03565b90506110746040830184610fea565b949350505050565b7f4e487b7100000000000000000000000000000000000000000000000000000000600052601160045260246000fd5b60006110b682610b72565b91507fffffffffffffffffffffffffffffffffffffffffffffffffffffffffffffffff82036110e8576110e761107c565b5b600182019050919050565b60006080820190506111086000830187610e60565b6111156020830186610e60565b81810360408301526111278185610b03565b90506111366060830184610fea565b9594505050505056fea2646970667358221220d996f497db11afdcc326d288e30efc09d5d7b4f54cf328e93a9cbf873410e1fb64736f6c634300080e0033",
  "immutableReferences": {},
  "source": "// SPDX-License-Identifier: MIT\r\npragma solidity ^0.8.14;\r\n\r\ncontract Description {\r\n    string public name = 'Documentation';\r\n    uint256 public descriptionCount = 0;\r\n    mapping (uint256 => DescriptionObject) private descriptionMap;\r\n    constructor() {\r\n        name = \"Documentation\";\r\n    }\r\n\r\n    struct DescriptionObject {\r\n        uint256 descriptionID;\r\n        uint256 antiqueID;\r\n        string materialCreated;\r\n        uint256 uploadTime;\r\n        address payable uploader;\r\n    }\r\n    event addAntiqueDescription (\r\n        uint256 descriptionID,\r\n        uint256 antiqueObjectID,\r\n        string materialCreated,\r\n        address payable uploader\r\n    );\r\n    event updateAntiqueDescription (\r\n        uint256 documentationID,\r\n        string newMaterialCreated,\r\n        address payable uploader\r\n    );\r\n\r\n    event setAntiqueIDByDescriptionID (\r\n        uint256 descriptionID,\r\n        uint256 antiqueID,\r\n        uint256 uploadTime,\r\n        address payable uploader\r\n    );\r\n\r\n    //POST: Description To Blockchain\r\n\r\n    function  AddDescription\r\n    (\r\n        uint256 _antiqueObjectID,\r\n        string memory _materialCreated,\r\n        address payable _uploader\r\n    )\r\n    public returns (uint256)\r\n    {\r\n        string memory antiqueMaterial;\r\n\r\n        //Initialise Default Antique ID = -1 \r\n        uint256 _antiqueID = 0;\r\n\r\n        require(_uploader != address(0));\r\n        // require(_antiqueObjectID > 0);\r\n        if (_antiqueObjectID > 0)\r\n        {\r\n            _antiqueID = _antiqueObjectID;\r\n        } \r\n\r\n        if (bytes(_materialCreated).length > 0)\r\n        {\r\n            antiqueMaterial = _materialCreated;\r\n        }\r\n        descriptionCount ++;\r\n        \r\n        descriptionMap[descriptionCount] = DescriptionObject (\r\n            descriptionCount,\r\n            _antiqueID,\r\n            antiqueMaterial,\r\n            block.timestamp,\r\n            _uploader\r\n        );\r\n        emit addAntiqueDescription (descriptionCount,_antiqueID,antiqueMaterial,_uploader); \r\n        return descriptionCount;\r\n    }\r\n\r\n    // PUT:  Description Materials In Blockchain\r\n    function UpdateDescriptionMaterials \r\n    (\r\n        uint256 _descriptionID,\r\n        string memory _newMaterialCreated,\r\n        address payable _uploader\r\n    )\r\n    public \r\n    {\r\n        require(_descriptionID > 0 && _descriptionID <= descriptionCount);\r\n        require (bytes(_newMaterialCreated).length > 0);\r\n        require(_uploader != address(0));\r\n        DescriptionObject memory _description = descriptionMap[_descriptionID];\r\n        _description.materialCreated = _newMaterialCreated;\r\n        descriptionMap[_descriptionID] = _description;\r\n        emit updateAntiqueDescription (_descriptionID , _newMaterialCreated, _uploader);\r\n    }\r\n\r\n    //GET Description By ID\r\n    function GetDescriptionByID\r\n    (uint256 _descriptionID)\r\n    external view returns (DescriptionObject memory)\r\n    {\r\n        require (ValidateDescriptionID(_descriptionID) == true);\r\n        return descriptionMap[_descriptionID];\r\n    }\r\n\r\n    //PUT: Antique ID by Description ID \r\n    function SetAntiqueIDByDescriptionID\r\n    (\r\n        uint256 _descriptionID,\r\n        uint256 _newAntiqueID,\r\n        address payable _uploader\r\n    )\r\n    external \r\n    {\r\n        require(ValidateDescriptionID(_descriptionID) == true);\r\n        DescriptionObject memory _descriptionData = descriptionMap[_descriptionID];\r\n        _descriptionData.antiqueID = _newAntiqueID;\r\n        //Update To the Blockchain\r\n        descriptionMap[_descriptionID] = _descriptionData;\r\n        emit setAntiqueIDByDescriptionID (_descriptionID,_newAntiqueID,block.timestamp,_uploader);\r\n    }\r\n\r\n    //Validate Description ID \r\n    function ValidateDescriptionID \r\n    (uint _descriptionID)\r\n    public view returns (bool)\r\n    {\r\n        if (_descriptionID <= 0 || _descriptionID > descriptionCount)\r\n        {\r\n            return false;\r\n        }\r\n            \r\n        // DescriptionObject memory _descriptionData = descriptionMap[_descriptionID];\r\n        // if(_descriptionData.antiqueID <= 0)\r\n        // {\r\n        //     return false;\r\n        // }\r\n        return true; \r\n    }\r\n\r\n\r\n\r\n}\r\n",
  "sourcePath": "C:\\Users\\Natha\\OneDrive - The University of Sydney (Students)\\University of Sydney Materials\\Studying\\Year 5\\Semester 1\\Thesis B\\Thesis B Project Code\\truffle\\contracts\\Database\\Description.sol",
  "compiler": {
    "name": "solc",
    "version": "0.8.14+commit.80d49f37.Emscripten.clang"
  },
  "schemaVersion": "3.4.11",
  "updatedAt": "2023-01-27T13:30:23.443Z",
  "networkType": "ethereum",
  "devdoc": {
    "kind": "dev",
    "methods": {},
    "version": 1
  },
  "userdoc": {
    "kind": "user",
    "methods": {},
    "version": 1
  }
}