{
  "contractName": "Verification",
  "abi": [
    {
      "inputs": [],
      "stateMutability": "nonpayable",
      "type": "constructor"
    },
    {
      "anonymous": false,
      "inputs": [
        {
          "indexed": false,
          "internalType": "uint256",
          "name": "verificationID",
          "type": "uint256"
        },
        {
          "indexed": false,
          "internalType": "uint256",
          "name": "antiqueID",
          "type": "uint256"
        },
        {
          "indexed": false,
          "internalType": "uint256",
          "name": "newUploadTime",
          "type": "uint256"
        },
        {
          "indexed": false,
          "internalType": "address payable",
          "name": "uploader",
          "type": "address"
        }
      ],
      "name": "SetAntiqueID",
      "type": "event"
    },
    {
      "anonymous": false,
      "inputs": [
        {
          "indexed": false,
          "internalType": "uint256",
          "name": "verificationID",
          "type": "uint256"
        },
        {
          "indexed": false,
          "internalType": "address payable",
          "name": "ownerAddress",
          "type": "address"
        },
        {
          "indexed": false,
          "internalType": "uint256",
          "name": "ownerID",
          "type": "uint256"
        },
        {
          "indexed": false,
          "internalType": "string",
          "name": "appraiserUsername",
          "type": "string"
        },
        {
          "indexed": false,
          "internalType": "uint256",
          "name": "ioTDeviceID",
          "type": "uint256"
        },
        {
          "indexed": false,
          "internalType": "string",
          "name": "estimateManufactureYears",
          "type": "string"
        },
        {
          "indexed": false,
          "internalType": "string",
          "name": "antiqueRareness",
          "type": "string"
        },
        {
          "indexed": false,
          "internalType": "string",
          "name": "antiqueAuthenticity",
          "type": "string"
        },
        {
          "indexed": false,
          "internalType": "string",
          "name": "antiqueRealness",
          "type": "string"
        },
        {
          "indexed": false,
          "internalType": "uint256",
          "name": "uploadTime",
          "type": "uint256"
        },
        {
          "indexed": false,
          "internalType": "address payable",
          "name": "uploader",
          "type": "address"
        }
      ],
      "name": "VerificationAdded",
      "type": "event"
    },
    {
      "anonymous": false,
      "inputs": [
        {
          "indexed": false,
          "internalType": "uint256",
          "name": "verificationID",
          "type": "uint256"
        },
        {
          "indexed": false,
          "internalType": "address payable",
          "name": "newOwnerAddress",
          "type": "address"
        },
        {
          "indexed": false,
          "internalType": "uint256",
          "name": "newOwnerID",
          "type": "uint256"
        },
        {
          "indexed": false,
          "internalType": "string",
          "name": "appraiserUsername",
          "type": "string"
        },
        {
          "indexed": false,
          "internalType": "uint256",
          "name": "newIoTDeviceID",
          "type": "uint256"
        },
        {
          "indexed": false,
          "internalType": "string",
          "name": "newEstimateManufactureYears",
          "type": "string"
        },
        {
          "indexed": false,
          "internalType": "string",
          "name": "newAntiqueRareness",
          "type": "string"
        },
        {
          "indexed": false,
          "internalType": "string",
          "name": "newAntiqueAuthenticity",
          "type": "string"
        },
        {
          "indexed": false,
          "internalType": "string",
          "name": "newAntiqueRealness",
          "type": "string"
        },
        {
          "indexed": false,
          "internalType": "uint256",
          "name": "newUploadTime",
          "type": "uint256"
        },
        {
          "indexed": false,
          "internalType": "address payable",
          "name": "newUploader",
          "type": "address"
        }
      ],
      "name": "VerificationUpdated",
      "type": "event"
    },
    {
      "inputs": [
        {
          "internalType": "uint256",
          "name": "",
          "type": "uint256"
        }
      ],
      "name": "VerificateionMap",
      "outputs": [
        {
          "internalType": "uint256",
          "name": "verificationID",
          "type": "uint256"
        },
        {
          "internalType": "uint256",
          "name": "antiqueID",
          "type": "uint256"
        },
        {
          "internalType": "address payable",
          "name": "ownerAddress",
          "type": "address"
        },
        {
          "internalType": "uint256",
          "name": "ownerID",
          "type": "uint256"
        },
        {
          "internalType": "string",
          "name": "appraiserUsername",
          "type": "string"
        },
        {
          "internalType": "uint256",
          "name": "ioTDeviceID",
          "type": "uint256"
        },
        {
          "internalType": "string",
          "name": "estimateManufactureYears",
          "type": "string"
        },
        {
          "internalType": "string",
          "name": "antiqueRareness",
          "type": "string"
        },
        {
          "internalType": "string",
          "name": "antiqueAuthenticity",
          "type": "string"
        },
        {
          "internalType": "string",
          "name": "antiqueRealness",
          "type": "string"
        },
        {
          "internalType": "uint256",
          "name": "uploadTime",
          "type": "uint256"
        },
        {
          "internalType": "address payable",
          "name": "uploader",
          "type": "address"
        }
      ],
      "stateMutability": "view",
      "type": "function",
      "constant": true
    },
    {
      "inputs": [],
      "name": "name",
      "outputs": [
        {
          "internalType": "string",
          "name": "",
          "type": "string"
        }
      ],
      "stateMutability": "view",
      "type": "function",
      "constant": true
    },
    {
      "inputs": [],
      "name": "verificationCount",
      "outputs": [
        {
          "internalType": "uint256",
          "name": "",
          "type": "uint256"
        }
      ],
      "stateMutability": "view",
      "type": "function",
      "constant": true
    },
    {
      "inputs": [
        {
          "internalType": "address payable",
          "name": "_ownerAddress",
          "type": "address"
        },
        {
          "internalType": "uint256",
          "name": "_ownerID",
          "type": "uint256"
        },
        {
          "internalType": "string",
          "name": "_appraiserUsername",
          "type": "string"
        },
        {
          "internalType": "uint256",
          "name": "_ioTDeviceID",
          "type": "uint256"
        },
        {
          "internalType": "string",
          "name": "_estimateManufactureYears",
          "type": "string"
        },
        {
          "internalType": "string",
          "name": "_antiqueRareness",
          "type": "string"
        },
        {
          "internalType": "string",
          "name": "_antiqueAuthenticity",
          "type": "string"
        },
        {
          "internalType": "string",
          "name": "_antiqueRealness",
          "type": "string"
        },
        {
          "internalType": "address payable",
          "name": "_uploader",
          "type": "address"
        }
      ],
      "name": "AddVerification",
      "outputs": [
        {
          "internalType": "uint256",
          "name": "",
          "type": "uint256"
        }
      ],
      "stateMutability": "nonpayable",
      "type": "function"
    },
    {
      "inputs": [
        {
          "internalType": "uint256",
          "name": "_verificationID",
          "type": "uint256"
        },
        {
          "internalType": "address payable",
          "name": "_newOwnerAddress",
          "type": "address"
        },
        {
          "internalType": "uint256",
          "name": "_newOwnerID",
          "type": "uint256"
        },
        {
          "internalType": "string",
          "name": "_appraiserUsername",
          "type": "string"
        },
        {
          "internalType": "uint256",
          "name": "_newIoTDeviceID",
          "type": "uint256"
        },
        {
          "internalType": "string",
          "name": "_newEstimateManufactureYears",
          "type": "string"
        },
        {
          "internalType": "string",
          "name": "_newAntiqueRareness",
          "type": "string"
        },
        {
          "internalType": "string",
          "name": "_newAntiqueAuthenticity",
          "type": "string"
        },
        {
          "internalType": "string",
          "name": "_newAntiqueRealness",
          "type": "string"
        },
        {
          "internalType": "address payable",
          "name": "_uploader",
          "type": "address"
        }
      ],
      "name": "UpdateVerification",
      "outputs": [],
      "stateMutability": "nonpayable",
      "type": "function"
    },
    {
      "inputs": [
        {
          "internalType": "uint256",
          "name": "_verificationID",
          "type": "uint256"
        }
      ],
      "name": "GetVerificationByID",
      "outputs": [
        {
          "components": [
            {
              "internalType": "uint256",
              "name": "verificationID",
              "type": "uint256"
            },
            {
              "internalType": "uint256",
              "name": "antiqueID",
              "type": "uint256"
            },
            {
              "internalType": "address payable",
              "name": "ownerAddress",
              "type": "address"
            },
            {
              "internalType": "uint256",
              "name": "ownerID",
              "type": "uint256"
            },
            {
              "internalType": "string",
              "name": "appraiserUsername",
              "type": "string"
            },
            {
              "internalType": "uint256",
              "name": "ioTDeviceID",
              "type": "uint256"
            },
            {
              "internalType": "string",
              "name": "estimateManufactureYears",
              "type": "string"
            },
            {
              "internalType": "string",
              "name": "antiqueRareness",
              "type": "string"
            },
            {
              "internalType": "string",
              "name": "antiqueAuthenticity",
              "type": "string"
            },
            {
              "internalType": "string",
              "name": "antiqueRealness",
              "type": "string"
            },
            {
              "internalType": "uint256",
              "name": "uploadTime",
              "type": "uint256"
            },
            {
              "internalType": "address payable",
              "name": "uploader",
              "type": "address"
            }
          ],
          "internalType": "struct Verification.VerificateionObject",
          "name": "",
          "type": "tuple"
        }
      ],
      "stateMutability": "view",
      "type": "function",
      "constant": true
    },
    {
      "inputs": [
        {
          "internalType": "uint256",
          "name": "_verificationID",
          "type": "uint256"
        }
      ],
      "name": "ValidateVerificationID",
      "outputs": [
        {
          "internalType": "bool",
          "name": "",
          "type": "bool"
        }
      ],
      "stateMutability": "view",
      "type": "function",
      "constant": true
    },
    {
      "inputs": [
        {
          "internalType": "uint256",
          "name": "_verificationID",
          "type": "uint256"
        },
        {
          "internalType": "uint256",
          "name": "_antiqueID",
          "type": "uint256"
        },
        {
          "internalType": "address payable",
          "name": "_uploader",
          "type": "address"
        }
      ],
      "name": "SetAntiqueIDByVerificationID",
      "outputs": [],
      "stateMutability": "nonpayable",
      "type": "function"
    },
    {
      "inputs": [
        {
          "internalType": "string",
          "name": "str1",
          "type": "string"
        },
        {
          "internalType": "string",
          "name": "str2",
          "type": "string"
        }
      ],
      "name": "compare",
      "outputs": [
        {
          "internalType": "bool",
          "name": "",
          "type": "bool"
        }
      ],
      "stateMutability": "pure",
      "type": "function",
      "constant": true
    }
  ],
  "bytecode": "0x60806040526040518060400160405280600c81526020017f566572696669636174696f6e00000000000000000000000000000000000000008152506000908051906020019062000051929190620000b9565b5060006001553480156200006457600080fd5b506040518060400160405280600c81526020017f566572696669636174696f6e000000000000000000000000000000000000000081525060009080519060200190620000b2929190620000b9565b50620001cd565b828054620000c79062000198565b90600052602060002090601f016020900481019282620000eb576000855562000137565b82601f106200010657805160ff191683800117855562000137565b8280016001018555821562000137579182015b828111156200013657825182559160200191906001019062000119565b5b5090506200014691906200014a565b5090565b5b80821115620001655760008160009055506001016200014b565b5090565b7f4e487b7100000000000000000000000000000000000000000000000000000000600052602260045260246000fd5b60006002820490506001821680620001b157607f821691505b602082108103620001c757620001c662000169565b5b50919050565b612b7780620001dd6000396000f3fe608060405234801561001057600080fd5b50600436106100935760003560e01c80633a96fdd7116100665780633a96fdd71461010c5780638d72ae4f1461013c578063c42865f214610177578063d27fbe47146101a7578063db15b787146101d757610093565b806306fdde03146100985780630830e22e146100b65780630bb6c06b146100d45780631e02d1d6146100f0575b600080fd5b6100a0610207565b6040516100ad9190612056565b60405180910390f35b6100be610295565b6040516100cb9190612091565b60405180910390f35b6100ee60048036038101906100e9919061214a565b61029b565b005b61010a600480360381019061010591906122d2565b610855565b005b6101266004803603810190610121919061243d565b610f7b565b60405161013391906124d0565b60405180910390f35b610156600480360381019061015191906124eb565b610fe7565b60405161016e9c9b9a99989796959493929190612527565b60405180910390f35b610191600480360381019061018c9190612604565b61132f565b60405161019e9190612091565b60405180910390f35b6101c160048036038101906101bc91906124eb565b611630565b6040516101ce91906124d0565b60405180910390f35b6101f160048036038101906101ec91906124eb565b611a8e565b6040516101fe91906128e2565b60405180910390f35b6000805461021490612933565b80601f016020809104026020016040519081016040528092919081815260200182805461024090612933565b801561028d5780601f106102625761010080835404028352916020019161028d565b820191906000526020600020905b81548152906001019060200180831161027057829003601f168201915b505050505081565b60015481565b600115156102a884611630565b1515146102b457600080fd5b600082116102c157600080fd5b6000600260008581526020019081526020016000206040518061018001604052908160008201548152602001600182015481526020016002820160009054906101000a900473ffffffffffffffffffffffffffffffffffffffff1673ffffffffffffffffffffffffffffffffffffffff1673ffffffffffffffffffffffffffffffffffffffff1681526020016003820154815260200160048201805461036690612933565b80601f016020809104026020016040519081016040528092919081815260200182805461039290612933565b80156103df5780601f106103b4576101008083540402835291602001916103df565b820191906000526020600020905b8154815290600101906020018083116103c257829003601f168201915b505050505081526020016005820154815260200160068201805461040290612933565b80601f016020809104026020016040519081016040528092919081815260200182805461042e90612933565b801561047b5780601f106104505761010080835404028352916020019161047b565b820191906000526020600020905b81548152906001019060200180831161045e57829003601f168201915b5050505050815260200160078201805461049490612933565b80601f01602080910402602001604051908101604052809291908181526020018280546104c090612933565b801561050d5780601f106104e25761010080835404028352916020019161050d565b820191906000526020600020905b8154815290600101906020018083116104f057829003601f168201915b5050505050815260200160088201805461052690612933565b80601f016020809104026020016040519081016040528092919081815260200182805461055290612933565b801561059f5780601f106105745761010080835404028352916020019161059f565b820191906000526020600020905b81548152906001019060200180831161058257829003601f168201915b505050505081526020016009820180546105b890612933565b80601f01602080910402602001604051908101604052809291908181526020018280546105e490612933565b80156106315780601f1061060657610100808354040283529160200191610631565b820191906000526020600020905b81548152906001019060200180831161061457829003601f168201915b50505050508152602001600a8201548152602001600b820160009054906101000a900473ffffffffffffffffffffffffffffffffffffffff1673ffffffffffffffffffffffffffffffffffffffff1673ffffffffffffffffffffffffffffffffffffffff16815250509050828160200181815250508060026000868152602001908152602001600020600082015181600001556020820151816001015560408201518160020160006101000a81548173ffffffffffffffffffffffffffffffffffffffff021916908373ffffffffffffffffffffffffffffffffffffffff16021790555060608201518160030155608082015181600401908051906020019061073b929190611e8d565b5060a0820151816005015560c0820151816006019080519060200190610762929190611e8d565b5060e082015181600701908051906020019061077f929190611e8d565b5061010082015181600801908051906020019061079d929190611e8d565b506101208201518160090190805190602001906107bb929190611e8d565b5061014082015181600a015561016082015181600b0160006101000a81548173ffffffffffffffffffffffffffffffffffffffff021916908373ffffffffffffffffffffffffffffffffffffffff1602179055509050507f6e0b435700f0058d5626628c63237caa82eb6025db3997bcbfc4807dfba203ba848442856040516108479493929190612964565b60405180910390a150505050565b60008a11801561086757506001548a11155b61087057600080fd5b600073ffffffffffffffffffffffffffffffffffffffff168173ffffffffffffffffffffffffffffffffffffffff16036108a957600080fd5b60008751116108b757600080fd5b6000600260008c81526020019081526020016000206040518061018001604052908160008201548152602001600182015481526020016002820160009054906101000a900473ffffffffffffffffffffffffffffffffffffffff1673ffffffffffffffffffffffffffffffffffffffff1673ffffffffffffffffffffffffffffffffffffffff1681526020016003820154815260200160048201805461095c90612933565b80601f016020809104026020016040519081016040528092919081815260200182805461098890612933565b80156109d55780601f106109aa576101008083540402835291602001916109d5565b820191906000526020600020905b8154815290600101906020018083116109b857829003601f168201915b50505050508152602001600582015481526020016006820180546109f890612933565b80601f0160208091040260200160405190810160405280929190818152602001828054610a2490612933565b8015610a715780601f10610a4657610100808354040283529160200191610a71565b820191906000526020600020905b815481529060010190602001808311610a5457829003601f168201915b50505050508152602001600782018054610a8a90612933565b80601f0160208091040260200160405190810160405280929190818152602001828054610ab690612933565b8015610b035780601f10610ad857610100808354040283529160200191610b03565b820191906000526020600020905b815481529060010190602001808311610ae657829003601f168201915b50505050508152602001600882018054610b1c90612933565b80601f0160208091040260200160405190810160405280929190818152602001828054610b4890612933565b8015610b955780601f10610b6a57610100808354040283529160200191610b95565b820191906000526020600020905b815481529060010190602001808311610b7857829003601f168201915b50505050508152602001600982018054610bae90612933565b80601f0160208091040260200160405190810160405280929190818152602001828054610bda90612933565b8015610c275780601f10610bfc57610100808354040283529160200191610c27565b820191906000526020600020905b815481529060010190602001808311610c0a57829003601f168201915b50505050508152602001600a8201548152602001600b820160009054906101000a900473ffffffffffffffffffffffffffffffffffffffff1673ffffffffffffffffffffffffffffffffffffffff1673ffffffffffffffffffffffffffffffffffffffff168152505090506000816040015190508a73ffffffffffffffffffffffffffffffffffffffff168173ffffffffffffffffffffffffffffffffffffffff1614610d215781606001518a03610cde57600080fd5b8a826040019073ffffffffffffffffffffffffffffffffffffffff16908173ffffffffffffffffffffffffffffffffffffffff1681525050898260600181815250505b8160a001518814610d3757878260a00181815250505b610d45878360c00151610f7b565b610d5357868260c001819052505b610d61868360e00151610f7b565b610d6f57858260e001819052505b610d7e85836101000151610f7b565b610d8d57848261010001819052505b610d9c84836101200151610f7b565b610dab57838261012001819052505b428261014001818152505081600260008e8152602001908152602001600020600082015181600001556020820151816001015560408201518160020160006101000a81548173ffffffffffffffffffffffffffffffffffffffff021916908373ffffffffffffffffffffffffffffffffffffffff160217905550606082015181600301556080820151816004019080519060200190610e4b929190611e8d565b5060a0820151816005015560c0820151816006019080519060200190610e72929190611e8d565b5060e0820151816007019080519060200190610e8f929190611e8d565b50610100820151816008019080519060200190610ead929190611e8d565b50610120820151816009019080519060200190610ecb929190611e8d565b5061014082015181600a015561016082015181600b0160006101000a81548173ffffffffffffffffffffffffffffffffffffffff021916908373ffffffffffffffffffffffffffffffffffffffff1602179055509050507f83ee1e103cf4051191f15b4ff4d7e58a5eb1630f9ef4557b4bff789f0eaa563e8c8c8c8c8c8c8c8c8c428d604051610f659b9a999897969594939291906129a9565b60405180910390a1505050505050505050505050565b60008151835114610f8f5760009050610fe1565b81604051602001610fa09190612ab3565b6040516020818303038152906040528051906020012083604051602001610fc79190612ab3565b604051602081830303815290604052805190602001201490505b92915050565b60026020528060005260406000206000915090508060000154908060010154908060020160009054906101000a900473ffffffffffffffffffffffffffffffffffffffff169080600301549080600401805461104290612933565b80601f016020809104026020016040519081016040528092919081815260200182805461106e90612933565b80156110bb5780601f10611090576101008083540402835291602001916110bb565b820191906000526020600020905b81548152906001019060200180831161109e57829003601f168201915b5050505050908060050154908060060180546110d690612933565b80601f016020809104026020016040519081016040528092919081815260200182805461110290612933565b801561114f5780601f106111245761010080835404028352916020019161114f565b820191906000526020600020905b81548152906001019060200180831161113257829003601f168201915b50505050509080600701805461116490612933565b80601f016020809104026020016040519081016040528092919081815260200182805461119090612933565b80156111dd5780601f106111b2576101008083540402835291602001916111dd565b820191906000526020600020905b8154815290600101906020018083116111c057829003601f168201915b5050505050908060080180546111f290612933565b80601f016020809104026020016040519081016040528092919081815260200182805461121e90612933565b801561126b5780601f106112405761010080835404028352916020019161126b565b820191906000526020600020905b81548152906001019060200180831161124e57829003601f168201915b50505050509080600901805461128090612933565b80601f01602080910402602001604051908101604052809291908181526020018280546112ac90612933565b80156112f95780601f106112ce576101008083540402835291602001916112f9565b820191906000526020600020905b8154815290600101906020018083116112dc57829003601f168201915b50505050509080600a01549080600b0160009054906101000a900473ffffffffffffffffffffffffffffffffffffffff1690508c565b60008073ffffffffffffffffffffffffffffffffffffffff168273ffffffffffffffffffffffffffffffffffffffff160361136957600080fd5b6000891161137657600080fd5b600088511161138457600080fd5b6000871161139157600080fd5b600086511161139f57600080fd5b60008551116113ad57600080fd5b60008451116113bb57600080fd5b60008351116113c957600080fd5b6000600160008154809291906113de90612af9565b919050555060405180610180016040528060015481526020018281526020018c73ffffffffffffffffffffffffffffffffffffffff1681526020018b81526020018a81526020018981526020018881526020018781526020018681526020018581526020014281526020018473ffffffffffffffffffffffffffffffffffffffff16815250600260006001548152602001908152602001600020600082015181600001556020820151816001015560408201518160020160006101000a81548173ffffffffffffffffffffffffffffffffffffffff021916908373ffffffffffffffffffffffffffffffffffffffff1602179055506060820151816003015560808201518160040190805190602001906114f9929190611e8d565b5060a0820151816005015560c0820151816006019080519060200190611520929190611e8d565b5060e082015181600701908051906020019061153d929190611e8d565b5061010082015181600801908051906020019061155b929190611e8d565b50610120820151816009019080519060200190611579929190611e8d565b5061014082015181600a015561016082015181600b0160006101000a81548173ffffffffffffffffffffffffffffffffffffffff021916908373ffffffffffffffffffffffffffffffffffffffff1602179055509050507fc9da060fda303e30cfdc7f64b59286cc287d22511fe1daf33328ea669b3cddc66001548c8c8c8c8c8c8c8c428d6040516116159b9a999897969594939291906129a9565b60405180910390a16001549150509998505050505050505050565b600080821080611641575060015482115b1561164f5760009050611a89565b6000600260008481526020019081526020016000206040518061018001604052908160008201548152602001600182015481526020016002820160009054906101000a900473ffffffffffffffffffffffffffffffffffffffff1673ffffffffffffffffffffffffffffffffffffffff1673ffffffffffffffffffffffffffffffffffffffff168152602001600382015481526020016004820180546116f490612933565b80601f016020809104026020016040519081016040528092919081815260200182805461172090612933565b801561176d5780601f106117425761010080835404028352916020019161176d565b820191906000526020600020905b81548152906001019060200180831161175057829003601f168201915b505050505081526020016005820154815260200160068201805461179090612933565b80601f01602080910402602001604051908101604052809291908181526020018280546117bc90612933565b80156118095780601f106117de57610100808354040283529160200191611809565b820191906000526020600020905b8154815290600101906020018083116117ec57829003601f168201915b5050505050815260200160078201805461182290612933565b80601f016020809104026020016040519081016040528092919081815260200182805461184e90612933565b801561189b5780601f106118705761010080835404028352916020019161189b565b820191906000526020600020905b81548152906001019060200180831161187e57829003601f168201915b505050505081526020016008820180546118b490612933565b80601f01602080910402602001604051908101604052809291908181526020018280546118e090612933565b801561192d5780601f106119025761010080835404028352916020019161192d565b820191906000526020600020905b81548152906001019060200180831161191057829003601f168201915b5050505050815260200160098201805461194690612933565b80601f016020809104026020016040519081016040528092919081815260200182805461197290612933565b80156119bf5780601f10611994576101008083540402835291602001916119bf565b820191906000526020600020905b8154815290600101906020018083116119a257829003601f168201915b50505050508152602001600a8201548152602001600b820160009054906101000a900473ffffffffffffffffffffffffffffffffffffffff1673ffffffffffffffffffffffffffffffffffffffff1673ffffffffffffffffffffffffffffffffffffffff16815250509050600073ffffffffffffffffffffffffffffffffffffffff16816040015173ffffffffffffffffffffffffffffffffffffffff1603611a6c576000915050611a89565b600081606001511015611a83576000915050611a89565b60019150505b919050565b611a96611f13565b60011515611aa383611630565b151514611aaf57600080fd5b600260008381526020019081526020016000206040518061018001604052908160008201548152602001600182015481526020016002820160009054906101000a900473ffffffffffffffffffffffffffffffffffffffff1673ffffffffffffffffffffffffffffffffffffffff1673ffffffffffffffffffffffffffffffffffffffff16815260200160038201548152602001600482018054611b5290612933565b80601f0160208091040260200160405190810160405280929190818152602001828054611b7e90612933565b8015611bcb5780601f10611ba057610100808354040283529160200191611bcb565b820191906000526020600020905b815481529060010190602001808311611bae57829003601f168201915b5050505050815260200160058201548152602001600682018054611bee90612933565b80601f0160208091040260200160405190810160405280929190818152602001828054611c1a90612933565b8015611c675780601f10611c3c57610100808354040283529160200191611c67565b820191906000526020600020905b815481529060010190602001808311611c4a57829003601f168201915b50505050508152602001600782018054611c8090612933565b80601f0160208091040260200160405190810160405280929190818152602001828054611cac90612933565b8015611cf95780601f10611cce57610100808354040283529160200191611cf9565b820191906000526020600020905b815481529060010190602001808311611cdc57829003601f168201915b50505050508152602001600882018054611d1290612933565b80601f0160208091040260200160405190810160405280929190818152602001828054611d3e90612933565b8015611d8b5780601f10611d6057610100808354040283529160200191611d8b565b820191906000526020600020905b815481529060010190602001808311611d6e57829003601f168201915b50505050508152602001600982018054611da490612933565b80601f0160208091040260200160405190810160405280929190818152602001828054611dd090612933565b8015611e1d5780601f10611df257610100808354040283529160200191611e1d565b820191906000526020600020905b815481529060010190602001808311611e0057829003601f168201915b50505050508152602001600a8201548152602001600b820160009054906101000a900473ffffffffffffffffffffffffffffffffffffffff1673ffffffffffffffffffffffffffffffffffffffff1673ffffffffffffffffffffffffffffffffffffffff16815250509050919050565b828054611e9990612933565b90600052602060002090601f016020900481019282611ebb5760008555611f02565b82601f10611ed457805160ff1916838001178555611f02565b82800160010185558215611f02579182015b82811115611f01578251825591602001919060010190611ee6565b5b509050611f0f9190611fa0565b5090565b6040518061018001604052806000815260200160008152602001600073ffffffffffffffffffffffffffffffffffffffff1681526020016000815260200160608152602001600081526020016060815260200160608152602001606081526020016060815260200160008152602001600073ffffffffffffffffffffffffffffffffffffffff1681525090565b5b80821115611fb9576000816000905550600101611fa1565b5090565b600081519050919050565b600082825260208201905092915050565b60005b83811015611ff7578082015181840152602081019050611fdc565b83811115612006576000848401525b50505050565b6000601f19601f8301169050919050565b600061202882611fbd565b6120328185611fc8565b9350612042818560208601611fd9565b61204b8161200c565b840191505092915050565b60006020820190508181036000830152612070818461201d565b905092915050565b6000819050919050565b61208b81612078565b82525050565b60006020820190506120a66000830184612082565b92915050565b6000604051905090565b600080fd5b600080fd5b6120c981612078565b81146120d457600080fd5b50565b6000813590506120e6816120c0565b92915050565b600073ffffffffffffffffffffffffffffffffffffffff82169050919050565b6000612117826120ec565b9050919050565b6121278161210c565b811461213257600080fd5b50565b6000813590506121448161211e565b92915050565b600080600060608486031215612163576121626120b6565b5b6000612171868287016120d7565b9350506020612182868287016120d7565b925050604061219386828701612135565b9150509250925092565b600080fd5b600080fd5b7f4e487b7100000000000000000000000000000000000000000000000000000000600052604160045260246000fd5b6121df8261200c565b810181811067ffffffffffffffff821117156121fe576121fd6121a7565b5b80604052505050565b60006122116120ac565b905061221d82826121d6565b919050565b600067ffffffffffffffff82111561223d5761223c6121a7565b5b6122468261200c565b9050602081019050919050565b82818337600083830152505050565b600061227561227084612222565b612207565b905082815260208101848484011115612291576122906121a2565b5b61229c848285612253565b509392505050565b600082601f8301126122b9576122b861219d565b5b81356122c9848260208601612262565b91505092915050565b6000806000806000806000806000806101408b8d0312156122f6576122f56120b6565b5b60006123048d828e016120d7565b9a505060206123158d828e01612135565b99505060406123268d828e016120d7565b98505060608b013567ffffffffffffffff811115612347576123466120bb565b5b6123538d828e016122a4565b97505060806123648d828e016120d7565b96505060a08b013567ffffffffffffffff811115612385576123846120bb565b5b6123918d828e016122a4565b95505060c08b013567ffffffffffffffff8111156123b2576123b16120bb565b5b6123be8d828e016122a4565b94505060e08b013567ffffffffffffffff8111156123df576123de6120bb565b5b6123eb8d828e016122a4565b9350506101008b013567ffffffffffffffff81111561240d5761240c6120bb565b5b6124198d828e016122a4565b92505061012061242b8d828e01612135565b9150509295989b9194979a5092959850565b60008060408385031215612454576124536120b6565b5b600083013567ffffffffffffffff811115612472576124716120bb565b5b61247e858286016122a4565b925050602083013567ffffffffffffffff81111561249f5761249e6120bb565b5b6124ab858286016122a4565b9150509250929050565b60008115159050919050565b6124ca816124b5565b82525050565b60006020820190506124e560008301846124c1565b92915050565b600060208284031215612501576125006120b6565b5b600061250f848285016120d7565b91505092915050565b6125218161210c565b82525050565b60006101808201905061253d600083018f612082565b61254a602083018e612082565b612557604083018d612518565b612564606083018c612082565b8181036080830152612576818b61201d565b905061258560a083018a612082565b81810360c0830152612597818961201d565b905081810360e08301526125ab818861201d565b90508181036101008301526125c0818761201d565b90508181036101208301526125d5818661201d565b90506125e5610140830185612082565b6125f3610160830184612518565b9d9c50505050505050505050505050565b60008060008060008060008060006101208a8c031215612627576126266120b6565b5b60006126358c828d01612135565b99505060206126468c828d016120d7565b98505060408a013567ffffffffffffffff811115612667576126666120bb565b5b6126738c828d016122a4565b97505060606126848c828d016120d7565b96505060808a013567ffffffffffffffff8111156126a5576126a46120bb565b5b6126b18c828d016122a4565b95505060a08a013567ffffffffffffffff8111156126d2576126d16120bb565b5b6126de8c828d016122a4565b94505060c08a013567ffffffffffffffff8111156126ff576126fe6120bb565b5b61270b8c828d016122a4565b93505060e08a013567ffffffffffffffff81111561272c5761272b6120bb565b5b6127388c828d016122a4565b92505061010061274a8c828d01612135565b9150509295985092959850929598565b61276381612078565b82525050565b6127728161210c565b82525050565b600082825260208201905092915050565b600061279482611fbd565b61279e8185612778565b93506127ae818560208601611fd9565b6127b78161200c565b840191505092915050565b6000610180830160008301516127db600086018261275a565b5060208301516127ee602086018261275a565b5060408301516128016040860182612769565b506060830151612814606086018261275a565b506080830151848203608086015261282c8282612789565b91505060a083015161284160a086018261275a565b5060c083015184820360c08601526128598282612789565b91505060e083015184820360e08601526128738282612789565b91505061010083015184820361010086015261288f8282612789565b9150506101208301518482036101208601526128ab8282612789565b9150506101408301516128c261014086018261275a565b506101608301516128d7610160860182612769565b508091505092915050565b600060208201905081810360008301526128fc81846127c2565b905092915050565b7f4e487b7100000000000000000000000000000000000000000000000000000000600052602260045260246000fd5b6000600282049050600182168061294b57607f821691505b60208210810361295e5761295d612904565b5b50919050565b60006080820190506129796000830187612082565b6129866020830186612082565b6129936040830185612082565b6129a06060830184612518565b95945050505050565b6000610160820190506129bf600083018e612082565b6129cc602083018d612518565b6129d9604083018c612082565b81810360608301526129eb818b61201d565b90506129fa608083018a612082565b81810360a0830152612a0c818961201d565b905081810360c0830152612a20818861201d565b905081810360e0830152612a34818761201d565b9050818103610100830152612a49818661201d565b9050612a59610120830185612082565b612a67610140830184612518565b9c9b505050505050505050505050565b600081905092915050565b6000612a8d82611fbd565b612a978185612a77565b9350612aa7818560208601611fd9565b80840191505092915050565b6000612abf8284612a82565b915081905092915050565b7f4e487b7100000000000000000000000000000000000000000000000000000000600052601160045260246000fd5b6000612b0482612078565b91507fffffffffffffffffffffffffffffffffffffffffffffffffffffffffffffffff8203612b3657612b35612aca565b5b60018201905091905056fea264697066735822122034d6122633ce01607bcd9ab3e64e08931c7b8576d17699a6bad98b67b1e8d8a564736f6c634300080e0033",
  "immutableReferences": {},
  "source": "// SPDX-License-Identifier: MIT\r\npragma solidity ^0.8.14;\r\n\r\ncontract Verification {\r\n    string public name = \"Verification\";\r\n\r\n    uint256 public verificationCount = 0;\r\n\r\n    //Mapping Verification ID To Verification Object\r\n    mapping(uint256 => VerificateionObject) public VerificateionMap;\r\n    struct VerificateionObject {\r\n        //Owner And Appraiser Data\r\n        uint256 verificationID;\r\n        uint256 antiqueID;\r\n        address payable ownerAddress;\r\n        uint256 ownerID;\r\n        // uint256 personVerificationID;\r\n        string appraiserUsername;\r\n        //Antique Object Data\r\n        uint256 ioTDeviceID;\r\n        string estimateManufactureYears;\r\n        string antiqueRareness;\r\n        string antiqueAuthenticity;\r\n        string antiqueRealness;\r\n        //Time And Sender Data\r\n        uint256 uploadTime;\r\n        address payable uploader;\r\n        //Need More Information: QR Code..\r\n    }\r\n\r\n    constructor() {\r\n        name = \"Verification\";\r\n    }\r\n\r\n    event VerificationAdded(\r\n        //Owner and Appraiser Data\r\n        uint256 verificationID,\r\n        address payable ownerAddress,\r\n        uint256 ownerID,\r\n        // uint256 personVerificationID,\r\n        string appraiserUsername,\r\n        //Antique Object Data\r\n        uint256 ioTDeviceID,\r\n        string estimateManufactureYears,\r\n        string antiqueRareness,\r\n        string antiqueAuthenticity,\r\n        string antiqueRealness,\r\n        //Time Data\r\n        uint256 uploadTime,\r\n        address payable uploader\r\n    );\r\n    event VerificationUpdated(\r\n        //Owner and Appraiser Dataa\r\n        uint256 verificationID,\r\n        address payable newOwnerAddress,\r\n        uint256 newOwnerID,\r\n        // uint256 newPersonVerificationID,\r\n        string appraiserUsername,\r\n        //Antique Object Data\r\n        uint256 newIoTDeviceID,\r\n        string newEstimateManufactureYears,\r\n        string newAntiqueRareness,\r\n        string newAntiqueAuthenticity,\r\n        string newAntiqueRealness,\r\n        //Time Data\r\n        uint256 newUploadTime,\r\n        address payable newUploader\r\n    );\r\n\r\n    event SetAntiqueID(\r\n        uint256 verificationID,\r\n        uint256 antiqueID,\r\n        uint256 newUploadTime,\r\n        address payable uploader\r\n    );\r\n\r\n    //POST:  ADD Verification\r\n    function AddVerification(\r\n        //Owner and Appraiser Data\r\n        address payable _ownerAddress,\r\n        uint256 _ownerID,\r\n        // uint256 _personVerificationID,\r\n        string memory _appraiserUsername,\r\n        //Antique Object Data\r\n        uint256 _ioTDeviceID,\r\n        string memory _estimateManufactureYears,\r\n        string memory _antiqueRareness,\r\n        string memory _antiqueAuthenticity,\r\n        string memory _antiqueRealness,\r\n        //Time Data\r\n        address payable _uploader\r\n    ) public returns (uint256) {\r\n        require(_uploader != address(0));\r\n        require(_ownerID > 0);\r\n        require(bytes(_appraiserUsername).length > 0);\r\n        require(_ioTDeviceID > 0);\r\n        require(bytes(_estimateManufactureYears).length > 0);\r\n        require(bytes(_antiqueRareness).length > 0);\r\n        require(bytes(_antiqueAuthenticity).length > 0);\r\n        require(bytes(_antiqueRealness).length > 0);\r\n\r\n        //Make Default ID for Antique ID\r\n        uint256 _antiqueDefaultID = 0;\r\n\r\n        // Save Data To List\r\n        verificationCount++;\r\n        VerificateionMap[verificationCount] = VerificateionObject(\r\n            //Owner and Appraiser Data\r\n            verificationCount,\r\n            _antiqueDefaultID,\r\n            _ownerAddress,\r\n            _ownerID,\r\n            // _personVerificationID,\r\n            _appraiserUsername,\r\n            //Antique Object Data\r\n            _ioTDeviceID,\r\n            _estimateManufactureYears,\r\n            _antiqueRareness,\r\n            _antiqueAuthenticity,\r\n            _antiqueRealness,\r\n            //Time Data\r\n            block.timestamp,\r\n            _uploader\r\n        );\r\n\r\n        //Save To Blockchain\r\n        emit VerificationAdded(\r\n            //Owner And Appraiser Data\r\n            verificationCount,\r\n            _ownerAddress,\r\n            _ownerID,\r\n            // _personVerificationID,\r\n            _appraiserUsername,\r\n            //Antique Object Data\r\n            _ioTDeviceID,\r\n            _estimateManufactureYears,\r\n            _antiqueRareness,\r\n            _antiqueAuthenticity,\r\n            _antiqueRealness,\r\n            block.timestamp,\r\n            _uploader\r\n        );\r\n        return verificationCount;\r\n    }\r\n\r\n    //PUT: UPDATE Verification\r\n    function UpdateVerification(\r\n        //Owner and Appraiser Data\r\n        uint256 _verificationID,\r\n        address payable _newOwnerAddress,\r\n        uint256 _newOwnerID,\r\n        // uint256 _newPersonVerificationID,\r\n        string memory _appraiserUsername,\r\n        //Antique Object Data\r\n        uint256 _newIoTDeviceID,\r\n        string memory _newEstimateManufactureYears,\r\n        string memory _newAntiqueRareness,\r\n        string memory _newAntiqueAuthenticity,\r\n        string memory _newAntiqueRealness,\r\n        //Time Data\r\n        address payable _uploader\r\n    ) public {\r\n        require(_verificationID > 0 && _verificationID <= verificationCount);\r\n        require(_uploader != address(0));\r\n        require(bytes(_appraiserUsername).length > 0);\r\n        VerificateionObject memory _verificationData = VerificateionMap[\r\n            _verificationID\r\n        ];\r\n        address payable _currentOwnerAddress = _verificationData.ownerAddress;\r\n        // require(bytes(_newEstimateManufactureYears).length > 0);\r\n        // require(bytes(_newAntiqueRareness).length > 0);\r\n        // require(bytes(_newAntiqueAuthenticity).length > 0);\r\n        // require(bytes(_newAntiqueRealness).length > 0);\r\n        //Update OwnerShip Information\r\n        if (_currentOwnerAddress != _newOwnerAddress) {\r\n            require(_newOwnerID != _verificationData.ownerID);\r\n            _verificationData.ownerAddress = _newOwnerAddress;\r\n            _verificationData.ownerID = _newOwnerID;\r\n        }\r\n\r\n        // //Update Uploaders\r\n        // if (_newUploader != _verificationData.uploader)\r\n        // {\r\n        //     _verificationData.uploader = _newUploader;\r\n        //     if (_newPersonVerificationID > 0 && _verificationData.personVerificationID != _newPersonVerificationID)\r\n        //     {\r\n        //         _verificationData.personVerificationID = _newPersonVerificationID;\r\n        //     }\r\n        // }\r\n\r\n        // Update Antique Data\r\n        if (_newIoTDeviceID != _verificationData.ioTDeviceID) {\r\n            _verificationData.ioTDeviceID = _newIoTDeviceID;\r\n        }\r\n\r\n        if (\r\n            !compare(\r\n                _newEstimateManufactureYears,\r\n                _verificationData.estimateManufactureYears\r\n            )\r\n        ) {\r\n            _verificationData\r\n                .estimateManufactureYears = _newEstimateManufactureYears;\r\n        }\r\n\r\n        if (!compare(_newAntiqueRareness, _verificationData.antiqueRareness)) {\r\n            _verificationData.antiqueRareness = _newAntiqueRareness;\r\n        }\r\n\r\n        if (\r\n            !compare(\r\n                _newAntiqueAuthenticity,\r\n                _verificationData.antiqueAuthenticity\r\n            )\r\n        ) {\r\n            _verificationData.antiqueAuthenticity = _newAntiqueAuthenticity;\r\n        }\r\n\r\n        if (!compare(_newAntiqueRealness, _verificationData.antiqueRealness)) {\r\n            _verificationData.antiqueRealness = _newAntiqueRealness;\r\n        }\r\n\r\n        _verificationData.uploadTime = block.timestamp;\r\n\r\n        //Update Blockchain Data\r\n        VerificateionMap[_verificationID] = _verificationData;\r\n        emit VerificationUpdated(\r\n            //Owner and Appraiser Data\r\n            _verificationID,\r\n            _newOwnerAddress,\r\n            _newOwnerID,\r\n            // _newPersonVerificationID,\r\n            _appraiserUsername,\r\n            //Antique Data\r\n            _newIoTDeviceID,\r\n            _newEstimateManufactureYears,\r\n            _newAntiqueRareness,\r\n            _newAntiqueAuthenticity,\r\n            _newAntiqueRealness,\r\n            //Data Time\r\n            block.timestamp,\r\n            _uploader\r\n        );\r\n    }\r\n\r\n    //GET Verification By ID\r\n    function GetVerificationByID(uint256 _verificationID)\r\n        external\r\n        view\r\n        returns (VerificateionObject memory)\r\n    {\r\n        require(ValidateVerificationID(_verificationID) == true);\r\n        return VerificateionMap[_verificationID];\r\n    }\r\n\r\n    //Validate Verification ID\r\n    function ValidateVerificationID(uint256 _verificationID)\r\n        public\r\n        view\r\n        returns (bool)\r\n    {\r\n        if (_verificationID < 0 || _verificationID > verificationCount)\r\n            return false;\r\n        VerificateionObject memory _verificationData = VerificateionMap[\r\n            _verificationID\r\n        ];\r\n        if (_verificationData.ownerAddress == address(0)) return false;\r\n        if (_verificationData.ownerID < 0) return false;\r\n        return true;\r\n    }\r\n\r\n    //PUT: SET Antique ID For By Verification ID\r\n    function SetAntiqueIDByVerificationID(\r\n        uint256 _verificationID,\r\n        uint256 _antiqueID,\r\n        address payable _uploader\r\n    ) public {\r\n        require(ValidateVerificationID(_verificationID) == true);\r\n        require(_antiqueID > 0);\r\n        VerificateionObject memory _verificationData = VerificateionMap[\r\n            _verificationID\r\n        ];\r\n        _verificationData.antiqueID = _antiqueID;\r\n        VerificateionMap[_verificationID] = _verificationData;\r\n\r\n        // Save Data to blockchain\r\n        emit SetAntiqueID(\r\n            _verificationID,\r\n            _antiqueID,\r\n            block.timestamp,\r\n            _uploader\r\n        );\r\n    }\r\n\r\n    function compare(string memory str1, string memory str2)\r\n        public\r\n        pure\r\n        returns (bool)\r\n    {\r\n        if (bytes(str1).length != bytes(str2).length) {\r\n            return false;\r\n        }\r\n        return\r\n            keccak256(abi.encodePacked(str1)) ==\r\n            keccak256(abi.encodePacked(str2));\r\n    }\r\n}\r\n",
  "sourcePath": "C:\\Users\\Natha\\OneDrive - The University of Sydney (Students)\\University of Sydney Materials\\Studying\\Year 5\\Semester 1\\Thesis B\\Thesis B Project Code\\truffle\\contracts\\Database\\Verification.sol",
  "compiler": {
    "name": "solc",
    "version": "0.8.14+commit.80d49f37.Emscripten.clang"
  },
  "schemaVersion": "3.4.11",
  "updatedAt": "2023-02-21T14:29:51.718Z",
  "networkType": "ethereum",
  "devdoc": {
    "kind": "dev",
    "methods": {},
    "version": 1
  },
  "userdoc": {
    "kind": "user",
    "methods": {},
    "version": 1
  }
}