{
  "contractName": "Verification",
  "abi": [
    {
      "inputs": [],
      "stateMutability": "nonpayable",
      "type": "constructor"
    },
    {
      "anonymous": false,
      "inputs": [
        {
          "indexed": false,
          "internalType": "uint256",
          "name": "verificationID",
          "type": "uint256"
        },
        {
          "indexed": false,
          "internalType": "uint256",
          "name": "antiqueID",
          "type": "uint256"
        },
        {
          "indexed": false,
          "internalType": "uint256",
          "name": "newUploadTime",
          "type": "uint256"
        },
        {
          "indexed": false,
          "internalType": "address payable",
          "name": "uploader",
          "type": "address"
        }
      ],
      "name": "SetAntiqueID",
      "type": "event"
    },
    {
      "anonymous": false,
      "inputs": [
        {
          "indexed": false,
          "internalType": "uint256",
          "name": "verificationID",
          "type": "uint256"
        },
        {
          "indexed": false,
          "internalType": "address payable",
          "name": "ownerAddress",
          "type": "address"
        },
        {
          "indexed": false,
          "internalType": "uint256",
          "name": "ownerID",
          "type": "uint256"
        },
        {
          "indexed": false,
          "internalType": "uint256",
          "name": "personVerificationID",
          "type": "uint256"
        },
        {
          "indexed": false,
          "internalType": "uint256",
          "name": "ioTDeviceID",
          "type": "uint256"
        },
        {
          "indexed": false,
          "internalType": "uint256",
          "name": "uploadTime",
          "type": "uint256"
        },
        {
          "indexed": false,
          "internalType": "address payable",
          "name": "uploader",
          "type": "address"
        }
      ],
      "name": "VerificationAdded",
      "type": "event"
    },
    {
      "anonymous": false,
      "inputs": [
        {
          "indexed": false,
          "internalType": "uint256",
          "name": "verificationID",
          "type": "uint256"
        },
        {
          "indexed": false,
          "internalType": "address payable",
          "name": "newOwnerAddress",
          "type": "address"
        },
        {
          "indexed": false,
          "internalType": "uint256",
          "name": "newOwnerID",
          "type": "uint256"
        },
        {
          "indexed": false,
          "internalType": "uint256",
          "name": "newPersonVerificationID",
          "type": "uint256"
        },
        {
          "indexed": false,
          "internalType": "uint256",
          "name": "newIoTDeviceID",
          "type": "uint256"
        },
        {
          "indexed": false,
          "internalType": "uint256",
          "name": "newUploadTime",
          "type": "uint256"
        },
        {
          "indexed": false,
          "internalType": "address payable",
          "name": "newUploader",
          "type": "address"
        }
      ],
      "name": "VerificationUpdated",
      "type": "event"
    },
    {
      "inputs": [
        {
          "internalType": "uint256",
          "name": "",
          "type": "uint256"
        }
      ],
      "name": "VerificateionMap",
      "outputs": [
        {
          "internalType": "uint256",
          "name": "verificationID",
          "type": "uint256"
        },
        {
          "internalType": "uint256",
          "name": "antiqueID",
          "type": "uint256"
        },
        {
          "internalType": "address payable",
          "name": "ownerAddress",
          "type": "address"
        },
        {
          "internalType": "uint256",
          "name": "ownerID",
          "type": "uint256"
        },
        {
          "internalType": "uint256",
          "name": "personVerificationID",
          "type": "uint256"
        },
        {
          "internalType": "uint256",
          "name": "ioTDeviceID",
          "type": "uint256"
        },
        {
          "internalType": "uint256",
          "name": "uploadTime",
          "type": "uint256"
        },
        {
          "internalType": "address payable",
          "name": "uploader",
          "type": "address"
        }
      ],
      "stateMutability": "view",
      "type": "function",
      "constant": true
    },
    {
      "inputs": [],
      "name": "name",
      "outputs": [
        {
          "internalType": "string",
          "name": "",
          "type": "string"
        }
      ],
      "stateMutability": "view",
      "type": "function",
      "constant": true
    },
    {
      "inputs": [],
      "name": "verificationCount",
      "outputs": [
        {
          "internalType": "uint256",
          "name": "",
          "type": "uint256"
        }
      ],
      "stateMutability": "view",
      "type": "function",
      "constant": true
    },
    {
      "inputs": [
        {
          "internalType": "address payable",
          "name": "_ownerAddress",
          "type": "address"
        },
        {
          "internalType": "uint256",
          "name": "_ownerID",
          "type": "uint256"
        },
        {
          "internalType": "uint256",
          "name": "_personVerificationID",
          "type": "uint256"
        },
        {
          "internalType": "uint256",
          "name": "_ioTDeviceID",
          "type": "uint256"
        },
        {
          "internalType": "address payable",
          "name": "_uploader",
          "type": "address"
        }
      ],
      "name": "AddVerification",
      "outputs": [
        {
          "internalType": "uint256",
          "name": "",
          "type": "uint256"
        }
      ],
      "stateMutability": "nonpayable",
      "type": "function"
    },
    {
      "inputs": [
        {
          "internalType": "uint256",
          "name": "_verificationID",
          "type": "uint256"
        },
        {
          "internalType": "address payable",
          "name": "_newOwnerAddress",
          "type": "address"
        },
        {
          "internalType": "uint256",
          "name": "_newOwnerID",
          "type": "uint256"
        },
        {
          "internalType": "uint256",
          "name": "_newPersonVerificationID",
          "type": "uint256"
        },
        {
          "internalType": "uint256",
          "name": "_newIoTDeviceID",
          "type": "uint256"
        },
        {
          "internalType": "address payable",
          "name": "_uploader",
          "type": "address"
        }
      ],
      "name": "UpdateVerification",
      "outputs": [],
      "stateMutability": "nonpayable",
      "type": "function"
    },
    {
      "inputs": [
        {
          "internalType": "uint256",
          "name": "_verificationID",
          "type": "uint256"
        }
      ],
      "name": "GetVerificationByID",
      "outputs": [
        {
          "components": [
            {
              "internalType": "uint256",
              "name": "verificationID",
              "type": "uint256"
            },
            {
              "internalType": "uint256",
              "name": "antiqueID",
              "type": "uint256"
            },
            {
              "internalType": "address payable",
              "name": "ownerAddress",
              "type": "address"
            },
            {
              "internalType": "uint256",
              "name": "ownerID",
              "type": "uint256"
            },
            {
              "internalType": "uint256",
              "name": "personVerificationID",
              "type": "uint256"
            },
            {
              "internalType": "uint256",
              "name": "ioTDeviceID",
              "type": "uint256"
            },
            {
              "internalType": "uint256",
              "name": "uploadTime",
              "type": "uint256"
            },
            {
              "internalType": "address payable",
              "name": "uploader",
              "type": "address"
            }
          ],
          "internalType": "struct Verification.VerificateionObject",
          "name": "",
          "type": "tuple"
        }
      ],
      "stateMutability": "view",
      "type": "function",
      "constant": true
    },
    {
      "inputs": [
        {
          "internalType": "uint256",
          "name": "_verificationID",
          "type": "uint256"
        }
      ],
      "name": "ValidateVerificationID",
      "outputs": [
        {
          "internalType": "bool",
          "name": "",
          "type": "bool"
        }
      ],
      "stateMutability": "view",
      "type": "function",
      "constant": true
    },
    {
      "inputs": [
        {
          "internalType": "uint256",
          "name": "_verificationID",
          "type": "uint256"
        },
        {
          "internalType": "uint256",
          "name": "_antiqueID",
          "type": "uint256"
        },
        {
          "internalType": "address payable",
          "name": "_uploader",
          "type": "address"
        }
      ],
      "name": "SetAntiqueIDByVerificationID",
      "outputs": [],
      "stateMutability": "nonpayable",
      "type": "function"
    }
  ],
  "bytecode": "0x60806040526040518060400160405280600c81526020017f566572696669636174696f6e00000000000000000000000000000000000000008152506000908051906020019062000051929190620000b9565b5060006001553480156200006457600080fd5b506040518060400160405280600c81526020017f566572696669636174696f6e000000000000000000000000000000000000000081525060009080519060200190620000b2929190620000b9565b50620001cd565b828054620000c79062000198565b90600052602060002090601f016020900481019282620000eb576000855562000137565b82601f106200010657805160ff191683800117855562000137565b8280016001018555821562000137579182015b828111156200013657825182559160200191906001019062000119565b5b5090506200014691906200014a565b5090565b5b80821115620001655760008160009055506001016200014b565b5090565b7f4e487b7100000000000000000000000000000000000000000000000000000000600052602260045260246000fd5b60006002820490506001821680620001b157607f821691505b602082108103620001c757620001c662000169565b5b50919050565b61142c80620001dd6000396000f3fe608060405234801561001057600080fd5b50600436106100885760003560e01c80638d72ae4f1161005b5780638d72ae4f146101015780639d35b96f14610138578063d27fbe4714610168578063db15b7871461019857610088565b806306fdde031461008d5780630830e22e146100ab5780630bb6c06b146100c95780630c61f46d146100e5575b600080fd5b6100956101c8565b6040516100a29190610e5f565b60405180910390f35b6100b3610256565b6040516100c09190610e9a565b60405180910390f35b6100e360048036038101906100de9190610f44565b61025c565b005b6100ff60048036038101906100fa9190610f97565b6104bb565b005b61011b60048036038101906101169190611024565b6107f7565b60405161012f989796959493929190611060565b60405180910390f35b610152600480360381019061014d91906110de565b61087f565b60405161015f9190610e9a565b60405180910390f35b610182600480360381019061017d9190611024565b610a98565b60405161018f9190611174565b60405180910390f35b6101b260048036038101906101ad9190611024565b610c26565b6040516101bf919061124f565b60405180910390f35b600080546101d59061129a565b80601f01602080910402602001604051908101604052809291908181526020018280546102019061129a565b801561024e5780601f106102235761010080835404028352916020019161024e565b820191906000526020600020905b81548152906001019060200180831161023157829003601f168201915b505050505081565b60015481565b6001151561026984610a98565b15151461027557600080fd5b6000821161028257600080fd5b6000600260008581526020019081526020016000206040518061010001604052908160008201548152602001600182015481526020016002820160009054906101000a900473ffffffffffffffffffffffffffffffffffffffff1673ffffffffffffffffffffffffffffffffffffffff1673ffffffffffffffffffffffffffffffffffffffff168152602001600382015481526020016004820154815260200160058201548152602001600682015481526020016007820160009054906101000a900473ffffffffffffffffffffffffffffffffffffffff1673ffffffffffffffffffffffffffffffffffffffff1673ffffffffffffffffffffffffffffffffffffffff16815250509050828160200181815250508060026000868152602001908152602001600020600082015181600001556020820151816001015560408201518160020160006101000a81548173ffffffffffffffffffffffffffffffffffffffff021916908373ffffffffffffffffffffffffffffffffffffffff160217905550606082015181600301556080820151816004015560a0820151816005015560c0820151816006015560e08201518160070160006101000a81548173ffffffffffffffffffffffffffffffffffffffff021916908373ffffffffffffffffffffffffffffffffffffffff1602179055509050507f6e0b435700f0058d5626628c63237caa82eb6025db3997bcbfc4807dfba203ba848442856040516104ad94939291906112cb565b60405180910390a150505050565b6000861180156104cd57506001548611155b6104d657600080fd5b600073ffffffffffffffffffffffffffffffffffffffff168173ffffffffffffffffffffffffffffffffffffffff160361050f57600080fd5b6000600260008881526020019081526020016000206040518061010001604052908160008201548152602001600182015481526020016002820160009054906101000a900473ffffffffffffffffffffffffffffffffffffffff1673ffffffffffffffffffffffffffffffffffffffff1673ffffffffffffffffffffffffffffffffffffffff168152602001600382015481526020016004820154815260200160058201548152602001600682015481526020016007820160009054906101000a900473ffffffffffffffffffffffffffffffffffffffff1673ffffffffffffffffffffffffffffffffffffffff1673ffffffffffffffffffffffffffffffffffffffff168152505090506000816040015190508673ffffffffffffffffffffffffffffffffffffffff168173ffffffffffffffffffffffffffffffffffffffff16146106a9578160600151860361066657600080fd5b86826040019073ffffffffffffffffffffffffffffffffffffffff16908173ffffffffffffffffffffffffffffffffffffffff1681525050858260600181815250505b8160a0015184146106bf57838260a00181815250505b428260c001818152505081600260008a8152602001908152602001600020600082015181600001556020820151816001015560408201518160020160006101000a81548173ffffffffffffffffffffffffffffffffffffffff021916908373ffffffffffffffffffffffffffffffffffffffff160217905550606082015181600301556080820151816004015560a0820151816005015560c0820151816006015560e08201518160070160006101000a81548173ffffffffffffffffffffffffffffffffffffffff021916908373ffffffffffffffffffffffffffffffffffffffff1602179055509050507f63ee7a5349a48c16e84171febda7b76aa417ead29f6971542efa642ccadfcb2d888888888842896040516107e59796959493929190611310565b60405180910390a15050505050505050565b60026020528060005260406000206000915090508060000154908060010154908060020160009054906101000a900473ffffffffffffffffffffffffffffffffffffffff16908060030154908060040154908060050154908060060154908060070160009054906101000a900473ffffffffffffffffffffffffffffffffffffffff16905088565b60008073ffffffffffffffffffffffffffffffffffffffff168273ffffffffffffffffffffffffffffffffffffffff16036108b957600080fd5b600085116108c657600080fd5b600084116108d357600080fd5b600083116108e057600080fd5b6000600160008154809291906108f5906113ae565b919050555060405180610100016040528060015481526020018281526020018873ffffffffffffffffffffffffffffffffffffffff1681526020018781526020018681526020018581526020014281526020018473ffffffffffffffffffffffffffffffffffffffff16815250600260006001548152602001908152602001600020600082015181600001556020820151816001015560408201518160020160006101000a81548173ffffffffffffffffffffffffffffffffffffffff021916908373ffffffffffffffffffffffffffffffffffffffff160217905550606082015181600301556080820151816004015560a0820151816005015560c0820151816006015560e08201518160070160006101000a81548173ffffffffffffffffffffffffffffffffffffffff021916908373ffffffffffffffffffffffffffffffffffffffff1602179055509050507f597382782499dbd411783b729f7be17594c82f50b8bdee971701d7deef51968d600154888888884289604051610a819796959493929190611310565b60405180910390a160015491505095945050505050565b600080821080610aa9575060015482115b15610ab75760009050610c21565b6000600260008481526020019081526020016000206040518061010001604052908160008201548152602001600182015481526020016002820160009054906101000a900473ffffffffffffffffffffffffffffffffffffffff1673ffffffffffffffffffffffffffffffffffffffff1673ffffffffffffffffffffffffffffffffffffffff168152602001600382015481526020016004820154815260200160058201548152602001600682015481526020016007820160009054906101000a900473ffffffffffffffffffffffffffffffffffffffff1673ffffffffffffffffffffffffffffffffffffffff1673ffffffffffffffffffffffffffffffffffffffff16815250509050600073ffffffffffffffffffffffffffffffffffffffff16816040015173ffffffffffffffffffffffffffffffffffffffff1603610c04576000915050610c21565b600081606001511015610c1b576000915050610c21565b60019150505b919050565b610c2e610d55565b60011515610c3b83610a98565b151514610c4757600080fd5b600260008381526020019081526020016000206040518061010001604052908160008201548152602001600182015481526020016002820160009054906101000a900473ffffffffffffffffffffffffffffffffffffffff1673ffffffffffffffffffffffffffffffffffffffff1673ffffffffffffffffffffffffffffffffffffffff168152602001600382015481526020016004820154815260200160058201548152602001600682015481526020016007820160009054906101000a900473ffffffffffffffffffffffffffffffffffffffff1673ffffffffffffffffffffffffffffffffffffffff1673ffffffffffffffffffffffffffffffffffffffff16815250509050919050565b6040518061010001604052806000815260200160008152602001600073ffffffffffffffffffffffffffffffffffffffff16815260200160008152602001600081526020016000815260200160008152602001600073ffffffffffffffffffffffffffffffffffffffff1681525090565b600081519050919050565b600082825260208201905092915050565b60005b83811015610e00578082015181840152602081019050610de5565b83811115610e0f576000848401525b50505050565b6000601f19601f8301169050919050565b6000610e3182610dc6565b610e3b8185610dd1565b9350610e4b818560208601610de2565b610e5481610e15565b840191505092915050565b60006020820190508181036000830152610e798184610e26565b905092915050565b6000819050919050565b610e9481610e81565b82525050565b6000602082019050610eaf6000830184610e8b565b92915050565b600080fd5b610ec381610e81565b8114610ece57600080fd5b50565b600081359050610ee081610eba565b92915050565b600073ffffffffffffffffffffffffffffffffffffffff82169050919050565b6000610f1182610ee6565b9050919050565b610f2181610f06565b8114610f2c57600080fd5b50565b600081359050610f3e81610f18565b92915050565b600080600060608486031215610f5d57610f5c610eb5565b5b6000610f6b86828701610ed1565b9350506020610f7c86828701610ed1565b9250506040610f8d86828701610f2f565b9150509250925092565b60008060008060008060c08789031215610fb457610fb3610eb5565b5b6000610fc289828a01610ed1565b9650506020610fd389828a01610f2f565b9550506040610fe489828a01610ed1565b9450506060610ff589828a01610ed1565b935050608061100689828a01610ed1565b92505060a061101789828a01610f2f565b9150509295509295509295565b60006020828403121561103a57611039610eb5565b5b600061104884828501610ed1565b91505092915050565b61105a81610f06565b82525050565b600061010082019050611076600083018b610e8b565b611083602083018a610e8b565b6110906040830189611051565b61109d6060830188610e8b565b6110aa6080830187610e8b565b6110b760a0830186610e8b565b6110c460c0830185610e8b565b6110d160e0830184611051565b9998505050505050505050565b600080600080600060a086880312156110fa576110f9610eb5565b5b600061110888828901610f2f565b955050602061111988828901610ed1565b945050604061112a88828901610ed1565b935050606061113b88828901610ed1565b925050608061114c88828901610f2f565b9150509295509295909350565b60008115159050919050565b61116e81611159565b82525050565b60006020820190506111896000830184611165565b92915050565b61119881610e81565b82525050565b6111a781610f06565b82525050565b610100820160008201516111c4600085018261118f565b5060208201516111d7602085018261118f565b5060408201516111ea604085018261119e565b5060608201516111fd606085018261118f565b506080820151611210608085018261118f565b5060a082015161122360a085018261118f565b5060c082015161123660c085018261118f565b5060e082015161124960e085018261119e565b50505050565b60006101008201905061126560008301846111ad565b92915050565b7f4e487b7100000000000000000000000000000000000000000000000000000000600052602260045260246000fd5b600060028204905060018216806112b257607f821691505b6020821081036112c5576112c461126b565b5b50919050565b60006080820190506112e06000830187610e8b565b6112ed6020830186610e8b565b6112fa6040830185610e8b565b6113076060830184611051565b95945050505050565b600060e082019050611325600083018a610e8b565b6113326020830189611051565b61133f6040830188610e8b565b61134c6060830187610e8b565b6113596080830186610e8b565b61136660a0830185610e8b565b61137360c0830184611051565b98975050505050505050565b7f4e487b7100000000000000000000000000000000000000000000000000000000600052601160045260246000fd5b60006113b982610e81565b91507fffffffffffffffffffffffffffffffffffffffffffffffffffffffffffffffff82036113eb576113ea61137f565b5b60018201905091905056fea264697066735822122038eef38d35ea7c0fafe703faf1e8f79330eee6fd02e71590c9ee5ba8c06be7bf64736f6c634300080e0033",
  "immutableReferences": {},
  "source": "// SPDX-License-Identifier: MIT\r\npragma solidity ^0.8.14;\r\ncontract Verification {\r\n    string public name = 'Verification';\r\n\r\n    uint256 public verificationCount = 0;\r\n\r\n    //Mapping Verification ID To Verification Object\r\n    mapping (uint256 => VerificateionObject) public VerificateionMap;\r\n    struct VerificateionObject  {\r\n        uint256 verificationID;\r\n        uint256 antiqueID;\r\n        address payable ownerAddress;\r\n        uint256 ownerID;\r\n        uint256 personVerificationID;\r\n        uint256 ioTDeviceID;\r\n        uint256 uploadTime;\r\n        address payable uploader;\r\n        //Need More Information: QR Code..\r\n    }\r\n\r\n    constructor() {\r\n        name = \"Verification\";\r\n    }\r\n\r\n    event VerificationAdded \r\n    (\r\n        uint256 verificationID,\r\n        address payable ownerAddress,\r\n        uint256 ownerID,\r\n        uint256 personVerificationID,\r\n        uint256 ioTDeviceID,\r\n        uint256 uploadTime,\r\n        address payable uploader\r\n    ); \r\n    event VerificationUpdated \r\n    (\r\n        uint256 verificationID,\r\n        address payable newOwnerAddress,\r\n        uint256 newOwnerID,\r\n        uint256 newPersonVerificationID,\r\n        uint256 newIoTDeviceID,\r\n        uint256 newUploadTime,\r\n        address payable newUploader\r\n    );\r\n\r\n    event SetAntiqueID\r\n    (\r\n        uint256 verificationID,\r\n        uint256 antiqueID,\r\n        uint256 newUploadTime,\r\n        address payable uploader\r\n    );\r\n\r\n    //POST:  ADD Verification\r\n    function AddVerification \r\n    (\r\n        address payable _ownerAddress,\r\n        uint256 _ownerID,\r\n        uint256 _personVerificationID,\r\n        uint256 _ioTDeviceID,\r\n        address payable _uploader\r\n    ) \r\n    public returns (uint256)\r\n    {\r\n        require(_uploader != address(0));\r\n        require(_ownerID > 0);\r\n        require(_personVerificationID > 0);\r\n        require(_ioTDeviceID  > 0);\r\n\r\n        //Make Default ID for Antique ID\r\n        uint256 _antiqueDefaultID = 0;\r\n\r\n        // Save Data To List \r\n        verificationCount ++;\r\n        VerificateionMap[verificationCount] = VerificateionObject \r\n        (\r\n            verificationCount,\r\n            _antiqueDefaultID,\r\n            _ownerAddress,\r\n            _ownerID,\r\n            _personVerificationID,\r\n            _ioTDeviceID,\r\n            block.timestamp,\r\n            _uploader\r\n        );\r\n\r\n        //Save To Blockchain\r\n        emit VerificationAdded \r\n        (\r\n            verificationCount,\r\n            _ownerAddress,\r\n            _ownerID,\r\n            _personVerificationID,\r\n            _ioTDeviceID,\r\n            block.timestamp,\r\n            _uploader\r\n        );\r\n        return verificationCount;\r\n    }\r\n\r\n    //PUT: UPDATE Verification\r\n    function UpdateVerification \r\n    (\r\n        uint256 _verificationID,\r\n        address payable _newOwnerAddress,\r\n        uint256 _newOwnerID,\r\n        uint256 _newPersonVerificationID,\r\n        uint256 _newIoTDeviceID,\r\n        address payable _uploader    \r\n    )\r\n    public \r\n    {\r\n        require(_verificationID > 0 && _verificationID <= verificationCount);\r\n        require(_uploader != address(0));\r\n        VerificateionObject memory _verificationData = VerificateionMap[_verificationID];\r\n        address payable _currentOwnerAddress = _verificationData.ownerAddress;\r\n\r\n        //Update OwnerShip Information\r\n        if (_currentOwnerAddress != _newOwnerAddress)\r\n        {\r\n            require(_newOwnerID != _verificationData.ownerID);\r\n            _verificationData.ownerAddress = _newOwnerAddress;\r\n            _verificationData.ownerID = _newOwnerID;\r\n        }\r\n\r\n        // //Update Uploaders\r\n        // if (_newUploader != _verificationData.uploader)\r\n        // {\r\n        //     _verificationData.uploader = _newUploader;\r\n        //     if (_newPersonVerificationID > 0 && _verificationData.personVerificationID != _newPersonVerificationID)\r\n        //     {\r\n        //         _verificationData.personVerificationID = _newPersonVerificationID;\r\n        //     }\r\n        // }\r\n        \r\n        if(_newIoTDeviceID != _verificationData.ioTDeviceID)\r\n        {\r\n            _verificationData.ioTDeviceID = _newIoTDeviceID;\r\n        }\r\n\r\n        _verificationData.uploadTime =  block.timestamp;\r\n\r\n        //Update Blockchain Data\r\n        VerificateionMap[_verificationID] = _verificationData;\r\n        emit VerificationUpdated \r\n        (\r\n            _verificationID,\r\n            _newOwnerAddress,\r\n            _newOwnerID,\r\n            _newPersonVerificationID,\r\n            _newIoTDeviceID,\r\n            block.timestamp,\r\n            _uploader\r\n        );\r\n    }\r\n    \r\n    //GET Verification By ID\r\n    function GetVerificationByID\r\n    (uint256 _verificationID)\r\n    external view returns (VerificateionObject memory)\r\n    {\r\n        require (ValidateVerificationID(_verificationID) == true);\r\n        return VerificateionMap[_verificationID];\r\n    }\r\n\r\n    //Validate Verification ID \r\n    function ValidateVerificationID \r\n    (uint _verificationID)\r\n    public view returns (bool)\r\n    {\r\n        if(_verificationID < 0 || _verificationID > verificationCount)\r\n            return false;\r\n        VerificateionObject memory _verificationData = VerificateionMap [_verificationID];\r\n        if(_verificationData.ownerAddress == address(0))\r\n            return false;\r\n        if (_verificationData.ownerID < 0)\r\n            return false;\r\n        return true;\r\n    }\r\n\r\n    //PUT: SET Antique ID For By Verification ID\r\n    function SetAntiqueIDByVerificationID\r\n    (\r\n        uint256 _verificationID,\r\n        uint256 _antiqueID,\r\n        address payable _uploader\r\n    )\r\n    public\r\n    {\r\n        require(ValidateVerificationID(_verificationID) == true);\r\n        require(_antiqueID > 0);\r\n        VerificateionObject memory _verificationData = VerificateionMap[_verificationID];\r\n        _verificationData.antiqueID = _antiqueID;\r\n        VerificateionMap[_verificationID] = _verificationData;\r\n         \r\n        // Save Data to blockchain\r\n        emit SetAntiqueID \r\n        (\r\n            _verificationID,\r\n            _antiqueID,\r\n            block.timestamp,\r\n            _uploader\r\n        );\r\n    }\r\n}\r\n",
  "sourcePath": "C:\\Users\\Natha\\OneDrive - The University of Sydney (Students)\\University of Sydney Materials\\Studying\\Year 5\\Semester 1\\Thesis B\\Thesis B Project Code\\truffle\\contracts\\Database\\Verification.sol",
  "compiler": {
    "name": "solc",
    "version": "0.8.14+commit.80d49f37.Emscripten.clang"
  },
  "schemaVersion": "3.4.11",
  "updatedAt": "2023-01-27T13:30:21.878Z",
  "networkType": "ethereum",
  "devdoc": {
    "kind": "dev",
    "methods": {},
    "version": 1
  },
  "userdoc": {
    "kind": "user",
    "methods": {},
    "version": 1
  }
}