{
  "contractName": "Verification",
  "abi": [
    {
      "inputs": [],
      "stateMutability": "nonpayable",
      "type": "constructor"
    },
    {
      "anonymous": false,
      "inputs": [
        {
          "indexed": false,
          "internalType": "uint256",
          "name": "verificationID",
          "type": "uint256"
        },
        {
          "indexed": false,
          "internalType": "uint256",
          "name": "antiqueID",
          "type": "uint256"
        },
        {
          "indexed": false,
          "internalType": "uint256",
          "name": "newUploadTime",
          "type": "uint256"
        },
        {
          "indexed": false,
          "internalType": "address payable",
          "name": "uploader",
          "type": "address"
        }
      ],
      "name": "SetAntiqueID",
      "type": "event"
    },
    {
      "anonymous": false,
      "inputs": [
        {
          "indexed": false,
          "internalType": "uint256",
          "name": "verificationID",
          "type": "uint256"
        },
        {
          "indexed": false,
          "internalType": "address payable",
          "name": "ownerAddress",
          "type": "address"
        },
        {
          "indexed": false,
          "internalType": "uint256",
          "name": "ownerID",
          "type": "uint256"
        },
        {
          "indexed": false,
          "internalType": "uint256",
          "name": "personVerificationID",
          "type": "uint256"
        },
        {
          "indexed": false,
          "internalType": "uint256",
          "name": "ioTDeviceID",
          "type": "uint256"
        },
        {
          "indexed": false,
          "internalType": "string",
          "name": "estimateManufactureYears",
          "type": "string"
        },
        {
          "indexed": false,
          "internalType": "string",
          "name": "antiqueRareness",
          "type": "string"
        },
        {
          "indexed": false,
          "internalType": "string",
          "name": "antiqueAuthenticity",
          "type": "string"
        },
        {
          "indexed": false,
          "internalType": "string",
          "name": "antiqueRealness",
          "type": "string"
        },
        {
          "indexed": false,
          "internalType": "uint256",
          "name": "uploadTime",
          "type": "uint256"
        },
        {
          "indexed": false,
          "internalType": "address payable",
          "name": "uploader",
          "type": "address"
        }
      ],
      "name": "VerificationAdded",
      "type": "event"
    },
    {
      "anonymous": false,
      "inputs": [
        {
          "indexed": false,
          "internalType": "uint256",
          "name": "verificationID",
          "type": "uint256"
        },
        {
          "indexed": false,
          "internalType": "address payable",
          "name": "newOwnerAddress",
          "type": "address"
        },
        {
          "indexed": false,
          "internalType": "uint256",
          "name": "newOwnerID",
          "type": "uint256"
        },
        {
          "indexed": false,
          "internalType": "uint256",
          "name": "newPersonVerificationID",
          "type": "uint256"
        },
        {
          "indexed": false,
          "internalType": "uint256",
          "name": "newIoTDeviceID",
          "type": "uint256"
        },
        {
          "indexed": false,
          "internalType": "string",
          "name": "newEstimateManufactureYears",
          "type": "string"
        },
        {
          "indexed": false,
          "internalType": "string",
          "name": "newAntiqueRareness",
          "type": "string"
        },
        {
          "indexed": false,
          "internalType": "string",
          "name": "newAntiqueAuthenticity",
          "type": "string"
        },
        {
          "indexed": false,
          "internalType": "string",
          "name": "newAntiqueRealness",
          "type": "string"
        },
        {
          "indexed": false,
          "internalType": "uint256",
          "name": "newUploadTime",
          "type": "uint256"
        },
        {
          "indexed": false,
          "internalType": "address payable",
          "name": "newUploader",
          "type": "address"
        }
      ],
      "name": "VerificationUpdated",
      "type": "event"
    },
    {
      "inputs": [
        {
          "internalType": "uint256",
          "name": "",
          "type": "uint256"
        }
      ],
      "name": "VerificateionMap",
      "outputs": [
        {
          "internalType": "uint256",
          "name": "verificationID",
          "type": "uint256"
        },
        {
          "internalType": "uint256",
          "name": "antiqueID",
          "type": "uint256"
        },
        {
          "internalType": "address payable",
          "name": "ownerAddress",
          "type": "address"
        },
        {
          "internalType": "uint256",
          "name": "ownerID",
          "type": "uint256"
        },
        {
          "internalType": "uint256",
          "name": "personVerificationID",
          "type": "uint256"
        },
        {
          "internalType": "uint256",
          "name": "ioTDeviceID",
          "type": "uint256"
        },
        {
          "internalType": "string",
          "name": "estimateManufactureYears",
          "type": "string"
        },
        {
          "internalType": "string",
          "name": "antiqueRareness",
          "type": "string"
        },
        {
          "internalType": "string",
          "name": "antiqueAuthenticity",
          "type": "string"
        },
        {
          "internalType": "string",
          "name": "antiqueRealness",
          "type": "string"
        },
        {
          "internalType": "uint256",
          "name": "uploadTime",
          "type": "uint256"
        },
        {
          "internalType": "address payable",
          "name": "uploader",
          "type": "address"
        }
      ],
      "stateMutability": "view",
      "type": "function",
      "constant": true
    },
    {
      "inputs": [],
      "name": "name",
      "outputs": [
        {
          "internalType": "string",
          "name": "",
          "type": "string"
        }
      ],
      "stateMutability": "view",
      "type": "function",
      "constant": true
    },
    {
      "inputs": [],
      "name": "verificationCount",
      "outputs": [
        {
          "internalType": "uint256",
          "name": "",
          "type": "uint256"
        }
      ],
      "stateMutability": "view",
      "type": "function",
      "constant": true
    },
    {
      "inputs": [
        {
          "internalType": "address payable",
          "name": "_ownerAddress",
          "type": "address"
        },
        {
          "internalType": "uint256",
          "name": "_ownerID",
          "type": "uint256"
        },
        {
          "internalType": "uint256",
          "name": "_personVerificationID",
          "type": "uint256"
        },
        {
          "internalType": "uint256",
          "name": "_ioTDeviceID",
          "type": "uint256"
        },
        {
          "internalType": "string",
          "name": "_estimateManufactureYears",
          "type": "string"
        },
        {
          "internalType": "string",
          "name": "_antiqueRareness",
          "type": "string"
        },
        {
          "internalType": "string",
          "name": "_antiqueAuthenticity",
          "type": "string"
        },
        {
          "internalType": "string",
          "name": "_antiqueRealness",
          "type": "string"
        },
        {
          "internalType": "address payable",
          "name": "_uploader",
          "type": "address"
        }
      ],
      "name": "AddVerification",
      "outputs": [
        {
          "internalType": "uint256",
          "name": "",
          "type": "uint256"
        }
      ],
      "stateMutability": "nonpayable",
      "type": "function"
    },
    {
      "inputs": [
        {
          "internalType": "uint256",
          "name": "_verificationID",
          "type": "uint256"
        },
        {
          "internalType": "address payable",
          "name": "_newOwnerAddress",
          "type": "address"
        },
        {
          "internalType": "uint256",
          "name": "_newOwnerID",
          "type": "uint256"
        },
        {
          "internalType": "uint256",
          "name": "_newPersonVerificationID",
          "type": "uint256"
        },
        {
          "internalType": "uint256",
          "name": "_newIoTDeviceID",
          "type": "uint256"
        },
        {
          "internalType": "string",
          "name": "_newEstimateManufactureYears",
          "type": "string"
        },
        {
          "internalType": "string",
          "name": "_newAntiqueRareness",
          "type": "string"
        },
        {
          "internalType": "string",
          "name": "_newAntiqueAuthenticity",
          "type": "string"
        },
        {
          "internalType": "string",
          "name": "_newAntiqueRealness",
          "type": "string"
        },
        {
          "internalType": "address payable",
          "name": "_uploader",
          "type": "address"
        }
      ],
      "name": "UpdateVerification",
      "outputs": [],
      "stateMutability": "nonpayable",
      "type": "function"
    },
    {
      "inputs": [
        {
          "internalType": "uint256",
          "name": "_verificationID",
          "type": "uint256"
        }
      ],
      "name": "GetVerificationByID",
      "outputs": [
        {
          "components": [
            {
              "internalType": "uint256",
              "name": "verificationID",
              "type": "uint256"
            },
            {
              "internalType": "uint256",
              "name": "antiqueID",
              "type": "uint256"
            },
            {
              "internalType": "address payable",
              "name": "ownerAddress",
              "type": "address"
            },
            {
              "internalType": "uint256",
              "name": "ownerID",
              "type": "uint256"
            },
            {
              "internalType": "uint256",
              "name": "personVerificationID",
              "type": "uint256"
            },
            {
              "internalType": "uint256",
              "name": "ioTDeviceID",
              "type": "uint256"
            },
            {
              "internalType": "string",
              "name": "estimateManufactureYears",
              "type": "string"
            },
            {
              "internalType": "string",
              "name": "antiqueRareness",
              "type": "string"
            },
            {
              "internalType": "string",
              "name": "antiqueAuthenticity",
              "type": "string"
            },
            {
              "internalType": "string",
              "name": "antiqueRealness",
              "type": "string"
            },
            {
              "internalType": "uint256",
              "name": "uploadTime",
              "type": "uint256"
            },
            {
              "internalType": "address payable",
              "name": "uploader",
              "type": "address"
            }
          ],
          "internalType": "struct Verification.VerificateionObject",
          "name": "",
          "type": "tuple"
        }
      ],
      "stateMutability": "view",
      "type": "function",
      "constant": true
    },
    {
      "inputs": [
        {
          "internalType": "uint256",
          "name": "_verificationID",
          "type": "uint256"
        }
      ],
      "name": "ValidateVerificationID",
      "outputs": [
        {
          "internalType": "bool",
          "name": "",
          "type": "bool"
        }
      ],
      "stateMutability": "view",
      "type": "function",
      "constant": true
    },
    {
      "inputs": [
        {
          "internalType": "uint256",
          "name": "_verificationID",
          "type": "uint256"
        },
        {
          "internalType": "uint256",
          "name": "_antiqueID",
          "type": "uint256"
        },
        {
          "internalType": "address payable",
          "name": "_uploader",
          "type": "address"
        }
      ],
      "name": "SetAntiqueIDByVerificationID",
      "outputs": [],
      "stateMutability": "nonpayable",
      "type": "function"
    },
    {
      "inputs": [
        {
          "internalType": "string",
          "name": "str1",
          "type": "string"
        },
        {
          "internalType": "string",
          "name": "str2",
          "type": "string"
        }
      ],
      "name": "compare",
      "outputs": [
        {
          "internalType": "bool",
          "name": "",
          "type": "bool"
        }
      ],
      "stateMutability": "pure",
      "type": "function",
      "constant": true
    }
  ],
  "bytecode": "0x60806040526040518060400160405280600c81526020017f566572696669636174696f6e00000000000000000000000000000000000000008152506000908051906020019062000051929190620000b9565b5060006001553480156200006457600080fd5b506040518060400160405280600c81526020017f566572696669636174696f6e000000000000000000000000000000000000000081525060009080519060200190620000b2929190620000b9565b50620001cd565b828054620000c79062000198565b90600052602060002090601f016020900481019282620000eb576000855562000137565b82601f106200010657805160ff191683800117855562000137565b8280016001018555821562000137579182015b828111156200013657825182559160200191906001019062000119565b5b5090506200014691906200014a565b5090565b5b80821115620001655760008160009055506001016200014b565b5090565b7f4e487b7100000000000000000000000000000000000000000000000000000000600052602260045260246000fd5b60006002820490506001821680620001b157607f821691505b602082108103620001c757620001c662000169565b5b50919050565b61283a80620001dd6000396000f3fe608060405234801561001057600080fd5b50600436106100935760003560e01c806357d547851161006657806357d54785146101205780638d72ae4f1461013c578063d27fbe4714610177578063db15b787146101a7578063e9ebc0b8146101d757610093565b806306fdde03146100985780630830e22e146100b65780630bb6c06b146100d45780633a96fdd7146100f0575b600080fd5b6100a0610207565b6040516100ad9190611d66565b60405180910390f35b6100be610295565b6040516100cb9190611da1565b60405180910390f35b6100ee60048036038101906100e99190611e5a565b61029b565b005b61010a60048036038101906101059190611fe2565b6107ba565b6040516101179190612075565b60405180910390f35b61013a60048036038101906101359190612090565b610826565b005b610156600480360381019061015191906121df565b610ea3565b60405161016e9c9b9a9998979695949392919061221b565b60405180910390f35b610191600480360381019061018c91906121df565b611163565b60405161019e9190612075565b60405180910390f35b6101c160048036038101906101bc91906121df565b611539565b6040516101ce9190612472565b60405180910390f35b6101f160048036038101906101ec9190612494565b6118b0565b6040516101fe9190611da1565b60405180910390f35b60008054610214906125fd565b80601f0160208091040260200160405190810160405280929190818152602001828054610240906125fd565b801561028d5780601f106102625761010080835404028352916020019161028d565b820191906000526020600020905b81548152906001019060200180831161027057829003601f168201915b505050505081565b60015481565b600115156102a884611163565b1515146102b457600080fd5b600082116102c157600080fd5b6000600260008581526020019081526020016000206040518061018001604052908160008201548152602001600182015481526020016002820160009054906101000a900473ffffffffffffffffffffffffffffffffffffffff1673ffffffffffffffffffffffffffffffffffffffff1673ffffffffffffffffffffffffffffffffffffffff16815260200160038201548152602001600482015481526020016005820154815260200160068201805461037a906125fd565b80601f01602080910402602001604051908101604052809291908181526020018280546103a6906125fd565b80156103f35780601f106103c8576101008083540402835291602001916103f3565b820191906000526020600020905b8154815290600101906020018083116103d657829003601f168201915b5050505050815260200160078201805461040c906125fd565b80601f0160208091040260200160405190810160405280929190818152602001828054610438906125fd565b80156104855780601f1061045a57610100808354040283529160200191610485565b820191906000526020600020905b81548152906001019060200180831161046857829003601f168201915b5050505050815260200160088201805461049e906125fd565b80601f01602080910402602001604051908101604052809291908181526020018280546104ca906125fd565b80156105175780601f106104ec57610100808354040283529160200191610517565b820191906000526020600020905b8154815290600101906020018083116104fa57829003601f168201915b50505050508152602001600982018054610530906125fd565b80601f016020809104026020016040519081016040528092919081815260200182805461055c906125fd565b80156105a95780601f1061057e576101008083540402835291602001916105a9565b820191906000526020600020905b81548152906001019060200180831161058c57829003601f168201915b50505050508152602001600a8201548152602001600b820160009054906101000a900473ffffffffffffffffffffffffffffffffffffffff1673ffffffffffffffffffffffffffffffffffffffff1673ffffffffffffffffffffffffffffffffffffffff16815250509050828160200181815250508060026000868152602001908152602001600020600082015181600001556020820151816001015560408201518160020160006101000a81548173ffffffffffffffffffffffffffffffffffffffff021916908373ffffffffffffffffffffffffffffffffffffffff160217905550606082015181600301556080820151816004015560a0820151816005015560c08201518160060190805190602001906106c7929190611b9d565b5060e08201518160070190805190602001906106e4929190611b9d565b50610100820151816008019080519060200190610702929190611b9d565b50610120820151816009019080519060200190610720929190611b9d565b5061014082015181600a015561016082015181600b0160006101000a81548173ffffffffffffffffffffffffffffffffffffffff021916908373ffffffffffffffffffffffffffffffffffffffff1602179055509050507f6e0b435700f0058d5626628c63237caa82eb6025db3997bcbfc4807dfba203ba848442856040516107ac949392919061262e565b60405180910390a150505050565b600081518351146107ce5760009050610820565b816040516020016107df91906126af565b604051602081830303815290604052805190602001208360405160200161080691906126af565b604051602081830303815290604052805190602001201490505b92915050565b60008a11801561083857506001548a11155b61084157600080fd5b600073ffffffffffffffffffffffffffffffffffffffff168173ffffffffffffffffffffffffffffffffffffffff160361087a57600080fd5b6000600260008c81526020019081526020016000206040518061018001604052908160008201548152602001600182015481526020016002820160009054906101000a900473ffffffffffffffffffffffffffffffffffffffff1673ffffffffffffffffffffffffffffffffffffffff1673ffffffffffffffffffffffffffffffffffffffff168152602001600382015481526020016004820154815260200160058201548152602001600682018054610933906125fd565b80601f016020809104026020016040519081016040528092919081815260200182805461095f906125fd565b80156109ac5780601f10610981576101008083540402835291602001916109ac565b820191906000526020600020905b81548152906001019060200180831161098f57829003601f168201915b505050505081526020016007820180546109c5906125fd565b80601f01602080910402602001604051908101604052809291908181526020018280546109f1906125fd565b8015610a3e5780601f10610a1357610100808354040283529160200191610a3e565b820191906000526020600020905b815481529060010190602001808311610a2157829003601f168201915b50505050508152602001600882018054610a57906125fd565b80601f0160208091040260200160405190810160405280929190818152602001828054610a83906125fd565b8015610ad05780601f10610aa557610100808354040283529160200191610ad0565b820191906000526020600020905b815481529060010190602001808311610ab357829003601f168201915b50505050508152602001600982018054610ae9906125fd565b80601f0160208091040260200160405190810160405280929190818152602001828054610b15906125fd565b8015610b625780601f10610b3757610100808354040283529160200191610b62565b820191906000526020600020905b815481529060010190602001808311610b4557829003601f168201915b50505050508152602001600a8201548152602001600b820160009054906101000a900473ffffffffffffffffffffffffffffffffffffffff1673ffffffffffffffffffffffffffffffffffffffff1673ffffffffffffffffffffffffffffffffffffffff168152505090506000816040015190508a73ffffffffffffffffffffffffffffffffffffffff168173ffffffffffffffffffffffffffffffffffffffff1614610c5c5781606001518a03610c1957600080fd5b8a826040019073ffffffffffffffffffffffffffffffffffffffff16908173ffffffffffffffffffffffffffffffffffffffff1681525050898260600181815250505b8160a001518814610c7257878260a00181815250505b610c80878360c001516107ba565b610c8e57868260c001819052505b610c9c868360e001516107ba565b610caa57858260e001819052505b610cb9858361010001516107ba565b610cc857848261010001819052505b610cd7848361012001516107ba565b610ce657838261012001819052505b428261014001818152505081600260008e8152602001908152602001600020600082015181600001556020820151816001015560408201518160020160006101000a81548173ffffffffffffffffffffffffffffffffffffffff021916908373ffffffffffffffffffffffffffffffffffffffff160217905550606082015181600301556080820151816004015560a0820151816005015560c0820151816006019080519060200190610d9a929190611b9d565b5060e0820151816007019080519060200190610db7929190611b9d565b50610100820151816008019080519060200190610dd5929190611b9d565b50610120820151816009019080519060200190610df3929190611b9d565b5061014082015181600a015561016082015181600b0160006101000a81548173ffffffffffffffffffffffffffffffffffffffff021916908373ffffffffffffffffffffffffffffffffffffffff1602179055509050507fe541ce2413a768fb6b62ebf28300457db4909a312e92edf74fba254e558ce8ed8c8c8c8c8c8c8c8c8c428d604051610e8d9b9a999897969594939291906126c6565b60405180910390a1505050505050505050505050565b60026020528060005260406000206000915090508060000154908060010154908060020160009054906101000a900473ffffffffffffffffffffffffffffffffffffffff1690806003015490806004015490806005015490806006018054610f0a906125fd565b80601f0160208091040260200160405190810160405280929190818152602001828054610f36906125fd565b8015610f835780601f10610f5857610100808354040283529160200191610f83565b820191906000526020600020905b815481529060010190602001808311610f6657829003601f168201915b505050505090806007018054610f98906125fd565b80601f0160208091040260200160405190810160405280929190818152602001828054610fc4906125fd565b80156110115780601f10610fe657610100808354040283529160200191611011565b820191906000526020600020905b815481529060010190602001808311610ff457829003601f168201915b505050505090806008018054611026906125fd565b80601f0160208091040260200160405190810160405280929190818152602001828054611052906125fd565b801561109f5780601f106110745761010080835404028352916020019161109f565b820191906000526020600020905b81548152906001019060200180831161108257829003601f168201915b5050505050908060090180546110b4906125fd565b80601f01602080910402602001604051908101604052809291908181526020018280546110e0906125fd565b801561112d5780601f106111025761010080835404028352916020019161112d565b820191906000526020600020905b81548152906001019060200180831161111057829003601f168201915b50505050509080600a01549080600b0160009054906101000a900473ffffffffffffffffffffffffffffffffffffffff1690508c565b600080821080611174575060015482115b156111825760009050611534565b6000600260008481526020019081526020016000206040518061018001604052908160008201548152602001600182015481526020016002820160009054906101000a900473ffffffffffffffffffffffffffffffffffffffff1673ffffffffffffffffffffffffffffffffffffffff1673ffffffffffffffffffffffffffffffffffffffff16815260200160038201548152602001600482015481526020016005820154815260200160068201805461123b906125fd565b80601f0160208091040260200160405190810160405280929190818152602001828054611267906125fd565b80156112b45780601f10611289576101008083540402835291602001916112b4565b820191906000526020600020905b81548152906001019060200180831161129757829003601f168201915b505050505081526020016007820180546112cd906125fd565b80601f01602080910402602001604051908101604052809291908181526020018280546112f9906125fd565b80156113465780601f1061131b57610100808354040283529160200191611346565b820191906000526020600020905b81548152906001019060200180831161132957829003601f168201915b5050505050815260200160088201805461135f906125fd565b80601f016020809104026020016040519081016040528092919081815260200182805461138b906125fd565b80156113d85780601f106113ad576101008083540402835291602001916113d8565b820191906000526020600020905b8154815290600101906020018083116113bb57829003601f168201915b505050505081526020016009820180546113f1906125fd565b80601f016020809104026020016040519081016040528092919081815260200182805461141d906125fd565b801561146a5780601f1061143f5761010080835404028352916020019161146a565b820191906000526020600020905b81548152906001019060200180831161144d57829003601f168201915b50505050508152602001600a8201548152602001600b820160009054906101000a900473ffffffffffffffffffffffffffffffffffffffff1673ffffffffffffffffffffffffffffffffffffffff1673ffffffffffffffffffffffffffffffffffffffff16815250509050600073ffffffffffffffffffffffffffffffffffffffff16816040015173ffffffffffffffffffffffffffffffffffffffff1603611517576000915050611534565b60008160600151101561152e576000915050611534565b60019150505b919050565b611541611c23565b6001151561154e83611163565b15151461155a57600080fd5b600260008381526020019081526020016000206040518061018001604052908160008201548152602001600182015481526020016002820160009054906101000a900473ffffffffffffffffffffffffffffffffffffffff1673ffffffffffffffffffffffffffffffffffffffff1673ffffffffffffffffffffffffffffffffffffffff168152602001600382015481526020016004820154815260200160058201548152602001600682018054611611906125fd565b80601f016020809104026020016040519081016040528092919081815260200182805461163d906125fd565b801561168a5780601f1061165f5761010080835404028352916020019161168a565b820191906000526020600020905b81548152906001019060200180831161166d57829003601f168201915b505050505081526020016007820180546116a3906125fd565b80601f01602080910402602001604051908101604052809291908181526020018280546116cf906125fd565b801561171c5780601f106116f15761010080835404028352916020019161171c565b820191906000526020600020905b8154815290600101906020018083116116ff57829003601f168201915b50505050508152602001600882018054611735906125fd565b80601f0160208091040260200160405190810160405280929190818152602001828054611761906125fd565b80156117ae5780601f10611783576101008083540402835291602001916117ae565b820191906000526020600020905b81548152906001019060200180831161179157829003601f168201915b505050505081526020016009820180546117c7906125fd565b80601f01602080910402602001604051908101604052809291908181526020018280546117f3906125fd565b80156118405780601f1061181557610100808354040283529160200191611840565b820191906000526020600020905b81548152906001019060200180831161182357829003601f168201915b50505050508152602001600a8201548152602001600b820160009054906101000a900473ffffffffffffffffffffffffffffffffffffffff1673ffffffffffffffffffffffffffffffffffffffff1673ffffffffffffffffffffffffffffffffffffffff16815250509050919050565b60008073ffffffffffffffffffffffffffffffffffffffff168273ffffffffffffffffffffffffffffffffffffffff16036118ea57600080fd5b600089116118f757600080fd5b6000881161190457600080fd5b6000871161191157600080fd5b600086511161191f57600080fd5b600085511161192d57600080fd5b600084511161193b57600080fd5b600083511161194957600080fd5b60006001600081548092919061195e906127bc565b919050555060405180610180016040528060015481526020018281526020018c73ffffffffffffffffffffffffffffffffffffffff1681526020018b81526020018a81526020018981526020018881526020018781526020018681526020018581526020014281526020018473ffffffffffffffffffffffffffffffffffffffff16815250600260006001548152602001908152602001600020600082015181600001556020820151816001015560408201518160020160006101000a81548173ffffffffffffffffffffffffffffffffffffffff021916908373ffffffffffffffffffffffffffffffffffffffff160217905550606082015181600301556080820151816004015560a0820151816005015560c0820151816006019080519060200190611a8d929190611b9d565b5060e0820151816007019080519060200190611aaa929190611b9d565b50610100820151816008019080519060200190611ac8929190611b9d565b50610120820151816009019080519060200190611ae6929190611b9d565b5061014082015181600a015561016082015181600b0160006101000a81548173ffffffffffffffffffffffffffffffffffffffff021916908373ffffffffffffffffffffffffffffffffffffffff1602179055509050507f972b4b0abf74b36c4f9f6ba0bc28b2d7a20943d5da83bfddb548dfab961195486001548c8c8c8c8c8c8c8c428d604051611b829b9a999897969594939291906126c6565b60405180910390a16001549150509998505050505050505050565b828054611ba9906125fd565b90600052602060002090601f016020900481019282611bcb5760008555611c12565b82601f10611be457805160ff1916838001178555611c12565b82800160010185558215611c12579182015b82811115611c11578251825591602001919060010190611bf6565b5b509050611c1f9190611cb0565b5090565b6040518061018001604052806000815260200160008152602001600073ffffffffffffffffffffffffffffffffffffffff1681526020016000815260200160008152602001600081526020016060815260200160608152602001606081526020016060815260200160008152602001600073ffffffffffffffffffffffffffffffffffffffff1681525090565b5b80821115611cc9576000816000905550600101611cb1565b5090565b600081519050919050565b600082825260208201905092915050565b60005b83811015611d07578082015181840152602081019050611cec565b83811115611d16576000848401525b50505050565b6000601f19601f8301169050919050565b6000611d3882611ccd565b611d428185611cd8565b9350611d52818560208601611ce9565b611d5b81611d1c565b840191505092915050565b60006020820190508181036000830152611d808184611d2d565b905092915050565b6000819050919050565b611d9b81611d88565b82525050565b6000602082019050611db66000830184611d92565b92915050565b6000604051905090565b600080fd5b600080fd5b611dd981611d88565b8114611de457600080fd5b50565b600081359050611df681611dd0565b92915050565b600073ffffffffffffffffffffffffffffffffffffffff82169050919050565b6000611e2782611dfc565b9050919050565b611e3781611e1c565b8114611e4257600080fd5b50565b600081359050611e5481611e2e565b92915050565b600080600060608486031215611e7357611e72611dc6565b5b6000611e8186828701611de7565b9350506020611e9286828701611de7565b9250506040611ea386828701611e45565b9150509250925092565b600080fd5b600080fd5b7f4e487b7100000000000000000000000000000000000000000000000000000000600052604160045260246000fd5b611eef82611d1c565b810181811067ffffffffffffffff82111715611f0e57611f0d611eb7565b5b80604052505050565b6000611f21611dbc565b9050611f2d8282611ee6565b919050565b600067ffffffffffffffff821115611f4d57611f4c611eb7565b5b611f5682611d1c565b9050602081019050919050565b82818337600083830152505050565b6000611f85611f8084611f32565b611f17565b905082815260208101848484011115611fa157611fa0611eb2565b5b611fac848285611f63565b509392505050565b600082601f830112611fc957611fc8611ead565b5b8135611fd9848260208601611f72565b91505092915050565b60008060408385031215611ff957611ff8611dc6565b5b600083013567ffffffffffffffff81111561201757612016611dcb565b5b61202385828601611fb4565b925050602083013567ffffffffffffffff81111561204457612043611dcb565b5b61205085828601611fb4565b9150509250929050565b60008115159050919050565b61206f8161205a565b82525050565b600060208201905061208a6000830184612066565b92915050565b6000806000806000806000806000806101408b8d0312156120b4576120b3611dc6565b5b60006120c28d828e01611de7565b9a505060206120d38d828e01611e45565b99505060406120e48d828e01611de7565b98505060606120f58d828e01611de7565b97505060806121068d828e01611de7565b96505060a08b013567ffffffffffffffff81111561212757612126611dcb565b5b6121338d828e01611fb4565b95505060c08b013567ffffffffffffffff81111561215457612153611dcb565b5b6121608d828e01611fb4565b94505060e08b013567ffffffffffffffff81111561218157612180611dcb565b5b61218d8d828e01611fb4565b9350506101008b013567ffffffffffffffff8111156121af576121ae611dcb565b5b6121bb8d828e01611fb4565b9250506101206121cd8d828e01611e45565b9150509295989b9194979a5092959850565b6000602082840312156121f5576121f4611dc6565b5b600061220384828501611de7565b91505092915050565b61221581611e1c565b82525050565b600061018082019050612231600083018f611d92565b61223e602083018e611d92565b61224b604083018d61220c565b612258606083018c611d92565b612265608083018b611d92565b61227260a083018a611d92565b81810360c08301526122848189611d2d565b905081810360e08301526122988188611d2d565b90508181036101008301526122ad8187611d2d565b90508181036101208301526122c28186611d2d565b90506122d2610140830185611d92565b6122e061016083018461220c565b9d9c50505050505050505050505050565b6122fa81611d88565b82525050565b61230981611e1c565b82525050565b600082825260208201905092915050565b600061232b82611ccd565b612335818561230f565b9350612345818560208601611ce9565b61234e81611d1c565b840191505092915050565b60006101808301600083015161237260008601826122f1565b50602083015161238560208601826122f1565b5060408301516123986040860182612300565b5060608301516123ab60608601826122f1565b5060808301516123be60808601826122f1565b5060a08301516123d160a08601826122f1565b5060c083015184820360c08601526123e98282612320565b91505060e083015184820360e08601526124038282612320565b91505061010083015184820361010086015261241f8282612320565b91505061012083015184820361012086015261243b8282612320565b9150506101408301516124526101408601826122f1565b50610160830151612467610160860182612300565b508091505092915050565b6000602082019050818103600083015261248c8184612359565b905092915050565b60008060008060008060008060006101208a8c0312156124b7576124b6611dc6565b5b60006124c58c828d01611e45565b99505060206124d68c828d01611de7565b98505060406124e78c828d01611de7565b97505060606124f88c828d01611de7565b96505060808a013567ffffffffffffffff81111561251957612518611dcb565b5b6125258c828d01611fb4565b95505060a08a013567ffffffffffffffff81111561254657612545611dcb565b5b6125528c828d01611fb4565b94505060c08a013567ffffffffffffffff81111561257357612572611dcb565b5b61257f8c828d01611fb4565b93505060e08a013567ffffffffffffffff8111156125a05761259f611dcb565b5b6125ac8c828d01611fb4565b9250506101006125be8c828d01611e45565b9150509295985092959850929598565b7f4e487b7100000000000000000000000000000000000000000000000000000000600052602260045260246000fd5b6000600282049050600182168061261557607f821691505b602082108103612628576126276125ce565b5b50919050565b60006080820190506126436000830187611d92565b6126506020830186611d92565b61265d6040830185611d92565b61266a606083018461220c565b95945050505050565b600081905092915050565b600061268982611ccd565b6126938185612673565b93506126a3818560208601611ce9565b80840191505092915050565b60006126bb828461267e565b915081905092915050565b6000610160820190506126dc600083018e611d92565b6126e9602083018d61220c565b6126f6604083018c611d92565b612703606083018b611d92565b612710608083018a611d92565b81810360a08301526127228189611d2d565b905081810360c08301526127368188611d2d565b905081810360e083015261274a8187611d2d565b905081810361010083015261275f8186611d2d565b905061276f610120830185611d92565b61277d61014083018461220c565b9c9b505050505050505050505050565b7f4e487b7100000000000000000000000000000000000000000000000000000000600052601160045260246000fd5b60006127c782611d88565b91507fffffffffffffffffffffffffffffffffffffffffffffffffffffffffffffffff82036127f9576127f861278d565b5b60018201905091905056fea264697066735822122089a91bc86973920863578141b1fd539d27ed945051f8b28444e2ebbe2c18dd6964736f6c634300080e0033",
  "immutableReferences": {},
  "source": "// SPDX-License-Identifier: MIT\r\npragma solidity ^0.8.14;\r\ncontract Verification {\r\n    string public name = 'Verification';\r\n\r\n    uint256 public verificationCount = 0;\r\n\r\n    //Mapping Verification ID To Verification Object\r\n    mapping (uint256 => VerificateionObject) public VerificateionMap;\r\n    struct VerificateionObject  {\r\n        //Owner And Appraiser Data\r\n        uint256 verificationID;\r\n        uint256 antiqueID;\r\n        address payable ownerAddress;\r\n        uint256 ownerID;\r\n        uint256 personVerificationID;\r\n\r\n        //Antique Object Data\r\n        uint256 ioTDeviceID;\r\n        string estimateManufactureYears;\r\n        string antiqueRareness;\r\n        string antiqueAuthenticity;\r\n        string antiqueRealness;\r\n\r\n        //Time And Sender Data\r\n        uint256 uploadTime;\r\n        address payable uploader;\r\n        //Need More Information: QR Code..\r\n    }\r\n\r\n    constructor() {\r\n        name = \"Verification\";\r\n    }\r\n\r\n    event VerificationAdded \r\n    (\r\n        //Owner and Appraiser Data\r\n        uint256 verificationID,\r\n        address payable ownerAddress,\r\n        uint256 ownerID,\r\n        uint256 personVerificationID,\r\n\r\n        //Antique Object Data\r\n        uint256 ioTDeviceID,\r\n        string estimateManufactureYears,\r\n        string antiqueRareness,\r\n        string antiqueAuthenticity,\r\n        string antiqueRealness,     \r\n\r\n        //Time Data\r\n        uint256 uploadTime,\r\n        address payable uploader\r\n    ); \r\n    event VerificationUpdated \r\n    (\r\n        //Owner and Appraiser Dataa\r\n        uint256 verificationID,\r\n        address payable newOwnerAddress,\r\n        uint256 newOwnerID,\r\n        uint256 newPersonVerificationID,\r\n\r\n        //Antique Object Data\r\n        uint256 newIoTDeviceID,\r\n        string newEstimateManufactureYears,\r\n        string newAntiqueRareness,\r\n        string newAntiqueAuthenticity,\r\n        string newAntiqueRealness,\r\n\r\n        //Time Data\r\n        uint256 newUploadTime,\r\n        address payable newUploader\r\n    );\r\n\r\n    event SetAntiqueID\r\n    (\r\n        uint256 verificationID,\r\n        uint256 antiqueID,\r\n        uint256 newUploadTime,\r\n        address payable uploader\r\n    );\r\n\r\n    //POST:  ADD Verification\r\n    function AddVerification \r\n    (\r\n        //Owner and Appraiser Data\r\n        address payable _ownerAddress,\r\n        uint256 _ownerID,\r\n        uint256 _personVerificationID,\r\n        \r\n        //Antique Object Data\r\n        uint256 _ioTDeviceID,\r\n        string memory _estimateManufactureYears,\r\n        string memory _antiqueRareness,\r\n        string memory _antiqueAuthenticity,\r\n        string memory _antiqueRealness,\r\n\r\n        //Time Data    \r\n        address payable _uploader\r\n    ) \r\n    public returns (uint256)\r\n    {\r\n        require(_uploader != address(0));\r\n        require(_ownerID > 0);\r\n        require(_personVerificationID > 0);\r\n        require(_ioTDeviceID  > 0);\r\n        require(bytes(_estimateManufactureYears).length > 0);\r\n        require(bytes(_antiqueRareness).length > 0);\r\n        require(bytes(_antiqueAuthenticity).length > 0);\r\n        require(bytes(_antiqueRealness).length > 0);\r\n        \r\n        //Make Default ID for Antique ID\r\n        uint256 _antiqueDefaultID = 0;\r\n\r\n        // Save Data To List \r\n        verificationCount ++;\r\n        VerificateionMap[verificationCount] = VerificateionObject \r\n        (\r\n            //Owner and Appraiser Data\r\n            verificationCount,\r\n            _antiqueDefaultID,\r\n            _ownerAddress,\r\n            _ownerID,\r\n            _personVerificationID,\r\n\r\n            //Antique Object Data\r\n            _ioTDeviceID,\r\n            _estimateManufactureYears,\r\n            _antiqueRareness,\r\n            _antiqueAuthenticity,\r\n            _antiqueRealness,\r\n\r\n            //Time Data\r\n            block.timestamp,\r\n            _uploader\r\n        );\r\n\r\n        //Save To Blockchain\r\n        emit VerificationAdded \r\n        (\r\n            //Owner And Appraiser Data\r\n            verificationCount,\r\n            _ownerAddress,\r\n            _ownerID,\r\n            _personVerificationID,\r\n\r\n            //Antique Object Data\r\n            _ioTDeviceID,\r\n            _estimateManufactureYears,\r\n            _antiqueRareness,\r\n            _antiqueAuthenticity,\r\n            _antiqueRealness,\r\n            block.timestamp,\r\n            _uploader\r\n        );\r\n        return verificationCount;\r\n    }\r\n\r\n    //PUT: UPDATE Verification\r\n    function UpdateVerification \r\n    (\r\n        //Owner and Appraiser Data\r\n        uint256 _verificationID,\r\n        address payable _newOwnerAddress,\r\n        uint256 _newOwnerID,\r\n        uint256 _newPersonVerificationID,\r\n        \r\n        //Antique Object Data\r\n        uint256 _newIoTDeviceID,\r\n        string memory _newEstimateManufactureYears,\r\n        string memory _newAntiqueRareness,\r\n        string memory _newAntiqueAuthenticity,\r\n        string memory _newAntiqueRealness,\r\n\r\n        //Time Data\r\n        address payable _uploader    \r\n    )\r\n    public \r\n    {\r\n        require(_verificationID > 0 && _verificationID <= verificationCount);\r\n        require(_uploader != address(0));\r\n        VerificateionObject memory _verificationData = VerificateionMap[_verificationID];\r\n        address payable _currentOwnerAddress = _verificationData.ownerAddress;\r\n        // require(bytes(_newEstimateManufactureYears).length > 0);\r\n        // require(bytes(_newAntiqueRareness).length > 0);\r\n        // require(bytes(_newAntiqueAuthenticity).length > 0);\r\n        // require(bytes(_newAntiqueRealness).length > 0);\r\n        //Update OwnerShip Information\r\n        if (_currentOwnerAddress != _newOwnerAddress)\r\n        {\r\n            require(_newOwnerID != _verificationData.ownerID);\r\n            _verificationData.ownerAddress = _newOwnerAddress;\r\n            _verificationData.ownerID = _newOwnerID;\r\n        }\r\n\r\n        // //Update Uploaders\r\n        // if (_newUploader != _verificationData.uploader)\r\n        // {\r\n        //     _verificationData.uploader = _newUploader;\r\n        //     if (_newPersonVerificationID > 0 && _verificationData.personVerificationID != _newPersonVerificationID)\r\n        //     {\r\n        //         _verificationData.personVerificationID = _newPersonVerificationID;\r\n        //     }\r\n        // }\r\n        \r\n        // Update Antique Data \r\n        if(_newIoTDeviceID != _verificationData.ioTDeviceID)\r\n        {\r\n            _verificationData.ioTDeviceID = _newIoTDeviceID;\r\n        }\r\n\r\n        if(!compare(_newEstimateManufactureYears,_verificationData.estimateManufactureYears))\r\n        {\r\n            _verificationData.estimateManufactureYears = _newEstimateManufactureYears;\r\n        }\r\n\r\n        if(!compare(_newAntiqueRareness,_verificationData.antiqueRareness))\r\n        {\r\n            _verificationData.antiqueRareness = _newAntiqueRareness;\r\n        }\r\n\r\n        if(!compare(_newAntiqueAuthenticity,_verificationData.antiqueAuthenticity))\r\n        {\r\n            _verificationData.antiqueAuthenticity = _newAntiqueAuthenticity;\r\n        }\r\n\r\n        if(!compare(_newAntiqueRealness,_verificationData.antiqueRealness))\r\n        {\r\n            _verificationData.antiqueRealness = _newAntiqueRealness;\r\n        }\r\n\r\n        _verificationData.uploadTime =  block.timestamp;\r\n\r\n        //Update Blockchain Data\r\n        VerificateionMap[_verificationID] = _verificationData;\r\n        emit VerificationUpdated \r\n        (\r\n            //Owner and Appraiser Data\r\n            _verificationID,\r\n            _newOwnerAddress,\r\n            _newOwnerID,\r\n            _newPersonVerificationID,\r\n            \r\n            //Antique Data\r\n            _newIoTDeviceID,\r\n            _newEstimateManufactureYears,\r\n            _newAntiqueRareness,\r\n            _newAntiqueAuthenticity,\r\n            _newAntiqueRealness,\r\n\r\n            //Data Time \r\n            block.timestamp,\r\n            _uploader\r\n        );\r\n    }\r\n    \r\n    //GET Verification By ID\r\n    function GetVerificationByID\r\n    (uint256 _verificationID)\r\n    external view returns (VerificateionObject memory)\r\n    {\r\n        require (ValidateVerificationID(_verificationID) == true);\r\n        return VerificateionMap[_verificationID];\r\n    }\r\n\r\n    //Validate Verification ID \r\n    function ValidateVerificationID \r\n    (uint _verificationID)\r\n    public view returns (bool)\r\n    {\r\n        if(_verificationID < 0 || _verificationID > verificationCount)\r\n            return false;\r\n        VerificateionObject memory _verificationData = VerificateionMap [_verificationID];\r\n        if(_verificationData.ownerAddress == address(0))\r\n            return false;\r\n        if (_verificationData.ownerID < 0)\r\n            return false;\r\n        return true;\r\n    }\r\n\r\n    //PUT: SET Antique ID For By Verification ID\r\n    function SetAntiqueIDByVerificationID\r\n    (\r\n        uint256 _verificationID,\r\n        uint256 _antiqueID,\r\n        address payable _uploader\r\n    )\r\n    public\r\n    {\r\n        require(ValidateVerificationID(_verificationID) == true);\r\n        require(_antiqueID > 0);\r\n        VerificateionObject memory _verificationData = VerificateionMap[_verificationID];\r\n        _verificationData.antiqueID = _antiqueID;\r\n        VerificateionMap[_verificationID] = _verificationData;\r\n         \r\n        // Save Data to blockchain\r\n        emit SetAntiqueID \r\n        (\r\n            _verificationID,\r\n            _antiqueID,\r\n            block.timestamp,\r\n            _uploader\r\n        );\r\n    }\r\n    \r\n    function compare(string memory str1, string memory str2) public pure returns (bool) {\r\n        if (bytes(str1).length != bytes(str2).length) {\r\n            return false;\r\n        }\r\n        return keccak256(abi.encodePacked(str1)) == keccak256(abi.encodePacked(str2));\r\n    }\r\n}\r\n",
  "sourcePath": "C:\\Users\\Natha\\OneDrive - The University of Sydney (Students)\\University of Sydney Materials\\Studying\\Year 5\\Semester 1\\Thesis B\\Thesis B Project Code\\truffle\\contracts\\Database\\Verification.sol",
  "compiler": {
    "name": "solc",
    "version": "0.8.14+commit.80d49f37.Emscripten.clang"
  },
  "schemaVersion": "3.4.11",
  "updatedAt": "2023-01-31T12:26:08.164Z",
  "networkType": "ethereum",
  "devdoc": {
    "kind": "dev",
    "methods": {},
    "version": 1
  },
  "userdoc": {
    "kind": "user",
    "methods": {},
    "version": 1
  }
}