{
	"Database/Database/Antique.sol": {
		"Antique": {
			"abi": [
				{
					"inputs": [],
					"stateMutability": "nonpayable",
					"type": "constructor"
				},
				{
					"anonymous": false,
					"inputs": [
						{
							"indexed": false,
							"internalType": "uint256",
							"name": "antiqueID",
							"type": "uint256"
						},
						{
							"indexed": false,
							"internalType": "uint256",
							"name": "documentationID",
							"type": "uint256"
						},
						{
							"indexed": false,
							"internalType": "uint256",
							"name": "verificationID",
							"type": "uint256"
						},
						{
							"indexed": false,
							"internalType": "uint256",
							"name": "descriptionID",
							"type": "uint256"
						},
						{
							"indexed": false,
							"internalType": "address payable",
							"name": "uploader",
							"type": "address"
						}
					],
					"name": "AntiqueAdded",
					"type": "event"
				},
				{
					"anonymous": false,
					"inputs": [
						{
							"indexed": false,
							"internalType": "uint256",
							"name": "antiqueID",
							"type": "uint256"
						},
						{
							"indexed": false,
							"internalType": "uint256",
							"name": "documentationID",
							"type": "uint256"
						},
						{
							"indexed": false,
							"internalType": "uint256",
							"name": "verificationID",
							"type": "uint256"
						},
						{
							"indexed": false,
							"internalType": "uint256",
							"name": "descriptionID",
							"type": "uint256"
						},
						{
							"indexed": false,
							"internalType": "address payable",
							"name": "updater",
							"type": "address"
						}
					],
					"name": "AntiqueUpdate",
					"type": "event"
				},
				{
					"inputs": [
						{
							"internalType": "uint256",
							"name": "_documentationID",
							"type": "uint256"
						},
						{
							"internalType": "uint256",
							"name": "_verificationID",
							"type": "uint256"
						},
						{
							"internalType": "uint256",
							"name": "_descriptionID",
							"type": "uint256"
						},
						{
							"internalType": "address payable",
							"name": "_uploader",
							"type": "address"
						}
					],
					"name": "AddAntique",
					"outputs": [
						{
							"internalType": "uint256",
							"name": "",
							"type": "uint256"
						}
					],
					"stateMutability": "nonpayable",
					"type": "function"
				},
				{
					"inputs": [
						{
							"internalType": "uint256",
							"name": "_antiqueID",
							"type": "uint256"
						}
					],
					"name": "GetAntiqueByID",
					"outputs": [
						{
							"components": [
								{
									"internalType": "uint256",
									"name": "antiqueID",
									"type": "uint256"
								},
								{
									"internalType": "uint256",
									"name": "documentationID",
									"type": "uint256"
								},
								{
									"internalType": "uint256",
									"name": "verificationID",
									"type": "uint256"
								},
								{
									"internalType": "uint256",
									"name": "descriptionID",
									"type": "uint256"
								}
							],
							"internalType": "struct Antique.AntiqueObject",
							"name": "",
							"type": "tuple"
						}
					],
					"stateMutability": "view",
					"type": "function"
				},
				{
					"inputs": [
						{
							"internalType": "uint256",
							"name": "_antiqueID",
							"type": "uint256"
						},
						{
							"internalType": "uint256",
							"name": "_documentationID",
							"type": "uint256"
						},
						{
							"internalType": "uint256",
							"name": "_verificationID",
							"type": "uint256"
						},
						{
							"internalType": "uint256",
							"name": "_descriptionID",
							"type": "uint256"
						},
						{
							"internalType": "address payable",
							"name": "_uploader",
							"type": "address"
						}
					],
					"name": "UpdateAntique",
					"outputs": [],
					"stateMutability": "nonpayable",
					"type": "function"
				},
				{
					"inputs": [
						{
							"internalType": "uint256",
							"name": "_antiqueID",
							"type": "uint256"
						}
					],
					"name": "ValidateAntiqueID",
					"outputs": [
						{
							"internalType": "bool",
							"name": "",
							"type": "bool"
						}
					],
					"stateMutability": "view",
					"type": "function"
				},
				{
					"inputs": [],
					"name": "antiqueCount",
					"outputs": [
						{
							"internalType": "uint256",
							"name": "",
							"type": "uint256"
						}
					],
					"stateMutability": "view",
					"type": "function"
				},
				{
					"inputs": [
						{
							"internalType": "uint256",
							"name": "",
							"type": "uint256"
						}
					],
					"name": "antiqueMap",
					"outputs": [
						{
							"internalType": "uint256",
							"name": "antiqueID",
							"type": "uint256"
						},
						{
							"internalType": "uint256",
							"name": "documentationID",
							"type": "uint256"
						},
						{
							"internalType": "uint256",
							"name": "verificationID",
							"type": "uint256"
						},
						{
							"internalType": "uint256",
							"name": "descriptionID",
							"type": "uint256"
						}
					],
					"stateMutability": "view",
					"type": "function"
				},
				{
					"inputs": [],
					"name": "name",
					"outputs": [
						{
							"internalType": "string",
							"name": "",
							"type": "string"
						}
					],
					"stateMutability": "view",
					"type": "function"
				}
			],
			"devdoc": {
				"kind": "dev",
				"methods": {},
				"version": 1
			},
			"evm": {
				"assembly": "    /* \"Database/Database/Antique.sol\":61:4100  contract Antique {... */\n  mstore(0x40, 0x80)\n    /* \"Database/Database/Antique.sol\":85:115  string public name = \"Antique\" */\n  mload(0x40)\n  dup1\n  0x40\n  add\n  0x40\n  mstore\n  dup1\n  0x07\n  dup2\n  mstore\n  0x20\n  add\n  0x416e746971756500000000000000000000000000000000000000000000000000\n  dup2\n  mstore\n  pop\n  0x00\n  swap1\n  dup2\n  tag_1\n  swap2\n  swap1\n  tag_2\n  jump\t// in\ntag_1:\n  pop\n    /* \"Database/Database/Antique.sol\":152:153  0 */\n  0x00\n    /* \"Database/Database/Antique.sol\":122:153  uint256 public antiqueCount = 0 */\n  0x01\n  sstore\n    /* \"Database/Database/Antique.sol\":546:595  constructor() {... */\n  callvalue\n  dup1\n  iszero\n  tag_3\n  jumpi\n  0x00\n  dup1\n  revert\ntag_3:\n  pop\n    /* \"Database/Database/Antique.sol\":571:587  name = \"Antique\" */\n  mload(0x40)\n  dup1\n  0x40\n  add\n  0x40\n  mstore\n  dup1\n  0x07\n  dup2\n  mstore\n  0x20\n  add\n  0x416e746971756500000000000000000000000000000000000000000000000000\n  dup2\n  mstore\n  pop\n    /* \"Database/Database/Antique.sol\":571:575  name */\n  0x00\n    /* \"Database/Database/Antique.sol\":571:587  name = \"Antique\" */\n  swap1\n  dup2\n  tag_6\n  swap2\n  swap1\n  tag_2\n  jump\t// in\ntag_6:\n  pop\n    /* \"Database/Database/Antique.sol\":61:4100  contract Antique {... */\n  jump(tag_7)\n    /* \"#utility.yul\":7:106   */\ntag_8:\n    /* \"#utility.yul\":59:65   */\n  0x00\n    /* \"#utility.yul\":93:98   */\n  dup2\n    /* \"#utility.yul\":87:99   */\n  mload\n    /* \"#utility.yul\":77:99   */\n  swap1\n  pop\n    /* \"#utility.yul\":7:106   */\n  swap2\n  swap1\n  pop\n  jump\t// out\n    /* \"#utility.yul\":112:292   */\ntag_9:\n    /* \"#utility.yul\":160:237   */\n  0x4e487b7100000000000000000000000000000000000000000000000000000000\n    /* \"#utility.yul\":157:158   */\n  0x00\n    /* \"#utility.yul\":150:238   */\n  mstore\n    /* \"#utility.yul\":257:261   */\n  0x41\n    /* \"#utility.yul\":254:255   */\n  0x04\n    /* \"#utility.yul\":247:262   */\n  mstore\n    /* \"#utility.yul\":281:285   */\n  0x24\n    /* \"#utility.yul\":278:279   */\n  0x00\n    /* \"#utility.yul\":271:286   */\n  revert\n    /* \"#utility.yul\":298:478   */\ntag_10:\n    /* \"#utility.yul\":346:423   */\n  0x4e487b7100000000000000000000000000000000000000000000000000000000\n    /* \"#utility.yul\":343:344   */\n  0x00\n    /* \"#utility.yul\":336:424   */\n  mstore\n    /* \"#utility.yul\":443:447   */\n  0x22\n    /* \"#utility.yul\":440:441   */\n  0x04\n    /* \"#utility.yul\":433:448   */\n  mstore\n    /* \"#utility.yul\":467:471   */\n  0x24\n    /* \"#utility.yul\":464:465   */\n  0x00\n    /* \"#utility.yul\":457:472   */\n  revert\n    /* \"#utility.yul\":484:804   */\ntag_11:\n    /* \"#utility.yul\":528:534   */\n  0x00\n    /* \"#utility.yul\":565:566   */\n  0x02\n    /* \"#utility.yul\":559:563   */\n  dup3\n    /* \"#utility.yul\":555:567   */\n  div\n    /* \"#utility.yul\":545:567   */\n  swap1\n  pop\n    /* \"#utility.yul\":612:613   */\n  0x01\n    /* \"#utility.yul\":606:610   */\n  dup3\n    /* \"#utility.yul\":602:614   */\n  and\n    /* \"#utility.yul\":633:651   */\n  dup1\n    /* \"#utility.yul\":623:704   */\n  tag_33\n  jumpi\n    /* \"#utility.yul\":689:693   */\n  0x7f\n    /* \"#utility.yul\":681:687   */\n  dup3\n    /* \"#utility.yul\":677:694   */\n  and\n    /* \"#utility.yul\":667:694   */\n  swap2\n  pop\n    /* \"#utility.yul\":623:704   */\ntag_33:\n    /* \"#utility.yul\":751:753   */\n  0x20\n    /* \"#utility.yul\":743:749   */\n  dup3\n    /* \"#utility.yul\":740:754   */\n  lt\n    /* \"#utility.yul\":720:738   */\n  dup2\n    /* \"#utility.yul\":717:755   */\n  sub\n    /* \"#utility.yul\":714:798   */\n  tag_34\n  jumpi\n    /* \"#utility.yul\":770:788   */\n  tag_35\n  tag_10\n  jump\t// in\ntag_35:\n    /* \"#utility.yul\":714:798   */\ntag_34:\n    /* \"#utility.yul\":535:804   */\n  pop\n    /* \"#utility.yul\":484:804   */\n  swap2\n  swap1\n  pop\n  jump\t// out\n    /* \"#utility.yul\":810:951   */\ntag_12:\n    /* \"#utility.yul\":859:863   */\n  0x00\n    /* \"#utility.yul\":882:885   */\n  dup2\n    /* \"#utility.yul\":874:885   */\n  swap1\n  pop\n    /* \"#utility.yul\":905:908   */\n  dup2\n    /* \"#utility.yul\":902:903   */\n  0x00\n    /* \"#utility.yul\":895:909   */\n  mstore\n    /* \"#utility.yul\":939:943   */\n  0x20\n    /* \"#utility.yul\":936:937   */\n  0x00\n    /* \"#utility.yul\":926:944   */\n  keccak256\n    /* \"#utility.yul\":918:944   */\n  swap1\n  pop\n    /* \"#utility.yul\":810:951   */\n  swap2\n  swap1\n  pop\n  jump\t// out\n    /* \"#utility.yul\":957:1050   */\ntag_13:\n    /* \"#utility.yul\":994:1000   */\n  0x00\n    /* \"#utility.yul\":1041:1043   */\n  0x20\n    /* \"#utility.yul\":1036:1038   */\n  0x1f\n    /* \"#utility.yul\":1029:1034   */\n  dup4\n    /* \"#utility.yul\":1025:1039   */\n  add\n    /* \"#utility.yul\":1021:1044   */\n  div\n    /* \"#utility.yul\":1011:1044   */\n  swap1\n  pop\n    /* \"#utility.yul\":957:1050   */\n  swap2\n  swap1\n  pop\n  jump\t// out\n    /* \"#utility.yul\":1056:1163   */\ntag_14:\n    /* \"#utility.yul\":1100:1108   */\n  0x00\n    /* \"#utility.yul\":1150:1155   */\n  dup3\n    /* \"#utility.yul\":1144:1148   */\n  dup3\n    /* \"#utility.yul\":1140:1156   */\n  shl\n    /* \"#utility.yul\":1119:1156   */\n  swap1\n  pop\n    /* \"#utility.yul\":1056:1163   */\n  swap3\n  swap2\n  pop\n  pop\n  jump\t// out\n    /* \"#utility.yul\":1169:1562   */\ntag_15:\n    /* \"#utility.yul\":1238:1244   */\n  0x00\n    /* \"#utility.yul\":1288:1289   */\n  0x08\n    /* \"#utility.yul\":1276:1286   */\n  dup4\n    /* \"#utility.yul\":1272:1290   */\n  mul\n    /* \"#utility.yul\":1311:1408   */\n  tag_40\n    /* \"#utility.yul\":1341:1407   */\n  0xffffffffffffffffffffffffffffffffffffffffffffffffffffffffffffffff\n    /* \"#utility.yul\":1330:1339   */\n  dup3\n    /* \"#utility.yul\":1311:1408   */\n  tag_14\n  jump\t// in\ntag_40:\n    /* \"#utility.yul\":1429:1468   */\n  tag_41\n    /* \"#utility.yul\":1459:1467   */\n  dup7\n    /* \"#utility.yul\":1448:1457   */\n  dup4\n    /* \"#utility.yul\":1429:1468   */\n  tag_14\n  jump\t// in\ntag_41:\n    /* \"#utility.yul\":1417:1468   */\n  swap6\n  pop\n    /* \"#utility.yul\":1501:1505   */\n  dup1\n    /* \"#utility.yul\":1497:1506   */\n  not\n    /* \"#utility.yul\":1490:1495   */\n  dup5\n    /* \"#utility.yul\":1486:1507   */\n  and\n    /* \"#utility.yul\":1477:1507   */\n  swap4\n  pop\n    /* \"#utility.yul\":1550:1554   */\n  dup1\n    /* \"#utility.yul\":1540:1548   */\n  dup7\n    /* \"#utility.yul\":1536:1555   */\n  and\n    /* \"#utility.yul\":1529:1534   */\n  dup5\n    /* \"#utility.yul\":1526:1556   */\n  or\n    /* \"#utility.yul\":1516:1556   */\n  swap3\n  pop\n    /* \"#utility.yul\":1245:1562   */\n  pop\n  pop\n    /* \"#utility.yul\":1169:1562   */\n  swap4\n  swap3\n  pop\n  pop\n  pop\n  jump\t// out\n    /* \"#utility.yul\":1568:1645   */\ntag_16:\n    /* \"#utility.yul\":1605:1612   */\n  0x00\n    /* \"#utility.yul\":1634:1639   */\n  dup2\n    /* \"#utility.yul\":1623:1639   */\n  swap1\n  pop\n    /* \"#utility.yul\":1568:1645   */\n  swap2\n  swap1\n  pop\n  jump\t// out\n    /* \"#utility.yul\":1651:1711   */\ntag_17:\n    /* \"#utility.yul\":1679:1682   */\n  0x00\n    /* \"#utility.yul\":1700:1705   */\n  dup2\n    /* \"#utility.yul\":1693:1705   */\n  swap1\n  pop\n    /* \"#utility.yul\":1651:1711   */\n  swap2\n  swap1\n  pop\n  jump\t// out\n    /* \"#utility.yul\":1717:1859   */\ntag_18:\n    /* \"#utility.yul\":1767:1776   */\n  0x00\n    /* \"#utility.yul\":1800:1853   */\n  tag_45\n    /* \"#utility.yul\":1818:1852   */\n  tag_46\n    /* \"#utility.yul\":1827:1851   */\n  tag_47\n    /* \"#utility.yul\":1845:1850   */\n  dup5\n    /* \"#utility.yul\":1827:1851   */\n  tag_16\n  jump\t// in\ntag_47:\n    /* \"#utility.yul\":1818:1852   */\n  tag_17\n  jump\t// in\ntag_46:\n    /* \"#utility.yul\":1800:1853   */\n  tag_16\n  jump\t// in\ntag_45:\n    /* \"#utility.yul\":1787:1853   */\n  swap1\n  pop\n    /* \"#utility.yul\":1717:1859   */\n  swap2\n  swap1\n  pop\n  jump\t// out\n    /* \"#utility.yul\":1865:1940   */\ntag_19:\n    /* \"#utility.yul\":1908:1911   */\n  0x00\n    /* \"#utility.yul\":1929:1934   */\n  dup2\n    /* \"#utility.yul\":1922:1934   */\n  swap1\n  pop\n    /* \"#utility.yul\":1865:1940   */\n  swap2\n  swap1\n  pop\n  jump\t// out\n    /* \"#utility.yul\":1946:2215   */\ntag_20:\n    /* \"#utility.yul\":2056:2095   */\n  tag_50\n    /* \"#utility.yul\":2087:2094   */\n  dup4\n    /* \"#utility.yul\":2056:2095   */\n  tag_18\n  jump\t// in\ntag_50:\n    /* \"#utility.yul\":2117:2208   */\n  tag_51\n    /* \"#utility.yul\":2166:2207   */\n  tag_52\n    /* \"#utility.yul\":2190:2206   */\n  dup3\n    /* \"#utility.yul\":2166:2207   */\n  tag_19\n  jump\t// in\ntag_52:\n    /* \"#utility.yul\":2158:2164   */\n  dup5\n    /* \"#utility.yul\":2151:2155   */\n  dup5\n    /* \"#utility.yul\":2145:2156   */\n  sload\n    /* \"#utility.yul\":2117:2208   */\n  tag_15\n  jump\t// in\ntag_51:\n    /* \"#utility.yul\":2111:2115   */\n  dup3\n    /* \"#utility.yul\":2104:2209   */\n  sstore\n    /* \"#utility.yul\":2022:2215   */\n  pop\n    /* \"#utility.yul\":1946:2215   */\n  pop\n  pop\n  pop\n  jump\t// out\n    /* \"#utility.yul\":2221:2294   */\ntag_21:\n    /* \"#utility.yul\":2266:2269   */\n  0x00\n    /* \"#utility.yul\":2221:2294   */\n  swap1\n  jump\t// out\n    /* \"#utility.yul\":2300:2489   */\ntag_22:\n    /* \"#utility.yul\":2377:2409   */\n  tag_55\n  tag_21\n  jump\t// in\ntag_55:\n    /* \"#utility.yul\":2418:2483   */\n  tag_56\n    /* \"#utility.yul\":2476:2482   */\n  dup2\n    /* \"#utility.yul\":2468:2474   */\n  dup5\n    /* \"#utility.yul\":2462:2466   */\n  dup5\n    /* \"#utility.yul\":2418:2483   */\n  tag_20\n  jump\t// in\ntag_56:\n    /* \"#utility.yul\":2353:2489   */\n  pop\n    /* \"#utility.yul\":2300:2489   */\n  pop\n  pop\n  jump\t// out\n    /* \"#utility.yul\":2495:2681   */\ntag_23:\n    /* \"#utility.yul\":2555:2675   */\ntag_58:\n    /* \"#utility.yul\":2572:2575   */\n  dup2\n    /* \"#utility.yul\":2565:2570   */\n  dup2\n    /* \"#utility.yul\":2562:2576   */\n  lt\n    /* \"#utility.yul\":2555:2675   */\n  iszero\n  tag_60\n  jumpi\n    /* \"#utility.yul\":2626:2665   */\n  tag_61\n    /* \"#utility.yul\":2663:2664   */\n  0x00\n    /* \"#utility.yul\":2656:2661   */\n  dup3\n    /* \"#utility.yul\":2626:2665   */\n  tag_22\n  jump\t// in\ntag_61:\n    /* \"#utility.yul\":2599:2600   */\n  0x01\n    /* \"#utility.yul\":2592:2597   */\n  dup2\n    /* \"#utility.yul\":2588:2601   */\n  add\n    /* \"#utility.yul\":2579:2601   */\n  swap1\n  pop\n    /* \"#utility.yul\":2555:2675   */\n  jump(tag_58)\ntag_60:\n    /* \"#utility.yul\":2495:2681   */\n  pop\n  pop\n  jump\t// out\n    /* \"#utility.yul\":2687:3230   */\ntag_24:\n    /* \"#utility.yul\":2788:2790   */\n  0x1f\n    /* \"#utility.yul\":2783:2786   */\n  dup3\n    /* \"#utility.yul\":2780:2791   */\n  gt\n    /* \"#utility.yul\":2777:3223   */\n  iszero\n  tag_63\n  jumpi\n    /* \"#utility.yul\":2822:2860   */\n  tag_64\n    /* \"#utility.yul\":2854:2859   */\n  dup2\n    /* \"#utility.yul\":2822:2860   */\n  tag_12\n  jump\t// in\ntag_64:\n    /* \"#utility.yul\":2906:2935   */\n  tag_65\n    /* \"#utility.yul\":2924:2934   */\n  dup5\n    /* \"#utility.yul\":2906:2935   */\n  tag_13\n  jump\t// in\ntag_65:\n    /* \"#utility.yul\":2896:2904   */\n  dup2\n    /* \"#utility.yul\":2892:2936   */\n  add\n    /* \"#utility.yul\":3089:3091   */\n  0x20\n    /* \"#utility.yul\":3077:3087   */\n  dup6\n    /* \"#utility.yul\":3074:3092   */\n  lt\n    /* \"#utility.yul\":3071:3120   */\n  iszero\n  tag_66\n  jumpi\n    /* \"#utility.yul\":3110:3118   */\n  dup2\n    /* \"#utility.yul\":3095:3118   */\n  swap1\n  pop\n    /* \"#utility.yul\":3071:3120   */\ntag_66:\n    /* \"#utility.yul\":3133:3213   */\n  tag_67\n    /* \"#utility.yul\":3189:3211   */\n  tag_68\n    /* \"#utility.yul\":3207:3210   */\n  dup6\n    /* \"#utility.yul\":3189:3211   */\n  tag_13\n  jump\t// in\ntag_68:\n    /* \"#utility.yul\":3179:3187   */\n  dup4\n    /* \"#utility.yul\":3175:3212   */\n  add\n    /* \"#utility.yul\":3162:3173   */\n  dup3\n    /* \"#utility.yul\":3133:3213   */\n  tag_23\n  jump\t// in\ntag_67:\n    /* \"#utility.yul\":2792:3223   */\n  pop\n  pop\n    /* \"#utility.yul\":2777:3223   */\ntag_63:\n    /* \"#utility.yul\":2687:3230   */\n  pop\n  pop\n  pop\n  jump\t// out\n    /* \"#utility.yul\":3236:3353   */\ntag_25:\n    /* \"#utility.yul\":3290:3298   */\n  0x00\n    /* \"#utility.yul\":3340:3345   */\n  dup3\n    /* \"#utility.yul\":3334:3338   */\n  dup3\n    /* \"#utility.yul\":3330:3346   */\n  shr\n    /* \"#utility.yul\":3309:3346   */\n  swap1\n  pop\n    /* \"#utility.yul\":3236:3353   */\n  swap3\n  swap2\n  pop\n  pop\n  jump\t// out\n    /* \"#utility.yul\":3359:3528   */\ntag_26:\n    /* \"#utility.yul\":3403:3409   */\n  0x00\n    /* \"#utility.yul\":3436:3487   */\n  tag_71\n    /* \"#utility.yul\":3484:3485   */\n  0x00\n    /* \"#utility.yul\":3480:3486   */\n  not\n    /* \"#utility.yul\":3472:3477   */\n  dup5\n    /* \"#utility.yul\":3469:3470   */\n  0x08\n    /* \"#utility.yul\":3465:3478   */\n  mul\n    /* \"#utility.yul\":3436:3487   */\n  tag_25\n  jump\t// in\ntag_71:\n    /* \"#utility.yul\":3432:3488   */\n  not\n    /* \"#utility.yul\":3517:3521   */\n  dup1\n    /* \"#utility.yul\":3511:3515   */\n  dup4\n    /* \"#utility.yul\":3507:3522   */\n  and\n    /* \"#utility.yul\":3497:3522   */\n  swap2\n  pop\n    /* \"#utility.yul\":3410:3528   */\n  pop\n    /* \"#utility.yul\":3359:3528   */\n  swap3\n  swap2\n  pop\n  pop\n  jump\t// out\n    /* \"#utility.yul\":3533:3828   */\ntag_27:\n    /* \"#utility.yul\":3609:3613   */\n  0x00\n    /* \"#utility.yul\":3755:3784   */\n  tag_73\n    /* \"#utility.yul\":3780:3783   */\n  dup4\n    /* \"#utility.yul\":3774:3778   */\n  dup4\n    /* \"#utility.yul\":3755:3784   */\n  tag_26\n  jump\t// in\ntag_73:\n    /* \"#utility.yul\":3747:3784   */\n  swap2\n  pop\n    /* \"#utility.yul\":3817:3820   */\n  dup3\n    /* \"#utility.yul\":3814:3815   */\n  0x02\n    /* \"#utility.yul\":3810:3821   */\n  mul\n    /* \"#utility.yul\":3804:3808   */\n  dup3\n    /* \"#utility.yul\":3801:3822   */\n  or\n    /* \"#utility.yul\":3793:3822   */\n  swap1\n  pop\n    /* \"#utility.yul\":3533:3828   */\n  swap3\n  swap2\n  pop\n  pop\n  jump\t// out\n    /* \"#utility.yul\":3833:5228   */\ntag_2:\n    /* \"#utility.yul\":3950:3987   */\n  tag_75\n    /* \"#utility.yul\":3983:3986   */\n  dup3\n    /* \"#utility.yul\":3950:3987   */\n  tag_8\n  jump\t// in\ntag_75:\n    /* \"#utility.yul\":4052:4070   */\n  0xffffffffffffffff\n    /* \"#utility.yul\":4044:4050   */\n  dup2\n    /* \"#utility.yul\":4041:4071   */\n  gt\n    /* \"#utility.yul\":4038:4094   */\n  iszero\n  tag_76\n  jumpi\n    /* \"#utility.yul\":4074:4092   */\n  tag_77\n  tag_9\n  jump\t// in\ntag_77:\n    /* \"#utility.yul\":4038:4094   */\ntag_76:\n    /* \"#utility.yul\":4118:4156   */\n  tag_78\n    /* \"#utility.yul\":4150:4154   */\n  dup3\n    /* \"#utility.yul\":4144:4155   */\n  sload\n    /* \"#utility.yul\":4118:4156   */\n  tag_11\n  jump\t// in\ntag_78:\n    /* \"#utility.yul\":4203:4270   */\n  tag_79\n    /* \"#utility.yul\":4263:4269   */\n  dup3\n    /* \"#utility.yul\":4255:4261   */\n  dup3\n    /* \"#utility.yul\":4249:4253   */\n  dup6\n    /* \"#utility.yul\":4203:4270   */\n  tag_24\n  jump\t// in\ntag_79:\n    /* \"#utility.yul\":4297:4298   */\n  0x00\n    /* \"#utility.yul\":4321:4325   */\n  0x20\n    /* \"#utility.yul\":4308:4325   */\n  swap1\n  pop\n    /* \"#utility.yul\":4353:4355   */\n  0x1f\n    /* \"#utility.yul\":4345:4351   */\n  dup4\n    /* \"#utility.yul\":4342:4356   */\n  gt\n    /* \"#utility.yul\":4370:4371   */\n  0x01\n    /* \"#utility.yul\":4365:4983   */\n  dup2\n  eq\n  tag_81\n  jumpi\n    /* \"#utility.yul\":5027:5028   */\n  0x00\n    /* \"#utility.yul\":5044:5050   */\n  dup5\n    /* \"#utility.yul\":5041:5118   */\n  iszero\n  tag_82\n  jumpi\n    /* \"#utility.yul\":5093:5102   */\n  dup3\n    /* \"#utility.yul\":5088:5091   */\n  dup8\n    /* \"#utility.yul\":5084:5103   */\n  add\n    /* \"#utility.yul\":5078:5104   */\n  mload\n    /* \"#utility.yul\":5069:5104   */\n  swap1\n  pop\n    /* \"#utility.yul\":5041:5118   */\ntag_82:\n    /* \"#utility.yul\":5144:5211   */\n  tag_83\n    /* \"#utility.yul\":5204:5210   */\n  dup6\n    /* \"#utility.yul\":5197:5202   */\n  dup3\n    /* \"#utility.yul\":5144:5211   */\n  tag_27\n  jump\t// in\ntag_83:\n    /* \"#utility.yul\":5138:5142   */\n  dup7\n    /* \"#utility.yul\":5131:5212   */\n  sstore\n    /* \"#utility.yul\":5000:5222   */\n  pop\n    /* \"#utility.yul\":4335:5222   */\n  jump(tag_80)\n    /* \"#utility.yul\":4365:4983   */\ntag_81:\n    /* \"#utility.yul\":4417:4421   */\n  0x1f\n    /* \"#utility.yul\":4413:4422   */\n  not\n    /* \"#utility.yul\":4405:4411   */\n  dup5\n    /* \"#utility.yul\":4401:4423   */\n  and\n    /* \"#utility.yul\":4451:4488   */\n  tag_84\n    /* \"#utility.yul\":4483:4487   */\n  dup7\n    /* \"#utility.yul\":4451:4488   */\n  tag_12\n  jump\t// in\ntag_84:\n    /* \"#utility.yul\":4510:4511   */\n  0x00\n    /* \"#utility.yul\":4524:4732   */\ntag_85:\n    /* \"#utility.yul\":4538:4545   */\n  dup3\n    /* \"#utility.yul\":4535:4536   */\n  dup2\n    /* \"#utility.yul\":4532:4546   */\n  lt\n    /* \"#utility.yul\":4524:4732   */\n  iszero\n  tag_87\n  jumpi\n    /* \"#utility.yul\":4617:4626   */\n  dup5\n    /* \"#utility.yul\":4612:4615   */\n  dup10\n    /* \"#utility.yul\":4608:4627   */\n  add\n    /* \"#utility.yul\":4602:4628   */\n  mload\n    /* \"#utility.yul\":4594:4600   */\n  dup3\n    /* \"#utility.yul\":4587:4629   */\n  sstore\n    /* \"#utility.yul\":4668:4669   */\n  0x01\n    /* \"#utility.yul\":4660:4666   */\n  dup3\n    /* \"#utility.yul\":4656:4670   */\n  add\n    /* \"#utility.yul\":4646:4670   */\n  swap2\n  pop\n    /* \"#utility.yul\":4715:4717   */\n  0x20\n    /* \"#utility.yul\":4704:4713   */\n  dup6\n    /* \"#utility.yul\":4700:4718   */\n  add\n    /* \"#utility.yul\":4687:4718   */\n  swap5\n  pop\n    /* \"#utility.yul\":4561:4565   */\n  0x20\n    /* \"#utility.yul\":4558:4559   */\n  dup2\n    /* \"#utility.yul\":4554:4566   */\n  add\n    /* \"#utility.yul\":4549:4566   */\n  swap1\n  pop\n    /* \"#utility.yul\":4524:4732   */\n  jump(tag_85)\ntag_87:\n    /* \"#utility.yul\":4760:4766   */\n  dup7\n    /* \"#utility.yul\":4751:4758   */\n  dup4\n    /* \"#utility.yul\":4748:4767   */\n  lt\n    /* \"#utility.yul\":4745:4924   */\n  iszero\n  tag_88\n  jumpi\n    /* \"#utility.yul\":4818:4827   */\n  dup5\n    /* \"#utility.yul\":4813:4816   */\n  dup10\n    /* \"#utility.yul\":4809:4828   */\n  add\n    /* \"#utility.yul\":4803:4829   */\n  mload\n    /* \"#utility.yul\":4861:4909   */\n  tag_89\n    /* \"#utility.yul\":4903:4907   */\n  0x1f\n    /* \"#utility.yul\":4895:4901   */\n  dup10\n    /* \"#utility.yul\":4891:4908   */\n  and\n    /* \"#utility.yul\":4880:4889   */\n  dup3\n    /* \"#utility.yul\":4861:4909   */\n  tag_26\n  jump\t// in\ntag_89:\n    /* \"#utility.yul\":4853:4859   */\n  dup4\n    /* \"#utility.yul\":4846:4910   */\n  sstore\n    /* \"#utility.yul\":4768:4924   */\n  pop\n    /* \"#utility.yul\":4745:4924   */\ntag_88:\n    /* \"#utility.yul\":4970:4971   */\n  0x01\n    /* \"#utility.yul\":4966:4967   */\n  0x02\n    /* \"#utility.yul\":4958:4964   */\n  dup9\n    /* \"#utility.yul\":4954:4968   */\n  mul\n    /* \"#utility.yul\":4950:4972   */\n  add\n    /* \"#utility.yul\":4944:4948   */\n  dup9\n    /* \"#utility.yul\":4937:4973   */\n  sstore\n    /* \"#utility.yul\":4372:4983   */\n  pop\n  pop\n  pop\n    /* \"#utility.yul\":4335:5222   */\ntag_80:\n  pop\n    /* \"#utility.yul\":3925:5228   */\n  pop\n  pop\n  pop\n    /* \"#utility.yul\":3833:5228   */\n  pop\n  pop\n  jump\t// out\n    /* \"Database/Database/Antique.sol\":61:4100  contract Antique {... */\ntag_7:\n  dataSize(sub_0)\n  dup1\n  dataOffset(sub_0)\n  0x00\n  codecopy\n  0x00\n  return\nstop\n\nsub_0: assembly {\n        /* \"Database/Database/Antique.sol\":61:4100  contract Antique {... */\n      mstore(0x40, 0x80)\n      callvalue\n      dup1\n      iszero\n      tag_1\n      jumpi\n      0x00\n      dup1\n      revert\n    tag_1:\n      pop\n      jumpi(tag_2, lt(calldatasize, 0x04))\n      shr(0xe0, calldataload(0x00))\n      dup1\n      0x69741990\n      gt\n      tag_10\n      jumpi\n      dup1\n      0x69741990\n      eq\n      tag_6\n      jumpi\n      dup1\n      0x9b0b5362\n      eq\n      tag_7\n      jumpi\n      dup1\n      0xa7ccf928\n      eq\n      tag_8\n      jumpi\n      dup1\n      0xcbf04182\n      eq\n      tag_9\n      jumpi\n      jump(tag_2)\n    tag_10:\n      dup1\n      0x06fdde03\n      eq\n      tag_3\n      jumpi\n      dup1\n      0x4020c980\n      eq\n      tag_4\n      jumpi\n      dup1\n      0x4ba2e60f\n      eq\n      tag_5\n      jumpi\n    tag_2:\n      0x00\n      dup1\n      revert\n        /* \"Database/Database/Antique.sol\":85:115  string public name = \"Antique\" */\n    tag_3:\n      tag_11\n      tag_12\n      jump\t// in\n    tag_11:\n      mload(0x40)\n      tag_13\n      swap2\n      swap1\n      tag_14\n      jump\t// in\n    tag_13:\n      mload(0x40)\n      dup1\n      swap2\n      sub\n      swap1\n      return\n        /* \"Database/Database/Antique.sol\":2388:3527  function UpdateAntique(... */\n    tag_4:\n      tag_15\n      0x04\n      dup1\n      calldatasize\n      sub\n      dup2\n      add\n      swap1\n      tag_16\n      swap2\n      swap1\n      tag_17\n      jump\t// in\n    tag_16:\n      tag_18\n      jump\t// in\n    tag_15:\n      stop\n        /* \"Database/Database/Antique.sol\":1182:2346  function AddAntique(... */\n    tag_5:\n      tag_19\n      0x04\n      dup1\n      calldatasize\n      sub\n      dup2\n      add\n      swap1\n      tag_20\n      swap2\n      swap1\n      tag_21\n      jump\t// in\n    tag_20:\n      tag_22\n      jump\t// in\n    tag_19:\n      mload(0x40)\n      tag_23\n      swap2\n      swap1\n      tag_24\n      jump\t// in\n    tag_23:\n      mload(0x40)\n      dup1\n      swap2\n      sub\n      swap1\n      return\n        /* \"Database/Database/Antique.sol\":182:233  mapping(uint256 => AntiqueObject) public antiqueMap */\n    tag_6:\n      tag_25\n      0x04\n      dup1\n      calldatasize\n      sub\n      dup2\n      add\n      swap1\n      tag_26\n      swap2\n      swap1\n      tag_27\n      jump\t// in\n    tag_26:\n      tag_28\n      jump\t// in\n    tag_25:\n      mload(0x40)\n      tag_29\n      swap5\n      swap4\n      swap3\n      swap2\n      swap1\n      tag_30\n      jump\t// in\n    tag_29:\n      mload(0x40)\n      dup1\n      swap2\n      sub\n      swap1\n      return\n        /* \"Database/Database/Antique.sol\":3832:4097  function ValidateAntiqueID(uint256 _antiqueID) public view returns (bool) {... */\n    tag_7:\n      tag_31\n      0x04\n      dup1\n      calldatasize\n      sub\n      dup2\n      add\n      swap1\n      tag_32\n      swap2\n      swap1\n      tag_27\n      jump\t// in\n    tag_32:\n      tag_33\n      jump\t// in\n    tag_31:\n      mload(0x40)\n      tag_34\n      swap2\n      swap1\n      tag_35\n      jump\t// in\n    tag_34:\n      mload(0x40)\n      dup1\n      swap2\n      sub\n      swap1\n      return\n        /* \"Database/Database/Antique.sol\":3567:3793  function GetAntiqueByID(uint256 _antiqueID)... */\n    tag_8:\n      tag_36\n      0x04\n      dup1\n      calldatasize\n      sub\n      dup2\n      add\n      swap1\n      tag_37\n      swap2\n      swap1\n      tag_27\n      jump\t// in\n    tag_37:\n      tag_38\n      jump\t// in\n    tag_36:\n      mload(0x40)\n      tag_39\n      swap2\n      swap1\n      tag_40\n      jump\t// in\n    tag_39:\n      mload(0x40)\n      dup1\n      swap2\n      sub\n      swap1\n      return\n        /* \"Database/Database/Antique.sol\":122:153  uint256 public antiqueCount = 0 */\n    tag_9:\n      tag_41\n      tag_42\n      jump\t// in\n    tag_41:\n      mload(0x40)\n      tag_43\n      swap2\n      swap1\n      tag_24\n      jump\t// in\n    tag_43:\n      mload(0x40)\n      dup1\n      swap2\n      sub\n      swap1\n      return\n        /* \"Database/Database/Antique.sol\":85:115  string public name = \"Antique\" */\n    tag_12:\n      0x00\n      dup1\n      sload\n      tag_44\n      swap1\n      tag_45\n      jump\t// in\n    tag_44:\n      dup1\n      0x1f\n      add\n      0x20\n      dup1\n      swap2\n      div\n      mul\n      0x20\n      add\n      mload(0x40)\n      swap1\n      dup2\n      add\n      0x40\n      mstore\n      dup1\n      swap3\n      swap2\n      swap1\n      dup2\n      dup2\n      mstore\n      0x20\n      add\n      dup3\n      dup1\n      sload\n      tag_46\n      swap1\n      tag_45\n      jump\t// in\n    tag_46:\n      dup1\n      iszero\n      tag_47\n      jumpi\n      dup1\n      0x1f\n      lt\n      tag_48\n      jumpi\n      0x0100\n      dup1\n      dup4\n      sload\n      div\n      mul\n      dup4\n      mstore\n      swap2\n      0x20\n      add\n      swap2\n      jump(tag_47)\n    tag_48:\n      dup3\n      add\n      swap2\n      swap1\n      0x00\n      mstore\n      keccak256(0x00, 0x20)\n      swap1\n    tag_49:\n      dup2\n      sload\n      dup2\n      mstore\n      swap1\n      0x01\n      add\n      swap1\n      0x20\n      add\n      dup1\n      dup4\n      gt\n      tag_49\n      jumpi\n      dup3\n      swap1\n      sub\n      0x1f\n      and\n      dup3\n      add\n      swap2\n    tag_47:\n      pop\n      pop\n      pop\n      pop\n      pop\n      dup2\n      jump\t// out\n        /* \"Database/Database/Antique.sol\":2388:3527  function UpdateAntique(... */\n    tag_18:\n        /* \"Database/Database/Antique.sol\":2624:2625  0 */\n      0x00\n        /* \"Database/Database/Antique.sol\":2611:2621  _antiqueID */\n      dup6\n        /* \"Database/Database/Antique.sol\":2611:2625  _antiqueID > 0 */\n      gt\n        /* \"Database/Database/Antique.sol\":2611:2655  _antiqueID > 0 && _antiqueID <= antiqueCount */\n      dup1\n      iszero\n      tag_51\n      jumpi\n      pop\n        /* \"Database/Database/Antique.sol\":2643:2655  antiqueCount */\n      sload(0x01)\n        /* \"Database/Database/Antique.sol\":2629:2639  _antiqueID */\n      dup6\n        /* \"Database/Database/Antique.sol\":2629:2655  _antiqueID <= antiqueCount */\n      gt\n      iszero\n        /* \"Database/Database/Antique.sol\":2611:2655  _antiqueID > 0 && _antiqueID <= antiqueCount */\n    tag_51:\n        /* \"Database/Database/Antique.sol\":2603:2656  require(_antiqueID > 0 && _antiqueID <= antiqueCount) */\n      tag_52\n      jumpi\n      0x00\n      dup1\n      revert\n    tag_52:\n        /* \"Database/Database/Antique.sol\":2739:2743  true */\n      0x01\n        /* \"Database/Database/Antique.sol\":2706:2743  ValidateAntiqueID(_antiqueID) == true */\n      iszero\n      iszero\n        /* \"Database/Database/Antique.sol\":2706:2735  ValidateAntiqueID(_antiqueID) */\n      tag_53\n        /* \"Database/Database/Antique.sol\":2724:2734  _antiqueID */\n      dup7\n        /* \"Database/Database/Antique.sol\":2706:2723  ValidateAntiqueID */\n      tag_33\n        /* \"Database/Database/Antique.sol\":2706:2735  ValidateAntiqueID(_antiqueID) */\n      jump\t// in\n    tag_53:\n        /* \"Database/Database/Antique.sol\":2706:2743  ValidateAntiqueID(_antiqueID) == true */\n      iszero\n      iszero\n      eq\n        /* \"Database/Database/Antique.sol\":2698:2744  require(ValidateAntiqueID(_antiqueID) == true) */\n      tag_54\n      jumpi\n      0x00\n      dup1\n      revert\n    tag_54:\n        /* \"Database/Database/Antique.sol\":2784:2785  0 */\n      0x00\n        /* \"Database/Database/Antique.sol\":2763:2786  _uploader != address(0) */\n      0xffffffffffffffffffffffffffffffffffffffff\n      and\n        /* \"Database/Database/Antique.sol\":2763:2772  _uploader */\n      dup2\n        /* \"Database/Database/Antique.sol\":2763:2786  _uploader != address(0) */\n      0xffffffffffffffffffffffffffffffffffffffff\n      and\n      sub\n        /* \"Database/Database/Antique.sol\":2755:2787  require(_uploader != address(0)) */\n      tag_55\n      jumpi\n      0x00\n      dup1\n      revert\n    tag_55:\n        /* \"Database/Database/Antique.sol\":2798:2831  AntiqueObject memory _antiqueData */\n      0x00\n        /* \"Database/Database/Antique.sol\":2834:2844  antiqueMap */\n      0x02\n        /* \"Database/Database/Antique.sol\":2834:2856  antiqueMap[_antiqueID] */\n      0x00\n        /* \"Database/Database/Antique.sol\":2845:2855  _antiqueID */\n      dup8\n        /* \"Database/Database/Antique.sol\":2834:2856  antiqueMap[_antiqueID] */\n      dup2\n      mstore\n      0x20\n      add\n      swap1\n      dup2\n      mstore\n      0x20\n      add\n      0x00\n      keccak256\n        /* \"Database/Database/Antique.sol\":2798:2856  AntiqueObject memory _antiqueData = antiqueMap[_antiqueID] */\n      mload(0x40)\n      dup1\n      0x80\n      add\n      0x40\n      mstore\n      swap1\n      dup2\n      0x00\n      dup3\n      add\n      sload\n      dup2\n      mstore\n      0x20\n      add\n      0x01\n      dup3\n      add\n      sload\n      dup2\n      mstore\n      0x20\n      add\n      0x02\n      dup3\n      add\n      sload\n      dup2\n      mstore\n      0x20\n      add\n      0x03\n      dup3\n      add\n      sload\n      dup2\n      mstore\n      pop\n      pop\n      swap1\n      pop\n        /* \"Database/Database/Antique.sol\":2903:2919  _documentationID */\n      dup5\n        /* \"Database/Database/Antique.sol\":2871:2883  _antiqueData */\n      dup2\n        /* \"Database/Database/Antique.sol\":2871:2899  _antiqueData.documentationID */\n      0x20\n      add\n      mload\n        /* \"Database/Database/Antique.sol\":2871:2919  _antiqueData.documentationID != _documentationID */\n      eq\n        /* \"Database/Database/Antique.sol\":2867:2995  if (_antiqueData.documentationID != _documentationID) {... */\n      tag_56\n      jumpi\n        /* \"Database/Database/Antique.sol\":2967:2983  _documentationID */\n      dup5\n        /* \"Database/Database/Antique.sol\":2936:2948  _antiqueData */\n      dup2\n        /* \"Database/Database/Antique.sol\":2936:2964  _antiqueData.documentationID */\n      0x20\n      add\n        /* \"Database/Database/Antique.sol\":2936:2983  _antiqueData.documentationID = _documentationID */\n      dup2\n      dup2\n      mstore\n      pop\n      pop\n        /* \"Database/Database/Antique.sol\":2867:2995  if (_antiqueData.documentationID != _documentationID) {... */\n    tag_56:\n        /* \"Database/Database/Antique.sol\":3040:3055  _verificationID */\n      dup4\n        /* \"Database/Database/Antique.sol\":3009:3021  _antiqueData */\n      dup2\n        /* \"Database/Database/Antique.sol\":3009:3036  _antiqueData.verificationID */\n      0x40\n      add\n      mload\n        /* \"Database/Database/Antique.sol\":3009:3055  _antiqueData.verificationID != _verificationID */\n      eq\n        /* \"Database/Database/Antique.sol\":3005:3129  if (_antiqueData.verificationID != _verificationID) {... */\n      tag_57\n      jumpi\n        /* \"Database/Database/Antique.sol\":3102:3117  _verificationID */\n      dup4\n        /* \"Database/Database/Antique.sol\":3072:3084  _antiqueData */\n      dup2\n        /* \"Database/Database/Antique.sol\":3072:3099  _antiqueData.verificationID */\n      0x40\n      add\n        /* \"Database/Database/Antique.sol\":3072:3117  _antiqueData.verificationID = _verificationID */\n      dup2\n      dup2\n      mstore\n      pop\n      pop\n        /* \"Database/Database/Antique.sol\":3005:3129  if (_antiqueData.verificationID != _verificationID) {... */\n    tag_57:\n        /* \"Database/Database/Antique.sol\":3173:3187  _descriptionID */\n      dup3\n        /* \"Database/Database/Antique.sol\":3143:3155  _antiqueData */\n      dup2\n        /* \"Database/Database/Antique.sol\":3143:3169  _antiqueData.descriptionID */\n      0x60\n      add\n      mload\n        /* \"Database/Database/Antique.sol\":3143:3187  _antiqueData.descriptionID != _descriptionID */\n      eq\n        /* \"Database/Database/Antique.sol\":3139:3259  if (_antiqueData.descriptionID != _descriptionID) {... */\n      tag_58\n      jumpi\n        /* \"Database/Database/Antique.sol\":3233:3247  _descriptionID */\n      dup3\n        /* \"Database/Database/Antique.sol\":3204:3216  _antiqueData */\n      dup2\n        /* \"Database/Database/Antique.sol\":3204:3230  _antiqueData.descriptionID */\n      0x60\n      add\n        /* \"Database/Database/Antique.sol\":3204:3247  _antiqueData.descriptionID = _descriptionID */\n      dup2\n      dup2\n      mstore\n      pop\n      pop\n        /* \"Database/Database/Antique.sol\":3139:3259  if (_antiqueData.descriptionID != _descriptionID) {... */\n    tag_58:\n        /* \"Database/Database/Antique.sol\":3328:3340  _antiqueData */\n      dup1\n        /* \"Database/Database/Antique.sol\":3303:3313  antiqueMap */\n      0x02\n        /* \"Database/Database/Antique.sol\":3303:3325  antiqueMap[_antiqueID] */\n      0x00\n        /* \"Database/Database/Antique.sol\":3314:3324  _antiqueID */\n      dup9\n        /* \"Database/Database/Antique.sol\":3303:3325  antiqueMap[_antiqueID] */\n      dup2\n      mstore\n      0x20\n      add\n      swap1\n      dup2\n      mstore\n      0x20\n      add\n      0x00\n      keccak256\n        /* \"Database/Database/Antique.sol\":3303:3340  antiqueMap[_antiqueID] = _antiqueData */\n      0x00\n      dup3\n      add\n      mload\n      dup2\n      0x00\n      add\n      sstore\n      0x20\n      dup3\n      add\n      mload\n      dup2\n      0x01\n      add\n      sstore\n      0x40\n      dup3\n      add\n      mload\n      dup2\n      0x02\n      add\n      sstore\n      0x60\n      dup3\n      add\n      mload\n      dup2\n      0x03\n      add\n      sstore\n      swap1\n      pop\n      pop\n        /* \"Database/Database/Antique.sol\":3356:3519  AntiqueUpdate(... */\n      0x08eb4004c4efcad21137c1fc482f59847f6add2f28ee534922197e3efd5639b6\n        /* \"Database/Database/Antique.sol\":3384:3394  _antiqueID */\n      dup7\n        /* \"Database/Database/Antique.sol\":3409:3425  _documentationID */\n      dup7\n        /* \"Database/Database/Antique.sol\":3440:3455  _verificationID */\n      dup7\n        /* \"Database/Database/Antique.sol\":3470:3484  _descriptionID */\n      dup7\n        /* \"Database/Database/Antique.sol\":3499:3508  _uploader */\n      dup7\n        /* \"Database/Database/Antique.sol\":3356:3519  AntiqueUpdate(... */\n      mload(0x40)\n      tag_59\n      swap6\n      swap5\n      swap4\n      swap3\n      swap2\n      swap1\n      tag_60\n      jump\t// in\n    tag_59:\n      mload(0x40)\n      dup1\n      swap2\n      sub\n      swap1\n      log1\n        /* \"Database/Database/Antique.sol\":2592:3527  {... */\n      pop\n        /* \"Database/Database/Antique.sol\":2388:3527  function UpdateAntique(... */\n      pop\n      pop\n      pop\n      pop\n      pop\n      jump\t// out\n        /* \"Database/Database/Antique.sol\":1182:2346  function AddAntique(... */\n    tag_22:\n        /* \"Database/Database/Antique.sol\":1363:1370  uint256 */\n      0x00\n        /* \"Database/Database/Antique.sol\":1437:1438  0 */\n      dup1\n        /* \"Database/Database/Antique.sol\":1418:1434  _documentationID */\n      dup6\n        /* \"Database/Database/Antique.sol\":1418:1438  _documentationID > 0 */\n      gt\n        /* \"Database/Database/Antique.sol\":1410:1439  require(_documentationID > 0) */\n      tag_62\n      jumpi\n      0x00\n      dup1\n      revert\n    tag_62:\n        /* \"Database/Database/Antique.sol\":1476:1477  0 */\n      0x00\n        /* \"Database/Database/Antique.sol\":1458:1473  _verificationID */\n      dup5\n        /* \"Database/Database/Antique.sol\":1458:1477  _verificationID > 0 */\n      gt\n        /* \"Database/Database/Antique.sol\":1450:1478  require(_verificationID > 0) */\n      tag_63\n      jumpi\n      0x00\n      dup1\n      revert\n    tag_63:\n        /* \"Database/Database/Antique.sol\":1514:1515  0 */\n      0x00\n        /* \"Database/Database/Antique.sol\":1497:1511  _descriptionID */\n      dup4\n        /* \"Database/Database/Antique.sol\":1497:1515  _descriptionID > 0 */\n      gt\n        /* \"Database/Database/Antique.sol\":1489:1516  require(_descriptionID > 0) */\n      tag_64\n      jumpi\n      0x00\n      dup1\n      revert\n    tag_64:\n        /* \"Database/Database/Antique.sol\":1556:1557  0 */\n      0x00\n        /* \"Database/Database/Antique.sol\":1535:1558  _uploader != address(0) */\n      0xffffffffffffffffffffffffffffffffffffffff\n      and\n        /* \"Database/Database/Antique.sol\":1535:1544  _uploader */\n      dup3\n        /* \"Database/Database/Antique.sol\":1535:1558  _uploader != address(0) */\n      0xffffffffffffffffffffffffffffffffffffffff\n      and\n      sub\n        /* \"Database/Database/Antique.sol\":1527:1559  require(_uploader != address(0)) */\n      tag_65\n      jumpi\n      0x00\n      dup1\n      revert\n    tag_65:\n        /* \"Database/Database/Antique.sol\":1606:1618  antiqueCount */\n      0x01\n      0x00\n        /* \"Database/Database/Antique.sol\":1606:1620  antiqueCount++ */\n      dup2\n      sload\n      dup1\n      swap3\n      swap2\n      swap1\n      tag_66\n      swap1\n      tag_67\n      jump\t// in\n    tag_66:\n      swap2\n      swap1\n      pop\n      sstore\n      pop\n        /* \"Database/Database/Antique.sol\":1631:1671  AntiqueObject memory _antiqueDataCreated */\n      0x00\n        /* \"Database/Database/Antique.sol\":1674:1815  AntiqueObject(... */\n      mload(0x40)\n      dup1\n      0x80\n      add\n      0x40\n      mstore\n      dup1\n        /* \"Database/Database/Antique.sol\":1702:1714  antiqueCount */\n      sload(0x01)\n        /* \"Database/Database/Antique.sol\":1674:1815  AntiqueObject(... */\n      dup2\n      mstore\n      0x20\n      add\n        /* \"Database/Database/Antique.sol\":1729:1745  _documentationID */\n      dup8\n        /* \"Database/Database/Antique.sol\":1674:1815  AntiqueObject(... */\n      dup2\n      mstore\n      0x20\n      add\n        /* \"Database/Database/Antique.sol\":1760:1775  _verificationID */\n      dup7\n        /* \"Database/Database/Antique.sol\":1674:1815  AntiqueObject(... */\n      dup2\n      mstore\n      0x20\n      add\n        /* \"Database/Database/Antique.sol\":1790:1804  _descriptionID */\n      dup6\n        /* \"Database/Database/Antique.sol\":1674:1815  AntiqueObject(... */\n      dup2\n      mstore\n      pop\n        /* \"Database/Database/Antique.sol\":1631:1815  AntiqueObject memory _antiqueDataCreated = AntiqueObject(... */\n      swap1\n      pop\n        /* \"Database/Database/Antique.sol\":1902:1921  _antiqueDataCreated */\n      dup1\n        /* \"Database/Database/Antique.sol\":1875:1885  antiqueMap */\n      0x02\n        /* \"Database/Database/Antique.sol\":1875:1899  antiqueMap[antiqueCount] */\n      0x00\n        /* \"Database/Database/Antique.sol\":1886:1898  antiqueCount */\n      sload(0x01)\n        /* \"Database/Database/Antique.sol\":1875:1899  antiqueMap[antiqueCount] */\n      dup2\n      mstore\n      0x20\n      add\n      swap1\n      dup2\n      mstore\n      0x20\n      add\n      0x00\n      keccak256\n        /* \"Database/Database/Antique.sol\":1875:1921  antiqueMap[antiqueCount] = _antiqueDataCreated */\n      0x00\n      dup3\n      add\n      mload\n      dup2\n      0x00\n      add\n      sstore\n      0x20\n      dup3\n      add\n      mload\n      dup2\n      0x01\n      add\n      sstore\n      0x40\n      dup3\n      add\n      mload\n      dup2\n      0x02\n      add\n      sstore\n      0x60\n      dup3\n      add\n      mload\n      dup2\n      0x03\n      add\n      sstore\n      swap1\n      pop\n      pop\n        /* \"Database/Database/Antique.sol\":2144:2308  AntiqueAdded(... */\n      0x015ab2fe8e9231d469170f9334a657df2419991bddd4400238369a5d547b39d9\n        /* \"Database/Database/Antique.sol\":2171:2183  antiqueCount */\n      sload(0x01)\n        /* \"Database/Database/Antique.sol\":2198:2214  _documentationID */\n      dup8\n        /* \"Database/Database/Antique.sol\":2229:2244  _verificationID */\n      dup8\n        /* \"Database/Database/Antique.sol\":2259:2273  _descriptionID */\n      dup8\n        /* \"Database/Database/Antique.sol\":2288:2297  _uploader */\n      dup8\n        /* \"Database/Database/Antique.sol\":2144:2308  AntiqueAdded(... */\n      mload(0x40)\n      tag_68\n      swap6\n      swap5\n      swap4\n      swap3\n      swap2\n      swap1\n      tag_60\n      jump\t// in\n    tag_68:\n      mload(0x40)\n      dup1\n      swap2\n      sub\n      swap1\n      log1\n        /* \"Database/Database/Antique.sol\":2326:2338  antiqueCount */\n      sload(0x01)\n        /* \"Database/Database/Antique.sol\":2319:2338  return antiqueCount */\n      swap2\n      pop\n      pop\n        /* \"Database/Database/Antique.sol\":1182:2346  function AddAntique(... */\n      swap5\n      swap4\n      pop\n      pop\n      pop\n      pop\n      jump\t// out\n        /* \"Database/Database/Antique.sol\":182:233  mapping(uint256 => AntiqueObject) public antiqueMap */\n    tag_28:\n      mstore(0x20, 0x02)\n      dup1\n      0x00\n      mstore\n      keccak256(0x00, 0x40)\n      0x00\n      swap2\n      pop\n      swap1\n      pop\n      dup1\n      0x00\n      add\n      sload\n      swap1\n      dup1\n      0x01\n      add\n      sload\n      swap1\n      dup1\n      0x02\n      add\n      sload\n      swap1\n      dup1\n      0x03\n      add\n      sload\n      swap1\n      pop\n      dup5\n      jump\t// out\n        /* \"Database/Database/Antique.sol\":3832:4097  function ValidateAntiqueID(uint256 _antiqueID) public view returns (bool) {... */\n    tag_33:\n        /* \"Database/Database/Antique.sol\":3900:3904  bool */\n      0x00\n        /* \"Database/Database/Antique.sol\":3935:3936  0 */\n      dup1\n        /* \"Database/Database/Antique.sol\":3921:3931  _antiqueID */\n      dup3\n        /* \"Database/Database/Antique.sol\":3921:3936  _antiqueID <= 0 */\n      gt\n      iszero\n        /* \"Database/Database/Antique.sol\":3921:3965  _antiqueID <= 0 || _antiqueID > antiqueCount */\n      dup1\n      tag_70\n      jumpi\n      pop\n        /* \"Database/Database/Antique.sol\":3953:3965  antiqueCount */\n      sload(0x01)\n        /* \"Database/Database/Antique.sol\":3940:3950  _antiqueID */\n      dup3\n        /* \"Database/Database/Antique.sol\":3940:3965  _antiqueID > antiqueCount */\n      gt\n        /* \"Database/Database/Antique.sol\":3921:3965  _antiqueID <= 0 || _antiqueID > antiqueCount */\n    tag_70:\n        /* \"Database/Database/Antique.sol\":3917:3993  if (_antiqueID <= 0 || _antiqueID > antiqueCount) ... */\n      iszero\n      tag_71\n      jumpi\n        /* \"Database/Database/Antique.sol\":3988:3993  false */\n      0x00\n        /* \"Database/Database/Antique.sol\":3981:3993  return false */\n      swap1\n      pop\n      jump(tag_69)\n        /* \"Database/Database/Antique.sol\":3917:3993  if (_antiqueID <= 0 || _antiqueID > antiqueCount) ... */\n    tag_71:\n        /* \"Database/Database/Antique.sol\":4085:4089  true */\n      0x01\n        /* \"Database/Database/Antique.sol\":4078:4089  return true */\n      swap1\n      pop\n        /* \"Database/Database/Antique.sol\":3832:4097  function ValidateAntiqueID(uint256 _antiqueID) public view returns (bool) {... */\n    tag_69:\n      swap2\n      swap1\n      pop\n      jump\t// out\n        /* \"Database/Database/Antique.sol\":3567:3793  function GetAntiqueByID(uint256 _antiqueID)... */\n    tag_38:\n        /* \"Database/Database/Antique.sol\":3661:3681  AntiqueObject memory */\n      tag_72\n      tag_73\n      jump\t// in\n    tag_72:\n        /* \"Database/Database/Antique.sol\":3740:3744  true */\n      0x01\n        /* \"Database/Database/Antique.sol\":3707:3744  ValidateAntiqueID(_antiqueID) == true */\n      iszero\n      iszero\n        /* \"Database/Database/Antique.sol\":3707:3736  ValidateAntiqueID(_antiqueID) */\n      tag_75\n        /* \"Database/Database/Antique.sol\":3725:3735  _antiqueID */\n      dup4\n        /* \"Database/Database/Antique.sol\":3707:3724  ValidateAntiqueID */\n      tag_33\n        /* \"Database/Database/Antique.sol\":3707:3736  ValidateAntiqueID(_antiqueID) */\n      jump\t// in\n    tag_75:\n        /* \"Database/Database/Antique.sol\":3707:3744  ValidateAntiqueID(_antiqueID) == true */\n      iszero\n      iszero\n      eq\n        /* \"Database/Database/Antique.sol\":3699:3745  require(ValidateAntiqueID(_antiqueID) == true) */\n      tag_76\n      jumpi\n      0x00\n      dup1\n      revert\n    tag_76:\n        /* \"Database/Database/Antique.sol\":3763:3773  antiqueMap */\n      0x02\n        /* \"Database/Database/Antique.sol\":3763:3785  antiqueMap[_antiqueID] */\n      0x00\n        /* \"Database/Database/Antique.sol\":3774:3784  _antiqueID */\n      dup4\n        /* \"Database/Database/Antique.sol\":3763:3785  antiqueMap[_antiqueID] */\n      dup2\n      mstore\n      0x20\n      add\n      swap1\n      dup2\n      mstore\n      0x20\n      add\n      0x00\n      keccak256\n        /* \"Database/Database/Antique.sol\":3756:3785  return antiqueMap[_antiqueID] */\n      mload(0x40)\n      dup1\n      0x80\n      add\n      0x40\n      mstore\n      swap1\n      dup2\n      0x00\n      dup3\n      add\n      sload\n      dup2\n      mstore\n      0x20\n      add\n      0x01\n      dup3\n      add\n      sload\n      dup2\n      mstore\n      0x20\n      add\n      0x02\n      dup3\n      add\n      sload\n      dup2\n      mstore\n      0x20\n      add\n      0x03\n      dup3\n      add\n      sload\n      dup2\n      mstore\n      pop\n      pop\n      swap1\n      pop\n        /* \"Database/Database/Antique.sol\":3567:3793  function GetAntiqueByID(uint256 _antiqueID)... */\n      swap2\n      swap1\n      pop\n      jump\t// out\n        /* \"Database/Database/Antique.sol\":122:153  uint256 public antiqueCount = 0 */\n    tag_42:\n      sload(0x01)\n      dup2\n      jump\t// out\n    tag_73:\n      mload(0x40)\n      dup1\n      0x80\n      add\n      0x40\n      mstore\n      dup1\n      0x00\n      dup2\n      mstore\n      0x20\n      add\n      0x00\n      dup2\n      mstore\n      0x20\n      add\n      0x00\n      dup2\n      mstore\n      0x20\n      add\n      0x00\n      dup2\n      mstore\n      pop\n      swap1\n      jump\t// out\n        /* \"#utility.yul\":7:106   */\n    tag_77:\n        /* \"#utility.yul\":59:65   */\n      0x00\n        /* \"#utility.yul\":93:98   */\n      dup2\n        /* \"#utility.yul\":87:99   */\n      mload\n        /* \"#utility.yul\":77:99   */\n      swap1\n      pop\n        /* \"#utility.yul\":7:106   */\n      swap2\n      swap1\n      pop\n      jump\t// out\n        /* \"#utility.yul\":112:281   */\n    tag_78:\n        /* \"#utility.yul\":196:207   */\n      0x00\n        /* \"#utility.yul\":230:236   */\n      dup3\n        /* \"#utility.yul\":225:228   */\n      dup3\n        /* \"#utility.yul\":218:237   */\n      mstore\n        /* \"#utility.yul\":270:274   */\n      0x20\n        /* \"#utility.yul\":265:268   */\n      dup3\n        /* \"#utility.yul\":261:275   */\n      add\n        /* \"#utility.yul\":246:275   */\n      swap1\n      pop\n        /* \"#utility.yul\":112:281   */\n      swap3\n      swap2\n      pop\n      pop\n      jump\t// out\n        /* \"#utility.yul\":287:533   */\n    tag_79:\n        /* \"#utility.yul\":368:369   */\n      0x00\n        /* \"#utility.yul\":378:491   */\n    tag_104:\n        /* \"#utility.yul\":392:398   */\n      dup4\n        /* \"#utility.yul\":389:390   */\n      dup2\n        /* \"#utility.yul\":386:399   */\n      lt\n        /* \"#utility.yul\":378:491   */\n      iszero\n      tag_106\n      jumpi\n        /* \"#utility.yul\":477:478   */\n      dup1\n        /* \"#utility.yul\":472:475   */\n      dup3\n        /* \"#utility.yul\":468:479   */\n      add\n        /* \"#utility.yul\":462:480   */\n      mload\n        /* \"#utility.yul\":458:459   */\n      dup2\n        /* \"#utility.yul\":453:456   */\n      dup5\n        /* \"#utility.yul\":449:460   */\n      add\n        /* \"#utility.yul\":442:481   */\n      mstore\n        /* \"#utility.yul\":414:416   */\n      0x20\n        /* \"#utility.yul\":411:412   */\n      dup2\n        /* \"#utility.yul\":407:417   */\n      add\n        /* \"#utility.yul\":402:417   */\n      swap1\n      pop\n        /* \"#utility.yul\":378:491   */\n      jump(tag_104)\n    tag_106:\n        /* \"#utility.yul\":525:526   */\n      0x00\n        /* \"#utility.yul\":516:522   */\n      dup5\n        /* \"#utility.yul\":511:514   */\n      dup5\n        /* \"#utility.yul\":507:523   */\n      add\n        /* \"#utility.yul\":500:527   */\n      mstore\n        /* \"#utility.yul\":349:533   */\n      pop\n        /* \"#utility.yul\":287:533   */\n      pop\n      pop\n      pop\n      jump\t// out\n        /* \"#utility.yul\":539:641   */\n    tag_80:\n        /* \"#utility.yul\":580:586   */\n      0x00\n        /* \"#utility.yul\":631:633   */\n      0x1f\n        /* \"#utility.yul\":627:634   */\n      not\n        /* \"#utility.yul\":622:624   */\n      0x1f\n        /* \"#utility.yul\":615:620   */\n      dup4\n        /* \"#utility.yul\":611:625   */\n      add\n        /* \"#utility.yul\":607:635   */\n      and\n        /* \"#utility.yul\":597:635   */\n      swap1\n      pop\n        /* \"#utility.yul\":539:641   */\n      swap2\n      swap1\n      pop\n      jump\t// out\n        /* \"#utility.yul\":647:1024   */\n    tag_81:\n        /* \"#utility.yul\":735:738   */\n      0x00\n        /* \"#utility.yul\":763:802   */\n      tag_109\n        /* \"#utility.yul\":796:801   */\n      dup3\n        /* \"#utility.yul\":763:802   */\n      tag_77\n      jump\t// in\n    tag_109:\n        /* \"#utility.yul\":818:889   */\n      tag_110\n        /* \"#utility.yul\":882:888   */\n      dup2\n        /* \"#utility.yul\":877:880   */\n      dup6\n        /* \"#utility.yul\":818:889   */\n      tag_78\n      jump\t// in\n    tag_110:\n        /* \"#utility.yul\":811:889   */\n      swap4\n      pop\n        /* \"#utility.yul\":898:963   */\n      tag_111\n        /* \"#utility.yul\":956:962   */\n      dup2\n        /* \"#utility.yul\":951:954   */\n      dup6\n        /* \"#utility.yul\":944:948   */\n      0x20\n        /* \"#utility.yul\":937:942   */\n      dup7\n        /* \"#utility.yul\":933:949   */\n      add\n        /* \"#utility.yul\":898:963   */\n      tag_79\n      jump\t// in\n    tag_111:\n        /* \"#utility.yul\":988:1017   */\n      tag_112\n        /* \"#utility.yul\":1010:1016   */\n      dup2\n        /* \"#utility.yul\":988:1017   */\n      tag_80\n      jump\t// in\n    tag_112:\n        /* \"#utility.yul\":983:986   */\n      dup5\n        /* \"#utility.yul\":979:1018   */\n      add\n        /* \"#utility.yul\":972:1018   */\n      swap2\n      pop\n        /* \"#utility.yul\":739:1024   */\n      pop\n        /* \"#utility.yul\":647:1024   */\n      swap3\n      swap2\n      pop\n      pop\n      jump\t// out\n        /* \"#utility.yul\":1030:1343   */\n    tag_14:\n        /* \"#utility.yul\":1143:1147   */\n      0x00\n        /* \"#utility.yul\":1181:1183   */\n      0x20\n        /* \"#utility.yul\":1170:1179   */\n      dup3\n        /* \"#utility.yul\":1166:1184   */\n      add\n        /* \"#utility.yul\":1158:1184   */\n      swap1\n      pop\n        /* \"#utility.yul\":1230:1239   */\n      dup2\n        /* \"#utility.yul\":1224:1228   */\n      dup2\n        /* \"#utility.yul\":1220:1240   */\n      sub\n        /* \"#utility.yul\":1216:1217   */\n      0x00\n        /* \"#utility.yul\":1205:1214   */\n      dup4\n        /* \"#utility.yul\":1201:1218   */\n      add\n        /* \"#utility.yul\":1194:1241   */\n      mstore\n        /* \"#utility.yul\":1258:1336   */\n      tag_114\n        /* \"#utility.yul\":1331:1335   */\n      dup2\n        /* \"#utility.yul\":1322:1328   */\n      dup5\n        /* \"#utility.yul\":1258:1336   */\n      tag_81\n      jump\t// in\n    tag_114:\n        /* \"#utility.yul\":1250:1336   */\n      swap1\n      pop\n        /* \"#utility.yul\":1030:1343   */\n      swap3\n      swap2\n      pop\n      pop\n      jump\t// out\n        /* \"#utility.yul\":1430:1547   */\n    tag_83:\n        /* \"#utility.yul\":1539:1540   */\n      0x00\n        /* \"#utility.yul\":1536:1537   */\n      dup1\n        /* \"#utility.yul\":1529:1541   */\n      revert\n        /* \"#utility.yul\":1676:1753   */\n    tag_85:\n        /* \"#utility.yul\":1713:1720   */\n      0x00\n        /* \"#utility.yul\":1742:1747   */\n      dup2\n        /* \"#utility.yul\":1731:1747   */\n      swap1\n      pop\n        /* \"#utility.yul\":1676:1753   */\n      swap2\n      swap1\n      pop\n      jump\t// out\n        /* \"#utility.yul\":1759:1881   */\n    tag_86:\n        /* \"#utility.yul\":1832:1856   */\n      tag_120\n        /* \"#utility.yul\":1850:1855   */\n      dup2\n        /* \"#utility.yul\":1832:1856   */\n      tag_85\n      jump\t// in\n    tag_120:\n        /* \"#utility.yul\":1825:1830   */\n      dup2\n        /* \"#utility.yul\":1822:1857   */\n      eq\n        /* \"#utility.yul\":1812:1875   */\n      tag_121\n      jumpi\n        /* \"#utility.yul\":1871:1872   */\n      0x00\n        /* \"#utility.yul\":1868:1869   */\n      dup1\n        /* \"#utility.yul\":1861:1873   */\n      revert\n        /* \"#utility.yul\":1812:1875   */\n    tag_121:\n        /* \"#utility.yul\":1759:1881   */\n      pop\n      jump\t// out\n        /* \"#utility.yul\":1887:2026   */\n    tag_87:\n        /* \"#utility.yul\":1933:1938   */\n      0x00\n        /* \"#utility.yul\":1971:1977   */\n      dup2\n        /* \"#utility.yul\":1958:1978   */\n      calldataload\n        /* \"#utility.yul\":1949:1978   */\n      swap1\n      pop\n        /* \"#utility.yul\":1987:2020   */\n      tag_123\n        /* \"#utility.yul\":2014:2019   */\n      dup2\n        /* \"#utility.yul\":1987:2020   */\n      tag_86\n      jump\t// in\n    tag_123:\n        /* \"#utility.yul\":1887:2026   */\n      swap3\n      swap2\n      pop\n      pop\n      jump\t// out\n        /* \"#utility.yul\":2032:2158   */\n    tag_88:\n        /* \"#utility.yul\":2069:2076   */\n      0x00\n        /* \"#utility.yul\":2109:2151   */\n      0xffffffffffffffffffffffffffffffffffffffff\n        /* \"#utility.yul\":2102:2107   */\n      dup3\n        /* \"#utility.yul\":2098:2152   */\n      and\n        /* \"#utility.yul\":2087:2152   */\n      swap1\n      pop\n        /* \"#utility.yul\":2032:2158   */\n      swap2\n      swap1\n      pop\n      jump\t// out\n        /* \"#utility.yul\":2164:2268   */\n    tag_89:\n        /* \"#utility.yul\":2209:2216   */\n      0x00\n        /* \"#utility.yul\":2238:2262   */\n      tag_126\n        /* \"#utility.yul\":2256:2261   */\n      dup3\n        /* \"#utility.yul\":2238:2262   */\n      tag_88\n      jump\t// in\n    tag_126:\n        /* \"#utility.yul\":2227:2262   */\n      swap1\n      pop\n        /* \"#utility.yul\":2164:2268   */\n      swap2\n      swap1\n      pop\n      jump\t// out\n        /* \"#utility.yul\":2274:2412   */\n    tag_90:\n        /* \"#utility.yul\":2355:2387   */\n      tag_128\n        /* \"#utility.yul\":2381:2386   */\n      dup2\n        /* \"#utility.yul\":2355:2387   */\n      tag_89\n      jump\t// in\n    tag_128:\n        /* \"#utility.yul\":2348:2353   */\n      dup2\n        /* \"#utility.yul\":2345:2388   */\n      eq\n        /* \"#utility.yul\":2335:2406   */\n      tag_129\n      jumpi\n        /* \"#utility.yul\":2402:2403   */\n      0x00\n        /* \"#utility.yul\":2399:2400   */\n      dup1\n        /* \"#utility.yul\":2392:2404   */\n      revert\n        /* \"#utility.yul\":2335:2406   */\n    tag_129:\n        /* \"#utility.yul\":2274:2412   */\n      pop\n      jump\t// out\n        /* \"#utility.yul\":2418:2573   */\n    tag_91:\n        /* \"#utility.yul\":2472:2477   */\n      0x00\n        /* \"#utility.yul\":2510:2516   */\n      dup2\n        /* \"#utility.yul\":2497:2517   */\n      calldataload\n        /* \"#utility.yul\":2488:2517   */\n      swap1\n      pop\n        /* \"#utility.yul\":2526:2567   */\n      tag_131\n        /* \"#utility.yul\":2561:2566   */\n      dup2\n        /* \"#utility.yul\":2526:2567   */\n      tag_90\n      jump\t// in\n    tag_131:\n        /* \"#utility.yul\":2418:2573   */\n      swap3\n      swap2\n      pop\n      pop\n      jump\t// out\n        /* \"#utility.yul\":2579:3506   */\n    tag_17:\n        /* \"#utility.yul\":2682:2688   */\n      0x00\n        /* \"#utility.yul\":2690:2696   */\n      dup1\n        /* \"#utility.yul\":2698:2704   */\n      0x00\n        /* \"#utility.yul\":2706:2712   */\n      dup1\n        /* \"#utility.yul\":2714:2720   */\n      0x00\n        /* \"#utility.yul\":2763:2766   */\n      0xa0\n        /* \"#utility.yul\":2751:2760   */\n      dup7\n        /* \"#utility.yul\":2742:2749   */\n      dup9\n        /* \"#utility.yul\":2738:2761   */\n      sub\n        /* \"#utility.yul\":2734:2767   */\n      slt\n        /* \"#utility.yul\":2731:2851   */\n      iszero\n      tag_133\n      jumpi\n        /* \"#utility.yul\":2770:2849   */\n      tag_134\n      tag_83\n      jump\t// in\n    tag_134:\n        /* \"#utility.yul\":2731:2851   */\n    tag_133:\n        /* \"#utility.yul\":2890:2891   */\n      0x00\n        /* \"#utility.yul\":2915:2968   */\n      tag_135\n        /* \"#utility.yul\":2960:2967   */\n      dup9\n        /* \"#utility.yul\":2951:2957   */\n      dup3\n        /* \"#utility.yul\":2940:2949   */\n      dup10\n        /* \"#utility.yul\":2936:2958   */\n      add\n        /* \"#utility.yul\":2915:2968   */\n      tag_87\n      jump\t// in\n    tag_135:\n        /* \"#utility.yul\":2905:2968   */\n      swap6\n      pop\n        /* \"#utility.yul\":2861:2978   */\n      pop\n        /* \"#utility.yul\":3017:3019   */\n      0x20\n        /* \"#utility.yul\":3043:3096   */\n      tag_136\n        /* \"#utility.yul\":3088:3095   */\n      dup9\n        /* \"#utility.yul\":3079:3085   */\n      dup3\n        /* \"#utility.yul\":3068:3077   */\n      dup10\n        /* \"#utility.yul\":3064:3086   */\n      add\n        /* \"#utility.yul\":3043:3096   */\n      tag_87\n      jump\t// in\n    tag_136:\n        /* \"#utility.yul\":3033:3096   */\n      swap5\n      pop\n        /* \"#utility.yul\":2988:3106   */\n      pop\n        /* \"#utility.yul\":3145:3147   */\n      0x40\n        /* \"#utility.yul\":3171:3224   */\n      tag_137\n        /* \"#utility.yul\":3216:3223   */\n      dup9\n        /* \"#utility.yul\":3207:3213   */\n      dup3\n        /* \"#utility.yul\":3196:3205   */\n      dup10\n        /* \"#utility.yul\":3192:3214   */\n      add\n        /* \"#utility.yul\":3171:3224   */\n      tag_87\n      jump\t// in\n    tag_137:\n        /* \"#utility.yul\":3161:3224   */\n      swap4\n      pop\n        /* \"#utility.yul\":3116:3234   */\n      pop\n        /* \"#utility.yul\":3273:3275   */\n      0x60\n        /* \"#utility.yul\":3299:3352   */\n      tag_138\n        /* \"#utility.yul\":3344:3351   */\n      dup9\n        /* \"#utility.yul\":3335:3341   */\n      dup3\n        /* \"#utility.yul\":3324:3333   */\n      dup10\n        /* \"#utility.yul\":3320:3342   */\n      add\n        /* \"#utility.yul\":3299:3352   */\n      tag_87\n      jump\t// in\n    tag_138:\n        /* \"#utility.yul\":3289:3352   */\n      swap3\n      pop\n        /* \"#utility.yul\":3244:3362   */\n      pop\n        /* \"#utility.yul\":3401:3404   */\n      0x80\n        /* \"#utility.yul\":3428:3489   */\n      tag_139\n        /* \"#utility.yul\":3481:3488   */\n      dup9\n        /* \"#utility.yul\":3472:3478   */\n      dup3\n        /* \"#utility.yul\":3461:3470   */\n      dup10\n        /* \"#utility.yul\":3457:3479   */\n      add\n        /* \"#utility.yul\":3428:3489   */\n      tag_91\n      jump\t// in\n    tag_139:\n        /* \"#utility.yul\":3418:3489   */\n      swap2\n      pop\n        /* \"#utility.yul\":3372:3499   */\n      pop\n        /* \"#utility.yul\":2579:3506   */\n      swap3\n      swap6\n      pop\n      swap3\n      swap6\n      swap1\n      swap4\n      pop\n      jump\t// out\n        /* \"#utility.yul\":3512:4293   */\n    tag_21:\n        /* \"#utility.yul\":3606:3612   */\n      0x00\n        /* \"#utility.yul\":3614:3620   */\n      dup1\n        /* \"#utility.yul\":3622:3628   */\n      0x00\n        /* \"#utility.yul\":3630:3636   */\n      dup1\n        /* \"#utility.yul\":3679:3682   */\n      0x80\n        /* \"#utility.yul\":3667:3676   */\n      dup6\n        /* \"#utility.yul\":3658:3665   */\n      dup8\n        /* \"#utility.yul\":3654:3677   */\n      sub\n        /* \"#utility.yul\":3650:3683   */\n      slt\n        /* \"#utility.yul\":3647:3767   */\n      iszero\n      tag_141\n      jumpi\n        /* \"#utility.yul\":3686:3765   */\n      tag_142\n      tag_83\n      jump\t// in\n    tag_142:\n        /* \"#utility.yul\":3647:3767   */\n    tag_141:\n        /* \"#utility.yul\":3806:3807   */\n      0x00\n        /* \"#utility.yul\":3831:3884   */\n      tag_143\n        /* \"#utility.yul\":3876:3883   */\n      dup8\n        /* \"#utility.yul\":3867:3873   */\n      dup3\n        /* \"#utility.yul\":3856:3865   */\n      dup9\n        /* \"#utility.yul\":3852:3874   */\n      add\n        /* \"#utility.yul\":3831:3884   */\n      tag_87\n      jump\t// in\n    tag_143:\n        /* \"#utility.yul\":3821:3884   */\n      swap5\n      pop\n        /* \"#utility.yul\":3777:3894   */\n      pop\n        /* \"#utility.yul\":3933:3935   */\n      0x20\n        /* \"#utility.yul\":3959:4012   */\n      tag_144\n        /* \"#utility.yul\":4004:4011   */\n      dup8\n        /* \"#utility.yul\":3995:4001   */\n      dup3\n        /* \"#utility.yul\":3984:3993   */\n      dup9\n        /* \"#utility.yul\":3980:4002   */\n      add\n        /* \"#utility.yul\":3959:4012   */\n      tag_87\n      jump\t// in\n    tag_144:\n        /* \"#utility.yul\":3949:4012   */\n      swap4\n      pop\n        /* \"#utility.yul\":3904:4022   */\n      pop\n        /* \"#utility.yul\":4061:4063   */\n      0x40\n        /* \"#utility.yul\":4087:4140   */\n      tag_145\n        /* \"#utility.yul\":4132:4139   */\n      dup8\n        /* \"#utility.yul\":4123:4129   */\n      dup3\n        /* \"#utility.yul\":4112:4121   */\n      dup9\n        /* \"#utility.yul\":4108:4130   */\n      add\n        /* \"#utility.yul\":4087:4140   */\n      tag_87\n      jump\t// in\n    tag_145:\n        /* \"#utility.yul\":4077:4140   */\n      swap3\n      pop\n        /* \"#utility.yul\":4032:4150   */\n      pop\n        /* \"#utility.yul\":4189:4191   */\n      0x60\n        /* \"#utility.yul\":4215:4276   */\n      tag_146\n        /* \"#utility.yul\":4268:4275   */\n      dup8\n        /* \"#utility.yul\":4259:4265   */\n      dup3\n        /* \"#utility.yul\":4248:4257   */\n      dup9\n        /* \"#utility.yul\":4244:4266   */\n      add\n        /* \"#utility.yul\":4215:4276   */\n      tag_91\n      jump\t// in\n    tag_146:\n        /* \"#utility.yul\":4205:4276   */\n      swap2\n      pop\n        /* \"#utility.yul\":4160:4286   */\n      pop\n        /* \"#utility.yul\":3512:4293   */\n      swap3\n      swap6\n      swap2\n      swap5\n      pop\n      swap3\n      pop\n      jump\t// out\n        /* \"#utility.yul\":4299:4417   */\n    tag_92:\n        /* \"#utility.yul\":4386:4410   */\n      tag_148\n        /* \"#utility.yul\":4404:4409   */\n      dup2\n        /* \"#utility.yul\":4386:4410   */\n      tag_85\n      jump\t// in\n    tag_148:\n        /* \"#utility.yul\":4381:4384   */\n      dup3\n        /* \"#utility.yul\":4374:4411   */\n      mstore\n        /* \"#utility.yul\":4299:4417   */\n      pop\n      pop\n      jump\t// out\n        /* \"#utility.yul\":4423:4645   */\n    tag_24:\n        /* \"#utility.yul\":4516:4520   */\n      0x00\n        /* \"#utility.yul\":4554:4556   */\n      0x20\n        /* \"#utility.yul\":4543:4552   */\n      dup3\n        /* \"#utility.yul\":4539:4557   */\n      add\n        /* \"#utility.yul\":4531:4557   */\n      swap1\n      pop\n        /* \"#utility.yul\":4567:4638   */\n      tag_150\n        /* \"#utility.yul\":4635:4636   */\n      0x00\n        /* \"#utility.yul\":4624:4633   */\n      dup4\n        /* \"#utility.yul\":4620:4637   */\n      add\n        /* \"#utility.yul\":4611:4617   */\n      dup5\n        /* \"#utility.yul\":4567:4638   */\n      tag_92\n      jump\t// in\n    tag_150:\n        /* \"#utility.yul\":4423:4645   */\n      swap3\n      swap2\n      pop\n      pop\n      jump\t// out\n        /* \"#utility.yul\":4651:4980   */\n    tag_27:\n        /* \"#utility.yul\":4710:4716   */\n      0x00\n        /* \"#utility.yul\":4759:4761   */\n      0x20\n        /* \"#utility.yul\":4747:4756   */\n      dup3\n        /* \"#utility.yul\":4738:4745   */\n      dup5\n        /* \"#utility.yul\":4734:4757   */\n      sub\n        /* \"#utility.yul\":4730:4762   */\n      slt\n        /* \"#utility.yul\":4727:4846   */\n      iszero\n      tag_152\n      jumpi\n        /* \"#utility.yul\":4765:4844   */\n      tag_153\n      tag_83\n      jump\t// in\n    tag_153:\n        /* \"#utility.yul\":4727:4846   */\n    tag_152:\n        /* \"#utility.yul\":4885:4886   */\n      0x00\n        /* \"#utility.yul\":4910:4963   */\n      tag_154\n        /* \"#utility.yul\":4955:4962   */\n      dup5\n        /* \"#utility.yul\":4946:4952   */\n      dup3\n        /* \"#utility.yul\":4935:4944   */\n      dup6\n        /* \"#utility.yul\":4931:4953   */\n      add\n        /* \"#utility.yul\":4910:4963   */\n      tag_87\n      jump\t// in\n    tag_154:\n        /* \"#utility.yul\":4900:4963   */\n      swap2\n      pop\n        /* \"#utility.yul\":4856:4973   */\n      pop\n        /* \"#utility.yul\":4651:4980   */\n      swap3\n      swap2\n      pop\n      pop\n      jump\t// out\n        /* \"#utility.yul\":4986:5539   */\n    tag_30:\n        /* \"#utility.yul\":5163:5167   */\n      0x00\n        /* \"#utility.yul\":5201:5204   */\n      0x80\n        /* \"#utility.yul\":5190:5199   */\n      dup3\n        /* \"#utility.yul\":5186:5205   */\n      add\n        /* \"#utility.yul\":5178:5205   */\n      swap1\n      pop\n        /* \"#utility.yul\":5215:5286   */\n      tag_156\n        /* \"#utility.yul\":5283:5284   */\n      0x00\n        /* \"#utility.yul\":5272:5281   */\n      dup4\n        /* \"#utility.yul\":5268:5285   */\n      add\n        /* \"#utility.yul\":5259:5265   */\n      dup8\n        /* \"#utility.yul\":5215:5286   */\n      tag_92\n      jump\t// in\n    tag_156:\n        /* \"#utility.yul\":5296:5368   */\n      tag_157\n        /* \"#utility.yul\":5364:5366   */\n      0x20\n        /* \"#utility.yul\":5353:5362   */\n      dup4\n        /* \"#utility.yul\":5349:5367   */\n      add\n        /* \"#utility.yul\":5340:5346   */\n      dup7\n        /* \"#utility.yul\":5296:5368   */\n      tag_92\n      jump\t// in\n    tag_157:\n        /* \"#utility.yul\":5378:5450   */\n      tag_158\n        /* \"#utility.yul\":5446:5448   */\n      0x40\n        /* \"#utility.yul\":5435:5444   */\n      dup4\n        /* \"#utility.yul\":5431:5449   */\n      add\n        /* \"#utility.yul\":5422:5428   */\n      dup6\n        /* \"#utility.yul\":5378:5450   */\n      tag_92\n      jump\t// in\n    tag_158:\n        /* \"#utility.yul\":5460:5532   */\n      tag_159\n        /* \"#utility.yul\":5528:5530   */\n      0x60\n        /* \"#utility.yul\":5517:5526   */\n      dup4\n        /* \"#utility.yul\":5513:5531   */\n      add\n        /* \"#utility.yul\":5504:5510   */\n      dup5\n        /* \"#utility.yul\":5460:5532   */\n      tag_92\n      jump\t// in\n    tag_159:\n        /* \"#utility.yul\":4986:5539   */\n      swap6\n      swap5\n      pop\n      pop\n      pop\n      pop\n      pop\n      jump\t// out\n        /* \"#utility.yul\":5545:5635   */\n    tag_93:\n        /* \"#utility.yul\":5579:5586   */\n      0x00\n        /* \"#utility.yul\":5622:5627   */\n      dup2\n        /* \"#utility.yul\":5615:5628   */\n      iszero\n        /* \"#utility.yul\":5608:5629   */\n      iszero\n        /* \"#utility.yul\":5597:5629   */\n      swap1\n      pop\n        /* \"#utility.yul\":5545:5635   */\n      swap2\n      swap1\n      pop\n      jump\t// out\n        /* \"#utility.yul\":5641:5750   */\n    tag_94:\n        /* \"#utility.yul\":5722:5743   */\n      tag_162\n        /* \"#utility.yul\":5737:5742   */\n      dup2\n        /* \"#utility.yul\":5722:5743   */\n      tag_93\n      jump\t// in\n    tag_162:\n        /* \"#utility.yul\":5717:5720   */\n      dup3\n        /* \"#utility.yul\":5710:5744   */\n      mstore\n        /* \"#utility.yul\":5641:5750   */\n      pop\n      pop\n      jump\t// out\n        /* \"#utility.yul\":5756:5966   */\n    tag_35:\n        /* \"#utility.yul\":5843:5847   */\n      0x00\n        /* \"#utility.yul\":5881:5883   */\n      0x20\n        /* \"#utility.yul\":5870:5879   */\n      dup3\n        /* \"#utility.yul\":5866:5884   */\n      add\n        /* \"#utility.yul\":5858:5884   */\n      swap1\n      pop\n        /* \"#utility.yul\":5894:5959   */\n      tag_164\n        /* \"#utility.yul\":5956:5957   */\n      0x00\n        /* \"#utility.yul\":5945:5954   */\n      dup4\n        /* \"#utility.yul\":5941:5958   */\n      add\n        /* \"#utility.yul\":5932:5938   */\n      dup5\n        /* \"#utility.yul\":5894:5959   */\n      tag_94\n      jump\t// in\n    tag_164:\n        /* \"#utility.yul\":5756:5966   */\n      swap3\n      swap2\n      pop\n      pop\n      jump\t// out\n        /* \"#utility.yul\":5972:6080   */\n    tag_95:\n        /* \"#utility.yul\":6049:6073   */\n      tag_166\n        /* \"#utility.yul\":6067:6072   */\n      dup2\n        /* \"#utility.yul\":6049:6073   */\n      tag_85\n      jump\t// in\n    tag_166:\n        /* \"#utility.yul\":6044:6047   */\n      dup3\n        /* \"#utility.yul\":6037:6074   */\n      mstore\n        /* \"#utility.yul\":5972:6080   */\n      pop\n      pop\n      jump\t// out\n        /* \"#utility.yul\":6154:7052   */\n    tag_96:\n        /* \"#utility.yul\":6309:6313   */\n      0x80\n        /* \"#utility.yul\":6304:6307   */\n      dup3\n        /* \"#utility.yul\":6300:6314   */\n      add\n        /* \"#utility.yul\":6401:6405   */\n      0x00\n        /* \"#utility.yul\":6394:6399   */\n      dup3\n        /* \"#utility.yul\":6390:6406   */\n      add\n        /* \"#utility.yul\":6384:6407   */\n      mload\n        /* \"#utility.yul\":6420:6483   */\n      tag_168\n        /* \"#utility.yul\":6477:6481   */\n      0x00\n        /* \"#utility.yul\":6472:6475   */\n      dup6\n        /* \"#utility.yul\":6468:6482   */\n      add\n        /* \"#utility.yul\":6454:6466   */\n      dup3\n        /* \"#utility.yul\":6420:6483   */\n      tag_95\n      jump\t// in\n    tag_168:\n        /* \"#utility.yul\":6324:6493   */\n      pop\n        /* \"#utility.yul\":6586:6590   */\n      0x20\n        /* \"#utility.yul\":6579:6584   */\n      dup3\n        /* \"#utility.yul\":6575:6591   */\n      add\n        /* \"#utility.yul\":6569:6592   */\n      mload\n        /* \"#utility.yul\":6605:6668   */\n      tag_169\n        /* \"#utility.yul\":6662:6666   */\n      0x20\n        /* \"#utility.yul\":6657:6660   */\n      dup6\n        /* \"#utility.yul\":6653:6667   */\n      add\n        /* \"#utility.yul\":6639:6651   */\n      dup3\n        /* \"#utility.yul\":6605:6668   */\n      tag_95\n      jump\t// in\n    tag_169:\n        /* \"#utility.yul\":6503:6678   */\n      pop\n        /* \"#utility.yul\":6770:6774   */\n      0x40\n        /* \"#utility.yul\":6763:6768   */\n      dup3\n        /* \"#utility.yul\":6759:6775   */\n      add\n        /* \"#utility.yul\":6753:6776   */\n      mload\n        /* \"#utility.yul\":6789:6852   */\n      tag_170\n        /* \"#utility.yul\":6846:6850   */\n      0x40\n        /* \"#utility.yul\":6841:6844   */\n      dup6\n        /* \"#utility.yul\":6837:6851   */\n      add\n        /* \"#utility.yul\":6823:6835   */\n      dup3\n        /* \"#utility.yul\":6789:6852   */\n      tag_95\n      jump\t// in\n    tag_170:\n        /* \"#utility.yul\":6688:6862   */\n      pop\n        /* \"#utility.yul\":6953:6957   */\n      0x60\n        /* \"#utility.yul\":6946:6951   */\n      dup3\n        /* \"#utility.yul\":6942:6958   */\n      add\n        /* \"#utility.yul\":6936:6959   */\n      mload\n        /* \"#utility.yul\":6972:7035   */\n      tag_171\n        /* \"#utility.yul\":7029:7033   */\n      0x60\n        /* \"#utility.yul\":7024:7027   */\n      dup6\n        /* \"#utility.yul\":7020:7034   */\n      add\n        /* \"#utility.yul\":7006:7018   */\n      dup3\n        /* \"#utility.yul\":6972:7035   */\n      tag_95\n      jump\t// in\n    tag_171:\n        /* \"#utility.yul\":6872:7045   */\n      pop\n        /* \"#utility.yul\":6278:7052   */\n      pop\n        /* \"#utility.yul\":6154:7052   */\n      pop\n      pop\n      jump\t// out\n        /* \"#utility.yul\":7058:7397   */\n    tag_40:\n        /* \"#utility.yul\":7209:7213   */\n      0x00\n        /* \"#utility.yul\":7247:7250   */\n      0x80\n        /* \"#utility.yul\":7236:7245   */\n      dup3\n        /* \"#utility.yul\":7232:7251   */\n      add\n        /* \"#utility.yul\":7224:7251   */\n      swap1\n      pop\n        /* \"#utility.yul\":7261:7390   */\n      tag_173\n        /* \"#utility.yul\":7387:7388   */\n      0x00\n        /* \"#utility.yul\":7376:7385   */\n      dup4\n        /* \"#utility.yul\":7372:7389   */\n      add\n        /* \"#utility.yul\":7363:7369   */\n      dup5\n        /* \"#utility.yul\":7261:7390   */\n      tag_96\n      jump\t// in\n    tag_173:\n        /* \"#utility.yul\":7058:7397   */\n      swap3\n      swap2\n      pop\n      pop\n      jump\t// out\n        /* \"#utility.yul\":7403:7583   */\n    tag_97:\n        /* \"#utility.yul\":7451:7528   */\n      0x4e487b7100000000000000000000000000000000000000000000000000000000\n        /* \"#utility.yul\":7448:7449   */\n      0x00\n        /* \"#utility.yul\":7441:7529   */\n      mstore\n        /* \"#utility.yul\":7548:7552   */\n      0x22\n        /* \"#utility.yul\":7545:7546   */\n      0x04\n        /* \"#utility.yul\":7538:7553   */\n      mstore\n        /* \"#utility.yul\":7572:7576   */\n      0x24\n        /* \"#utility.yul\":7569:7570   */\n      0x00\n        /* \"#utility.yul\":7562:7577   */\n      revert\n        /* \"#utility.yul\":7589:7909   */\n    tag_45:\n        /* \"#utility.yul\":7633:7639   */\n      0x00\n        /* \"#utility.yul\":7670:7671   */\n      0x02\n        /* \"#utility.yul\":7664:7668   */\n      dup3\n        /* \"#utility.yul\":7660:7672   */\n      div\n        /* \"#utility.yul\":7650:7672   */\n      swap1\n      pop\n        /* \"#utility.yul\":7717:7718   */\n      0x01\n        /* \"#utility.yul\":7711:7715   */\n      dup3\n        /* \"#utility.yul\":7707:7719   */\n      and\n        /* \"#utility.yul\":7738:7756   */\n      dup1\n        /* \"#utility.yul\":7728:7809   */\n      tag_176\n      jumpi\n        /* \"#utility.yul\":7794:7798   */\n      0x7f\n        /* \"#utility.yul\":7786:7792   */\n      dup3\n        /* \"#utility.yul\":7782:7799   */\n      and\n        /* \"#utility.yul\":7772:7799   */\n      swap2\n      pop\n        /* \"#utility.yul\":7728:7809   */\n    tag_176:\n        /* \"#utility.yul\":7856:7858   */\n      0x20\n        /* \"#utility.yul\":7848:7854   */\n      dup3\n        /* \"#utility.yul\":7845:7859   */\n      lt\n        /* \"#utility.yul\":7825:7843   */\n      dup2\n        /* \"#utility.yul\":7822:7860   */\n      sub\n        /* \"#utility.yul\":7819:7903   */\n      tag_177\n      jumpi\n        /* \"#utility.yul\":7875:7893   */\n      tag_178\n      tag_97\n      jump\t// in\n    tag_178:\n        /* \"#utility.yul\":7819:7903   */\n    tag_177:\n        /* \"#utility.yul\":7640:7909   */\n      pop\n        /* \"#utility.yul\":7589:7909   */\n      swap2\n      swap1\n      pop\n      jump\t// out\n        /* \"#utility.yul\":7915:8057   */\n    tag_98:\n        /* \"#utility.yul\":8018:8050   */\n      tag_180\n        /* \"#utility.yul\":8044:8049   */\n      dup2\n        /* \"#utility.yul\":8018:8050   */\n      tag_89\n      jump\t// in\n    tag_180:\n        /* \"#utility.yul\":8013:8016   */\n      dup3\n        /* \"#utility.yul\":8006:8051   */\n      mstore\n        /* \"#utility.yul\":7915:8057   */\n      pop\n      pop\n      jump\t// out\n        /* \"#utility.yul\":8063:8759   */\n    tag_60:\n        /* \"#utility.yul\":8284:8288   */\n      0x00\n        /* \"#utility.yul\":8322:8325   */\n      0xa0\n        /* \"#utility.yul\":8311:8320   */\n      dup3\n        /* \"#utility.yul\":8307:8326   */\n      add\n        /* \"#utility.yul\":8299:8326   */\n      swap1\n      pop\n        /* \"#utility.yul\":8336:8407   */\n      tag_182\n        /* \"#utility.yul\":8404:8405   */\n      0x00\n        /* \"#utility.yul\":8393:8402   */\n      dup4\n        /* \"#utility.yul\":8389:8406   */\n      add\n        /* \"#utility.yul\":8380:8386   */\n      dup9\n        /* \"#utility.yul\":8336:8407   */\n      tag_92\n      jump\t// in\n    tag_182:\n        /* \"#utility.yul\":8417:8489   */\n      tag_183\n        /* \"#utility.yul\":8485:8487   */\n      0x20\n        /* \"#utility.yul\":8474:8483   */\n      dup4\n        /* \"#utility.yul\":8470:8488   */\n      add\n        /* \"#utility.yul\":8461:8467   */\n      dup8\n        /* \"#utility.yul\":8417:8489   */\n      tag_92\n      jump\t// in\n    tag_183:\n        /* \"#utility.yul\":8499:8571   */\n      tag_184\n        /* \"#utility.yul\":8567:8569   */\n      0x40\n        /* \"#utility.yul\":8556:8565   */\n      dup4\n        /* \"#utility.yul\":8552:8570   */\n      add\n        /* \"#utility.yul\":8543:8549   */\n      dup7\n        /* \"#utility.yul\":8499:8571   */\n      tag_92\n      jump\t// in\n    tag_184:\n        /* \"#utility.yul\":8581:8653   */\n      tag_185\n        /* \"#utility.yul\":8649:8651   */\n      0x60\n        /* \"#utility.yul\":8638:8647   */\n      dup4\n        /* \"#utility.yul\":8634:8652   */\n      add\n        /* \"#utility.yul\":8625:8631   */\n      dup6\n        /* \"#utility.yul\":8581:8653   */\n      tag_92\n      jump\t// in\n    tag_185:\n        /* \"#utility.yul\":8663:8752   */\n      tag_186\n        /* \"#utility.yul\":8747:8750   */\n      0x80\n        /* \"#utility.yul\":8736:8745   */\n      dup4\n        /* \"#utility.yul\":8732:8751   */\n      add\n        /* \"#utility.yul\":8723:8729   */\n      dup5\n        /* \"#utility.yul\":8663:8752   */\n      tag_98\n      jump\t// in\n    tag_186:\n        /* \"#utility.yul\":8063:8759   */\n      swap7\n      swap6\n      pop\n      pop\n      pop\n      pop\n      pop\n      pop\n      jump\t// out\n        /* \"#utility.yul\":8765:8945   */\n    tag_99:\n        /* \"#utility.yul\":8813:8890   */\n      0x4e487b7100000000000000000000000000000000000000000000000000000000\n        /* \"#utility.yul\":8810:8811   */\n      0x00\n        /* \"#utility.yul\":8803:8891   */\n      mstore\n        /* \"#utility.yul\":8910:8914   */\n      0x11\n        /* \"#utility.yul\":8907:8908   */\n      0x04\n        /* \"#utility.yul\":8900:8915   */\n      mstore\n        /* \"#utility.yul\":8934:8938   */\n      0x24\n        /* \"#utility.yul\":8931:8932   */\n      0x00\n        /* \"#utility.yul\":8924:8939   */\n      revert\n        /* \"#utility.yul\":8951:9184   */\n    tag_67:\n        /* \"#utility.yul\":8990:8993   */\n      0x00\n        /* \"#utility.yul\":9013:9037   */\n      tag_189\n        /* \"#utility.yul\":9031:9036   */\n      dup3\n        /* \"#utility.yul\":9013:9037   */\n      tag_85\n      jump\t// in\n    tag_189:\n        /* \"#utility.yul\":9004:9037   */\n      swap2\n      pop\n        /* \"#utility.yul\":9059:9125   */\n      0xffffffffffffffffffffffffffffffffffffffffffffffffffffffffffffffff\n        /* \"#utility.yul\":9052:9057   */\n      dup3\n        /* \"#utility.yul\":9049:9126   */\n      sub\n        /* \"#utility.yul\":9046:9149   */\n      tag_190\n      jumpi\n        /* \"#utility.yul\":9129:9147   */\n      tag_191\n      tag_99\n      jump\t// in\n    tag_191:\n        /* \"#utility.yul\":9046:9149   */\n    tag_190:\n        /* \"#utility.yul\":9176:9177   */\n      0x01\n        /* \"#utility.yul\":9169:9174   */\n      dup3\n        /* \"#utility.yul\":9165:9178   */\n      add\n        /* \"#utility.yul\":9158:9178   */\n      swap1\n      pop\n        /* \"#utility.yul\":8951:9184   */\n      swap2\n      swap1\n      pop\n      jump\t// out\n\n    auxdata: 0xa2646970667358221220868679fd0599478741b67f2c8fd84cfd24ccdbe3eaec11c08b740d59648a187464736f6c63430008110033\n}\n",
				"bytecode": {
					"linkReferences": {},
					"object": "60806040526040518060400160405280600781526020017f416e746971756500000000000000000000000000000000000000000000000000815250600090816200004a919062000325565b5060006001553480156200005d57600080fd5b506040518060400160405280600781526020017f416e74697175650000000000000000000000000000000000000000000000000081525060009081620000a4919062000325565b506200040c565b600081519050919050565b7f4e487b7100000000000000000000000000000000000000000000000000000000600052604160045260246000fd5b7f4e487b7100000000000000000000000000000000000000000000000000000000600052602260045260246000fd5b600060028204905060018216806200012d57607f821691505b602082108103620001435762000142620000e5565b5b50919050565b60008190508160005260206000209050919050565b60006020601f8301049050919050565b600082821b905092915050565b600060088302620001ad7fffffffffffffffffffffffffffffffffffffffffffffffffffffffffffffffff826200016e565b620001b986836200016e565b95508019841693508086168417925050509392505050565b6000819050919050565b6000819050919050565b60006200020662000200620001fa84620001d1565b620001db565b620001d1565b9050919050565b6000819050919050565b6200022283620001e5565b6200023a62000231826200020d565b8484546200017b565b825550505050565b600090565b6200025162000242565b6200025e81848462000217565b505050565b5b8181101562000286576200027a60008262000247565b60018101905062000264565b5050565b601f821115620002d5576200029f8162000149565b620002aa846200015e565b81016020851015620002ba578190505b620002d2620002c9856200015e565b83018262000263565b50505b505050565b600082821c905092915050565b6000620002fa60001984600802620002da565b1980831691505092915050565b6000620003158383620002e7565b9150826002028217905092915050565b6200033082620000ab565b67ffffffffffffffff8111156200034c576200034b620000b6565b5b62000358825462000114565b620003658282856200028a565b600060209050601f8311600181146200039d576000841562000388578287015190505b62000394858262000307565b86555062000404565b601f198416620003ad8662000149565b60005b82811015620003d757848901518255600182019150602085019450602081019050620003b0565b86831015620003f75784890151620003f3601f891682620002e7565b8355505b6001600288020188555050505b505050505050565b610abd806200041c6000396000f3fe608060405234801561001057600080fd5b506004361061007d5760003560e01c8063697419901161005b57806369741990146100ec5780639b0b53621461011f578063a7ccf9281461014f578063cbf041821461017f5761007d565b806306fdde03146100825780634020c980146100a05780634ba2e60f146100bc575b600080fd5b61008a61019d565b6040516100979190610660565b60405180910390f35b6100ba60048036038101906100b5919061071b565b61022b565b005b6100d660048036038101906100d19190610796565b6103aa565b6040516100e3919061080c565b60405180910390f35b61010660048036038101906101019190610827565b6104da565b6040516101169493929190610854565b60405180910390f35b61013960048036038101906101349190610827565b61050a565b60405161014691906108b4565b60405180910390f35b61016960048036038101906101649190610827565b610534565b6040516101769190610933565b60405180910390f35b6101876105a2565b604051610194919061080c565b60405180910390f35b600080546101aa9061097d565b80601f01602080910402602001604051908101604052809291908181526020018280546101d69061097d565b80156102235780601f106101f857610100808354040283529160200191610223565b820191906000526020600020905b81548152906001019060200180831161020657829003601f168201915b505050505081565b60008511801561023d57506001548511155b61024657600080fd5b600115156102538661050a565b15151461025f57600080fd5b600073ffffffffffffffffffffffffffffffffffffffff168173ffffffffffffffffffffffffffffffffffffffff160361029857600080fd5b6000600260008781526020019081526020016000206040518060800160405290816000820154815260200160018201548152602001600282015481526020016003820154815250509050848160200151146102f857848160200181815250505b8381604001511461030e57838160400181815250505b8281606001511461032457828160600181815250505b8060026000888152602001908152602001600020600082015181600001556020820151816001015560408201518160020155606082015181600301559050507f08eb4004c4efcad21137c1fc482f59847f6add2f28ee534922197e3efd5639b6868686868660405161039a9594939291906109bd565b60405180910390a1505050505050565b60008085116103b857600080fd5b600084116103c557600080fd5b600083116103d257600080fd5b600073ffffffffffffffffffffffffffffffffffffffff168273ffffffffffffffffffffffffffffffffffffffff160361040b57600080fd5b6001600081548092919061041e90610a3f565b919050555060006040518060800160405280600154815260200187815260200186815260200185815250905080600260006001548152602001908152602001600020600082015181600001556020820151816001015560408201518160020155606082015181600301559050507f015ab2fe8e9231d469170f9334a657df2419991bddd4400238369a5d547b39d9600154878787876040516104c49594939291906109bd565b60405180910390a1600154915050949350505050565b60026020528060005260406000206000915090508060000154908060010154908060020154908060030154905084565b6000808211158061051c575060015482115b1561052a576000905061052f565b600190505b919050565b61053c6105a8565b600115156105498361050a565b15151461055557600080fd5b600260008381526020019081526020016000206040518060800160405290816000820154815260200160018201548152602001600282015481526020016003820154815250509050919050565b60015481565b6040518060800160405280600081526020016000815260200160008152602001600081525090565b600081519050919050565b600082825260208201905092915050565b60005b8381101561060a5780820151818401526020810190506105ef565b60008484015250505050565b6000601f19601f8301169050919050565b6000610632826105d0565b61063c81856105db565b935061064c8185602086016105ec565b61065581610616565b840191505092915050565b6000602082019050818103600083015261067a8184610627565b905092915050565b600080fd5b6000819050919050565b61069a81610687565b81146106a557600080fd5b50565b6000813590506106b781610691565b92915050565b600073ffffffffffffffffffffffffffffffffffffffff82169050919050565b60006106e8826106bd565b9050919050565b6106f8816106dd565b811461070357600080fd5b50565b600081359050610715816106ef565b92915050565b600080600080600060a0868803121561073757610736610682565b5b6000610745888289016106a8565b9550506020610756888289016106a8565b9450506040610767888289016106a8565b9350506060610778888289016106a8565b925050608061078988828901610706565b9150509295509295909350565b600080600080608085870312156107b0576107af610682565b5b60006107be878288016106a8565b94505060206107cf878288016106a8565b93505060406107e0878288016106a8565b92505060606107f187828801610706565b91505092959194509250565b61080681610687565b82525050565b600060208201905061082160008301846107fd565b92915050565b60006020828403121561083d5761083c610682565b5b600061084b848285016106a8565b91505092915050565b600060808201905061086960008301876107fd565b61087660208301866107fd565b61088360408301856107fd565b61089060608301846107fd565b95945050505050565b60008115159050919050565b6108ae81610899565b82525050565b60006020820190506108c960008301846108a5565b92915050565b6108d881610687565b82525050565b6080820160008201516108f460008501826108cf565b50602082015161090760208501826108cf565b50604082015161091a60408501826108cf565b50606082015161092d60608501826108cf565b50505050565b600060808201905061094860008301846108de565b92915050565b7f4e487b7100000000000000000000000000000000000000000000000000000000600052602260045260246000fd5b6000600282049050600182168061099557607f821691505b6020821081036109a8576109a761094e565b5b50919050565b6109b7816106dd565b82525050565b600060a0820190506109d260008301886107fd565b6109df60208301876107fd565b6109ec60408301866107fd565b6109f960608301856107fd565b610a0660808301846109ae565b9695505050505050565b7f4e487b7100000000000000000000000000000000000000000000000000000000600052601160045260246000fd5b6000610a4a82610687565b91507fffffffffffffffffffffffffffffffffffffffffffffffffffffffffffffffff8203610a7c57610a7b610a10565b5b60018201905091905056fea2646970667358221220868679fd0599478741b67f2c8fd84cfd24ccdbe3eaec11c08b740d59648a187464736f6c63430008110033",
					"opcodes": "PUSH1 0x80 PUSH1 0x40 MSTORE PUSH1 0x40 MLOAD DUP1 PUSH1 0x40 ADD PUSH1 0x40 MSTORE DUP1 PUSH1 0x7 DUP2 MSTORE PUSH1 0x20 ADD PUSH32 0x416E746971756500000000000000000000000000000000000000000000000000 DUP2 MSTORE POP PUSH1 0x0 SWAP1 DUP2 PUSH3 0x4A SWAP2 SWAP1 PUSH3 0x325 JUMP JUMPDEST POP PUSH1 0x0 PUSH1 0x1 SSTORE CALLVALUE DUP1 ISZERO PUSH3 0x5D JUMPI PUSH1 0x0 DUP1 REVERT JUMPDEST POP PUSH1 0x40 MLOAD DUP1 PUSH1 0x40 ADD PUSH1 0x40 MSTORE DUP1 PUSH1 0x7 DUP2 MSTORE PUSH1 0x20 ADD PUSH32 0x416E746971756500000000000000000000000000000000000000000000000000 DUP2 MSTORE POP PUSH1 0x0 SWAP1 DUP2 PUSH3 0xA4 SWAP2 SWAP1 PUSH3 0x325 JUMP JUMPDEST POP PUSH3 0x40C JUMP JUMPDEST PUSH1 0x0 DUP2 MLOAD SWAP1 POP SWAP2 SWAP1 POP JUMP JUMPDEST PUSH32 0x4E487B7100000000000000000000000000000000000000000000000000000000 PUSH1 0x0 MSTORE PUSH1 0x41 PUSH1 0x4 MSTORE PUSH1 0x24 PUSH1 0x0 REVERT JUMPDEST PUSH32 0x4E487B7100000000000000000000000000000000000000000000000000000000 PUSH1 0x0 MSTORE PUSH1 0x22 PUSH1 0x4 MSTORE PUSH1 0x24 PUSH1 0x0 REVERT JUMPDEST PUSH1 0x0 PUSH1 0x2 DUP3 DIV SWAP1 POP PUSH1 0x1 DUP3 AND DUP1 PUSH3 0x12D JUMPI PUSH1 0x7F DUP3 AND SWAP2 POP JUMPDEST PUSH1 0x20 DUP3 LT DUP2 SUB PUSH3 0x143 JUMPI PUSH3 0x142 PUSH3 0xE5 JUMP JUMPDEST JUMPDEST POP SWAP2 SWAP1 POP JUMP JUMPDEST PUSH1 0x0 DUP2 SWAP1 POP DUP2 PUSH1 0x0 MSTORE PUSH1 0x20 PUSH1 0x0 KECCAK256 SWAP1 POP SWAP2 SWAP1 POP JUMP JUMPDEST PUSH1 0x0 PUSH1 0x20 PUSH1 0x1F DUP4 ADD DIV SWAP1 POP SWAP2 SWAP1 POP JUMP JUMPDEST PUSH1 0x0 DUP3 DUP3 SHL SWAP1 POP SWAP3 SWAP2 POP POP JUMP JUMPDEST PUSH1 0x0 PUSH1 0x8 DUP4 MUL PUSH3 0x1AD PUSH32 0xFFFFFFFFFFFFFFFFFFFFFFFFFFFFFFFFFFFFFFFFFFFFFFFFFFFFFFFFFFFFFFFF DUP3 PUSH3 0x16E JUMP JUMPDEST PUSH3 0x1B9 DUP7 DUP4 PUSH3 0x16E JUMP JUMPDEST SWAP6 POP DUP1 NOT DUP5 AND SWAP4 POP DUP1 DUP7 AND DUP5 OR SWAP3 POP POP POP SWAP4 SWAP3 POP POP POP JUMP JUMPDEST PUSH1 0x0 DUP2 SWAP1 POP SWAP2 SWAP1 POP JUMP JUMPDEST PUSH1 0x0 DUP2 SWAP1 POP SWAP2 SWAP1 POP JUMP JUMPDEST PUSH1 0x0 PUSH3 0x206 PUSH3 0x200 PUSH3 0x1FA DUP5 PUSH3 0x1D1 JUMP JUMPDEST PUSH3 0x1DB JUMP JUMPDEST PUSH3 0x1D1 JUMP JUMPDEST SWAP1 POP SWAP2 SWAP1 POP JUMP JUMPDEST PUSH1 0x0 DUP2 SWAP1 POP SWAP2 SWAP1 POP JUMP JUMPDEST PUSH3 0x222 DUP4 PUSH3 0x1E5 JUMP JUMPDEST PUSH3 0x23A PUSH3 0x231 DUP3 PUSH3 0x20D JUMP JUMPDEST DUP5 DUP5 SLOAD PUSH3 0x17B JUMP JUMPDEST DUP3 SSTORE POP POP POP POP JUMP JUMPDEST PUSH1 0x0 SWAP1 JUMP JUMPDEST PUSH3 0x251 PUSH3 0x242 JUMP JUMPDEST PUSH3 0x25E DUP2 DUP5 DUP5 PUSH3 0x217 JUMP JUMPDEST POP POP POP JUMP JUMPDEST JUMPDEST DUP2 DUP2 LT ISZERO PUSH3 0x286 JUMPI PUSH3 0x27A PUSH1 0x0 DUP3 PUSH3 0x247 JUMP JUMPDEST PUSH1 0x1 DUP2 ADD SWAP1 POP PUSH3 0x264 JUMP JUMPDEST POP POP JUMP JUMPDEST PUSH1 0x1F DUP3 GT ISZERO PUSH3 0x2D5 JUMPI PUSH3 0x29F DUP2 PUSH3 0x149 JUMP JUMPDEST PUSH3 0x2AA DUP5 PUSH3 0x15E JUMP JUMPDEST DUP2 ADD PUSH1 0x20 DUP6 LT ISZERO PUSH3 0x2BA JUMPI DUP2 SWAP1 POP JUMPDEST PUSH3 0x2D2 PUSH3 0x2C9 DUP6 PUSH3 0x15E JUMP JUMPDEST DUP4 ADD DUP3 PUSH3 0x263 JUMP JUMPDEST POP POP JUMPDEST POP POP POP JUMP JUMPDEST PUSH1 0x0 DUP3 DUP3 SHR SWAP1 POP SWAP3 SWAP2 POP POP JUMP JUMPDEST PUSH1 0x0 PUSH3 0x2FA PUSH1 0x0 NOT DUP5 PUSH1 0x8 MUL PUSH3 0x2DA JUMP JUMPDEST NOT DUP1 DUP4 AND SWAP2 POP POP SWAP3 SWAP2 POP POP JUMP JUMPDEST PUSH1 0x0 PUSH3 0x315 DUP4 DUP4 PUSH3 0x2E7 JUMP JUMPDEST SWAP2 POP DUP3 PUSH1 0x2 MUL DUP3 OR SWAP1 POP SWAP3 SWAP2 POP POP JUMP JUMPDEST PUSH3 0x330 DUP3 PUSH3 0xAB JUMP JUMPDEST PUSH8 0xFFFFFFFFFFFFFFFF DUP2 GT ISZERO PUSH3 0x34C JUMPI PUSH3 0x34B PUSH3 0xB6 JUMP JUMPDEST JUMPDEST PUSH3 0x358 DUP3 SLOAD PUSH3 0x114 JUMP JUMPDEST PUSH3 0x365 DUP3 DUP3 DUP6 PUSH3 0x28A JUMP JUMPDEST PUSH1 0x0 PUSH1 0x20 SWAP1 POP PUSH1 0x1F DUP4 GT PUSH1 0x1 DUP2 EQ PUSH3 0x39D JUMPI PUSH1 0x0 DUP5 ISZERO PUSH3 0x388 JUMPI DUP3 DUP8 ADD MLOAD SWAP1 POP JUMPDEST PUSH3 0x394 DUP6 DUP3 PUSH3 0x307 JUMP JUMPDEST DUP7 SSTORE POP PUSH3 0x404 JUMP JUMPDEST PUSH1 0x1F NOT DUP5 AND PUSH3 0x3AD DUP7 PUSH3 0x149 JUMP JUMPDEST PUSH1 0x0 JUMPDEST DUP3 DUP2 LT ISZERO PUSH3 0x3D7 JUMPI DUP5 DUP10 ADD MLOAD DUP3 SSTORE PUSH1 0x1 DUP3 ADD SWAP2 POP PUSH1 0x20 DUP6 ADD SWAP5 POP PUSH1 0x20 DUP2 ADD SWAP1 POP PUSH3 0x3B0 JUMP JUMPDEST DUP7 DUP4 LT ISZERO PUSH3 0x3F7 JUMPI DUP5 DUP10 ADD MLOAD PUSH3 0x3F3 PUSH1 0x1F DUP10 AND DUP3 PUSH3 0x2E7 JUMP JUMPDEST DUP4 SSTORE POP JUMPDEST PUSH1 0x1 PUSH1 0x2 DUP9 MUL ADD DUP9 SSTORE POP POP POP JUMPDEST POP POP POP POP POP POP JUMP JUMPDEST PUSH2 0xABD DUP1 PUSH3 0x41C PUSH1 0x0 CODECOPY PUSH1 0x0 RETURN INVALID PUSH1 0x80 PUSH1 0x40 MSTORE CALLVALUE DUP1 ISZERO PUSH2 0x10 JUMPI PUSH1 0x0 DUP1 REVERT JUMPDEST POP PUSH1 0x4 CALLDATASIZE LT PUSH2 0x7D JUMPI PUSH1 0x0 CALLDATALOAD PUSH1 0xE0 SHR DUP1 PUSH4 0x69741990 GT PUSH2 0x5B JUMPI DUP1 PUSH4 0x69741990 EQ PUSH2 0xEC JUMPI DUP1 PUSH4 0x9B0B5362 EQ PUSH2 0x11F JUMPI DUP1 PUSH4 0xA7CCF928 EQ PUSH2 0x14F JUMPI DUP1 PUSH4 0xCBF04182 EQ PUSH2 0x17F JUMPI PUSH2 0x7D JUMP JUMPDEST DUP1 PUSH4 0x6FDDE03 EQ PUSH2 0x82 JUMPI DUP1 PUSH4 0x4020C980 EQ PUSH2 0xA0 JUMPI DUP1 PUSH4 0x4BA2E60F EQ PUSH2 0xBC JUMPI JUMPDEST PUSH1 0x0 DUP1 REVERT JUMPDEST PUSH2 0x8A PUSH2 0x19D JUMP JUMPDEST PUSH1 0x40 MLOAD PUSH2 0x97 SWAP2 SWAP1 PUSH2 0x660 JUMP JUMPDEST PUSH1 0x40 MLOAD DUP1 SWAP2 SUB SWAP1 RETURN JUMPDEST PUSH2 0xBA PUSH1 0x4 DUP1 CALLDATASIZE SUB DUP2 ADD SWAP1 PUSH2 0xB5 SWAP2 SWAP1 PUSH2 0x71B JUMP JUMPDEST PUSH2 0x22B JUMP JUMPDEST STOP JUMPDEST PUSH2 0xD6 PUSH1 0x4 DUP1 CALLDATASIZE SUB DUP2 ADD SWAP1 PUSH2 0xD1 SWAP2 SWAP1 PUSH2 0x796 JUMP JUMPDEST PUSH2 0x3AA JUMP JUMPDEST PUSH1 0x40 MLOAD PUSH2 0xE3 SWAP2 SWAP1 PUSH2 0x80C JUMP JUMPDEST PUSH1 0x40 MLOAD DUP1 SWAP2 SUB SWAP1 RETURN JUMPDEST PUSH2 0x106 PUSH1 0x4 DUP1 CALLDATASIZE SUB DUP2 ADD SWAP1 PUSH2 0x101 SWAP2 SWAP1 PUSH2 0x827 JUMP JUMPDEST PUSH2 0x4DA JUMP JUMPDEST PUSH1 0x40 MLOAD PUSH2 0x116 SWAP5 SWAP4 SWAP3 SWAP2 SWAP1 PUSH2 0x854 JUMP JUMPDEST PUSH1 0x40 MLOAD DUP1 SWAP2 SUB SWAP1 RETURN JUMPDEST PUSH2 0x139 PUSH1 0x4 DUP1 CALLDATASIZE SUB DUP2 ADD SWAP1 PUSH2 0x134 SWAP2 SWAP1 PUSH2 0x827 JUMP JUMPDEST PUSH2 0x50A JUMP JUMPDEST PUSH1 0x40 MLOAD PUSH2 0x146 SWAP2 SWAP1 PUSH2 0x8B4 JUMP JUMPDEST PUSH1 0x40 MLOAD DUP1 SWAP2 SUB SWAP1 RETURN JUMPDEST PUSH2 0x169 PUSH1 0x4 DUP1 CALLDATASIZE SUB DUP2 ADD SWAP1 PUSH2 0x164 SWAP2 SWAP1 PUSH2 0x827 JUMP JUMPDEST PUSH2 0x534 JUMP JUMPDEST PUSH1 0x40 MLOAD PUSH2 0x176 SWAP2 SWAP1 PUSH2 0x933 JUMP JUMPDEST PUSH1 0x40 MLOAD DUP1 SWAP2 SUB SWAP1 RETURN JUMPDEST PUSH2 0x187 PUSH2 0x5A2 JUMP JUMPDEST PUSH1 0x40 MLOAD PUSH2 0x194 SWAP2 SWAP1 PUSH2 0x80C JUMP JUMPDEST PUSH1 0x40 MLOAD DUP1 SWAP2 SUB SWAP1 RETURN JUMPDEST PUSH1 0x0 DUP1 SLOAD PUSH2 0x1AA SWAP1 PUSH2 0x97D JUMP JUMPDEST DUP1 PUSH1 0x1F ADD PUSH1 0x20 DUP1 SWAP2 DIV MUL PUSH1 0x20 ADD PUSH1 0x40 MLOAD SWAP1 DUP2 ADD PUSH1 0x40 MSTORE DUP1 SWAP3 SWAP2 SWAP1 DUP2 DUP2 MSTORE PUSH1 0x20 ADD DUP3 DUP1 SLOAD PUSH2 0x1D6 SWAP1 PUSH2 0x97D JUMP JUMPDEST DUP1 ISZERO PUSH2 0x223 JUMPI DUP1 PUSH1 0x1F LT PUSH2 0x1F8 JUMPI PUSH2 0x100 DUP1 DUP4 SLOAD DIV MUL DUP4 MSTORE SWAP2 PUSH1 0x20 ADD SWAP2 PUSH2 0x223 JUMP JUMPDEST DUP3 ADD SWAP2 SWAP1 PUSH1 0x0 MSTORE PUSH1 0x20 PUSH1 0x0 KECCAK256 SWAP1 JUMPDEST DUP2 SLOAD DUP2 MSTORE SWAP1 PUSH1 0x1 ADD SWAP1 PUSH1 0x20 ADD DUP1 DUP4 GT PUSH2 0x206 JUMPI DUP3 SWAP1 SUB PUSH1 0x1F AND DUP3 ADD SWAP2 JUMPDEST POP POP POP POP POP DUP2 JUMP JUMPDEST PUSH1 0x0 DUP6 GT DUP1 ISZERO PUSH2 0x23D JUMPI POP PUSH1 0x1 SLOAD DUP6 GT ISZERO JUMPDEST PUSH2 0x246 JUMPI PUSH1 0x0 DUP1 REVERT JUMPDEST PUSH1 0x1 ISZERO ISZERO PUSH2 0x253 DUP7 PUSH2 0x50A JUMP JUMPDEST ISZERO ISZERO EQ PUSH2 0x25F JUMPI PUSH1 0x0 DUP1 REVERT JUMPDEST PUSH1 0x0 PUSH20 0xFFFFFFFFFFFFFFFFFFFFFFFFFFFFFFFFFFFFFFFF AND DUP2 PUSH20 0xFFFFFFFFFFFFFFFFFFFFFFFFFFFFFFFFFFFFFFFF AND SUB PUSH2 0x298 JUMPI PUSH1 0x0 DUP1 REVERT JUMPDEST PUSH1 0x0 PUSH1 0x2 PUSH1 0x0 DUP8 DUP2 MSTORE PUSH1 0x20 ADD SWAP1 DUP2 MSTORE PUSH1 0x20 ADD PUSH1 0x0 KECCAK256 PUSH1 0x40 MLOAD DUP1 PUSH1 0x80 ADD PUSH1 0x40 MSTORE SWAP1 DUP2 PUSH1 0x0 DUP3 ADD SLOAD DUP2 MSTORE PUSH1 0x20 ADD PUSH1 0x1 DUP3 ADD SLOAD DUP2 MSTORE PUSH1 0x20 ADD PUSH1 0x2 DUP3 ADD SLOAD DUP2 MSTORE PUSH1 0x20 ADD PUSH1 0x3 DUP3 ADD SLOAD DUP2 MSTORE POP POP SWAP1 POP DUP5 DUP2 PUSH1 0x20 ADD MLOAD EQ PUSH2 0x2F8 JUMPI DUP5 DUP2 PUSH1 0x20 ADD DUP2 DUP2 MSTORE POP POP JUMPDEST DUP4 DUP2 PUSH1 0x40 ADD MLOAD EQ PUSH2 0x30E JUMPI DUP4 DUP2 PUSH1 0x40 ADD DUP2 DUP2 MSTORE POP POP JUMPDEST DUP3 DUP2 PUSH1 0x60 ADD MLOAD EQ PUSH2 0x324 JUMPI DUP3 DUP2 PUSH1 0x60 ADD DUP2 DUP2 MSTORE POP POP JUMPDEST DUP1 PUSH1 0x2 PUSH1 0x0 DUP9 DUP2 MSTORE PUSH1 0x20 ADD SWAP1 DUP2 MSTORE PUSH1 0x20 ADD PUSH1 0x0 KECCAK256 PUSH1 0x0 DUP3 ADD MLOAD DUP2 PUSH1 0x0 ADD SSTORE PUSH1 0x20 DUP3 ADD MLOAD DUP2 PUSH1 0x1 ADD SSTORE PUSH1 0x40 DUP3 ADD MLOAD DUP2 PUSH1 0x2 ADD SSTORE PUSH1 0x60 DUP3 ADD MLOAD DUP2 PUSH1 0x3 ADD SSTORE SWAP1 POP POP PUSH32 0x8EB4004C4EFCAD21137C1FC482F59847F6ADD2F28EE534922197E3EFD5639B6 DUP7 DUP7 DUP7 DUP7 DUP7 PUSH1 0x40 MLOAD PUSH2 0x39A SWAP6 SWAP5 SWAP4 SWAP3 SWAP2 SWAP1 PUSH2 0x9BD JUMP JUMPDEST PUSH1 0x40 MLOAD DUP1 SWAP2 SUB SWAP1 LOG1 POP POP POP POP POP POP JUMP JUMPDEST PUSH1 0x0 DUP1 DUP6 GT PUSH2 0x3B8 JUMPI PUSH1 0x0 DUP1 REVERT JUMPDEST PUSH1 0x0 DUP5 GT PUSH2 0x3C5 JUMPI PUSH1 0x0 DUP1 REVERT JUMPDEST PUSH1 0x0 DUP4 GT PUSH2 0x3D2 JUMPI PUSH1 0x0 DUP1 REVERT JUMPDEST PUSH1 0x0 PUSH20 0xFFFFFFFFFFFFFFFFFFFFFFFFFFFFFFFFFFFFFFFF AND DUP3 PUSH20 0xFFFFFFFFFFFFFFFFFFFFFFFFFFFFFFFFFFFFFFFF AND SUB PUSH2 0x40B JUMPI PUSH1 0x0 DUP1 REVERT JUMPDEST PUSH1 0x1 PUSH1 0x0 DUP2 SLOAD DUP1 SWAP3 SWAP2 SWAP1 PUSH2 0x41E SWAP1 PUSH2 0xA3F JUMP JUMPDEST SWAP2 SWAP1 POP SSTORE POP PUSH1 0x0 PUSH1 0x40 MLOAD DUP1 PUSH1 0x80 ADD PUSH1 0x40 MSTORE DUP1 PUSH1 0x1 SLOAD DUP2 MSTORE PUSH1 0x20 ADD DUP8 DUP2 MSTORE PUSH1 0x20 ADD DUP7 DUP2 MSTORE PUSH1 0x20 ADD DUP6 DUP2 MSTORE POP SWAP1 POP DUP1 PUSH1 0x2 PUSH1 0x0 PUSH1 0x1 SLOAD DUP2 MSTORE PUSH1 0x20 ADD SWAP1 DUP2 MSTORE PUSH1 0x20 ADD PUSH1 0x0 KECCAK256 PUSH1 0x0 DUP3 ADD MLOAD DUP2 PUSH1 0x0 ADD SSTORE PUSH1 0x20 DUP3 ADD MLOAD DUP2 PUSH1 0x1 ADD SSTORE PUSH1 0x40 DUP3 ADD MLOAD DUP2 PUSH1 0x2 ADD SSTORE PUSH1 0x60 DUP3 ADD MLOAD DUP2 PUSH1 0x3 ADD SSTORE SWAP1 POP POP PUSH32 0x15AB2FE8E9231D469170F9334A657DF2419991BDDD4400238369A5D547B39D9 PUSH1 0x1 SLOAD DUP8 DUP8 DUP8 DUP8 PUSH1 0x40 MLOAD PUSH2 0x4C4 SWAP6 SWAP5 SWAP4 SWAP3 SWAP2 SWAP1 PUSH2 0x9BD JUMP JUMPDEST PUSH1 0x40 MLOAD DUP1 SWAP2 SUB SWAP1 LOG1 PUSH1 0x1 SLOAD SWAP2 POP POP SWAP5 SWAP4 POP POP POP POP JUMP JUMPDEST PUSH1 0x2 PUSH1 0x20 MSTORE DUP1 PUSH1 0x0 MSTORE PUSH1 0x40 PUSH1 0x0 KECCAK256 PUSH1 0x0 SWAP2 POP SWAP1 POP DUP1 PUSH1 0x0 ADD SLOAD SWAP1 DUP1 PUSH1 0x1 ADD SLOAD SWAP1 DUP1 PUSH1 0x2 ADD SLOAD SWAP1 DUP1 PUSH1 0x3 ADD SLOAD SWAP1 POP DUP5 JUMP JUMPDEST PUSH1 0x0 DUP1 DUP3 GT ISZERO DUP1 PUSH2 0x51C JUMPI POP PUSH1 0x1 SLOAD DUP3 GT JUMPDEST ISZERO PUSH2 0x52A JUMPI PUSH1 0x0 SWAP1 POP PUSH2 0x52F JUMP JUMPDEST PUSH1 0x1 SWAP1 POP JUMPDEST SWAP2 SWAP1 POP JUMP JUMPDEST PUSH2 0x53C PUSH2 0x5A8 JUMP JUMPDEST PUSH1 0x1 ISZERO ISZERO PUSH2 0x549 DUP4 PUSH2 0x50A JUMP JUMPDEST ISZERO ISZERO EQ PUSH2 0x555 JUMPI PUSH1 0x0 DUP1 REVERT JUMPDEST PUSH1 0x2 PUSH1 0x0 DUP4 DUP2 MSTORE PUSH1 0x20 ADD SWAP1 DUP2 MSTORE PUSH1 0x20 ADD PUSH1 0x0 KECCAK256 PUSH1 0x40 MLOAD DUP1 PUSH1 0x80 ADD PUSH1 0x40 MSTORE SWAP1 DUP2 PUSH1 0x0 DUP3 ADD SLOAD DUP2 MSTORE PUSH1 0x20 ADD PUSH1 0x1 DUP3 ADD SLOAD DUP2 MSTORE PUSH1 0x20 ADD PUSH1 0x2 DUP3 ADD SLOAD DUP2 MSTORE PUSH1 0x20 ADD PUSH1 0x3 DUP3 ADD SLOAD DUP2 MSTORE POP POP SWAP1 POP SWAP2 SWAP1 POP JUMP JUMPDEST PUSH1 0x1 SLOAD DUP2 JUMP JUMPDEST PUSH1 0x40 MLOAD DUP1 PUSH1 0x80 ADD PUSH1 0x40 MSTORE DUP1 PUSH1 0x0 DUP2 MSTORE PUSH1 0x20 ADD PUSH1 0x0 DUP2 MSTORE PUSH1 0x20 ADD PUSH1 0x0 DUP2 MSTORE PUSH1 0x20 ADD PUSH1 0x0 DUP2 MSTORE POP SWAP1 JUMP JUMPDEST PUSH1 0x0 DUP2 MLOAD SWAP1 POP SWAP2 SWAP1 POP JUMP JUMPDEST PUSH1 0x0 DUP3 DUP3 MSTORE PUSH1 0x20 DUP3 ADD SWAP1 POP SWAP3 SWAP2 POP POP JUMP JUMPDEST PUSH1 0x0 JUMPDEST DUP4 DUP2 LT ISZERO PUSH2 0x60A JUMPI DUP1 DUP3 ADD MLOAD DUP2 DUP5 ADD MSTORE PUSH1 0x20 DUP2 ADD SWAP1 POP PUSH2 0x5EF JUMP JUMPDEST PUSH1 0x0 DUP5 DUP5 ADD MSTORE POP POP POP POP JUMP JUMPDEST PUSH1 0x0 PUSH1 0x1F NOT PUSH1 0x1F DUP4 ADD AND SWAP1 POP SWAP2 SWAP1 POP JUMP JUMPDEST PUSH1 0x0 PUSH2 0x632 DUP3 PUSH2 0x5D0 JUMP JUMPDEST PUSH2 0x63C DUP2 DUP6 PUSH2 0x5DB JUMP JUMPDEST SWAP4 POP PUSH2 0x64C DUP2 DUP6 PUSH1 0x20 DUP7 ADD PUSH2 0x5EC JUMP JUMPDEST PUSH2 0x655 DUP2 PUSH2 0x616 JUMP JUMPDEST DUP5 ADD SWAP2 POP POP SWAP3 SWAP2 POP POP JUMP JUMPDEST PUSH1 0x0 PUSH1 0x20 DUP3 ADD SWAP1 POP DUP2 DUP2 SUB PUSH1 0x0 DUP4 ADD MSTORE PUSH2 0x67A DUP2 DUP5 PUSH2 0x627 JUMP JUMPDEST SWAP1 POP SWAP3 SWAP2 POP POP JUMP JUMPDEST PUSH1 0x0 DUP1 REVERT JUMPDEST PUSH1 0x0 DUP2 SWAP1 POP SWAP2 SWAP1 POP JUMP JUMPDEST PUSH2 0x69A DUP2 PUSH2 0x687 JUMP JUMPDEST DUP2 EQ PUSH2 0x6A5 JUMPI PUSH1 0x0 DUP1 REVERT JUMPDEST POP JUMP JUMPDEST PUSH1 0x0 DUP2 CALLDATALOAD SWAP1 POP PUSH2 0x6B7 DUP2 PUSH2 0x691 JUMP JUMPDEST SWAP3 SWAP2 POP POP JUMP JUMPDEST PUSH1 0x0 PUSH20 0xFFFFFFFFFFFFFFFFFFFFFFFFFFFFFFFFFFFFFFFF DUP3 AND SWAP1 POP SWAP2 SWAP1 POP JUMP JUMPDEST PUSH1 0x0 PUSH2 0x6E8 DUP3 PUSH2 0x6BD JUMP JUMPDEST SWAP1 POP SWAP2 SWAP1 POP JUMP JUMPDEST PUSH2 0x6F8 DUP2 PUSH2 0x6DD JUMP JUMPDEST DUP2 EQ PUSH2 0x703 JUMPI PUSH1 0x0 DUP1 REVERT JUMPDEST POP JUMP JUMPDEST PUSH1 0x0 DUP2 CALLDATALOAD SWAP1 POP PUSH2 0x715 DUP2 PUSH2 0x6EF JUMP JUMPDEST SWAP3 SWAP2 POP POP JUMP JUMPDEST PUSH1 0x0 DUP1 PUSH1 0x0 DUP1 PUSH1 0x0 PUSH1 0xA0 DUP7 DUP9 SUB SLT ISZERO PUSH2 0x737 JUMPI PUSH2 0x736 PUSH2 0x682 JUMP JUMPDEST JUMPDEST PUSH1 0x0 PUSH2 0x745 DUP9 DUP3 DUP10 ADD PUSH2 0x6A8 JUMP JUMPDEST SWAP6 POP POP PUSH1 0x20 PUSH2 0x756 DUP9 DUP3 DUP10 ADD PUSH2 0x6A8 JUMP JUMPDEST SWAP5 POP POP PUSH1 0x40 PUSH2 0x767 DUP9 DUP3 DUP10 ADD PUSH2 0x6A8 JUMP JUMPDEST SWAP4 POP POP PUSH1 0x60 PUSH2 0x778 DUP9 DUP3 DUP10 ADD PUSH2 0x6A8 JUMP JUMPDEST SWAP3 POP POP PUSH1 0x80 PUSH2 0x789 DUP9 DUP3 DUP10 ADD PUSH2 0x706 JUMP JUMPDEST SWAP2 POP POP SWAP3 SWAP6 POP SWAP3 SWAP6 SWAP1 SWAP4 POP JUMP JUMPDEST PUSH1 0x0 DUP1 PUSH1 0x0 DUP1 PUSH1 0x80 DUP6 DUP8 SUB SLT ISZERO PUSH2 0x7B0 JUMPI PUSH2 0x7AF PUSH2 0x682 JUMP JUMPDEST JUMPDEST PUSH1 0x0 PUSH2 0x7BE DUP8 DUP3 DUP9 ADD PUSH2 0x6A8 JUMP JUMPDEST SWAP5 POP POP PUSH1 0x20 PUSH2 0x7CF DUP8 DUP3 DUP9 ADD PUSH2 0x6A8 JUMP JUMPDEST SWAP4 POP POP PUSH1 0x40 PUSH2 0x7E0 DUP8 DUP3 DUP9 ADD PUSH2 0x6A8 JUMP JUMPDEST SWAP3 POP POP PUSH1 0x60 PUSH2 0x7F1 DUP8 DUP3 DUP9 ADD PUSH2 0x706 JUMP JUMPDEST SWAP2 POP POP SWAP3 SWAP6 SWAP2 SWAP5 POP SWAP3 POP JUMP JUMPDEST PUSH2 0x806 DUP2 PUSH2 0x687 JUMP JUMPDEST DUP3 MSTORE POP POP JUMP JUMPDEST PUSH1 0x0 PUSH1 0x20 DUP3 ADD SWAP1 POP PUSH2 0x821 PUSH1 0x0 DUP4 ADD DUP5 PUSH2 0x7FD JUMP JUMPDEST SWAP3 SWAP2 POP POP JUMP JUMPDEST PUSH1 0x0 PUSH1 0x20 DUP3 DUP5 SUB SLT ISZERO PUSH2 0x83D JUMPI PUSH2 0x83C PUSH2 0x682 JUMP JUMPDEST JUMPDEST PUSH1 0x0 PUSH2 0x84B DUP5 DUP3 DUP6 ADD PUSH2 0x6A8 JUMP JUMPDEST SWAP2 POP POP SWAP3 SWAP2 POP POP JUMP JUMPDEST PUSH1 0x0 PUSH1 0x80 DUP3 ADD SWAP1 POP PUSH2 0x869 PUSH1 0x0 DUP4 ADD DUP8 PUSH2 0x7FD JUMP JUMPDEST PUSH2 0x876 PUSH1 0x20 DUP4 ADD DUP7 PUSH2 0x7FD JUMP JUMPDEST PUSH2 0x883 PUSH1 0x40 DUP4 ADD DUP6 PUSH2 0x7FD JUMP JUMPDEST PUSH2 0x890 PUSH1 0x60 DUP4 ADD DUP5 PUSH2 0x7FD JUMP JUMPDEST SWAP6 SWAP5 POP POP POP POP POP JUMP JUMPDEST PUSH1 0x0 DUP2 ISZERO ISZERO SWAP1 POP SWAP2 SWAP1 POP JUMP JUMPDEST PUSH2 0x8AE DUP2 PUSH2 0x899 JUMP JUMPDEST DUP3 MSTORE POP POP JUMP JUMPDEST PUSH1 0x0 PUSH1 0x20 DUP3 ADD SWAP1 POP PUSH2 0x8C9 PUSH1 0x0 DUP4 ADD DUP5 PUSH2 0x8A5 JUMP JUMPDEST SWAP3 SWAP2 POP POP JUMP JUMPDEST PUSH2 0x8D8 DUP2 PUSH2 0x687 JUMP JUMPDEST DUP3 MSTORE POP POP JUMP JUMPDEST PUSH1 0x80 DUP3 ADD PUSH1 0x0 DUP3 ADD MLOAD PUSH2 0x8F4 PUSH1 0x0 DUP6 ADD DUP3 PUSH2 0x8CF JUMP JUMPDEST POP PUSH1 0x20 DUP3 ADD MLOAD PUSH2 0x907 PUSH1 0x20 DUP6 ADD DUP3 PUSH2 0x8CF JUMP JUMPDEST POP PUSH1 0x40 DUP3 ADD MLOAD PUSH2 0x91A PUSH1 0x40 DUP6 ADD DUP3 PUSH2 0x8CF JUMP JUMPDEST POP PUSH1 0x60 DUP3 ADD MLOAD PUSH2 0x92D PUSH1 0x60 DUP6 ADD DUP3 PUSH2 0x8CF JUMP JUMPDEST POP POP POP POP JUMP JUMPDEST PUSH1 0x0 PUSH1 0x80 DUP3 ADD SWAP1 POP PUSH2 0x948 PUSH1 0x0 DUP4 ADD DUP5 PUSH2 0x8DE JUMP JUMPDEST SWAP3 SWAP2 POP POP JUMP JUMPDEST PUSH32 0x4E487B7100000000000000000000000000000000000000000000000000000000 PUSH1 0x0 MSTORE PUSH1 0x22 PUSH1 0x4 MSTORE PUSH1 0x24 PUSH1 0x0 REVERT JUMPDEST PUSH1 0x0 PUSH1 0x2 DUP3 DIV SWAP1 POP PUSH1 0x1 DUP3 AND DUP1 PUSH2 0x995 JUMPI PUSH1 0x7F DUP3 AND SWAP2 POP JUMPDEST PUSH1 0x20 DUP3 LT DUP2 SUB PUSH2 0x9A8 JUMPI PUSH2 0x9A7 PUSH2 0x94E JUMP JUMPDEST JUMPDEST POP SWAP2 SWAP1 POP JUMP JUMPDEST PUSH2 0x9B7 DUP2 PUSH2 0x6DD JUMP JUMPDEST DUP3 MSTORE POP POP JUMP JUMPDEST PUSH1 0x0 PUSH1 0xA0 DUP3 ADD SWAP1 POP PUSH2 0x9D2 PUSH1 0x0 DUP4 ADD DUP9 PUSH2 0x7FD JUMP JUMPDEST PUSH2 0x9DF PUSH1 0x20 DUP4 ADD DUP8 PUSH2 0x7FD JUMP JUMPDEST PUSH2 0x9EC PUSH1 0x40 DUP4 ADD DUP7 PUSH2 0x7FD JUMP JUMPDEST PUSH2 0x9F9 PUSH1 0x60 DUP4 ADD DUP6 PUSH2 0x7FD JUMP JUMPDEST PUSH2 0xA06 PUSH1 0x80 DUP4 ADD DUP5 PUSH2 0x9AE JUMP JUMPDEST SWAP7 SWAP6 POP POP POP POP POP POP JUMP JUMPDEST PUSH32 0x4E487B7100000000000000000000000000000000000000000000000000000000 PUSH1 0x0 MSTORE PUSH1 0x11 PUSH1 0x4 MSTORE PUSH1 0x24 PUSH1 0x0 REVERT JUMPDEST PUSH1 0x0 PUSH2 0xA4A DUP3 PUSH2 0x687 JUMP JUMPDEST SWAP2 POP PUSH32 0xFFFFFFFFFFFFFFFFFFFFFFFFFFFFFFFFFFFFFFFFFFFFFFFFFFFFFFFFFFFFFFFF DUP3 SUB PUSH2 0xA7C JUMPI PUSH2 0xA7B PUSH2 0xA10 JUMP JUMPDEST JUMPDEST PUSH1 0x1 DUP3 ADD SWAP1 POP SWAP2 SWAP1 POP JUMP INVALID LOG2 PUSH5 0x6970667358 0x22 SLT KECCAK256 DUP7 DUP7 PUSH26 0xFD0599478741B67F2C8FD84CFD24CCDBE3EAEC11C08B740D5964 DUP11 XOR PUSH21 0x64736F6C6343000811003300000000000000000000 "
				},
				"gasEstimates": {
					"creation": {
						"codeDepositCost": "549800",
						"executionCost": "infinite",
						"totalCost": "infinite"
					},
					"external": {
						"AddAntique(uint256,uint256,uint256,address)": "infinite",
						"GetAntiqueByID(uint256)": "2812",
						"UpdateAntique(uint256,uint256,uint256,uint256,address)": "infinite",
						"ValidateAntiqueID(uint256)": "2798",
						"antiqueCount()": "2495",
						"antiqueMap(uint256)": "infinite",
						"name()": "infinite"
					}
				},
				"methodIdentifiers": {
					"AddAntique(uint256,uint256,uint256,address)": "4ba2e60f",
					"GetAntiqueByID(uint256)": "a7ccf928",
					"UpdateAntique(uint256,uint256,uint256,uint256,address)": "4020c980",
					"ValidateAntiqueID(uint256)": "9b0b5362",
					"antiqueCount()": "cbf04182",
					"antiqueMap(uint256)": "69741990",
					"name()": "06fdde03"
				}
			},
			"storageLayout": {
				"storage": [
					{
						"astId": 4,
						"contract": "Database/Database/Antique.sol:Antique",
						"label": "name",
						"offset": 0,
						"slot": "0",
						"type": "t_string_storage"
					},
					{
						"astId": 7,
						"contract": "Database/Database/Antique.sol:Antique",
						"label": "antiqueCount",
						"offset": 0,
						"slot": "1",
						"type": "t_uint256"
					},
					{
						"astId": 12,
						"contract": "Database/Database/Antique.sol:Antique",
						"label": "antiqueMap",
						"offset": 0,
						"slot": "2",
						"type": "t_mapping(t_uint256,t_struct(AntiqueObject)29_storage)"
					}
				],
				"types": {
					"t_mapping(t_uint256,t_struct(AntiqueObject)29_storage)": {
						"encoding": "mapping",
						"key": "t_uint256",
						"label": "mapping(uint256 => struct Antique.AntiqueObject)",
						"numberOfBytes": "32",
						"value": "t_struct(AntiqueObject)29_storage"
					},
					"t_string_storage": {
						"encoding": "bytes",
						"label": "string",
						"numberOfBytes": "32"
					},
					"t_struct(AntiqueObject)29_storage": {
						"encoding": "inplace",
						"label": "struct Antique.AntiqueObject",
						"members": [
							{
								"astId": 22,
								"contract": "Database/Database/Antique.sol:Antique",
								"label": "antiqueID",
								"offset": 0,
								"slot": "0",
								"type": "t_uint256"
							},
							{
								"astId": 24,
								"contract": "Database/Database/Antique.sol:Antique",
								"label": "documentationID",
								"offset": 0,
								"slot": "1",
								"type": "t_uint256"
							},
							{
								"astId": 26,
								"contract": "Database/Database/Antique.sol:Antique",
								"label": "verificationID",
								"offset": 0,
								"slot": "2",
								"type": "t_uint256"
							},
							{
								"astId": 28,
								"contract": "Database/Database/Antique.sol:Antique",
								"label": "descriptionID",
								"offset": 0,
								"slot": "3",
								"type": "t_uint256"
							}
						],
						"numberOfBytes": "128"
					},
					"t_uint256": {
						"encoding": "inplace",
						"label": "uint256",
						"numberOfBytes": "32"
					}
				}
			},
			"userdoc": {
				"kind": "user",
				"methods": {},
				"version": 1
			}
		}
	}
}