{
	"Database/Database/Description.sol": {
		"Description": {
			"abi": [
				{
					"inputs": [],
					"stateMutability": "nonpayable",
					"type": "constructor"
				},
				{
					"anonymous": false,
					"inputs": [
						{
							"indexed": false,
							"internalType": "uint256",
							"name": "descriptionID",
							"type": "uint256"
						},
						{
							"indexed": false,
							"internalType": "uint256",
							"name": "antiqueObjectID",
							"type": "uint256"
						},
						{
							"indexed": false,
							"internalType": "string",
							"name": "materialCreated",
							"type": "string"
						},
						{
							"indexed": false,
							"internalType": "address payable",
							"name": "uploader",
							"type": "address"
						}
					],
					"name": "addAntiqueDescription",
					"type": "event"
				},
				{
					"anonymous": false,
					"inputs": [
						{
							"indexed": false,
							"internalType": "uint256",
							"name": "descriptionID",
							"type": "uint256"
						},
						{
							"indexed": false,
							"internalType": "uint256",
							"name": "antiqueID",
							"type": "uint256"
						},
						{
							"indexed": false,
							"internalType": "uint256",
							"name": "uploadTime",
							"type": "uint256"
						},
						{
							"indexed": false,
							"internalType": "address payable",
							"name": "uploader",
							"type": "address"
						}
					],
					"name": "setAntiqueIDByDescriptionID",
					"type": "event"
				},
				{
					"anonymous": false,
					"inputs": [
						{
							"indexed": false,
							"internalType": "uint256",
							"name": "documentationID",
							"type": "uint256"
						},
						{
							"indexed": false,
							"internalType": "string",
							"name": "newMaterialCreated",
							"type": "string"
						},
						{
							"indexed": false,
							"internalType": "address payable",
							"name": "uploader",
							"type": "address"
						}
					],
					"name": "updateAntiqueDescription",
					"type": "event"
				},
				{
					"inputs": [
						{
							"internalType": "uint256",
							"name": "_antiqueObjectID",
							"type": "uint256"
						},
						{
							"internalType": "string",
							"name": "_materialCreated",
							"type": "string"
						},
						{
							"internalType": "address payable",
							"name": "_uploader",
							"type": "address"
						}
					],
					"name": "AddDescription",
					"outputs": [
						{
							"internalType": "uint256",
							"name": "",
							"type": "uint256"
						}
					],
					"stateMutability": "nonpayable",
					"type": "function"
				},
				{
					"inputs": [
						{
							"internalType": "uint256",
							"name": "_descriptionID",
							"type": "uint256"
						}
					],
					"name": "GetDescriptionByID",
					"outputs": [
						{
							"components": [
								{
									"internalType": "uint256",
									"name": "descriptionID",
									"type": "uint256"
								},
								{
									"internalType": "uint256",
									"name": "antiqueID",
									"type": "uint256"
								},
								{
									"internalType": "string",
									"name": "materialCreated",
									"type": "string"
								},
								{
									"internalType": "uint256",
									"name": "uploadTime",
									"type": "uint256"
								},
								{
									"internalType": "address payable",
									"name": "uploader",
									"type": "address"
								}
							],
							"internalType": "struct Description.DescriptionObject",
							"name": "",
							"type": "tuple"
						}
					],
					"stateMutability": "view",
					"type": "function"
				},
				{
					"inputs": [
						{
							"internalType": "uint256",
							"name": "_descriptionID",
							"type": "uint256"
						},
						{
							"internalType": "uint256",
							"name": "_newAntiqueID",
							"type": "uint256"
						},
						{
							"internalType": "address payable",
							"name": "_uploader",
							"type": "address"
						}
					],
					"name": "SetAntiqueIDByDescriptionID",
					"outputs": [],
					"stateMutability": "nonpayable",
					"type": "function"
				},
				{
					"inputs": [
						{
							"internalType": "uint256",
							"name": "_descriptionID",
							"type": "uint256"
						},
						{
							"internalType": "string",
							"name": "_newMaterialCreated",
							"type": "string"
						},
						{
							"internalType": "address payable",
							"name": "_uploader",
							"type": "address"
						}
					],
					"name": "UpdateDescriptionMaterials",
					"outputs": [],
					"stateMutability": "nonpayable",
					"type": "function"
				},
				{
					"inputs": [
						{
							"internalType": "uint256",
							"name": "_descriptionID",
							"type": "uint256"
						}
					],
					"name": "ValidateDescriptionID",
					"outputs": [
						{
							"internalType": "bool",
							"name": "",
							"type": "bool"
						}
					],
					"stateMutability": "view",
					"type": "function"
				},
				{
					"inputs": [],
					"name": "descriptionCount",
					"outputs": [
						{
							"internalType": "uint256",
							"name": "",
							"type": "uint256"
						}
					],
					"stateMutability": "view",
					"type": "function"
				},
				{
					"inputs": [],
					"name": "name",
					"outputs": [
						{
							"internalType": "string",
							"name": "",
							"type": "string"
						}
					],
					"stateMutability": "view",
					"type": "function"
				}
			],
			"devdoc": {
				"kind": "dev",
				"methods": {},
				"version": 1
			},
			"evm": {
				"assembly": "    /* \"Database/Database/Description.sol\":61:4174  contract Description {... */\n  mstore(0x40, 0x80)\n    /* \"Database/Database/Description.sol\":89:125  string public name = 'Documentation' */\n  mload(0x40)\n  dup1\n  0x40\n  add\n  0x40\n  mstore\n  dup1\n  0x0d\n  dup2\n  mstore\n  0x20\n  add\n  0x446f63756d656e746174696f6e00000000000000000000000000000000000000\n  dup2\n  mstore\n  pop\n  0x00\n  swap1\n  dup2\n  tag_1\n  swap2\n  swap1\n  tag_2\n  jump\t// in\ntag_1:\n  pop\n    /* \"Database/Database/Description.sol\":166:167  0 */\n  0x00\n    /* \"Database/Database/Description.sol\":132:167  uint256 public descriptionCount = 0 */\n  0x01\n  sstore\n    /* \"Database/Database/Description.sol\":242:297  constructor() {... */\n  callvalue\n  dup1\n  iszero\n  tag_3\n  jumpi\n  0x00\n  dup1\n  revert\ntag_3:\n  pop\n    /* \"Database/Database/Description.sol\":267:289  name = \"Documentation\" */\n  mload(0x40)\n  dup1\n  0x40\n  add\n  0x40\n  mstore\n  dup1\n  0x0d\n  dup2\n  mstore\n  0x20\n  add\n  0x446f63756d656e746174696f6e00000000000000000000000000000000000000\n  dup2\n  mstore\n  pop\n    /* \"Database/Database/Description.sol\":267:271  name */\n  0x00\n    /* \"Database/Database/Description.sol\":267:289  name = \"Documentation\" */\n  swap1\n  dup2\n  tag_6\n  swap2\n  swap1\n  tag_2\n  jump\t// in\ntag_6:\n  pop\n    /* \"Database/Database/Description.sol\":61:4174  contract Description {... */\n  jump(tag_7)\n    /* \"#utility.yul\":7:106   */\ntag_8:\n    /* \"#utility.yul\":59:65   */\n  0x00\n    /* \"#utility.yul\":93:98   */\n  dup2\n    /* \"#utility.yul\":87:99   */\n  mload\n    /* \"#utility.yul\":77:99   */\n  swap1\n  pop\n    /* \"#utility.yul\":7:106   */\n  swap2\n  swap1\n  pop\n  jump\t// out\n    /* \"#utility.yul\":112:292   */\ntag_9:\n    /* \"#utility.yul\":160:237   */\n  0x4e487b7100000000000000000000000000000000000000000000000000000000\n    /* \"#utility.yul\":157:158   */\n  0x00\n    /* \"#utility.yul\":150:238   */\n  mstore\n    /* \"#utility.yul\":257:261   */\n  0x41\n    /* \"#utility.yul\":254:255   */\n  0x04\n    /* \"#utility.yul\":247:262   */\n  mstore\n    /* \"#utility.yul\":281:285   */\n  0x24\n    /* \"#utility.yul\":278:279   */\n  0x00\n    /* \"#utility.yul\":271:286   */\n  revert\n    /* \"#utility.yul\":298:478   */\ntag_10:\n    /* \"#utility.yul\":346:423   */\n  0x4e487b7100000000000000000000000000000000000000000000000000000000\n    /* \"#utility.yul\":343:344   */\n  0x00\n    /* \"#utility.yul\":336:424   */\n  mstore\n    /* \"#utility.yul\":443:447   */\n  0x22\n    /* \"#utility.yul\":440:441   */\n  0x04\n    /* \"#utility.yul\":433:448   */\n  mstore\n    /* \"#utility.yul\":467:471   */\n  0x24\n    /* \"#utility.yul\":464:465   */\n  0x00\n    /* \"#utility.yul\":457:472   */\n  revert\n    /* \"#utility.yul\":484:804   */\ntag_11:\n    /* \"#utility.yul\":528:534   */\n  0x00\n    /* \"#utility.yul\":565:566   */\n  0x02\n    /* \"#utility.yul\":559:563   */\n  dup3\n    /* \"#utility.yul\":555:567   */\n  div\n    /* \"#utility.yul\":545:567   */\n  swap1\n  pop\n    /* \"#utility.yul\":612:613   */\n  0x01\n    /* \"#utility.yul\":606:610   */\n  dup3\n    /* \"#utility.yul\":602:614   */\n  and\n    /* \"#utility.yul\":633:651   */\n  dup1\n    /* \"#utility.yul\":623:704   */\n  tag_33\n  jumpi\n    /* \"#utility.yul\":689:693   */\n  0x7f\n    /* \"#utility.yul\":681:687   */\n  dup3\n    /* \"#utility.yul\":677:694   */\n  and\n    /* \"#utility.yul\":667:694   */\n  swap2\n  pop\n    /* \"#utility.yul\":623:704   */\ntag_33:\n    /* \"#utility.yul\":751:753   */\n  0x20\n    /* \"#utility.yul\":743:749   */\n  dup3\n    /* \"#utility.yul\":740:754   */\n  lt\n    /* \"#utility.yul\":720:738   */\n  dup2\n    /* \"#utility.yul\":717:755   */\n  sub\n    /* \"#utility.yul\":714:798   */\n  tag_34\n  jumpi\n    /* \"#utility.yul\":770:788   */\n  tag_35\n  tag_10\n  jump\t// in\ntag_35:\n    /* \"#utility.yul\":714:798   */\ntag_34:\n    /* \"#utility.yul\":535:804   */\n  pop\n    /* \"#utility.yul\":484:804   */\n  swap2\n  swap1\n  pop\n  jump\t// out\n    /* \"#utility.yul\":810:951   */\ntag_12:\n    /* \"#utility.yul\":859:863   */\n  0x00\n    /* \"#utility.yul\":882:885   */\n  dup2\n    /* \"#utility.yul\":874:885   */\n  swap1\n  pop\n    /* \"#utility.yul\":905:908   */\n  dup2\n    /* \"#utility.yul\":902:903   */\n  0x00\n    /* \"#utility.yul\":895:909   */\n  mstore\n    /* \"#utility.yul\":939:943   */\n  0x20\n    /* \"#utility.yul\":936:937   */\n  0x00\n    /* \"#utility.yul\":926:944   */\n  keccak256\n    /* \"#utility.yul\":918:944   */\n  swap1\n  pop\n    /* \"#utility.yul\":810:951   */\n  swap2\n  swap1\n  pop\n  jump\t// out\n    /* \"#utility.yul\":957:1050   */\ntag_13:\n    /* \"#utility.yul\":994:1000   */\n  0x00\n    /* \"#utility.yul\":1041:1043   */\n  0x20\n    /* \"#utility.yul\":1036:1038   */\n  0x1f\n    /* \"#utility.yul\":1029:1034   */\n  dup4\n    /* \"#utility.yul\":1025:1039   */\n  add\n    /* \"#utility.yul\":1021:1044   */\n  div\n    /* \"#utility.yul\":1011:1044   */\n  swap1\n  pop\n    /* \"#utility.yul\":957:1050   */\n  swap2\n  swap1\n  pop\n  jump\t// out\n    /* \"#utility.yul\":1056:1163   */\ntag_14:\n    /* \"#utility.yul\":1100:1108   */\n  0x00\n    /* \"#utility.yul\":1150:1155   */\n  dup3\n    /* \"#utility.yul\":1144:1148   */\n  dup3\n    /* \"#utility.yul\":1140:1156   */\n  shl\n    /* \"#utility.yul\":1119:1156   */\n  swap1\n  pop\n    /* \"#utility.yul\":1056:1163   */\n  swap3\n  swap2\n  pop\n  pop\n  jump\t// out\n    /* \"#utility.yul\":1169:1562   */\ntag_15:\n    /* \"#utility.yul\":1238:1244   */\n  0x00\n    /* \"#utility.yul\":1288:1289   */\n  0x08\n    /* \"#utility.yul\":1276:1286   */\n  dup4\n    /* \"#utility.yul\":1272:1290   */\n  mul\n    /* \"#utility.yul\":1311:1408   */\n  tag_40\n    /* \"#utility.yul\":1341:1407   */\n  0xffffffffffffffffffffffffffffffffffffffffffffffffffffffffffffffff\n    /* \"#utility.yul\":1330:1339   */\n  dup3\n    /* \"#utility.yul\":1311:1408   */\n  tag_14\n  jump\t// in\ntag_40:\n    /* \"#utility.yul\":1429:1468   */\n  tag_41\n    /* \"#utility.yul\":1459:1467   */\n  dup7\n    /* \"#utility.yul\":1448:1457   */\n  dup4\n    /* \"#utility.yul\":1429:1468   */\n  tag_14\n  jump\t// in\ntag_41:\n    /* \"#utility.yul\":1417:1468   */\n  swap6\n  pop\n    /* \"#utility.yul\":1501:1505   */\n  dup1\n    /* \"#utility.yul\":1497:1506   */\n  not\n    /* \"#utility.yul\":1490:1495   */\n  dup5\n    /* \"#utility.yul\":1486:1507   */\n  and\n    /* \"#utility.yul\":1477:1507   */\n  swap4\n  pop\n    /* \"#utility.yul\":1550:1554   */\n  dup1\n    /* \"#utility.yul\":1540:1548   */\n  dup7\n    /* \"#utility.yul\":1536:1555   */\n  and\n    /* \"#utility.yul\":1529:1534   */\n  dup5\n    /* \"#utility.yul\":1526:1556   */\n  or\n    /* \"#utility.yul\":1516:1556   */\n  swap3\n  pop\n    /* \"#utility.yul\":1245:1562   */\n  pop\n  pop\n    /* \"#utility.yul\":1169:1562   */\n  swap4\n  swap3\n  pop\n  pop\n  pop\n  jump\t// out\n    /* \"#utility.yul\":1568:1645   */\ntag_16:\n    /* \"#utility.yul\":1605:1612   */\n  0x00\n    /* \"#utility.yul\":1634:1639   */\n  dup2\n    /* \"#utility.yul\":1623:1639   */\n  swap1\n  pop\n    /* \"#utility.yul\":1568:1645   */\n  swap2\n  swap1\n  pop\n  jump\t// out\n    /* \"#utility.yul\":1651:1711   */\ntag_17:\n    /* \"#utility.yul\":1679:1682   */\n  0x00\n    /* \"#utility.yul\":1700:1705   */\n  dup2\n    /* \"#utility.yul\":1693:1705   */\n  swap1\n  pop\n    /* \"#utility.yul\":1651:1711   */\n  swap2\n  swap1\n  pop\n  jump\t// out\n    /* \"#utility.yul\":1717:1859   */\ntag_18:\n    /* \"#utility.yul\":1767:1776   */\n  0x00\n    /* \"#utility.yul\":1800:1853   */\n  tag_45\n    /* \"#utility.yul\":1818:1852   */\n  tag_46\n    /* \"#utility.yul\":1827:1851   */\n  tag_47\n    /* \"#utility.yul\":1845:1850   */\n  dup5\n    /* \"#utility.yul\":1827:1851   */\n  tag_16\n  jump\t// in\ntag_47:\n    /* \"#utility.yul\":1818:1852   */\n  tag_17\n  jump\t// in\ntag_46:\n    /* \"#utility.yul\":1800:1853   */\n  tag_16\n  jump\t// in\ntag_45:\n    /* \"#utility.yul\":1787:1853   */\n  swap1\n  pop\n    /* \"#utility.yul\":1717:1859   */\n  swap2\n  swap1\n  pop\n  jump\t// out\n    /* \"#utility.yul\":1865:1940   */\ntag_19:\n    /* \"#utility.yul\":1908:1911   */\n  0x00\n    /* \"#utility.yul\":1929:1934   */\n  dup2\n    /* \"#utility.yul\":1922:1934   */\n  swap1\n  pop\n    /* \"#utility.yul\":1865:1940   */\n  swap2\n  swap1\n  pop\n  jump\t// out\n    /* \"#utility.yul\":1946:2215   */\ntag_20:\n    /* \"#utility.yul\":2056:2095   */\n  tag_50\n    /* \"#utility.yul\":2087:2094   */\n  dup4\n    /* \"#utility.yul\":2056:2095   */\n  tag_18\n  jump\t// in\ntag_50:\n    /* \"#utility.yul\":2117:2208   */\n  tag_51\n    /* \"#utility.yul\":2166:2207   */\n  tag_52\n    /* \"#utility.yul\":2190:2206   */\n  dup3\n    /* \"#utility.yul\":2166:2207   */\n  tag_19\n  jump\t// in\ntag_52:\n    /* \"#utility.yul\":2158:2164   */\n  dup5\n    /* \"#utility.yul\":2151:2155   */\n  dup5\n    /* \"#utility.yul\":2145:2156   */\n  sload\n    /* \"#utility.yul\":2117:2208   */\n  tag_15\n  jump\t// in\ntag_51:\n    /* \"#utility.yul\":2111:2115   */\n  dup3\n    /* \"#utility.yul\":2104:2209   */\n  sstore\n    /* \"#utility.yul\":2022:2215   */\n  pop\n    /* \"#utility.yul\":1946:2215   */\n  pop\n  pop\n  pop\n  jump\t// out\n    /* \"#utility.yul\":2221:2294   */\ntag_21:\n    /* \"#utility.yul\":2266:2269   */\n  0x00\n    /* \"#utility.yul\":2221:2294   */\n  swap1\n  jump\t// out\n    /* \"#utility.yul\":2300:2489   */\ntag_22:\n    /* \"#utility.yul\":2377:2409   */\n  tag_55\n  tag_21\n  jump\t// in\ntag_55:\n    /* \"#utility.yul\":2418:2483   */\n  tag_56\n    /* \"#utility.yul\":2476:2482   */\n  dup2\n    /* \"#utility.yul\":2468:2474   */\n  dup5\n    /* \"#utility.yul\":2462:2466   */\n  dup5\n    /* \"#utility.yul\":2418:2483   */\n  tag_20\n  jump\t// in\ntag_56:\n    /* \"#utility.yul\":2353:2489   */\n  pop\n    /* \"#utility.yul\":2300:2489   */\n  pop\n  pop\n  jump\t// out\n    /* \"#utility.yul\":2495:2681   */\ntag_23:\n    /* \"#utility.yul\":2555:2675   */\ntag_58:\n    /* \"#utility.yul\":2572:2575   */\n  dup2\n    /* \"#utility.yul\":2565:2570   */\n  dup2\n    /* \"#utility.yul\":2562:2576   */\n  lt\n    /* \"#utility.yul\":2555:2675   */\n  iszero\n  tag_60\n  jumpi\n    /* \"#utility.yul\":2626:2665   */\n  tag_61\n    /* \"#utility.yul\":2663:2664   */\n  0x00\n    /* \"#utility.yul\":2656:2661   */\n  dup3\n    /* \"#utility.yul\":2626:2665   */\n  tag_22\n  jump\t// in\ntag_61:\n    /* \"#utility.yul\":2599:2600   */\n  0x01\n    /* \"#utility.yul\":2592:2597   */\n  dup2\n    /* \"#utility.yul\":2588:2601   */\n  add\n    /* \"#utility.yul\":2579:2601   */\n  swap1\n  pop\n    /* \"#utility.yul\":2555:2675   */\n  jump(tag_58)\ntag_60:\n    /* \"#utility.yul\":2495:2681   */\n  pop\n  pop\n  jump\t// out\n    /* \"#utility.yul\":2687:3230   */\ntag_24:\n    /* \"#utility.yul\":2788:2790   */\n  0x1f\n    /* \"#utility.yul\":2783:2786   */\n  dup3\n    /* \"#utility.yul\":2780:2791   */\n  gt\n    /* \"#utility.yul\":2777:3223   */\n  iszero\n  tag_63\n  jumpi\n    /* \"#utility.yul\":2822:2860   */\n  tag_64\n    /* \"#utility.yul\":2854:2859   */\n  dup2\n    /* \"#utility.yul\":2822:2860   */\n  tag_12\n  jump\t// in\ntag_64:\n    /* \"#utility.yul\":2906:2935   */\n  tag_65\n    /* \"#utility.yul\":2924:2934   */\n  dup5\n    /* \"#utility.yul\":2906:2935   */\n  tag_13\n  jump\t// in\ntag_65:\n    /* \"#utility.yul\":2896:2904   */\n  dup2\n    /* \"#utility.yul\":2892:2936   */\n  add\n    /* \"#utility.yul\":3089:3091   */\n  0x20\n    /* \"#utility.yul\":3077:3087   */\n  dup6\n    /* \"#utility.yul\":3074:3092   */\n  lt\n    /* \"#utility.yul\":3071:3120   */\n  iszero\n  tag_66\n  jumpi\n    /* \"#utility.yul\":3110:3118   */\n  dup2\n    /* \"#utility.yul\":3095:3118   */\n  swap1\n  pop\n    /* \"#utility.yul\":3071:3120   */\ntag_66:\n    /* \"#utility.yul\":3133:3213   */\n  tag_67\n    /* \"#utility.yul\":3189:3211   */\n  tag_68\n    /* \"#utility.yul\":3207:3210   */\n  dup6\n    /* \"#utility.yul\":3189:3211   */\n  tag_13\n  jump\t// in\ntag_68:\n    /* \"#utility.yul\":3179:3187   */\n  dup4\n    /* \"#utility.yul\":3175:3212   */\n  add\n    /* \"#utility.yul\":3162:3173   */\n  dup3\n    /* \"#utility.yul\":3133:3213   */\n  tag_23\n  jump\t// in\ntag_67:\n    /* \"#utility.yul\":2792:3223   */\n  pop\n  pop\n    /* \"#utility.yul\":2777:3223   */\ntag_63:\n    /* \"#utility.yul\":2687:3230   */\n  pop\n  pop\n  pop\n  jump\t// out\n    /* \"#utility.yul\":3236:3353   */\ntag_25:\n    /* \"#utility.yul\":3290:3298   */\n  0x00\n    /* \"#utility.yul\":3340:3345   */\n  dup3\n    /* \"#utility.yul\":3334:3338   */\n  dup3\n    /* \"#utility.yul\":3330:3346   */\n  shr\n    /* \"#utility.yul\":3309:3346   */\n  swap1\n  pop\n    /* \"#utility.yul\":3236:3353   */\n  swap3\n  swap2\n  pop\n  pop\n  jump\t// out\n    /* \"#utility.yul\":3359:3528   */\ntag_26:\n    /* \"#utility.yul\":3403:3409   */\n  0x00\n    /* \"#utility.yul\":3436:3487   */\n  tag_71\n    /* \"#utility.yul\":3484:3485   */\n  0x00\n    /* \"#utility.yul\":3480:3486   */\n  not\n    /* \"#utility.yul\":3472:3477   */\n  dup5\n    /* \"#utility.yul\":3469:3470   */\n  0x08\n    /* \"#utility.yul\":3465:3478   */\n  mul\n    /* \"#utility.yul\":3436:3487   */\n  tag_25\n  jump\t// in\ntag_71:\n    /* \"#utility.yul\":3432:3488   */\n  not\n    /* \"#utility.yul\":3517:3521   */\n  dup1\n    /* \"#utility.yul\":3511:3515   */\n  dup4\n    /* \"#utility.yul\":3507:3522   */\n  and\n    /* \"#utility.yul\":3497:3522   */\n  swap2\n  pop\n    /* \"#utility.yul\":3410:3528   */\n  pop\n    /* \"#utility.yul\":3359:3528   */\n  swap3\n  swap2\n  pop\n  pop\n  jump\t// out\n    /* \"#utility.yul\":3533:3828   */\ntag_27:\n    /* \"#utility.yul\":3609:3613   */\n  0x00\n    /* \"#utility.yul\":3755:3784   */\n  tag_73\n    /* \"#utility.yul\":3780:3783   */\n  dup4\n    /* \"#utility.yul\":3774:3778   */\n  dup4\n    /* \"#utility.yul\":3755:3784   */\n  tag_26\n  jump\t// in\ntag_73:\n    /* \"#utility.yul\":3747:3784   */\n  swap2\n  pop\n    /* \"#utility.yul\":3817:3820   */\n  dup3\n    /* \"#utility.yul\":3814:3815   */\n  0x02\n    /* \"#utility.yul\":3810:3821   */\n  mul\n    /* \"#utility.yul\":3804:3808   */\n  dup3\n    /* \"#utility.yul\":3801:3822   */\n  or\n    /* \"#utility.yul\":3793:3822   */\n  swap1\n  pop\n    /* \"#utility.yul\":3533:3828   */\n  swap3\n  swap2\n  pop\n  pop\n  jump\t// out\n    /* \"#utility.yul\":3833:5228   */\ntag_2:\n    /* \"#utility.yul\":3950:3987   */\n  tag_75\n    /* \"#utility.yul\":3983:3986   */\n  dup3\n    /* \"#utility.yul\":3950:3987   */\n  tag_8\n  jump\t// in\ntag_75:\n    /* \"#utility.yul\":4052:4070   */\n  0xffffffffffffffff\n    /* \"#utility.yul\":4044:4050   */\n  dup2\n    /* \"#utility.yul\":4041:4071   */\n  gt\n    /* \"#utility.yul\":4038:4094   */\n  iszero\n  tag_76\n  jumpi\n    /* \"#utility.yul\":4074:4092   */\n  tag_77\n  tag_9\n  jump\t// in\ntag_77:\n    /* \"#utility.yul\":4038:4094   */\ntag_76:\n    /* \"#utility.yul\":4118:4156   */\n  tag_78\n    /* \"#utility.yul\":4150:4154   */\n  dup3\n    /* \"#utility.yul\":4144:4155   */\n  sload\n    /* \"#utility.yul\":4118:4156   */\n  tag_11\n  jump\t// in\ntag_78:\n    /* \"#utility.yul\":4203:4270   */\n  tag_79\n    /* \"#utility.yul\":4263:4269   */\n  dup3\n    /* \"#utility.yul\":4255:4261   */\n  dup3\n    /* \"#utility.yul\":4249:4253   */\n  dup6\n    /* \"#utility.yul\":4203:4270   */\n  tag_24\n  jump\t// in\ntag_79:\n    /* \"#utility.yul\":4297:4298   */\n  0x00\n    /* \"#utility.yul\":4321:4325   */\n  0x20\n    /* \"#utility.yul\":4308:4325   */\n  swap1\n  pop\n    /* \"#utility.yul\":4353:4355   */\n  0x1f\n    /* \"#utility.yul\":4345:4351   */\n  dup4\n    /* \"#utility.yul\":4342:4356   */\n  gt\n    /* \"#utility.yul\":4370:4371   */\n  0x01\n    /* \"#utility.yul\":4365:4983   */\n  dup2\n  eq\n  tag_81\n  jumpi\n    /* \"#utility.yul\":5027:5028   */\n  0x00\n    /* \"#utility.yul\":5044:5050   */\n  dup5\n    /* \"#utility.yul\":5041:5118   */\n  iszero\n  tag_82\n  jumpi\n    /* \"#utility.yul\":5093:5102   */\n  dup3\n    /* \"#utility.yul\":5088:5091   */\n  dup8\n    /* \"#utility.yul\":5084:5103   */\n  add\n    /* \"#utility.yul\":5078:5104   */\n  mload\n    /* \"#utility.yul\":5069:5104   */\n  swap1\n  pop\n    /* \"#utility.yul\":5041:5118   */\ntag_82:\n    /* \"#utility.yul\":5144:5211   */\n  tag_83\n    /* \"#utility.yul\":5204:5210   */\n  dup6\n    /* \"#utility.yul\":5197:5202   */\n  dup3\n    /* \"#utility.yul\":5144:5211   */\n  tag_27\n  jump\t// in\ntag_83:\n    /* \"#utility.yul\":5138:5142   */\n  dup7\n    /* \"#utility.yul\":5131:5212   */\n  sstore\n    /* \"#utility.yul\":5000:5222   */\n  pop\n    /* \"#utility.yul\":4335:5222   */\n  jump(tag_80)\n    /* \"#utility.yul\":4365:4983   */\ntag_81:\n    /* \"#utility.yul\":4417:4421   */\n  0x1f\n    /* \"#utility.yul\":4413:4422   */\n  not\n    /* \"#utility.yul\":4405:4411   */\n  dup5\n    /* \"#utility.yul\":4401:4423   */\n  and\n    /* \"#utility.yul\":4451:4488   */\n  tag_84\n    /* \"#utility.yul\":4483:4487   */\n  dup7\n    /* \"#utility.yul\":4451:4488   */\n  tag_12\n  jump\t// in\ntag_84:\n    /* \"#utility.yul\":4510:4511   */\n  0x00\n    /* \"#utility.yul\":4524:4732   */\ntag_85:\n    /* \"#utility.yul\":4538:4545   */\n  dup3\n    /* \"#utility.yul\":4535:4536   */\n  dup2\n    /* \"#utility.yul\":4532:4546   */\n  lt\n    /* \"#utility.yul\":4524:4732   */\n  iszero\n  tag_87\n  jumpi\n    /* \"#utility.yul\":4617:4626   */\n  dup5\n    /* \"#utility.yul\":4612:4615   */\n  dup10\n    /* \"#utility.yul\":4608:4627   */\n  add\n    /* \"#utility.yul\":4602:4628   */\n  mload\n    /* \"#utility.yul\":4594:4600   */\n  dup3\n    /* \"#utility.yul\":4587:4629   */\n  sstore\n    /* \"#utility.yul\":4668:4669   */\n  0x01\n    /* \"#utility.yul\":4660:4666   */\n  dup3\n    /* \"#utility.yul\":4656:4670   */\n  add\n    /* \"#utility.yul\":4646:4670   */\n  swap2\n  pop\n    /* \"#utility.yul\":4715:4717   */\n  0x20\n    /* \"#utility.yul\":4704:4713   */\n  dup6\n    /* \"#utility.yul\":4700:4718   */\n  add\n    /* \"#utility.yul\":4687:4718   */\n  swap5\n  pop\n    /* \"#utility.yul\":4561:4565   */\n  0x20\n    /* \"#utility.yul\":4558:4559   */\n  dup2\n    /* \"#utility.yul\":4554:4566   */\n  add\n    /* \"#utility.yul\":4549:4566   */\n  swap1\n  pop\n    /* \"#utility.yul\":4524:4732   */\n  jump(tag_85)\ntag_87:\n    /* \"#utility.yul\":4760:4766   */\n  dup7\n    /* \"#utility.yul\":4751:4758   */\n  dup4\n    /* \"#utility.yul\":4748:4767   */\n  lt\n    /* \"#utility.yul\":4745:4924   */\n  iszero\n  tag_88\n  jumpi\n    /* \"#utility.yul\":4818:4827   */\n  dup5\n    /* \"#utility.yul\":4813:4816   */\n  dup10\n    /* \"#utility.yul\":4809:4828   */\n  add\n    /* \"#utility.yul\":4803:4829   */\n  mload\n    /* \"#utility.yul\":4861:4909   */\n  tag_89\n    /* \"#utility.yul\":4903:4907   */\n  0x1f\n    /* \"#utility.yul\":4895:4901   */\n  dup10\n    /* \"#utility.yul\":4891:4908   */\n  and\n    /* \"#utility.yul\":4880:4889   */\n  dup3\n    /* \"#utility.yul\":4861:4909   */\n  tag_26\n  jump\t// in\ntag_89:\n    /* \"#utility.yul\":4853:4859   */\n  dup4\n    /* \"#utility.yul\":4846:4910   */\n  sstore\n    /* \"#utility.yul\":4768:4924   */\n  pop\n    /* \"#utility.yul\":4745:4924   */\ntag_88:\n    /* \"#utility.yul\":4970:4971   */\n  0x01\n    /* \"#utility.yul\":4966:4967   */\n  0x02\n    /* \"#utility.yul\":4958:4964   */\n  dup9\n    /* \"#utility.yul\":4954:4968   */\n  mul\n    /* \"#utility.yul\":4950:4972   */\n  add\n    /* \"#utility.yul\":4944:4948   */\n  dup9\n    /* \"#utility.yul\":4937:4973   */\n  sstore\n    /* \"#utility.yul\":4372:4983   */\n  pop\n  pop\n  pop\n    /* \"#utility.yul\":4335:5222   */\ntag_80:\n  pop\n    /* \"#utility.yul\":3925:5228   */\n  pop\n  pop\n  pop\n    /* \"#utility.yul\":3833:5228   */\n  pop\n  pop\n  jump\t// out\n    /* \"Database/Database/Description.sol\":61:4174  contract Description {... */\ntag_7:\n  dataSize(sub_0)\n  dup1\n  dataOffset(sub_0)\n  0x00\n  codecopy\n  0x00\n  return\nstop\n\nsub_0: assembly {\n        /* \"Database/Database/Description.sol\":61:4174  contract Description {... */\n      mstore(0x40, 0x80)\n      callvalue\n      dup1\n      iszero\n      tag_1\n      jumpi\n      0x00\n      dup1\n      revert\n    tag_1:\n      pop\n      jumpi(tag_2, lt(calldatasize, 0x04))\n      shr(0xe0, calldataload(0x00))\n      dup1\n      0x540c74ec\n      gt\n      tag_10\n      jumpi\n      dup1\n      0x540c74ec\n      eq\n      tag_6\n      jumpi\n      dup1\n      0x697d37f7\n      eq\n      tag_7\n      jumpi\n      dup1\n      0xe28afdfc\n      eq\n      tag_8\n      jumpi\n      dup1\n      0xef1a5668\n      eq\n      tag_9\n      jumpi\n      jump(tag_2)\n    tag_10:\n      dup1\n      0x06fdde03\n      eq\n      tag_3\n      jumpi\n      dup1\n      0x1d6607b7\n      eq\n      tag_4\n      jumpi\n      dup1\n      0x330ba56a\n      eq\n      tag_5\n      jumpi\n    tag_2:\n      0x00\n      dup1\n      revert\n        /* \"Database/Database/Description.sol\":89:125  string public name = 'Documentation' */\n    tag_3:\n      tag_11\n      tag_12\n      jump\t// in\n    tag_11:\n      mload(0x40)\n      tag_13\n      swap2\n      swap1\n      tag_14\n      jump\t// in\n    tag_13:\n      mload(0x40)\n      dup1\n      swap2\n      sub\n      swap1\n      return\n        /* \"Database/Database/Description.sol\":3092:3670  function SetAntiqueIDByDescriptionID... */\n    tag_4:\n      tag_15\n      0x04\n      dup1\n      calldatasize\n      sub\n      dup2\n      add\n      swap1\n      tag_16\n      swap2\n      swap1\n      tag_17\n      jump\t// in\n    tag_16:\n      tag_18\n      jump\t// in\n    tag_15:\n      stop\n        /* \"Database/Database/Description.sol\":3710:4165  function ValidateDescriptionID ... */\n    tag_5:\n      tag_19\n      0x04\n      dup1\n      calldatasize\n      sub\n      dup2\n      add\n      swap1\n      tag_20\n      swap2\n      swap1\n      tag_21\n      jump\t// in\n    tag_20:\n      tag_22\n      jump\t// in\n    tag_19:\n      mload(0x40)\n      tag_23\n      swap2\n      swap1\n      tag_24\n      jump\t// in\n    tag_23:\n      mload(0x40)\n      dup1\n      swap2\n      sub\n      swap1\n      return\n        /* \"Database/Database/Description.sol\":2112:2766  function UpdateDescriptionMaterials ... */\n    tag_6:\n      tag_25\n      0x04\n      dup1\n      calldatasize\n      sub\n      dup2\n      add\n      swap1\n      tag_26\n      swap2\n      swap1\n      tag_27\n      jump\t// in\n    tag_26:\n      tag_28\n      jump\t// in\n    tag_25:\n      stop\n        /* \"Database/Database/Description.sol\":1044:2054  function  AddDescription... */\n    tag_7:\n      tag_29\n      0x04\n      dup1\n      calldatasize\n      sub\n      dup2\n      add\n      swap1\n      tag_30\n      swap2\n      swap1\n      tag_27\n      jump\t// in\n    tag_30:\n      tag_31\n      jump\t// in\n    tag_29:\n      mload(0x40)\n      tag_32\n      swap2\n      swap1\n      tag_33\n      jump\t// in\n    tag_32:\n      mload(0x40)\n      dup1\n      swap2\n      sub\n      swap1\n      return\n        /* \"Database/Database/Description.sol\":132:167  uint256 public descriptionCount = 0 */\n    tag_8:\n      tag_34\n      tag_35\n      jump\t// in\n    tag_34:\n      mload(0x40)\n      tag_36\n      swap2\n      swap1\n      tag_33\n      jump\t// in\n    tag_36:\n      mload(0x40)\n      dup1\n      swap2\n      sub\n      swap1\n      return\n        /* \"Database/Database/Description.sol\":2803:3042  function GetDescriptionByID... */\n    tag_9:\n      tag_37\n      0x04\n      dup1\n      calldatasize\n      sub\n      dup2\n      add\n      swap1\n      tag_38\n      swap2\n      swap1\n      tag_21\n      jump\t// in\n    tag_38:\n      tag_39\n      jump\t// in\n    tag_37:\n      mload(0x40)\n      tag_40\n      swap2\n      swap1\n      tag_41\n      jump\t// in\n    tag_40:\n      mload(0x40)\n      dup1\n      swap2\n      sub\n      swap1\n      return\n        /* \"Database/Database/Description.sol\":89:125  string public name = 'Documentation' */\n    tag_12:\n      0x00\n      dup1\n      sload\n      tag_42\n      swap1\n      tag_43\n      jump\t// in\n    tag_42:\n      dup1\n      0x1f\n      add\n      0x20\n      dup1\n      swap2\n      div\n      mul\n      0x20\n      add\n      mload(0x40)\n      swap1\n      dup2\n      add\n      0x40\n      mstore\n      dup1\n      swap3\n      swap2\n      swap1\n      dup2\n      dup2\n      mstore\n      0x20\n      add\n      dup3\n      dup1\n      sload\n      tag_44\n      swap1\n      tag_43\n      jump\t// in\n    tag_44:\n      dup1\n      iszero\n      tag_45\n      jumpi\n      dup1\n      0x1f\n      lt\n      tag_46\n      jumpi\n      0x0100\n      dup1\n      dup4\n      sload\n      div\n      mul\n      dup4\n      mstore\n      swap2\n      0x20\n      add\n      swap2\n      jump(tag_45)\n    tag_46:\n      dup3\n      add\n      swap2\n      swap1\n      0x00\n      mstore\n      keccak256(0x00, 0x20)\n      swap1\n    tag_47:\n      dup2\n      sload\n      dup2\n      mstore\n      swap1\n      0x01\n      add\n      swap1\n      0x20\n      add\n      dup1\n      dup4\n      gt\n      tag_47\n      jumpi\n      dup3\n      swap1\n      sub\n      0x1f\n      and\n      dup3\n      add\n      swap2\n    tag_45:\n      pop\n      pop\n      pop\n      pop\n      pop\n      dup2\n      jump\t// out\n        /* \"Database/Database/Description.sol\":3092:3670  function SetAntiqueIDByDescriptionID... */\n    tag_18:\n        /* \"Database/Database/Description.sol\":3323:3327  true */\n      0x01\n        /* \"Database/Database/Description.sol\":3282:3327  ValidateDescriptionID(_descriptionID) == true */\n      iszero\n      iszero\n        /* \"Database/Database/Description.sol\":3282:3319  ValidateDescriptionID(_descriptionID) */\n      tag_49\n        /* \"Database/Database/Description.sol\":3304:3318  _descriptionID */\n      dup5\n        /* \"Database/Database/Description.sol\":3282:3303  ValidateDescriptionID */\n      tag_22\n        /* \"Database/Database/Description.sol\":3282:3319  ValidateDescriptionID(_descriptionID) */\n      jump\t// in\n    tag_49:\n        /* \"Database/Database/Description.sol\":3282:3327  ValidateDescriptionID(_descriptionID) == true */\n      iszero\n      iszero\n      eq\n        /* \"Database/Database/Description.sol\":3274:3328  require(ValidateDescriptionID(_descriptionID) == true) */\n      tag_50\n      jumpi\n      0x00\n      dup1\n      revert\n    tag_50:\n        /* \"Database/Database/Description.sol\":3339:3380  DescriptionObject memory _descriptionData */\n      0x00\n        /* \"Database/Database/Description.sol\":3383:3397  descriptionMap */\n      0x02\n        /* \"Database/Database/Description.sol\":3383:3413  descriptionMap[_descriptionID] */\n      0x00\n        /* \"Database/Database/Description.sol\":3398:3412  _descriptionID */\n      dup6\n        /* \"Database/Database/Description.sol\":3383:3413  descriptionMap[_descriptionID] */\n      dup2\n      mstore\n      0x20\n      add\n      swap1\n      dup2\n      mstore\n      0x20\n      add\n      0x00\n      keccak256\n        /* \"Database/Database/Description.sol\":3339:3413  DescriptionObject memory _descriptionData = descriptionMap[_descriptionID] */\n      mload(0x40)\n      dup1\n      0xa0\n      add\n      0x40\n      mstore\n      swap1\n      dup2\n      0x00\n      dup3\n      add\n      sload\n      dup2\n      mstore\n      0x20\n      add\n      0x01\n      dup3\n      add\n      sload\n      dup2\n      mstore\n      0x20\n      add\n      0x02\n      dup3\n      add\n      dup1\n      sload\n      tag_51\n      swap1\n      tag_43\n      jump\t// in\n    tag_51:\n      dup1\n      0x1f\n      add\n      0x20\n      dup1\n      swap2\n      div\n      mul\n      0x20\n      add\n      mload(0x40)\n      swap1\n      dup2\n      add\n      0x40\n      mstore\n      dup1\n      swap3\n      swap2\n      swap1\n      dup2\n      dup2\n      mstore\n      0x20\n      add\n      dup3\n      dup1\n      sload\n      tag_52\n      swap1\n      tag_43\n      jump\t// in\n    tag_52:\n      dup1\n      iszero\n      tag_53\n      jumpi\n      dup1\n      0x1f\n      lt\n      tag_54\n      jumpi\n      0x0100\n      dup1\n      dup4\n      sload\n      div\n      mul\n      dup4\n      mstore\n      swap2\n      0x20\n      add\n      swap2\n      jump(tag_53)\n    tag_54:\n      dup3\n      add\n      swap2\n      swap1\n      0x00\n      mstore\n      keccak256(0x00, 0x20)\n      swap1\n    tag_55:\n      dup2\n      sload\n      dup2\n      mstore\n      swap1\n      0x01\n      add\n      swap1\n      0x20\n      add\n      dup1\n      dup4\n      gt\n      tag_55\n      jumpi\n      dup3\n      swap1\n      sub\n      0x1f\n      and\n      dup3\n      add\n      swap2\n    tag_53:\n      pop\n      pop\n      pop\n      pop\n      pop\n      dup2\n      mstore\n      0x20\n      add\n      0x03\n      dup3\n      add\n      sload\n      dup2\n      mstore\n      0x20\n      add\n      0x04\n      dup3\n      add\n      0x00\n      swap1\n      sload\n      swap1\n      0x0100\n      exp\n      swap1\n      div\n      0xffffffffffffffffffffffffffffffffffffffff\n      and\n      0xffffffffffffffffffffffffffffffffffffffff\n      and\n      0xffffffffffffffffffffffffffffffffffffffff\n      and\n      dup2\n      mstore\n      pop\n      pop\n      swap1\n      pop\n        /* \"Database/Database/Description.sol\":3453:3466  _newAntiqueID */\n      dup3\n        /* \"Database/Database/Description.sol\":3424:3440  _descriptionData */\n      dup2\n        /* \"Database/Database/Description.sol\":3424:3450  _descriptionData.antiqueID */\n      0x20\n      add\n        /* \"Database/Database/Description.sol\":3424:3466  _descriptionData.antiqueID = _newAntiqueID */\n      dup2\n      dup2\n      mstore\n      pop\n      pop\n        /* \"Database/Database/Description.sol\":3546:3562  _descriptionData */\n      dup1\n        /* \"Database/Database/Description.sol\":3513:3527  descriptionMap */\n      0x02\n        /* \"Database/Database/Description.sol\":3513:3543  descriptionMap[_descriptionID] */\n      0x00\n        /* \"Database/Database/Description.sol\":3528:3542  _descriptionID */\n      dup7\n        /* \"Database/Database/Description.sol\":3513:3543  descriptionMap[_descriptionID] */\n      dup2\n      mstore\n      0x20\n      add\n      swap1\n      dup2\n      mstore\n      0x20\n      add\n      0x00\n      keccak256\n        /* \"Database/Database/Description.sol\":3513:3562  descriptionMap[_descriptionID] = _descriptionData */\n      0x00\n      dup3\n      add\n      mload\n      dup2\n      0x00\n      add\n      sstore\n      0x20\n      dup3\n      add\n      mload\n      dup2\n      0x01\n      add\n      sstore\n      0x40\n      dup3\n      add\n      mload\n      dup2\n      0x02\n      add\n      swap1\n      dup2\n      tag_56\n      swap2\n      swap1\n      tag_57\n      jump\t// in\n    tag_56:\n      pop\n      0x60\n      dup3\n      add\n      mload\n      dup2\n      0x03\n      add\n      sstore\n      0x80\n      dup3\n      add\n      mload\n      dup2\n      0x04\n      add\n      exp(0x0100, 0x00)\n      dup2\n      sload\n      dup2\n      0xffffffffffffffffffffffffffffffffffffffff\n      mul\n      not\n      and\n      swap1\n      dup4\n      0xffffffffffffffffffffffffffffffffffffffff\n      and\n      mul\n      or\n      swap1\n      sstore\n      pop\n      swap1\n      pop\n      pop\n        /* \"Database/Database/Description.sol\":3578:3662  setAntiqueIDByDescriptionID (_descriptionID,_newAntiqueID,block.timestamp,_uploader) */\n      0x99ceadde65af29c4045d9fdce70f3cfadec0a1912c8f4c6646f3c94eca2a8348\n        /* \"Database/Database/Description.sol\":3607:3621  _descriptionID */\n      dup5\n        /* \"Database/Database/Description.sol\":3622:3635  _newAntiqueID */\n      dup5\n        /* \"Database/Database/Description.sol\":3636:3651  block.timestamp */\n      timestamp\n        /* \"Database/Database/Description.sol\":3652:3661  _uploader */\n      dup6\n        /* \"Database/Database/Description.sol\":3578:3662  setAntiqueIDByDescriptionID (_descriptionID,_newAntiqueID,block.timestamp,_uploader) */\n      mload(0x40)\n      tag_58\n      swap5\n      swap4\n      swap3\n      swap2\n      swap1\n      tag_59\n      jump\t// in\n    tag_58:\n      mload(0x40)\n      dup1\n      swap2\n      sub\n      swap1\n      log1\n        /* \"Database/Database/Description.sol\":3263:3670  {... */\n      pop\n        /* \"Database/Database/Description.sol\":3092:3670  function SetAntiqueIDByDescriptionID... */\n      pop\n      pop\n      pop\n      jump\t// out\n        /* \"Database/Database/Description.sol\":3710:4165  function ValidateDescriptionID ... */\n    tag_22:\n        /* \"Database/Database/Description.sol\":3795:3799  bool */\n      0x00\n        /* \"Database/Database/Description.sol\":3839:3840  0 */\n      dup1\n        /* \"Database/Database/Description.sol\":3821:3835  _descriptionID */\n      dup3\n        /* \"Database/Database/Description.sol\":3821:3840  _descriptionID <= 0 */\n      gt\n      iszero\n        /* \"Database/Database/Description.sol\":3821:3877  _descriptionID <= 0 || _descriptionID > descriptionCount */\n      dup1\n      tag_61\n      jumpi\n      pop\n        /* \"Database/Database/Description.sol\":3861:3877  descriptionCount */\n      sload(0x01)\n        /* \"Database/Database/Description.sol\":3844:3858  _descriptionID */\n      dup3\n        /* \"Database/Database/Description.sol\":3844:3877  _descriptionID > descriptionCount */\n      gt\n        /* \"Database/Database/Description.sol\":3821:3877  _descriptionID <= 0 || _descriptionID > descriptionCount */\n    tag_61:\n        /* \"Database/Database/Description.sol\":3817:3927  if (_descriptionID <= 0 || _descriptionID > descriptionCount)... */\n      iszero\n      tag_62\n      jumpi\n        /* \"Database/Database/Description.sol\":3910:3915  false */\n      0x00\n        /* \"Database/Database/Description.sol\":3903:3915  return false */\n      swap1\n      pop\n      jump(tag_60)\n        /* \"Database/Database/Description.sol\":3817:3927  if (_descriptionID <= 0 || _descriptionID > descriptionCount)... */\n    tag_62:\n        /* \"Database/Database/Description.sol\":4152:4156  true */\n      0x01\n        /* \"Database/Database/Description.sol\":4145:4156  return true */\n      swap1\n      pop\n        /* \"Database/Database/Description.sol\":3710:4165  function ValidateDescriptionID ... */\n    tag_60:\n      swap2\n      swap1\n      pop\n      jump\t// out\n        /* \"Database/Database/Description.sol\":2112:2766  function UpdateDescriptionMaterials ... */\n    tag_28:\n        /* \"Database/Database/Description.sol\":2329:2330  0 */\n      0x00\n        /* \"Database/Database/Description.sol\":2312:2326  _descriptionID */\n      dup4\n        /* \"Database/Database/Description.sol\":2312:2330  _descriptionID > 0 */\n      gt\n        /* \"Database/Database/Description.sol\":2312:2368  _descriptionID > 0 && _descriptionID <= descriptionCount */\n      dup1\n      iszero\n      tag_64\n      jumpi\n      pop\n        /* \"Database/Database/Description.sol\":2352:2368  descriptionCount */\n      sload(0x01)\n        /* \"Database/Database/Description.sol\":2334:2348  _descriptionID */\n      dup4\n        /* \"Database/Database/Description.sol\":2334:2368  _descriptionID <= descriptionCount */\n      gt\n      iszero\n        /* \"Database/Database/Description.sol\":2312:2368  _descriptionID > 0 && _descriptionID <= descriptionCount */\n    tag_64:\n        /* \"Database/Database/Description.sol\":2304:2369  require(_descriptionID > 0 && _descriptionID <= descriptionCount) */\n      tag_65\n      jumpi\n      0x00\n      dup1\n      revert\n    tag_65:\n        /* \"Database/Database/Description.sol\":2425:2426  0 */\n      0x00\n        /* \"Database/Database/Description.sol\":2395:2414  _newMaterialCreated */\n      dup3\n        /* \"Database/Database/Description.sol\":2389:2422  bytes(_newMaterialCreated).length */\n      mload\n        /* \"Database/Database/Description.sol\":2389:2426  bytes(_newMaterialCreated).length > 0 */\n      gt\n        /* \"Database/Database/Description.sol\":2380:2427  require (bytes(_newMaterialCreated).length > 0) */\n      tag_66\n      jumpi\n      0x00\n      dup1\n      revert\n    tag_66:\n        /* \"Database/Database/Description.sol\":2467:2468  0 */\n      0x00\n        /* \"Database/Database/Description.sol\":2446:2469  _uploader != address(0) */\n      0xffffffffffffffffffffffffffffffffffffffff\n      and\n        /* \"Database/Database/Description.sol\":2446:2455  _uploader */\n      dup2\n        /* \"Database/Database/Description.sol\":2446:2469  _uploader != address(0) */\n      0xffffffffffffffffffffffffffffffffffffffff\n      and\n      sub\n        /* \"Database/Database/Description.sol\":2438:2470  require(_uploader != address(0)) */\n      tag_67\n      jumpi\n      0x00\n      dup1\n      revert\n    tag_67:\n        /* \"Database/Database/Description.sol\":2481:2518  DescriptionObject memory _description */\n      0x00\n        /* \"Database/Database/Description.sol\":2521:2535  descriptionMap */\n      0x02\n        /* \"Database/Database/Description.sol\":2521:2551  descriptionMap[_descriptionID] */\n      0x00\n        /* \"Database/Database/Description.sol\":2536:2550  _descriptionID */\n      dup6\n        /* \"Database/Database/Description.sol\":2521:2551  descriptionMap[_descriptionID] */\n      dup2\n      mstore\n      0x20\n      add\n      swap1\n      dup2\n      mstore\n      0x20\n      add\n      0x00\n      keccak256\n        /* \"Database/Database/Description.sol\":2481:2551  DescriptionObject memory _description = descriptionMap[_descriptionID] */\n      mload(0x40)\n      dup1\n      0xa0\n      add\n      0x40\n      mstore\n      swap1\n      dup2\n      0x00\n      dup3\n      add\n      sload\n      dup2\n      mstore\n      0x20\n      add\n      0x01\n      dup3\n      add\n      sload\n      dup2\n      mstore\n      0x20\n      add\n      0x02\n      dup3\n      add\n      dup1\n      sload\n      tag_68\n      swap1\n      tag_43\n      jump\t// in\n    tag_68:\n      dup1\n      0x1f\n      add\n      0x20\n      dup1\n      swap2\n      div\n      mul\n      0x20\n      add\n      mload(0x40)\n      swap1\n      dup2\n      add\n      0x40\n      mstore\n      dup1\n      swap3\n      swap2\n      swap1\n      dup2\n      dup2\n      mstore\n      0x20\n      add\n      dup3\n      dup1\n      sload\n      tag_69\n      swap1\n      tag_43\n      jump\t// in\n    tag_69:\n      dup1\n      iszero\n      tag_70\n      jumpi\n      dup1\n      0x1f\n      lt\n      tag_71\n      jumpi\n      0x0100\n      dup1\n      dup4\n      sload\n      div\n      mul\n      dup4\n      mstore\n      swap2\n      0x20\n      add\n      swap2\n      jump(tag_70)\n    tag_71:\n      dup3\n      add\n      swap2\n      swap1\n      0x00\n      mstore\n      keccak256(0x00, 0x20)\n      swap1\n    tag_72:\n      dup2\n      sload\n      dup2\n      mstore\n      swap1\n      0x01\n      add\n      swap1\n      0x20\n      add\n      dup1\n      dup4\n      gt\n      tag_72\n      jumpi\n      dup3\n      swap1\n      sub\n      0x1f\n      and\n      dup3\n      add\n      swap2\n    tag_70:\n      pop\n      pop\n      pop\n      pop\n      pop\n      dup2\n      mstore\n      0x20\n      add\n      0x03\n      dup3\n      add\n      sload\n      dup2\n      mstore\n      0x20\n      add\n      0x04\n      dup3\n      add\n      0x00\n      swap1\n      sload\n      swap1\n      0x0100\n      exp\n      swap1\n      div\n      0xffffffffffffffffffffffffffffffffffffffff\n      and\n      0xffffffffffffffffffffffffffffffffffffffff\n      and\n      0xffffffffffffffffffffffffffffffffffffffff\n      and\n      dup2\n      mstore\n      pop\n      pop\n      swap1\n      pop\n        /* \"Database/Database/Description.sol\":2593:2612  _newMaterialCreated */\n      dup3\n        /* \"Database/Database/Description.sol\":2562:2574  _description */\n      dup2\n        /* \"Database/Database/Description.sol\":2562:2590  _description.materialCreated */\n      0x40\n      add\n        /* \"Database/Database/Description.sol\":2562:2612  _description.materialCreated = _newMaterialCreated */\n      dup2\n      swap1\n      mstore\n      pop\n        /* \"Database/Database/Description.sol\":2656:2668  _description */\n      dup1\n        /* \"Database/Database/Description.sol\":2623:2637  descriptionMap */\n      0x02\n        /* \"Database/Database/Description.sol\":2623:2653  descriptionMap[_descriptionID] */\n      0x00\n        /* \"Database/Database/Description.sol\":2638:2652  _descriptionID */\n      dup7\n        /* \"Database/Database/Description.sol\":2623:2653  descriptionMap[_descriptionID] */\n      dup2\n      mstore\n      0x20\n      add\n      swap1\n      dup2\n      mstore\n      0x20\n      add\n      0x00\n      keccak256\n        /* \"Database/Database/Description.sol\":2623:2668  descriptionMap[_descriptionID] = _description */\n      0x00\n      dup3\n      add\n      mload\n      dup2\n      0x00\n      add\n      sstore\n      0x20\n      dup3\n      add\n      mload\n      dup2\n      0x01\n      add\n      sstore\n      0x40\n      dup3\n      add\n      mload\n      dup2\n      0x02\n      add\n      swap1\n      dup2\n      tag_73\n      swap2\n      swap1\n      tag_57\n      jump\t// in\n    tag_73:\n      pop\n      0x60\n      dup3\n      add\n      mload\n      dup2\n      0x03\n      add\n      sstore\n      0x80\n      dup3\n      add\n      mload\n      dup2\n      0x04\n      add\n      exp(0x0100, 0x00)\n      dup2\n      sload\n      dup2\n      0xffffffffffffffffffffffffffffffffffffffff\n      mul\n      not\n      and\n      swap1\n      dup4\n      0xffffffffffffffffffffffffffffffffffffffff\n      and\n      mul\n      or\n      swap1\n      sstore\n      pop\n      swap1\n      pop\n      pop\n        /* \"Database/Database/Description.sol\":2684:2758  updateAntiqueDescription (_descriptionID , _newMaterialCreated, _uploader) */\n      0x17915ef8086651997dc9a51652fafcda7a028200c5d72214eec1c7cd56546ab1\n        /* \"Database/Database/Description.sol\":2710:2724  _descriptionID */\n      dup5\n        /* \"Database/Database/Description.sol\":2727:2746  _newMaterialCreated */\n      dup5\n        /* \"Database/Database/Description.sol\":2748:2757  _uploader */\n      dup5\n        /* \"Database/Database/Description.sol\":2684:2758  updateAntiqueDescription (_descriptionID , _newMaterialCreated, _uploader) */\n      mload(0x40)\n      tag_74\n      swap4\n      swap3\n      swap2\n      swap1\n      tag_75\n      jump\t// in\n    tag_74:\n      mload(0x40)\n      dup1\n      swap2\n      sub\n      swap1\n      log1\n        /* \"Database/Database/Description.sol\":2293:2766  {... */\n      pop\n        /* \"Database/Database/Description.sol\":2112:2766  function UpdateDescriptionMaterials ... */\n      pop\n      pop\n      pop\n      jump\t// out\n        /* \"Database/Database/Description.sol\":1044:2054  function  AddDescription... */\n    tag_31:\n        /* \"Database/Database/Description.sol\":1215:1222  uint256 */\n      0x00\n        /* \"Database/Database/Description.sol\":1240:1269  string memory antiqueMaterial */\n      0x60\n        /* \"Database/Database/Description.sol\":1329:1347  uint256 _antiqueID */\n      0x00\n        /* \"Database/Database/Description.sol\":1393:1394  0 */\n      dup1\n        /* \"Database/Database/Description.sol\":1372:1395  _uploader != address(0) */\n      0xffffffffffffffffffffffffffffffffffffffff\n      and\n        /* \"Database/Database/Description.sol\":1372:1381  _uploader */\n      dup5\n        /* \"Database/Database/Description.sol\":1372:1395  _uploader != address(0) */\n      0xffffffffffffffffffffffffffffffffffffffff\n      and\n      sub\n        /* \"Database/Database/Description.sol\":1364:1396  require(_uploader != address(0)) */\n      tag_77\n      jumpi\n      0x00\n      dup1\n      revert\n    tag_77:\n        /* \"Database/Database/Description.sol\":1473:1474  0 */\n      0x00\n        /* \"Database/Database/Description.sol\":1454:1470  _antiqueObjectID */\n      dup7\n        /* \"Database/Database/Description.sol\":1454:1474  _antiqueObjectID > 0 */\n      gt\n        /* \"Database/Database/Description.sol\":1450:1541  if (_antiqueObjectID > 0)... */\n      iszero\n      tag_78\n      jumpi\n        /* \"Database/Database/Description.sol\":1513:1529  _antiqueObjectID */\n      dup6\n        /* \"Database/Database/Description.sol\":1500:1529  _antiqueID = _antiqueObjectID */\n      swap1\n      pop\n        /* \"Database/Database/Description.sol\":1450:1541  if (_antiqueObjectID > 0)... */\n    tag_78:\n        /* \"Database/Database/Description.sol\":1591:1592  0 */\n      0x00\n        /* \"Database/Database/Description.sol\":1564:1580  _materialCreated */\n      dup6\n        /* \"Database/Database/Description.sol\":1558:1588  bytes(_materialCreated).length */\n      mload\n        /* \"Database/Database/Description.sol\":1558:1592  bytes(_materialCreated).length > 0 */\n      gt\n        /* \"Database/Database/Description.sol\":1554:1664  if (bytes(_materialCreated).length > 0)... */\n      iszero\n      tag_79\n      jumpi\n        /* \"Database/Database/Description.sol\":1636:1652  _materialCreated */\n      dup5\n        /* \"Database/Database/Description.sol\":1618:1652  antiqueMaterial = _materialCreated */\n      swap2\n      pop\n        /* \"Database/Database/Description.sol\":1554:1664  if (bytes(_materialCreated).length > 0)... */\n    tag_79:\n        /* \"Database/Database/Description.sol\":1674:1690  descriptionCount */\n      0x01\n      0x00\n        /* \"Database/Database/Description.sol\":1674:1693  descriptionCount ++ */\n      dup2\n      sload\n      dup1\n      swap3\n      swap2\n      swap1\n      tag_80\n      swap1\n      tag_81\n      jump\t// in\n    tag_80:\n      swap2\n      swap1\n      pop\n      sstore\n      pop\n        /* \"Database/Database/Description.sol\":1749:1918  DescriptionObject (... */\n      mload(0x40)\n      dup1\n      0xa0\n      add\n      0x40\n      mstore\n      dup1\n        /* \"Database/Database/Description.sol\":1782:1798  descriptionCount */\n      sload(0x01)\n        /* \"Database/Database/Description.sol\":1749:1918  DescriptionObject (... */\n      dup2\n      mstore\n      0x20\n      add\n        /* \"Database/Database/Description.sol\":1813:1823  _antiqueID */\n      dup3\n        /* \"Database/Database/Description.sol\":1749:1918  DescriptionObject (... */\n      dup2\n      mstore\n      0x20\n      add\n        /* \"Database/Database/Description.sol\":1838:1853  antiqueMaterial */\n      dup4\n        /* \"Database/Database/Description.sol\":1749:1918  DescriptionObject (... */\n      dup2\n      mstore\n      0x20\n      add\n        /* \"Database/Database/Description.sol\":1868:1883  block.timestamp */\n      timestamp\n        /* \"Database/Database/Description.sol\":1749:1918  DescriptionObject (... */\n      dup2\n      mstore\n      0x20\n      add\n        /* \"Database/Database/Description.sol\":1898:1907  _uploader */\n      dup6\n        /* \"Database/Database/Description.sol\":1749:1918  DescriptionObject (... */\n      0xffffffffffffffffffffffffffffffffffffffff\n      and\n      dup2\n      mstore\n      pop\n        /* \"Database/Database/Description.sol\":1714:1728  descriptionMap */\n      0x02\n        /* \"Database/Database/Description.sol\":1714:1746  descriptionMap[descriptionCount] */\n      0x00\n        /* \"Database/Database/Description.sol\":1729:1745  descriptionCount */\n      sload(0x01)\n        /* \"Database/Database/Description.sol\":1714:1746  descriptionMap[descriptionCount] */\n      dup2\n      mstore\n      0x20\n      add\n      swap1\n      dup2\n      mstore\n      0x20\n      add\n      0x00\n      keccak256\n        /* \"Database/Database/Description.sol\":1714:1918  descriptionMap[descriptionCount] = DescriptionObject (... */\n      0x00\n      dup3\n      add\n      mload\n      dup2\n      0x00\n      add\n      sstore\n      0x20\n      dup3\n      add\n      mload\n      dup2\n      0x01\n      add\n      sstore\n      0x40\n      dup3\n      add\n      mload\n      dup2\n      0x02\n      add\n      swap1\n      dup2\n      tag_82\n      swap2\n      swap1\n      tag_57\n      jump\t// in\n    tag_82:\n      pop\n      0x60\n      dup3\n      add\n      mload\n      dup2\n      0x03\n      add\n      sstore\n      0x80\n      dup3\n      add\n      mload\n      dup2\n      0x04\n      add\n      exp(0x0100, 0x00)\n      dup2\n      sload\n      dup2\n      0xffffffffffffffffffffffffffffffffffffffff\n      mul\n      not\n      and\n      swap1\n      dup4\n      0xffffffffffffffffffffffffffffffffffffffff\n      and\n      mul\n      or\n      swap1\n      sstore\n      pop\n      swap1\n      pop\n      pop\n        /* \"Database/Database/Description.sol\":1934:2011  addAntiqueDescription (descriptionCount,_antiqueID,antiqueMaterial,_uploader) */\n      0xc67cdce5e692493b16f0f1eaa9c77340024dbfb3863bf5fca8e18221fb628da7\n        /* \"Database/Database/Description.sol\":1957:1973  descriptionCount */\n      sload(0x01)\n        /* \"Database/Database/Description.sol\":1974:1984  _antiqueID */\n      dup3\n        /* \"Database/Database/Description.sol\":1985:2000  antiqueMaterial */\n      dup5\n        /* \"Database/Database/Description.sol\":2001:2010  _uploader */\n      dup8\n        /* \"Database/Database/Description.sol\":1934:2011  addAntiqueDescription (descriptionCount,_antiqueID,antiqueMaterial,_uploader) */\n      mload(0x40)\n      tag_83\n      swap5\n      swap4\n      swap3\n      swap2\n      swap1\n      tag_84\n      jump\t// in\n    tag_83:\n      mload(0x40)\n      dup1\n      swap2\n      sub\n      swap1\n      log1\n        /* \"Database/Database/Description.sol\":2030:2046  descriptionCount */\n      sload(0x01)\n        /* \"Database/Database/Description.sol\":2023:2046  return descriptionCount */\n      swap3\n      pop\n      pop\n      pop\n        /* \"Database/Database/Description.sol\":1044:2054  function  AddDescription... */\n      swap4\n      swap3\n      pop\n      pop\n      pop\n      jump\t// out\n        /* \"Database/Database/Description.sol\":132:167  uint256 public descriptionCount = 0 */\n    tag_35:\n      sload(0x01)\n      dup2\n      jump\t// out\n        /* \"Database/Database/Description.sol\":2803:3042  function GetDescriptionByID... */\n    tag_39:\n        /* \"Database/Database/Description.sol\":2889:2913  DescriptionObject memory */\n      tag_85\n      tag_86\n      jump\t// in\n    tag_85:\n        /* \"Database/Database/Description.sol\":2981:2985  true */\n      0x01\n        /* \"Database/Database/Description.sol\":2940:2985  ValidateDescriptionID(_descriptionID) == true */\n      iszero\n      iszero\n        /* \"Database/Database/Description.sol\":2940:2977  ValidateDescriptionID(_descriptionID) */\n      tag_88\n        /* \"Database/Database/Description.sol\":2962:2976  _descriptionID */\n      dup4\n        /* \"Database/Database/Description.sol\":2940:2961  ValidateDescriptionID */\n      tag_22\n        /* \"Database/Database/Description.sol\":2940:2977  ValidateDescriptionID(_descriptionID) */\n      jump\t// in\n    tag_88:\n        /* \"Database/Database/Description.sol\":2940:2985  ValidateDescriptionID(_descriptionID) == true */\n      iszero\n      iszero\n      eq\n        /* \"Database/Database/Description.sol\":2931:2986  require (ValidateDescriptionID(_descriptionID) == true) */\n      tag_89\n      jumpi\n      0x00\n      dup1\n      revert\n    tag_89:\n        /* \"Database/Database/Description.sol\":3004:3018  descriptionMap */\n      0x02\n        /* \"Database/Database/Description.sol\":3004:3034  descriptionMap[_descriptionID] */\n      0x00\n        /* \"Database/Database/Description.sol\":3019:3033  _descriptionID */\n      dup4\n        /* \"Database/Database/Description.sol\":3004:3034  descriptionMap[_descriptionID] */\n      dup2\n      mstore\n      0x20\n      add\n      swap1\n      dup2\n      mstore\n      0x20\n      add\n      0x00\n      keccak256\n        /* \"Database/Database/Description.sol\":2997:3034  return descriptionMap[_descriptionID] */\n      mload(0x40)\n      dup1\n      0xa0\n      add\n      0x40\n      mstore\n      swap1\n      dup2\n      0x00\n      dup3\n      add\n      sload\n      dup2\n      mstore\n      0x20\n      add\n      0x01\n      dup3\n      add\n      sload\n      dup2\n      mstore\n      0x20\n      add\n      0x02\n      dup3\n      add\n      dup1\n      sload\n      tag_90\n      swap1\n      tag_43\n      jump\t// in\n    tag_90:\n      dup1\n      0x1f\n      add\n      0x20\n      dup1\n      swap2\n      div\n      mul\n      0x20\n      add\n      mload(0x40)\n      swap1\n      dup2\n      add\n      0x40\n      mstore\n      dup1\n      swap3\n      swap2\n      swap1\n      dup2\n      dup2\n      mstore\n      0x20\n      add\n      dup3\n      dup1\n      sload\n      tag_91\n      swap1\n      tag_43\n      jump\t// in\n    tag_91:\n      dup1\n      iszero\n      tag_92\n      jumpi\n      dup1\n      0x1f\n      lt\n      tag_93\n      jumpi\n      0x0100\n      dup1\n      dup4\n      sload\n      div\n      mul\n      dup4\n      mstore\n      swap2\n      0x20\n      add\n      swap2\n      jump(tag_92)\n    tag_93:\n      dup3\n      add\n      swap2\n      swap1\n      0x00\n      mstore\n      keccak256(0x00, 0x20)\n      swap1\n    tag_94:\n      dup2\n      sload\n      dup2\n      mstore\n      swap1\n      0x01\n      add\n      swap1\n      0x20\n      add\n      dup1\n      dup4\n      gt\n      tag_94\n      jumpi\n      dup3\n      swap1\n      sub\n      0x1f\n      and\n      dup3\n      add\n      swap2\n    tag_92:\n      pop\n      pop\n      pop\n      pop\n      pop\n      dup2\n      mstore\n      0x20\n      add\n      0x03\n      dup3\n      add\n      sload\n      dup2\n      mstore\n      0x20\n      add\n      0x04\n      dup3\n      add\n      0x00\n      swap1\n      sload\n      swap1\n      0x0100\n      exp\n      swap1\n      div\n      0xffffffffffffffffffffffffffffffffffffffff\n      and\n      0xffffffffffffffffffffffffffffffffffffffff\n      and\n      0xffffffffffffffffffffffffffffffffffffffff\n      and\n      dup2\n      mstore\n      pop\n      pop\n      swap1\n      pop\n        /* \"Database/Database/Description.sol\":2803:3042  function GetDescriptionByID... */\n      swap2\n      swap1\n      pop\n      jump\t// out\n    tag_86:\n      mload(0x40)\n      dup1\n      0xa0\n      add\n      0x40\n      mstore\n      dup1\n      0x00\n      dup2\n      mstore\n      0x20\n      add\n      0x00\n      dup2\n      mstore\n      0x20\n      add\n      0x60\n      dup2\n      mstore\n      0x20\n      add\n      0x00\n      dup2\n      mstore\n      0x20\n      add\n      and(0xffffffffffffffffffffffffffffffffffffffff, 0x00)\n      dup2\n      mstore\n      pop\n      swap1\n      jump\t// out\n        /* \"#utility.yul\":7:106   */\n    tag_95:\n        /* \"#utility.yul\":59:65   */\n      0x00\n        /* \"#utility.yul\":93:98   */\n      dup2\n        /* \"#utility.yul\":87:99   */\n      mload\n        /* \"#utility.yul\":77:99   */\n      swap1\n      pop\n        /* \"#utility.yul\":7:106   */\n      swap2\n      swap1\n      pop\n      jump\t// out\n        /* \"#utility.yul\":112:281   */\n    tag_96:\n        /* \"#utility.yul\":196:207   */\n      0x00\n        /* \"#utility.yul\":230:236   */\n      dup3\n        /* \"#utility.yul\":225:228   */\n      dup3\n        /* \"#utility.yul\":218:237   */\n      mstore\n        /* \"#utility.yul\":270:274   */\n      0x20\n        /* \"#utility.yul\":265:268   */\n      dup3\n        /* \"#utility.yul\":261:275   */\n      add\n        /* \"#utility.yul\":246:275   */\n      swap1\n      pop\n        /* \"#utility.yul\":112:281   */\n      swap3\n      swap2\n      pop\n      pop\n      jump\t// out\n        /* \"#utility.yul\":287:533   */\n    tag_97:\n        /* \"#utility.yul\":368:369   */\n      0x00\n        /* \"#utility.yul\":378:491   */\n    tag_149:\n        /* \"#utility.yul\":392:398   */\n      dup4\n        /* \"#utility.yul\":389:390   */\n      dup2\n        /* \"#utility.yul\":386:399   */\n      lt\n        /* \"#utility.yul\":378:491   */\n      iszero\n      tag_151\n      jumpi\n        /* \"#utility.yul\":477:478   */\n      dup1\n        /* \"#utility.yul\":472:475   */\n      dup3\n        /* \"#utility.yul\":468:479   */\n      add\n        /* \"#utility.yul\":462:480   */\n      mload\n        /* \"#utility.yul\":458:459   */\n      dup2\n        /* \"#utility.yul\":453:456   */\n      dup5\n        /* \"#utility.yul\":449:460   */\n      add\n        /* \"#utility.yul\":442:481   */\n      mstore\n        /* \"#utility.yul\":414:416   */\n      0x20\n        /* \"#utility.yul\":411:412   */\n      dup2\n        /* \"#utility.yul\":407:417   */\n      add\n        /* \"#utility.yul\":402:417   */\n      swap1\n      pop\n        /* \"#utility.yul\":378:491   */\n      jump(tag_149)\n    tag_151:\n        /* \"#utility.yul\":525:526   */\n      0x00\n        /* \"#utility.yul\":516:522   */\n      dup5\n        /* \"#utility.yul\":511:514   */\n      dup5\n        /* \"#utility.yul\":507:523   */\n      add\n        /* \"#utility.yul\":500:527   */\n      mstore\n        /* \"#utility.yul\":349:533   */\n      pop\n        /* \"#utility.yul\":287:533   */\n      pop\n      pop\n      pop\n      jump\t// out\n        /* \"#utility.yul\":539:641   */\n    tag_98:\n        /* \"#utility.yul\":580:586   */\n      0x00\n        /* \"#utility.yul\":631:633   */\n      0x1f\n        /* \"#utility.yul\":627:634   */\n      not\n        /* \"#utility.yul\":622:624   */\n      0x1f\n        /* \"#utility.yul\":615:620   */\n      dup4\n        /* \"#utility.yul\":611:625   */\n      add\n        /* \"#utility.yul\":607:635   */\n      and\n        /* \"#utility.yul\":597:635   */\n      swap1\n      pop\n        /* \"#utility.yul\":539:641   */\n      swap2\n      swap1\n      pop\n      jump\t// out\n        /* \"#utility.yul\":647:1024   */\n    tag_99:\n        /* \"#utility.yul\":735:738   */\n      0x00\n        /* \"#utility.yul\":763:802   */\n      tag_154\n        /* \"#utility.yul\":796:801   */\n      dup3\n        /* \"#utility.yul\":763:802   */\n      tag_95\n      jump\t// in\n    tag_154:\n        /* \"#utility.yul\":818:889   */\n      tag_155\n        /* \"#utility.yul\":882:888   */\n      dup2\n        /* \"#utility.yul\":877:880   */\n      dup6\n        /* \"#utility.yul\":818:889   */\n      tag_96\n      jump\t// in\n    tag_155:\n        /* \"#utility.yul\":811:889   */\n      swap4\n      pop\n        /* \"#utility.yul\":898:963   */\n      tag_156\n        /* \"#utility.yul\":956:962   */\n      dup2\n        /* \"#utility.yul\":951:954   */\n      dup6\n        /* \"#utility.yul\":944:948   */\n      0x20\n        /* \"#utility.yul\":937:942   */\n      dup7\n        /* \"#utility.yul\":933:949   */\n      add\n        /* \"#utility.yul\":898:963   */\n      tag_97\n      jump\t// in\n    tag_156:\n        /* \"#utility.yul\":988:1017   */\n      tag_157\n        /* \"#utility.yul\":1010:1016   */\n      dup2\n        /* \"#utility.yul\":988:1017   */\n      tag_98\n      jump\t// in\n    tag_157:\n        /* \"#utility.yul\":983:986   */\n      dup5\n        /* \"#utility.yul\":979:1018   */\n      add\n        /* \"#utility.yul\":972:1018   */\n      swap2\n      pop\n        /* \"#utility.yul\":739:1024   */\n      pop\n        /* \"#utility.yul\":647:1024   */\n      swap3\n      swap2\n      pop\n      pop\n      jump\t// out\n        /* \"#utility.yul\":1030:1343   */\n    tag_14:\n        /* \"#utility.yul\":1143:1147   */\n      0x00\n        /* \"#utility.yul\":1181:1183   */\n      0x20\n        /* \"#utility.yul\":1170:1179   */\n      dup3\n        /* \"#utility.yul\":1166:1184   */\n      add\n        /* \"#utility.yul\":1158:1184   */\n      swap1\n      pop\n        /* \"#utility.yul\":1230:1239   */\n      dup2\n        /* \"#utility.yul\":1224:1228   */\n      dup2\n        /* \"#utility.yul\":1220:1240   */\n      sub\n        /* \"#utility.yul\":1216:1217   */\n      0x00\n        /* \"#utility.yul\":1205:1214   */\n      dup4\n        /* \"#utility.yul\":1201:1218   */\n      add\n        /* \"#utility.yul\":1194:1241   */\n      mstore\n        /* \"#utility.yul\":1258:1336   */\n      tag_159\n        /* \"#utility.yul\":1331:1335   */\n      dup2\n        /* \"#utility.yul\":1322:1328   */\n      dup5\n        /* \"#utility.yul\":1258:1336   */\n      tag_99\n      jump\t// in\n    tag_159:\n        /* \"#utility.yul\":1250:1336   */\n      swap1\n      pop\n        /* \"#utility.yul\":1030:1343   */\n      swap3\n      swap2\n      pop\n      pop\n      jump\t// out\n        /* \"#utility.yul\":1349:1424   */\n    tag_100:\n        /* \"#utility.yul\":1382:1388   */\n      0x00\n        /* \"#utility.yul\":1415:1417   */\n      0x40\n        /* \"#utility.yul\":1409:1418   */\n      mload\n        /* \"#utility.yul\":1399:1418   */\n      swap1\n      pop\n        /* \"#utility.yul\":1349:1424   */\n      swap1\n      jump\t// out\n        /* \"#utility.yul\":1430:1547   */\n    tag_101:\n        /* \"#utility.yul\":1539:1540   */\n      0x00\n        /* \"#utility.yul\":1536:1537   */\n      dup1\n        /* \"#utility.yul\":1529:1541   */\n      revert\n        /* \"#utility.yul\":1553:1670   */\n    tag_102:\n        /* \"#utility.yul\":1662:1663   */\n      0x00\n        /* \"#utility.yul\":1659:1660   */\n      dup1\n        /* \"#utility.yul\":1652:1664   */\n      revert\n        /* \"#utility.yul\":1676:1753   */\n    tag_103:\n        /* \"#utility.yul\":1713:1720   */\n      0x00\n        /* \"#utility.yul\":1742:1747   */\n      dup2\n        /* \"#utility.yul\":1731:1747   */\n      swap1\n      pop\n        /* \"#utility.yul\":1676:1753   */\n      swap2\n      swap1\n      pop\n      jump\t// out\n        /* \"#utility.yul\":1759:1881   */\n    tag_104:\n        /* \"#utility.yul\":1832:1856   */\n      tag_165\n        /* \"#utility.yul\":1850:1855   */\n      dup2\n        /* \"#utility.yul\":1832:1856   */\n      tag_103\n      jump\t// in\n    tag_165:\n        /* \"#utility.yul\":1825:1830   */\n      dup2\n        /* \"#utility.yul\":1822:1857   */\n      eq\n        /* \"#utility.yul\":1812:1875   */\n      tag_166\n      jumpi\n        /* \"#utility.yul\":1871:1872   */\n      0x00\n        /* \"#utility.yul\":1868:1869   */\n      dup1\n        /* \"#utility.yul\":1861:1873   */\n      revert\n        /* \"#utility.yul\":1812:1875   */\n    tag_166:\n        /* \"#utility.yul\":1759:1881   */\n      pop\n      jump\t// out\n        /* \"#utility.yul\":1887:2026   */\n    tag_105:\n        /* \"#utility.yul\":1933:1938   */\n      0x00\n        /* \"#utility.yul\":1971:1977   */\n      dup2\n        /* \"#utility.yul\":1958:1978   */\n      calldataload\n        /* \"#utility.yul\":1949:1978   */\n      swap1\n      pop\n        /* \"#utility.yul\":1987:2020   */\n      tag_168\n        /* \"#utility.yul\":2014:2019   */\n      dup2\n        /* \"#utility.yul\":1987:2020   */\n      tag_104\n      jump\t// in\n    tag_168:\n        /* \"#utility.yul\":1887:2026   */\n      swap3\n      swap2\n      pop\n      pop\n      jump\t// out\n        /* \"#utility.yul\":2032:2158   */\n    tag_106:\n        /* \"#utility.yul\":2069:2076   */\n      0x00\n        /* \"#utility.yul\":2109:2151   */\n      0xffffffffffffffffffffffffffffffffffffffff\n        /* \"#utility.yul\":2102:2107   */\n      dup3\n        /* \"#utility.yul\":2098:2152   */\n      and\n        /* \"#utility.yul\":2087:2152   */\n      swap1\n      pop\n        /* \"#utility.yul\":2032:2158   */\n      swap2\n      swap1\n      pop\n      jump\t// out\n        /* \"#utility.yul\":2164:2268   */\n    tag_107:\n        /* \"#utility.yul\":2209:2216   */\n      0x00\n        /* \"#utility.yul\":2238:2262   */\n      tag_171\n        /* \"#utility.yul\":2256:2261   */\n      dup3\n        /* \"#utility.yul\":2238:2262   */\n      tag_106\n      jump\t// in\n    tag_171:\n        /* \"#utility.yul\":2227:2262   */\n      swap1\n      pop\n        /* \"#utility.yul\":2164:2268   */\n      swap2\n      swap1\n      pop\n      jump\t// out\n        /* \"#utility.yul\":2274:2412   */\n    tag_108:\n        /* \"#utility.yul\":2355:2387   */\n      tag_173\n        /* \"#utility.yul\":2381:2386   */\n      dup2\n        /* \"#utility.yul\":2355:2387   */\n      tag_107\n      jump\t// in\n    tag_173:\n        /* \"#utility.yul\":2348:2353   */\n      dup2\n        /* \"#utility.yul\":2345:2388   */\n      eq\n        /* \"#utility.yul\":2335:2406   */\n      tag_174\n      jumpi\n        /* \"#utility.yul\":2402:2403   */\n      0x00\n        /* \"#utility.yul\":2399:2400   */\n      dup1\n        /* \"#utility.yul\":2392:2404   */\n      revert\n        /* \"#utility.yul\":2335:2406   */\n    tag_174:\n        /* \"#utility.yul\":2274:2412   */\n      pop\n      jump\t// out\n        /* \"#utility.yul\":2418:2573   */\n    tag_109:\n        /* \"#utility.yul\":2472:2477   */\n      0x00\n        /* \"#utility.yul\":2510:2516   */\n      dup2\n        /* \"#utility.yul\":2497:2517   */\n      calldataload\n        /* \"#utility.yul\":2488:2517   */\n      swap1\n      pop\n        /* \"#utility.yul\":2526:2567   */\n      tag_176\n        /* \"#utility.yul\":2561:2566   */\n      dup2\n        /* \"#utility.yul\":2526:2567   */\n      tag_108\n      jump\t// in\n    tag_176:\n        /* \"#utility.yul\":2418:2573   */\n      swap3\n      swap2\n      pop\n      pop\n      jump\t// out\n        /* \"#utility.yul\":2579:3214   */\n    tag_17:\n        /* \"#utility.yul\":2664:2670   */\n      0x00\n        /* \"#utility.yul\":2672:2678   */\n      dup1\n        /* \"#utility.yul\":2680:2686   */\n      0x00\n        /* \"#utility.yul\":2729:2731   */\n      0x60\n        /* \"#utility.yul\":2717:2726   */\n      dup5\n        /* \"#utility.yul\":2708:2715   */\n      dup7\n        /* \"#utility.yul\":2704:2727   */\n      sub\n        /* \"#utility.yul\":2700:2732   */\n      slt\n        /* \"#utility.yul\":2697:2816   */\n      iszero\n      tag_178\n      jumpi\n        /* \"#utility.yul\":2735:2814   */\n      tag_179\n      tag_101\n      jump\t// in\n    tag_179:\n        /* \"#utility.yul\":2697:2816   */\n    tag_178:\n        /* \"#utility.yul\":2855:2856   */\n      0x00\n        /* \"#utility.yul\":2880:2933   */\n      tag_180\n        /* \"#utility.yul\":2925:2932   */\n      dup7\n        /* \"#utility.yul\":2916:2922   */\n      dup3\n        /* \"#utility.yul\":2905:2914   */\n      dup8\n        /* \"#utility.yul\":2901:2923   */\n      add\n        /* \"#utility.yul\":2880:2933   */\n      tag_105\n      jump\t// in\n    tag_180:\n        /* \"#utility.yul\":2870:2933   */\n      swap4\n      pop\n        /* \"#utility.yul\":2826:2943   */\n      pop\n        /* \"#utility.yul\":2982:2984   */\n      0x20\n        /* \"#utility.yul\":3008:3061   */\n      tag_181\n        /* \"#utility.yul\":3053:3060   */\n      dup7\n        /* \"#utility.yul\":3044:3050   */\n      dup3\n        /* \"#utility.yul\":3033:3042   */\n      dup8\n        /* \"#utility.yul\":3029:3051   */\n      add\n        /* \"#utility.yul\":3008:3061   */\n      tag_105\n      jump\t// in\n    tag_181:\n        /* \"#utility.yul\":2998:3061   */\n      swap3\n      pop\n        /* \"#utility.yul\":2953:3071   */\n      pop\n        /* \"#utility.yul\":3110:3112   */\n      0x40\n        /* \"#utility.yul\":3136:3197   */\n      tag_182\n        /* \"#utility.yul\":3189:3196   */\n      dup7\n        /* \"#utility.yul\":3180:3186   */\n      dup3\n        /* \"#utility.yul\":3169:3178   */\n      dup8\n        /* \"#utility.yul\":3165:3187   */\n      add\n        /* \"#utility.yul\":3136:3197   */\n      tag_109\n      jump\t// in\n    tag_182:\n        /* \"#utility.yul\":3126:3197   */\n      swap2\n      pop\n        /* \"#utility.yul\":3081:3207   */\n      pop\n        /* \"#utility.yul\":2579:3214   */\n      swap3\n      pop\n      swap3\n      pop\n      swap3\n      jump\t// out\n        /* \"#utility.yul\":3220:3549   */\n    tag_21:\n        /* \"#utility.yul\":3279:3285   */\n      0x00\n        /* \"#utility.yul\":3328:3330   */\n      0x20\n        /* \"#utility.yul\":3316:3325   */\n      dup3\n        /* \"#utility.yul\":3307:3314   */\n      dup5\n        /* \"#utility.yul\":3303:3326   */\n      sub\n        /* \"#utility.yul\":3299:3331   */\n      slt\n        /* \"#utility.yul\":3296:3415   */\n      iszero\n      tag_184\n      jumpi\n        /* \"#utility.yul\":3334:3413   */\n      tag_185\n      tag_101\n      jump\t// in\n    tag_185:\n        /* \"#utility.yul\":3296:3415   */\n    tag_184:\n        /* \"#utility.yul\":3454:3455   */\n      0x00\n        /* \"#utility.yul\":3479:3532   */\n      tag_186\n        /* \"#utility.yul\":3524:3531   */\n      dup5\n        /* \"#utility.yul\":3515:3521   */\n      dup3\n        /* \"#utility.yul\":3504:3513   */\n      dup6\n        /* \"#utility.yul\":3500:3522   */\n      add\n        /* \"#utility.yul\":3479:3532   */\n      tag_105\n      jump\t// in\n    tag_186:\n        /* \"#utility.yul\":3469:3532   */\n      swap2\n      pop\n        /* \"#utility.yul\":3425:3542   */\n      pop\n        /* \"#utility.yul\":3220:3549   */\n      swap3\n      swap2\n      pop\n      pop\n      jump\t// out\n        /* \"#utility.yul\":3555:3645   */\n    tag_110:\n        /* \"#utility.yul\":3589:3596   */\n      0x00\n        /* \"#utility.yul\":3632:3637   */\n      dup2\n        /* \"#utility.yul\":3625:3638   */\n      iszero\n        /* \"#utility.yul\":3618:3639   */\n      iszero\n        /* \"#utility.yul\":3607:3639   */\n      swap1\n      pop\n        /* \"#utility.yul\":3555:3645   */\n      swap2\n      swap1\n      pop\n      jump\t// out\n        /* \"#utility.yul\":3651:3760   */\n    tag_111:\n        /* \"#utility.yul\":3732:3753   */\n      tag_189\n        /* \"#utility.yul\":3747:3752   */\n      dup2\n        /* \"#utility.yul\":3732:3753   */\n      tag_110\n      jump\t// in\n    tag_189:\n        /* \"#utility.yul\":3727:3730   */\n      dup3\n        /* \"#utility.yul\":3720:3754   */\n      mstore\n        /* \"#utility.yul\":3651:3760   */\n      pop\n      pop\n      jump\t// out\n        /* \"#utility.yul\":3766:3976   */\n    tag_24:\n        /* \"#utility.yul\":3853:3857   */\n      0x00\n        /* \"#utility.yul\":3891:3893   */\n      0x20\n        /* \"#utility.yul\":3880:3889   */\n      dup3\n        /* \"#utility.yul\":3876:3894   */\n      add\n        /* \"#utility.yul\":3868:3894   */\n      swap1\n      pop\n        /* \"#utility.yul\":3904:3969   */\n      tag_191\n        /* \"#utility.yul\":3966:3967   */\n      0x00\n        /* \"#utility.yul\":3955:3964   */\n      dup4\n        /* \"#utility.yul\":3951:3968   */\n      add\n        /* \"#utility.yul\":3942:3948   */\n      dup5\n        /* \"#utility.yul\":3904:3969   */\n      tag_111\n      jump\t// in\n    tag_191:\n        /* \"#utility.yul\":3766:3976   */\n      swap3\n      swap2\n      pop\n      pop\n      jump\t// out\n        /* \"#utility.yul\":3982:4099   */\n    tag_112:\n        /* \"#utility.yul\":4091:4092   */\n      0x00\n        /* \"#utility.yul\":4088:4089   */\n      dup1\n        /* \"#utility.yul\":4081:4093   */\n      revert\n        /* \"#utility.yul\":4105:4222   */\n    tag_113:\n        /* \"#utility.yul\":4214:4215   */\n      0x00\n        /* \"#utility.yul\":4211:4212   */\n      dup1\n        /* \"#utility.yul\":4204:4216   */\n      revert\n        /* \"#utility.yul\":4228:4408   */\n    tag_114:\n        /* \"#utility.yul\":4276:4353   */\n      0x4e487b7100000000000000000000000000000000000000000000000000000000\n        /* \"#utility.yul\":4273:4274   */\n      0x00\n        /* \"#utility.yul\":4266:4354   */\n      mstore\n        /* \"#utility.yul\":4373:4377   */\n      0x41\n        /* \"#utility.yul\":4370:4371   */\n      0x04\n        /* \"#utility.yul\":4363:4378   */\n      mstore\n        /* \"#utility.yul\":4397:4401   */\n      0x24\n        /* \"#utility.yul\":4394:4395   */\n      0x00\n        /* \"#utility.yul\":4387:4402   */\n      revert\n        /* \"#utility.yul\":4414:4695   */\n    tag_115:\n        /* \"#utility.yul\":4497:4524   */\n      tag_196\n        /* \"#utility.yul\":4519:4523   */\n      dup3\n        /* \"#utility.yul\":4497:4524   */\n      tag_98\n      jump\t// in\n    tag_196:\n        /* \"#utility.yul\":4489:4495   */\n      dup2\n        /* \"#utility.yul\":4485:4525   */\n      add\n        /* \"#utility.yul\":4627:4633   */\n      dup2\n        /* \"#utility.yul\":4615:4625   */\n      dup2\n        /* \"#utility.yul\":4612:4634   */\n      lt\n        /* \"#utility.yul\":4591:4609   */\n      0xffffffffffffffff\n        /* \"#utility.yul\":4579:4589   */\n      dup3\n        /* \"#utility.yul\":4576:4610   */\n      gt\n        /* \"#utility.yul\":4573:4635   */\n      or\n        /* \"#utility.yul\":4570:4658   */\n      iszero\n      tag_197\n      jumpi\n        /* \"#utility.yul\":4638:4656   */\n      tag_198\n      tag_114\n      jump\t// in\n    tag_198:\n        /* \"#utility.yul\":4570:4658   */\n    tag_197:\n        /* \"#utility.yul\":4678:4688   */\n      dup1\n        /* \"#utility.yul\":4674:4676   */\n      0x40\n        /* \"#utility.yul\":4667:4689   */\n      mstore\n        /* \"#utility.yul\":4457:4695   */\n      pop\n        /* \"#utility.yul\":4414:4695   */\n      pop\n      pop\n      jump\t// out\n        /* \"#utility.yul\":4701:4830   */\n    tag_116:\n        /* \"#utility.yul\":4735:4741   */\n      0x00\n        /* \"#utility.yul\":4762:4782   */\n      tag_200\n      tag_100\n      jump\t// in\n    tag_200:\n        /* \"#utility.yul\":4752:4782   */\n      swap1\n      pop\n        /* \"#utility.yul\":4791:4824   */\n      tag_201\n        /* \"#utility.yul\":4819:4823   */\n      dup3\n        /* \"#utility.yul\":4811:4817   */\n      dup3\n        /* \"#utility.yul\":4791:4824   */\n      tag_115\n      jump\t// in\n    tag_201:\n        /* \"#utility.yul\":4701:4830   */\n      swap2\n      swap1\n      pop\n      jump\t// out\n        /* \"#utility.yul\":4836:5144   */\n    tag_117:\n        /* \"#utility.yul\":4898:4902   */\n      0x00\n        /* \"#utility.yul\":4988:5006   */\n      0xffffffffffffffff\n        /* \"#utility.yul\":4980:4986   */\n      dup3\n        /* \"#utility.yul\":4977:5007   */\n      gt\n        /* \"#utility.yul\":4974:5030   */\n      iszero\n      tag_203\n      jumpi\n        /* \"#utility.yul\":5010:5028   */\n      tag_204\n      tag_114\n      jump\t// in\n    tag_204:\n        /* \"#utility.yul\":4974:5030   */\n    tag_203:\n        /* \"#utility.yul\":5048:5077   */\n      tag_205\n        /* \"#utility.yul\":5070:5076   */\n      dup3\n        /* \"#utility.yul\":5048:5077   */\n      tag_98\n      jump\t// in\n    tag_205:\n        /* \"#utility.yul\":5040:5077   */\n      swap1\n      pop\n        /* \"#utility.yul\":5132:5136   */\n      0x20\n        /* \"#utility.yul\":5126:5130   */\n      dup2\n        /* \"#utility.yul\":5122:5137   */\n      add\n        /* \"#utility.yul\":5114:5137   */\n      swap1\n      pop\n        /* \"#utility.yul\":4836:5144   */\n      swap2\n      swap1\n      pop\n      jump\t// out\n        /* \"#utility.yul\":5150:5296   */\n    tag_118:\n        /* \"#utility.yul\":5247:5253   */\n      dup3\n        /* \"#utility.yul\":5242:5245   */\n      dup2\n        /* \"#utility.yul\":5237:5240   */\n      dup4\n        /* \"#utility.yul\":5224:5254   */\n      calldatacopy\n        /* \"#utility.yul\":5288:5289   */\n      0x00\n        /* \"#utility.yul\":5279:5285   */\n      dup4\n        /* \"#utility.yul\":5274:5277   */\n      dup4\n        /* \"#utility.yul\":5270:5286   */\n      add\n        /* \"#utility.yul\":5263:5290   */\n      mstore\n        /* \"#utility.yul\":5150:5296   */\n      pop\n      pop\n      pop\n      jump\t// out\n        /* \"#utility.yul\":5302:5727   */\n    tag_119:\n        /* \"#utility.yul\":5380:5385   */\n      0x00\n        /* \"#utility.yul\":5405:5471   */\n      tag_208\n        /* \"#utility.yul\":5421:5470   */\n      tag_209\n        /* \"#utility.yul\":5463:5469   */\n      dup5\n        /* \"#utility.yul\":5421:5470   */\n      tag_117\n      jump\t// in\n    tag_209:\n        /* \"#utility.yul\":5405:5471   */\n      tag_116\n      jump\t// in\n    tag_208:\n        /* \"#utility.yul\":5396:5471   */\n      swap1\n      pop\n        /* \"#utility.yul\":5494:5500   */\n      dup3\n        /* \"#utility.yul\":5487:5492   */\n      dup2\n        /* \"#utility.yul\":5480:5501   */\n      mstore\n        /* \"#utility.yul\":5532:5536   */\n      0x20\n        /* \"#utility.yul\":5525:5530   */\n      dup2\n        /* \"#utility.yul\":5521:5537   */\n      add\n        /* \"#utility.yul\":5570:5573   */\n      dup5\n        /* \"#utility.yul\":5561:5567   */\n      dup5\n        /* \"#utility.yul\":5556:5559   */\n      dup5\n        /* \"#utility.yul\":5552:5568   */\n      add\n        /* \"#utility.yul\":5549:5574   */\n      gt\n        /* \"#utility.yul\":5546:5658   */\n      iszero\n      tag_210\n      jumpi\n        /* \"#utility.yul\":5577:5656   */\n      tag_211\n      tag_113\n      jump\t// in\n    tag_211:\n        /* \"#utility.yul\":5546:5658   */\n    tag_210:\n        /* \"#utility.yul\":5667:5721   */\n      tag_212\n        /* \"#utility.yul\":5714:5720   */\n      dup5\n        /* \"#utility.yul\":5709:5712   */\n      dup3\n        /* \"#utility.yul\":5704:5707   */\n      dup6\n        /* \"#utility.yul\":5667:5721   */\n      tag_118\n      jump\t// in\n    tag_212:\n        /* \"#utility.yul\":5386:5727   */\n      pop\n        /* \"#utility.yul\":5302:5727   */\n      swap4\n      swap3\n      pop\n      pop\n      pop\n      jump\t// out\n        /* \"#utility.yul\":5747:6087   */\n    tag_120:\n        /* \"#utility.yul\":5803:5808   */\n      0x00\n        /* \"#utility.yul\":5852:5855   */\n      dup3\n        /* \"#utility.yul\":5845:5849   */\n      0x1f\n        /* \"#utility.yul\":5837:5843   */\n      dup4\n        /* \"#utility.yul\":5833:5850   */\n      add\n        /* \"#utility.yul\":5829:5856   */\n      slt\n        /* \"#utility.yul\":5819:5941   */\n      tag_214\n      jumpi\n        /* \"#utility.yul\":5860:5939   */\n      tag_215\n      tag_112\n      jump\t// in\n    tag_215:\n        /* \"#utility.yul\":5819:5941   */\n    tag_214:\n        /* \"#utility.yul\":5977:5983   */\n      dup2\n        /* \"#utility.yul\":5964:5984   */\n      calldataload\n        /* \"#utility.yul\":6002:6081   */\n      tag_216\n        /* \"#utility.yul\":6077:6080   */\n      dup5\n        /* \"#utility.yul\":6069:6075   */\n      dup3\n        /* \"#utility.yul\":6062:6066   */\n      0x20\n        /* \"#utility.yul\":6054:6060   */\n      dup7\n        /* \"#utility.yul\":6050:6067   */\n      add\n        /* \"#utility.yul\":6002:6081   */\n      tag_119\n      jump\t// in\n    tag_216:\n        /* \"#utility.yul\":5993:6081   */\n      swap2\n      pop\n        /* \"#utility.yul\":5809:6087   */\n      pop\n        /* \"#utility.yul\":5747:6087   */\n      swap3\n      swap2\n      pop\n      pop\n      jump\t// out\n        /* \"#utility.yul\":6093:6908   */\n    tag_27:\n        /* \"#utility.yul\":6188:6194   */\n      0x00\n        /* \"#utility.yul\":6196:6202   */\n      dup1\n        /* \"#utility.yul\":6204:6210   */\n      0x00\n        /* \"#utility.yul\":6253:6255   */\n      0x60\n        /* \"#utility.yul\":6241:6250   */\n      dup5\n        /* \"#utility.yul\":6232:6239   */\n      dup7\n        /* \"#utility.yul\":6228:6251   */\n      sub\n        /* \"#utility.yul\":6224:6256   */\n      slt\n        /* \"#utility.yul\":6221:6340   */\n      iszero\n      tag_218\n      jumpi\n        /* \"#utility.yul\":6259:6338   */\n      tag_219\n      tag_101\n      jump\t// in\n    tag_219:\n        /* \"#utility.yul\":6221:6340   */\n    tag_218:\n        /* \"#utility.yul\":6379:6380   */\n      0x00\n        /* \"#utility.yul\":6404:6457   */\n      tag_220\n        /* \"#utility.yul\":6449:6456   */\n      dup7\n        /* \"#utility.yul\":6440:6446   */\n      dup3\n        /* \"#utility.yul\":6429:6438   */\n      dup8\n        /* \"#utility.yul\":6425:6447   */\n      add\n        /* \"#utility.yul\":6404:6457   */\n      tag_105\n      jump\t// in\n    tag_220:\n        /* \"#utility.yul\":6394:6457   */\n      swap4\n      pop\n        /* \"#utility.yul\":6350:6467   */\n      pop\n        /* \"#utility.yul\":6534:6536   */\n      0x20\n        /* \"#utility.yul\":6523:6532   */\n      dup5\n        /* \"#utility.yul\":6519:6537   */\n      add\n        /* \"#utility.yul\":6506:6538   */\n      calldataload\n        /* \"#utility.yul\":6565:6583   */\n      0xffffffffffffffff\n        /* \"#utility.yul\":6557:6563   */\n      dup2\n        /* \"#utility.yul\":6554:6584   */\n      gt\n        /* \"#utility.yul\":6551:6668   */\n      iszero\n      tag_221\n      jumpi\n        /* \"#utility.yul\":6587:6666   */\n      tag_222\n      tag_102\n      jump\t// in\n    tag_222:\n        /* \"#utility.yul\":6551:6668   */\n    tag_221:\n        /* \"#utility.yul\":6692:6755   */\n      tag_223\n        /* \"#utility.yul\":6747:6754   */\n      dup7\n        /* \"#utility.yul\":6738:6744   */\n      dup3\n        /* \"#utility.yul\":6727:6736   */\n      dup8\n        /* \"#utility.yul\":6723:6745   */\n      add\n        /* \"#utility.yul\":6692:6755   */\n      tag_120\n      jump\t// in\n    tag_223:\n        /* \"#utility.yul\":6682:6755   */\n      swap3\n      pop\n        /* \"#utility.yul\":6477:6765   */\n      pop\n        /* \"#utility.yul\":6804:6806   */\n      0x40\n        /* \"#utility.yul\":6830:6891   */\n      tag_224\n        /* \"#utility.yul\":6883:6890   */\n      dup7\n        /* \"#utility.yul\":6874:6880   */\n      dup3\n        /* \"#utility.yul\":6863:6872   */\n      dup8\n        /* \"#utility.yul\":6859:6881   */\n      add\n        /* \"#utility.yul\":6830:6891   */\n      tag_109\n      jump\t// in\n    tag_224:\n        /* \"#utility.yul\":6820:6891   */\n      swap2\n      pop\n        /* \"#utility.yul\":6775:6901   */\n      pop\n        /* \"#utility.yul\":6093:6908   */\n      swap3\n      pop\n      swap3\n      pop\n      swap3\n      jump\t// out\n        /* \"#utility.yul\":6914:7032   */\n    tag_121:\n        /* \"#utility.yul\":7001:7025   */\n      tag_226\n        /* \"#utility.yul\":7019:7024   */\n      dup2\n        /* \"#utility.yul\":7001:7025   */\n      tag_103\n      jump\t// in\n    tag_226:\n        /* \"#utility.yul\":6996:6999   */\n      dup3\n        /* \"#utility.yul\":6989:7026   */\n      mstore\n        /* \"#utility.yul\":6914:7032   */\n      pop\n      pop\n      jump\t// out\n        /* \"#utility.yul\":7038:7260   */\n    tag_33:\n        /* \"#utility.yul\":7131:7135   */\n      0x00\n        /* \"#utility.yul\":7169:7171   */\n      0x20\n        /* \"#utility.yul\":7158:7167   */\n      dup3\n        /* \"#utility.yul\":7154:7172   */\n      add\n        /* \"#utility.yul\":7146:7172   */\n      swap1\n      pop\n        /* \"#utility.yul\":7182:7253   */\n      tag_228\n        /* \"#utility.yul\":7250:7251   */\n      0x00\n        /* \"#utility.yul\":7239:7248   */\n      dup4\n        /* \"#utility.yul\":7235:7252   */\n      add\n        /* \"#utility.yul\":7226:7232   */\n      dup5\n        /* \"#utility.yul\":7182:7253   */\n      tag_121\n      jump\t// in\n    tag_228:\n        /* \"#utility.yul\":7038:7260   */\n      swap3\n      swap2\n      pop\n      pop\n      jump\t// out\n        /* \"#utility.yul\":7266:7374   */\n    tag_122:\n        /* \"#utility.yul\":7343:7367   */\n      tag_230\n        /* \"#utility.yul\":7361:7366   */\n      dup2\n        /* \"#utility.yul\":7343:7367   */\n      tag_103\n      jump\t// in\n    tag_230:\n        /* \"#utility.yul\":7338:7341   */\n      dup3\n        /* \"#utility.yul\":7331:7368   */\n      mstore\n        /* \"#utility.yul\":7266:7374   */\n      pop\n      pop\n      jump\t// out\n        /* \"#utility.yul\":7380:7539   */\n    tag_123:\n        /* \"#utility.yul\":7454:7465   */\n      0x00\n        /* \"#utility.yul\":7488:7494   */\n      dup3\n        /* \"#utility.yul\":7483:7486   */\n      dup3\n        /* \"#utility.yul\":7476:7495   */\n      mstore\n        /* \"#utility.yul\":7528:7532   */\n      0x20\n        /* \"#utility.yul\":7523:7526   */\n      dup3\n        /* \"#utility.yul\":7519:7533   */\n      add\n        /* \"#utility.yul\":7504:7533   */\n      swap1\n      pop\n        /* \"#utility.yul\":7380:7539   */\n      swap3\n      swap2\n      pop\n      pop\n      jump\t// out\n        /* \"#utility.yul\":7545:7902   */\n    tag_124:\n        /* \"#utility.yul\":7623:7626   */\n      0x00\n        /* \"#utility.yul\":7651:7690   */\n      tag_233\n        /* \"#utility.yul\":7684:7689   */\n      dup3\n        /* \"#utility.yul\":7651:7690   */\n      tag_95\n      jump\t// in\n    tag_233:\n        /* \"#utility.yul\":7706:7767   */\n      tag_234\n        /* \"#utility.yul\":7760:7766   */\n      dup2\n        /* \"#utility.yul\":7755:7758   */\n      dup6\n        /* \"#utility.yul\":7706:7767   */\n      tag_123\n      jump\t// in\n    tag_234:\n        /* \"#utility.yul\":7699:7767   */\n      swap4\n      pop\n        /* \"#utility.yul\":7776:7841   */\n      tag_235\n        /* \"#utility.yul\":7834:7840   */\n      dup2\n        /* \"#utility.yul\":7829:7832   */\n      dup6\n        /* \"#utility.yul\":7822:7826   */\n      0x20\n        /* \"#utility.yul\":7815:7820   */\n      dup7\n        /* \"#utility.yul\":7811:7827   */\n      add\n        /* \"#utility.yul\":7776:7841   */\n      tag_97\n      jump\t// in\n    tag_235:\n        /* \"#utility.yul\":7866:7895   */\n      tag_236\n        /* \"#utility.yul\":7888:7894   */\n      dup2\n        /* \"#utility.yul\":7866:7895   */\n      tag_98\n      jump\t// in\n    tag_236:\n        /* \"#utility.yul\":7861:7864   */\n      dup5\n        /* \"#utility.yul\":7857:7896   */\n      add\n        /* \"#utility.yul\":7850:7896   */\n      swap2\n      pop\n        /* \"#utility.yul\":7627:7902   */\n      pop\n        /* \"#utility.yul\":7545:7902   */\n      swap3\n      swap2\n      pop\n      pop\n      jump\t// out\n        /* \"#utility.yul\":7908:8040   */\n    tag_125:\n        /* \"#utility.yul\":8001:8033   */\n      tag_238\n        /* \"#utility.yul\":8027:8032   */\n      dup2\n        /* \"#utility.yul\":8001:8033   */\n      tag_107\n      jump\t// in\n    tag_238:\n        /* \"#utility.yul\":7996:7999   */\n      dup3\n        /* \"#utility.yul\":7989:8034   */\n      mstore\n        /* \"#utility.yul\":7908:8040   */\n      pop\n      pop\n      jump\t// out\n        /* \"#utility.yul\":8130:9325   */\n    tag_126:\n        /* \"#utility.yul\":8265:8268   */\n      0x00\n        /* \"#utility.yul\":8301:8305   */\n      0xa0\n        /* \"#utility.yul\":8296:8299   */\n      dup4\n        /* \"#utility.yul\":8292:8306   */\n      add\n        /* \"#utility.yul\":8397:8401   */\n      0x00\n        /* \"#utility.yul\":8390:8395   */\n      dup4\n        /* \"#utility.yul\":8386:8402   */\n      add\n        /* \"#utility.yul\":8380:8403   */\n      mload\n        /* \"#utility.yul\":8416:8479   */\n      tag_240\n        /* \"#utility.yul\":8473:8477   */\n      0x00\n        /* \"#utility.yul\":8468:8471   */\n      dup7\n        /* \"#utility.yul\":8464:8478   */\n      add\n        /* \"#utility.yul\":8450:8462   */\n      dup3\n        /* \"#utility.yul\":8416:8479   */\n      tag_122\n      jump\t// in\n    tag_240:\n        /* \"#utility.yul\":8316:8489   */\n      pop\n        /* \"#utility.yul\":8576:8580   */\n      0x20\n        /* \"#utility.yul\":8569:8574   */\n      dup4\n        /* \"#utility.yul\":8565:8581   */\n      add\n        /* \"#utility.yul\":8559:8582   */\n      mload\n        /* \"#utility.yul\":8595:8658   */\n      tag_241\n        /* \"#utility.yul\":8652:8656   */\n      0x20\n        /* \"#utility.yul\":8647:8650   */\n      dup7\n        /* \"#utility.yul\":8643:8657   */\n      add\n        /* \"#utility.yul\":8629:8641   */\n      dup3\n        /* \"#utility.yul\":8595:8658   */\n      tag_122\n      jump\t// in\n    tag_241:\n        /* \"#utility.yul\":8499:8668   */\n      pop\n        /* \"#utility.yul\":8761:8765   */\n      0x40\n        /* \"#utility.yul\":8754:8759   */\n      dup4\n        /* \"#utility.yul\":8750:8766   */\n      add\n        /* \"#utility.yul\":8744:8767   */\n      mload\n        /* \"#utility.yul\":8814:8817   */\n      dup5\n        /* \"#utility.yul\":8808:8812   */\n      dup3\n        /* \"#utility.yul\":8804:8818   */\n      sub\n        /* \"#utility.yul\":8797:8801   */\n      0x40\n        /* \"#utility.yul\":8792:8795   */\n      dup7\n        /* \"#utility.yul\":8788:8802   */\n      add\n        /* \"#utility.yul\":8781:8819   */\n      mstore\n        /* \"#utility.yul\":8840:8913   */\n      tag_242\n        /* \"#utility.yul\":8908:8912   */\n      dup3\n        /* \"#utility.yul\":8894:8906   */\n      dup3\n        /* \"#utility.yul\":8840:8913   */\n      tag_124\n      jump\t// in\n    tag_242:\n        /* \"#utility.yul\":8832:8913   */\n      swap2\n      pop\n        /* \"#utility.yul\":8678:8924   */\n      pop\n        /* \"#utility.yul\":9012:9016   */\n      0x60\n        /* \"#utility.yul\":9005:9010   */\n      dup4\n        /* \"#utility.yul\":9001:9017   */\n      add\n        /* \"#utility.yul\":8995:9018   */\n      mload\n        /* \"#utility.yul\":9031:9094   */\n      tag_243\n        /* \"#utility.yul\":9088:9092   */\n      0x60\n        /* \"#utility.yul\":9083:9086   */\n      dup7\n        /* \"#utility.yul\":9079:9093   */\n      add\n        /* \"#utility.yul\":9065:9077   */\n      dup3\n        /* \"#utility.yul\":9031:9094   */\n      tag_122\n      jump\t// in\n    tag_243:\n        /* \"#utility.yul\":8934:9104   */\n      pop\n        /* \"#utility.yul\":9190:9194   */\n      0x80\n        /* \"#utility.yul\":9183:9188   */\n      dup4\n        /* \"#utility.yul\":9179:9195   */\n      add\n        /* \"#utility.yul\":9173:9196   */\n      mload\n        /* \"#utility.yul\":9209:9288   */\n      tag_244\n        /* \"#utility.yul\":9282:9286   */\n      0x80\n        /* \"#utility.yul\":9277:9280   */\n      dup7\n        /* \"#utility.yul\":9273:9287   */\n      add\n        /* \"#utility.yul\":9259:9271   */\n      dup3\n        /* \"#utility.yul\":9209:9288   */\n      tag_125\n      jump\t// in\n    tag_244:\n        /* \"#utility.yul\":9114:9298   */\n      pop\n        /* \"#utility.yul\":9315:9319   */\n      dup1\n        /* \"#utility.yul\":9308:9319   */\n      swap2\n      pop\n        /* \"#utility.yul\":8270:9325   */\n      pop\n        /* \"#utility.yul\":8130:9325   */\n      swap3\n      swap2\n      pop\n      pop\n      jump\t// out\n        /* \"#utility.yul\":9331:9736   */\n    tag_41:\n        /* \"#utility.yul\":9490:9494   */\n      0x00\n        /* \"#utility.yul\":9528:9530   */\n      0x20\n        /* \"#utility.yul\":9517:9526   */\n      dup3\n        /* \"#utility.yul\":9513:9531   */\n      add\n        /* \"#utility.yul\":9505:9531   */\n      swap1\n      pop\n        /* \"#utility.yul\":9577:9586   */\n      dup2\n        /* \"#utility.yul\":9571:9575   */\n      dup2\n        /* \"#utility.yul\":9567:9587   */\n      sub\n        /* \"#utility.yul\":9563:9564   */\n      0x00\n        /* \"#utility.yul\":9552:9561   */\n      dup4\n        /* \"#utility.yul\":9548:9565   */\n      add\n        /* \"#utility.yul\":9541:9588   */\n      mstore\n        /* \"#utility.yul\":9605:9729   */\n      tag_246\n        /* \"#utility.yul\":9724:9728   */\n      dup2\n        /* \"#utility.yul\":9715:9721   */\n      dup5\n        /* \"#utility.yul\":9605:9729   */\n      tag_126\n      jump\t// in\n    tag_246:\n        /* \"#utility.yul\":9597:9729   */\n      swap1\n      pop\n        /* \"#utility.yul\":9331:9736   */\n      swap3\n      swap2\n      pop\n      pop\n      jump\t// out\n        /* \"#utility.yul\":9742:9922   */\n    tag_127:\n        /* \"#utility.yul\":9790:9867   */\n      0x4e487b7100000000000000000000000000000000000000000000000000000000\n        /* \"#utility.yul\":9787:9788   */\n      0x00\n        /* \"#utility.yul\":9780:9868   */\n      mstore\n        /* \"#utility.yul\":9887:9891   */\n      0x22\n        /* \"#utility.yul\":9884:9885   */\n      0x04\n        /* \"#utility.yul\":9877:9892   */\n      mstore\n        /* \"#utility.yul\":9911:9915   */\n      0x24\n        /* \"#utility.yul\":9908:9909   */\n      0x00\n        /* \"#utility.yul\":9901:9916   */\n      revert\n        /* \"#utility.yul\":9928:10248   */\n    tag_43:\n        /* \"#utility.yul\":9972:9978   */\n      0x00\n        /* \"#utility.yul\":10009:10010   */\n      0x02\n        /* \"#utility.yul\":10003:10007   */\n      dup3\n        /* \"#utility.yul\":9999:10011   */\n      div\n        /* \"#utility.yul\":9989:10011   */\n      swap1\n      pop\n        /* \"#utility.yul\":10056:10057   */\n      0x01\n        /* \"#utility.yul\":10050:10054   */\n      dup3\n        /* \"#utility.yul\":10046:10058   */\n      and\n        /* \"#utility.yul\":10077:10095   */\n      dup1\n        /* \"#utility.yul\":10067:10148   */\n      tag_249\n      jumpi\n        /* \"#utility.yul\":10133:10137   */\n      0x7f\n        /* \"#utility.yul\":10125:10131   */\n      dup3\n        /* \"#utility.yul\":10121:10138   */\n      and\n        /* \"#utility.yul\":10111:10138   */\n      swap2\n      pop\n        /* \"#utility.yul\":10067:10148   */\n    tag_249:\n        /* \"#utility.yul\":10195:10197   */\n      0x20\n        /* \"#utility.yul\":10187:10193   */\n      dup3\n        /* \"#utility.yul\":10184:10198   */\n      lt\n        /* \"#utility.yul\":10164:10182   */\n      dup2\n        /* \"#utility.yul\":10161:10199   */\n      sub\n        /* \"#utility.yul\":10158:10242   */\n      tag_250\n      jumpi\n        /* \"#utility.yul\":10214:10232   */\n      tag_251\n      tag_127\n      jump\t// in\n    tag_251:\n        /* \"#utility.yul\":10158:10242   */\n    tag_250:\n        /* \"#utility.yul\":9979:10248   */\n      pop\n        /* \"#utility.yul\":9928:10248   */\n      swap2\n      swap1\n      pop\n      jump\t// out\n        /* \"#utility.yul\":10254:10395   */\n    tag_128:\n        /* \"#utility.yul\":10303:10307   */\n      0x00\n        /* \"#utility.yul\":10326:10329   */\n      dup2\n        /* \"#utility.yul\":10318:10329   */\n      swap1\n      pop\n        /* \"#utility.yul\":10349:10352   */\n      dup2\n        /* \"#utility.yul\":10346:10347   */\n      0x00\n        /* \"#utility.yul\":10339:10353   */\n      mstore\n        /* \"#utility.yul\":10383:10387   */\n      0x20\n        /* \"#utility.yul\":10380:10381   */\n      0x00\n        /* \"#utility.yul\":10370:10388   */\n      keccak256\n        /* \"#utility.yul\":10362:10388   */\n      swap1\n      pop\n        /* \"#utility.yul\":10254:10395   */\n      swap2\n      swap1\n      pop\n      jump\t// out\n        /* \"#utility.yul\":10401:10494   */\n    tag_129:\n        /* \"#utility.yul\":10438:10444   */\n      0x00\n        /* \"#utility.yul\":10485:10487   */\n      0x20\n        /* \"#utility.yul\":10480:10482   */\n      0x1f\n        /* \"#utility.yul\":10473:10478   */\n      dup4\n        /* \"#utility.yul\":10469:10483   */\n      add\n        /* \"#utility.yul\":10465:10488   */\n      div\n        /* \"#utility.yul\":10455:10488   */\n      swap1\n      pop\n        /* \"#utility.yul\":10401:10494   */\n      swap2\n      swap1\n      pop\n      jump\t// out\n        /* \"#utility.yul\":10500:10607   */\n    tag_130:\n        /* \"#utility.yul\":10544:10552   */\n      0x00\n        /* \"#utility.yul\":10594:10599   */\n      dup3\n        /* \"#utility.yul\":10588:10592   */\n      dup3\n        /* \"#utility.yul\":10584:10600   */\n      shl\n        /* \"#utility.yul\":10563:10600   */\n      swap1\n      pop\n        /* \"#utility.yul\":10500:10607   */\n      swap3\n      swap2\n      pop\n      pop\n      jump\t// out\n        /* \"#utility.yul\":10613:11006   */\n    tag_131:\n        /* \"#utility.yul\":10682:10688   */\n      0x00\n        /* \"#utility.yul\":10732:10733   */\n      0x08\n        /* \"#utility.yul\":10720:10730   */\n      dup4\n        /* \"#utility.yul\":10716:10734   */\n      mul\n        /* \"#utility.yul\":10755:10852   */\n      tag_256\n        /* \"#utility.yul\":10785:10851   */\n      0xffffffffffffffffffffffffffffffffffffffffffffffffffffffffffffffff\n        /* \"#utility.yul\":10774:10783   */\n      dup3\n        /* \"#utility.yul\":10755:10852   */\n      tag_130\n      jump\t// in\n    tag_256:\n        /* \"#utility.yul\":10873:10912   */\n      tag_257\n        /* \"#utility.yul\":10903:10911   */\n      dup7\n        /* \"#utility.yul\":10892:10901   */\n      dup4\n        /* \"#utility.yul\":10873:10912   */\n      tag_130\n      jump\t// in\n    tag_257:\n        /* \"#utility.yul\":10861:10912   */\n      swap6\n      pop\n        /* \"#utility.yul\":10945:10949   */\n      dup1\n        /* \"#utility.yul\":10941:10950   */\n      not\n        /* \"#utility.yul\":10934:10939   */\n      dup5\n        /* \"#utility.yul\":10930:10951   */\n      and\n        /* \"#utility.yul\":10921:10951   */\n      swap4\n      pop\n        /* \"#utility.yul\":10994:10998   */\n      dup1\n        /* \"#utility.yul\":10984:10992   */\n      dup7\n        /* \"#utility.yul\":10980:10999   */\n      and\n        /* \"#utility.yul\":10973:10978   */\n      dup5\n        /* \"#utility.yul\":10970:11000   */\n      or\n        /* \"#utility.yul\":10960:11000   */\n      swap3\n      pop\n        /* \"#utility.yul\":10689:11006   */\n      pop\n      pop\n        /* \"#utility.yul\":10613:11006   */\n      swap4\n      swap3\n      pop\n      pop\n      pop\n      jump\t// out\n        /* \"#utility.yul\":11012:11072   */\n    tag_132:\n        /* \"#utility.yul\":11040:11043   */\n      0x00\n        /* \"#utility.yul\":11061:11066   */\n      dup2\n        /* \"#utility.yul\":11054:11066   */\n      swap1\n      pop\n        /* \"#utility.yul\":11012:11072   */\n      swap2\n      swap1\n      pop\n      jump\t// out\n        /* \"#utility.yul\":11078:11220   */\n    tag_133:\n        /* \"#utility.yul\":11128:11137   */\n      0x00\n        /* \"#utility.yul\":11161:11214   */\n      tag_260\n        /* \"#utility.yul\":11179:11213   */\n      tag_261\n        /* \"#utility.yul\":11188:11212   */\n      tag_262\n        /* \"#utility.yul\":11206:11211   */\n      dup5\n        /* \"#utility.yul\":11188:11212   */\n      tag_103\n      jump\t// in\n    tag_262:\n        /* \"#utility.yul\":11179:11213   */\n      tag_132\n      jump\t// in\n    tag_261:\n        /* \"#utility.yul\":11161:11214   */\n      tag_103\n      jump\t// in\n    tag_260:\n        /* \"#utility.yul\":11148:11214   */\n      swap1\n      pop\n        /* \"#utility.yul\":11078:11220   */\n      swap2\n      swap1\n      pop\n      jump\t// out\n        /* \"#utility.yul\":11226:11301   */\n    tag_134:\n        /* \"#utility.yul\":11269:11272   */\n      0x00\n        /* \"#utility.yul\":11290:11295   */\n      dup2\n        /* \"#utility.yul\":11283:11295   */\n      swap1\n      pop\n        /* \"#utility.yul\":11226:11301   */\n      swap2\n      swap1\n      pop\n      jump\t// out\n        /* \"#utility.yul\":11307:11576   */\n    tag_135:\n        /* \"#utility.yul\":11417:11456   */\n      tag_265\n        /* \"#utility.yul\":11448:11455   */\n      dup4\n        /* \"#utility.yul\":11417:11456   */\n      tag_133\n      jump\t// in\n    tag_265:\n        /* \"#utility.yul\":11478:11569   */\n      tag_266\n        /* \"#utility.yul\":11527:11568   */\n      tag_267\n        /* \"#utility.yul\":11551:11567   */\n      dup3\n        /* \"#utility.yul\":11527:11568   */\n      tag_134\n      jump\t// in\n    tag_267:\n        /* \"#utility.yul\":11519:11525   */\n      dup5\n        /* \"#utility.yul\":11512:11516   */\n      dup5\n        /* \"#utility.yul\":11506:11517   */\n      sload\n        /* \"#utility.yul\":11478:11569   */\n      tag_131\n      jump\t// in\n    tag_266:\n        /* \"#utility.yul\":11472:11476   */\n      dup3\n        /* \"#utility.yul\":11465:11570   */\n      sstore\n        /* \"#utility.yul\":11383:11576   */\n      pop\n        /* \"#utility.yul\":11307:11576   */\n      pop\n      pop\n      pop\n      jump\t// out\n        /* \"#utility.yul\":11582:11655   */\n    tag_136:\n        /* \"#utility.yul\":11627:11630   */\n      0x00\n        /* \"#utility.yul\":11582:11655   */\n      swap1\n      jump\t// out\n        /* \"#utility.yul\":11661:11850   */\n    tag_137:\n        /* \"#utility.yul\":11738:11770   */\n      tag_270\n      tag_136\n      jump\t// in\n    tag_270:\n        /* \"#utility.yul\":11779:11844   */\n      tag_271\n        /* \"#utility.yul\":11837:11843   */\n      dup2\n        /* \"#utility.yul\":11829:11835   */\n      dup5\n        /* \"#utility.yul\":11823:11827   */\n      dup5\n        /* \"#utility.yul\":11779:11844   */\n      tag_135\n      jump\t// in\n    tag_271:\n        /* \"#utility.yul\":11714:11850   */\n      pop\n        /* \"#utility.yul\":11661:11850   */\n      pop\n      pop\n      jump\t// out\n        /* \"#utility.yul\":11856:12042   */\n    tag_138:\n        /* \"#utility.yul\":11916:12036   */\n    tag_273:\n        /* \"#utility.yul\":11933:11936   */\n      dup2\n        /* \"#utility.yul\":11926:11931   */\n      dup2\n        /* \"#utility.yul\":11923:11937   */\n      lt\n        /* \"#utility.yul\":11916:12036   */\n      iszero\n      tag_275\n      jumpi\n        /* \"#utility.yul\":11987:12026   */\n      tag_276\n        /* \"#utility.yul\":12024:12025   */\n      0x00\n        /* \"#utility.yul\":12017:12022   */\n      dup3\n        /* \"#utility.yul\":11987:12026   */\n      tag_137\n      jump\t// in\n    tag_276:\n        /* \"#utility.yul\":11960:11961   */\n      0x01\n        /* \"#utility.yul\":11953:11958   */\n      dup2\n        /* \"#utility.yul\":11949:11962   */\n      add\n        /* \"#utility.yul\":11940:11962   */\n      swap1\n      pop\n        /* \"#utility.yul\":11916:12036   */\n      jump(tag_273)\n    tag_275:\n        /* \"#utility.yul\":11856:12042   */\n      pop\n      pop\n      jump\t// out\n        /* \"#utility.yul\":12048:12591   */\n    tag_139:\n        /* \"#utility.yul\":12149:12151   */\n      0x1f\n        /* \"#utility.yul\":12144:12147   */\n      dup3\n        /* \"#utility.yul\":12141:12152   */\n      gt\n        /* \"#utility.yul\":12138:12584   */\n      iszero\n      tag_278\n      jumpi\n        /* \"#utility.yul\":12183:12221   */\n      tag_279\n        /* \"#utility.yul\":12215:12220   */\n      dup2\n        /* \"#utility.yul\":12183:12221   */\n      tag_128\n      jump\t// in\n    tag_279:\n        /* \"#utility.yul\":12267:12296   */\n      tag_280\n        /* \"#utility.yul\":12285:12295   */\n      dup5\n        /* \"#utility.yul\":12267:12296   */\n      tag_129\n      jump\t// in\n    tag_280:\n        /* \"#utility.yul\":12257:12265   */\n      dup2\n        /* \"#utility.yul\":12253:12297   */\n      add\n        /* \"#utility.yul\":12450:12452   */\n      0x20\n        /* \"#utility.yul\":12438:12448   */\n      dup6\n        /* \"#utility.yul\":12435:12453   */\n      lt\n        /* \"#utility.yul\":12432:12481   */\n      iszero\n      tag_281\n      jumpi\n        /* \"#utility.yul\":12471:12479   */\n      dup2\n        /* \"#utility.yul\":12456:12479   */\n      swap1\n      pop\n        /* \"#utility.yul\":12432:12481   */\n    tag_281:\n        /* \"#utility.yul\":12494:12574   */\n      tag_282\n        /* \"#utility.yul\":12550:12572   */\n      tag_283\n        /* \"#utility.yul\":12568:12571   */\n      dup6\n        /* \"#utility.yul\":12550:12572   */\n      tag_129\n      jump\t// in\n    tag_283:\n        /* \"#utility.yul\":12540:12548   */\n      dup4\n        /* \"#utility.yul\":12536:12573   */\n      add\n        /* \"#utility.yul\":12523:12534   */\n      dup3\n        /* \"#utility.yul\":12494:12574   */\n      tag_138\n      jump\t// in\n    tag_282:\n        /* \"#utility.yul\":12153:12584   */\n      pop\n      pop\n        /* \"#utility.yul\":12138:12584   */\n    tag_278:\n        /* \"#utility.yul\":12048:12591   */\n      pop\n      pop\n      pop\n      jump\t// out\n        /* \"#utility.yul\":12597:12714   */\n    tag_140:\n        /* \"#utility.yul\":12651:12659   */\n      0x00\n        /* \"#utility.yul\":12701:12706   */\n      dup3\n        /* \"#utility.yul\":12695:12699   */\n      dup3\n        /* \"#utility.yul\":12691:12707   */\n      shr\n        /* \"#utility.yul\":12670:12707   */\n      swap1\n      pop\n        /* \"#utility.yul\":12597:12714   */\n      swap3\n      swap2\n      pop\n      pop\n      jump\t// out\n        /* \"#utility.yul\":12720:12889   */\n    tag_141:\n        /* \"#utility.yul\":12764:12770   */\n      0x00\n        /* \"#utility.yul\":12797:12848   */\n      tag_286\n        /* \"#utility.yul\":12845:12846   */\n      0x00\n        /* \"#utility.yul\":12841:12847   */\n      not\n        /* \"#utility.yul\":12833:12838   */\n      dup5\n        /* \"#utility.yul\":12830:12831   */\n      0x08\n        /* \"#utility.yul\":12826:12839   */\n      mul\n        /* \"#utility.yul\":12797:12848   */\n      tag_140\n      jump\t// in\n    tag_286:\n        /* \"#utility.yul\":12793:12849   */\n      not\n        /* \"#utility.yul\":12878:12882   */\n      dup1\n        /* \"#utility.yul\":12872:12876   */\n      dup4\n        /* \"#utility.yul\":12868:12883   */\n      and\n        /* \"#utility.yul\":12858:12883   */\n      swap2\n      pop\n        /* \"#utility.yul\":12771:12889   */\n      pop\n        /* \"#utility.yul\":12720:12889   */\n      swap3\n      swap2\n      pop\n      pop\n      jump\t// out\n        /* \"#utility.yul\":12894:13189   */\n    tag_142:\n        /* \"#utility.yul\":12970:12974   */\n      0x00\n        /* \"#utility.yul\":13116:13145   */\n      tag_288\n        /* \"#utility.yul\":13141:13144   */\n      dup4\n        /* \"#utility.yul\":13135:13139   */\n      dup4\n        /* \"#utility.yul\":13116:13145   */\n      tag_141\n      jump\t// in\n    tag_288:\n        /* \"#utility.yul\":13108:13145   */\n      swap2\n      pop\n        /* \"#utility.yul\":13178:13181   */\n      dup3\n        /* \"#utility.yul\":13175:13176   */\n      0x02\n        /* \"#utility.yul\":13171:13182   */\n      mul\n        /* \"#utility.yul\":13165:13169   */\n      dup3\n        /* \"#utility.yul\":13162:13183   */\n      or\n        /* \"#utility.yul\":13154:13183   */\n      swap1\n      pop\n        /* \"#utility.yul\":12894:13189   */\n      swap3\n      swap2\n      pop\n      pop\n      jump\t// out\n        /* \"#utility.yul\":13194:14589   */\n    tag_57:\n        /* \"#utility.yul\":13311:13348   */\n      tag_290\n        /* \"#utility.yul\":13344:13347   */\n      dup3\n        /* \"#utility.yul\":13311:13348   */\n      tag_95\n      jump\t// in\n    tag_290:\n        /* \"#utility.yul\":13413:13431   */\n      0xffffffffffffffff\n        /* \"#utility.yul\":13405:13411   */\n      dup2\n        /* \"#utility.yul\":13402:13432   */\n      gt\n        /* \"#utility.yul\":13399:13455   */\n      iszero\n      tag_291\n      jumpi\n        /* \"#utility.yul\":13435:13453   */\n      tag_292\n      tag_114\n      jump\t// in\n    tag_292:\n        /* \"#utility.yul\":13399:13455   */\n    tag_291:\n        /* \"#utility.yul\":13479:13517   */\n      tag_293\n        /* \"#utility.yul\":13511:13515   */\n      dup3\n        /* \"#utility.yul\":13505:13516   */\n      sload\n        /* \"#utility.yul\":13479:13517   */\n      tag_43\n      jump\t// in\n    tag_293:\n        /* \"#utility.yul\":13564:13631   */\n      tag_294\n        /* \"#utility.yul\":13624:13630   */\n      dup3\n        /* \"#utility.yul\":13616:13622   */\n      dup3\n        /* \"#utility.yul\":13610:13614   */\n      dup6\n        /* \"#utility.yul\":13564:13631   */\n      tag_139\n      jump\t// in\n    tag_294:\n        /* \"#utility.yul\":13658:13659   */\n      0x00\n        /* \"#utility.yul\":13682:13686   */\n      0x20\n        /* \"#utility.yul\":13669:13686   */\n      swap1\n      pop\n        /* \"#utility.yul\":13714:13716   */\n      0x1f\n        /* \"#utility.yul\":13706:13712   */\n      dup4\n        /* \"#utility.yul\":13703:13717   */\n      gt\n        /* \"#utility.yul\":13731:13732   */\n      0x01\n        /* \"#utility.yul\":13726:14344   */\n      dup2\n      eq\n      tag_296\n      jumpi\n        /* \"#utility.yul\":14388:14389   */\n      0x00\n        /* \"#utility.yul\":14405:14411   */\n      dup5\n        /* \"#utility.yul\":14402:14479   */\n      iszero\n      tag_297\n      jumpi\n        /* \"#utility.yul\":14454:14463   */\n      dup3\n        /* \"#utility.yul\":14449:14452   */\n      dup8\n        /* \"#utility.yul\":14445:14464   */\n      add\n        /* \"#utility.yul\":14439:14465   */\n      mload\n        /* \"#utility.yul\":14430:14465   */\n      swap1\n      pop\n        /* \"#utility.yul\":14402:14479   */\n    tag_297:\n        /* \"#utility.yul\":14505:14572   */\n      tag_298\n        /* \"#utility.yul\":14565:14571   */\n      dup6\n        /* \"#utility.yul\":14558:14563   */\n      dup3\n        /* \"#utility.yul\":14505:14572   */\n      tag_142\n      jump\t// in\n    tag_298:\n        /* \"#utility.yul\":14499:14503   */\n      dup7\n        /* \"#utility.yul\":14492:14573   */\n      sstore\n        /* \"#utility.yul\":14361:14583   */\n      pop\n        /* \"#utility.yul\":13696:14583   */\n      jump(tag_295)\n        /* \"#utility.yul\":13726:14344   */\n    tag_296:\n        /* \"#utility.yul\":13778:13782   */\n      0x1f\n        /* \"#utility.yul\":13774:13783   */\n      not\n        /* \"#utility.yul\":13766:13772   */\n      dup5\n        /* \"#utility.yul\":13762:13784   */\n      and\n        /* \"#utility.yul\":13812:13849   */\n      tag_299\n        /* \"#utility.yul\":13844:13848   */\n      dup7\n        /* \"#utility.yul\":13812:13849   */\n      tag_128\n      jump\t// in\n    tag_299:\n        /* \"#utility.yul\":13871:13872   */\n      0x00\n        /* \"#utility.yul\":13885:14093   */\n    tag_300:\n        /* \"#utility.yul\":13899:13906   */\n      dup3\n        /* \"#utility.yul\":13896:13897   */\n      dup2\n        /* \"#utility.yul\":13893:13907   */\n      lt\n        /* \"#utility.yul\":13885:14093   */\n      iszero\n      tag_302\n      jumpi\n        /* \"#utility.yul\":13978:13987   */\n      dup5\n        /* \"#utility.yul\":13973:13976   */\n      dup10\n        /* \"#utility.yul\":13969:13988   */\n      add\n        /* \"#utility.yul\":13963:13989   */\n      mload\n        /* \"#utility.yul\":13955:13961   */\n      dup3\n        /* \"#utility.yul\":13948:13990   */\n      sstore\n        /* \"#utility.yul\":14029:14030   */\n      0x01\n        /* \"#utility.yul\":14021:14027   */\n      dup3\n        /* \"#utility.yul\":14017:14031   */\n      add\n        /* \"#utility.yul\":14007:14031   */\n      swap2\n      pop\n        /* \"#utility.yul\":14076:14078   */\n      0x20\n        /* \"#utility.yul\":14065:14074   */\n      dup6\n        /* \"#utility.yul\":14061:14079   */\n      add\n        /* \"#utility.yul\":14048:14079   */\n      swap5\n      pop\n        /* \"#utility.yul\":13922:13926   */\n      0x20\n        /* \"#utility.yul\":13919:13920   */\n      dup2\n        /* \"#utility.yul\":13915:13927   */\n      add\n        /* \"#utility.yul\":13910:13927   */\n      swap1\n      pop\n        /* \"#utility.yul\":13885:14093   */\n      jump(tag_300)\n    tag_302:\n        /* \"#utility.yul\":14121:14127   */\n      dup7\n        /* \"#utility.yul\":14112:14119   */\n      dup4\n        /* \"#utility.yul\":14109:14128   */\n      lt\n        /* \"#utility.yul\":14106:14285   */\n      iszero\n      tag_303\n      jumpi\n        /* \"#utility.yul\":14179:14188   */\n      dup5\n        /* \"#utility.yul\":14174:14177   */\n      dup10\n        /* \"#utility.yul\":14170:14189   */\n      add\n        /* \"#utility.yul\":14164:14190   */\n      mload\n        /* \"#utility.yul\":14222:14270   */\n      tag_304\n        /* \"#utility.yul\":14264:14268   */\n      0x1f\n        /* \"#utility.yul\":14256:14262   */\n      dup10\n        /* \"#utility.yul\":14252:14269   */\n      and\n        /* \"#utility.yul\":14241:14250   */\n      dup3\n        /* \"#utility.yul\":14222:14270   */\n      tag_141\n      jump\t// in\n    tag_304:\n        /* \"#utility.yul\":14214:14220   */\n      dup4\n        /* \"#utility.yul\":14207:14271   */\n      sstore\n        /* \"#utility.yul\":14129:14285   */\n      pop\n        /* \"#utility.yul\":14106:14285   */\n    tag_303:\n        /* \"#utility.yul\":14331:14332   */\n      0x01\n        /* \"#utility.yul\":14327:14328   */\n      0x02\n        /* \"#utility.yul\":14319:14325   */\n      dup9\n        /* \"#utility.yul\":14315:14329   */\n      mul\n        /* \"#utility.yul\":14311:14333   */\n      add\n        /* \"#utility.yul\":14305:14309   */\n      dup9\n        /* \"#utility.yul\":14298:14334   */\n      sstore\n        /* \"#utility.yul\":13733:14344   */\n      pop\n      pop\n      pop\n        /* \"#utility.yul\":13696:14583   */\n    tag_295:\n      pop\n        /* \"#utility.yul\":13286:14589   */\n      pop\n      pop\n      pop\n        /* \"#utility.yul\":13194:14589   */\n      pop\n      pop\n      jump\t// out\n        /* \"#utility.yul\":14595:14737   */\n    tag_143:\n        /* \"#utility.yul\":14698:14730   */\n      tag_306\n        /* \"#utility.yul\":14724:14729   */\n      dup2\n        /* \"#utility.yul\":14698:14730   */\n      tag_107\n      jump\t// in\n    tag_306:\n        /* \"#utility.yul\":14693:14696   */\n      dup3\n        /* \"#utility.yul\":14686:14731   */\n      mstore\n        /* \"#utility.yul\":14595:14737   */\n      pop\n      pop\n      jump\t// out\n        /* \"#utility.yul\":14743:15328   */\n    tag_59:\n        /* \"#utility.yul\":14936:14940   */\n      0x00\n        /* \"#utility.yul\":14974:14977   */\n      0x80\n        /* \"#utility.yul\":14963:14972   */\n      dup3\n        /* \"#utility.yul\":14959:14978   */\n      add\n        /* \"#utility.yul\":14951:14978   */\n      swap1\n      pop\n        /* \"#utility.yul\":14988:15059   */\n      tag_308\n        /* \"#utility.yul\":15056:15057   */\n      0x00\n        /* \"#utility.yul\":15045:15054   */\n      dup4\n        /* \"#utility.yul\":15041:15058   */\n      add\n        /* \"#utility.yul\":15032:15038   */\n      dup8\n        /* \"#utility.yul\":14988:15059   */\n      tag_121\n      jump\t// in\n    tag_308:\n        /* \"#utility.yul\":15069:15141   */\n      tag_309\n        /* \"#utility.yul\":15137:15139   */\n      0x20\n        /* \"#utility.yul\":15126:15135   */\n      dup4\n        /* \"#utility.yul\":15122:15140   */\n      add\n        /* \"#utility.yul\":15113:15119   */\n      dup7\n        /* \"#utility.yul\":15069:15141   */\n      tag_121\n      jump\t// in\n    tag_309:\n        /* \"#utility.yul\":15151:15223   */\n      tag_310\n        /* \"#utility.yul\":15219:15221   */\n      0x40\n        /* \"#utility.yul\":15208:15217   */\n      dup4\n        /* \"#utility.yul\":15204:15222   */\n      add\n        /* \"#utility.yul\":15195:15201   */\n      dup6\n        /* \"#utility.yul\":15151:15223   */\n      tag_121\n      jump\t// in\n    tag_310:\n        /* \"#utility.yul\":15233:15321   */\n      tag_311\n        /* \"#utility.yul\":15317:15319   */\n      0x60\n        /* \"#utility.yul\":15306:15315   */\n      dup4\n        /* \"#utility.yul\":15302:15320   */\n      add\n        /* \"#utility.yul\":15293:15299   */\n      dup5\n        /* \"#utility.yul\":15233:15321   */\n      tag_143\n      jump\t// in\n    tag_311:\n        /* \"#utility.yul\":14743:15328   */\n      swap6\n      swap5\n      pop\n      pop\n      pop\n      pop\n      pop\n      jump\t// out\n        /* \"#utility.yul\":15334:15899   */\n    tag_75:\n        /* \"#utility.yul\":15519:15523   */\n      0x00\n        /* \"#utility.yul\":15557:15559   */\n      0x60\n        /* \"#utility.yul\":15546:15555   */\n      dup3\n        /* \"#utility.yul\":15542:15560   */\n      add\n        /* \"#utility.yul\":15534:15560   */\n      swap1\n      pop\n        /* \"#utility.yul\":15570:15641   */\n      tag_313\n        /* \"#utility.yul\":15638:15639   */\n      0x00\n        /* \"#utility.yul\":15627:15636   */\n      dup4\n        /* \"#utility.yul\":15623:15640   */\n      add\n        /* \"#utility.yul\":15614:15620   */\n      dup7\n        /* \"#utility.yul\":15570:15641   */\n      tag_121\n      jump\t// in\n    tag_313:\n        /* \"#utility.yul\":15688:15697   */\n      dup2\n        /* \"#utility.yul\":15682:15686   */\n      dup2\n        /* \"#utility.yul\":15678:15698   */\n      sub\n        /* \"#utility.yul\":15673:15675   */\n      0x20\n        /* \"#utility.yul\":15662:15671   */\n      dup4\n        /* \"#utility.yul\":15658:15676   */\n      add\n        /* \"#utility.yul\":15651:15699   */\n      mstore\n        /* \"#utility.yul\":15716:15794   */\n      tag_314\n        /* \"#utility.yul\":15789:15793   */\n      dup2\n        /* \"#utility.yul\":15780:15786   */\n      dup6\n        /* \"#utility.yul\":15716:15794   */\n      tag_99\n      jump\t// in\n    tag_314:\n        /* \"#utility.yul\":15708:15794   */\n      swap1\n      pop\n        /* \"#utility.yul\":15804:15892   */\n      tag_315\n        /* \"#utility.yul\":15888:15890   */\n      0x40\n        /* \"#utility.yul\":15877:15886   */\n      dup4\n        /* \"#utility.yul\":15873:15891   */\n      add\n        /* \"#utility.yul\":15864:15870   */\n      dup5\n        /* \"#utility.yul\":15804:15892   */\n      tag_143\n      jump\t// in\n    tag_315:\n        /* \"#utility.yul\":15334:15899   */\n      swap5\n      swap4\n      pop\n      pop\n      pop\n      pop\n      jump\t// out\n        /* \"#utility.yul\":15905:16085   */\n    tag_144:\n        /* \"#utility.yul\":15953:16030   */\n      0x4e487b7100000000000000000000000000000000000000000000000000000000\n        /* \"#utility.yul\":15950:15951   */\n      0x00\n        /* \"#utility.yul\":15943:16031   */\n      mstore\n        /* \"#utility.yul\":16050:16054   */\n      0x11\n        /* \"#utility.yul\":16047:16048   */\n      0x04\n        /* \"#utility.yul\":16040:16055   */\n      mstore\n        /* \"#utility.yul\":16074:16078   */\n      0x24\n        /* \"#utility.yul\":16071:16072   */\n      0x00\n        /* \"#utility.yul\":16064:16079   */\n      revert\n        /* \"#utility.yul\":16091:16324   */\n    tag_81:\n        /* \"#utility.yul\":16130:16133   */\n      0x00\n        /* \"#utility.yul\":16153:16177   */\n      tag_318\n        /* \"#utility.yul\":16171:16176   */\n      dup3\n        /* \"#utility.yul\":16153:16177   */\n      tag_103\n      jump\t// in\n    tag_318:\n        /* \"#utility.yul\":16144:16177   */\n      swap2\n      pop\n        /* \"#utility.yul\":16199:16265   */\n      0xffffffffffffffffffffffffffffffffffffffffffffffffffffffffffffffff\n        /* \"#utility.yul\":16192:16197   */\n      dup3\n        /* \"#utility.yul\":16189:16266   */\n      sub\n        /* \"#utility.yul\":16186:16289   */\n      tag_319\n      jumpi\n        /* \"#utility.yul\":16269:16287   */\n      tag_320\n      tag_144\n      jump\t// in\n    tag_320:\n        /* \"#utility.yul\":16186:16289   */\n    tag_319:\n        /* \"#utility.yul\":16316:16317   */\n      0x01\n        /* \"#utility.yul\":16309:16314   */\n      dup3\n        /* \"#utility.yul\":16305:16318   */\n      add\n        /* \"#utility.yul\":16298:16318   */\n      swap1\n      pop\n        /* \"#utility.yul\":16091:16324   */\n      swap2\n      swap1\n      pop\n      jump\t// out\n        /* \"#utility.yul\":16330:17006   */\n    tag_84:\n        /* \"#utility.yul\":16543:16547   */\n      0x00\n        /* \"#utility.yul\":16581:16584   */\n      0x80\n        /* \"#utility.yul\":16570:16579   */\n      dup3\n        /* \"#utility.yul\":16566:16585   */\n      add\n        /* \"#utility.yul\":16558:16585   */\n      swap1\n      pop\n        /* \"#utility.yul\":16595:16666   */\n      tag_322\n        /* \"#utility.yul\":16663:16664   */\n      0x00\n        /* \"#utility.yul\":16652:16661   */\n      dup4\n        /* \"#utility.yul\":16648:16665   */\n      add\n        /* \"#utility.yul\":16639:16645   */\n      dup8\n        /* \"#utility.yul\":16595:16666   */\n      tag_121\n      jump\t// in\n    tag_322:\n        /* \"#utility.yul\":16676:16748   */\n      tag_323\n        /* \"#utility.yul\":16744:16746   */\n      0x20\n        /* \"#utility.yul\":16733:16742   */\n      dup4\n        /* \"#utility.yul\":16729:16747   */\n      add\n        /* \"#utility.yul\":16720:16726   */\n      dup7\n        /* \"#utility.yul\":16676:16748   */\n      tag_121\n      jump\t// in\n    tag_323:\n        /* \"#utility.yul\":16795:16804   */\n      dup2\n        /* \"#utility.yul\":16789:16793   */\n      dup2\n        /* \"#utility.yul\":16785:16805   */\n      sub\n        /* \"#utility.yul\":16780:16782   */\n      0x40\n        /* \"#utility.yul\":16769:16778   */\n      dup4\n        /* \"#utility.yul\":16765:16783   */\n      add\n        /* \"#utility.yul\":16758:16806   */\n      mstore\n        /* \"#utility.yul\":16823:16901   */\n      tag_324\n        /* \"#utility.yul\":16896:16900   */\n      dup2\n        /* \"#utility.yul\":16887:16893   */\n      dup6\n        /* \"#utility.yul\":16823:16901   */\n      tag_99\n      jump\t// in\n    tag_324:\n        /* \"#utility.yul\":16815:16901   */\n      swap1\n      pop\n        /* \"#utility.yul\":16911:16999   */\n      tag_325\n        /* \"#utility.yul\":16995:16997   */\n      0x60\n        /* \"#utility.yul\":16984:16993   */\n      dup4\n        /* \"#utility.yul\":16980:16998   */\n      add\n        /* \"#utility.yul\":16971:16977   */\n      dup5\n        /* \"#utility.yul\":16911:16999   */\n      tag_143\n      jump\t// in\n    tag_325:\n        /* \"#utility.yul\":16330:17006   */\n      swap6\n      swap5\n      pop\n      pop\n      pop\n      pop\n      pop\n      jump\t// out\n\n    auxdata: 0xa26469706673582212204d0438ab7281b91b83568964d0408e5cb556a2fa23ea2b96afd781426ba0db0764736f6c63430008110033\n}\n",
				"bytecode": {
					"linkReferences": {},
					"object": "60806040526040518060400160405280600d81526020017f446f63756d656e746174696f6e00000000000000000000000000000000000000815250600090816200004a919062000325565b5060006001553480156200005d57600080fd5b506040518060400160405280600d81526020017f446f63756d656e746174696f6e0000000000000000000000000000000000000081525060009081620000a4919062000325565b506200040c565b600081519050919050565b7f4e487b7100000000000000000000000000000000000000000000000000000000600052604160045260246000fd5b7f4e487b7100000000000000000000000000000000000000000000000000000000600052602260045260246000fd5b600060028204905060018216806200012d57607f821691505b602082108103620001435762000142620000e5565b5b50919050565b60008190508160005260206000209050919050565b60006020601f8301049050919050565b600082821b905092915050565b600060088302620001ad7fffffffffffffffffffffffffffffffffffffffffffffffffffffffffffffffff826200016e565b620001b986836200016e565b95508019841693508086168417925050509392505050565b6000819050919050565b6000819050919050565b60006200020662000200620001fa84620001d1565b620001db565b620001d1565b9050919050565b6000819050919050565b6200022283620001e5565b6200023a62000231826200020d565b8484546200017b565b825550505050565b600090565b6200025162000242565b6200025e81848462000217565b505050565b5b8181101562000286576200027a60008262000247565b60018101905062000264565b5050565b601f821115620002d5576200029f8162000149565b620002aa846200015e565b81016020851015620002ba578190505b620002d2620002c9856200015e565b83018262000263565b50505b505050565b600082821c905092915050565b6000620002fa60001984600802620002da565b1980831691505092915050565b6000620003158383620002e7565b9150826002028217905092915050565b6200033082620000ab565b67ffffffffffffffff8111156200034c576200034b620000b6565b5b62000358825462000114565b620003658282856200028a565b600060209050601f8311600181146200039d576000841562000388578287015190505b62000394858262000307565b86555062000404565b601f198416620003ad8662000149565b60005b82811015620003d757848901518255600182019150602085019450602081019050620003b0565b86831015620003f75784890151620003f3601f891682620002e7565b8355505b6001600288020188555050505b505050505050565b611332806200041c6000396000f3fe608060405234801561001057600080fd5b506004361061007d5760003560e01c8063540c74ec1161005b578063540c74ec146100ec578063697d37f714610108578063e28afdfc14610138578063ef1a5668146101565761007d565b806306fdde03146100825780631d6607b7146100a0578063330ba56a146100bc575b600080fd5b61008a610186565b6040516100979190610a7b565b60405180910390f35b6100ba60048036038101906100b59190610b45565b610214565b005b6100d660048036038101906100d19190610b98565b610434565b6040516100e39190610be0565b60405180910390f35b61010660048036038101906101019190610d30565b61045e565b005b610122600480360381019061011d9190610d30565b6106c4565b60405161012f9190610dae565b60405180910390f35b610140610854565b60405161014d9190610dae565b60405180910390f35b610170600480360381019061016b9190610b98565b61085a565b60405161017d9190610ea7565b60405180910390f35b6000805461019390610ef8565b80601f01602080910402602001604051908101604052809291908181526020018280546101bf90610ef8565b801561020c5780601f106101e15761010080835404028352916020019161020c565b820191906000526020600020905b8154815290600101906020018083116101ef57829003601f168201915b505050505081565b6001151561022184610434565b15151461022d57600080fd5b6000600260008581526020019081526020016000206040518060a0016040529081600082015481526020016001820154815260200160028201805461027190610ef8565b80601f016020809104026020016040519081016040528092919081815260200182805461029d90610ef8565b80156102ea5780601f106102bf576101008083540402835291602001916102ea565b820191906000526020600020905b8154815290600101906020018083116102cd57829003601f168201915b50505050508152602001600382015481526020016004820160009054906101000a900473ffffffffffffffffffffffffffffffffffffffff1673ffffffffffffffffffffffffffffffffffffffff1673ffffffffffffffffffffffffffffffffffffffff168152505090508281602001818152505080600260008681526020019081526020016000206000820151816000015560208201518160010155604082015181600201908161039c91906110d5565b506060820151816003015560808201518160040160006101000a81548173ffffffffffffffffffffffffffffffffffffffff021916908373ffffffffffffffffffffffffffffffffffffffff1602179055509050507f99ceadde65af29c4045d9fdce70f3cfadec0a1912c8f4c6646f3c94eca2a83488484428560405161042694939291906111b6565b60405180910390a150505050565b60008082111580610446575060015482115b156104545760009050610459565b600190505b919050565b60008311801561047057506001548311155b61047957600080fd5b600082511161048757600080fd5b600073ffffffffffffffffffffffffffffffffffffffff168173ffffffffffffffffffffffffffffffffffffffff16036104c057600080fd5b6000600260008581526020019081526020016000206040518060a0016040529081600082015481526020016001820154815260200160028201805461050490610ef8565b80601f016020809104026020016040519081016040528092919081815260200182805461053090610ef8565b801561057d5780601f106105525761010080835404028352916020019161057d565b820191906000526020600020905b81548152906001019060200180831161056057829003601f168201915b50505050508152602001600382015481526020016004820160009054906101000a900473ffffffffffffffffffffffffffffffffffffffff1673ffffffffffffffffffffffffffffffffffffffff1673ffffffffffffffffffffffffffffffffffffffff1681525050905082816040018190525080600260008681526020019081526020016000206000820151816000015560208201518160010155604082015181600201908161062e91906110d5565b506060820151816003015560808201518160040160006101000a81548173ffffffffffffffffffffffffffffffffffffffff021916908373ffffffffffffffffffffffffffffffffffffffff1602179055509050507f17915ef8086651997dc9a51652fafcda7a028200c5d72214eec1c7cd56546ab18484846040516106b6939291906111fb565b60405180910390a150505050565b6000606060008073ffffffffffffffffffffffffffffffffffffffff168473ffffffffffffffffffffffffffffffffffffffff160361070257600080fd5b600086111561070f578590505b60008551111561071d578491505b6001600081548092919061073090611268565b91905055506040518060a0016040528060015481526020018281526020018381526020014281526020018573ffffffffffffffffffffffffffffffffffffffff16815250600260006001548152602001908152602001600020600082015181600001556020820151816001015560408201518160020190816107b291906110d5565b506060820151816003015560808201518160040160006101000a81548173ffffffffffffffffffffffffffffffffffffffff021916908373ffffffffffffffffffffffffffffffffffffffff1602179055509050507fc67cdce5e692493b16f0f1eaa9c77340024dbfb3863bf5fca8e18221fb628da760015482848760405161083e94939291906112b0565b60405180910390a1600154925050509392505050565b60015481565b6108626109a6565b6001151561086f83610434565b15151461087b57600080fd5b600260008381526020019081526020016000206040518060a001604052908160008201548152602001600182015481526020016002820180546108bd90610ef8565b80601f01602080910402602001604051908101604052809291908181526020018280546108e990610ef8565b80156109365780601f1061090b57610100808354040283529160200191610936565b820191906000526020600020905b81548152906001019060200180831161091957829003601f168201915b50505050508152602001600382015481526020016004820160009054906101000a900473ffffffffffffffffffffffffffffffffffffffff1673ffffffffffffffffffffffffffffffffffffffff1673ffffffffffffffffffffffffffffffffffffffff16815250509050919050565b6040518060a0016040528060008152602001600081526020016060815260200160008152602001600073ffffffffffffffffffffffffffffffffffffffff1681525090565b600081519050919050565b600082825260208201905092915050565b60005b83811015610a25578082015181840152602081019050610a0a565b60008484015250505050565b6000601f19601f8301169050919050565b6000610a4d826109eb565b610a5781856109f6565b9350610a67818560208601610a07565b610a7081610a31565b840191505092915050565b60006020820190508181036000830152610a958184610a42565b905092915050565b6000604051905090565b600080fd5b600080fd5b6000819050919050565b610ac481610ab1565b8114610acf57600080fd5b50565b600081359050610ae181610abb565b92915050565b600073ffffffffffffffffffffffffffffffffffffffff82169050919050565b6000610b1282610ae7565b9050919050565b610b2281610b07565b8114610b2d57600080fd5b50565b600081359050610b3f81610b19565b92915050565b600080600060608486031215610b5e57610b5d610aa7565b5b6000610b6c86828701610ad2565b9350506020610b7d86828701610ad2565b9250506040610b8e86828701610b30565b9150509250925092565b600060208284031215610bae57610bad610aa7565b5b6000610bbc84828501610ad2565b91505092915050565b60008115159050919050565b610bda81610bc5565b82525050565b6000602082019050610bf56000830184610bd1565b92915050565b600080fd5b600080fd5b7f4e487b7100000000000000000000000000000000000000000000000000000000600052604160045260246000fd5b610c3d82610a31565b810181811067ffffffffffffffff82111715610c5c57610c5b610c05565b5b80604052505050565b6000610c6f610a9d565b9050610c7b8282610c34565b919050565b600067ffffffffffffffff821115610c9b57610c9a610c05565b5b610ca482610a31565b9050602081019050919050565b82818337600083830152505050565b6000610cd3610cce84610c80565b610c65565b905082815260208101848484011115610cef57610cee610c00565b5b610cfa848285610cb1565b509392505050565b600082601f830112610d1757610d16610bfb565b5b8135610d27848260208601610cc0565b91505092915050565b600080600060608486031215610d4957610d48610aa7565b5b6000610d5786828701610ad2565b935050602084013567ffffffffffffffff811115610d7857610d77610aac565b5b610d8486828701610d02565b9250506040610d9586828701610b30565b9150509250925092565b610da881610ab1565b82525050565b6000602082019050610dc36000830184610d9f565b92915050565b610dd281610ab1565b82525050565b600082825260208201905092915050565b6000610df4826109eb565b610dfe8185610dd8565b9350610e0e818560208601610a07565b610e1781610a31565b840191505092915050565b610e2b81610b07565b82525050565b600060a083016000830151610e496000860182610dc9565b506020830151610e5c6020860182610dc9565b5060408301518482036040860152610e748282610de9565b9150506060830151610e896060860182610dc9565b506080830151610e9c6080860182610e22565b508091505092915050565b60006020820190508181036000830152610ec18184610e31565b905092915050565b7f4e487b7100000000000000000000000000000000000000000000000000000000600052602260045260246000fd5b60006002820490506001821680610f1057607f821691505b602082108103610f2357610f22610ec9565b5b50919050565b60008190508160005260206000209050919050565b60006020601f8301049050919050565b600082821b905092915050565b600060088302610f8b7fffffffffffffffffffffffffffffffffffffffffffffffffffffffffffffffff82610f4e565b610f958683610f4e565b95508019841693508086168417925050509392505050565b6000819050919050565b6000610fd2610fcd610fc884610ab1565b610fad565b610ab1565b9050919050565b6000819050919050565b610fec83610fb7565b611000610ff882610fd9565b848454610f5b565b825550505050565b600090565b611015611008565b611020818484610fe3565b505050565b5b818110156110445761103960008261100d565b600181019050611026565b5050565b601f8211156110895761105a81610f29565b61106384610f3e565b81016020851015611072578190505b61108661107e85610f3e565b830182611025565b50505b505050565b600082821c905092915050565b60006110ac6000198460080261108e565b1980831691505092915050565b60006110c5838361109b565b9150826002028217905092915050565b6110de826109eb565b67ffffffffffffffff8111156110f7576110f6610c05565b5b6111018254610ef8565b61110c828285611048565b600060209050601f83116001811461113f576000841561112d578287015190505b61113785826110b9565b86555061119f565b601f19841661114d86610f29565b60005b8281101561117557848901518255600182019150602085019450602081019050611150565b86831015611192578489015161118e601f89168261109b565b8355505b6001600288020188555050505b505050505050565b6111b081610b07565b82525050565b60006080820190506111cb6000830187610d9f565b6111d86020830186610d9f565b6111e56040830185610d9f565b6111f260608301846111a7565b95945050505050565b60006060820190506112106000830186610d9f565b81810360208301526112228185610a42565b905061123160408301846111a7565b949350505050565b7f4e487b7100000000000000000000000000000000000000000000000000000000600052601160045260246000fd5b600061127382610ab1565b91507fffffffffffffffffffffffffffffffffffffffffffffffffffffffffffffffff82036112a5576112a4611239565b5b600182019050919050565b60006080820190506112c56000830187610d9f565b6112d26020830186610d9f565b81810360408301526112e48185610a42565b90506112f360608301846111a7565b9594505050505056fea26469706673582212204d0438ab7281b91b83568964d0408e5cb556a2fa23ea2b96afd781426ba0db0764736f6c63430008110033",
					"opcodes": "PUSH1 0x80 PUSH1 0x40 MSTORE PUSH1 0x40 MLOAD DUP1 PUSH1 0x40 ADD PUSH1 0x40 MSTORE DUP1 PUSH1 0xD DUP2 MSTORE PUSH1 0x20 ADD PUSH32 0x446F63756D656E746174696F6E00000000000000000000000000000000000000 DUP2 MSTORE POP PUSH1 0x0 SWAP1 DUP2 PUSH3 0x4A SWAP2 SWAP1 PUSH3 0x325 JUMP JUMPDEST POP PUSH1 0x0 PUSH1 0x1 SSTORE CALLVALUE DUP1 ISZERO PUSH3 0x5D JUMPI PUSH1 0x0 DUP1 REVERT JUMPDEST POP PUSH1 0x40 MLOAD DUP1 PUSH1 0x40 ADD PUSH1 0x40 MSTORE DUP1 PUSH1 0xD DUP2 MSTORE PUSH1 0x20 ADD PUSH32 0x446F63756D656E746174696F6E00000000000000000000000000000000000000 DUP2 MSTORE POP PUSH1 0x0 SWAP1 DUP2 PUSH3 0xA4 SWAP2 SWAP1 PUSH3 0x325 JUMP JUMPDEST POP PUSH3 0x40C JUMP JUMPDEST PUSH1 0x0 DUP2 MLOAD SWAP1 POP SWAP2 SWAP1 POP JUMP JUMPDEST PUSH32 0x4E487B7100000000000000000000000000000000000000000000000000000000 PUSH1 0x0 MSTORE PUSH1 0x41 PUSH1 0x4 MSTORE PUSH1 0x24 PUSH1 0x0 REVERT JUMPDEST PUSH32 0x4E487B7100000000000000000000000000000000000000000000000000000000 PUSH1 0x0 MSTORE PUSH1 0x22 PUSH1 0x4 MSTORE PUSH1 0x24 PUSH1 0x0 REVERT JUMPDEST PUSH1 0x0 PUSH1 0x2 DUP3 DIV SWAP1 POP PUSH1 0x1 DUP3 AND DUP1 PUSH3 0x12D JUMPI PUSH1 0x7F DUP3 AND SWAP2 POP JUMPDEST PUSH1 0x20 DUP3 LT DUP2 SUB PUSH3 0x143 JUMPI PUSH3 0x142 PUSH3 0xE5 JUMP JUMPDEST JUMPDEST POP SWAP2 SWAP1 POP JUMP JUMPDEST PUSH1 0x0 DUP2 SWAP1 POP DUP2 PUSH1 0x0 MSTORE PUSH1 0x20 PUSH1 0x0 KECCAK256 SWAP1 POP SWAP2 SWAP1 POP JUMP JUMPDEST PUSH1 0x0 PUSH1 0x20 PUSH1 0x1F DUP4 ADD DIV SWAP1 POP SWAP2 SWAP1 POP JUMP JUMPDEST PUSH1 0x0 DUP3 DUP3 SHL SWAP1 POP SWAP3 SWAP2 POP POP JUMP JUMPDEST PUSH1 0x0 PUSH1 0x8 DUP4 MUL PUSH3 0x1AD PUSH32 0xFFFFFFFFFFFFFFFFFFFFFFFFFFFFFFFFFFFFFFFFFFFFFFFFFFFFFFFFFFFFFFFF DUP3 PUSH3 0x16E JUMP JUMPDEST PUSH3 0x1B9 DUP7 DUP4 PUSH3 0x16E JUMP JUMPDEST SWAP6 POP DUP1 NOT DUP5 AND SWAP4 POP DUP1 DUP7 AND DUP5 OR SWAP3 POP POP POP SWAP4 SWAP3 POP POP POP JUMP JUMPDEST PUSH1 0x0 DUP2 SWAP1 POP SWAP2 SWAP1 POP JUMP JUMPDEST PUSH1 0x0 DUP2 SWAP1 POP SWAP2 SWAP1 POP JUMP JUMPDEST PUSH1 0x0 PUSH3 0x206 PUSH3 0x200 PUSH3 0x1FA DUP5 PUSH3 0x1D1 JUMP JUMPDEST PUSH3 0x1DB JUMP JUMPDEST PUSH3 0x1D1 JUMP JUMPDEST SWAP1 POP SWAP2 SWAP1 POP JUMP JUMPDEST PUSH1 0x0 DUP2 SWAP1 POP SWAP2 SWAP1 POP JUMP JUMPDEST PUSH3 0x222 DUP4 PUSH3 0x1E5 JUMP JUMPDEST PUSH3 0x23A PUSH3 0x231 DUP3 PUSH3 0x20D JUMP JUMPDEST DUP5 DUP5 SLOAD PUSH3 0x17B JUMP JUMPDEST DUP3 SSTORE POP POP POP POP JUMP JUMPDEST PUSH1 0x0 SWAP1 JUMP JUMPDEST PUSH3 0x251 PUSH3 0x242 JUMP JUMPDEST PUSH3 0x25E DUP2 DUP5 DUP5 PUSH3 0x217 JUMP JUMPDEST POP POP POP JUMP JUMPDEST JUMPDEST DUP2 DUP2 LT ISZERO PUSH3 0x286 JUMPI PUSH3 0x27A PUSH1 0x0 DUP3 PUSH3 0x247 JUMP JUMPDEST PUSH1 0x1 DUP2 ADD SWAP1 POP PUSH3 0x264 JUMP JUMPDEST POP POP JUMP JUMPDEST PUSH1 0x1F DUP3 GT ISZERO PUSH3 0x2D5 JUMPI PUSH3 0x29F DUP2 PUSH3 0x149 JUMP JUMPDEST PUSH3 0x2AA DUP5 PUSH3 0x15E JUMP JUMPDEST DUP2 ADD PUSH1 0x20 DUP6 LT ISZERO PUSH3 0x2BA JUMPI DUP2 SWAP1 POP JUMPDEST PUSH3 0x2D2 PUSH3 0x2C9 DUP6 PUSH3 0x15E JUMP JUMPDEST DUP4 ADD DUP3 PUSH3 0x263 JUMP JUMPDEST POP POP JUMPDEST POP POP POP JUMP JUMPDEST PUSH1 0x0 DUP3 DUP3 SHR SWAP1 POP SWAP3 SWAP2 POP POP JUMP JUMPDEST PUSH1 0x0 PUSH3 0x2FA PUSH1 0x0 NOT DUP5 PUSH1 0x8 MUL PUSH3 0x2DA JUMP JUMPDEST NOT DUP1 DUP4 AND SWAP2 POP POP SWAP3 SWAP2 POP POP JUMP JUMPDEST PUSH1 0x0 PUSH3 0x315 DUP4 DUP4 PUSH3 0x2E7 JUMP JUMPDEST SWAP2 POP DUP3 PUSH1 0x2 MUL DUP3 OR SWAP1 POP SWAP3 SWAP2 POP POP JUMP JUMPDEST PUSH3 0x330 DUP3 PUSH3 0xAB JUMP JUMPDEST PUSH8 0xFFFFFFFFFFFFFFFF DUP2 GT ISZERO PUSH3 0x34C JUMPI PUSH3 0x34B PUSH3 0xB6 JUMP JUMPDEST JUMPDEST PUSH3 0x358 DUP3 SLOAD PUSH3 0x114 JUMP JUMPDEST PUSH3 0x365 DUP3 DUP3 DUP6 PUSH3 0x28A JUMP JUMPDEST PUSH1 0x0 PUSH1 0x20 SWAP1 POP PUSH1 0x1F DUP4 GT PUSH1 0x1 DUP2 EQ PUSH3 0x39D JUMPI PUSH1 0x0 DUP5 ISZERO PUSH3 0x388 JUMPI DUP3 DUP8 ADD MLOAD SWAP1 POP JUMPDEST PUSH3 0x394 DUP6 DUP3 PUSH3 0x307 JUMP JUMPDEST DUP7 SSTORE POP PUSH3 0x404 JUMP JUMPDEST PUSH1 0x1F NOT DUP5 AND PUSH3 0x3AD DUP7 PUSH3 0x149 JUMP JUMPDEST PUSH1 0x0 JUMPDEST DUP3 DUP2 LT ISZERO PUSH3 0x3D7 JUMPI DUP5 DUP10 ADD MLOAD DUP3 SSTORE PUSH1 0x1 DUP3 ADD SWAP2 POP PUSH1 0x20 DUP6 ADD SWAP5 POP PUSH1 0x20 DUP2 ADD SWAP1 POP PUSH3 0x3B0 JUMP JUMPDEST DUP7 DUP4 LT ISZERO PUSH3 0x3F7 JUMPI DUP5 DUP10 ADD MLOAD PUSH3 0x3F3 PUSH1 0x1F DUP10 AND DUP3 PUSH3 0x2E7 JUMP JUMPDEST DUP4 SSTORE POP JUMPDEST PUSH1 0x1 PUSH1 0x2 DUP9 MUL ADD DUP9 SSTORE POP POP POP JUMPDEST POP POP POP POP POP POP JUMP JUMPDEST PUSH2 0x1332 DUP1 PUSH3 0x41C PUSH1 0x0 CODECOPY PUSH1 0x0 RETURN INVALID PUSH1 0x80 PUSH1 0x40 MSTORE CALLVALUE DUP1 ISZERO PUSH2 0x10 JUMPI PUSH1 0x0 DUP1 REVERT JUMPDEST POP PUSH1 0x4 CALLDATASIZE LT PUSH2 0x7D JUMPI PUSH1 0x0 CALLDATALOAD PUSH1 0xE0 SHR DUP1 PUSH4 0x540C74EC GT PUSH2 0x5B JUMPI DUP1 PUSH4 0x540C74EC EQ PUSH2 0xEC JUMPI DUP1 PUSH4 0x697D37F7 EQ PUSH2 0x108 JUMPI DUP1 PUSH4 0xE28AFDFC EQ PUSH2 0x138 JUMPI DUP1 PUSH4 0xEF1A5668 EQ PUSH2 0x156 JUMPI PUSH2 0x7D JUMP JUMPDEST DUP1 PUSH4 0x6FDDE03 EQ PUSH2 0x82 JUMPI DUP1 PUSH4 0x1D6607B7 EQ PUSH2 0xA0 JUMPI DUP1 PUSH4 0x330BA56A EQ PUSH2 0xBC JUMPI JUMPDEST PUSH1 0x0 DUP1 REVERT JUMPDEST PUSH2 0x8A PUSH2 0x186 JUMP JUMPDEST PUSH1 0x40 MLOAD PUSH2 0x97 SWAP2 SWAP1 PUSH2 0xA7B JUMP JUMPDEST PUSH1 0x40 MLOAD DUP1 SWAP2 SUB SWAP1 RETURN JUMPDEST PUSH2 0xBA PUSH1 0x4 DUP1 CALLDATASIZE SUB DUP2 ADD SWAP1 PUSH2 0xB5 SWAP2 SWAP1 PUSH2 0xB45 JUMP JUMPDEST PUSH2 0x214 JUMP JUMPDEST STOP JUMPDEST PUSH2 0xD6 PUSH1 0x4 DUP1 CALLDATASIZE SUB DUP2 ADD SWAP1 PUSH2 0xD1 SWAP2 SWAP1 PUSH2 0xB98 JUMP JUMPDEST PUSH2 0x434 JUMP JUMPDEST PUSH1 0x40 MLOAD PUSH2 0xE3 SWAP2 SWAP1 PUSH2 0xBE0 JUMP JUMPDEST PUSH1 0x40 MLOAD DUP1 SWAP2 SUB SWAP1 RETURN JUMPDEST PUSH2 0x106 PUSH1 0x4 DUP1 CALLDATASIZE SUB DUP2 ADD SWAP1 PUSH2 0x101 SWAP2 SWAP1 PUSH2 0xD30 JUMP JUMPDEST PUSH2 0x45E JUMP JUMPDEST STOP JUMPDEST PUSH2 0x122 PUSH1 0x4 DUP1 CALLDATASIZE SUB DUP2 ADD SWAP1 PUSH2 0x11D SWAP2 SWAP1 PUSH2 0xD30 JUMP JUMPDEST PUSH2 0x6C4 JUMP JUMPDEST PUSH1 0x40 MLOAD PUSH2 0x12F SWAP2 SWAP1 PUSH2 0xDAE JUMP JUMPDEST PUSH1 0x40 MLOAD DUP1 SWAP2 SUB SWAP1 RETURN JUMPDEST PUSH2 0x140 PUSH2 0x854 JUMP JUMPDEST PUSH1 0x40 MLOAD PUSH2 0x14D SWAP2 SWAP1 PUSH2 0xDAE JUMP JUMPDEST PUSH1 0x40 MLOAD DUP1 SWAP2 SUB SWAP1 RETURN JUMPDEST PUSH2 0x170 PUSH1 0x4 DUP1 CALLDATASIZE SUB DUP2 ADD SWAP1 PUSH2 0x16B SWAP2 SWAP1 PUSH2 0xB98 JUMP JUMPDEST PUSH2 0x85A JUMP JUMPDEST PUSH1 0x40 MLOAD PUSH2 0x17D SWAP2 SWAP1 PUSH2 0xEA7 JUMP JUMPDEST PUSH1 0x40 MLOAD DUP1 SWAP2 SUB SWAP1 RETURN JUMPDEST PUSH1 0x0 DUP1 SLOAD PUSH2 0x193 SWAP1 PUSH2 0xEF8 JUMP JUMPDEST DUP1 PUSH1 0x1F ADD PUSH1 0x20 DUP1 SWAP2 DIV MUL PUSH1 0x20 ADD PUSH1 0x40 MLOAD SWAP1 DUP2 ADD PUSH1 0x40 MSTORE DUP1 SWAP3 SWAP2 SWAP1 DUP2 DUP2 MSTORE PUSH1 0x20 ADD DUP3 DUP1 SLOAD PUSH2 0x1BF SWAP1 PUSH2 0xEF8 JUMP JUMPDEST DUP1 ISZERO PUSH2 0x20C JUMPI DUP1 PUSH1 0x1F LT PUSH2 0x1E1 JUMPI PUSH2 0x100 DUP1 DUP4 SLOAD DIV MUL DUP4 MSTORE SWAP2 PUSH1 0x20 ADD SWAP2 PUSH2 0x20C JUMP JUMPDEST DUP3 ADD SWAP2 SWAP1 PUSH1 0x0 MSTORE PUSH1 0x20 PUSH1 0x0 KECCAK256 SWAP1 JUMPDEST DUP2 SLOAD DUP2 MSTORE SWAP1 PUSH1 0x1 ADD SWAP1 PUSH1 0x20 ADD DUP1 DUP4 GT PUSH2 0x1EF JUMPI DUP3 SWAP1 SUB PUSH1 0x1F AND DUP3 ADD SWAP2 JUMPDEST POP POP POP POP POP DUP2 JUMP JUMPDEST PUSH1 0x1 ISZERO ISZERO PUSH2 0x221 DUP5 PUSH2 0x434 JUMP JUMPDEST ISZERO ISZERO EQ PUSH2 0x22D JUMPI PUSH1 0x0 DUP1 REVERT JUMPDEST PUSH1 0x0 PUSH1 0x2 PUSH1 0x0 DUP6 DUP2 MSTORE PUSH1 0x20 ADD SWAP1 DUP2 MSTORE PUSH1 0x20 ADD PUSH1 0x0 KECCAK256 PUSH1 0x40 MLOAD DUP1 PUSH1 0xA0 ADD PUSH1 0x40 MSTORE SWAP1 DUP2 PUSH1 0x0 DUP3 ADD SLOAD DUP2 MSTORE PUSH1 0x20 ADD PUSH1 0x1 DUP3 ADD SLOAD DUP2 MSTORE PUSH1 0x20 ADD PUSH1 0x2 DUP3 ADD DUP1 SLOAD PUSH2 0x271 SWAP1 PUSH2 0xEF8 JUMP JUMPDEST DUP1 PUSH1 0x1F ADD PUSH1 0x20 DUP1 SWAP2 DIV MUL PUSH1 0x20 ADD PUSH1 0x40 MLOAD SWAP1 DUP2 ADD PUSH1 0x40 MSTORE DUP1 SWAP3 SWAP2 SWAP1 DUP2 DUP2 MSTORE PUSH1 0x20 ADD DUP3 DUP1 SLOAD PUSH2 0x29D SWAP1 PUSH2 0xEF8 JUMP JUMPDEST DUP1 ISZERO PUSH2 0x2EA JUMPI DUP1 PUSH1 0x1F LT PUSH2 0x2BF JUMPI PUSH2 0x100 DUP1 DUP4 SLOAD DIV MUL DUP4 MSTORE SWAP2 PUSH1 0x20 ADD SWAP2 PUSH2 0x2EA JUMP JUMPDEST DUP3 ADD SWAP2 SWAP1 PUSH1 0x0 MSTORE PUSH1 0x20 PUSH1 0x0 KECCAK256 SWAP1 JUMPDEST DUP2 SLOAD DUP2 MSTORE SWAP1 PUSH1 0x1 ADD SWAP1 PUSH1 0x20 ADD DUP1 DUP4 GT PUSH2 0x2CD JUMPI DUP3 SWAP1 SUB PUSH1 0x1F AND DUP3 ADD SWAP2 JUMPDEST POP POP POP POP POP DUP2 MSTORE PUSH1 0x20 ADD PUSH1 0x3 DUP3 ADD SLOAD DUP2 MSTORE PUSH1 0x20 ADD PUSH1 0x4 DUP3 ADD PUSH1 0x0 SWAP1 SLOAD SWAP1 PUSH2 0x100 EXP SWAP1 DIV PUSH20 0xFFFFFFFFFFFFFFFFFFFFFFFFFFFFFFFFFFFFFFFF AND PUSH20 0xFFFFFFFFFFFFFFFFFFFFFFFFFFFFFFFFFFFFFFFF AND PUSH20 0xFFFFFFFFFFFFFFFFFFFFFFFFFFFFFFFFFFFFFFFF AND DUP2 MSTORE POP POP SWAP1 POP DUP3 DUP2 PUSH1 0x20 ADD DUP2 DUP2 MSTORE POP POP DUP1 PUSH1 0x2 PUSH1 0x0 DUP7 DUP2 MSTORE PUSH1 0x20 ADD SWAP1 DUP2 MSTORE PUSH1 0x20 ADD PUSH1 0x0 KECCAK256 PUSH1 0x0 DUP3 ADD MLOAD DUP2 PUSH1 0x0 ADD SSTORE PUSH1 0x20 DUP3 ADD MLOAD DUP2 PUSH1 0x1 ADD SSTORE PUSH1 0x40 DUP3 ADD MLOAD DUP2 PUSH1 0x2 ADD SWAP1 DUP2 PUSH2 0x39C SWAP2 SWAP1 PUSH2 0x10D5 JUMP JUMPDEST POP PUSH1 0x60 DUP3 ADD MLOAD DUP2 PUSH1 0x3 ADD SSTORE PUSH1 0x80 DUP3 ADD MLOAD DUP2 PUSH1 0x4 ADD PUSH1 0x0 PUSH2 0x100 EXP DUP2 SLOAD DUP2 PUSH20 0xFFFFFFFFFFFFFFFFFFFFFFFFFFFFFFFFFFFFFFFF MUL NOT AND SWAP1 DUP4 PUSH20 0xFFFFFFFFFFFFFFFFFFFFFFFFFFFFFFFFFFFFFFFF AND MUL OR SWAP1 SSTORE POP SWAP1 POP POP PUSH32 0x99CEADDE65AF29C4045D9FDCE70F3CFADEC0A1912C8F4C6646F3C94ECA2A8348 DUP5 DUP5 TIMESTAMP DUP6 PUSH1 0x40 MLOAD PUSH2 0x426 SWAP5 SWAP4 SWAP3 SWAP2 SWAP1 PUSH2 0x11B6 JUMP JUMPDEST PUSH1 0x40 MLOAD DUP1 SWAP2 SUB SWAP1 LOG1 POP POP POP POP JUMP JUMPDEST PUSH1 0x0 DUP1 DUP3 GT ISZERO DUP1 PUSH2 0x446 JUMPI POP PUSH1 0x1 SLOAD DUP3 GT JUMPDEST ISZERO PUSH2 0x454 JUMPI PUSH1 0x0 SWAP1 POP PUSH2 0x459 JUMP JUMPDEST PUSH1 0x1 SWAP1 POP JUMPDEST SWAP2 SWAP1 POP JUMP JUMPDEST PUSH1 0x0 DUP4 GT DUP1 ISZERO PUSH2 0x470 JUMPI POP PUSH1 0x1 SLOAD DUP4 GT ISZERO JUMPDEST PUSH2 0x479 JUMPI PUSH1 0x0 DUP1 REVERT JUMPDEST PUSH1 0x0 DUP3 MLOAD GT PUSH2 0x487 JUMPI PUSH1 0x0 DUP1 REVERT JUMPDEST PUSH1 0x0 PUSH20 0xFFFFFFFFFFFFFFFFFFFFFFFFFFFFFFFFFFFFFFFF AND DUP2 PUSH20 0xFFFFFFFFFFFFFFFFFFFFFFFFFFFFFFFFFFFFFFFF AND SUB PUSH2 0x4C0 JUMPI PUSH1 0x0 DUP1 REVERT JUMPDEST PUSH1 0x0 PUSH1 0x2 PUSH1 0x0 DUP6 DUP2 MSTORE PUSH1 0x20 ADD SWAP1 DUP2 MSTORE PUSH1 0x20 ADD PUSH1 0x0 KECCAK256 PUSH1 0x40 MLOAD DUP1 PUSH1 0xA0 ADD PUSH1 0x40 MSTORE SWAP1 DUP2 PUSH1 0x0 DUP3 ADD SLOAD DUP2 MSTORE PUSH1 0x20 ADD PUSH1 0x1 DUP3 ADD SLOAD DUP2 MSTORE PUSH1 0x20 ADD PUSH1 0x2 DUP3 ADD DUP1 SLOAD PUSH2 0x504 SWAP1 PUSH2 0xEF8 JUMP JUMPDEST DUP1 PUSH1 0x1F ADD PUSH1 0x20 DUP1 SWAP2 DIV MUL PUSH1 0x20 ADD PUSH1 0x40 MLOAD SWAP1 DUP2 ADD PUSH1 0x40 MSTORE DUP1 SWAP3 SWAP2 SWAP1 DUP2 DUP2 MSTORE PUSH1 0x20 ADD DUP3 DUP1 SLOAD PUSH2 0x530 SWAP1 PUSH2 0xEF8 JUMP JUMPDEST DUP1 ISZERO PUSH2 0x57D JUMPI DUP1 PUSH1 0x1F LT PUSH2 0x552 JUMPI PUSH2 0x100 DUP1 DUP4 SLOAD DIV MUL DUP4 MSTORE SWAP2 PUSH1 0x20 ADD SWAP2 PUSH2 0x57D JUMP JUMPDEST DUP3 ADD SWAP2 SWAP1 PUSH1 0x0 MSTORE PUSH1 0x20 PUSH1 0x0 KECCAK256 SWAP1 JUMPDEST DUP2 SLOAD DUP2 MSTORE SWAP1 PUSH1 0x1 ADD SWAP1 PUSH1 0x20 ADD DUP1 DUP4 GT PUSH2 0x560 JUMPI DUP3 SWAP1 SUB PUSH1 0x1F AND DUP3 ADD SWAP2 JUMPDEST POP POP POP POP POP DUP2 MSTORE PUSH1 0x20 ADD PUSH1 0x3 DUP3 ADD SLOAD DUP2 MSTORE PUSH1 0x20 ADD PUSH1 0x4 DUP3 ADD PUSH1 0x0 SWAP1 SLOAD SWAP1 PUSH2 0x100 EXP SWAP1 DIV PUSH20 0xFFFFFFFFFFFFFFFFFFFFFFFFFFFFFFFFFFFFFFFF AND PUSH20 0xFFFFFFFFFFFFFFFFFFFFFFFFFFFFFFFFFFFFFFFF AND PUSH20 0xFFFFFFFFFFFFFFFFFFFFFFFFFFFFFFFFFFFFFFFF AND DUP2 MSTORE POP POP SWAP1 POP DUP3 DUP2 PUSH1 0x40 ADD DUP2 SWAP1 MSTORE POP DUP1 PUSH1 0x2 PUSH1 0x0 DUP7 DUP2 MSTORE PUSH1 0x20 ADD SWAP1 DUP2 MSTORE PUSH1 0x20 ADD PUSH1 0x0 KECCAK256 PUSH1 0x0 DUP3 ADD MLOAD DUP2 PUSH1 0x0 ADD SSTORE PUSH1 0x20 DUP3 ADD MLOAD DUP2 PUSH1 0x1 ADD SSTORE PUSH1 0x40 DUP3 ADD MLOAD DUP2 PUSH1 0x2 ADD SWAP1 DUP2 PUSH2 0x62E SWAP2 SWAP1 PUSH2 0x10D5 JUMP JUMPDEST POP PUSH1 0x60 DUP3 ADD MLOAD DUP2 PUSH1 0x3 ADD SSTORE PUSH1 0x80 DUP3 ADD MLOAD DUP2 PUSH1 0x4 ADD PUSH1 0x0 PUSH2 0x100 EXP DUP2 SLOAD DUP2 PUSH20 0xFFFFFFFFFFFFFFFFFFFFFFFFFFFFFFFFFFFFFFFF MUL NOT AND SWAP1 DUP4 PUSH20 0xFFFFFFFFFFFFFFFFFFFFFFFFFFFFFFFFFFFFFFFF AND MUL OR SWAP1 SSTORE POP SWAP1 POP POP PUSH32 0x17915EF8086651997DC9A51652FAFCDA7A028200C5D72214EEC1C7CD56546AB1 DUP5 DUP5 DUP5 PUSH1 0x40 MLOAD PUSH2 0x6B6 SWAP4 SWAP3 SWAP2 SWAP1 PUSH2 0x11FB JUMP JUMPDEST PUSH1 0x40 MLOAD DUP1 SWAP2 SUB SWAP1 LOG1 POP POP POP POP JUMP JUMPDEST PUSH1 0x0 PUSH1 0x60 PUSH1 0x0 DUP1 PUSH20 0xFFFFFFFFFFFFFFFFFFFFFFFFFFFFFFFFFFFFFFFF AND DUP5 PUSH20 0xFFFFFFFFFFFFFFFFFFFFFFFFFFFFFFFFFFFFFFFF AND SUB PUSH2 0x702 JUMPI PUSH1 0x0 DUP1 REVERT JUMPDEST PUSH1 0x0 DUP7 GT ISZERO PUSH2 0x70F JUMPI DUP6 SWAP1 POP JUMPDEST PUSH1 0x0 DUP6 MLOAD GT ISZERO PUSH2 0x71D JUMPI DUP5 SWAP2 POP JUMPDEST PUSH1 0x1 PUSH1 0x0 DUP2 SLOAD DUP1 SWAP3 SWAP2 SWAP1 PUSH2 0x730 SWAP1 PUSH2 0x1268 JUMP JUMPDEST SWAP2 SWAP1 POP SSTORE POP PUSH1 0x40 MLOAD DUP1 PUSH1 0xA0 ADD PUSH1 0x40 MSTORE DUP1 PUSH1 0x1 SLOAD DUP2 MSTORE PUSH1 0x20 ADD DUP3 DUP2 MSTORE PUSH1 0x20 ADD DUP4 DUP2 MSTORE PUSH1 0x20 ADD TIMESTAMP DUP2 MSTORE PUSH1 0x20 ADD DUP6 PUSH20 0xFFFFFFFFFFFFFFFFFFFFFFFFFFFFFFFFFFFFFFFF AND DUP2 MSTORE POP PUSH1 0x2 PUSH1 0x0 PUSH1 0x1 SLOAD DUP2 MSTORE PUSH1 0x20 ADD SWAP1 DUP2 MSTORE PUSH1 0x20 ADD PUSH1 0x0 KECCAK256 PUSH1 0x0 DUP3 ADD MLOAD DUP2 PUSH1 0x0 ADD SSTORE PUSH1 0x20 DUP3 ADD MLOAD DUP2 PUSH1 0x1 ADD SSTORE PUSH1 0x40 DUP3 ADD MLOAD DUP2 PUSH1 0x2 ADD SWAP1 DUP2 PUSH2 0x7B2 SWAP2 SWAP1 PUSH2 0x10D5 JUMP JUMPDEST POP PUSH1 0x60 DUP3 ADD MLOAD DUP2 PUSH1 0x3 ADD SSTORE PUSH1 0x80 DUP3 ADD MLOAD DUP2 PUSH1 0x4 ADD PUSH1 0x0 PUSH2 0x100 EXP DUP2 SLOAD DUP2 PUSH20 0xFFFFFFFFFFFFFFFFFFFFFFFFFFFFFFFFFFFFFFFF MUL NOT AND SWAP1 DUP4 PUSH20 0xFFFFFFFFFFFFFFFFFFFFFFFFFFFFFFFFFFFFFFFF AND MUL OR SWAP1 SSTORE POP SWAP1 POP POP PUSH32 0xC67CDCE5E692493B16F0F1EAA9C77340024DBFB3863BF5FCA8E18221FB628DA7 PUSH1 0x1 SLOAD DUP3 DUP5 DUP8 PUSH1 0x40 MLOAD PUSH2 0x83E SWAP5 SWAP4 SWAP3 SWAP2 SWAP1 PUSH2 0x12B0 JUMP JUMPDEST PUSH1 0x40 MLOAD DUP1 SWAP2 SUB SWAP1 LOG1 PUSH1 0x1 SLOAD SWAP3 POP POP POP SWAP4 SWAP3 POP POP POP JUMP JUMPDEST PUSH1 0x1 SLOAD DUP2 JUMP JUMPDEST PUSH2 0x862 PUSH2 0x9A6 JUMP JUMPDEST PUSH1 0x1 ISZERO ISZERO PUSH2 0x86F DUP4 PUSH2 0x434 JUMP JUMPDEST ISZERO ISZERO EQ PUSH2 0x87B JUMPI PUSH1 0x0 DUP1 REVERT JUMPDEST PUSH1 0x2 PUSH1 0x0 DUP4 DUP2 MSTORE PUSH1 0x20 ADD SWAP1 DUP2 MSTORE PUSH1 0x20 ADD PUSH1 0x0 KECCAK256 PUSH1 0x40 MLOAD DUP1 PUSH1 0xA0 ADD PUSH1 0x40 MSTORE SWAP1 DUP2 PUSH1 0x0 DUP3 ADD SLOAD DUP2 MSTORE PUSH1 0x20 ADD PUSH1 0x1 DUP3 ADD SLOAD DUP2 MSTORE PUSH1 0x20 ADD PUSH1 0x2 DUP3 ADD DUP1 SLOAD PUSH2 0x8BD SWAP1 PUSH2 0xEF8 JUMP JUMPDEST DUP1 PUSH1 0x1F ADD PUSH1 0x20 DUP1 SWAP2 DIV MUL PUSH1 0x20 ADD PUSH1 0x40 MLOAD SWAP1 DUP2 ADD PUSH1 0x40 MSTORE DUP1 SWAP3 SWAP2 SWAP1 DUP2 DUP2 MSTORE PUSH1 0x20 ADD DUP3 DUP1 SLOAD PUSH2 0x8E9 SWAP1 PUSH2 0xEF8 JUMP JUMPDEST DUP1 ISZERO PUSH2 0x936 JUMPI DUP1 PUSH1 0x1F LT PUSH2 0x90B JUMPI PUSH2 0x100 DUP1 DUP4 SLOAD DIV MUL DUP4 MSTORE SWAP2 PUSH1 0x20 ADD SWAP2 PUSH2 0x936 JUMP JUMPDEST DUP3 ADD SWAP2 SWAP1 PUSH1 0x0 MSTORE PUSH1 0x20 PUSH1 0x0 KECCAK256 SWAP1 JUMPDEST DUP2 SLOAD DUP2 MSTORE SWAP1 PUSH1 0x1 ADD SWAP1 PUSH1 0x20 ADD DUP1 DUP4 GT PUSH2 0x919 JUMPI DUP3 SWAP1 SUB PUSH1 0x1F AND DUP3 ADD SWAP2 JUMPDEST POP POP POP POP POP DUP2 MSTORE PUSH1 0x20 ADD PUSH1 0x3 DUP3 ADD SLOAD DUP2 MSTORE PUSH1 0x20 ADD PUSH1 0x4 DUP3 ADD PUSH1 0x0 SWAP1 SLOAD SWAP1 PUSH2 0x100 EXP SWAP1 DIV PUSH20 0xFFFFFFFFFFFFFFFFFFFFFFFFFFFFFFFFFFFFFFFF AND PUSH20 0xFFFFFFFFFFFFFFFFFFFFFFFFFFFFFFFFFFFFFFFF AND PUSH20 0xFFFFFFFFFFFFFFFFFFFFFFFFFFFFFFFFFFFFFFFF AND DUP2 MSTORE POP POP SWAP1 POP SWAP2 SWAP1 POP JUMP JUMPDEST PUSH1 0x40 MLOAD DUP1 PUSH1 0xA0 ADD PUSH1 0x40 MSTORE DUP1 PUSH1 0x0 DUP2 MSTORE PUSH1 0x20 ADD PUSH1 0x0 DUP2 MSTORE PUSH1 0x20 ADD PUSH1 0x60 DUP2 MSTORE PUSH1 0x20 ADD PUSH1 0x0 DUP2 MSTORE PUSH1 0x20 ADD PUSH1 0x0 PUSH20 0xFFFFFFFFFFFFFFFFFFFFFFFFFFFFFFFFFFFFFFFF AND DUP2 MSTORE POP SWAP1 JUMP JUMPDEST PUSH1 0x0 DUP2 MLOAD SWAP1 POP SWAP2 SWAP1 POP JUMP JUMPDEST PUSH1 0x0 DUP3 DUP3 MSTORE PUSH1 0x20 DUP3 ADD SWAP1 POP SWAP3 SWAP2 POP POP JUMP JUMPDEST PUSH1 0x0 JUMPDEST DUP4 DUP2 LT ISZERO PUSH2 0xA25 JUMPI DUP1 DUP3 ADD MLOAD DUP2 DUP5 ADD MSTORE PUSH1 0x20 DUP2 ADD SWAP1 POP PUSH2 0xA0A JUMP JUMPDEST PUSH1 0x0 DUP5 DUP5 ADD MSTORE POP POP POP POP JUMP JUMPDEST PUSH1 0x0 PUSH1 0x1F NOT PUSH1 0x1F DUP4 ADD AND SWAP1 POP SWAP2 SWAP1 POP JUMP JUMPDEST PUSH1 0x0 PUSH2 0xA4D DUP3 PUSH2 0x9EB JUMP JUMPDEST PUSH2 0xA57 DUP2 DUP6 PUSH2 0x9F6 JUMP JUMPDEST SWAP4 POP PUSH2 0xA67 DUP2 DUP6 PUSH1 0x20 DUP7 ADD PUSH2 0xA07 JUMP JUMPDEST PUSH2 0xA70 DUP2 PUSH2 0xA31 JUMP JUMPDEST DUP5 ADD SWAP2 POP POP SWAP3 SWAP2 POP POP JUMP JUMPDEST PUSH1 0x0 PUSH1 0x20 DUP3 ADD SWAP1 POP DUP2 DUP2 SUB PUSH1 0x0 DUP4 ADD MSTORE PUSH2 0xA95 DUP2 DUP5 PUSH2 0xA42 JUMP JUMPDEST SWAP1 POP SWAP3 SWAP2 POP POP JUMP JUMPDEST PUSH1 0x0 PUSH1 0x40 MLOAD SWAP1 POP SWAP1 JUMP JUMPDEST PUSH1 0x0 DUP1 REVERT JUMPDEST PUSH1 0x0 DUP1 REVERT JUMPDEST PUSH1 0x0 DUP2 SWAP1 POP SWAP2 SWAP1 POP JUMP JUMPDEST PUSH2 0xAC4 DUP2 PUSH2 0xAB1 JUMP JUMPDEST DUP2 EQ PUSH2 0xACF JUMPI PUSH1 0x0 DUP1 REVERT JUMPDEST POP JUMP JUMPDEST PUSH1 0x0 DUP2 CALLDATALOAD SWAP1 POP PUSH2 0xAE1 DUP2 PUSH2 0xABB JUMP JUMPDEST SWAP3 SWAP2 POP POP JUMP JUMPDEST PUSH1 0x0 PUSH20 0xFFFFFFFFFFFFFFFFFFFFFFFFFFFFFFFFFFFFFFFF DUP3 AND SWAP1 POP SWAP2 SWAP1 POP JUMP JUMPDEST PUSH1 0x0 PUSH2 0xB12 DUP3 PUSH2 0xAE7 JUMP JUMPDEST SWAP1 POP SWAP2 SWAP1 POP JUMP JUMPDEST PUSH2 0xB22 DUP2 PUSH2 0xB07 JUMP JUMPDEST DUP2 EQ PUSH2 0xB2D JUMPI PUSH1 0x0 DUP1 REVERT JUMPDEST POP JUMP JUMPDEST PUSH1 0x0 DUP2 CALLDATALOAD SWAP1 POP PUSH2 0xB3F DUP2 PUSH2 0xB19 JUMP JUMPDEST SWAP3 SWAP2 POP POP JUMP JUMPDEST PUSH1 0x0 DUP1 PUSH1 0x0 PUSH1 0x60 DUP5 DUP7 SUB SLT ISZERO PUSH2 0xB5E JUMPI PUSH2 0xB5D PUSH2 0xAA7 JUMP JUMPDEST JUMPDEST PUSH1 0x0 PUSH2 0xB6C DUP7 DUP3 DUP8 ADD PUSH2 0xAD2 JUMP JUMPDEST SWAP4 POP POP PUSH1 0x20 PUSH2 0xB7D DUP7 DUP3 DUP8 ADD PUSH2 0xAD2 JUMP JUMPDEST SWAP3 POP POP PUSH1 0x40 PUSH2 0xB8E DUP7 DUP3 DUP8 ADD PUSH2 0xB30 JUMP JUMPDEST SWAP2 POP POP SWAP3 POP SWAP3 POP SWAP3 JUMP JUMPDEST PUSH1 0x0 PUSH1 0x20 DUP3 DUP5 SUB SLT ISZERO PUSH2 0xBAE JUMPI PUSH2 0xBAD PUSH2 0xAA7 JUMP JUMPDEST JUMPDEST PUSH1 0x0 PUSH2 0xBBC DUP5 DUP3 DUP6 ADD PUSH2 0xAD2 JUMP JUMPDEST SWAP2 POP POP SWAP3 SWAP2 POP POP JUMP JUMPDEST PUSH1 0x0 DUP2 ISZERO ISZERO SWAP1 POP SWAP2 SWAP1 POP JUMP JUMPDEST PUSH2 0xBDA DUP2 PUSH2 0xBC5 JUMP JUMPDEST DUP3 MSTORE POP POP JUMP JUMPDEST PUSH1 0x0 PUSH1 0x20 DUP3 ADD SWAP1 POP PUSH2 0xBF5 PUSH1 0x0 DUP4 ADD DUP5 PUSH2 0xBD1 JUMP JUMPDEST SWAP3 SWAP2 POP POP JUMP JUMPDEST PUSH1 0x0 DUP1 REVERT JUMPDEST PUSH1 0x0 DUP1 REVERT JUMPDEST PUSH32 0x4E487B7100000000000000000000000000000000000000000000000000000000 PUSH1 0x0 MSTORE PUSH1 0x41 PUSH1 0x4 MSTORE PUSH1 0x24 PUSH1 0x0 REVERT JUMPDEST PUSH2 0xC3D DUP3 PUSH2 0xA31 JUMP JUMPDEST DUP2 ADD DUP2 DUP2 LT PUSH8 0xFFFFFFFFFFFFFFFF DUP3 GT OR ISZERO PUSH2 0xC5C JUMPI PUSH2 0xC5B PUSH2 0xC05 JUMP JUMPDEST JUMPDEST DUP1 PUSH1 0x40 MSTORE POP POP POP JUMP JUMPDEST PUSH1 0x0 PUSH2 0xC6F PUSH2 0xA9D JUMP JUMPDEST SWAP1 POP PUSH2 0xC7B DUP3 DUP3 PUSH2 0xC34 JUMP JUMPDEST SWAP2 SWAP1 POP JUMP JUMPDEST PUSH1 0x0 PUSH8 0xFFFFFFFFFFFFFFFF DUP3 GT ISZERO PUSH2 0xC9B JUMPI PUSH2 0xC9A PUSH2 0xC05 JUMP JUMPDEST JUMPDEST PUSH2 0xCA4 DUP3 PUSH2 0xA31 JUMP JUMPDEST SWAP1 POP PUSH1 0x20 DUP2 ADD SWAP1 POP SWAP2 SWAP1 POP JUMP JUMPDEST DUP3 DUP2 DUP4 CALLDATACOPY PUSH1 0x0 DUP4 DUP4 ADD MSTORE POP POP POP JUMP JUMPDEST PUSH1 0x0 PUSH2 0xCD3 PUSH2 0xCCE DUP5 PUSH2 0xC80 JUMP JUMPDEST PUSH2 0xC65 JUMP JUMPDEST SWAP1 POP DUP3 DUP2 MSTORE PUSH1 0x20 DUP2 ADD DUP5 DUP5 DUP5 ADD GT ISZERO PUSH2 0xCEF JUMPI PUSH2 0xCEE PUSH2 0xC00 JUMP JUMPDEST JUMPDEST PUSH2 0xCFA DUP5 DUP3 DUP6 PUSH2 0xCB1 JUMP JUMPDEST POP SWAP4 SWAP3 POP POP POP JUMP JUMPDEST PUSH1 0x0 DUP3 PUSH1 0x1F DUP4 ADD SLT PUSH2 0xD17 JUMPI PUSH2 0xD16 PUSH2 0xBFB JUMP JUMPDEST JUMPDEST DUP2 CALLDATALOAD PUSH2 0xD27 DUP5 DUP3 PUSH1 0x20 DUP7 ADD PUSH2 0xCC0 JUMP JUMPDEST SWAP2 POP POP SWAP3 SWAP2 POP POP JUMP JUMPDEST PUSH1 0x0 DUP1 PUSH1 0x0 PUSH1 0x60 DUP5 DUP7 SUB SLT ISZERO PUSH2 0xD49 JUMPI PUSH2 0xD48 PUSH2 0xAA7 JUMP JUMPDEST JUMPDEST PUSH1 0x0 PUSH2 0xD57 DUP7 DUP3 DUP8 ADD PUSH2 0xAD2 JUMP JUMPDEST SWAP4 POP POP PUSH1 0x20 DUP5 ADD CALLDATALOAD PUSH8 0xFFFFFFFFFFFFFFFF DUP2 GT ISZERO PUSH2 0xD78 JUMPI PUSH2 0xD77 PUSH2 0xAAC JUMP JUMPDEST JUMPDEST PUSH2 0xD84 DUP7 DUP3 DUP8 ADD PUSH2 0xD02 JUMP JUMPDEST SWAP3 POP POP PUSH1 0x40 PUSH2 0xD95 DUP7 DUP3 DUP8 ADD PUSH2 0xB30 JUMP JUMPDEST SWAP2 POP POP SWAP3 POP SWAP3 POP SWAP3 JUMP JUMPDEST PUSH2 0xDA8 DUP2 PUSH2 0xAB1 JUMP JUMPDEST DUP3 MSTORE POP POP JUMP JUMPDEST PUSH1 0x0 PUSH1 0x20 DUP3 ADD SWAP1 POP PUSH2 0xDC3 PUSH1 0x0 DUP4 ADD DUP5 PUSH2 0xD9F JUMP JUMPDEST SWAP3 SWAP2 POP POP JUMP JUMPDEST PUSH2 0xDD2 DUP2 PUSH2 0xAB1 JUMP JUMPDEST DUP3 MSTORE POP POP JUMP JUMPDEST PUSH1 0x0 DUP3 DUP3 MSTORE PUSH1 0x20 DUP3 ADD SWAP1 POP SWAP3 SWAP2 POP POP JUMP JUMPDEST PUSH1 0x0 PUSH2 0xDF4 DUP3 PUSH2 0x9EB JUMP JUMPDEST PUSH2 0xDFE DUP2 DUP6 PUSH2 0xDD8 JUMP JUMPDEST SWAP4 POP PUSH2 0xE0E DUP2 DUP6 PUSH1 0x20 DUP7 ADD PUSH2 0xA07 JUMP JUMPDEST PUSH2 0xE17 DUP2 PUSH2 0xA31 JUMP JUMPDEST DUP5 ADD SWAP2 POP POP SWAP3 SWAP2 POP POP JUMP JUMPDEST PUSH2 0xE2B DUP2 PUSH2 0xB07 JUMP JUMPDEST DUP3 MSTORE POP POP JUMP JUMPDEST PUSH1 0x0 PUSH1 0xA0 DUP4 ADD PUSH1 0x0 DUP4 ADD MLOAD PUSH2 0xE49 PUSH1 0x0 DUP7 ADD DUP3 PUSH2 0xDC9 JUMP JUMPDEST POP PUSH1 0x20 DUP4 ADD MLOAD PUSH2 0xE5C PUSH1 0x20 DUP7 ADD DUP3 PUSH2 0xDC9 JUMP JUMPDEST POP PUSH1 0x40 DUP4 ADD MLOAD DUP5 DUP3 SUB PUSH1 0x40 DUP7 ADD MSTORE PUSH2 0xE74 DUP3 DUP3 PUSH2 0xDE9 JUMP JUMPDEST SWAP2 POP POP PUSH1 0x60 DUP4 ADD MLOAD PUSH2 0xE89 PUSH1 0x60 DUP7 ADD DUP3 PUSH2 0xDC9 JUMP JUMPDEST POP PUSH1 0x80 DUP4 ADD MLOAD PUSH2 0xE9C PUSH1 0x80 DUP7 ADD DUP3 PUSH2 0xE22 JUMP JUMPDEST POP DUP1 SWAP2 POP POP SWAP3 SWAP2 POP POP JUMP JUMPDEST PUSH1 0x0 PUSH1 0x20 DUP3 ADD SWAP1 POP DUP2 DUP2 SUB PUSH1 0x0 DUP4 ADD MSTORE PUSH2 0xEC1 DUP2 DUP5 PUSH2 0xE31 JUMP JUMPDEST SWAP1 POP SWAP3 SWAP2 POP POP JUMP JUMPDEST PUSH32 0x4E487B7100000000000000000000000000000000000000000000000000000000 PUSH1 0x0 MSTORE PUSH1 0x22 PUSH1 0x4 MSTORE PUSH1 0x24 PUSH1 0x0 REVERT JUMPDEST PUSH1 0x0 PUSH1 0x2 DUP3 DIV SWAP1 POP PUSH1 0x1 DUP3 AND DUP1 PUSH2 0xF10 JUMPI PUSH1 0x7F DUP3 AND SWAP2 POP JUMPDEST PUSH1 0x20 DUP3 LT DUP2 SUB PUSH2 0xF23 JUMPI PUSH2 0xF22 PUSH2 0xEC9 JUMP JUMPDEST JUMPDEST POP SWAP2 SWAP1 POP JUMP JUMPDEST PUSH1 0x0 DUP2 SWAP1 POP DUP2 PUSH1 0x0 MSTORE PUSH1 0x20 PUSH1 0x0 KECCAK256 SWAP1 POP SWAP2 SWAP1 POP JUMP JUMPDEST PUSH1 0x0 PUSH1 0x20 PUSH1 0x1F DUP4 ADD DIV SWAP1 POP SWAP2 SWAP1 POP JUMP JUMPDEST PUSH1 0x0 DUP3 DUP3 SHL SWAP1 POP SWAP3 SWAP2 POP POP JUMP JUMPDEST PUSH1 0x0 PUSH1 0x8 DUP4 MUL PUSH2 0xF8B PUSH32 0xFFFFFFFFFFFFFFFFFFFFFFFFFFFFFFFFFFFFFFFFFFFFFFFFFFFFFFFFFFFFFFFF DUP3 PUSH2 0xF4E JUMP JUMPDEST PUSH2 0xF95 DUP7 DUP4 PUSH2 0xF4E JUMP JUMPDEST SWAP6 POP DUP1 NOT DUP5 AND SWAP4 POP DUP1 DUP7 AND DUP5 OR SWAP3 POP POP POP SWAP4 SWAP3 POP POP POP JUMP JUMPDEST PUSH1 0x0 DUP2 SWAP1 POP SWAP2 SWAP1 POP JUMP JUMPDEST PUSH1 0x0 PUSH2 0xFD2 PUSH2 0xFCD PUSH2 0xFC8 DUP5 PUSH2 0xAB1 JUMP JUMPDEST PUSH2 0xFAD JUMP JUMPDEST PUSH2 0xAB1 JUMP JUMPDEST SWAP1 POP SWAP2 SWAP1 POP JUMP JUMPDEST PUSH1 0x0 DUP2 SWAP1 POP SWAP2 SWAP1 POP JUMP JUMPDEST PUSH2 0xFEC DUP4 PUSH2 0xFB7 JUMP JUMPDEST PUSH2 0x1000 PUSH2 0xFF8 DUP3 PUSH2 0xFD9 JUMP JUMPDEST DUP5 DUP5 SLOAD PUSH2 0xF5B JUMP JUMPDEST DUP3 SSTORE POP POP POP POP JUMP JUMPDEST PUSH1 0x0 SWAP1 JUMP JUMPDEST PUSH2 0x1015 PUSH2 0x1008 JUMP JUMPDEST PUSH2 0x1020 DUP2 DUP5 DUP5 PUSH2 0xFE3 JUMP JUMPDEST POP POP POP JUMP JUMPDEST JUMPDEST DUP2 DUP2 LT ISZERO PUSH2 0x1044 JUMPI PUSH2 0x1039 PUSH1 0x0 DUP3 PUSH2 0x100D JUMP JUMPDEST PUSH1 0x1 DUP2 ADD SWAP1 POP PUSH2 0x1026 JUMP JUMPDEST POP POP JUMP JUMPDEST PUSH1 0x1F DUP3 GT ISZERO PUSH2 0x1089 JUMPI PUSH2 0x105A DUP2 PUSH2 0xF29 JUMP JUMPDEST PUSH2 0x1063 DUP5 PUSH2 0xF3E JUMP JUMPDEST DUP2 ADD PUSH1 0x20 DUP6 LT ISZERO PUSH2 0x1072 JUMPI DUP2 SWAP1 POP JUMPDEST PUSH2 0x1086 PUSH2 0x107E DUP6 PUSH2 0xF3E JUMP JUMPDEST DUP4 ADD DUP3 PUSH2 0x1025 JUMP JUMPDEST POP POP JUMPDEST POP POP POP JUMP JUMPDEST PUSH1 0x0 DUP3 DUP3 SHR SWAP1 POP SWAP3 SWAP2 POP POP JUMP JUMPDEST PUSH1 0x0 PUSH2 0x10AC PUSH1 0x0 NOT DUP5 PUSH1 0x8 MUL PUSH2 0x108E JUMP JUMPDEST NOT DUP1 DUP4 AND SWAP2 POP POP SWAP3 SWAP2 POP POP JUMP JUMPDEST PUSH1 0x0 PUSH2 0x10C5 DUP4 DUP4 PUSH2 0x109B JUMP JUMPDEST SWAP2 POP DUP3 PUSH1 0x2 MUL DUP3 OR SWAP1 POP SWAP3 SWAP2 POP POP JUMP JUMPDEST PUSH2 0x10DE DUP3 PUSH2 0x9EB JUMP JUMPDEST PUSH8 0xFFFFFFFFFFFFFFFF DUP2 GT ISZERO PUSH2 0x10F7 JUMPI PUSH2 0x10F6 PUSH2 0xC05 JUMP JUMPDEST JUMPDEST PUSH2 0x1101 DUP3 SLOAD PUSH2 0xEF8 JUMP JUMPDEST PUSH2 0x110C DUP3 DUP3 DUP6 PUSH2 0x1048 JUMP JUMPDEST PUSH1 0x0 PUSH1 0x20 SWAP1 POP PUSH1 0x1F DUP4 GT PUSH1 0x1 DUP2 EQ PUSH2 0x113F JUMPI PUSH1 0x0 DUP5 ISZERO PUSH2 0x112D JUMPI DUP3 DUP8 ADD MLOAD SWAP1 POP JUMPDEST PUSH2 0x1137 DUP6 DUP3 PUSH2 0x10B9 JUMP JUMPDEST DUP7 SSTORE POP PUSH2 0x119F JUMP JUMPDEST PUSH1 0x1F NOT DUP5 AND PUSH2 0x114D DUP7 PUSH2 0xF29 JUMP JUMPDEST PUSH1 0x0 JUMPDEST DUP3 DUP2 LT ISZERO PUSH2 0x1175 JUMPI DUP5 DUP10 ADD MLOAD DUP3 SSTORE PUSH1 0x1 DUP3 ADD SWAP2 POP PUSH1 0x20 DUP6 ADD SWAP5 POP PUSH1 0x20 DUP2 ADD SWAP1 POP PUSH2 0x1150 JUMP JUMPDEST DUP7 DUP4 LT ISZERO PUSH2 0x1192 JUMPI DUP5 DUP10 ADD MLOAD PUSH2 0x118E PUSH1 0x1F DUP10 AND DUP3 PUSH2 0x109B JUMP JUMPDEST DUP4 SSTORE POP JUMPDEST PUSH1 0x1 PUSH1 0x2 DUP9 MUL ADD DUP9 SSTORE POP POP POP JUMPDEST POP POP POP POP POP POP JUMP JUMPDEST PUSH2 0x11B0 DUP2 PUSH2 0xB07 JUMP JUMPDEST DUP3 MSTORE POP POP JUMP JUMPDEST PUSH1 0x0 PUSH1 0x80 DUP3 ADD SWAP1 POP PUSH2 0x11CB PUSH1 0x0 DUP4 ADD DUP8 PUSH2 0xD9F JUMP JUMPDEST PUSH2 0x11D8 PUSH1 0x20 DUP4 ADD DUP7 PUSH2 0xD9F JUMP JUMPDEST PUSH2 0x11E5 PUSH1 0x40 DUP4 ADD DUP6 PUSH2 0xD9F JUMP JUMPDEST PUSH2 0x11F2 PUSH1 0x60 DUP4 ADD DUP5 PUSH2 0x11A7 JUMP JUMPDEST SWAP6 SWAP5 POP POP POP POP POP JUMP JUMPDEST PUSH1 0x0 PUSH1 0x60 DUP3 ADD SWAP1 POP PUSH2 0x1210 PUSH1 0x0 DUP4 ADD DUP7 PUSH2 0xD9F JUMP JUMPDEST DUP2 DUP2 SUB PUSH1 0x20 DUP4 ADD MSTORE PUSH2 0x1222 DUP2 DUP6 PUSH2 0xA42 JUMP JUMPDEST SWAP1 POP PUSH2 0x1231 PUSH1 0x40 DUP4 ADD DUP5 PUSH2 0x11A7 JUMP JUMPDEST SWAP5 SWAP4 POP POP POP POP JUMP JUMPDEST PUSH32 0x4E487B7100000000000000000000000000000000000000000000000000000000 PUSH1 0x0 MSTORE PUSH1 0x11 PUSH1 0x4 MSTORE PUSH1 0x24 PUSH1 0x0 REVERT JUMPDEST PUSH1 0x0 PUSH2 0x1273 DUP3 PUSH2 0xAB1 JUMP JUMPDEST SWAP2 POP PUSH32 0xFFFFFFFFFFFFFFFFFFFFFFFFFFFFFFFFFFFFFFFFFFFFFFFFFFFFFFFFFFFFFFFF DUP3 SUB PUSH2 0x12A5 JUMPI PUSH2 0x12A4 PUSH2 0x1239 JUMP JUMPDEST JUMPDEST PUSH1 0x1 DUP3 ADD SWAP1 POP SWAP2 SWAP1 POP JUMP JUMPDEST PUSH1 0x0 PUSH1 0x80 DUP3 ADD SWAP1 POP PUSH2 0x12C5 PUSH1 0x0 DUP4 ADD DUP8 PUSH2 0xD9F JUMP JUMPDEST PUSH2 0x12D2 PUSH1 0x20 DUP4 ADD DUP7 PUSH2 0xD9F JUMP JUMPDEST DUP2 DUP2 SUB PUSH1 0x40 DUP4 ADD MSTORE PUSH2 0x12E4 DUP2 DUP6 PUSH2 0xA42 JUMP JUMPDEST SWAP1 POP PUSH2 0x12F3 PUSH1 0x60 DUP4 ADD DUP5 PUSH2 0x11A7 JUMP JUMPDEST SWAP6 SWAP5 POP POP POP POP POP JUMP INVALID LOG2 PUSH5 0x6970667358 0x22 SLT KECCAK256 0x4D DIV CODESIZE 0xAB PUSH19 0x81B91B83568964D0408E5CB556A2FA23EA2B96 0xAF 0xD7 DUP2 TIMESTAMP PUSH12 0xA0DB0764736F6C6343000811 STOP CALLER "
				},
				"gasEstimates": {
					"creation": {
						"codeDepositCost": "982800",
						"executionCost": "infinite",
						"totalCost": "infinite"
					},
					"external": {
						"AddDescription(uint256,string,address)": "infinite",
						"GetDescriptionByID(uint256)": "2858",
						"SetAntiqueIDByDescriptionID(uint256,uint256,address)": "infinite",
						"UpdateDescriptionMaterials(uint256,string,address)": "infinite",
						"ValidateDescriptionID(uint256)": "2821",
						"descriptionCount()": "2473",
						"name()": "infinite"
					}
				},
				"methodIdentifiers": {
					"AddDescription(uint256,string,address)": "697d37f7",
					"GetDescriptionByID(uint256)": "ef1a5668",
					"SetAntiqueIDByDescriptionID(uint256,uint256,address)": "1d6607b7",
					"UpdateDescriptionMaterials(uint256,string,address)": "540c74ec",
					"ValidateDescriptionID(uint256)": "330ba56a",
					"descriptionCount()": "e28afdfc",
					"name()": "06fdde03"
				}
			},
			"storageLayout": {
				"storage": [
					{
						"astId": 4,
						"contract": "Database/Database/Description.sol:Description",
						"label": "name",
						"offset": 0,
						"slot": "0",
						"type": "t_string_storage"
					},
					{
						"astId": 7,
						"contract": "Database/Database/Description.sol:Description",
						"label": "descriptionCount",
						"offset": 0,
						"slot": "1",
						"type": "t_uint256"
					},
					{
						"astId": 12,
						"contract": "Database/Database/Description.sol:Description",
						"label": "descriptionMap",
						"offset": 0,
						"slot": "2",
						"type": "t_mapping(t_uint256,t_struct(DescriptionObject)31_storage)"
					}
				],
				"types": {
					"t_address_payable": {
						"encoding": "inplace",
						"label": "address payable",
						"numberOfBytes": "20"
					},
					"t_mapping(t_uint256,t_struct(DescriptionObject)31_storage)": {
						"encoding": "mapping",
						"key": "t_uint256",
						"label": "mapping(uint256 => struct Description.DescriptionObject)",
						"numberOfBytes": "32",
						"value": "t_struct(DescriptionObject)31_storage"
					},
					"t_string_storage": {
						"encoding": "bytes",
						"label": "string",
						"numberOfBytes": "32"
					},
					"t_struct(DescriptionObject)31_storage": {
						"encoding": "inplace",
						"label": "struct Description.DescriptionObject",
						"members": [
							{
								"astId": 22,
								"contract": "Database/Database/Description.sol:Description",
								"label": "descriptionID",
								"offset": 0,
								"slot": "0",
								"type": "t_uint256"
							},
							{
								"astId": 24,
								"contract": "Database/Database/Description.sol:Description",
								"label": "antiqueID",
								"offset": 0,
								"slot": "1",
								"type": "t_uint256"
							},
							{
								"astId": 26,
								"contract": "Database/Database/Description.sol:Description",
								"label": "materialCreated",
								"offset": 0,
								"slot": "2",
								"type": "t_string_storage"
							},
							{
								"astId": 28,
								"contract": "Database/Database/Description.sol:Description",
								"label": "uploadTime",
								"offset": 0,
								"slot": "3",
								"type": "t_uint256"
							},
							{
								"astId": 30,
								"contract": "Database/Database/Description.sol:Description",
								"label": "uploader",
								"offset": 0,
								"slot": "4",
								"type": "t_address_payable"
							}
						],
						"numberOfBytes": "160"
					},
					"t_uint256": {
						"encoding": "inplace",
						"label": "uint256",
						"numberOfBytes": "32"
					}
				}
			},
			"userdoc": {
				"kind": "user",
				"methods": {},
				"version": 1
			}
		}
	}
}