{
	"Database/Database/Verification.sol": {
		"Verification": {
			"abi": [
				{
					"inputs": [],
					"stateMutability": "nonpayable",
					"type": "constructor"
				},
				{
					"anonymous": false,
					"inputs": [
						{
							"indexed": false,
							"internalType": "uint256",
							"name": "verificationID",
							"type": "uint256"
						},
						{
							"indexed": false,
							"internalType": "uint256",
							"name": "antiqueID",
							"type": "uint256"
						},
						{
							"indexed": false,
							"internalType": "uint256",
							"name": "newUploadTime",
							"type": "uint256"
						},
						{
							"indexed": false,
							"internalType": "address payable",
							"name": "uploader",
							"type": "address"
						}
					],
					"name": "SetAntiqueID",
					"type": "event"
				},
				{
					"anonymous": false,
					"inputs": [
						{
							"indexed": false,
							"internalType": "uint256",
							"name": "verificationID",
							"type": "uint256"
						},
						{
							"indexed": false,
							"internalType": "address payable",
							"name": "ownerAddress",
							"type": "address"
						},
						{
							"indexed": false,
							"internalType": "uint256",
							"name": "ownerID",
							"type": "uint256"
						},
						{
							"indexed": false,
							"internalType": "uint256",
							"name": "personVerificationID",
							"type": "uint256"
						},
						{
							"indexed": false,
							"internalType": "uint256",
							"name": "ioTDeviceID",
							"type": "uint256"
						},
						{
							"indexed": false,
							"internalType": "uint256",
							"name": "uploadTime",
							"type": "uint256"
						},
						{
							"indexed": false,
							"internalType": "address payable",
							"name": "uploader",
							"type": "address"
						}
					],
					"name": "VerificationAdded",
					"type": "event"
				},
				{
					"anonymous": false,
					"inputs": [
						{
							"indexed": false,
							"internalType": "uint256",
							"name": "verificationID",
							"type": "uint256"
						},
						{
							"indexed": false,
							"internalType": "address payable",
							"name": "newOwnerAddress",
							"type": "address"
						},
						{
							"indexed": false,
							"internalType": "uint256",
							"name": "newOwnerID",
							"type": "uint256"
						},
						{
							"indexed": false,
							"internalType": "uint256",
							"name": "newPersonVerificationID",
							"type": "uint256"
						},
						{
							"indexed": false,
							"internalType": "uint256",
							"name": "newIoTDeviceID",
							"type": "uint256"
						},
						{
							"indexed": false,
							"internalType": "uint256",
							"name": "newUploadTime",
							"type": "uint256"
						},
						{
							"indexed": false,
							"internalType": "address payable",
							"name": "newUploader",
							"type": "address"
						}
					],
					"name": "VerificationUpdated",
					"type": "event"
				},
				{
					"inputs": [
						{
							"internalType": "address payable",
							"name": "_ownerAddress",
							"type": "address"
						},
						{
							"internalType": "uint256",
							"name": "_ownerID",
							"type": "uint256"
						},
						{
							"internalType": "uint256",
							"name": "_personVerificationID",
							"type": "uint256"
						},
						{
							"internalType": "uint256",
							"name": "_ioTDeviceID",
							"type": "uint256"
						},
						{
							"internalType": "address payable",
							"name": "_uploader",
							"type": "address"
						}
					],
					"name": "AddVerification",
					"outputs": [
						{
							"internalType": "uint256",
							"name": "",
							"type": "uint256"
						}
					],
					"stateMutability": "nonpayable",
					"type": "function"
				},
				{
					"inputs": [
						{
							"internalType": "uint256",
							"name": "_verificationID",
							"type": "uint256"
						}
					],
					"name": "GetVerificationByID",
					"outputs": [
						{
							"components": [
								{
									"internalType": "uint256",
									"name": "verificationID",
									"type": "uint256"
								},
								{
									"internalType": "uint256",
									"name": "antiqueID",
									"type": "uint256"
								},
								{
									"internalType": "address payable",
									"name": "ownerAddress",
									"type": "address"
								},
								{
									"internalType": "uint256",
									"name": "ownerID",
									"type": "uint256"
								},
								{
									"internalType": "uint256",
									"name": "personVerificationID",
									"type": "uint256"
								},
								{
									"internalType": "uint256",
									"name": "ioTDeviceID",
									"type": "uint256"
								},
								{
									"internalType": "uint256",
									"name": "uploadTime",
									"type": "uint256"
								},
								{
									"internalType": "address payable",
									"name": "uploader",
									"type": "address"
								}
							],
							"internalType": "struct Verification.VerificateionObject",
							"name": "",
							"type": "tuple"
						}
					],
					"stateMutability": "view",
					"type": "function"
				},
				{
					"inputs": [
						{
							"internalType": "uint256",
							"name": "_verificationID",
							"type": "uint256"
						},
						{
							"internalType": "uint256",
							"name": "_antiqueID",
							"type": "uint256"
						},
						{
							"internalType": "address payable",
							"name": "_uploader",
							"type": "address"
						}
					],
					"name": "SetAntiqueIDByVerificationID",
					"outputs": [],
					"stateMutability": "nonpayable",
					"type": "function"
				},
				{
					"inputs": [
						{
							"internalType": "uint256",
							"name": "_verificationID",
							"type": "uint256"
						},
						{
							"internalType": "address payable",
							"name": "_newOwnerAddress",
							"type": "address"
						},
						{
							"internalType": "uint256",
							"name": "_newOwnerID",
							"type": "uint256"
						},
						{
							"internalType": "uint256",
							"name": "_newPersonVerificationID",
							"type": "uint256"
						},
						{
							"internalType": "uint256",
							"name": "_newIoTDeviceID",
							"type": "uint256"
						},
						{
							"internalType": "address payable",
							"name": "_uploader",
							"type": "address"
						}
					],
					"name": "UpdateVerification",
					"outputs": [],
					"stateMutability": "nonpayable",
					"type": "function"
				},
				{
					"inputs": [
						{
							"internalType": "uint256",
							"name": "_verificationID",
							"type": "uint256"
						}
					],
					"name": "ValidateVerificationID",
					"outputs": [
						{
							"internalType": "bool",
							"name": "",
							"type": "bool"
						}
					],
					"stateMutability": "view",
					"type": "function"
				},
				{
					"inputs": [
						{
							"internalType": "uint256",
							"name": "",
							"type": "uint256"
						}
					],
					"name": "VerificateionMap",
					"outputs": [
						{
							"internalType": "uint256",
							"name": "verificationID",
							"type": "uint256"
						},
						{
							"internalType": "uint256",
							"name": "antiqueID",
							"type": "uint256"
						},
						{
							"internalType": "address payable",
							"name": "ownerAddress",
							"type": "address"
						},
						{
							"internalType": "uint256",
							"name": "ownerID",
							"type": "uint256"
						},
						{
							"internalType": "uint256",
							"name": "personVerificationID",
							"type": "uint256"
						},
						{
							"internalType": "uint256",
							"name": "ioTDeviceID",
							"type": "uint256"
						},
						{
							"internalType": "uint256",
							"name": "uploadTime",
							"type": "uint256"
						},
						{
							"internalType": "address payable",
							"name": "uploader",
							"type": "address"
						}
					],
					"stateMutability": "view",
					"type": "function"
				},
				{
					"inputs": [],
					"name": "name",
					"outputs": [
						{
							"internalType": "string",
							"name": "",
							"type": "string"
						}
					],
					"stateMutability": "view",
					"type": "function"
				},
				{
					"inputs": [],
					"name": "verificationCount",
					"outputs": [
						{
							"internalType": "uint256",
							"name": "",
							"type": "uint256"
						}
					],
					"stateMutability": "view",
					"type": "function"
				}
			],
			"devdoc": {
				"kind": "dev",
				"methods": {},
				"version": 1
			},
			"evm": {
				"assembly": "    /* \"Database/Database/Verification.sol\":59:6176  contract Verification {... */\n  mstore(0x40, 0x80)\n    /* \"Database/Database/Verification.sol\":88:123  string public name = 'Verification' */\n  mload(0x40)\n  dup1\n  0x40\n  add\n  0x40\n  mstore\n  dup1\n  0x0c\n  dup2\n  mstore\n  0x20\n  add\n  0x566572696669636174696f6e0000000000000000000000000000000000000000\n  dup2\n  mstore\n  pop\n  0x00\n  swap1\n  dup2\n  tag_1\n  swap2\n  swap1\n  tag_2\n  jump\t// in\ntag_1:\n  pop\n    /* \"Database/Database/Verification.sol\":167:168  0 */\n  0x00\n    /* \"Database/Database/Verification.sol\":132:168  uint256 public verificationCount = 0 */\n  0x01\n  sstore\n    /* \"Database/Database/Verification.sol\":649:703  constructor() {... */\n  callvalue\n  dup1\n  iszero\n  tag_3\n  jumpi\n  0x00\n  dup1\n  revert\ntag_3:\n  pop\n    /* \"Database/Database/Verification.sol\":674:695  name = \"Verification\" */\n  mload(0x40)\n  dup1\n  0x40\n  add\n  0x40\n  mstore\n  dup1\n  0x0c\n  dup2\n  mstore\n  0x20\n  add\n  0x566572696669636174696f6e0000000000000000000000000000000000000000\n  dup2\n  mstore\n  pop\n    /* \"Database/Database/Verification.sol\":674:678  name */\n  0x00\n    /* \"Database/Database/Verification.sol\":674:695  name = \"Verification\" */\n  swap1\n  dup2\n  tag_6\n  swap2\n  swap1\n  tag_2\n  jump\t// in\ntag_6:\n  pop\n    /* \"Database/Database/Verification.sol\":59:6176  contract Verification {... */\n  jump(tag_7)\n    /* \"#utility.yul\":7:106   */\ntag_8:\n    /* \"#utility.yul\":59:65   */\n  0x00\n    /* \"#utility.yul\":93:98   */\n  dup2\n    /* \"#utility.yul\":87:99   */\n  mload\n    /* \"#utility.yul\":77:99   */\n  swap1\n  pop\n    /* \"#utility.yul\":7:106   */\n  swap2\n  swap1\n  pop\n  jump\t// out\n    /* \"#utility.yul\":112:292   */\ntag_9:\n    /* \"#utility.yul\":160:237   */\n  0x4e487b7100000000000000000000000000000000000000000000000000000000\n    /* \"#utility.yul\":157:158   */\n  0x00\n    /* \"#utility.yul\":150:238   */\n  mstore\n    /* \"#utility.yul\":257:261   */\n  0x41\n    /* \"#utility.yul\":254:255   */\n  0x04\n    /* \"#utility.yul\":247:262   */\n  mstore\n    /* \"#utility.yul\":281:285   */\n  0x24\n    /* \"#utility.yul\":278:279   */\n  0x00\n    /* \"#utility.yul\":271:286   */\n  revert\n    /* \"#utility.yul\":298:478   */\ntag_10:\n    /* \"#utility.yul\":346:423   */\n  0x4e487b7100000000000000000000000000000000000000000000000000000000\n    /* \"#utility.yul\":343:344   */\n  0x00\n    /* \"#utility.yul\":336:424   */\n  mstore\n    /* \"#utility.yul\":443:447   */\n  0x22\n    /* \"#utility.yul\":440:441   */\n  0x04\n    /* \"#utility.yul\":433:448   */\n  mstore\n    /* \"#utility.yul\":467:471   */\n  0x24\n    /* \"#utility.yul\":464:465   */\n  0x00\n    /* \"#utility.yul\":457:472   */\n  revert\n    /* \"#utility.yul\":484:804   */\ntag_11:\n    /* \"#utility.yul\":528:534   */\n  0x00\n    /* \"#utility.yul\":565:566   */\n  0x02\n    /* \"#utility.yul\":559:563   */\n  dup3\n    /* \"#utility.yul\":555:567   */\n  div\n    /* \"#utility.yul\":545:567   */\n  swap1\n  pop\n    /* \"#utility.yul\":612:613   */\n  0x01\n    /* \"#utility.yul\":606:610   */\n  dup3\n    /* \"#utility.yul\":602:614   */\n  and\n    /* \"#utility.yul\":633:651   */\n  dup1\n    /* \"#utility.yul\":623:704   */\n  tag_33\n  jumpi\n    /* \"#utility.yul\":689:693   */\n  0x7f\n    /* \"#utility.yul\":681:687   */\n  dup3\n    /* \"#utility.yul\":677:694   */\n  and\n    /* \"#utility.yul\":667:694   */\n  swap2\n  pop\n    /* \"#utility.yul\":623:704   */\ntag_33:\n    /* \"#utility.yul\":751:753   */\n  0x20\n    /* \"#utility.yul\":743:749   */\n  dup3\n    /* \"#utility.yul\":740:754   */\n  lt\n    /* \"#utility.yul\":720:738   */\n  dup2\n    /* \"#utility.yul\":717:755   */\n  sub\n    /* \"#utility.yul\":714:798   */\n  tag_34\n  jumpi\n    /* \"#utility.yul\":770:788   */\n  tag_35\n  tag_10\n  jump\t// in\ntag_35:\n    /* \"#utility.yul\":714:798   */\ntag_34:\n    /* \"#utility.yul\":535:804   */\n  pop\n    /* \"#utility.yul\":484:804   */\n  swap2\n  swap1\n  pop\n  jump\t// out\n    /* \"#utility.yul\":810:951   */\ntag_12:\n    /* \"#utility.yul\":859:863   */\n  0x00\n    /* \"#utility.yul\":882:885   */\n  dup2\n    /* \"#utility.yul\":874:885   */\n  swap1\n  pop\n    /* \"#utility.yul\":905:908   */\n  dup2\n    /* \"#utility.yul\":902:903   */\n  0x00\n    /* \"#utility.yul\":895:909   */\n  mstore\n    /* \"#utility.yul\":939:943   */\n  0x20\n    /* \"#utility.yul\":936:937   */\n  0x00\n    /* \"#utility.yul\":926:944   */\n  keccak256\n    /* \"#utility.yul\":918:944   */\n  swap1\n  pop\n    /* \"#utility.yul\":810:951   */\n  swap2\n  swap1\n  pop\n  jump\t// out\n    /* \"#utility.yul\":957:1050   */\ntag_13:\n    /* \"#utility.yul\":994:1000   */\n  0x00\n    /* \"#utility.yul\":1041:1043   */\n  0x20\n    /* \"#utility.yul\":1036:1038   */\n  0x1f\n    /* \"#utility.yul\":1029:1034   */\n  dup4\n    /* \"#utility.yul\":1025:1039   */\n  add\n    /* \"#utility.yul\":1021:1044   */\n  div\n    /* \"#utility.yul\":1011:1044   */\n  swap1\n  pop\n    /* \"#utility.yul\":957:1050   */\n  swap2\n  swap1\n  pop\n  jump\t// out\n    /* \"#utility.yul\":1056:1163   */\ntag_14:\n    /* \"#utility.yul\":1100:1108   */\n  0x00\n    /* \"#utility.yul\":1150:1155   */\n  dup3\n    /* \"#utility.yul\":1144:1148   */\n  dup3\n    /* \"#utility.yul\":1140:1156   */\n  shl\n    /* \"#utility.yul\":1119:1156   */\n  swap1\n  pop\n    /* \"#utility.yul\":1056:1163   */\n  swap3\n  swap2\n  pop\n  pop\n  jump\t// out\n    /* \"#utility.yul\":1169:1562   */\ntag_15:\n    /* \"#utility.yul\":1238:1244   */\n  0x00\n    /* \"#utility.yul\":1288:1289   */\n  0x08\n    /* \"#utility.yul\":1276:1286   */\n  dup4\n    /* \"#utility.yul\":1272:1290   */\n  mul\n    /* \"#utility.yul\":1311:1408   */\n  tag_40\n    /* \"#utility.yul\":1341:1407   */\n  0xffffffffffffffffffffffffffffffffffffffffffffffffffffffffffffffff\n    /* \"#utility.yul\":1330:1339   */\n  dup3\n    /* \"#utility.yul\":1311:1408   */\n  tag_14\n  jump\t// in\ntag_40:\n    /* \"#utility.yul\":1429:1468   */\n  tag_41\n    /* \"#utility.yul\":1459:1467   */\n  dup7\n    /* \"#utility.yul\":1448:1457   */\n  dup4\n    /* \"#utility.yul\":1429:1468   */\n  tag_14\n  jump\t// in\ntag_41:\n    /* \"#utility.yul\":1417:1468   */\n  swap6\n  pop\n    /* \"#utility.yul\":1501:1505   */\n  dup1\n    /* \"#utility.yul\":1497:1506   */\n  not\n    /* \"#utility.yul\":1490:1495   */\n  dup5\n    /* \"#utility.yul\":1486:1507   */\n  and\n    /* \"#utility.yul\":1477:1507   */\n  swap4\n  pop\n    /* \"#utility.yul\":1550:1554   */\n  dup1\n    /* \"#utility.yul\":1540:1548   */\n  dup7\n    /* \"#utility.yul\":1536:1555   */\n  and\n    /* \"#utility.yul\":1529:1534   */\n  dup5\n    /* \"#utility.yul\":1526:1556   */\n  or\n    /* \"#utility.yul\":1516:1556   */\n  swap3\n  pop\n    /* \"#utility.yul\":1245:1562   */\n  pop\n  pop\n    /* \"#utility.yul\":1169:1562   */\n  swap4\n  swap3\n  pop\n  pop\n  pop\n  jump\t// out\n    /* \"#utility.yul\":1568:1645   */\ntag_16:\n    /* \"#utility.yul\":1605:1612   */\n  0x00\n    /* \"#utility.yul\":1634:1639   */\n  dup2\n    /* \"#utility.yul\":1623:1639   */\n  swap1\n  pop\n    /* \"#utility.yul\":1568:1645   */\n  swap2\n  swap1\n  pop\n  jump\t// out\n    /* \"#utility.yul\":1651:1711   */\ntag_17:\n    /* \"#utility.yul\":1679:1682   */\n  0x00\n    /* \"#utility.yul\":1700:1705   */\n  dup2\n    /* \"#utility.yul\":1693:1705   */\n  swap1\n  pop\n    /* \"#utility.yul\":1651:1711   */\n  swap2\n  swap1\n  pop\n  jump\t// out\n    /* \"#utility.yul\":1717:1859   */\ntag_18:\n    /* \"#utility.yul\":1767:1776   */\n  0x00\n    /* \"#utility.yul\":1800:1853   */\n  tag_45\n    /* \"#utility.yul\":1818:1852   */\n  tag_46\n    /* \"#utility.yul\":1827:1851   */\n  tag_47\n    /* \"#utility.yul\":1845:1850   */\n  dup5\n    /* \"#utility.yul\":1827:1851   */\n  tag_16\n  jump\t// in\ntag_47:\n    /* \"#utility.yul\":1818:1852   */\n  tag_17\n  jump\t// in\ntag_46:\n    /* \"#utility.yul\":1800:1853   */\n  tag_16\n  jump\t// in\ntag_45:\n    /* \"#utility.yul\":1787:1853   */\n  swap1\n  pop\n    /* \"#utility.yul\":1717:1859   */\n  swap2\n  swap1\n  pop\n  jump\t// out\n    /* \"#utility.yul\":1865:1940   */\ntag_19:\n    /* \"#utility.yul\":1908:1911   */\n  0x00\n    /* \"#utility.yul\":1929:1934   */\n  dup2\n    /* \"#utility.yul\":1922:1934   */\n  swap1\n  pop\n    /* \"#utility.yul\":1865:1940   */\n  swap2\n  swap1\n  pop\n  jump\t// out\n    /* \"#utility.yul\":1946:2215   */\ntag_20:\n    /* \"#utility.yul\":2056:2095   */\n  tag_50\n    /* \"#utility.yul\":2087:2094   */\n  dup4\n    /* \"#utility.yul\":2056:2095   */\n  tag_18\n  jump\t// in\ntag_50:\n    /* \"#utility.yul\":2117:2208   */\n  tag_51\n    /* \"#utility.yul\":2166:2207   */\n  tag_52\n    /* \"#utility.yul\":2190:2206   */\n  dup3\n    /* \"#utility.yul\":2166:2207   */\n  tag_19\n  jump\t// in\ntag_52:\n    /* \"#utility.yul\":2158:2164   */\n  dup5\n    /* \"#utility.yul\":2151:2155   */\n  dup5\n    /* \"#utility.yul\":2145:2156   */\n  sload\n    /* \"#utility.yul\":2117:2208   */\n  tag_15\n  jump\t// in\ntag_51:\n    /* \"#utility.yul\":2111:2115   */\n  dup3\n    /* \"#utility.yul\":2104:2209   */\n  sstore\n    /* \"#utility.yul\":2022:2215   */\n  pop\n    /* \"#utility.yul\":1946:2215   */\n  pop\n  pop\n  pop\n  jump\t// out\n    /* \"#utility.yul\":2221:2294   */\ntag_21:\n    /* \"#utility.yul\":2266:2269   */\n  0x00\n    /* \"#utility.yul\":2221:2294   */\n  swap1\n  jump\t// out\n    /* \"#utility.yul\":2300:2489   */\ntag_22:\n    /* \"#utility.yul\":2377:2409   */\n  tag_55\n  tag_21\n  jump\t// in\ntag_55:\n    /* \"#utility.yul\":2418:2483   */\n  tag_56\n    /* \"#utility.yul\":2476:2482   */\n  dup2\n    /* \"#utility.yul\":2468:2474   */\n  dup5\n    /* \"#utility.yul\":2462:2466   */\n  dup5\n    /* \"#utility.yul\":2418:2483   */\n  tag_20\n  jump\t// in\ntag_56:\n    /* \"#utility.yul\":2353:2489   */\n  pop\n    /* \"#utility.yul\":2300:2489   */\n  pop\n  pop\n  jump\t// out\n    /* \"#utility.yul\":2495:2681   */\ntag_23:\n    /* \"#utility.yul\":2555:2675   */\ntag_58:\n    /* \"#utility.yul\":2572:2575   */\n  dup2\n    /* \"#utility.yul\":2565:2570   */\n  dup2\n    /* \"#utility.yul\":2562:2576   */\n  lt\n    /* \"#utility.yul\":2555:2675   */\n  iszero\n  tag_60\n  jumpi\n    /* \"#utility.yul\":2626:2665   */\n  tag_61\n    /* \"#utility.yul\":2663:2664   */\n  0x00\n    /* \"#utility.yul\":2656:2661   */\n  dup3\n    /* \"#utility.yul\":2626:2665   */\n  tag_22\n  jump\t// in\ntag_61:\n    /* \"#utility.yul\":2599:2600   */\n  0x01\n    /* \"#utility.yul\":2592:2597   */\n  dup2\n    /* \"#utility.yul\":2588:2601   */\n  add\n    /* \"#utility.yul\":2579:2601   */\n  swap1\n  pop\n    /* \"#utility.yul\":2555:2675   */\n  jump(tag_58)\ntag_60:\n    /* \"#utility.yul\":2495:2681   */\n  pop\n  pop\n  jump\t// out\n    /* \"#utility.yul\":2687:3230   */\ntag_24:\n    /* \"#utility.yul\":2788:2790   */\n  0x1f\n    /* \"#utility.yul\":2783:2786   */\n  dup3\n    /* \"#utility.yul\":2780:2791   */\n  gt\n    /* \"#utility.yul\":2777:3223   */\n  iszero\n  tag_63\n  jumpi\n    /* \"#utility.yul\":2822:2860   */\n  tag_64\n    /* \"#utility.yul\":2854:2859   */\n  dup2\n    /* \"#utility.yul\":2822:2860   */\n  tag_12\n  jump\t// in\ntag_64:\n    /* \"#utility.yul\":2906:2935   */\n  tag_65\n    /* \"#utility.yul\":2924:2934   */\n  dup5\n    /* \"#utility.yul\":2906:2935   */\n  tag_13\n  jump\t// in\ntag_65:\n    /* \"#utility.yul\":2896:2904   */\n  dup2\n    /* \"#utility.yul\":2892:2936   */\n  add\n    /* \"#utility.yul\":3089:3091   */\n  0x20\n    /* \"#utility.yul\":3077:3087   */\n  dup6\n    /* \"#utility.yul\":3074:3092   */\n  lt\n    /* \"#utility.yul\":3071:3120   */\n  iszero\n  tag_66\n  jumpi\n    /* \"#utility.yul\":3110:3118   */\n  dup2\n    /* \"#utility.yul\":3095:3118   */\n  swap1\n  pop\n    /* \"#utility.yul\":3071:3120   */\ntag_66:\n    /* \"#utility.yul\":3133:3213   */\n  tag_67\n    /* \"#utility.yul\":3189:3211   */\n  tag_68\n    /* \"#utility.yul\":3207:3210   */\n  dup6\n    /* \"#utility.yul\":3189:3211   */\n  tag_13\n  jump\t// in\ntag_68:\n    /* \"#utility.yul\":3179:3187   */\n  dup4\n    /* \"#utility.yul\":3175:3212   */\n  add\n    /* \"#utility.yul\":3162:3173   */\n  dup3\n    /* \"#utility.yul\":3133:3213   */\n  tag_23\n  jump\t// in\ntag_67:\n    /* \"#utility.yul\":2792:3223   */\n  pop\n  pop\n    /* \"#utility.yul\":2777:3223   */\ntag_63:\n    /* \"#utility.yul\":2687:3230   */\n  pop\n  pop\n  pop\n  jump\t// out\n    /* \"#utility.yul\":3236:3353   */\ntag_25:\n    /* \"#utility.yul\":3290:3298   */\n  0x00\n    /* \"#utility.yul\":3340:3345   */\n  dup3\n    /* \"#utility.yul\":3334:3338   */\n  dup3\n    /* \"#utility.yul\":3330:3346   */\n  shr\n    /* \"#utility.yul\":3309:3346   */\n  swap1\n  pop\n    /* \"#utility.yul\":3236:3353   */\n  swap3\n  swap2\n  pop\n  pop\n  jump\t// out\n    /* \"#utility.yul\":3359:3528   */\ntag_26:\n    /* \"#utility.yul\":3403:3409   */\n  0x00\n    /* \"#utility.yul\":3436:3487   */\n  tag_71\n    /* \"#utility.yul\":3484:3485   */\n  0x00\n    /* \"#utility.yul\":3480:3486   */\n  not\n    /* \"#utility.yul\":3472:3477   */\n  dup5\n    /* \"#utility.yul\":3469:3470   */\n  0x08\n    /* \"#utility.yul\":3465:3478   */\n  mul\n    /* \"#utility.yul\":3436:3487   */\n  tag_25\n  jump\t// in\ntag_71:\n    /* \"#utility.yul\":3432:3488   */\n  not\n    /* \"#utility.yul\":3517:3521   */\n  dup1\n    /* \"#utility.yul\":3511:3515   */\n  dup4\n    /* \"#utility.yul\":3507:3522   */\n  and\n    /* \"#utility.yul\":3497:3522   */\n  swap2\n  pop\n    /* \"#utility.yul\":3410:3528   */\n  pop\n    /* \"#utility.yul\":3359:3528   */\n  swap3\n  swap2\n  pop\n  pop\n  jump\t// out\n    /* \"#utility.yul\":3533:3828   */\ntag_27:\n    /* \"#utility.yul\":3609:3613   */\n  0x00\n    /* \"#utility.yul\":3755:3784   */\n  tag_73\n    /* \"#utility.yul\":3780:3783   */\n  dup4\n    /* \"#utility.yul\":3774:3778   */\n  dup4\n    /* \"#utility.yul\":3755:3784   */\n  tag_26\n  jump\t// in\ntag_73:\n    /* \"#utility.yul\":3747:3784   */\n  swap2\n  pop\n    /* \"#utility.yul\":3817:3820   */\n  dup3\n    /* \"#utility.yul\":3814:3815   */\n  0x02\n    /* \"#utility.yul\":3810:3821   */\n  mul\n    /* \"#utility.yul\":3804:3808   */\n  dup3\n    /* \"#utility.yul\":3801:3822   */\n  or\n    /* \"#utility.yul\":3793:3822   */\n  swap1\n  pop\n    /* \"#utility.yul\":3533:3828   */\n  swap3\n  swap2\n  pop\n  pop\n  jump\t// out\n    /* \"#utility.yul\":3833:5228   */\ntag_2:\n    /* \"#utility.yul\":3950:3987   */\n  tag_75\n    /* \"#utility.yul\":3983:3986   */\n  dup3\n    /* \"#utility.yul\":3950:3987   */\n  tag_8\n  jump\t// in\ntag_75:\n    /* \"#utility.yul\":4052:4070   */\n  0xffffffffffffffff\n    /* \"#utility.yul\":4044:4050   */\n  dup2\n    /* \"#utility.yul\":4041:4071   */\n  gt\n    /* \"#utility.yul\":4038:4094   */\n  iszero\n  tag_76\n  jumpi\n    /* \"#utility.yul\":4074:4092   */\n  tag_77\n  tag_9\n  jump\t// in\ntag_77:\n    /* \"#utility.yul\":4038:4094   */\ntag_76:\n    /* \"#utility.yul\":4118:4156   */\n  tag_78\n    /* \"#utility.yul\":4150:4154   */\n  dup3\n    /* \"#utility.yul\":4144:4155   */\n  sload\n    /* \"#utility.yul\":4118:4156   */\n  tag_11\n  jump\t// in\ntag_78:\n    /* \"#utility.yul\":4203:4270   */\n  tag_79\n    /* \"#utility.yul\":4263:4269   */\n  dup3\n    /* \"#utility.yul\":4255:4261   */\n  dup3\n    /* \"#utility.yul\":4249:4253   */\n  dup6\n    /* \"#utility.yul\":4203:4270   */\n  tag_24\n  jump\t// in\ntag_79:\n    /* \"#utility.yul\":4297:4298   */\n  0x00\n    /* \"#utility.yul\":4321:4325   */\n  0x20\n    /* \"#utility.yul\":4308:4325   */\n  swap1\n  pop\n    /* \"#utility.yul\":4353:4355   */\n  0x1f\n    /* \"#utility.yul\":4345:4351   */\n  dup4\n    /* \"#utility.yul\":4342:4356   */\n  gt\n    /* \"#utility.yul\":4370:4371   */\n  0x01\n    /* \"#utility.yul\":4365:4983   */\n  dup2\n  eq\n  tag_81\n  jumpi\n    /* \"#utility.yul\":5027:5028   */\n  0x00\n    /* \"#utility.yul\":5044:5050   */\n  dup5\n    /* \"#utility.yul\":5041:5118   */\n  iszero\n  tag_82\n  jumpi\n    /* \"#utility.yul\":5093:5102   */\n  dup3\n    /* \"#utility.yul\":5088:5091   */\n  dup8\n    /* \"#utility.yul\":5084:5103   */\n  add\n    /* \"#utility.yul\":5078:5104   */\n  mload\n    /* \"#utility.yul\":5069:5104   */\n  swap1\n  pop\n    /* \"#utility.yul\":5041:5118   */\ntag_82:\n    /* \"#utility.yul\":5144:5211   */\n  tag_83\n    /* \"#utility.yul\":5204:5210   */\n  dup6\n    /* \"#utility.yul\":5197:5202   */\n  dup3\n    /* \"#utility.yul\":5144:5211   */\n  tag_27\n  jump\t// in\ntag_83:\n    /* \"#utility.yul\":5138:5142   */\n  dup7\n    /* \"#utility.yul\":5131:5212   */\n  sstore\n    /* \"#utility.yul\":5000:5222   */\n  pop\n    /* \"#utility.yul\":4335:5222   */\n  jump(tag_80)\n    /* \"#utility.yul\":4365:4983   */\ntag_81:\n    /* \"#utility.yul\":4417:4421   */\n  0x1f\n    /* \"#utility.yul\":4413:4422   */\n  not\n    /* \"#utility.yul\":4405:4411   */\n  dup5\n    /* \"#utility.yul\":4401:4423   */\n  and\n    /* \"#utility.yul\":4451:4488   */\n  tag_84\n    /* \"#utility.yul\":4483:4487   */\n  dup7\n    /* \"#utility.yul\":4451:4488   */\n  tag_12\n  jump\t// in\ntag_84:\n    /* \"#utility.yul\":4510:4511   */\n  0x00\n    /* \"#utility.yul\":4524:4732   */\ntag_85:\n    /* \"#utility.yul\":4538:4545   */\n  dup3\n    /* \"#utility.yul\":4535:4536   */\n  dup2\n    /* \"#utility.yul\":4532:4546   */\n  lt\n    /* \"#utility.yul\":4524:4732   */\n  iszero\n  tag_87\n  jumpi\n    /* \"#utility.yul\":4617:4626   */\n  dup5\n    /* \"#utility.yul\":4612:4615   */\n  dup10\n    /* \"#utility.yul\":4608:4627   */\n  add\n    /* \"#utility.yul\":4602:4628   */\n  mload\n    /* \"#utility.yul\":4594:4600   */\n  dup3\n    /* \"#utility.yul\":4587:4629   */\n  sstore\n    /* \"#utility.yul\":4668:4669   */\n  0x01\n    /* \"#utility.yul\":4660:4666   */\n  dup3\n    /* \"#utility.yul\":4656:4670   */\n  add\n    /* \"#utility.yul\":4646:4670   */\n  swap2\n  pop\n    /* \"#utility.yul\":4715:4717   */\n  0x20\n    /* \"#utility.yul\":4704:4713   */\n  dup6\n    /* \"#utility.yul\":4700:4718   */\n  add\n    /* \"#utility.yul\":4687:4718   */\n  swap5\n  pop\n    /* \"#utility.yul\":4561:4565   */\n  0x20\n    /* \"#utility.yul\":4558:4559   */\n  dup2\n    /* \"#utility.yul\":4554:4566   */\n  add\n    /* \"#utility.yul\":4549:4566   */\n  swap1\n  pop\n    /* \"#utility.yul\":4524:4732   */\n  jump(tag_85)\ntag_87:\n    /* \"#utility.yul\":4760:4766   */\n  dup7\n    /* \"#utility.yul\":4751:4758   */\n  dup4\n    /* \"#utility.yul\":4748:4767   */\n  lt\n    /* \"#utility.yul\":4745:4924   */\n  iszero\n  tag_88\n  jumpi\n    /* \"#utility.yul\":4818:4827   */\n  dup5\n    /* \"#utility.yul\":4813:4816   */\n  dup10\n    /* \"#utility.yul\":4809:4828   */\n  add\n    /* \"#utility.yul\":4803:4829   */\n  mload\n    /* \"#utility.yul\":4861:4909   */\n  tag_89\n    /* \"#utility.yul\":4903:4907   */\n  0x1f\n    /* \"#utility.yul\":4895:4901   */\n  dup10\n    /* \"#utility.yul\":4891:4908   */\n  and\n    /* \"#utility.yul\":4880:4889   */\n  dup3\n    /* \"#utility.yul\":4861:4909   */\n  tag_26\n  jump\t// in\ntag_89:\n    /* \"#utility.yul\":4853:4859   */\n  dup4\n    /* \"#utility.yul\":4846:4910   */\n  sstore\n    /* \"#utility.yul\":4768:4924   */\n  pop\n    /* \"#utility.yul\":4745:4924   */\ntag_88:\n    /* \"#utility.yul\":4970:4971   */\n  0x01\n    /* \"#utility.yul\":4966:4967   */\n  0x02\n    /* \"#utility.yul\":4958:4964   */\n  dup9\n    /* \"#utility.yul\":4954:4968   */\n  mul\n    /* \"#utility.yul\":4950:4972   */\n  add\n    /* \"#utility.yul\":4944:4948   */\n  dup9\n    /* \"#utility.yul\":4937:4973   */\n  sstore\n    /* \"#utility.yul\":4372:4983   */\n  pop\n  pop\n  pop\n    /* \"#utility.yul\":4335:5222   */\ntag_80:\n  pop\n    /* \"#utility.yul\":3925:5228   */\n  pop\n  pop\n  pop\n    /* \"#utility.yul\":3833:5228   */\n  pop\n  pop\n  jump\t// out\n    /* \"Database/Database/Verification.sol\":59:6176  contract Verification {... */\ntag_7:\n  dataSize(sub_0)\n  dup1\n  dataOffset(sub_0)\n  0x00\n  codecopy\n  0x00\n  return\nstop\n\nsub_0: assembly {\n        /* \"Database/Database/Verification.sol\":59:6176  contract Verification {... */\n      mstore(0x40, 0x80)\n      callvalue\n      dup1\n      iszero\n      tag_1\n      jumpi\n      0x00\n      dup1\n      revert\n    tag_1:\n      pop\n      jumpi(tag_2, lt(calldatasize, 0x04))\n      shr(0xe0, calldataload(0x00))\n      dup1\n      0x8d72ae4f\n      gt\n      tag_11\n      jumpi\n      dup1\n      0x8d72ae4f\n      eq\n      tag_7\n      jumpi\n      dup1\n      0x9d35b96f\n      eq\n      tag_8\n      jumpi\n      dup1\n      0xd27fbe47\n      eq\n      tag_9\n      jumpi\n      dup1\n      0xdb15b787\n      eq\n      tag_10\n      jumpi\n      jump(tag_2)\n    tag_11:\n      dup1\n      0x06fdde03\n      eq\n      tag_3\n      jumpi\n      dup1\n      0x0830e22e\n      eq\n      tag_4\n      jumpi\n      dup1\n      0x0bb6c06b\n      eq\n      tag_5\n      jumpi\n      dup1\n      0x0c61f46d\n      eq\n      tag_6\n      jumpi\n    tag_2:\n      0x00\n      dup1\n      revert\n        /* \"Database/Database/Verification.sol\":88:123  string public name = 'Verification' */\n    tag_3:\n      tag_12\n      tag_13\n      jump\t// in\n    tag_12:\n      mload(0x40)\n      tag_14\n      swap2\n      swap1\n      tag_15\n      jump\t// in\n    tag_14:\n      mload(0x40)\n      dup1\n      swap2\n      sub\n      swap1\n      return\n        /* \"Database/Database/Verification.sol\":132:168  uint256 public verificationCount = 0 */\n    tag_4:\n      tag_16\n      tag_17\n      jump\t// in\n    tag_16:\n      mload(0x40)\n      tag_18\n      swap2\n      swap1\n      tag_19\n      jump\t// in\n    tag_18:\n      mload(0x40)\n      dup1\n      swap2\n      sub\n      swap1\n      return\n        /* \"Database/Database/Verification.sol\":5485:6173  function SetAntiqueIDByVerificationID... */\n    tag_5:\n      tag_20\n      0x04\n      dup1\n      calldatasize\n      sub\n      dup2\n      add\n      swap1\n      tag_21\n      swap2\n      swap1\n      tag_22\n      jump\t// in\n    tag_21:\n      tag_23\n      jump\t// in\n    tag_20:\n      stop\n        /* \"Database/Database/Verification.sol\":2729:4621  function UpdateVerification ... */\n    tag_6:\n      tag_24\n      0x04\n      dup1\n      calldatasize\n      sub\n      dup2\n      add\n      swap1\n      tag_25\n      swap2\n      swap1\n      tag_26\n      jump\t// in\n    tag_25:\n      tag_27\n      jump\t// in\n    tag_24:\n      stop\n        /* \"Database/Database/Verification.sol\":231:295  mapping (uint256 => VerificateionObject) public VerificateionMap */\n    tag_7:\n      tag_28\n      0x04\n      dup1\n      calldatasize\n      sub\n      dup2\n      add\n      swap1\n      tag_29\n      swap2\n      swap1\n      tag_30\n      jump\t// in\n    tag_29:\n      tag_31\n      jump\t// in\n    tag_28:\n      mload(0x40)\n      tag_32\n      swap9\n      swap8\n      swap7\n      swap6\n      swap5\n      swap4\n      swap3\n      swap2\n      swap1\n      tag_33\n      jump\t// in\n    tag_32:\n      mload(0x40)\n      dup1\n      swap2\n      sub\n      swap1\n      return\n        /* \"Database/Database/Verification.sol\":1483:2689  function AddVerification ... */\n    tag_8:\n      tag_34\n      0x04\n      dup1\n      calldatasize\n      sub\n      dup2\n      add\n      swap1\n      tag_35\n      swap2\n      swap1\n      tag_36\n      jump\t// in\n    tag_35:\n      tag_37\n      jump\t// in\n    tag_34:\n      mload(0x40)\n      tag_38\n      swap2\n      swap1\n      tag_19\n      jump\t// in\n    tag_38:\n      mload(0x40)\n      dup1\n      swap2\n      sub\n      swap1\n      return\n        /* \"Database/Database/Verification.sol\":4952:5427  function ValidateVerificationID ... */\n    tag_9:\n      tag_39\n      0x04\n      dup1\n      calldatasize\n      sub\n      dup2\n      add\n      swap1\n      tag_40\n      swap2\n      swap1\n      tag_30\n      jump\t// in\n    tag_40:\n      tag_41\n      jump\t// in\n    tag_39:\n      mload(0x40)\n      tag_42\n      swap2\n      swap1\n      tag_43\n      jump\t// in\n    tag_42:\n      mload(0x40)\n      dup1\n      swap2\n      sub\n      swap1\n      return\n        /* \"Database/Database/Verification.sol\":4663:4911  function GetVerificationByID... */\n    tag_10:\n      tag_44\n      0x04\n      dup1\n      calldatasize\n      sub\n      dup2\n      add\n      swap1\n      tag_45\n      swap2\n      swap1\n      tag_30\n      jump\t// in\n    tag_45:\n      tag_46\n      jump\t// in\n    tag_44:\n      mload(0x40)\n      tag_47\n      swap2\n      swap1\n      tag_48\n      jump\t// in\n    tag_47:\n      mload(0x40)\n      dup1\n      swap2\n      sub\n      swap1\n      return\n        /* \"Database/Database/Verification.sol\":88:123  string public name = 'Verification' */\n    tag_13:\n      0x00\n      dup1\n      sload\n      tag_49\n      swap1\n      tag_50\n      jump\t// in\n    tag_49:\n      dup1\n      0x1f\n      add\n      0x20\n      dup1\n      swap2\n      div\n      mul\n      0x20\n      add\n      mload(0x40)\n      swap1\n      dup2\n      add\n      0x40\n      mstore\n      dup1\n      swap3\n      swap2\n      swap1\n      dup2\n      dup2\n      mstore\n      0x20\n      add\n      dup3\n      dup1\n      sload\n      tag_51\n      swap1\n      tag_50\n      jump\t// in\n    tag_51:\n      dup1\n      iszero\n      tag_52\n      jumpi\n      dup1\n      0x1f\n      lt\n      tag_53\n      jumpi\n      0x0100\n      dup1\n      dup4\n      sload\n      div\n      mul\n      dup4\n      mstore\n      swap2\n      0x20\n      add\n      swap2\n      jump(tag_52)\n    tag_53:\n      dup3\n      add\n      swap2\n      swap1\n      0x00\n      mstore\n      keccak256(0x00, 0x20)\n      swap1\n    tag_54:\n      dup2\n      sload\n      dup2\n      mstore\n      swap1\n      0x01\n      add\n      swap1\n      0x20\n      add\n      dup1\n      dup4\n      gt\n      tag_54\n      jumpi\n      dup3\n      swap1\n      sub\n      0x1f\n      and\n      dup3\n      add\n      swap2\n    tag_52:\n      pop\n      pop\n      pop\n      pop\n      pop\n      dup2\n      jump\t// out\n        /* \"Database/Database/Verification.sol\":132:168  uint256 public verificationCount = 0 */\n    tag_17:\n      sload(0x01)\n      dup2\n      jump\t// out\n        /* \"Database/Database/Verification.sol\":5485:6173  function SetAntiqueIDByVerificationID... */\n    tag_23:\n        /* \"Database/Database/Verification.sol\":5714:5718  true */\n      0x01\n        /* \"Database/Database/Verification.sol\":5671:5718  ValidateVerificationID(_verificationID) == true */\n      iszero\n      iszero\n        /* \"Database/Database/Verification.sol\":5671:5710  ValidateVerificationID(_verificationID) */\n      tag_56\n        /* \"Database/Database/Verification.sol\":5694:5709  _verificationID */\n      dup5\n        /* \"Database/Database/Verification.sol\":5671:5693  ValidateVerificationID */\n      tag_41\n        /* \"Database/Database/Verification.sol\":5671:5710  ValidateVerificationID(_verificationID) */\n      jump\t// in\n    tag_56:\n        /* \"Database/Database/Verification.sol\":5671:5718  ValidateVerificationID(_verificationID) == true */\n      iszero\n      iszero\n      eq\n        /* \"Database/Database/Verification.sol\":5663:5719  require(ValidateVerificationID(_verificationID) == true) */\n      tag_57\n      jumpi\n      0x00\n      dup1\n      revert\n    tag_57:\n        /* \"Database/Database/Verification.sol\":5751:5752  0 */\n      0x00\n        /* \"Database/Database/Verification.sol\":5738:5748  _antiqueID */\n      dup3\n        /* \"Database/Database/Verification.sol\":5738:5752  _antiqueID > 0 */\n      gt\n        /* \"Database/Database/Verification.sol\":5730:5753  require(_antiqueID > 0) */\n      tag_58\n      jumpi\n      0x00\n      dup1\n      revert\n    tag_58:\n        /* \"Database/Database/Verification.sol\":5764:5808  VerificateionObject memory _verificationData */\n      0x00\n        /* \"Database/Database/Verification.sol\":5811:5827  VerificateionMap */\n      0x02\n        /* \"Database/Database/Verification.sol\":5811:5844  VerificateionMap[_verificationID] */\n      0x00\n        /* \"Database/Database/Verification.sol\":5828:5843  _verificationID */\n      dup6\n        /* \"Database/Database/Verification.sol\":5811:5844  VerificateionMap[_verificationID] */\n      dup2\n      mstore\n      0x20\n      add\n      swap1\n      dup2\n      mstore\n      0x20\n      add\n      0x00\n      keccak256\n        /* \"Database/Database/Verification.sol\":5764:5844  VerificateionObject memory _verificationData = VerificateionMap[_verificationID] */\n      mload(0x40)\n      dup1\n      0x0100\n      add\n      0x40\n      mstore\n      swap1\n      dup2\n      0x00\n      dup3\n      add\n      sload\n      dup2\n      mstore\n      0x20\n      add\n      0x01\n      dup3\n      add\n      sload\n      dup2\n      mstore\n      0x20\n      add\n      0x02\n      dup3\n      add\n      0x00\n      swap1\n      sload\n      swap1\n      0x0100\n      exp\n      swap1\n      div\n      0xffffffffffffffffffffffffffffffffffffffff\n      and\n      0xffffffffffffffffffffffffffffffffffffffff\n      and\n      0xffffffffffffffffffffffffffffffffffffffff\n      and\n      dup2\n      mstore\n      0x20\n      add\n      0x03\n      dup3\n      add\n      sload\n      dup2\n      mstore\n      0x20\n      add\n      0x04\n      dup3\n      add\n      sload\n      dup2\n      mstore\n      0x20\n      add\n      0x05\n      dup3\n      add\n      sload\n      dup2\n      mstore\n      0x20\n      add\n      0x06\n      dup3\n      add\n      sload\n      dup2\n      mstore\n      0x20\n      add\n      0x07\n      dup3\n      add\n      0x00\n      swap1\n      sload\n      swap1\n      0x0100\n      exp\n      swap1\n      div\n      0xffffffffffffffffffffffffffffffffffffffff\n      and\n      0xffffffffffffffffffffffffffffffffffffffff\n      and\n      0xffffffffffffffffffffffffffffffffffffffff\n      and\n      dup2\n      mstore\n      pop\n      pop\n      swap1\n      pop\n        /* \"Database/Database/Verification.sol\":5885:5895  _antiqueID */\n      dup3\n        /* \"Database/Database/Verification.sol\":5855:5872  _verificationData */\n      dup2\n        /* \"Database/Database/Verification.sol\":5855:5882  _verificationData.antiqueID */\n      0x20\n      add\n        /* \"Database/Database/Verification.sol\":5855:5895  _verificationData.antiqueID = _antiqueID */\n      dup2\n      dup2\n      mstore\n      pop\n      pop\n        /* \"Database/Database/Verification.sol\":5942:5959  _verificationData */\n      dup1\n        /* \"Database/Database/Verification.sol\":5906:5922  VerificateionMap */\n      0x02\n        /* \"Database/Database/Verification.sol\":5906:5939  VerificateionMap[_verificationID] */\n      0x00\n        /* \"Database/Database/Verification.sol\":5923:5938  _verificationID */\n      dup7\n        /* \"Database/Database/Verification.sol\":5906:5939  VerificateionMap[_verificationID] */\n      dup2\n      mstore\n      0x20\n      add\n      swap1\n      dup2\n      mstore\n      0x20\n      add\n      0x00\n      keccak256\n        /* \"Database/Database/Verification.sol\":5906:5959  VerificateionMap[_verificationID] = _verificationData */\n      0x00\n      dup3\n      add\n      mload\n      dup2\n      0x00\n      add\n      sstore\n      0x20\n      dup3\n      add\n      mload\n      dup2\n      0x01\n      add\n      sstore\n      0x40\n      dup3\n      add\n      mload\n      dup2\n      0x02\n      add\n      exp(0x0100, 0x00)\n      dup2\n      sload\n      dup2\n      0xffffffffffffffffffffffffffffffffffffffff\n      mul\n      not\n      and\n      swap1\n      dup4\n      0xffffffffffffffffffffffffffffffffffffffff\n      and\n      mul\n      or\n      swap1\n      sstore\n      pop\n      0x60\n      dup3\n      add\n      mload\n      dup2\n      0x03\n      add\n      sstore\n      0x80\n      dup3\n      add\n      mload\n      dup2\n      0x04\n      add\n      sstore\n      0xa0\n      dup3\n      add\n      mload\n      dup2\n      0x05\n      add\n      sstore\n      0xc0\n      dup3\n      add\n      mload\n      dup2\n      0x06\n      add\n      sstore\n      0xe0\n      dup3\n      add\n      mload\n      dup2\n      0x07\n      add\n      exp(0x0100, 0x00)\n      dup2\n      sload\n      dup2\n      0xffffffffffffffffffffffffffffffffffffffff\n      mul\n      not\n      and\n      swap1\n      dup4\n      0xffffffffffffffffffffffffffffffffffffffff\n      and\n      mul\n      or\n      swap1\n      sstore\n      pop\n      swap1\n      pop\n      pop\n        /* \"Database/Database/Verification.sol\":6022:6165  SetAntiqueID ... */\n      0x6e0b435700f0058d5626628c63237caa82eb6025db3997bcbfc4807dfba203ba\n        /* \"Database/Database/Verification.sol\":6060:6075  _verificationID */\n      dup5\n        /* \"Database/Database/Verification.sol\":6090:6100  _antiqueID */\n      dup5\n        /* \"Database/Database/Verification.sol\":6115:6130  block.timestamp */\n      timestamp\n        /* \"Database/Database/Verification.sol\":6145:6154  _uploader */\n      dup6\n        /* \"Database/Database/Verification.sol\":6022:6165  SetAntiqueID ... */\n      mload(0x40)\n      tag_59\n      swap5\n      swap4\n      swap3\n      swap2\n      swap1\n      tag_60\n      jump\t// in\n    tag_59:\n      mload(0x40)\n      dup1\n      swap2\n      sub\n      swap1\n      log1\n        /* \"Database/Database/Verification.sol\":5652:6173  {... */\n      pop\n        /* \"Database/Database/Verification.sol\":5485:6173  function SetAntiqueIDByVerificationID... */\n      pop\n      pop\n      pop\n      jump\t// out\n        /* \"Database/Database/Verification.sol\":2729:4621  function UpdateVerification ... */\n    tag_27:\n        /* \"Database/Database/Verification.sol\":3050:3051  0 */\n      0x00\n        /* \"Database/Database/Verification.sol\":3032:3047  _verificationID */\n      dup7\n        /* \"Database/Database/Verification.sol\":3032:3051  _verificationID > 0 */\n      gt\n        /* \"Database/Database/Verification.sol\":3032:3091  _verificationID > 0 && _verificationID <= verificationCount */\n      dup1\n      iszero\n      tag_62\n      jumpi\n      pop\n        /* \"Database/Database/Verification.sol\":3074:3091  verificationCount */\n      sload(0x01)\n        /* \"Database/Database/Verification.sol\":3055:3070  _verificationID */\n      dup7\n        /* \"Database/Database/Verification.sol\":3055:3091  _verificationID <= verificationCount */\n      gt\n      iszero\n        /* \"Database/Database/Verification.sol\":3032:3091  _verificationID > 0 && _verificationID <= verificationCount */\n    tag_62:\n        /* \"Database/Database/Verification.sol\":3024:3092  require(_verificationID > 0 && _verificationID <= verificationCount) */\n      tag_63\n      jumpi\n      0x00\n      dup1\n      revert\n    tag_63:\n        /* \"Database/Database/Verification.sol\":3132:3133  0 */\n      0x00\n        /* \"Database/Database/Verification.sol\":3111:3134  _uploader != address(0) */\n      0xffffffffffffffffffffffffffffffffffffffff\n      and\n        /* \"Database/Database/Verification.sol\":3111:3120  _uploader */\n      dup2\n        /* \"Database/Database/Verification.sol\":3111:3134  _uploader != address(0) */\n      0xffffffffffffffffffffffffffffffffffffffff\n      and\n      sub\n        /* \"Database/Database/Verification.sol\":3103:3135  require(_uploader != address(0)) */\n      tag_64\n      jumpi\n      0x00\n      dup1\n      revert\n    tag_64:\n        /* \"Database/Database/Verification.sol\":3146:3190  VerificateionObject memory _verificationData */\n      0x00\n        /* \"Database/Database/Verification.sol\":3193:3209  VerificateionMap */\n      0x02\n        /* \"Database/Database/Verification.sol\":3193:3226  VerificateionMap[_verificationID] */\n      0x00\n        /* \"Database/Database/Verification.sol\":3210:3225  _verificationID */\n      dup9\n        /* \"Database/Database/Verification.sol\":3193:3226  VerificateionMap[_verificationID] */\n      dup2\n      mstore\n      0x20\n      add\n      swap1\n      dup2\n      mstore\n      0x20\n      add\n      0x00\n      keccak256\n        /* \"Database/Database/Verification.sol\":3146:3226  VerificateionObject memory _verificationData = VerificateionMap[_verificationID] */\n      mload(0x40)\n      dup1\n      0x0100\n      add\n      0x40\n      mstore\n      swap1\n      dup2\n      0x00\n      dup3\n      add\n      sload\n      dup2\n      mstore\n      0x20\n      add\n      0x01\n      dup3\n      add\n      sload\n      dup2\n      mstore\n      0x20\n      add\n      0x02\n      dup3\n      add\n      0x00\n      swap1\n      sload\n      swap1\n      0x0100\n      exp\n      swap1\n      div\n      0xffffffffffffffffffffffffffffffffffffffff\n      and\n      0xffffffffffffffffffffffffffffffffffffffff\n      and\n      0xffffffffffffffffffffffffffffffffffffffff\n      and\n      dup2\n      mstore\n      0x20\n      add\n      0x03\n      dup3\n      add\n      sload\n      dup2\n      mstore\n      0x20\n      add\n      0x04\n      dup3\n      add\n      sload\n      dup2\n      mstore\n      0x20\n      add\n      0x05\n      dup3\n      add\n      sload\n      dup2\n      mstore\n      0x20\n      add\n      0x06\n      dup3\n      add\n      sload\n      dup2\n      mstore\n      0x20\n      add\n      0x07\n      dup3\n      add\n      0x00\n      swap1\n      sload\n      swap1\n      0x0100\n      exp\n      swap1\n      div\n      0xffffffffffffffffffffffffffffffffffffffff\n      and\n      0xffffffffffffffffffffffffffffffffffffffff\n      and\n      0xffffffffffffffffffffffffffffffffffffffff\n      and\n      dup2\n      mstore\n      pop\n      pop\n      swap1\n      pop\n        /* \"Database/Database/Verification.sol\":3237:3273  address payable _currentOwnerAddress */\n      0x00\n        /* \"Database/Database/Verification.sol\":3276:3293  _verificationData */\n      dup2\n        /* \"Database/Database/Verification.sol\":3276:3306  _verificationData.ownerAddress */\n      0x40\n      add\n      mload\n        /* \"Database/Database/Verification.sol\":3237:3306  address payable _currentOwnerAddress = _verificationData.ownerAddress */\n      swap1\n      pop\n        /* \"Database/Database/Verification.sol\":3387:3403  _newOwnerAddress */\n      dup7\n        /* \"Database/Database/Verification.sol\":3363:3403  _currentOwnerAddress != _newOwnerAddress */\n      0xffffffffffffffffffffffffffffffffffffffff\n      and\n        /* \"Database/Database/Verification.sol\":3363:3383  _currentOwnerAddress */\n      dup2\n        /* \"Database/Database/Verification.sol\":3363:3403  _currentOwnerAddress != _newOwnerAddress */\n      0xffffffffffffffffffffffffffffffffffffffff\n      and\n      eq\n        /* \"Database/Database/Verification.sol\":3359:3608  if (_currentOwnerAddress != _newOwnerAddress)... */\n      tag_65\n      jumpi\n        /* \"Database/Database/Verification.sol\":3452:3469  _verificationData */\n      dup2\n        /* \"Database/Database/Verification.sol\":3452:3477  _verificationData.ownerID */\n      0x60\n      add\n      mload\n        /* \"Database/Database/Verification.sol\":3437:3448  _newOwnerID */\n      dup7\n        /* \"Database/Database/Verification.sol\":3437:3477  _newOwnerID != _verificationData.ownerID */\n      sub\n        /* \"Database/Database/Verification.sol\":3429:3478  require(_newOwnerID != _verificationData.ownerID) */\n      tag_66\n      jumpi\n      0x00\n      dup1\n      revert\n    tag_66:\n        /* \"Database/Database/Verification.sol\":3526:3542  _newOwnerAddress */\n      dup7\n        /* \"Database/Database/Verification.sol\":3493:3510  _verificationData */\n      dup3\n        /* \"Database/Database/Verification.sol\":3493:3523  _verificationData.ownerAddress */\n      0x40\n      add\n        /* \"Database/Database/Verification.sol\":3493:3542  _verificationData.ownerAddress = _newOwnerAddress */\n      swap1\n      0xffffffffffffffffffffffffffffffffffffffff\n      and\n      swap1\n      dup2\n      0xffffffffffffffffffffffffffffffffffffffff\n      and\n      dup2\n      mstore\n      pop\n      pop\n        /* \"Database/Database/Verification.sol\":3585:3596  _newOwnerID */\n      dup6\n        /* \"Database/Database/Verification.sol\":3557:3574  _verificationData */\n      dup3\n        /* \"Database/Database/Verification.sol\":3557:3582  _verificationData.ownerID */\n      0x60\n      add\n        /* \"Database/Database/Verification.sol\":3557:3596  _verificationData.ownerID = _newOwnerID */\n      dup2\n      dup2\n      mstore\n      pop\n      pop\n        /* \"Database/Database/Verification.sol\":3359:3608  if (_currentOwnerAddress != _newOwnerAddress)... */\n    tag_65:\n        /* \"Database/Database/Verification.sol\":4073:4090  _verificationData */\n      dup2\n        /* \"Database/Database/Verification.sol\":4073:4102  _verificationData.ioTDeviceID */\n      0xa0\n      add\n      mload\n        /* \"Database/Database/Verification.sol\":4054:4069  _newIoTDeviceID */\n      dup5\n        /* \"Database/Database/Verification.sol\":4054:4102  _newIoTDeviceID != _verificationData.ioTDeviceID */\n      eq\n        /* \"Database/Database/Verification.sol\":4051:4187  if(_newIoTDeviceID != _verificationData.ioTDeviceID)... */\n      tag_67\n      jumpi\n        /* \"Database/Database/Verification.sol\":4160:4175  _newIoTDeviceID */\n      dup4\n        /* \"Database/Database/Verification.sol\":4128:4145  _verificationData */\n      dup3\n        /* \"Database/Database/Verification.sol\":4128:4157  _verificationData.ioTDeviceID */\n      0xa0\n      add\n        /* \"Database/Database/Verification.sol\":4128:4175  _verificationData.ioTDeviceID = _newIoTDeviceID */\n      dup2\n      dup2\n      mstore\n      pop\n      pop\n        /* \"Database/Database/Verification.sol\":4051:4187  if(_newIoTDeviceID != _verificationData.ioTDeviceID)... */\n    tag_67:\n        /* \"Database/Database/Verification.sol\":4231:4246  block.timestamp */\n      timestamp\n        /* \"Database/Database/Verification.sol\":4199:4216  _verificationData */\n      dup3\n        /* \"Database/Database/Verification.sol\":4199:4227  _verificationData.uploadTime */\n      0xc0\n      add\n        /* \"Database/Database/Verification.sol\":4199:4246  _verificationData.uploadTime =  block.timestamp */\n      dup2\n      dup2\n      mstore\n      pop\n      pop\n        /* \"Database/Database/Verification.sol\":4329:4346  _verificationData */\n      dup2\n        /* \"Database/Database/Verification.sol\":4293:4309  VerificateionMap */\n      0x02\n        /* \"Database/Database/Verification.sol\":4293:4326  VerificateionMap[_verificationID] */\n      0x00\n        /* \"Database/Database/Verification.sol\":4310:4325  _verificationID */\n      dup11\n        /* \"Database/Database/Verification.sol\":4293:4326  VerificateionMap[_verificationID] */\n      dup2\n      mstore\n      0x20\n      add\n      swap1\n      dup2\n      mstore\n      0x20\n      add\n      0x00\n      keccak256\n        /* \"Database/Database/Verification.sol\":4293:4346  VerificateionMap[_verificationID] = _verificationData */\n      0x00\n      dup3\n      add\n      mload\n      dup2\n      0x00\n      add\n      sstore\n      0x20\n      dup3\n      add\n      mload\n      dup2\n      0x01\n      add\n      sstore\n      0x40\n      dup3\n      add\n      mload\n      dup2\n      0x02\n      add\n      exp(0x0100, 0x00)\n      dup2\n      sload\n      dup2\n      0xffffffffffffffffffffffffffffffffffffffff\n      mul\n      not\n      and\n      swap1\n      dup4\n      0xffffffffffffffffffffffffffffffffffffffff\n      and\n      mul\n      or\n      swap1\n      sstore\n      pop\n      0x60\n      dup3\n      add\n      mload\n      dup2\n      0x03\n      add\n      sstore\n      0x80\n      dup3\n      add\n      mload\n      dup2\n      0x04\n      add\n      sstore\n      0xa0\n      dup3\n      add\n      mload\n      dup2\n      0x05\n      add\n      sstore\n      0xc0\n      dup3\n      add\n      mload\n      dup2\n      0x06\n      add\n      sstore\n      0xe0\n      dup3\n      add\n      mload\n      dup2\n      0x07\n      add\n      exp(0x0100, 0x00)\n      dup2\n      sload\n      dup2\n      0xffffffffffffffffffffffffffffffffffffffff\n      mul\n      not\n      and\n      swap1\n      dup4\n      0xffffffffffffffffffffffffffffffffffffffff\n      and\n      mul\n      or\n      swap1\n      sstore\n      pop\n      swap1\n      pop\n      pop\n        /* \"Database/Database/Verification.sol\":4362:4613  VerificationUpdated ... */\n      0x63ee7a5349a48c16e84171febda7b76aa417ead29f6971542efa642ccadfcb2d\n        /* \"Database/Database/Verification.sol\":4407:4422  _verificationID */\n      dup9\n        /* \"Database/Database/Verification.sol\":4437:4453  _newOwnerAddress */\n      dup9\n        /* \"Database/Database/Verification.sol\":4468:4479  _newOwnerID */\n      dup9\n        /* \"Database/Database/Verification.sol\":4494:4518  _newPersonVerificationID */\n      dup9\n        /* \"Database/Database/Verification.sol\":4533:4548  _newIoTDeviceID */\n      dup9\n        /* \"Database/Database/Verification.sol\":4563:4578  block.timestamp */\n      timestamp\n        /* \"Database/Database/Verification.sol\":4593:4602  _uploader */\n      dup10\n        /* \"Database/Database/Verification.sol\":4362:4613  VerificationUpdated ... */\n      mload(0x40)\n      tag_68\n      swap8\n      swap7\n      swap6\n      swap5\n      swap4\n      swap3\n      swap2\n      swap1\n      tag_69\n      jump\t// in\n    tag_68:\n      mload(0x40)\n      dup1\n      swap2\n      sub\n      swap1\n      log1\n        /* \"Database/Database/Verification.sol\":3013:4621  {... */\n      pop\n      pop\n        /* \"Database/Database/Verification.sol\":2729:4621  function UpdateVerification ... */\n      pop\n      pop\n      pop\n      pop\n      pop\n      pop\n      jump\t// out\n        /* \"Database/Database/Verification.sol\":231:295  mapping (uint256 => VerificateionObject) public VerificateionMap */\n    tag_31:\n      mstore(0x20, 0x02)\n      dup1\n      0x00\n      mstore\n      keccak256(0x00, 0x40)\n      0x00\n      swap2\n      pop\n      swap1\n      pop\n      dup1\n      0x00\n      add\n      sload\n      swap1\n      dup1\n      0x01\n      add\n      sload\n      swap1\n      dup1\n      0x02\n      add\n      0x00\n      swap1\n      sload\n      swap1\n      0x0100\n      exp\n      swap1\n      div\n      0xffffffffffffffffffffffffffffffffffffffff\n      and\n      swap1\n      dup1\n      0x03\n      add\n      sload\n      swap1\n      dup1\n      0x04\n      add\n      sload\n      swap1\n      dup1\n      0x05\n      add\n      sload\n      swap1\n      dup1\n      0x06\n      add\n      sload\n      swap1\n      dup1\n      0x07\n      add\n      0x00\n      swap1\n      sload\n      swap1\n      0x0100\n      exp\n      swap1\n      div\n      0xffffffffffffffffffffffffffffffffffffffff\n      and\n      swap1\n      pop\n      dup9\n      jump\t// out\n        /* \"Database/Database/Verification.sol\":1483:2689  function AddVerification ... */\n    tag_37:\n        /* \"Database/Database/Verification.sol\":1718:1725  uint256 */\n      0x00\n        /* \"Database/Database/Verification.sol\":1772:1773  0 */\n      dup1\n        /* \"Database/Database/Verification.sol\":1751:1774  _uploader != address(0) */\n      0xffffffffffffffffffffffffffffffffffffffff\n      and\n        /* \"Database/Database/Verification.sol\":1751:1760  _uploader */\n      dup3\n        /* \"Database/Database/Verification.sol\":1751:1774  _uploader != address(0) */\n      0xffffffffffffffffffffffffffffffffffffffff\n      and\n      sub\n        /* \"Database/Database/Verification.sol\":1743:1775  require(_uploader != address(0)) */\n      tag_71\n      jumpi\n      0x00\n      dup1\n      revert\n    tag_71:\n        /* \"Database/Database/Verification.sol\":1805:1806  0 */\n      0x00\n        /* \"Database/Database/Verification.sol\":1794:1802  _ownerID */\n      dup6\n        /* \"Database/Database/Verification.sol\":1794:1806  _ownerID > 0 */\n      gt\n        /* \"Database/Database/Verification.sol\":1786:1807  require(_ownerID > 0) */\n      tag_72\n      jumpi\n      0x00\n      dup1\n      revert\n    tag_72:\n        /* \"Database/Database/Verification.sol\":1850:1851  0 */\n      0x00\n        /* \"Database/Database/Verification.sol\":1826:1847  _personVerificationID */\n      dup5\n        /* \"Database/Database/Verification.sol\":1826:1851  _personVerificationID > 0 */\n      gt\n        /* \"Database/Database/Verification.sol\":1818:1852  require(_personVerificationID > 0) */\n      tag_73\n      jumpi\n      0x00\n      dup1\n      revert\n    tag_73:\n        /* \"Database/Database/Verification.sol\":1887:1888  0 */\n      0x00\n        /* \"Database/Database/Verification.sol\":1871:1883  _ioTDeviceID */\n      dup4\n        /* \"Database/Database/Verification.sol\":1871:1888  _ioTDeviceID  > 0 */\n      gt\n        /* \"Database/Database/Verification.sol\":1863:1889  require(_ioTDeviceID  > 0) */\n      tag_74\n      jumpi\n      0x00\n      dup1\n      revert\n    tag_74:\n        /* \"Database/Database/Verification.sol\":1944:1969  uint256 _antiqueDefaultID */\n      0x00\n        /* \"Database/Database/Verification.sol\":2017:2034  verificationCount */\n      0x01\n      0x00\n        /* \"Database/Database/Verification.sol\":2017:2037  verificationCount ++ */\n      dup2\n      sload\n      dup1\n      swap3\n      swap2\n      swap1\n      tag_75\n      swap1\n      tag_76\n      jump\t// in\n    tag_75:\n      swap2\n      swap1\n      pop\n      sstore\n      pop\n        /* \"Database/Database/Verification.sol\":2086:2359  VerificateionObject ... */\n      mload(0x40)\n      dup1\n      0x0100\n      add\n      0x40\n      mstore\n      dup1\n        /* \"Database/Database/Verification.sol\":2131:2148  verificationCount */\n      sload(0x01)\n        /* \"Database/Database/Verification.sol\":2086:2359  VerificateionObject ... */\n      dup2\n      mstore\n      0x20\n      add\n        /* \"Database/Database/Verification.sol\":2163:2180  _antiqueDefaultID */\n      dup3\n        /* \"Database/Database/Verification.sol\":2086:2359  VerificateionObject ... */\n      dup2\n      mstore\n      0x20\n      add\n        /* \"Database/Database/Verification.sol\":2195:2208  _ownerAddress */\n      dup9\n        /* \"Database/Database/Verification.sol\":2086:2359  VerificateionObject ... */\n      0xffffffffffffffffffffffffffffffffffffffff\n      and\n      dup2\n      mstore\n      0x20\n      add\n        /* \"Database/Database/Verification.sol\":2223:2231  _ownerID */\n      dup8\n        /* \"Database/Database/Verification.sol\":2086:2359  VerificateionObject ... */\n      dup2\n      mstore\n      0x20\n      add\n        /* \"Database/Database/Verification.sol\":2246:2267  _personVerificationID */\n      dup7\n        /* \"Database/Database/Verification.sol\":2086:2359  VerificateionObject ... */\n      dup2\n      mstore\n      0x20\n      add\n        /* \"Database/Database/Verification.sol\":2282:2294  _ioTDeviceID */\n      dup6\n        /* \"Database/Database/Verification.sol\":2086:2359  VerificateionObject ... */\n      dup2\n      mstore\n      0x20\n      add\n        /* \"Database/Database/Verification.sol\":2309:2324  block.timestamp */\n      timestamp\n        /* \"Database/Database/Verification.sol\":2086:2359  VerificateionObject ... */\n      dup2\n      mstore\n      0x20\n      add\n        /* \"Database/Database/Verification.sol\":2339:2348  _uploader */\n      dup5\n        /* \"Database/Database/Verification.sol\":2086:2359  VerificateionObject ... */\n      0xffffffffffffffffffffffffffffffffffffffff\n      and\n      dup2\n      mstore\n      pop\n        /* \"Database/Database/Verification.sol\":2048:2064  VerificateionMap */\n      0x02\n        /* \"Database/Database/Verification.sol\":2048:2083  VerificateionMap[verificationCount] */\n      0x00\n        /* \"Database/Database/Verification.sol\":2065:2082  verificationCount */\n      sload(0x01)\n        /* \"Database/Database/Verification.sol\":2048:2083  VerificateionMap[verificationCount] */\n      dup2\n      mstore\n      0x20\n      add\n      swap1\n      dup2\n      mstore\n      0x20\n      add\n      0x00\n      keccak256\n        /* \"Database/Database/Verification.sol\":2048:2359  VerificateionMap[verificationCount] = VerificateionObject ... */\n      0x00\n      dup3\n      add\n      mload\n      dup2\n      0x00\n      add\n      sstore\n      0x20\n      dup3\n      add\n      mload\n      dup2\n      0x01\n      add\n      sstore\n      0x40\n      dup3\n      add\n      mload\n      dup2\n      0x02\n      add\n      exp(0x0100, 0x00)\n      dup2\n      sload\n      dup2\n      0xffffffffffffffffffffffffffffffffffffffff\n      mul\n      not\n      and\n      swap1\n      dup4\n      0xffffffffffffffffffffffffffffffffffffffff\n      and\n      mul\n      or\n      swap1\n      sstore\n      pop\n      0x60\n      dup3\n      add\n      mload\n      dup2\n      0x03\n      add\n      sstore\n      0x80\n      dup3\n      add\n      mload\n      dup2\n      0x04\n      add\n      sstore\n      0xa0\n      dup3\n      add\n      mload\n      dup2\n      0x05\n      add\n      sstore\n      0xc0\n      dup3\n      add\n      mload\n      dup2\n      0x06\n      add\n      sstore\n      0xe0\n      dup3\n      add\n      mload\n      dup2\n      0x07\n      add\n      exp(0x0100, 0x00)\n      dup2\n      sload\n      dup2\n      0xffffffffffffffffffffffffffffffffffffffff\n      mul\n      not\n      and\n      swap1\n      dup4\n      0xffffffffffffffffffffffffffffffffffffffff\n      and\n      mul\n      or\n      swap1\n      sstore\n      pop\n      swap1\n      pop\n      pop\n        /* \"Database/Database/Verification.sol\":2407:2646  VerificationAdded ... */\n      0x597382782499dbd411783b729f7be17594c82f50b8bdee971701d7deef51968d\n        /* \"Database/Database/Verification.sol\":2450:2467  verificationCount */\n      sload(0x01)\n        /* \"Database/Database/Verification.sol\":2482:2495  _ownerAddress */\n      dup9\n        /* \"Database/Database/Verification.sol\":2510:2518  _ownerID */\n      dup9\n        /* \"Database/Database/Verification.sol\":2533:2554  _personVerificationID */\n      dup9\n        /* \"Database/Database/Verification.sol\":2569:2581  _ioTDeviceID */\n      dup9\n        /* \"Database/Database/Verification.sol\":2596:2611  block.timestamp */\n      timestamp\n        /* \"Database/Database/Verification.sol\":2626:2635  _uploader */\n      dup10\n        /* \"Database/Database/Verification.sol\":2407:2646  VerificationAdded ... */\n      mload(0x40)\n      tag_77\n      swap8\n      swap7\n      swap6\n      swap5\n      swap4\n      swap3\n      swap2\n      swap1\n      tag_69\n      jump\t// in\n    tag_77:\n      mload(0x40)\n      dup1\n      swap2\n      sub\n      swap1\n      log1\n        /* \"Database/Database/Verification.sol\":2664:2681  verificationCount */\n      sload(0x01)\n        /* \"Database/Database/Verification.sol\":2657:2681  return verificationCount */\n      swap2\n      pop\n      pop\n        /* \"Database/Database/Verification.sol\":1483:2689  function AddVerification ... */\n      swap6\n      swap5\n      pop\n      pop\n      pop\n      pop\n      pop\n      jump\t// out\n        /* \"Database/Database/Verification.sol\":4952:5427  function ValidateVerificationID ... */\n    tag_41:\n        /* \"Database/Database/Verification.sol\":5039:5043  bool */\n      0x00\n        /* \"Database/Database/Verification.sol\":5082:5083  0 */\n      dup1\n        /* \"Database/Database/Verification.sol\":5064:5079  _verificationID */\n      dup3\n        /* \"Database/Database/Verification.sol\":5064:5083  _verificationID < 0 */\n      lt\n        /* \"Database/Database/Verification.sol\":5064:5122  _verificationID < 0 || _verificationID > verificationCount */\n      dup1\n      tag_79\n      jumpi\n      pop\n        /* \"Database/Database/Verification.sol\":5105:5122  verificationCount */\n      sload(0x01)\n        /* \"Database/Database/Verification.sol\":5087:5102  _verificationID */\n      dup3\n        /* \"Database/Database/Verification.sol\":5087:5122  _verificationID > verificationCount */\n      gt\n        /* \"Database/Database/Verification.sol\":5064:5122  _verificationID < 0 || _verificationID > verificationCount */\n    tag_79:\n        /* \"Database/Database/Verification.sol\":5061:5149  if(_verificationID < 0 || _verificationID > verificationCount)... */\n      iszero\n      tag_80\n      jumpi\n        /* \"Database/Database/Verification.sol\":5144:5149  false */\n      0x00\n        /* \"Database/Database/Verification.sol\":5137:5149  return false */\n      swap1\n      pop\n      jump(tag_78)\n        /* \"Database/Database/Verification.sol\":5061:5149  if(_verificationID < 0 || _verificationID > verificationCount)... */\n    tag_80:\n        /* \"Database/Database/Verification.sol\":5160:5204  VerificateionObject memory _verificationData */\n      0x00\n        /* \"Database/Database/Verification.sol\":5207:5223  VerificateionMap */\n      0x02\n        /* \"Database/Database/Verification.sol\":5207:5241  VerificateionMap [_verificationID] */\n      0x00\n        /* \"Database/Database/Verification.sol\":5225:5240  _verificationID */\n      dup5\n        /* \"Database/Database/Verification.sol\":5207:5241  VerificateionMap [_verificationID] */\n      dup2\n      mstore\n      0x20\n      add\n      swap1\n      dup2\n      mstore\n      0x20\n      add\n      0x00\n      keccak256\n        /* \"Database/Database/Verification.sol\":5160:5241  VerificateionObject memory _verificationData = VerificateionMap [_verificationID] */\n      mload(0x40)\n      dup1\n      0x0100\n      add\n      0x40\n      mstore\n      swap1\n      dup2\n      0x00\n      dup3\n      add\n      sload\n      dup2\n      mstore\n      0x20\n      add\n      0x01\n      dup3\n      add\n      sload\n      dup2\n      mstore\n      0x20\n      add\n      0x02\n      dup3\n      add\n      0x00\n      swap1\n      sload\n      swap1\n      0x0100\n      exp\n      swap1\n      div\n      0xffffffffffffffffffffffffffffffffffffffff\n      and\n      0xffffffffffffffffffffffffffffffffffffffff\n      and\n      0xffffffffffffffffffffffffffffffffffffffff\n      and\n      dup2\n      mstore\n      0x20\n      add\n      0x03\n      dup3\n      add\n      sload\n      dup2\n      mstore\n      0x20\n      add\n      0x04\n      dup3\n      add\n      sload\n      dup2\n      mstore\n      0x20\n      add\n      0x05\n      dup3\n      add\n      sload\n      dup2\n      mstore\n      0x20\n      add\n      0x06\n      dup3\n      add\n      sload\n      dup2\n      mstore\n      0x20\n      add\n      0x07\n      dup3\n      add\n      0x00\n      swap1\n      sload\n      swap1\n      0x0100\n      exp\n      swap1\n      div\n      0xffffffffffffffffffffffffffffffffffffffff\n      and\n      0xffffffffffffffffffffffffffffffffffffffff\n      and\n      0xffffffffffffffffffffffffffffffffffffffff\n      and\n      dup2\n      mstore\n      pop\n      pop\n      swap1\n      pop\n        /* \"Database/Database/Verification.sol\":5297:5298  0 */\n      0x00\n        /* \"Database/Database/Verification.sol\":5255:5299  _verificationData.ownerAddress == address(0) */\n      0xffffffffffffffffffffffffffffffffffffffff\n      and\n        /* \"Database/Database/Verification.sol\":5255:5272  _verificationData */\n      dup2\n        /* \"Database/Database/Verification.sol\":5255:5285  _verificationData.ownerAddress */\n      0x40\n      add\n      mload\n        /* \"Database/Database/Verification.sol\":5255:5299  _verificationData.ownerAddress == address(0) */\n      0xffffffffffffffffffffffffffffffffffffffff\n      and\n      sub\n        /* \"Database/Database/Verification.sol\":5252:5326  if(_verificationData.ownerAddress == address(0))... */\n      tag_81\n      jumpi\n        /* \"Database/Database/Verification.sol\":5321:5326  false */\n      0x00\n        /* \"Database/Database/Verification.sol\":5314:5326  return false */\n      swap2\n      pop\n      pop\n      jump(tag_78)\n        /* \"Database/Database/Verification.sol\":5252:5326  if(_verificationData.ownerAddress == address(0))... */\n    tag_81:\n        /* \"Database/Database/Verification.sol\":5369:5370  0 */\n      0x00\n        /* \"Database/Database/Verification.sol\":5341:5358  _verificationData */\n      dup2\n        /* \"Database/Database/Verification.sol\":5341:5366  _verificationData.ownerID */\n      0x60\n      add\n      mload\n        /* \"Database/Database/Verification.sol\":5341:5370  _verificationData.ownerID < 0 */\n      lt\n        /* \"Database/Database/Verification.sol\":5337:5397  if (_verificationData.ownerID < 0)... */\n      iszero\n      tag_82\n      jumpi\n        /* \"Database/Database/Verification.sol\":5392:5397  false */\n      0x00\n        /* \"Database/Database/Verification.sol\":5385:5397  return false */\n      swap2\n      pop\n      pop\n      jump(tag_78)\n        /* \"Database/Database/Verification.sol\":5337:5397  if (_verificationData.ownerID < 0)... */\n    tag_82:\n        /* \"Database/Database/Verification.sol\":5415:5419  true */\n      0x01\n        /* \"Database/Database/Verification.sol\":5408:5419  return true */\n      swap2\n      pop\n      pop\n        /* \"Database/Database/Verification.sol\":4952:5427  function ValidateVerificationID ... */\n    tag_78:\n      swap2\n      swap1\n      pop\n      jump\t// out\n        /* \"Database/Database/Verification.sol\":4663:4911  function GetVerificationByID... */\n    tag_46:\n        /* \"Database/Database/Verification.sol\":4751:4777  VerificateionObject memory */\n      tag_83\n      tag_84\n      jump\t// in\n    tag_83:\n        /* \"Database/Database/Verification.sol\":4847:4851  true */\n      0x01\n        /* \"Database/Database/Verification.sol\":4804:4851  ValidateVerificationID(_verificationID) == true */\n      iszero\n      iszero\n        /* \"Database/Database/Verification.sol\":4804:4843  ValidateVerificationID(_verificationID) */\n      tag_86\n        /* \"Database/Database/Verification.sol\":4827:4842  _verificationID */\n      dup4\n        /* \"Database/Database/Verification.sol\":4804:4826  ValidateVerificationID */\n      tag_41\n        /* \"Database/Database/Verification.sol\":4804:4843  ValidateVerificationID(_verificationID) */\n      jump\t// in\n    tag_86:\n        /* \"Database/Database/Verification.sol\":4804:4851  ValidateVerificationID(_verificationID) == true */\n      iszero\n      iszero\n      eq\n        /* \"Database/Database/Verification.sol\":4795:4852  require (ValidateVerificationID(_verificationID) == true) */\n      tag_87\n      jumpi\n      0x00\n      dup1\n      revert\n    tag_87:\n        /* \"Database/Database/Verification.sol\":4870:4886  VerificateionMap */\n      0x02\n        /* \"Database/Database/Verification.sol\":4870:4903  VerificateionMap[_verificationID] */\n      0x00\n        /* \"Database/Database/Verification.sol\":4887:4902  _verificationID */\n      dup4\n        /* \"Database/Database/Verification.sol\":4870:4903  VerificateionMap[_verificationID] */\n      dup2\n      mstore\n      0x20\n      add\n      swap1\n      dup2\n      mstore\n      0x20\n      add\n      0x00\n      keccak256\n        /* \"Database/Database/Verification.sol\":4863:4903  return VerificateionMap[_verificationID] */\n      mload(0x40)\n      dup1\n      0x0100\n      add\n      0x40\n      mstore\n      swap1\n      dup2\n      0x00\n      dup3\n      add\n      sload\n      dup2\n      mstore\n      0x20\n      add\n      0x01\n      dup3\n      add\n      sload\n      dup2\n      mstore\n      0x20\n      add\n      0x02\n      dup3\n      add\n      0x00\n      swap1\n      sload\n      swap1\n      0x0100\n      exp\n      swap1\n      div\n      0xffffffffffffffffffffffffffffffffffffffff\n      and\n      0xffffffffffffffffffffffffffffffffffffffff\n      and\n      0xffffffffffffffffffffffffffffffffffffffff\n      and\n      dup2\n      mstore\n      0x20\n      add\n      0x03\n      dup3\n      add\n      sload\n      dup2\n      mstore\n      0x20\n      add\n      0x04\n      dup3\n      add\n      sload\n      dup2\n      mstore\n      0x20\n      add\n      0x05\n      dup3\n      add\n      sload\n      dup2\n      mstore\n      0x20\n      add\n      0x06\n      dup3\n      add\n      sload\n      dup2\n      mstore\n      0x20\n      add\n      0x07\n      dup3\n      add\n      0x00\n      swap1\n      sload\n      swap1\n      0x0100\n      exp\n      swap1\n      div\n      0xffffffffffffffffffffffffffffffffffffffff\n      and\n      0xffffffffffffffffffffffffffffffffffffffff\n      and\n      0xffffffffffffffffffffffffffffffffffffffff\n      and\n      dup2\n      mstore\n      pop\n      pop\n      swap1\n      pop\n        /* \"Database/Database/Verification.sol\":4663:4911  function GetVerificationByID... */\n      swap2\n      swap1\n      pop\n      jump\t// out\n    tag_84:\n      mload(0x40)\n      dup1\n      0x0100\n      add\n      0x40\n      mstore\n      dup1\n      0x00\n      dup2\n      mstore\n      0x20\n      add\n      0x00\n      dup2\n      mstore\n      0x20\n      add\n      and(0xffffffffffffffffffffffffffffffffffffffff, 0x00)\n      dup2\n      mstore\n      0x20\n      add\n      0x00\n      dup2\n      mstore\n      0x20\n      add\n      0x00\n      dup2\n      mstore\n      0x20\n      add\n      0x00\n      dup2\n      mstore\n      0x20\n      add\n      0x00\n      dup2\n      mstore\n      0x20\n      add\n      and(0xffffffffffffffffffffffffffffffffffffffff, 0x00)\n      dup2\n      mstore\n      pop\n      swap1\n      jump\t// out\n        /* \"#utility.yul\":7:106   */\n    tag_88:\n        /* \"#utility.yul\":59:65   */\n      0x00\n        /* \"#utility.yul\":93:98   */\n      dup2\n        /* \"#utility.yul\":87:99   */\n      mload\n        /* \"#utility.yul\":77:99   */\n      swap1\n      pop\n        /* \"#utility.yul\":7:106   */\n      swap2\n      swap1\n      pop\n      jump\t// out\n        /* \"#utility.yul\":112:281   */\n    tag_89:\n        /* \"#utility.yul\":196:207   */\n      0x00\n        /* \"#utility.yul\":230:236   */\n      dup3\n        /* \"#utility.yul\":225:228   */\n      dup3\n        /* \"#utility.yul\":218:237   */\n      mstore\n        /* \"#utility.yul\":270:274   */\n      0x20\n        /* \"#utility.yul\":265:268   */\n      dup3\n        /* \"#utility.yul\":261:275   */\n      add\n        /* \"#utility.yul\":246:275   */\n      swap1\n      pop\n        /* \"#utility.yul\":112:281   */\n      swap3\n      swap2\n      pop\n      pop\n      jump\t// out\n        /* \"#utility.yul\":287:533   */\n    tag_90:\n        /* \"#utility.yul\":368:369   */\n      0x00\n        /* \"#utility.yul\":378:491   */\n    tag_116:\n        /* \"#utility.yul\":392:398   */\n      dup4\n        /* \"#utility.yul\":389:390   */\n      dup2\n        /* \"#utility.yul\":386:399   */\n      lt\n        /* \"#utility.yul\":378:491   */\n      iszero\n      tag_118\n      jumpi\n        /* \"#utility.yul\":477:478   */\n      dup1\n        /* \"#utility.yul\":472:475   */\n      dup3\n        /* \"#utility.yul\":468:479   */\n      add\n        /* \"#utility.yul\":462:480   */\n      mload\n        /* \"#utility.yul\":458:459   */\n      dup2\n        /* \"#utility.yul\":453:456   */\n      dup5\n        /* \"#utility.yul\":449:460   */\n      add\n        /* \"#utility.yul\":442:481   */\n      mstore\n        /* \"#utility.yul\":414:416   */\n      0x20\n        /* \"#utility.yul\":411:412   */\n      dup2\n        /* \"#utility.yul\":407:417   */\n      add\n        /* \"#utility.yul\":402:417   */\n      swap1\n      pop\n        /* \"#utility.yul\":378:491   */\n      jump(tag_116)\n    tag_118:\n        /* \"#utility.yul\":525:526   */\n      0x00\n        /* \"#utility.yul\":516:522   */\n      dup5\n        /* \"#utility.yul\":511:514   */\n      dup5\n        /* \"#utility.yul\":507:523   */\n      add\n        /* \"#utility.yul\":500:527   */\n      mstore\n        /* \"#utility.yul\":349:533   */\n      pop\n        /* \"#utility.yul\":287:533   */\n      pop\n      pop\n      pop\n      jump\t// out\n        /* \"#utility.yul\":539:641   */\n    tag_91:\n        /* \"#utility.yul\":580:586   */\n      0x00\n        /* \"#utility.yul\":631:633   */\n      0x1f\n        /* \"#utility.yul\":627:634   */\n      not\n        /* \"#utility.yul\":622:624   */\n      0x1f\n        /* \"#utility.yul\":615:620   */\n      dup4\n        /* \"#utility.yul\":611:625   */\n      add\n        /* \"#utility.yul\":607:635   */\n      and\n        /* \"#utility.yul\":597:635   */\n      swap1\n      pop\n        /* \"#utility.yul\":539:641   */\n      swap2\n      swap1\n      pop\n      jump\t// out\n        /* \"#utility.yul\":647:1024   */\n    tag_92:\n        /* \"#utility.yul\":735:738   */\n      0x00\n        /* \"#utility.yul\":763:802   */\n      tag_121\n        /* \"#utility.yul\":796:801   */\n      dup3\n        /* \"#utility.yul\":763:802   */\n      tag_88\n      jump\t// in\n    tag_121:\n        /* \"#utility.yul\":818:889   */\n      tag_122\n        /* \"#utility.yul\":882:888   */\n      dup2\n        /* \"#utility.yul\":877:880   */\n      dup6\n        /* \"#utility.yul\":818:889   */\n      tag_89\n      jump\t// in\n    tag_122:\n        /* \"#utility.yul\":811:889   */\n      swap4\n      pop\n        /* \"#utility.yul\":898:963   */\n      tag_123\n        /* \"#utility.yul\":956:962   */\n      dup2\n        /* \"#utility.yul\":951:954   */\n      dup6\n        /* \"#utility.yul\":944:948   */\n      0x20\n        /* \"#utility.yul\":937:942   */\n      dup7\n        /* \"#utility.yul\":933:949   */\n      add\n        /* \"#utility.yul\":898:963   */\n      tag_90\n      jump\t// in\n    tag_123:\n        /* \"#utility.yul\":988:1017   */\n      tag_124\n        /* \"#utility.yul\":1010:1016   */\n      dup2\n        /* \"#utility.yul\":988:1017   */\n      tag_91\n      jump\t// in\n    tag_124:\n        /* \"#utility.yul\":983:986   */\n      dup5\n        /* \"#utility.yul\":979:1018   */\n      add\n        /* \"#utility.yul\":972:1018   */\n      swap2\n      pop\n        /* \"#utility.yul\":739:1024   */\n      pop\n        /* \"#utility.yul\":647:1024   */\n      swap3\n      swap2\n      pop\n      pop\n      jump\t// out\n        /* \"#utility.yul\":1030:1343   */\n    tag_15:\n        /* \"#utility.yul\":1143:1147   */\n      0x00\n        /* \"#utility.yul\":1181:1183   */\n      0x20\n        /* \"#utility.yul\":1170:1179   */\n      dup3\n        /* \"#utility.yul\":1166:1184   */\n      add\n        /* \"#utility.yul\":1158:1184   */\n      swap1\n      pop\n        /* \"#utility.yul\":1230:1239   */\n      dup2\n        /* \"#utility.yul\":1224:1228   */\n      dup2\n        /* \"#utility.yul\":1220:1240   */\n      sub\n        /* \"#utility.yul\":1216:1217   */\n      0x00\n        /* \"#utility.yul\":1205:1214   */\n      dup4\n        /* \"#utility.yul\":1201:1218   */\n      add\n        /* \"#utility.yul\":1194:1241   */\n      mstore\n        /* \"#utility.yul\":1258:1336   */\n      tag_126\n        /* \"#utility.yul\":1331:1335   */\n      dup2\n        /* \"#utility.yul\":1322:1328   */\n      dup5\n        /* \"#utility.yul\":1258:1336   */\n      tag_92\n      jump\t// in\n    tag_126:\n        /* \"#utility.yul\":1250:1336   */\n      swap1\n      pop\n        /* \"#utility.yul\":1030:1343   */\n      swap3\n      swap2\n      pop\n      pop\n      jump\t// out\n        /* \"#utility.yul\":1349:1426   */\n    tag_93:\n        /* \"#utility.yul\":1386:1393   */\n      0x00\n        /* \"#utility.yul\":1415:1420   */\n      dup2\n        /* \"#utility.yul\":1404:1420   */\n      swap1\n      pop\n        /* \"#utility.yul\":1349:1426   */\n      swap2\n      swap1\n      pop\n      jump\t// out\n        /* \"#utility.yul\":1432:1550   */\n    tag_94:\n        /* \"#utility.yul\":1519:1543   */\n      tag_129\n        /* \"#utility.yul\":1537:1542   */\n      dup2\n        /* \"#utility.yul\":1519:1543   */\n      tag_93\n      jump\t// in\n    tag_129:\n        /* \"#utility.yul\":1514:1517   */\n      dup3\n        /* \"#utility.yul\":1507:1544   */\n      mstore\n        /* \"#utility.yul\":1432:1550   */\n      pop\n      pop\n      jump\t// out\n        /* \"#utility.yul\":1556:1778   */\n    tag_19:\n        /* \"#utility.yul\":1649:1653   */\n      0x00\n        /* \"#utility.yul\":1687:1689   */\n      0x20\n        /* \"#utility.yul\":1676:1685   */\n      dup3\n        /* \"#utility.yul\":1672:1690   */\n      add\n        /* \"#utility.yul\":1664:1690   */\n      swap1\n      pop\n        /* \"#utility.yul\":1700:1771   */\n      tag_131\n        /* \"#utility.yul\":1768:1769   */\n      0x00\n        /* \"#utility.yul\":1757:1766   */\n      dup4\n        /* \"#utility.yul\":1753:1770   */\n      add\n        /* \"#utility.yul\":1744:1750   */\n      dup5\n        /* \"#utility.yul\":1700:1771   */\n      tag_94\n      jump\t// in\n    tag_131:\n        /* \"#utility.yul\":1556:1778   */\n      swap3\n      swap2\n      pop\n      pop\n      jump\t// out\n        /* \"#utility.yul\":1865:1982   */\n    tag_96:\n        /* \"#utility.yul\":1974:1975   */\n      0x00\n        /* \"#utility.yul\":1971:1972   */\n      dup1\n        /* \"#utility.yul\":1964:1976   */\n      revert\n        /* \"#utility.yul\":2111:2233   */\n    tag_98:\n        /* \"#utility.yul\":2184:2208   */\n      tag_136\n        /* \"#utility.yul\":2202:2207   */\n      dup2\n        /* \"#utility.yul\":2184:2208   */\n      tag_93\n      jump\t// in\n    tag_136:\n        /* \"#utility.yul\":2177:2182   */\n      dup2\n        /* \"#utility.yul\":2174:2209   */\n      eq\n        /* \"#utility.yul\":2164:2227   */\n      tag_137\n      jumpi\n        /* \"#utility.yul\":2223:2224   */\n      0x00\n        /* \"#utility.yul\":2220:2221   */\n      dup1\n        /* \"#utility.yul\":2213:2225   */\n      revert\n        /* \"#utility.yul\":2164:2227   */\n    tag_137:\n        /* \"#utility.yul\":2111:2233   */\n      pop\n      jump\t// out\n        /* \"#utility.yul\":2239:2378   */\n    tag_99:\n        /* \"#utility.yul\":2285:2290   */\n      0x00\n        /* \"#utility.yul\":2323:2329   */\n      dup2\n        /* \"#utility.yul\":2310:2330   */\n      calldataload\n        /* \"#utility.yul\":2301:2330   */\n      swap1\n      pop\n        /* \"#utility.yul\":2339:2372   */\n      tag_139\n        /* \"#utility.yul\":2366:2371   */\n      dup2\n        /* \"#utility.yul\":2339:2372   */\n      tag_98\n      jump\t// in\n    tag_139:\n        /* \"#utility.yul\":2239:2378   */\n      swap3\n      swap2\n      pop\n      pop\n      jump\t// out\n        /* \"#utility.yul\":2384:2510   */\n    tag_100:\n        /* \"#utility.yul\":2421:2428   */\n      0x00\n        /* \"#utility.yul\":2461:2503   */\n      0xffffffffffffffffffffffffffffffffffffffff\n        /* \"#utility.yul\":2454:2459   */\n      dup3\n        /* \"#utility.yul\":2450:2504   */\n      and\n        /* \"#utility.yul\":2439:2504   */\n      swap1\n      pop\n        /* \"#utility.yul\":2384:2510   */\n      swap2\n      swap1\n      pop\n      jump\t// out\n        /* \"#utility.yul\":2516:2620   */\n    tag_101:\n        /* \"#utility.yul\":2561:2568   */\n      0x00\n        /* \"#utility.yul\":2590:2614   */\n      tag_142\n        /* \"#utility.yul\":2608:2613   */\n      dup3\n        /* \"#utility.yul\":2590:2614   */\n      tag_100\n      jump\t// in\n    tag_142:\n        /* \"#utility.yul\":2579:2614   */\n      swap1\n      pop\n        /* \"#utility.yul\":2516:2620   */\n      swap2\n      swap1\n      pop\n      jump\t// out\n        /* \"#utility.yul\":2626:2764   */\n    tag_102:\n        /* \"#utility.yul\":2707:2739   */\n      tag_144\n        /* \"#utility.yul\":2733:2738   */\n      dup2\n        /* \"#utility.yul\":2707:2739   */\n      tag_101\n      jump\t// in\n    tag_144:\n        /* \"#utility.yul\":2700:2705   */\n      dup2\n        /* \"#utility.yul\":2697:2740   */\n      eq\n        /* \"#utility.yul\":2687:2758   */\n      tag_145\n      jumpi\n        /* \"#utility.yul\":2754:2755   */\n      0x00\n        /* \"#utility.yul\":2751:2752   */\n      dup1\n        /* \"#utility.yul\":2744:2756   */\n      revert\n        /* \"#utility.yul\":2687:2758   */\n    tag_145:\n        /* \"#utility.yul\":2626:2764   */\n      pop\n      jump\t// out\n        /* \"#utility.yul\":2770:2925   */\n    tag_103:\n        /* \"#utility.yul\":2824:2829   */\n      0x00\n        /* \"#utility.yul\":2862:2868   */\n      dup2\n        /* \"#utility.yul\":2849:2869   */\n      calldataload\n        /* \"#utility.yul\":2840:2869   */\n      swap1\n      pop\n        /* \"#utility.yul\":2878:2919   */\n      tag_147\n        /* \"#utility.yul\":2913:2918   */\n      dup2\n        /* \"#utility.yul\":2878:2919   */\n      tag_102\n      jump\t// in\n    tag_147:\n        /* \"#utility.yul\":2770:2925   */\n      swap3\n      swap2\n      pop\n      pop\n      jump\t// out\n        /* \"#utility.yul\":2931:3566   */\n    tag_22:\n        /* \"#utility.yul\":3016:3022   */\n      0x00\n        /* \"#utility.yul\":3024:3030   */\n      dup1\n        /* \"#utility.yul\":3032:3038   */\n      0x00\n        /* \"#utility.yul\":3081:3083   */\n      0x60\n        /* \"#utility.yul\":3069:3078   */\n      dup5\n        /* \"#utility.yul\":3060:3067   */\n      dup7\n        /* \"#utility.yul\":3056:3079   */\n      sub\n        /* \"#utility.yul\":3052:3084   */\n      slt\n        /* \"#utility.yul\":3049:3168   */\n      iszero\n      tag_149\n      jumpi\n        /* \"#utility.yul\":3087:3166   */\n      tag_150\n      tag_96\n      jump\t// in\n    tag_150:\n        /* \"#utility.yul\":3049:3168   */\n    tag_149:\n        /* \"#utility.yul\":3207:3208   */\n      0x00\n        /* \"#utility.yul\":3232:3285   */\n      tag_151\n        /* \"#utility.yul\":3277:3284   */\n      dup7\n        /* \"#utility.yul\":3268:3274   */\n      dup3\n        /* \"#utility.yul\":3257:3266   */\n      dup8\n        /* \"#utility.yul\":3253:3275   */\n      add\n        /* \"#utility.yul\":3232:3285   */\n      tag_99\n      jump\t// in\n    tag_151:\n        /* \"#utility.yul\":3222:3285   */\n      swap4\n      pop\n        /* \"#utility.yul\":3178:3295   */\n      pop\n        /* \"#utility.yul\":3334:3336   */\n      0x20\n        /* \"#utility.yul\":3360:3413   */\n      tag_152\n        /* \"#utility.yul\":3405:3412   */\n      dup7\n        /* \"#utility.yul\":3396:3402   */\n      dup3\n        /* \"#utility.yul\":3385:3394   */\n      dup8\n        /* \"#utility.yul\":3381:3403   */\n      add\n        /* \"#utility.yul\":3360:3413   */\n      tag_99\n      jump\t// in\n    tag_152:\n        /* \"#utility.yul\":3350:3413   */\n      swap3\n      pop\n        /* \"#utility.yul\":3305:3423   */\n      pop\n        /* \"#utility.yul\":3462:3464   */\n      0x40\n        /* \"#utility.yul\":3488:3549   */\n      tag_153\n        /* \"#utility.yul\":3541:3548   */\n      dup7\n        /* \"#utility.yul\":3532:3538   */\n      dup3\n        /* \"#utility.yul\":3521:3530   */\n      dup8\n        /* \"#utility.yul\":3517:3539   */\n      add\n        /* \"#utility.yul\":3488:3549   */\n      tag_103\n      jump\t// in\n    tag_153:\n        /* \"#utility.yul\":3478:3549   */\n      swap2\n      pop\n        /* \"#utility.yul\":3433:3559   */\n      pop\n        /* \"#utility.yul\":2931:3566   */\n      swap3\n      pop\n      swap3\n      pop\n      swap3\n      jump\t// out\n        /* \"#utility.yul\":3572:4661   */\n    tag_26:\n        /* \"#utility.yul\":3692:3698   */\n      0x00\n        /* \"#utility.yul\":3700:3706   */\n      dup1\n        /* \"#utility.yul\":3708:3714   */\n      0x00\n        /* \"#utility.yul\":3716:3722   */\n      dup1\n        /* \"#utility.yul\":3724:3730   */\n      0x00\n        /* \"#utility.yul\":3732:3738   */\n      dup1\n        /* \"#utility.yul\":3781:3784   */\n      0xc0\n        /* \"#utility.yul\":3769:3778   */\n      dup8\n        /* \"#utility.yul\":3760:3767   */\n      dup10\n        /* \"#utility.yul\":3756:3779   */\n      sub\n        /* \"#utility.yul\":3752:3785   */\n      slt\n        /* \"#utility.yul\":3749:3869   */\n      iszero\n      tag_155\n      jumpi\n        /* \"#utility.yul\":3788:3867   */\n      tag_156\n      tag_96\n      jump\t// in\n    tag_156:\n        /* \"#utility.yul\":3749:3869   */\n    tag_155:\n        /* \"#utility.yul\":3908:3909   */\n      0x00\n        /* \"#utility.yul\":3933:3986   */\n      tag_157\n        /* \"#utility.yul\":3978:3985   */\n      dup10\n        /* \"#utility.yul\":3969:3975   */\n      dup3\n        /* \"#utility.yul\":3958:3967   */\n      dup11\n        /* \"#utility.yul\":3954:3976   */\n      add\n        /* \"#utility.yul\":3933:3986   */\n      tag_99\n      jump\t// in\n    tag_157:\n        /* \"#utility.yul\":3923:3986   */\n      swap7\n      pop\n        /* \"#utility.yul\":3879:3996   */\n      pop\n        /* \"#utility.yul\":4035:4037   */\n      0x20\n        /* \"#utility.yul\":4061:4122   */\n      tag_158\n        /* \"#utility.yul\":4114:4121   */\n      dup10\n        /* \"#utility.yul\":4105:4111   */\n      dup3\n        /* \"#utility.yul\":4094:4103   */\n      dup11\n        /* \"#utility.yul\":4090:4112   */\n      add\n        /* \"#utility.yul\":4061:4122   */\n      tag_103\n      jump\t// in\n    tag_158:\n        /* \"#utility.yul\":4051:4122   */\n      swap6\n      pop\n        /* \"#utility.yul\":4006:4132   */\n      pop\n        /* \"#utility.yul\":4171:4173   */\n      0x40\n        /* \"#utility.yul\":4197:4250   */\n      tag_159\n        /* \"#utility.yul\":4242:4249   */\n      dup10\n        /* \"#utility.yul\":4233:4239   */\n      dup3\n        /* \"#utility.yul\":4222:4231   */\n      dup11\n        /* \"#utility.yul\":4218:4240   */\n      add\n        /* \"#utility.yul\":4197:4250   */\n      tag_99\n      jump\t// in\n    tag_159:\n        /* \"#utility.yul\":4187:4250   */\n      swap5\n      pop\n        /* \"#utility.yul\":4142:4260   */\n      pop\n        /* \"#utility.yul\":4299:4301   */\n      0x60\n        /* \"#utility.yul\":4325:4378   */\n      tag_160\n        /* \"#utility.yul\":4370:4377   */\n      dup10\n        /* \"#utility.yul\":4361:4367   */\n      dup3\n        /* \"#utility.yul\":4350:4359   */\n      dup11\n        /* \"#utility.yul\":4346:4368   */\n      add\n        /* \"#utility.yul\":4325:4378   */\n      tag_99\n      jump\t// in\n    tag_160:\n        /* \"#utility.yul\":4315:4378   */\n      swap4\n      pop\n        /* \"#utility.yul\":4270:4388   */\n      pop\n        /* \"#utility.yul\":4427:4430   */\n      0x80\n        /* \"#utility.yul\":4454:4507   */\n      tag_161\n        /* \"#utility.yul\":4499:4506   */\n      dup10\n        /* \"#utility.yul\":4490:4496   */\n      dup3\n        /* \"#utility.yul\":4479:4488   */\n      dup11\n        /* \"#utility.yul\":4475:4497   */\n      add\n        /* \"#utility.yul\":4454:4507   */\n      tag_99\n      jump\t// in\n    tag_161:\n        /* \"#utility.yul\":4444:4507   */\n      swap3\n      pop\n        /* \"#utility.yul\":4398:4517   */\n      pop\n        /* \"#utility.yul\":4556:4559   */\n      0xa0\n        /* \"#utility.yul\":4583:4644   */\n      tag_162\n        /* \"#utility.yul\":4636:4643   */\n      dup10\n        /* \"#utility.yul\":4627:4633   */\n      dup3\n        /* \"#utility.yul\":4616:4625   */\n      dup11\n        /* \"#utility.yul\":4612:4634   */\n      add\n        /* \"#utility.yul\":4583:4644   */\n      tag_103\n      jump\t// in\n    tag_162:\n        /* \"#utility.yul\":4573:4644   */\n      swap2\n      pop\n        /* \"#utility.yul\":4527:4654   */\n      pop\n        /* \"#utility.yul\":3572:4661   */\n      swap3\n      swap6\n      pop\n      swap3\n      swap6\n      pop\n      swap3\n      swap6\n      jump\t// out\n        /* \"#utility.yul\":4667:4996   */\n    tag_30:\n        /* \"#utility.yul\":4726:4732   */\n      0x00\n        /* \"#utility.yul\":4775:4777   */\n      0x20\n        /* \"#utility.yul\":4763:4772   */\n      dup3\n        /* \"#utility.yul\":4754:4761   */\n      dup5\n        /* \"#utility.yul\":4750:4773   */\n      sub\n        /* \"#utility.yul\":4746:4778   */\n      slt\n        /* \"#utility.yul\":4743:4862   */\n      iszero\n      tag_164\n      jumpi\n        /* \"#utility.yul\":4781:4860   */\n      tag_165\n      tag_96\n      jump\t// in\n    tag_165:\n        /* \"#utility.yul\":4743:4862   */\n    tag_164:\n        /* \"#utility.yul\":4901:4902   */\n      0x00\n        /* \"#utility.yul\":4926:4979   */\n      tag_166\n        /* \"#utility.yul\":4971:4978   */\n      dup5\n        /* \"#utility.yul\":4962:4968   */\n      dup3\n        /* \"#utility.yul\":4951:4960   */\n      dup6\n        /* \"#utility.yul\":4947:4969   */\n      add\n        /* \"#utility.yul\":4926:4979   */\n      tag_99\n      jump\t// in\n    tag_166:\n        /* \"#utility.yul\":4916:4979   */\n      swap2\n      pop\n        /* \"#utility.yul\":4872:4989   */\n      pop\n        /* \"#utility.yul\":4667:4996   */\n      swap3\n      swap2\n      pop\n      pop\n      jump\t// out\n        /* \"#utility.yul\":5002:5144   */\n    tag_104:\n        /* \"#utility.yul\":5105:5137   */\n      tag_168\n        /* \"#utility.yul\":5131:5136   */\n      dup2\n        /* \"#utility.yul\":5105:5137   */\n      tag_101\n      jump\t// in\n    tag_168:\n        /* \"#utility.yul\":5100:5103   */\n      dup3\n        /* \"#utility.yul\":5093:5138   */\n      mstore\n        /* \"#utility.yul\":5002:5144   */\n      pop\n      pop\n      jump\t// out\n        /* \"#utility.yul\":5150:6211   */\n    tag_33:\n        /* \"#utility.yul\":5471:5475   */\n      0x00\n        /* \"#utility.yul\":5509:5512   */\n      0x0100\n        /* \"#utility.yul\":5498:5507   */\n      dup3\n        /* \"#utility.yul\":5494:5513   */\n      add\n        /* \"#utility.yul\":5486:5513   */\n      swap1\n      pop\n        /* \"#utility.yul\":5523:5594   */\n      tag_170\n        /* \"#utility.yul\":5591:5592   */\n      0x00\n        /* \"#utility.yul\":5580:5589   */\n      dup4\n        /* \"#utility.yul\":5576:5593   */\n      add\n        /* \"#utility.yul\":5567:5573   */\n      dup12\n        /* \"#utility.yul\":5523:5594   */\n      tag_94\n      jump\t// in\n    tag_170:\n        /* \"#utility.yul\":5604:5676   */\n      tag_171\n        /* \"#utility.yul\":5672:5674   */\n      0x20\n        /* \"#utility.yul\":5661:5670   */\n      dup4\n        /* \"#utility.yul\":5657:5675   */\n      add\n        /* \"#utility.yul\":5648:5654   */\n      dup11\n        /* \"#utility.yul\":5604:5676   */\n      tag_94\n      jump\t// in\n    tag_171:\n        /* \"#utility.yul\":5686:5774   */\n      tag_172\n        /* \"#utility.yul\":5770:5772   */\n      0x40\n        /* \"#utility.yul\":5759:5768   */\n      dup4\n        /* \"#utility.yul\":5755:5773   */\n      add\n        /* \"#utility.yul\":5746:5752   */\n      dup10\n        /* \"#utility.yul\":5686:5774   */\n      tag_104\n      jump\t// in\n    tag_172:\n        /* \"#utility.yul\":5784:5856   */\n      tag_173\n        /* \"#utility.yul\":5852:5854   */\n      0x60\n        /* \"#utility.yul\":5841:5850   */\n      dup4\n        /* \"#utility.yul\":5837:5855   */\n      add\n        /* \"#utility.yul\":5828:5834   */\n      dup9\n        /* \"#utility.yul\":5784:5856   */\n      tag_94\n      jump\t// in\n    tag_173:\n        /* \"#utility.yul\":5866:5939   */\n      tag_174\n        /* \"#utility.yul\":5934:5937   */\n      0x80\n        /* \"#utility.yul\":5923:5932   */\n      dup4\n        /* \"#utility.yul\":5919:5938   */\n      add\n        /* \"#utility.yul\":5910:5916   */\n      dup8\n        /* \"#utility.yul\":5866:5939   */\n      tag_94\n      jump\t// in\n    tag_174:\n        /* \"#utility.yul\":5949:6022   */\n      tag_175\n        /* \"#utility.yul\":6017:6020   */\n      0xa0\n        /* \"#utility.yul\":6006:6015   */\n      dup4\n        /* \"#utility.yul\":6002:6021   */\n      add\n        /* \"#utility.yul\":5993:5999   */\n      dup7\n        /* \"#utility.yul\":5949:6022   */\n      tag_94\n      jump\t// in\n    tag_175:\n        /* \"#utility.yul\":6032:6105   */\n      tag_176\n        /* \"#utility.yul\":6100:6103   */\n      0xc0\n        /* \"#utility.yul\":6089:6098   */\n      dup4\n        /* \"#utility.yul\":6085:6104   */\n      add\n        /* \"#utility.yul\":6076:6082   */\n      dup6\n        /* \"#utility.yul\":6032:6105   */\n      tag_94\n      jump\t// in\n    tag_176:\n        /* \"#utility.yul\":6115:6204   */\n      tag_177\n        /* \"#utility.yul\":6199:6202   */\n      0xe0\n        /* \"#utility.yul\":6188:6197   */\n      dup4\n        /* \"#utility.yul\":6184:6203   */\n      add\n        /* \"#utility.yul\":6175:6181   */\n      dup5\n        /* \"#utility.yul\":6115:6204   */\n      tag_104\n      jump\t// in\n    tag_177:\n        /* \"#utility.yul\":5150:6211   */\n      swap10\n      swap9\n      pop\n      pop\n      pop\n      pop\n      pop\n      pop\n      pop\n      pop\n      pop\n      jump\t// out\n        /* \"#utility.yul\":6217:7160   */\n    tag_36:\n        /* \"#utility.yul\":6328:6334   */\n      0x00\n        /* \"#utility.yul\":6336:6342   */\n      dup1\n        /* \"#utility.yul\":6344:6350   */\n      0x00\n        /* \"#utility.yul\":6352:6358   */\n      dup1\n        /* \"#utility.yul\":6360:6366   */\n      0x00\n        /* \"#utility.yul\":6409:6412   */\n      0xa0\n        /* \"#utility.yul\":6397:6406   */\n      dup7\n        /* \"#utility.yul\":6388:6395   */\n      dup9\n        /* \"#utility.yul\":6384:6407   */\n      sub\n        /* \"#utility.yul\":6380:6413   */\n      slt\n        /* \"#utility.yul\":6377:6497   */\n      iszero\n      tag_179\n      jumpi\n        /* \"#utility.yul\":6416:6495   */\n      tag_180\n      tag_96\n      jump\t// in\n    tag_180:\n        /* \"#utility.yul\":6377:6497   */\n    tag_179:\n        /* \"#utility.yul\":6536:6537   */\n      0x00\n        /* \"#utility.yul\":6561:6622   */\n      tag_181\n        /* \"#utility.yul\":6614:6621   */\n      dup9\n        /* \"#utility.yul\":6605:6611   */\n      dup3\n        /* \"#utility.yul\":6594:6603   */\n      dup10\n        /* \"#utility.yul\":6590:6612   */\n      add\n        /* \"#utility.yul\":6561:6622   */\n      tag_103\n      jump\t// in\n    tag_181:\n        /* \"#utility.yul\":6551:6622   */\n      swap6\n      pop\n        /* \"#utility.yul\":6507:6632   */\n      pop\n        /* \"#utility.yul\":6671:6673   */\n      0x20\n        /* \"#utility.yul\":6697:6750   */\n      tag_182\n        /* \"#utility.yul\":6742:6749   */\n      dup9\n        /* \"#utility.yul\":6733:6739   */\n      dup3\n        /* \"#utility.yul\":6722:6731   */\n      dup10\n        /* \"#utility.yul\":6718:6740   */\n      add\n        /* \"#utility.yul\":6697:6750   */\n      tag_99\n      jump\t// in\n    tag_182:\n        /* \"#utility.yul\":6687:6750   */\n      swap5\n      pop\n        /* \"#utility.yul\":6642:6760   */\n      pop\n        /* \"#utility.yul\":6799:6801   */\n      0x40\n        /* \"#utility.yul\":6825:6878   */\n      tag_183\n        /* \"#utility.yul\":6870:6877   */\n      dup9\n        /* \"#utility.yul\":6861:6867   */\n      dup3\n        /* \"#utility.yul\":6850:6859   */\n      dup10\n        /* \"#utility.yul\":6846:6868   */\n      add\n        /* \"#utility.yul\":6825:6878   */\n      tag_99\n      jump\t// in\n    tag_183:\n        /* \"#utility.yul\":6815:6878   */\n      swap4\n      pop\n        /* \"#utility.yul\":6770:6888   */\n      pop\n        /* \"#utility.yul\":6927:6929   */\n      0x60\n        /* \"#utility.yul\":6953:7006   */\n      tag_184\n        /* \"#utility.yul\":6998:7005   */\n      dup9\n        /* \"#utility.yul\":6989:6995   */\n      dup3\n        /* \"#utility.yul\":6978:6987   */\n      dup10\n        /* \"#utility.yul\":6974:6996   */\n      add\n        /* \"#utility.yul\":6953:7006   */\n      tag_99\n      jump\t// in\n    tag_184:\n        /* \"#utility.yul\":6943:7006   */\n      swap3\n      pop\n        /* \"#utility.yul\":6898:7016   */\n      pop\n        /* \"#utility.yul\":7055:7058   */\n      0x80\n        /* \"#utility.yul\":7082:7143   */\n      tag_185\n        /* \"#utility.yul\":7135:7142   */\n      dup9\n        /* \"#utility.yul\":7126:7132   */\n      dup3\n        /* \"#utility.yul\":7115:7124   */\n      dup10\n        /* \"#utility.yul\":7111:7133   */\n      add\n        /* \"#utility.yul\":7082:7143   */\n      tag_103\n      jump\t// in\n    tag_185:\n        /* \"#utility.yul\":7072:7143   */\n      swap2\n      pop\n        /* \"#utility.yul\":7026:7153   */\n      pop\n        /* \"#utility.yul\":6217:7160   */\n      swap3\n      swap6\n      pop\n      swap3\n      swap6\n      swap1\n      swap4\n      pop\n      jump\t// out\n        /* \"#utility.yul\":7166:7256   */\n    tag_105:\n        /* \"#utility.yul\":7200:7207   */\n      0x00\n        /* \"#utility.yul\":7243:7248   */\n      dup2\n        /* \"#utility.yul\":7236:7249   */\n      iszero\n        /* \"#utility.yul\":7229:7250   */\n      iszero\n        /* \"#utility.yul\":7218:7250   */\n      swap1\n      pop\n        /* \"#utility.yul\":7166:7256   */\n      swap2\n      swap1\n      pop\n      jump\t// out\n        /* \"#utility.yul\":7262:7371   */\n    tag_106:\n        /* \"#utility.yul\":7343:7364   */\n      tag_188\n        /* \"#utility.yul\":7358:7363   */\n      dup2\n        /* \"#utility.yul\":7343:7364   */\n      tag_105\n      jump\t// in\n    tag_188:\n        /* \"#utility.yul\":7338:7341   */\n      dup3\n        /* \"#utility.yul\":7331:7365   */\n      mstore\n        /* \"#utility.yul\":7262:7371   */\n      pop\n      pop\n      jump\t// out\n        /* \"#utility.yul\":7377:7587   */\n    tag_43:\n        /* \"#utility.yul\":7464:7468   */\n      0x00\n        /* \"#utility.yul\":7502:7504   */\n      0x20\n        /* \"#utility.yul\":7491:7500   */\n      dup3\n        /* \"#utility.yul\":7487:7505   */\n      add\n        /* \"#utility.yul\":7479:7505   */\n      swap1\n      pop\n        /* \"#utility.yul\":7515:7580   */\n      tag_190\n        /* \"#utility.yul\":7577:7578   */\n      0x00\n        /* \"#utility.yul\":7566:7575   */\n      dup4\n        /* \"#utility.yul\":7562:7579   */\n      add\n        /* \"#utility.yul\":7553:7559   */\n      dup5\n        /* \"#utility.yul\":7515:7580   */\n      tag_106\n      jump\t// in\n    tag_190:\n        /* \"#utility.yul\":7377:7587   */\n      swap3\n      swap2\n      pop\n      pop\n      jump\t// out\n        /* \"#utility.yul\":7593:7701   */\n    tag_107:\n        /* \"#utility.yul\":7670:7694   */\n      tag_192\n        /* \"#utility.yul\":7688:7693   */\n      dup2\n        /* \"#utility.yul\":7670:7694   */\n      tag_93\n      jump\t// in\n    tag_192:\n        /* \"#utility.yul\":7665:7668   */\n      dup3\n        /* \"#utility.yul\":7658:7695   */\n      mstore\n        /* \"#utility.yul\":7593:7701   */\n      pop\n      pop\n      jump\t// out\n        /* \"#utility.yul\":7707:7839   */\n    tag_108:\n        /* \"#utility.yul\":7800:7832   */\n      tag_194\n        /* \"#utility.yul\":7826:7831   */\n      dup2\n        /* \"#utility.yul\":7800:7832   */\n      tag_101\n      jump\t// in\n    tag_194:\n        /* \"#utility.yul\":7795:7798   */\n      dup3\n        /* \"#utility.yul\":7788:7833   */\n      mstore\n        /* \"#utility.yul\":7707:7839   */\n      pop\n      pop\n      jump\t// out\n        /* \"#utility.yul\":7935:9599   */\n    tag_109:\n        /* \"#utility.yul\":8102:8108   */\n      0x0100\n        /* \"#utility.yul\":8097:8100   */\n      dup3\n        /* \"#utility.yul\":8093:8109   */\n      add\n        /* \"#utility.yul\":8201:8205   */\n      0x00\n        /* \"#utility.yul\":8194:8199   */\n      dup3\n        /* \"#utility.yul\":8190:8206   */\n      add\n        /* \"#utility.yul\":8184:8207   */\n      mload\n        /* \"#utility.yul\":8220:8283   */\n      tag_196\n        /* \"#utility.yul\":8277:8281   */\n      0x00\n        /* \"#utility.yul\":8272:8275   */\n      dup6\n        /* \"#utility.yul\":8268:8282   */\n      add\n        /* \"#utility.yul\":8254:8266   */\n      dup3\n        /* \"#utility.yul\":8220:8283   */\n      tag_107\n      jump\t// in\n    tag_196:\n        /* \"#utility.yul\":8119:8293   */\n      pop\n        /* \"#utility.yul\":8380:8384   */\n      0x20\n        /* \"#utility.yul\":8373:8378   */\n      dup3\n        /* \"#utility.yul\":8369:8385   */\n      add\n        /* \"#utility.yul\":8363:8386   */\n      mload\n        /* \"#utility.yul\":8399:8462   */\n      tag_197\n        /* \"#utility.yul\":8456:8460   */\n      0x20\n        /* \"#utility.yul\":8451:8454   */\n      dup6\n        /* \"#utility.yul\":8447:8461   */\n      add\n        /* \"#utility.yul\":8433:8445   */\n      dup3\n        /* \"#utility.yul\":8399:8462   */\n      tag_107\n      jump\t// in\n    tag_197:\n        /* \"#utility.yul\":8303:8472   */\n      pop\n        /* \"#utility.yul\":8562:8566   */\n      0x40\n        /* \"#utility.yul\":8555:8560   */\n      dup3\n        /* \"#utility.yul\":8551:8567   */\n      add\n        /* \"#utility.yul\":8545:8568   */\n      mload\n        /* \"#utility.yul\":8581:8660   */\n      tag_198\n        /* \"#utility.yul\":8654:8658   */\n      0x40\n        /* \"#utility.yul\":8649:8652   */\n      dup6\n        /* \"#utility.yul\":8645:8659   */\n      add\n        /* \"#utility.yul\":8631:8643   */\n      dup3\n        /* \"#utility.yul\":8581:8660   */\n      tag_108\n      jump\t// in\n    tag_198:\n        /* \"#utility.yul\":8482:8670   */\n      pop\n        /* \"#utility.yul\":8755:8759   */\n      0x60\n        /* \"#utility.yul\":8748:8753   */\n      dup3\n        /* \"#utility.yul\":8744:8760   */\n      add\n        /* \"#utility.yul\":8738:8761   */\n      mload\n        /* \"#utility.yul\":8774:8837   */\n      tag_199\n        /* \"#utility.yul\":8831:8835   */\n      0x60\n        /* \"#utility.yul\":8826:8829   */\n      dup6\n        /* \"#utility.yul\":8822:8836   */\n      add\n        /* \"#utility.yul\":8808:8820   */\n      dup3\n        /* \"#utility.yul\":8774:8837   */\n      tag_107\n      jump\t// in\n    tag_199:\n        /* \"#utility.yul\":8680:8847   */\n      pop\n        /* \"#utility.yul\":8945:8949   */\n      0x80\n        /* \"#utility.yul\":8938:8943   */\n      dup3\n        /* \"#utility.yul\":8934:8950   */\n      add\n        /* \"#utility.yul\":8928:8951   */\n      mload\n        /* \"#utility.yul\":8964:9027   */\n      tag_200\n        /* \"#utility.yul\":9021:9025   */\n      0x80\n        /* \"#utility.yul\":9016:9019   */\n      dup6\n        /* \"#utility.yul\":9012:9026   */\n      add\n        /* \"#utility.yul\":8998:9010   */\n      dup3\n        /* \"#utility.yul\":8964:9027   */\n      tag_107\n      jump\t// in\n    tag_200:\n        /* \"#utility.yul\":8857:9037   */\n      pop\n        /* \"#utility.yul\":9126:9130   */\n      0xa0\n        /* \"#utility.yul\":9119:9124   */\n      dup3\n        /* \"#utility.yul\":9115:9131   */\n      add\n        /* \"#utility.yul\":9109:9132   */\n      mload\n        /* \"#utility.yul\":9145:9208   */\n      tag_201\n        /* \"#utility.yul\":9202:9206   */\n      0xa0\n        /* \"#utility.yul\":9197:9200   */\n      dup6\n        /* \"#utility.yul\":9193:9207   */\n      add\n        /* \"#utility.yul\":9179:9191   */\n      dup3\n        /* \"#utility.yul\":9145:9208   */\n      tag_107\n      jump\t// in\n    tag_201:\n        /* \"#utility.yul\":9047:9218   */\n      pop\n        /* \"#utility.yul\":9306:9310   */\n      0xc0\n        /* \"#utility.yul\":9299:9304   */\n      dup3\n        /* \"#utility.yul\":9295:9311   */\n      add\n        /* \"#utility.yul\":9289:9312   */\n      mload\n        /* \"#utility.yul\":9325:9388   */\n      tag_202\n        /* \"#utility.yul\":9382:9386   */\n      0xc0\n        /* \"#utility.yul\":9377:9380   */\n      dup6\n        /* \"#utility.yul\":9373:9387   */\n      add\n        /* \"#utility.yul\":9359:9371   */\n      dup3\n        /* \"#utility.yul\":9325:9388   */\n      tag_107\n      jump\t// in\n    tag_202:\n        /* \"#utility.yul\":9228:9398   */\n      pop\n        /* \"#utility.yul\":9484:9488   */\n      0xe0\n        /* \"#utility.yul\":9477:9482   */\n      dup3\n        /* \"#utility.yul\":9473:9489   */\n      add\n        /* \"#utility.yul\":9467:9490   */\n      mload\n        /* \"#utility.yul\":9503:9582   */\n      tag_203\n        /* \"#utility.yul\":9576:9580   */\n      0xe0\n        /* \"#utility.yul\":9571:9574   */\n      dup6\n        /* \"#utility.yul\":9567:9581   */\n      add\n        /* \"#utility.yul\":9553:9565   */\n      dup3\n        /* \"#utility.yul\":9503:9582   */\n      tag_108\n      jump\t// in\n    tag_203:\n        /* \"#utility.yul\":9408:9592   */\n      pop\n        /* \"#utility.yul\":8071:9599   */\n      pop\n        /* \"#utility.yul\":7935:9599   */\n      pop\n      pop\n      jump\t// out\n        /* \"#utility.yul\":9605:9968   */\n    tag_48:\n        /* \"#utility.yul\":9768:9772   */\n      0x00\n        /* \"#utility.yul\":9806:9809   */\n      0x0100\n        /* \"#utility.yul\":9795:9804   */\n      dup3\n        /* \"#utility.yul\":9791:9810   */\n      add\n        /* \"#utility.yul\":9783:9810   */\n      swap1\n      pop\n        /* \"#utility.yul\":9820:9961   */\n      tag_205\n        /* \"#utility.yul\":9958:9959   */\n      0x00\n        /* \"#utility.yul\":9947:9956   */\n      dup4\n        /* \"#utility.yul\":9943:9960   */\n      add\n        /* \"#utility.yul\":9934:9940   */\n      dup5\n        /* \"#utility.yul\":9820:9961   */\n      tag_109\n      jump\t// in\n    tag_205:\n        /* \"#utility.yul\":9605:9968   */\n      swap3\n      swap2\n      pop\n      pop\n      jump\t// out\n        /* \"#utility.yul\":9974:10154   */\n    tag_110:\n        /* \"#utility.yul\":10022:10099   */\n      0x4e487b7100000000000000000000000000000000000000000000000000000000\n        /* \"#utility.yul\":10019:10020   */\n      0x00\n        /* \"#utility.yul\":10012:10100   */\n      mstore\n        /* \"#utility.yul\":10119:10123   */\n      0x22\n        /* \"#utility.yul\":10116:10117   */\n      0x04\n        /* \"#utility.yul\":10109:10124   */\n      mstore\n        /* \"#utility.yul\":10143:10147   */\n      0x24\n        /* \"#utility.yul\":10140:10141   */\n      0x00\n        /* \"#utility.yul\":10133:10148   */\n      revert\n        /* \"#utility.yul\":10160:10480   */\n    tag_50:\n        /* \"#utility.yul\":10204:10210   */\n      0x00\n        /* \"#utility.yul\":10241:10242   */\n      0x02\n        /* \"#utility.yul\":10235:10239   */\n      dup3\n        /* \"#utility.yul\":10231:10243   */\n      div\n        /* \"#utility.yul\":10221:10243   */\n      swap1\n      pop\n        /* \"#utility.yul\":10288:10289   */\n      0x01\n        /* \"#utility.yul\":10282:10286   */\n      dup3\n        /* \"#utility.yul\":10278:10290   */\n      and\n        /* \"#utility.yul\":10309:10327   */\n      dup1\n        /* \"#utility.yul\":10299:10380   */\n      tag_208\n      jumpi\n        /* \"#utility.yul\":10365:10369   */\n      0x7f\n        /* \"#utility.yul\":10357:10363   */\n      dup3\n        /* \"#utility.yul\":10353:10370   */\n      and\n        /* \"#utility.yul\":10343:10370   */\n      swap2\n      pop\n        /* \"#utility.yul\":10299:10380   */\n    tag_208:\n        /* \"#utility.yul\":10427:10429   */\n      0x20\n        /* \"#utility.yul\":10419:10425   */\n      dup3\n        /* \"#utility.yul\":10416:10430   */\n      lt\n        /* \"#utility.yul\":10396:10414   */\n      dup2\n        /* \"#utility.yul\":10393:10431   */\n      sub\n        /* \"#utility.yul\":10390:10474   */\n      tag_209\n      jumpi\n        /* \"#utility.yul\":10446:10464   */\n      tag_210\n      tag_110\n      jump\t// in\n    tag_210:\n        /* \"#utility.yul\":10390:10474   */\n    tag_209:\n        /* \"#utility.yul\":10211:10480   */\n      pop\n        /* \"#utility.yul\":10160:10480   */\n      swap2\n      swap1\n      pop\n      jump\t// out\n        /* \"#utility.yul\":10486:11071   */\n    tag_60:\n        /* \"#utility.yul\":10679:10683   */\n      0x00\n        /* \"#utility.yul\":10717:10720   */\n      0x80\n        /* \"#utility.yul\":10706:10715   */\n      dup3\n        /* \"#utility.yul\":10702:10721   */\n      add\n        /* \"#utility.yul\":10694:10721   */\n      swap1\n      pop\n        /* \"#utility.yul\":10731:10802   */\n      tag_212\n        /* \"#utility.yul\":10799:10800   */\n      0x00\n        /* \"#utility.yul\":10788:10797   */\n      dup4\n        /* \"#utility.yul\":10784:10801   */\n      add\n        /* \"#utility.yul\":10775:10781   */\n      dup8\n        /* \"#utility.yul\":10731:10802   */\n      tag_94\n      jump\t// in\n    tag_212:\n        /* \"#utility.yul\":10812:10884   */\n      tag_213\n        /* \"#utility.yul\":10880:10882   */\n      0x20\n        /* \"#utility.yul\":10869:10878   */\n      dup4\n        /* \"#utility.yul\":10865:10883   */\n      add\n        /* \"#utility.yul\":10856:10862   */\n      dup7\n        /* \"#utility.yul\":10812:10884   */\n      tag_94\n      jump\t// in\n    tag_213:\n        /* \"#utility.yul\":10894:10966   */\n      tag_214\n        /* \"#utility.yul\":10962:10964   */\n      0x40\n        /* \"#utility.yul\":10951:10960   */\n      dup4\n        /* \"#utility.yul\":10947:10965   */\n      add\n        /* \"#utility.yul\":10938:10944   */\n      dup6\n        /* \"#utility.yul\":10894:10966   */\n      tag_94\n      jump\t// in\n    tag_214:\n        /* \"#utility.yul\":10976:11064   */\n      tag_215\n        /* \"#utility.yul\":11060:11062   */\n      0x60\n        /* \"#utility.yul\":11049:11058   */\n      dup4\n        /* \"#utility.yul\":11045:11063   */\n      add\n        /* \"#utility.yul\":11036:11042   */\n      dup5\n        /* \"#utility.yul\":10976:11064   */\n      tag_104\n      jump\t// in\n    tag_215:\n        /* \"#utility.yul\":10486:11071   */\n      swap6\n      swap5\n      pop\n      pop\n      pop\n      pop\n      pop\n      jump\t// out\n        /* \"#utility.yul\":11077:12027   */\n    tag_69:\n        /* \"#utility.yul\":11370:11374   */\n      0x00\n        /* \"#utility.yul\":11408:11411   */\n      0xe0\n        /* \"#utility.yul\":11397:11406   */\n      dup3\n        /* \"#utility.yul\":11393:11412   */\n      add\n        /* \"#utility.yul\":11385:11412   */\n      swap1\n      pop\n        /* \"#utility.yul\":11422:11493   */\n      tag_217\n        /* \"#utility.yul\":11490:11491   */\n      0x00\n        /* \"#utility.yul\":11479:11488   */\n      dup4\n        /* \"#utility.yul\":11475:11492   */\n      add\n        /* \"#utility.yul\":11466:11472   */\n      dup11\n        /* \"#utility.yul\":11422:11493   */\n      tag_94\n      jump\t// in\n    tag_217:\n        /* \"#utility.yul\":11503:11591   */\n      tag_218\n        /* \"#utility.yul\":11587:11589   */\n      0x20\n        /* \"#utility.yul\":11576:11585   */\n      dup4\n        /* \"#utility.yul\":11572:11590   */\n      add\n        /* \"#utility.yul\":11563:11569   */\n      dup10\n        /* \"#utility.yul\":11503:11591   */\n      tag_104\n      jump\t// in\n    tag_218:\n        /* \"#utility.yul\":11601:11673   */\n      tag_219\n        /* \"#utility.yul\":11669:11671   */\n      0x40\n        /* \"#utility.yul\":11658:11667   */\n      dup4\n        /* \"#utility.yul\":11654:11672   */\n      add\n        /* \"#utility.yul\":11645:11651   */\n      dup9\n        /* \"#utility.yul\":11601:11673   */\n      tag_94\n      jump\t// in\n    tag_219:\n        /* \"#utility.yul\":11683:11755   */\n      tag_220\n        /* \"#utility.yul\":11751:11753   */\n      0x60\n        /* \"#utility.yul\":11740:11749   */\n      dup4\n        /* \"#utility.yul\":11736:11754   */\n      add\n        /* \"#utility.yul\":11727:11733   */\n      dup8\n        /* \"#utility.yul\":11683:11755   */\n      tag_94\n      jump\t// in\n    tag_220:\n        /* \"#utility.yul\":11765:11838   */\n      tag_221\n        /* \"#utility.yul\":11833:11836   */\n      0x80\n        /* \"#utility.yul\":11822:11831   */\n      dup4\n        /* \"#utility.yul\":11818:11837   */\n      add\n        /* \"#utility.yul\":11809:11815   */\n      dup7\n        /* \"#utility.yul\":11765:11838   */\n      tag_94\n      jump\t// in\n    tag_221:\n        /* \"#utility.yul\":11848:11921   */\n      tag_222\n        /* \"#utility.yul\":11916:11919   */\n      0xa0\n        /* \"#utility.yul\":11905:11914   */\n      dup4\n        /* \"#utility.yul\":11901:11920   */\n      add\n        /* \"#utility.yul\":11892:11898   */\n      dup6\n        /* \"#utility.yul\":11848:11921   */\n      tag_94\n      jump\t// in\n    tag_222:\n        /* \"#utility.yul\":11931:12020   */\n      tag_223\n        /* \"#utility.yul\":12015:12018   */\n      0xc0\n        /* \"#utility.yul\":12004:12013   */\n      dup4\n        /* \"#utility.yul\":12000:12019   */\n      add\n        /* \"#utility.yul\":11991:11997   */\n      dup5\n        /* \"#utility.yul\":11931:12020   */\n      tag_104\n      jump\t// in\n    tag_223:\n        /* \"#utility.yul\":11077:12027   */\n      swap9\n      swap8\n      pop\n      pop\n      pop\n      pop\n      pop\n      pop\n      pop\n      pop\n      jump\t// out\n        /* \"#utility.yul\":12033:12213   */\n    tag_111:\n        /* \"#utility.yul\":12081:12158   */\n      0x4e487b7100000000000000000000000000000000000000000000000000000000\n        /* \"#utility.yul\":12078:12079   */\n      0x00\n        /* \"#utility.yul\":12071:12159   */\n      mstore\n        /* \"#utility.yul\":12178:12182   */\n      0x11\n        /* \"#utility.yul\":12175:12176   */\n      0x04\n        /* \"#utility.yul\":12168:12183   */\n      mstore\n        /* \"#utility.yul\":12202:12206   */\n      0x24\n        /* \"#utility.yul\":12199:12200   */\n      0x00\n        /* \"#utility.yul\":12192:12207   */\n      revert\n        /* \"#utility.yul\":12219:12452   */\n    tag_76:\n        /* \"#utility.yul\":12258:12261   */\n      0x00\n        /* \"#utility.yul\":12281:12305   */\n      tag_226\n        /* \"#utility.yul\":12299:12304   */\n      dup3\n        /* \"#utility.yul\":12281:12305   */\n      tag_93\n      jump\t// in\n    tag_226:\n        /* \"#utility.yul\":12272:12305   */\n      swap2\n      pop\n        /* \"#utility.yul\":12327:12393   */\n      0xffffffffffffffffffffffffffffffffffffffffffffffffffffffffffffffff\n        /* \"#utility.yul\":12320:12325   */\n      dup3\n        /* \"#utility.yul\":12317:12394   */\n      sub\n        /* \"#utility.yul\":12314:12417   */\n      tag_227\n      jumpi\n        /* \"#utility.yul\":12397:12415   */\n      tag_228\n      tag_111\n      jump\t// in\n    tag_228:\n        /* \"#utility.yul\":12314:12417   */\n    tag_227:\n        /* \"#utility.yul\":12444:12445   */\n      0x01\n        /* \"#utility.yul\":12437:12442   */\n      dup3\n        /* \"#utility.yul\":12433:12446   */\n      add\n        /* \"#utility.yul\":12426:12446   */\n      swap1\n      pop\n        /* \"#utility.yul\":12219:12452   */\n      swap2\n      swap1\n      pop\n      jump\t// out\n\n    auxdata: 0xa2646970667358221220633d2e4518b3a3ce4f0e270aeb20cced96fd6d6493d5e26b3a361cc3082a3a9c64736f6c63430008110033\n}\n",
				"bytecode": {
					"linkReferences": {},
					"object": "60806040526040518060400160405280600c81526020017f566572696669636174696f6e0000000000000000000000000000000000000000815250600090816200004a919062000325565b5060006001553480156200005d57600080fd5b506040518060400160405280600c81526020017f566572696669636174696f6e000000000000000000000000000000000000000081525060009081620000a4919062000325565b506200040c565b600081519050919050565b7f4e487b7100000000000000000000000000000000000000000000000000000000600052604160045260246000fd5b7f4e487b7100000000000000000000000000000000000000000000000000000000600052602260045260246000fd5b600060028204905060018216806200012d57607f821691505b602082108103620001435762000142620000e5565b5b50919050565b60008190508160005260206000209050919050565b60006020601f8301049050919050565b600082821b905092915050565b600060088302620001ad7fffffffffffffffffffffffffffffffffffffffffffffffffffffffffffffffff826200016e565b620001b986836200016e565b95508019841693508086168417925050509392505050565b6000819050919050565b6000819050919050565b60006200020662000200620001fa84620001d1565b620001db565b620001d1565b9050919050565b6000819050919050565b6200022283620001e5565b6200023a62000231826200020d565b8484546200017b565b825550505050565b600090565b6200025162000242565b6200025e81848462000217565b505050565b5b8181101562000286576200027a60008262000247565b60018101905062000264565b5050565b601f821115620002d5576200029f8162000149565b620002aa846200015e565b81016020851015620002ba578190505b620002d2620002c9856200015e565b83018262000263565b50505b505050565b600082821c905092915050565b6000620002fa60001984600802620002da565b1980831691505092915050565b6000620003158383620002e7565b9150826002028217905092915050565b6200033082620000ab565b67ffffffffffffffff8111156200034c576200034b620000b6565b5b62000358825462000114565b620003658282856200028a565b600060209050601f8311600181146200039d576000841562000388578287015190505b62000394858262000307565b86555062000404565b601f198416620003ad8662000149565b60005b82811015620003d757848901518255600182019150602085019450602081019050620003b0565b86831015620003f75784890151620003f3601f891682620002e7565b8355505b6001600288020188555050505b505050505050565b611423806200041c6000396000f3fe608060405234801561001057600080fd5b50600436106100885760003560e01c80638d72ae4f1161005b5780638d72ae4f146101015780639d35b96f14610138578063d27fbe4714610168578063db15b7871461019857610088565b806306fdde031461008d5780630830e22e146100ab5780630bb6c06b146100c95780630c61f46d146100e5575b600080fd5b6100956101c8565b6040516100a29190610e56565b60405180910390f35b6100b3610256565b6040516100c09190610e91565b60405180910390f35b6100e360048036038101906100de9190610f3b565b61025c565b005b6100ff60048036038101906100fa9190610f8e565b6104bb565b005b61011b6004803603810190610116919061101b565b6107f7565b60405161012f989796959493929190611057565b60405180910390f35b610152600480360381019061014d91906110d5565b61087f565b60405161015f9190610e91565b60405180910390f35b610182600480360381019061017d919061101b565b610a98565b60405161018f919061116b565b60405180910390f35b6101b260048036038101906101ad919061101b565b610c26565b6040516101bf9190611246565b60405180910390f35b600080546101d590611291565b80601f016020809104026020016040519081016040528092919081815260200182805461020190611291565b801561024e5780601f106102235761010080835404028352916020019161024e565b820191906000526020600020905b81548152906001019060200180831161023157829003601f168201915b505050505081565b60015481565b6001151561026984610a98565b15151461027557600080fd5b6000821161028257600080fd5b6000600260008581526020019081526020016000206040518061010001604052908160008201548152602001600182015481526020016002820160009054906101000a900473ffffffffffffffffffffffffffffffffffffffff1673ffffffffffffffffffffffffffffffffffffffff1673ffffffffffffffffffffffffffffffffffffffff168152602001600382015481526020016004820154815260200160058201548152602001600682015481526020016007820160009054906101000a900473ffffffffffffffffffffffffffffffffffffffff1673ffffffffffffffffffffffffffffffffffffffff1673ffffffffffffffffffffffffffffffffffffffff16815250509050828160200181815250508060026000868152602001908152602001600020600082015181600001556020820151816001015560408201518160020160006101000a81548173ffffffffffffffffffffffffffffffffffffffff021916908373ffffffffffffffffffffffffffffffffffffffff160217905550606082015181600301556080820151816004015560a0820151816005015560c0820151816006015560e08201518160070160006101000a81548173ffffffffffffffffffffffffffffffffffffffff021916908373ffffffffffffffffffffffffffffffffffffffff1602179055509050507f6e0b435700f0058d5626628c63237caa82eb6025db3997bcbfc4807dfba203ba848442856040516104ad94939291906112c2565b60405180910390a150505050565b6000861180156104cd57506001548611155b6104d657600080fd5b600073ffffffffffffffffffffffffffffffffffffffff168173ffffffffffffffffffffffffffffffffffffffff160361050f57600080fd5b6000600260008881526020019081526020016000206040518061010001604052908160008201548152602001600182015481526020016002820160009054906101000a900473ffffffffffffffffffffffffffffffffffffffff1673ffffffffffffffffffffffffffffffffffffffff1673ffffffffffffffffffffffffffffffffffffffff168152602001600382015481526020016004820154815260200160058201548152602001600682015481526020016007820160009054906101000a900473ffffffffffffffffffffffffffffffffffffffff1673ffffffffffffffffffffffffffffffffffffffff1673ffffffffffffffffffffffffffffffffffffffff168152505090506000816040015190508673ffffffffffffffffffffffffffffffffffffffff168173ffffffffffffffffffffffffffffffffffffffff16146106a9578160600151860361066657600080fd5b86826040019073ffffffffffffffffffffffffffffffffffffffff16908173ffffffffffffffffffffffffffffffffffffffff1681525050858260600181815250505b8160a0015184146106bf57838260a00181815250505b428260c001818152505081600260008a8152602001908152602001600020600082015181600001556020820151816001015560408201518160020160006101000a81548173ffffffffffffffffffffffffffffffffffffffff021916908373ffffffffffffffffffffffffffffffffffffffff160217905550606082015181600301556080820151816004015560a0820151816005015560c0820151816006015560e08201518160070160006101000a81548173ffffffffffffffffffffffffffffffffffffffff021916908373ffffffffffffffffffffffffffffffffffffffff1602179055509050507f63ee7a5349a48c16e84171febda7b76aa417ead29f6971542efa642ccadfcb2d888888888842896040516107e59796959493929190611307565b60405180910390a15050505050505050565b60026020528060005260406000206000915090508060000154908060010154908060020160009054906101000a900473ffffffffffffffffffffffffffffffffffffffff16908060030154908060040154908060050154908060060154908060070160009054906101000a900473ffffffffffffffffffffffffffffffffffffffff16905088565b60008073ffffffffffffffffffffffffffffffffffffffff168273ffffffffffffffffffffffffffffffffffffffff16036108b957600080fd5b600085116108c657600080fd5b600084116108d357600080fd5b600083116108e057600080fd5b6000600160008154809291906108f5906113a5565b919050555060405180610100016040528060015481526020018281526020018873ffffffffffffffffffffffffffffffffffffffff1681526020018781526020018681526020018581526020014281526020018473ffffffffffffffffffffffffffffffffffffffff16815250600260006001548152602001908152602001600020600082015181600001556020820151816001015560408201518160020160006101000a81548173ffffffffffffffffffffffffffffffffffffffff021916908373ffffffffffffffffffffffffffffffffffffffff160217905550606082015181600301556080820151816004015560a0820151816005015560c0820151816006015560e08201518160070160006101000a81548173ffffffffffffffffffffffffffffffffffffffff021916908373ffffffffffffffffffffffffffffffffffffffff1602179055509050507f597382782499dbd411783b729f7be17594c82f50b8bdee971701d7deef51968d600154888888884289604051610a819796959493929190611307565b60405180910390a160015491505095945050505050565b600080821080610aa9575060015482115b15610ab75760009050610c21565b6000600260008481526020019081526020016000206040518061010001604052908160008201548152602001600182015481526020016002820160009054906101000a900473ffffffffffffffffffffffffffffffffffffffff1673ffffffffffffffffffffffffffffffffffffffff1673ffffffffffffffffffffffffffffffffffffffff168152602001600382015481526020016004820154815260200160058201548152602001600682015481526020016007820160009054906101000a900473ffffffffffffffffffffffffffffffffffffffff1673ffffffffffffffffffffffffffffffffffffffff1673ffffffffffffffffffffffffffffffffffffffff16815250509050600073ffffffffffffffffffffffffffffffffffffffff16816040015173ffffffffffffffffffffffffffffffffffffffff1603610c04576000915050610c21565b600081606001511015610c1b576000915050610c21565b60019150505b919050565b610c2e610d55565b60011515610c3b83610a98565b151514610c4757600080fd5b600260008381526020019081526020016000206040518061010001604052908160008201548152602001600182015481526020016002820160009054906101000a900473ffffffffffffffffffffffffffffffffffffffff1673ffffffffffffffffffffffffffffffffffffffff1673ffffffffffffffffffffffffffffffffffffffff168152602001600382015481526020016004820154815260200160058201548152602001600682015481526020016007820160009054906101000a900473ffffffffffffffffffffffffffffffffffffffff1673ffffffffffffffffffffffffffffffffffffffff1673ffffffffffffffffffffffffffffffffffffffff16815250509050919050565b6040518061010001604052806000815260200160008152602001600073ffffffffffffffffffffffffffffffffffffffff16815260200160008152602001600081526020016000815260200160008152602001600073ffffffffffffffffffffffffffffffffffffffff1681525090565b600081519050919050565b600082825260208201905092915050565b60005b83811015610e00578082015181840152602081019050610de5565b60008484015250505050565b6000601f19601f8301169050919050565b6000610e2882610dc6565b610e328185610dd1565b9350610e42818560208601610de2565b610e4b81610e0c565b840191505092915050565b60006020820190508181036000830152610e708184610e1d565b905092915050565b6000819050919050565b610e8b81610e78565b82525050565b6000602082019050610ea66000830184610e82565b92915050565b600080fd5b610eba81610e78565b8114610ec557600080fd5b50565b600081359050610ed781610eb1565b92915050565b600073ffffffffffffffffffffffffffffffffffffffff82169050919050565b6000610f0882610edd565b9050919050565b610f1881610efd565b8114610f2357600080fd5b50565b600081359050610f3581610f0f565b92915050565b600080600060608486031215610f5457610f53610eac565b5b6000610f6286828701610ec8565b9350506020610f7386828701610ec8565b9250506040610f8486828701610f26565b9150509250925092565b60008060008060008060c08789031215610fab57610faa610eac565b5b6000610fb989828a01610ec8565b9650506020610fca89828a01610f26565b9550506040610fdb89828a01610ec8565b9450506060610fec89828a01610ec8565b9350506080610ffd89828a01610ec8565b92505060a061100e89828a01610f26565b9150509295509295509295565b60006020828403121561103157611030610eac565b5b600061103f84828501610ec8565b91505092915050565b61105181610efd565b82525050565b60006101008201905061106d600083018b610e82565b61107a602083018a610e82565b6110876040830189611048565b6110946060830188610e82565b6110a16080830187610e82565b6110ae60a0830186610e82565b6110bb60c0830185610e82565b6110c860e0830184611048565b9998505050505050505050565b600080600080600060a086880312156110f1576110f0610eac565b5b60006110ff88828901610f26565b955050602061111088828901610ec8565b945050604061112188828901610ec8565b935050606061113288828901610ec8565b925050608061114388828901610f26565b9150509295509295909350565b60008115159050919050565b61116581611150565b82525050565b6000602082019050611180600083018461115c565b92915050565b61118f81610e78565b82525050565b61119e81610efd565b82525050565b610100820160008201516111bb6000850182611186565b5060208201516111ce6020850182611186565b5060408201516111e16040850182611195565b5060608201516111f46060850182611186565b5060808201516112076080850182611186565b5060a082015161121a60a0850182611186565b5060c082015161122d60c0850182611186565b5060e082015161124060e0850182611195565b50505050565b60006101008201905061125c60008301846111a4565b92915050565b7f4e487b7100000000000000000000000000000000000000000000000000000000600052602260045260246000fd5b600060028204905060018216806112a957607f821691505b6020821081036112bc576112bb611262565b5b50919050565b60006080820190506112d76000830187610e82565b6112e46020830186610e82565b6112f16040830185610e82565b6112fe6060830184611048565b95945050505050565b600060e08201905061131c600083018a610e82565b6113296020830189611048565b6113366040830188610e82565b6113436060830187610e82565b6113506080830186610e82565b61135d60a0830185610e82565b61136a60c0830184611048565b98975050505050505050565b7f4e487b7100000000000000000000000000000000000000000000000000000000600052601160045260246000fd5b60006113b082610e78565b91507fffffffffffffffffffffffffffffffffffffffffffffffffffffffffffffffff82036113e2576113e1611376565b5b60018201905091905056fea2646970667358221220633d2e4518b3a3ce4f0e270aeb20cced96fd6d6493d5e26b3a361cc3082a3a9c64736f6c63430008110033",
					"opcodes": "PUSH1 0x80 PUSH1 0x40 MSTORE PUSH1 0x40 MLOAD DUP1 PUSH1 0x40 ADD PUSH1 0x40 MSTORE DUP1 PUSH1 0xC DUP2 MSTORE PUSH1 0x20 ADD PUSH32 0x566572696669636174696F6E0000000000000000000000000000000000000000 DUP2 MSTORE POP PUSH1 0x0 SWAP1 DUP2 PUSH3 0x4A SWAP2 SWAP1 PUSH3 0x325 JUMP JUMPDEST POP PUSH1 0x0 PUSH1 0x1 SSTORE CALLVALUE DUP1 ISZERO PUSH3 0x5D JUMPI PUSH1 0x0 DUP1 REVERT JUMPDEST POP PUSH1 0x40 MLOAD DUP1 PUSH1 0x40 ADD PUSH1 0x40 MSTORE DUP1 PUSH1 0xC DUP2 MSTORE PUSH1 0x20 ADD PUSH32 0x566572696669636174696F6E0000000000000000000000000000000000000000 DUP2 MSTORE POP PUSH1 0x0 SWAP1 DUP2 PUSH3 0xA4 SWAP2 SWAP1 PUSH3 0x325 JUMP JUMPDEST POP PUSH3 0x40C JUMP JUMPDEST PUSH1 0x0 DUP2 MLOAD SWAP1 POP SWAP2 SWAP1 POP JUMP JUMPDEST PUSH32 0x4E487B7100000000000000000000000000000000000000000000000000000000 PUSH1 0x0 MSTORE PUSH1 0x41 PUSH1 0x4 MSTORE PUSH1 0x24 PUSH1 0x0 REVERT JUMPDEST PUSH32 0x4E487B7100000000000000000000000000000000000000000000000000000000 PUSH1 0x0 MSTORE PUSH1 0x22 PUSH1 0x4 MSTORE PUSH1 0x24 PUSH1 0x0 REVERT JUMPDEST PUSH1 0x0 PUSH1 0x2 DUP3 DIV SWAP1 POP PUSH1 0x1 DUP3 AND DUP1 PUSH3 0x12D JUMPI PUSH1 0x7F DUP3 AND SWAP2 POP JUMPDEST PUSH1 0x20 DUP3 LT DUP2 SUB PUSH3 0x143 JUMPI PUSH3 0x142 PUSH3 0xE5 JUMP JUMPDEST JUMPDEST POP SWAP2 SWAP1 POP JUMP JUMPDEST PUSH1 0x0 DUP2 SWAP1 POP DUP2 PUSH1 0x0 MSTORE PUSH1 0x20 PUSH1 0x0 KECCAK256 SWAP1 POP SWAP2 SWAP1 POP JUMP JUMPDEST PUSH1 0x0 PUSH1 0x20 PUSH1 0x1F DUP4 ADD DIV SWAP1 POP SWAP2 SWAP1 POP JUMP JUMPDEST PUSH1 0x0 DUP3 DUP3 SHL SWAP1 POP SWAP3 SWAP2 POP POP JUMP JUMPDEST PUSH1 0x0 PUSH1 0x8 DUP4 MUL PUSH3 0x1AD PUSH32 0xFFFFFFFFFFFFFFFFFFFFFFFFFFFFFFFFFFFFFFFFFFFFFFFFFFFFFFFFFFFFFFFF DUP3 PUSH3 0x16E JUMP JUMPDEST PUSH3 0x1B9 DUP7 DUP4 PUSH3 0x16E JUMP JUMPDEST SWAP6 POP DUP1 NOT DUP5 AND SWAP4 POP DUP1 DUP7 AND DUP5 OR SWAP3 POP POP POP SWAP4 SWAP3 POP POP POP JUMP JUMPDEST PUSH1 0x0 DUP2 SWAP1 POP SWAP2 SWAP1 POP JUMP JUMPDEST PUSH1 0x0 DUP2 SWAP1 POP SWAP2 SWAP1 POP JUMP JUMPDEST PUSH1 0x0 PUSH3 0x206 PUSH3 0x200 PUSH3 0x1FA DUP5 PUSH3 0x1D1 JUMP JUMPDEST PUSH3 0x1DB JUMP JUMPDEST PUSH3 0x1D1 JUMP JUMPDEST SWAP1 POP SWAP2 SWAP1 POP JUMP JUMPDEST PUSH1 0x0 DUP2 SWAP1 POP SWAP2 SWAP1 POP JUMP JUMPDEST PUSH3 0x222 DUP4 PUSH3 0x1E5 JUMP JUMPDEST PUSH3 0x23A PUSH3 0x231 DUP3 PUSH3 0x20D JUMP JUMPDEST DUP5 DUP5 SLOAD PUSH3 0x17B JUMP JUMPDEST DUP3 SSTORE POP POP POP POP JUMP JUMPDEST PUSH1 0x0 SWAP1 JUMP JUMPDEST PUSH3 0x251 PUSH3 0x242 JUMP JUMPDEST PUSH3 0x25E DUP2 DUP5 DUP5 PUSH3 0x217 JUMP JUMPDEST POP POP POP JUMP JUMPDEST JUMPDEST DUP2 DUP2 LT ISZERO PUSH3 0x286 JUMPI PUSH3 0x27A PUSH1 0x0 DUP3 PUSH3 0x247 JUMP JUMPDEST PUSH1 0x1 DUP2 ADD SWAP1 POP PUSH3 0x264 JUMP JUMPDEST POP POP JUMP JUMPDEST PUSH1 0x1F DUP3 GT ISZERO PUSH3 0x2D5 JUMPI PUSH3 0x29F DUP2 PUSH3 0x149 JUMP JUMPDEST PUSH3 0x2AA DUP5 PUSH3 0x15E JUMP JUMPDEST DUP2 ADD PUSH1 0x20 DUP6 LT ISZERO PUSH3 0x2BA JUMPI DUP2 SWAP1 POP JUMPDEST PUSH3 0x2D2 PUSH3 0x2C9 DUP6 PUSH3 0x15E JUMP JUMPDEST DUP4 ADD DUP3 PUSH3 0x263 JUMP JUMPDEST POP POP JUMPDEST POP POP POP JUMP JUMPDEST PUSH1 0x0 DUP3 DUP3 SHR SWAP1 POP SWAP3 SWAP2 POP POP JUMP JUMPDEST PUSH1 0x0 PUSH3 0x2FA PUSH1 0x0 NOT DUP5 PUSH1 0x8 MUL PUSH3 0x2DA JUMP JUMPDEST NOT DUP1 DUP4 AND SWAP2 POP POP SWAP3 SWAP2 POP POP JUMP JUMPDEST PUSH1 0x0 PUSH3 0x315 DUP4 DUP4 PUSH3 0x2E7 JUMP JUMPDEST SWAP2 POP DUP3 PUSH1 0x2 MUL DUP3 OR SWAP1 POP SWAP3 SWAP2 POP POP JUMP JUMPDEST PUSH3 0x330 DUP3 PUSH3 0xAB JUMP JUMPDEST PUSH8 0xFFFFFFFFFFFFFFFF DUP2 GT ISZERO PUSH3 0x34C JUMPI PUSH3 0x34B PUSH3 0xB6 JUMP JUMPDEST JUMPDEST PUSH3 0x358 DUP3 SLOAD PUSH3 0x114 JUMP JUMPDEST PUSH3 0x365 DUP3 DUP3 DUP6 PUSH3 0x28A JUMP JUMPDEST PUSH1 0x0 PUSH1 0x20 SWAP1 POP PUSH1 0x1F DUP4 GT PUSH1 0x1 DUP2 EQ PUSH3 0x39D JUMPI PUSH1 0x0 DUP5 ISZERO PUSH3 0x388 JUMPI DUP3 DUP8 ADD MLOAD SWAP1 POP JUMPDEST PUSH3 0x394 DUP6 DUP3 PUSH3 0x307 JUMP JUMPDEST DUP7 SSTORE POP PUSH3 0x404 JUMP JUMPDEST PUSH1 0x1F NOT DUP5 AND PUSH3 0x3AD DUP7 PUSH3 0x149 JUMP JUMPDEST PUSH1 0x0 JUMPDEST DUP3 DUP2 LT ISZERO PUSH3 0x3D7 JUMPI DUP5 DUP10 ADD MLOAD DUP3 SSTORE PUSH1 0x1 DUP3 ADD SWAP2 POP PUSH1 0x20 DUP6 ADD SWAP5 POP PUSH1 0x20 DUP2 ADD SWAP1 POP PUSH3 0x3B0 JUMP JUMPDEST DUP7 DUP4 LT ISZERO PUSH3 0x3F7 JUMPI DUP5 DUP10 ADD MLOAD PUSH3 0x3F3 PUSH1 0x1F DUP10 AND DUP3 PUSH3 0x2E7 JUMP JUMPDEST DUP4 SSTORE POP JUMPDEST PUSH1 0x1 PUSH1 0x2 DUP9 MUL ADD DUP9 SSTORE POP POP POP JUMPDEST POP POP POP POP POP POP JUMP JUMPDEST PUSH2 0x1423 DUP1 PUSH3 0x41C PUSH1 0x0 CODECOPY PUSH1 0x0 RETURN INVALID PUSH1 0x80 PUSH1 0x40 MSTORE CALLVALUE DUP1 ISZERO PUSH2 0x10 JUMPI PUSH1 0x0 DUP1 REVERT JUMPDEST POP PUSH1 0x4 CALLDATASIZE LT PUSH2 0x88 JUMPI PUSH1 0x0 CALLDATALOAD PUSH1 0xE0 SHR DUP1 PUSH4 0x8D72AE4F GT PUSH2 0x5B JUMPI DUP1 PUSH4 0x8D72AE4F EQ PUSH2 0x101 JUMPI DUP1 PUSH4 0x9D35B96F EQ PUSH2 0x138 JUMPI DUP1 PUSH4 0xD27FBE47 EQ PUSH2 0x168 JUMPI DUP1 PUSH4 0xDB15B787 EQ PUSH2 0x198 JUMPI PUSH2 0x88 JUMP JUMPDEST DUP1 PUSH4 0x6FDDE03 EQ PUSH2 0x8D JUMPI DUP1 PUSH4 0x830E22E EQ PUSH2 0xAB JUMPI DUP1 PUSH4 0xBB6C06B EQ PUSH2 0xC9 JUMPI DUP1 PUSH4 0xC61F46D EQ PUSH2 0xE5 JUMPI JUMPDEST PUSH1 0x0 DUP1 REVERT JUMPDEST PUSH2 0x95 PUSH2 0x1C8 JUMP JUMPDEST PUSH1 0x40 MLOAD PUSH2 0xA2 SWAP2 SWAP1 PUSH2 0xE56 JUMP JUMPDEST PUSH1 0x40 MLOAD DUP1 SWAP2 SUB SWAP1 RETURN JUMPDEST PUSH2 0xB3 PUSH2 0x256 JUMP JUMPDEST PUSH1 0x40 MLOAD PUSH2 0xC0 SWAP2 SWAP1 PUSH2 0xE91 JUMP JUMPDEST PUSH1 0x40 MLOAD DUP1 SWAP2 SUB SWAP1 RETURN JUMPDEST PUSH2 0xE3 PUSH1 0x4 DUP1 CALLDATASIZE SUB DUP2 ADD SWAP1 PUSH2 0xDE SWAP2 SWAP1 PUSH2 0xF3B JUMP JUMPDEST PUSH2 0x25C JUMP JUMPDEST STOP JUMPDEST PUSH2 0xFF PUSH1 0x4 DUP1 CALLDATASIZE SUB DUP2 ADD SWAP1 PUSH2 0xFA SWAP2 SWAP1 PUSH2 0xF8E JUMP JUMPDEST PUSH2 0x4BB JUMP JUMPDEST STOP JUMPDEST PUSH2 0x11B PUSH1 0x4 DUP1 CALLDATASIZE SUB DUP2 ADD SWAP1 PUSH2 0x116 SWAP2 SWAP1 PUSH2 0x101B JUMP JUMPDEST PUSH2 0x7F7 JUMP JUMPDEST PUSH1 0x40 MLOAD PUSH2 0x12F SWAP9 SWAP8 SWAP7 SWAP6 SWAP5 SWAP4 SWAP3 SWAP2 SWAP1 PUSH2 0x1057 JUMP JUMPDEST PUSH1 0x40 MLOAD DUP1 SWAP2 SUB SWAP1 RETURN JUMPDEST PUSH2 0x152 PUSH1 0x4 DUP1 CALLDATASIZE SUB DUP2 ADD SWAP1 PUSH2 0x14D SWAP2 SWAP1 PUSH2 0x10D5 JUMP JUMPDEST PUSH2 0x87F JUMP JUMPDEST PUSH1 0x40 MLOAD PUSH2 0x15F SWAP2 SWAP1 PUSH2 0xE91 JUMP JUMPDEST PUSH1 0x40 MLOAD DUP1 SWAP2 SUB SWAP1 RETURN JUMPDEST PUSH2 0x182 PUSH1 0x4 DUP1 CALLDATASIZE SUB DUP2 ADD SWAP1 PUSH2 0x17D SWAP2 SWAP1 PUSH2 0x101B JUMP JUMPDEST PUSH2 0xA98 JUMP JUMPDEST PUSH1 0x40 MLOAD PUSH2 0x18F SWAP2 SWAP1 PUSH2 0x116B JUMP JUMPDEST PUSH1 0x40 MLOAD DUP1 SWAP2 SUB SWAP1 RETURN JUMPDEST PUSH2 0x1B2 PUSH1 0x4 DUP1 CALLDATASIZE SUB DUP2 ADD SWAP1 PUSH2 0x1AD SWAP2 SWAP1 PUSH2 0x101B JUMP JUMPDEST PUSH2 0xC26 JUMP JUMPDEST PUSH1 0x40 MLOAD PUSH2 0x1BF SWAP2 SWAP1 PUSH2 0x1246 JUMP JUMPDEST PUSH1 0x40 MLOAD DUP1 SWAP2 SUB SWAP1 RETURN JUMPDEST PUSH1 0x0 DUP1 SLOAD PUSH2 0x1D5 SWAP1 PUSH2 0x1291 JUMP JUMPDEST DUP1 PUSH1 0x1F ADD PUSH1 0x20 DUP1 SWAP2 DIV MUL PUSH1 0x20 ADD PUSH1 0x40 MLOAD SWAP1 DUP2 ADD PUSH1 0x40 MSTORE DUP1 SWAP3 SWAP2 SWAP1 DUP2 DUP2 MSTORE PUSH1 0x20 ADD DUP3 DUP1 SLOAD PUSH2 0x201 SWAP1 PUSH2 0x1291 JUMP JUMPDEST DUP1 ISZERO PUSH2 0x24E JUMPI DUP1 PUSH1 0x1F LT PUSH2 0x223 JUMPI PUSH2 0x100 DUP1 DUP4 SLOAD DIV MUL DUP4 MSTORE SWAP2 PUSH1 0x20 ADD SWAP2 PUSH2 0x24E JUMP JUMPDEST DUP3 ADD SWAP2 SWAP1 PUSH1 0x0 MSTORE PUSH1 0x20 PUSH1 0x0 KECCAK256 SWAP1 JUMPDEST DUP2 SLOAD DUP2 MSTORE SWAP1 PUSH1 0x1 ADD SWAP1 PUSH1 0x20 ADD DUP1 DUP4 GT PUSH2 0x231 JUMPI DUP3 SWAP1 SUB PUSH1 0x1F AND DUP3 ADD SWAP2 JUMPDEST POP POP POP POP POP DUP2 JUMP JUMPDEST PUSH1 0x1 SLOAD DUP2 JUMP JUMPDEST PUSH1 0x1 ISZERO ISZERO PUSH2 0x269 DUP5 PUSH2 0xA98 JUMP JUMPDEST ISZERO ISZERO EQ PUSH2 0x275 JUMPI PUSH1 0x0 DUP1 REVERT JUMPDEST PUSH1 0x0 DUP3 GT PUSH2 0x282 JUMPI PUSH1 0x0 DUP1 REVERT JUMPDEST PUSH1 0x0 PUSH1 0x2 PUSH1 0x0 DUP6 DUP2 MSTORE PUSH1 0x20 ADD SWAP1 DUP2 MSTORE PUSH1 0x20 ADD PUSH1 0x0 KECCAK256 PUSH1 0x40 MLOAD DUP1 PUSH2 0x100 ADD PUSH1 0x40 MSTORE SWAP1 DUP2 PUSH1 0x0 DUP3 ADD SLOAD DUP2 MSTORE PUSH1 0x20 ADD PUSH1 0x1 DUP3 ADD SLOAD DUP2 MSTORE PUSH1 0x20 ADD PUSH1 0x2 DUP3 ADD PUSH1 0x0 SWAP1 SLOAD SWAP1 PUSH2 0x100 EXP SWAP1 DIV PUSH20 0xFFFFFFFFFFFFFFFFFFFFFFFFFFFFFFFFFFFFFFFF AND PUSH20 0xFFFFFFFFFFFFFFFFFFFFFFFFFFFFFFFFFFFFFFFF AND PUSH20 0xFFFFFFFFFFFFFFFFFFFFFFFFFFFFFFFFFFFFFFFF AND DUP2 MSTORE PUSH1 0x20 ADD PUSH1 0x3 DUP3 ADD SLOAD DUP2 MSTORE PUSH1 0x20 ADD PUSH1 0x4 DUP3 ADD SLOAD DUP2 MSTORE PUSH1 0x20 ADD PUSH1 0x5 DUP3 ADD SLOAD DUP2 MSTORE PUSH1 0x20 ADD PUSH1 0x6 DUP3 ADD SLOAD DUP2 MSTORE PUSH1 0x20 ADD PUSH1 0x7 DUP3 ADD PUSH1 0x0 SWAP1 SLOAD SWAP1 PUSH2 0x100 EXP SWAP1 DIV PUSH20 0xFFFFFFFFFFFFFFFFFFFFFFFFFFFFFFFFFFFFFFFF AND PUSH20 0xFFFFFFFFFFFFFFFFFFFFFFFFFFFFFFFFFFFFFFFF AND PUSH20 0xFFFFFFFFFFFFFFFFFFFFFFFFFFFFFFFFFFFFFFFF AND DUP2 MSTORE POP POP SWAP1 POP DUP3 DUP2 PUSH1 0x20 ADD DUP2 DUP2 MSTORE POP POP DUP1 PUSH1 0x2 PUSH1 0x0 DUP7 DUP2 MSTORE PUSH1 0x20 ADD SWAP1 DUP2 MSTORE PUSH1 0x20 ADD PUSH1 0x0 KECCAK256 PUSH1 0x0 DUP3 ADD MLOAD DUP2 PUSH1 0x0 ADD SSTORE PUSH1 0x20 DUP3 ADD MLOAD DUP2 PUSH1 0x1 ADD SSTORE PUSH1 0x40 DUP3 ADD MLOAD DUP2 PUSH1 0x2 ADD PUSH1 0x0 PUSH2 0x100 EXP DUP2 SLOAD DUP2 PUSH20 0xFFFFFFFFFFFFFFFFFFFFFFFFFFFFFFFFFFFFFFFF MUL NOT AND SWAP1 DUP4 PUSH20 0xFFFFFFFFFFFFFFFFFFFFFFFFFFFFFFFFFFFFFFFF AND MUL OR SWAP1 SSTORE POP PUSH1 0x60 DUP3 ADD MLOAD DUP2 PUSH1 0x3 ADD SSTORE PUSH1 0x80 DUP3 ADD MLOAD DUP2 PUSH1 0x4 ADD SSTORE PUSH1 0xA0 DUP3 ADD MLOAD DUP2 PUSH1 0x5 ADD SSTORE PUSH1 0xC0 DUP3 ADD MLOAD DUP2 PUSH1 0x6 ADD SSTORE PUSH1 0xE0 DUP3 ADD MLOAD DUP2 PUSH1 0x7 ADD PUSH1 0x0 PUSH2 0x100 EXP DUP2 SLOAD DUP2 PUSH20 0xFFFFFFFFFFFFFFFFFFFFFFFFFFFFFFFFFFFFFFFF MUL NOT AND SWAP1 DUP4 PUSH20 0xFFFFFFFFFFFFFFFFFFFFFFFFFFFFFFFFFFFFFFFF AND MUL OR SWAP1 SSTORE POP SWAP1 POP POP PUSH32 0x6E0B435700F0058D5626628C63237CAA82EB6025DB3997BCBFC4807DFBA203BA DUP5 DUP5 TIMESTAMP DUP6 PUSH1 0x40 MLOAD PUSH2 0x4AD SWAP5 SWAP4 SWAP3 SWAP2 SWAP1 PUSH2 0x12C2 JUMP JUMPDEST PUSH1 0x40 MLOAD DUP1 SWAP2 SUB SWAP1 LOG1 POP POP POP POP JUMP JUMPDEST PUSH1 0x0 DUP7 GT DUP1 ISZERO PUSH2 0x4CD JUMPI POP PUSH1 0x1 SLOAD DUP7 GT ISZERO JUMPDEST PUSH2 0x4D6 JUMPI PUSH1 0x0 DUP1 REVERT JUMPDEST PUSH1 0x0 PUSH20 0xFFFFFFFFFFFFFFFFFFFFFFFFFFFFFFFFFFFFFFFF AND DUP2 PUSH20 0xFFFFFFFFFFFFFFFFFFFFFFFFFFFFFFFFFFFFFFFF AND SUB PUSH2 0x50F JUMPI PUSH1 0x0 DUP1 REVERT JUMPDEST PUSH1 0x0 PUSH1 0x2 PUSH1 0x0 DUP9 DUP2 MSTORE PUSH1 0x20 ADD SWAP1 DUP2 MSTORE PUSH1 0x20 ADD PUSH1 0x0 KECCAK256 PUSH1 0x40 MLOAD DUP1 PUSH2 0x100 ADD PUSH1 0x40 MSTORE SWAP1 DUP2 PUSH1 0x0 DUP3 ADD SLOAD DUP2 MSTORE PUSH1 0x20 ADD PUSH1 0x1 DUP3 ADD SLOAD DUP2 MSTORE PUSH1 0x20 ADD PUSH1 0x2 DUP3 ADD PUSH1 0x0 SWAP1 SLOAD SWAP1 PUSH2 0x100 EXP SWAP1 DIV PUSH20 0xFFFFFFFFFFFFFFFFFFFFFFFFFFFFFFFFFFFFFFFF AND PUSH20 0xFFFFFFFFFFFFFFFFFFFFFFFFFFFFFFFFFFFFFFFF AND PUSH20 0xFFFFFFFFFFFFFFFFFFFFFFFFFFFFFFFFFFFFFFFF AND DUP2 MSTORE PUSH1 0x20 ADD PUSH1 0x3 DUP3 ADD SLOAD DUP2 MSTORE PUSH1 0x20 ADD PUSH1 0x4 DUP3 ADD SLOAD DUP2 MSTORE PUSH1 0x20 ADD PUSH1 0x5 DUP3 ADD SLOAD DUP2 MSTORE PUSH1 0x20 ADD PUSH1 0x6 DUP3 ADD SLOAD DUP2 MSTORE PUSH1 0x20 ADD PUSH1 0x7 DUP3 ADD PUSH1 0x0 SWAP1 SLOAD SWAP1 PUSH2 0x100 EXP SWAP1 DIV PUSH20 0xFFFFFFFFFFFFFFFFFFFFFFFFFFFFFFFFFFFFFFFF AND PUSH20 0xFFFFFFFFFFFFFFFFFFFFFFFFFFFFFFFFFFFFFFFF AND PUSH20 0xFFFFFFFFFFFFFFFFFFFFFFFFFFFFFFFFFFFFFFFF AND DUP2 MSTORE POP POP SWAP1 POP PUSH1 0x0 DUP2 PUSH1 0x40 ADD MLOAD SWAP1 POP DUP7 PUSH20 0xFFFFFFFFFFFFFFFFFFFFFFFFFFFFFFFFFFFFFFFF AND DUP2 PUSH20 0xFFFFFFFFFFFFFFFFFFFFFFFFFFFFFFFFFFFFFFFF AND EQ PUSH2 0x6A9 JUMPI DUP2 PUSH1 0x60 ADD MLOAD DUP7 SUB PUSH2 0x666 JUMPI PUSH1 0x0 DUP1 REVERT JUMPDEST DUP7 DUP3 PUSH1 0x40 ADD SWAP1 PUSH20 0xFFFFFFFFFFFFFFFFFFFFFFFFFFFFFFFFFFFFFFFF AND SWAP1 DUP2 PUSH20 0xFFFFFFFFFFFFFFFFFFFFFFFFFFFFFFFFFFFFFFFF AND DUP2 MSTORE POP POP DUP6 DUP3 PUSH1 0x60 ADD DUP2 DUP2 MSTORE POP POP JUMPDEST DUP2 PUSH1 0xA0 ADD MLOAD DUP5 EQ PUSH2 0x6BF JUMPI DUP4 DUP3 PUSH1 0xA0 ADD DUP2 DUP2 MSTORE POP POP JUMPDEST TIMESTAMP DUP3 PUSH1 0xC0 ADD DUP2 DUP2 MSTORE POP POP DUP2 PUSH1 0x2 PUSH1 0x0 DUP11 DUP2 MSTORE PUSH1 0x20 ADD SWAP1 DUP2 MSTORE PUSH1 0x20 ADD PUSH1 0x0 KECCAK256 PUSH1 0x0 DUP3 ADD MLOAD DUP2 PUSH1 0x0 ADD SSTORE PUSH1 0x20 DUP3 ADD MLOAD DUP2 PUSH1 0x1 ADD SSTORE PUSH1 0x40 DUP3 ADD MLOAD DUP2 PUSH1 0x2 ADD PUSH1 0x0 PUSH2 0x100 EXP DUP2 SLOAD DUP2 PUSH20 0xFFFFFFFFFFFFFFFFFFFFFFFFFFFFFFFFFFFFFFFF MUL NOT AND SWAP1 DUP4 PUSH20 0xFFFFFFFFFFFFFFFFFFFFFFFFFFFFFFFFFFFFFFFF AND MUL OR SWAP1 SSTORE POP PUSH1 0x60 DUP3 ADD MLOAD DUP2 PUSH1 0x3 ADD SSTORE PUSH1 0x80 DUP3 ADD MLOAD DUP2 PUSH1 0x4 ADD SSTORE PUSH1 0xA0 DUP3 ADD MLOAD DUP2 PUSH1 0x5 ADD SSTORE PUSH1 0xC0 DUP3 ADD MLOAD DUP2 PUSH1 0x6 ADD SSTORE PUSH1 0xE0 DUP3 ADD MLOAD DUP2 PUSH1 0x7 ADD PUSH1 0x0 PUSH2 0x100 EXP DUP2 SLOAD DUP2 PUSH20 0xFFFFFFFFFFFFFFFFFFFFFFFFFFFFFFFFFFFFFFFF MUL NOT AND SWAP1 DUP4 PUSH20 0xFFFFFFFFFFFFFFFFFFFFFFFFFFFFFFFFFFFFFFFF AND MUL OR SWAP1 SSTORE POP SWAP1 POP POP PUSH32 0x63EE7A5349A48C16E84171FEBDA7B76AA417EAD29F6971542EFA642CCADFCB2D DUP9 DUP9 DUP9 DUP9 DUP9 TIMESTAMP DUP10 PUSH1 0x40 MLOAD PUSH2 0x7E5 SWAP8 SWAP7 SWAP6 SWAP5 SWAP4 SWAP3 SWAP2 SWAP1 PUSH2 0x1307 JUMP JUMPDEST PUSH1 0x40 MLOAD DUP1 SWAP2 SUB SWAP1 LOG1 POP POP POP POP POP POP POP POP JUMP JUMPDEST PUSH1 0x2 PUSH1 0x20 MSTORE DUP1 PUSH1 0x0 MSTORE PUSH1 0x40 PUSH1 0x0 KECCAK256 PUSH1 0x0 SWAP2 POP SWAP1 POP DUP1 PUSH1 0x0 ADD SLOAD SWAP1 DUP1 PUSH1 0x1 ADD SLOAD SWAP1 DUP1 PUSH1 0x2 ADD PUSH1 0x0 SWAP1 SLOAD SWAP1 PUSH2 0x100 EXP SWAP1 DIV PUSH20 0xFFFFFFFFFFFFFFFFFFFFFFFFFFFFFFFFFFFFFFFF AND SWAP1 DUP1 PUSH1 0x3 ADD SLOAD SWAP1 DUP1 PUSH1 0x4 ADD SLOAD SWAP1 DUP1 PUSH1 0x5 ADD SLOAD SWAP1 DUP1 PUSH1 0x6 ADD SLOAD SWAP1 DUP1 PUSH1 0x7 ADD PUSH1 0x0 SWAP1 SLOAD SWAP1 PUSH2 0x100 EXP SWAP1 DIV PUSH20 0xFFFFFFFFFFFFFFFFFFFFFFFFFFFFFFFFFFFFFFFF AND SWAP1 POP DUP9 JUMP JUMPDEST PUSH1 0x0 DUP1 PUSH20 0xFFFFFFFFFFFFFFFFFFFFFFFFFFFFFFFFFFFFFFFF AND DUP3 PUSH20 0xFFFFFFFFFFFFFFFFFFFFFFFFFFFFFFFFFFFFFFFF AND SUB PUSH2 0x8B9 JUMPI PUSH1 0x0 DUP1 REVERT JUMPDEST PUSH1 0x0 DUP6 GT PUSH2 0x8C6 JUMPI PUSH1 0x0 DUP1 REVERT JUMPDEST PUSH1 0x0 DUP5 GT PUSH2 0x8D3 JUMPI PUSH1 0x0 DUP1 REVERT JUMPDEST PUSH1 0x0 DUP4 GT PUSH2 0x8E0 JUMPI PUSH1 0x0 DUP1 REVERT JUMPDEST PUSH1 0x0 PUSH1 0x1 PUSH1 0x0 DUP2 SLOAD DUP1 SWAP3 SWAP2 SWAP1 PUSH2 0x8F5 SWAP1 PUSH2 0x13A5 JUMP JUMPDEST SWAP2 SWAP1 POP SSTORE POP PUSH1 0x40 MLOAD DUP1 PUSH2 0x100 ADD PUSH1 0x40 MSTORE DUP1 PUSH1 0x1 SLOAD DUP2 MSTORE PUSH1 0x20 ADD DUP3 DUP2 MSTORE PUSH1 0x20 ADD DUP9 PUSH20 0xFFFFFFFFFFFFFFFFFFFFFFFFFFFFFFFFFFFFFFFF AND DUP2 MSTORE PUSH1 0x20 ADD DUP8 DUP2 MSTORE PUSH1 0x20 ADD DUP7 DUP2 MSTORE PUSH1 0x20 ADD DUP6 DUP2 MSTORE PUSH1 0x20 ADD TIMESTAMP DUP2 MSTORE PUSH1 0x20 ADD DUP5 PUSH20 0xFFFFFFFFFFFFFFFFFFFFFFFFFFFFFFFFFFFFFFFF AND DUP2 MSTORE POP PUSH1 0x2 PUSH1 0x0 PUSH1 0x1 SLOAD DUP2 MSTORE PUSH1 0x20 ADD SWAP1 DUP2 MSTORE PUSH1 0x20 ADD PUSH1 0x0 KECCAK256 PUSH1 0x0 DUP3 ADD MLOAD DUP2 PUSH1 0x0 ADD SSTORE PUSH1 0x20 DUP3 ADD MLOAD DUP2 PUSH1 0x1 ADD SSTORE PUSH1 0x40 DUP3 ADD MLOAD DUP2 PUSH1 0x2 ADD PUSH1 0x0 PUSH2 0x100 EXP DUP2 SLOAD DUP2 PUSH20 0xFFFFFFFFFFFFFFFFFFFFFFFFFFFFFFFFFFFFFFFF MUL NOT AND SWAP1 DUP4 PUSH20 0xFFFFFFFFFFFFFFFFFFFFFFFFFFFFFFFFFFFFFFFF AND MUL OR SWAP1 SSTORE POP PUSH1 0x60 DUP3 ADD MLOAD DUP2 PUSH1 0x3 ADD SSTORE PUSH1 0x80 DUP3 ADD MLOAD DUP2 PUSH1 0x4 ADD SSTORE PUSH1 0xA0 DUP3 ADD MLOAD DUP2 PUSH1 0x5 ADD SSTORE PUSH1 0xC0 DUP3 ADD MLOAD DUP2 PUSH1 0x6 ADD SSTORE PUSH1 0xE0 DUP3 ADD MLOAD DUP2 PUSH1 0x7 ADD PUSH1 0x0 PUSH2 0x100 EXP DUP2 SLOAD DUP2 PUSH20 0xFFFFFFFFFFFFFFFFFFFFFFFFFFFFFFFFFFFFFFFF MUL NOT AND SWAP1 DUP4 PUSH20 0xFFFFFFFFFFFFFFFFFFFFFFFFFFFFFFFFFFFFFFFF AND MUL OR SWAP1 SSTORE POP SWAP1 POP POP PUSH32 0x597382782499DBD411783B729F7BE17594C82F50B8BDEE971701D7DEEF51968D PUSH1 0x1 SLOAD DUP9 DUP9 DUP9 DUP9 TIMESTAMP DUP10 PUSH1 0x40 MLOAD PUSH2 0xA81 SWAP8 SWAP7 SWAP6 SWAP5 SWAP4 SWAP3 SWAP2 SWAP1 PUSH2 0x1307 JUMP JUMPDEST PUSH1 0x40 MLOAD DUP1 SWAP2 SUB SWAP1 LOG1 PUSH1 0x1 SLOAD SWAP2 POP POP SWAP6 SWAP5 POP POP POP POP POP JUMP JUMPDEST PUSH1 0x0 DUP1 DUP3 LT DUP1 PUSH2 0xAA9 JUMPI POP PUSH1 0x1 SLOAD DUP3 GT JUMPDEST ISZERO PUSH2 0xAB7 JUMPI PUSH1 0x0 SWAP1 POP PUSH2 0xC21 JUMP JUMPDEST PUSH1 0x0 PUSH1 0x2 PUSH1 0x0 DUP5 DUP2 MSTORE PUSH1 0x20 ADD SWAP1 DUP2 MSTORE PUSH1 0x20 ADD PUSH1 0x0 KECCAK256 PUSH1 0x40 MLOAD DUP1 PUSH2 0x100 ADD PUSH1 0x40 MSTORE SWAP1 DUP2 PUSH1 0x0 DUP3 ADD SLOAD DUP2 MSTORE PUSH1 0x20 ADD PUSH1 0x1 DUP3 ADD SLOAD DUP2 MSTORE PUSH1 0x20 ADD PUSH1 0x2 DUP3 ADD PUSH1 0x0 SWAP1 SLOAD SWAP1 PUSH2 0x100 EXP SWAP1 DIV PUSH20 0xFFFFFFFFFFFFFFFFFFFFFFFFFFFFFFFFFFFFFFFF AND PUSH20 0xFFFFFFFFFFFFFFFFFFFFFFFFFFFFFFFFFFFFFFFF AND PUSH20 0xFFFFFFFFFFFFFFFFFFFFFFFFFFFFFFFFFFFFFFFF AND DUP2 MSTORE PUSH1 0x20 ADD PUSH1 0x3 DUP3 ADD SLOAD DUP2 MSTORE PUSH1 0x20 ADD PUSH1 0x4 DUP3 ADD SLOAD DUP2 MSTORE PUSH1 0x20 ADD PUSH1 0x5 DUP3 ADD SLOAD DUP2 MSTORE PUSH1 0x20 ADD PUSH1 0x6 DUP3 ADD SLOAD DUP2 MSTORE PUSH1 0x20 ADD PUSH1 0x7 DUP3 ADD PUSH1 0x0 SWAP1 SLOAD SWAP1 PUSH2 0x100 EXP SWAP1 DIV PUSH20 0xFFFFFFFFFFFFFFFFFFFFFFFFFFFFFFFFFFFFFFFF AND PUSH20 0xFFFFFFFFFFFFFFFFFFFFFFFFFFFFFFFFFFFFFFFF AND PUSH20 0xFFFFFFFFFFFFFFFFFFFFFFFFFFFFFFFFFFFFFFFF AND DUP2 MSTORE POP POP SWAP1 POP PUSH1 0x0 PUSH20 0xFFFFFFFFFFFFFFFFFFFFFFFFFFFFFFFFFFFFFFFF AND DUP2 PUSH1 0x40 ADD MLOAD PUSH20 0xFFFFFFFFFFFFFFFFFFFFFFFFFFFFFFFFFFFFFFFF AND SUB PUSH2 0xC04 JUMPI PUSH1 0x0 SWAP2 POP POP PUSH2 0xC21 JUMP JUMPDEST PUSH1 0x0 DUP2 PUSH1 0x60 ADD MLOAD LT ISZERO PUSH2 0xC1B JUMPI PUSH1 0x0 SWAP2 POP POP PUSH2 0xC21 JUMP JUMPDEST PUSH1 0x1 SWAP2 POP POP JUMPDEST SWAP2 SWAP1 POP JUMP JUMPDEST PUSH2 0xC2E PUSH2 0xD55 JUMP JUMPDEST PUSH1 0x1 ISZERO ISZERO PUSH2 0xC3B DUP4 PUSH2 0xA98 JUMP JUMPDEST ISZERO ISZERO EQ PUSH2 0xC47 JUMPI PUSH1 0x0 DUP1 REVERT JUMPDEST PUSH1 0x2 PUSH1 0x0 DUP4 DUP2 MSTORE PUSH1 0x20 ADD SWAP1 DUP2 MSTORE PUSH1 0x20 ADD PUSH1 0x0 KECCAK256 PUSH1 0x40 MLOAD DUP1 PUSH2 0x100 ADD PUSH1 0x40 MSTORE SWAP1 DUP2 PUSH1 0x0 DUP3 ADD SLOAD DUP2 MSTORE PUSH1 0x20 ADD PUSH1 0x1 DUP3 ADD SLOAD DUP2 MSTORE PUSH1 0x20 ADD PUSH1 0x2 DUP3 ADD PUSH1 0x0 SWAP1 SLOAD SWAP1 PUSH2 0x100 EXP SWAP1 DIV PUSH20 0xFFFFFFFFFFFFFFFFFFFFFFFFFFFFFFFFFFFFFFFF AND PUSH20 0xFFFFFFFFFFFFFFFFFFFFFFFFFFFFFFFFFFFFFFFF AND PUSH20 0xFFFFFFFFFFFFFFFFFFFFFFFFFFFFFFFFFFFFFFFF AND DUP2 MSTORE PUSH1 0x20 ADD PUSH1 0x3 DUP3 ADD SLOAD DUP2 MSTORE PUSH1 0x20 ADD PUSH1 0x4 DUP3 ADD SLOAD DUP2 MSTORE PUSH1 0x20 ADD PUSH1 0x5 DUP3 ADD SLOAD DUP2 MSTORE PUSH1 0x20 ADD PUSH1 0x6 DUP3 ADD SLOAD DUP2 MSTORE PUSH1 0x20 ADD PUSH1 0x7 DUP3 ADD PUSH1 0x0 SWAP1 SLOAD SWAP1 PUSH2 0x100 EXP SWAP1 DIV PUSH20 0xFFFFFFFFFFFFFFFFFFFFFFFFFFFFFFFFFFFFFFFF AND PUSH20 0xFFFFFFFFFFFFFFFFFFFFFFFFFFFFFFFFFFFFFFFF AND PUSH20 0xFFFFFFFFFFFFFFFFFFFFFFFFFFFFFFFFFFFFFFFF AND DUP2 MSTORE POP POP SWAP1 POP SWAP2 SWAP1 POP JUMP JUMPDEST PUSH1 0x40 MLOAD DUP1 PUSH2 0x100 ADD PUSH1 0x40 MSTORE DUP1 PUSH1 0x0 DUP2 MSTORE PUSH1 0x20 ADD PUSH1 0x0 DUP2 MSTORE PUSH1 0x20 ADD PUSH1 0x0 PUSH20 0xFFFFFFFFFFFFFFFFFFFFFFFFFFFFFFFFFFFFFFFF AND DUP2 MSTORE PUSH1 0x20 ADD PUSH1 0x0 DUP2 MSTORE PUSH1 0x20 ADD PUSH1 0x0 DUP2 MSTORE PUSH1 0x20 ADD PUSH1 0x0 DUP2 MSTORE PUSH1 0x20 ADD PUSH1 0x0 DUP2 MSTORE PUSH1 0x20 ADD PUSH1 0x0 PUSH20 0xFFFFFFFFFFFFFFFFFFFFFFFFFFFFFFFFFFFFFFFF AND DUP2 MSTORE POP SWAP1 JUMP JUMPDEST PUSH1 0x0 DUP2 MLOAD SWAP1 POP SWAP2 SWAP1 POP JUMP JUMPDEST PUSH1 0x0 DUP3 DUP3 MSTORE PUSH1 0x20 DUP3 ADD SWAP1 POP SWAP3 SWAP2 POP POP JUMP JUMPDEST PUSH1 0x0 JUMPDEST DUP4 DUP2 LT ISZERO PUSH2 0xE00 JUMPI DUP1 DUP3 ADD MLOAD DUP2 DUP5 ADD MSTORE PUSH1 0x20 DUP2 ADD SWAP1 POP PUSH2 0xDE5 JUMP JUMPDEST PUSH1 0x0 DUP5 DUP5 ADD MSTORE POP POP POP POP JUMP JUMPDEST PUSH1 0x0 PUSH1 0x1F NOT PUSH1 0x1F DUP4 ADD AND SWAP1 POP SWAP2 SWAP1 POP JUMP JUMPDEST PUSH1 0x0 PUSH2 0xE28 DUP3 PUSH2 0xDC6 JUMP JUMPDEST PUSH2 0xE32 DUP2 DUP6 PUSH2 0xDD1 JUMP JUMPDEST SWAP4 POP PUSH2 0xE42 DUP2 DUP6 PUSH1 0x20 DUP7 ADD PUSH2 0xDE2 JUMP JUMPDEST PUSH2 0xE4B DUP2 PUSH2 0xE0C JUMP JUMPDEST DUP5 ADD SWAP2 POP POP SWAP3 SWAP2 POP POP JUMP JUMPDEST PUSH1 0x0 PUSH1 0x20 DUP3 ADD SWAP1 POP DUP2 DUP2 SUB PUSH1 0x0 DUP4 ADD MSTORE PUSH2 0xE70 DUP2 DUP5 PUSH2 0xE1D JUMP JUMPDEST SWAP1 POP SWAP3 SWAP2 POP POP JUMP JUMPDEST PUSH1 0x0 DUP2 SWAP1 POP SWAP2 SWAP1 POP JUMP JUMPDEST PUSH2 0xE8B DUP2 PUSH2 0xE78 JUMP JUMPDEST DUP3 MSTORE POP POP JUMP JUMPDEST PUSH1 0x0 PUSH1 0x20 DUP3 ADD SWAP1 POP PUSH2 0xEA6 PUSH1 0x0 DUP4 ADD DUP5 PUSH2 0xE82 JUMP JUMPDEST SWAP3 SWAP2 POP POP JUMP JUMPDEST PUSH1 0x0 DUP1 REVERT JUMPDEST PUSH2 0xEBA DUP2 PUSH2 0xE78 JUMP JUMPDEST DUP2 EQ PUSH2 0xEC5 JUMPI PUSH1 0x0 DUP1 REVERT JUMPDEST POP JUMP JUMPDEST PUSH1 0x0 DUP2 CALLDATALOAD SWAP1 POP PUSH2 0xED7 DUP2 PUSH2 0xEB1 JUMP JUMPDEST SWAP3 SWAP2 POP POP JUMP JUMPDEST PUSH1 0x0 PUSH20 0xFFFFFFFFFFFFFFFFFFFFFFFFFFFFFFFFFFFFFFFF DUP3 AND SWAP1 POP SWAP2 SWAP1 POP JUMP JUMPDEST PUSH1 0x0 PUSH2 0xF08 DUP3 PUSH2 0xEDD JUMP JUMPDEST SWAP1 POP SWAP2 SWAP1 POP JUMP JUMPDEST PUSH2 0xF18 DUP2 PUSH2 0xEFD JUMP JUMPDEST DUP2 EQ PUSH2 0xF23 JUMPI PUSH1 0x0 DUP1 REVERT JUMPDEST POP JUMP JUMPDEST PUSH1 0x0 DUP2 CALLDATALOAD SWAP1 POP PUSH2 0xF35 DUP2 PUSH2 0xF0F JUMP JUMPDEST SWAP3 SWAP2 POP POP JUMP JUMPDEST PUSH1 0x0 DUP1 PUSH1 0x0 PUSH1 0x60 DUP5 DUP7 SUB SLT ISZERO PUSH2 0xF54 JUMPI PUSH2 0xF53 PUSH2 0xEAC JUMP JUMPDEST JUMPDEST PUSH1 0x0 PUSH2 0xF62 DUP7 DUP3 DUP8 ADD PUSH2 0xEC8 JUMP JUMPDEST SWAP4 POP POP PUSH1 0x20 PUSH2 0xF73 DUP7 DUP3 DUP8 ADD PUSH2 0xEC8 JUMP JUMPDEST SWAP3 POP POP PUSH1 0x40 PUSH2 0xF84 DUP7 DUP3 DUP8 ADD PUSH2 0xF26 JUMP JUMPDEST SWAP2 POP POP SWAP3 POP SWAP3 POP SWAP3 JUMP JUMPDEST PUSH1 0x0 DUP1 PUSH1 0x0 DUP1 PUSH1 0x0 DUP1 PUSH1 0xC0 DUP8 DUP10 SUB SLT ISZERO PUSH2 0xFAB JUMPI PUSH2 0xFAA PUSH2 0xEAC JUMP JUMPDEST JUMPDEST PUSH1 0x0 PUSH2 0xFB9 DUP10 DUP3 DUP11 ADD PUSH2 0xEC8 JUMP JUMPDEST SWAP7 POP POP PUSH1 0x20 PUSH2 0xFCA DUP10 DUP3 DUP11 ADD PUSH2 0xF26 JUMP JUMPDEST SWAP6 POP POP PUSH1 0x40 PUSH2 0xFDB DUP10 DUP3 DUP11 ADD PUSH2 0xEC8 JUMP JUMPDEST SWAP5 POP POP PUSH1 0x60 PUSH2 0xFEC DUP10 DUP3 DUP11 ADD PUSH2 0xEC8 JUMP JUMPDEST SWAP4 POP POP PUSH1 0x80 PUSH2 0xFFD DUP10 DUP3 DUP11 ADD PUSH2 0xEC8 JUMP JUMPDEST SWAP3 POP POP PUSH1 0xA0 PUSH2 0x100E DUP10 DUP3 DUP11 ADD PUSH2 0xF26 JUMP JUMPDEST SWAP2 POP POP SWAP3 SWAP6 POP SWAP3 SWAP6 POP SWAP3 SWAP6 JUMP JUMPDEST PUSH1 0x0 PUSH1 0x20 DUP3 DUP5 SUB SLT ISZERO PUSH2 0x1031 JUMPI PUSH2 0x1030 PUSH2 0xEAC JUMP JUMPDEST JUMPDEST PUSH1 0x0 PUSH2 0x103F DUP5 DUP3 DUP6 ADD PUSH2 0xEC8 JUMP JUMPDEST SWAP2 POP POP SWAP3 SWAP2 POP POP JUMP JUMPDEST PUSH2 0x1051 DUP2 PUSH2 0xEFD JUMP JUMPDEST DUP3 MSTORE POP POP JUMP JUMPDEST PUSH1 0x0 PUSH2 0x100 DUP3 ADD SWAP1 POP PUSH2 0x106D PUSH1 0x0 DUP4 ADD DUP12 PUSH2 0xE82 JUMP JUMPDEST PUSH2 0x107A PUSH1 0x20 DUP4 ADD DUP11 PUSH2 0xE82 JUMP JUMPDEST PUSH2 0x1087 PUSH1 0x40 DUP4 ADD DUP10 PUSH2 0x1048 JUMP JUMPDEST PUSH2 0x1094 PUSH1 0x60 DUP4 ADD DUP9 PUSH2 0xE82 JUMP JUMPDEST PUSH2 0x10A1 PUSH1 0x80 DUP4 ADD DUP8 PUSH2 0xE82 JUMP JUMPDEST PUSH2 0x10AE PUSH1 0xA0 DUP4 ADD DUP7 PUSH2 0xE82 JUMP JUMPDEST PUSH2 0x10BB PUSH1 0xC0 DUP4 ADD DUP6 PUSH2 0xE82 JUMP JUMPDEST PUSH2 0x10C8 PUSH1 0xE0 DUP4 ADD DUP5 PUSH2 0x1048 JUMP JUMPDEST SWAP10 SWAP9 POP POP POP POP POP POP POP POP POP JUMP JUMPDEST PUSH1 0x0 DUP1 PUSH1 0x0 DUP1 PUSH1 0x0 PUSH1 0xA0 DUP7 DUP9 SUB SLT ISZERO PUSH2 0x10F1 JUMPI PUSH2 0x10F0 PUSH2 0xEAC JUMP JUMPDEST JUMPDEST PUSH1 0x0 PUSH2 0x10FF DUP9 DUP3 DUP10 ADD PUSH2 0xF26 JUMP JUMPDEST SWAP6 POP POP PUSH1 0x20 PUSH2 0x1110 DUP9 DUP3 DUP10 ADD PUSH2 0xEC8 JUMP JUMPDEST SWAP5 POP POP PUSH1 0x40 PUSH2 0x1121 DUP9 DUP3 DUP10 ADD PUSH2 0xEC8 JUMP JUMPDEST SWAP4 POP POP PUSH1 0x60 PUSH2 0x1132 DUP9 DUP3 DUP10 ADD PUSH2 0xEC8 JUMP JUMPDEST SWAP3 POP POP PUSH1 0x80 PUSH2 0x1143 DUP9 DUP3 DUP10 ADD PUSH2 0xF26 JUMP JUMPDEST SWAP2 POP POP SWAP3 SWAP6 POP SWAP3 SWAP6 SWAP1 SWAP4 POP JUMP JUMPDEST PUSH1 0x0 DUP2 ISZERO ISZERO SWAP1 POP SWAP2 SWAP1 POP JUMP JUMPDEST PUSH2 0x1165 DUP2 PUSH2 0x1150 JUMP JUMPDEST DUP3 MSTORE POP POP JUMP JUMPDEST PUSH1 0x0 PUSH1 0x20 DUP3 ADD SWAP1 POP PUSH2 0x1180 PUSH1 0x0 DUP4 ADD DUP5 PUSH2 0x115C JUMP JUMPDEST SWAP3 SWAP2 POP POP JUMP JUMPDEST PUSH2 0x118F DUP2 PUSH2 0xE78 JUMP JUMPDEST DUP3 MSTORE POP POP JUMP JUMPDEST PUSH2 0x119E DUP2 PUSH2 0xEFD JUMP JUMPDEST DUP3 MSTORE POP POP JUMP JUMPDEST PUSH2 0x100 DUP3 ADD PUSH1 0x0 DUP3 ADD MLOAD PUSH2 0x11BB PUSH1 0x0 DUP6 ADD DUP3 PUSH2 0x1186 JUMP JUMPDEST POP PUSH1 0x20 DUP3 ADD MLOAD PUSH2 0x11CE PUSH1 0x20 DUP6 ADD DUP3 PUSH2 0x1186 JUMP JUMPDEST POP PUSH1 0x40 DUP3 ADD MLOAD PUSH2 0x11E1 PUSH1 0x40 DUP6 ADD DUP3 PUSH2 0x1195 JUMP JUMPDEST POP PUSH1 0x60 DUP3 ADD MLOAD PUSH2 0x11F4 PUSH1 0x60 DUP6 ADD DUP3 PUSH2 0x1186 JUMP JUMPDEST POP PUSH1 0x80 DUP3 ADD MLOAD PUSH2 0x1207 PUSH1 0x80 DUP6 ADD DUP3 PUSH2 0x1186 JUMP JUMPDEST POP PUSH1 0xA0 DUP3 ADD MLOAD PUSH2 0x121A PUSH1 0xA0 DUP6 ADD DUP3 PUSH2 0x1186 JUMP JUMPDEST POP PUSH1 0xC0 DUP3 ADD MLOAD PUSH2 0x122D PUSH1 0xC0 DUP6 ADD DUP3 PUSH2 0x1186 JUMP JUMPDEST POP PUSH1 0xE0 DUP3 ADD MLOAD PUSH2 0x1240 PUSH1 0xE0 DUP6 ADD DUP3 PUSH2 0x1195 JUMP JUMPDEST POP POP POP POP JUMP JUMPDEST PUSH1 0x0 PUSH2 0x100 DUP3 ADD SWAP1 POP PUSH2 0x125C PUSH1 0x0 DUP4 ADD DUP5 PUSH2 0x11A4 JUMP JUMPDEST SWAP3 SWAP2 POP POP JUMP JUMPDEST PUSH32 0x4E487B7100000000000000000000000000000000000000000000000000000000 PUSH1 0x0 MSTORE PUSH1 0x22 PUSH1 0x4 MSTORE PUSH1 0x24 PUSH1 0x0 REVERT JUMPDEST PUSH1 0x0 PUSH1 0x2 DUP3 DIV SWAP1 POP PUSH1 0x1 DUP3 AND DUP1 PUSH2 0x12A9 JUMPI PUSH1 0x7F DUP3 AND SWAP2 POP JUMPDEST PUSH1 0x20 DUP3 LT DUP2 SUB PUSH2 0x12BC JUMPI PUSH2 0x12BB PUSH2 0x1262 JUMP JUMPDEST JUMPDEST POP SWAP2 SWAP1 POP JUMP JUMPDEST PUSH1 0x0 PUSH1 0x80 DUP3 ADD SWAP1 POP PUSH2 0x12D7 PUSH1 0x0 DUP4 ADD DUP8 PUSH2 0xE82 JUMP JUMPDEST PUSH2 0x12E4 PUSH1 0x20 DUP4 ADD DUP7 PUSH2 0xE82 JUMP JUMPDEST PUSH2 0x12F1 PUSH1 0x40 DUP4 ADD DUP6 PUSH2 0xE82 JUMP JUMPDEST PUSH2 0x12FE PUSH1 0x60 DUP4 ADD DUP5 PUSH2 0x1048 JUMP JUMPDEST SWAP6 SWAP5 POP POP POP POP POP JUMP JUMPDEST PUSH1 0x0 PUSH1 0xE0 DUP3 ADD SWAP1 POP PUSH2 0x131C PUSH1 0x0 DUP4 ADD DUP11 PUSH2 0xE82 JUMP JUMPDEST PUSH2 0x1329 PUSH1 0x20 DUP4 ADD DUP10 PUSH2 0x1048 JUMP JUMPDEST PUSH2 0x1336 PUSH1 0x40 DUP4 ADD DUP9 PUSH2 0xE82 JUMP JUMPDEST PUSH2 0x1343 PUSH1 0x60 DUP4 ADD DUP8 PUSH2 0xE82 JUMP JUMPDEST PUSH2 0x1350 PUSH1 0x80 DUP4 ADD DUP7 PUSH2 0xE82 JUMP JUMPDEST PUSH2 0x135D PUSH1 0xA0 DUP4 ADD DUP6 PUSH2 0xE82 JUMP JUMPDEST PUSH2 0x136A PUSH1 0xC0 DUP4 ADD DUP5 PUSH2 0x1048 JUMP JUMPDEST SWAP9 SWAP8 POP POP POP POP POP POP POP POP JUMP JUMPDEST PUSH32 0x4E487B7100000000000000000000000000000000000000000000000000000000 PUSH1 0x0 MSTORE PUSH1 0x11 PUSH1 0x4 MSTORE PUSH1 0x24 PUSH1 0x0 REVERT JUMPDEST PUSH1 0x0 PUSH2 0x13B0 DUP3 PUSH2 0xE78 JUMP JUMPDEST SWAP2 POP PUSH32 0xFFFFFFFFFFFFFFFFFFFFFFFFFFFFFFFFFFFFFFFFFFFFFFFFFFFFFFFFFFFFFFFF DUP3 SUB PUSH2 0x13E2 JUMPI PUSH2 0x13E1 PUSH2 0x1376 JUMP JUMPDEST JUMPDEST PUSH1 0x1 DUP3 ADD SWAP1 POP SWAP2 SWAP1 POP JUMP INVALID LOG2 PUSH5 0x6970667358 0x22 SLT KECCAK256 PUSH4 0x3D2E4518 0xB3 LOG3 0xCE 0x4F 0xE 0x27 EXP 0xEB KECCAK256 0xCC 0xED SWAP7 REVERT PUSH14 0x6493D5E26B3A361CC3082A3A9C64 PUSH20 0x6F6C634300081100330000000000000000000000 "
				},
				"gasEstimates": {
					"creation": {
						"codeDepositCost": "1031000",
						"executionCost": "infinite",
						"totalCost": "infinite"
					},
					"external": {
						"AddVerification(address,uint256,uint256,uint256,address)": "infinite",
						"GetVerificationByID(uint256)": "infinite",
						"SetAntiqueIDByVerificationID(uint256,uint256,address)": "infinite",
						"UpdateVerification(uint256,address,uint256,uint256,uint256,address)": "infinite",
						"ValidateVerificationID(uint256)": "20090",
						"VerificateionMap(uint256)": "infinite",
						"name()": "infinite",
						"verificationCount()": "2452"
					}
				},
				"methodIdentifiers": {
					"AddVerification(address,uint256,uint256,uint256,address)": "9d35b96f",
					"GetVerificationByID(uint256)": "db15b787",
					"SetAntiqueIDByVerificationID(uint256,uint256,address)": "0bb6c06b",
					"UpdateVerification(uint256,address,uint256,uint256,uint256,address)": "0c61f46d",
					"ValidateVerificationID(uint256)": "d27fbe47",
					"VerificateionMap(uint256)": "8d72ae4f",
					"name()": "06fdde03",
					"verificationCount()": "0830e22e"
				}
			},
			"storageLayout": {
				"storage": [
					{
						"astId": 4,
						"contract": "Database/Database/Verification.sol:Verification",
						"label": "name",
						"offset": 0,
						"slot": "0",
						"type": "t_string_storage"
					},
					{
						"astId": 7,
						"contract": "Database/Database/Verification.sol:Verification",
						"label": "verificationCount",
						"offset": 0,
						"slot": "1",
						"type": "t_uint256"
					},
					{
						"astId": 12,
						"contract": "Database/Database/Verification.sol:Verification",
						"label": "VerificateionMap",
						"offset": 0,
						"slot": "2",
						"type": "t_mapping(t_uint256,t_struct(VerificateionObject)29_storage)"
					}
				],
				"types": {
					"t_address_payable": {
						"encoding": "inplace",
						"label": "address payable",
						"numberOfBytes": "20"
					},
					"t_mapping(t_uint256,t_struct(VerificateionObject)29_storage)": {
						"encoding": "mapping",
						"key": "t_uint256",
						"label": "mapping(uint256 => struct Verification.VerificateionObject)",
						"numberOfBytes": "32",
						"value": "t_struct(VerificateionObject)29_storage"
					},
					"t_string_storage": {
						"encoding": "bytes",
						"label": "string",
						"numberOfBytes": "32"
					},
					"t_struct(VerificateionObject)29_storage": {
						"encoding": "inplace",
						"label": "struct Verification.VerificateionObject",
						"members": [
							{
								"astId": 14,
								"contract": "Database/Database/Verification.sol:Verification",
								"label": "verificationID",
								"offset": 0,
								"slot": "0",
								"type": "t_uint256"
							},
							{
								"astId": 16,
								"contract": "Database/Database/Verification.sol:Verification",
								"label": "antiqueID",
								"offset": 0,
								"slot": "1",
								"type": "t_uint256"
							},
							{
								"astId": 18,
								"contract": "Database/Database/Verification.sol:Verification",
								"label": "ownerAddress",
								"offset": 0,
								"slot": "2",
								"type": "t_address_payable"
							},
							{
								"astId": 20,
								"contract": "Database/Database/Verification.sol:Verification",
								"label": "ownerID",
								"offset": 0,
								"slot": "3",
								"type": "t_uint256"
							},
							{
								"astId": 22,
								"contract": "Database/Database/Verification.sol:Verification",
								"label": "personVerificationID",
								"offset": 0,
								"slot": "4",
								"type": "t_uint256"
							},
							{
								"astId": 24,
								"contract": "Database/Database/Verification.sol:Verification",
								"label": "ioTDeviceID",
								"offset": 0,
								"slot": "5",
								"type": "t_uint256"
							},
							{
								"astId": 26,
								"contract": "Database/Database/Verification.sol:Verification",
								"label": "uploadTime",
								"offset": 0,
								"slot": "6",
								"type": "t_uint256"
							},
							{
								"astId": 28,
								"contract": "Database/Database/Verification.sol:Verification",
								"label": "uploader",
								"offset": 0,
								"slot": "7",
								"type": "t_address_payable"
							}
						],
						"numberOfBytes": "256"
					},
					"t_uint256": {
						"encoding": "inplace",
						"label": "uint256",
						"numberOfBytes": "32"
					}
				}
			},
			"userdoc": {
				"kind": "user",
				"methods": {},
				"version": 1
			}
		}
	}
}