{
  "contractName": "Documentation",
  "abi": [
    {
      "inputs": [],
      "stateMutability": "nonpayable",
      "type": "constructor"
    },
    {
      "anonymous": false,
      "inputs": [
        {
          "indexed": false,
          "internalType": "uint256",
          "name": "documentationID",
          "type": "uint256"
        },
        {
          "indexed": false,
          "internalType": "string",
          "name": "filehash",
          "type": "string"
        },
        {
          "indexed": false,
          "internalType": "uint256",
          "name": "fileSize",
          "type": "uint256"
        },
        {
          "indexed": false,
          "internalType": "string",
          "name": "fileType",
          "type": "string"
        },
        {
          "indexed": false,
          "internalType": "string",
          "name": "fileName",
          "type": "string"
        },
        {
          "indexed": false,
          "internalType": "string",
          "name": "fileDescription",
          "type": "string"
        },
        {
          "indexed": false,
          "internalType": "uint256",
          "name": "uploadTime",
          "type": "uint256"
        },
        {
          "indexed": false,
          "internalType": "address payable",
          "name": "uploader",
          "type": "address"
        }
      ],
      "name": "documentationUpdated",
      "type": "event"
    },
    {
      "anonymous": false,
      "inputs": [
        {
          "indexed": false,
          "internalType": "uint256",
          "name": "documentationID",
          "type": "uint256"
        },
        {
          "indexed": false,
          "internalType": "string",
          "name": "filehash",
          "type": "string"
        },
        {
          "indexed": false,
          "internalType": "uint256",
          "name": "fileSize",
          "type": "uint256"
        },
        {
          "indexed": false,
          "internalType": "string",
          "name": "fileType",
          "type": "string"
        },
        {
          "indexed": false,
          "internalType": "string",
          "name": "fileName",
          "type": "string"
        },
        {
          "indexed": false,
          "internalType": "string",
          "name": "fileDescription",
          "type": "string"
        },
        {
          "indexed": false,
          "internalType": "uint256",
          "name": "uploadTime",
          "type": "uint256"
        },
        {
          "indexed": false,
          "internalType": "address payable",
          "name": "uploader",
          "type": "address"
        }
      ],
      "name": "documentationUploaded",
      "type": "event"
    },
    {
      "anonymous": false,
      "inputs": [
        {
          "indexed": false,
          "internalType": "uint256",
          "name": "documentationID",
          "type": "uint256"
        },
        {
          "indexed": false,
          "internalType": "uint256",
          "name": "antiqueID",
          "type": "uint256"
        },
        {
          "indexed": false,
          "internalType": "uint256",
          "name": "uploadTime",
          "type": "uint256"
        },
        {
          "indexed": false,
          "internalType": "address payable",
          "name": "uploader",
          "type": "address"
        }
      ],
      "name": "setAntiqueIDByDocumentationID",
      "type": "event"
    },
    {
      "inputs": [],
      "name": "documentationCount",
      "outputs": [
        {
          "internalType": "uint256",
          "name": "",
          "type": "uint256"
        }
      ],
      "stateMutability": "view",
      "type": "function",
      "constant": true
    },
    {
      "inputs": [
        {
          "internalType": "uint256",
          "name": "",
          "type": "uint256"
        }
      ],
      "name": "documentationMapp",
      "outputs": [
        {
          "internalType": "uint256",
          "name": "documentationID",
          "type": "uint256"
        },
        {
          "internalType": "uint256",
          "name": "antiqueID",
          "type": "uint256"
        },
        {
          "internalType": "string",
          "name": "filehash",
          "type": "string"
        },
        {
          "internalType": "uint256",
          "name": "fileSize",
          "type": "uint256"
        },
        {
          "internalType": "string",
          "name": "fileType",
          "type": "string"
        },
        {
          "internalType": "string",
          "name": "fileName",
          "type": "string"
        },
        {
          "internalType": "string",
          "name": "fileDescription",
          "type": "string"
        },
        {
          "internalType": "uint256",
          "name": "uploadTime",
          "type": "uint256"
        },
        {
          "internalType": "address payable",
          "name": "uploader",
          "type": "address"
        }
      ],
      "stateMutability": "view",
      "type": "function",
      "constant": true
    },
    {
      "inputs": [],
      "name": "name",
      "outputs": [
        {
          "internalType": "string",
          "name": "",
          "type": "string"
        }
      ],
      "stateMutability": "view",
      "type": "function",
      "constant": true
    },
    {
      "inputs": [
        {
          "internalType": "string",
          "name": "_fileHash",
          "type": "string"
        },
        {
          "internalType": "uint256",
          "name": "_fileSize",
          "type": "uint256"
        },
        {
          "internalType": "string",
          "name": "_fileType",
          "type": "string"
        },
        {
          "internalType": "string",
          "name": "_fileName",
          "type": "string"
        },
        {
          "internalType": "string",
          "name": "_fileDescription",
          "type": "string"
        },
        {
          "internalType": "address payable",
          "name": "_uploader",
          "type": "address"
        }
      ],
      "name": "AddDocumentation",
      "outputs": [
        {
          "internalType": "uint256",
          "name": "",
          "type": "uint256"
        }
      ],
      "stateMutability": "nonpayable",
      "type": "function"
    },
    {
      "inputs": [
        {
          "internalType": "uint256",
          "name": "_documentationID",
          "type": "uint256"
        },
        {
          "internalType": "string",
          "name": "_fileHash",
          "type": "string"
        },
        {
          "internalType": "uint256",
          "name": "_fileSize",
          "type": "uint256"
        },
        {
          "internalType": "string",
          "name": "_fileType",
          "type": "string"
        },
        {
          "internalType": "string",
          "name": "_fileName",
          "type": "string"
        },
        {
          "internalType": "string",
          "name": "_fileDescription",
          "type": "string"
        },
        {
          "internalType": "address payable",
          "name": "_uploader",
          "type": "address"
        }
      ],
      "name": "UpdateDocumentation",
      "outputs": [],
      "stateMutability": "nonpayable",
      "type": "function"
    },
    {
      "inputs": [
        {
          "internalType": "uint256",
          "name": "_documentationID",
          "type": "uint256"
        }
      ],
      "name": "GetDocumentationByID",
      "outputs": [
        {
          "components": [
            {
              "internalType": "uint256",
              "name": "documentationID",
              "type": "uint256"
            },
            {
              "internalType": "uint256",
              "name": "antiqueID",
              "type": "uint256"
            },
            {
              "internalType": "string",
              "name": "filehash",
              "type": "string"
            },
            {
              "internalType": "uint256",
              "name": "fileSize",
              "type": "uint256"
            },
            {
              "internalType": "string",
              "name": "fileType",
              "type": "string"
            },
            {
              "internalType": "string",
              "name": "fileName",
              "type": "string"
            },
            {
              "internalType": "string",
              "name": "fileDescription",
              "type": "string"
            },
            {
              "internalType": "uint256",
              "name": "uploadTime",
              "type": "uint256"
            },
            {
              "internalType": "address payable",
              "name": "uploader",
              "type": "address"
            }
          ],
          "internalType": "struct Documentation.DocumentationObject",
          "name": "",
          "type": "tuple"
        }
      ],
      "stateMutability": "view",
      "type": "function",
      "constant": true
    },
    {
      "inputs": [
        {
          "internalType": "uint256",
          "name": "_documentationID",
          "type": "uint256"
        }
      ],
      "name": "ValidateDocumentationID",
      "outputs": [
        {
          "internalType": "bool",
          "name": "",
          "type": "bool"
        }
      ],
      "stateMutability": "view",
      "type": "function",
      "constant": true
    },
    {
      "inputs": [
        {
          "internalType": "uint256",
          "name": "_documentationID",
          "type": "uint256"
        },
        {
          "internalType": "uint256",
          "name": "_antiqueID",
          "type": "uint256"
        },
        {
          "internalType": "address payable",
          "name": "_uploader",
          "type": "address"
        }
      ],
      "name": "SetAntiqueIDByDocumentationID",
      "outputs": [],
      "stateMutability": "nonpayable",
      "type": "function"
    }
  ],
  "bytecode": "0x60806040526040518060400160405280600d81526020017f446f63756d656e746174696f6e000000000000000000000000000000000000008152506000908051906020019062000051929190620000b9565b5060006001553480156200006457600080fd5b506040518060400160405280600d81526020017f446f63756d656e746174696f6e0000000000000000000000000000000000000081525060009080519060200190620000b2929190620000b9565b50620001cd565b828054620000c79062000198565b90600052602060002090601f016020900481019282620000eb576000855562000137565b82601f106200010657805160ff191683800117855562000137565b8280016001018555821562000137579182015b828111156200013657825182559160200191906001019062000119565b5b5090506200014691906200014a565b5090565b5b80821115620001655760008160009055506001016200014b565b5090565b7f4e487b7100000000000000000000000000000000000000000000000000000000600052602260045260246000fd5b60006002820490506001821680620001b157607f821691505b602082108103620001c757620001c662000169565b5b50919050565b61209380620001dd6000396000f3fe608060405234801561001057600080fd5b50600436106100885760003560e01c806376e7e4df1161005b57806376e7e4df146101155780638c39b67f14610145578063ddf4732c14610175578063e91e54321461019157610088565b806306fdde031461008d578063244a9b6a146100ab578063287c1b15146100c95780634961904a146100e5575b600080fd5b6100956101c9565b6040516100a2919061179d565b60405180910390f35b6100b3610257565b6040516100c091906117d8565b60405180910390f35b6100e360048036038101906100de9190611891565b61025d565b005b6100ff60048036038101906100fa91906118e4565b6105f2565b60405161010c9190611a53565b60405180910390f35b61012f600480360381019061012a9190611baa565b6108ff565b60405161013c91906117d8565b60405180910390f35b61015f600480360381019061015a91906118e4565b610b43565b60405161016c9190611cc2565b60405180910390f35b61018f600480360381019061018a9190611cdd565b610e86565b005b6101ab60048036038101906101a691906118e4565b611371565b6040516101c099989796959493929190611dfe565b60405180910390f35b600080546101d690611ed6565b80601f016020809104026020016040519081016040528092919081815260200182805461020290611ed6565b801561024f5780601f106102245761010080835404028352916020019161024f565b820191906000526020600020905b81548152906001019060200180831161023257829003601f168201915b505050505081565b60015481565b6001151561026a84610b43565b15151461027657600080fd5b6000821161028357600080fd5b600073ffffffffffffffffffffffffffffffffffffffff168173ffffffffffffffffffffffffffffffffffffffff16036102bc57600080fd5b60006002600085815260200190815260200160002060405180610120016040529081600082015481526020016001820154815260200160028201805461030190611ed6565b80601f016020809104026020016040519081016040528092919081815260200182805461032d90611ed6565b801561037a5780601f1061034f5761010080835404028352916020019161037a565b820191906000526020600020905b81548152906001019060200180831161035d57829003601f168201915b505050505081526020016003820154815260200160048201805461039d90611ed6565b80601f01602080910402602001604051908101604052809291908181526020018280546103c990611ed6565b80156104165780601f106103eb57610100808354040283529160200191610416565b820191906000526020600020905b8154815290600101906020018083116103f957829003601f168201915b5050505050815260200160058201805461042f90611ed6565b80601f016020809104026020016040519081016040528092919081815260200182805461045b90611ed6565b80156104a85780601f1061047d576101008083540402835291602001916104a8565b820191906000526020600020905b81548152906001019060200180831161048b57829003601f168201915b505050505081526020016006820180546104c190611ed6565b80601f01602080910402602001604051908101604052809291908181526020018280546104ed90611ed6565b801561053a5780601f1061050f5761010080835404028352916020019161053a565b820191906000526020600020905b81548152906001019060200180831161051d57829003601f168201915b50505050508152602001600782015481526020016008820160009054906101000a900473ffffffffffffffffffffffffffffffffffffffff1673ffffffffffffffffffffffffffffffffffffffff1673ffffffffffffffffffffffffffffffffffffffff16815250509050828160200181815250507f6487b8dfc253ed0a62294efdc9b89411d67024199c9b55dc806ffb2061afb859848442856040516105e49493929190611f07565b60405180910390a150505050565b6105fa6115ff565b6001151561060783610b43565b15151461061357600080fd5b6002600083815260200190815260200160002060405180610120016040529081600082015481526020016001820154815260200160028201805461065690611ed6565b80601f016020809104026020016040519081016040528092919081815260200182805461068290611ed6565b80156106cf5780601f106106a4576101008083540402835291602001916106cf565b820191906000526020600020905b8154815290600101906020018083116106b257829003601f168201915b50505050508152602001600382015481526020016004820180546106f290611ed6565b80601f016020809104026020016040519081016040528092919081815260200182805461071e90611ed6565b801561076b5780601f106107405761010080835404028352916020019161076b565b820191906000526020600020905b81548152906001019060200180831161074e57829003601f168201915b5050505050815260200160058201805461078490611ed6565b80601f01602080910402602001604051908101604052809291908181526020018280546107b090611ed6565b80156107fd5780601f106107d2576101008083540402835291602001916107fd565b820191906000526020600020905b8154815290600101906020018083116107e057829003601f168201915b5050505050815260200160068201805461081690611ed6565b80601f016020809104026020016040519081016040528092919081815260200182805461084290611ed6565b801561088f5780601f106108645761010080835404028352916020019161088f565b820191906000526020600020905b81548152906001019060200180831161087257829003601f168201915b50505050508152602001600782015481526020016008820160009054906101000a900473ffffffffffffffffffffffffffffffffffffffff1673ffffffffffffffffffffffffffffffffffffffff1673ffffffffffffffffffffffffffffffffffffffff16815250509050919050565b60008087511161090e57600080fd5b600085511161091c57600080fd5b600084511161092a57600080fd5b600083511161093857600080fd5b600073ffffffffffffffffffffffffffffffffffffffff168273ffffffffffffffffffffffffffffffffffffffff160361097157600080fd5b6000861161097e57600080fd5b6001600081548092919061099190611f7b565b9190505550600060405180610120016040528060015481526020018281526020018981526020018881526020018781526020018681526020018581526020014281526020018473ffffffffffffffffffffffffffffffffffffffff1681525060026000600154815260200190815260200160002060008201518160000155602082015181600101556040820151816002019080519060200190610a35929190611661565b50606082015181600301556080820151816004019080519060200190610a5c929190611661565b5060a0820151816005019080519060200190610a79929190611661565b5060c0820151816006019080519060200190610a96929190611661565b5060e082015181600701556101008201518160080160006101000a81548173ffffffffffffffffffffffffffffffffffffffff021916908373ffffffffffffffffffffffffffffffffffffffff1602179055509050507f91cddbd1ac4b2b43a760f475a3e6605d43780914aed1c262dba297d81c8761d96001548989898989428a604051610b2b989796959493929190611fc3565b60405180910390a16001549150509695505050505050565b600080821080610b54575060015482115b15610b625760009050610e81565b600060026000848152602001908152602001600020604051806101200160405290816000820154815260200160018201548152602001600282018054610ba790611ed6565b80601f0160208091040260200160405190810160405280929190818152602001828054610bd390611ed6565b8015610c205780601f10610bf557610100808354040283529160200191610c20565b820191906000526020600020905b815481529060010190602001808311610c0357829003601f168201915b5050505050815260200160038201548152602001600482018054610c4390611ed6565b80601f0160208091040260200160405190810160405280929190818152602001828054610c6f90611ed6565b8015610cbc5780601f10610c9157610100808354040283529160200191610cbc565b820191906000526020600020905b815481529060010190602001808311610c9f57829003601f168201915b50505050508152602001600582018054610cd590611ed6565b80601f0160208091040260200160405190810160405280929190818152602001828054610d0190611ed6565b8015610d4e5780601f10610d2357610100808354040283529160200191610d4e565b820191906000526020600020905b815481529060010190602001808311610d3157829003601f168201915b50505050508152602001600682018054610d6790611ed6565b80601f0160208091040260200160405190810160405280929190818152602001828054610d9390611ed6565b8015610de05780601f10610db557610100808354040283529160200191610de0565b820191906000526020600020905b815481529060010190602001808311610dc357829003601f168201915b50505050508152602001600782015481526020016008820160009054906101000a900473ffffffffffffffffffffffffffffffffffffffff1673ffffffffffffffffffffffffffffffffffffffff1673ffffffffffffffffffffffffffffffffffffffff1681525050905060008160400151511015610e63576000915050610e81565b60008160a00151511015610e7b576000915050610e81565b60019150505b919050565b600087118015610e9857506001548711155b610ea157600080fd5b600073ffffffffffffffffffffffffffffffffffffffff168173ffffffffffffffffffffffffffffffffffffffff1603610eda57600080fd5b600060026000898152602001908152602001600020604051806101200160405290816000820154815260200160018201548152602001600282018054610f1f90611ed6565b80601f0160208091040260200160405190810160405280929190818152602001828054610f4b90611ed6565b8015610f985780601f10610f6d57610100808354040283529160200191610f98565b820191906000526020600020905b815481529060010190602001808311610f7b57829003601f168201915b5050505050815260200160038201548152602001600482018054610fbb90611ed6565b80601f0160208091040260200160405190810160405280929190818152602001828054610fe790611ed6565b80156110345780601f1061100957610100808354040283529160200191611034565b820191906000526020600020905b81548152906001019060200180831161101757829003601f168201915b5050505050815260200160058201805461104d90611ed6565b80601f016020809104026020016040519081016040528092919081815260200182805461107990611ed6565b80156110c65780601f1061109b576101008083540402835291602001916110c6565b820191906000526020600020905b8154815290600101906020018083116110a957829003601f168201915b505050505081526020016006820180546110df90611ed6565b80601f016020809104026020016040519081016040528092919081815260200182805461110b90611ed6565b80156111585780601f1061112d57610100808354040283529160200191611158565b820191906000526020600020905b81548152906001019060200180831161113b57829003601f168201915b50505050508152602001600782015481526020016008820160009054906101000a900473ffffffffffffffffffffffffffffffffffffffff1673ffffffffffffffffffffffffffffffffffffffff1673ffffffffffffffffffffffffffffffffffffffff168152505090506000875111156111d7578681604001819052505b6000855111156111eb578481608001819052505b6000845111156111ff57838160a001819052505b60008351111561121357828160c001819052505b600086111561122757858160600181815250505b80600260008a81526020019081526020016000206000820151816000015560208201518160010155604082015181600201908051906020019061126b929190611661565b50606082015181600301556080820151816004019080519060200190611292929190611661565b5060a08201518160050190805190602001906112af929190611661565b5060c08201518160060190805190602001906112cc929190611661565b5060e082015181600701556101008201518160080160006101000a81548173ffffffffffffffffffffffffffffffffffffffff021916908373ffffffffffffffffffffffffffffffffffffffff1602179055509050507fa950a2575db4f7eae63d67e9673c1f8a59041fbf9ea9ad6f67aee060f64168d9888888888888428960405161135f989796959493929190611fc3565b60405180910390a15050505050505050565b60026020528060005260406000206000915090508060000154908060010154908060020180546113a090611ed6565b80601f01602080910402602001604051908101604052809291908181526020018280546113cc90611ed6565b80156114195780601f106113ee57610100808354040283529160200191611419565b820191906000526020600020905b8154815290600101906020018083116113fc57829003601f168201915b50505050509080600301549080600401805461143490611ed6565b80601f016020809104026020016040519081016040528092919081815260200182805461146090611ed6565b80156114ad5780601f10611482576101008083540402835291602001916114ad565b820191906000526020600020905b81548152906001019060200180831161149057829003601f168201915b5050505050908060050180546114c290611ed6565b80601f01602080910402602001604051908101604052809291908181526020018280546114ee90611ed6565b801561153b5780601f106115105761010080835404028352916020019161153b565b820191906000526020600020905b81548152906001019060200180831161151e57829003601f168201915b50505050509080600601805461155090611ed6565b80601f016020809104026020016040519081016040528092919081815260200182805461157c90611ed6565b80156115c95780601f1061159e576101008083540402835291602001916115c9565b820191906000526020600020905b8154815290600101906020018083116115ac57829003601f168201915b5050505050908060070154908060080160009054906101000a900473ffffffffffffffffffffffffffffffffffffffff16905089565b6040518061012001604052806000815260200160008152602001606081526020016000815260200160608152602001606081526020016060815260200160008152602001600073ffffffffffffffffffffffffffffffffffffffff1681525090565b82805461166d90611ed6565b90600052602060002090601f01602090048101928261168f57600085556116d6565b82601f106116a857805160ff19168380011785556116d6565b828001600101855582156116d6579182015b828111156116d55782518255916020019190600101906116ba565b5b5090506116e391906116e7565b5090565b5b808211156117005760008160009055506001016116e8565b5090565b600081519050919050565b600082825260208201905092915050565b60005b8381101561173e578082015181840152602081019050611723565b8381111561174d576000848401525b50505050565b6000601f19601f8301169050919050565b600061176f82611704565b611779818561170f565b9350611789818560208601611720565b61179281611753565b840191505092915050565b600060208201905081810360008301526117b78184611764565b905092915050565b6000819050919050565b6117d2816117bf565b82525050565b60006020820190506117ed60008301846117c9565b92915050565b6000604051905090565b600080fd5b600080fd5b611810816117bf565b811461181b57600080fd5b50565b60008135905061182d81611807565b92915050565b600073ffffffffffffffffffffffffffffffffffffffff82169050919050565b600061185e82611833565b9050919050565b61186e81611853565b811461187957600080fd5b50565b60008135905061188b81611865565b92915050565b6000806000606084860312156118aa576118a96117fd565b5b60006118b88682870161181e565b93505060206118c98682870161181e565b92505060406118da8682870161187c565b9150509250925092565b6000602082840312156118fa576118f96117fd565b5b60006119088482850161181e565b91505092915050565b61191a816117bf565b82525050565b600082825260208201905092915050565b600061193c82611704565b6119468185611920565b9350611956818560208601611720565b61195f81611753565b840191505092915050565b61197381611853565b82525050565b6000610120830160008301516119926000860182611911565b5060208301516119a56020860182611911565b50604083015184820360408601526119bd8282611931565b91505060608301516119d26060860182611911565b50608083015184820360808601526119ea8282611931565b91505060a083015184820360a0860152611a048282611931565b91505060c083015184820360c0860152611a1e8282611931565b91505060e0830151611a3360e0860182611911565b50610100830151611a4861010086018261196a565b508091505092915050565b60006020820190508181036000830152611a6d8184611979565b905092915050565b600080fd5b600080fd5b7f4e487b7100000000000000000000000000000000000000000000000000000000600052604160045260246000fd5b611ab782611753565b810181811067ffffffffffffffff82111715611ad657611ad5611a7f565b5b80604052505050565b6000611ae96117f3565b9050611af58282611aae565b919050565b600067ffffffffffffffff821115611b1557611b14611a7f565b5b611b1e82611753565b9050602081019050919050565b82818337600083830152505050565b6000611b4d611b4884611afa565b611adf565b905082815260208101848484011115611b6957611b68611a7a565b5b611b74848285611b2b565b509392505050565b600082601f830112611b9157611b90611a75565b5b8135611ba1848260208601611b3a565b91505092915050565b60008060008060008060c08789031215611bc757611bc66117fd565b5b600087013567ffffffffffffffff811115611be557611be4611802565b5b611bf189828a01611b7c565b9650506020611c0289828a0161181e565b955050604087013567ffffffffffffffff811115611c2357611c22611802565b5b611c2f89828a01611b7c565b945050606087013567ffffffffffffffff811115611c5057611c4f611802565b5b611c5c89828a01611b7c565b935050608087013567ffffffffffffffff811115611c7d57611c7c611802565b5b611c8989828a01611b7c565b92505060a0611c9a89828a0161187c565b9150509295509295509295565b60008115159050919050565b611cbc81611ca7565b82525050565b6000602082019050611cd76000830184611cb3565b92915050565b600080600080600080600060e0888a031215611cfc57611cfb6117fd565b5b6000611d0a8a828b0161181e565b975050602088013567ffffffffffffffff811115611d2b57611d2a611802565b5b611d378a828b01611b7c565b9650506040611d488a828b0161181e565b955050606088013567ffffffffffffffff811115611d6957611d68611802565b5b611d758a828b01611b7c565b945050608088013567ffffffffffffffff811115611d9657611d95611802565b5b611da28a828b01611b7c565b93505060a088013567ffffffffffffffff811115611dc357611dc2611802565b5b611dcf8a828b01611b7c565b92505060c0611de08a828b0161187c565b91505092959891949750929550565b611df881611853565b82525050565b600061012082019050611e14600083018c6117c9565b611e21602083018b6117c9565b8181036040830152611e33818a611764565b9050611e4260608301896117c9565b8181036080830152611e548188611764565b905081810360a0830152611e688187611764565b905081810360c0830152611e7c8186611764565b9050611e8b60e08301856117c9565b611e99610100830184611def565b9a9950505050505050505050565b7f4e487b7100000000000000000000000000000000000000000000000000000000600052602260045260246000fd5b60006002820490506001821680611eee57607f821691505b602082108103611f0157611f00611ea7565b5b50919050565b6000608082019050611f1c60008301876117c9565b611f2960208301866117c9565b611f3660408301856117c9565b611f436060830184611def565b95945050505050565b7f4e487b7100000000000000000000000000000000000000000000000000000000600052601160045260246000fd5b6000611f86826117bf565b91507fffffffffffffffffffffffffffffffffffffffffffffffffffffffffffffffff8203611fb857611fb7611f4c565b5b600182019050919050565b600061010082019050611fd9600083018b6117c9565b8181036020830152611feb818a611764565b9050611ffa60408301896117c9565b818103606083015261200c8188611764565b905081810360808301526120208187611764565b905081810360a08301526120348186611764565b905061204360c08301856117c9565b61205060e0830184611def565b999850505050505050505056fea264697066735822122006f889ce97b64b7fa642a1c91f6ce60f6d8207d71d26a9aed792f93c452dd0a364736f6c634300080e0033",
  "immutableReferences": {},
  "source": "// SPDX-License-Identifier: MIT\r\npragma solidity ^0.8.14;\r\n\r\ncontract Documentation {\r\n    string public name = 'Documentation';\r\n    uint256 public documentationCount = 0;\r\n    mapping (uint256 => DocumentationObject) public documentationMapp;\r\n\r\n    struct DocumentationObject{\r\n        uint256 documentationID;\r\n        uint256 antiqueID;\r\n        string filehash;\r\n        uint256 fileSize;\r\n        string fileType;\r\n        string fileName;\r\n        string fileDescription;\r\n        uint256 uploadTime;\r\n        address payable uploader;\r\n    }\r\n    event documentationUploaded(\r\n        uint256 documentationID,\r\n        string filehash,\r\n        uint256 fileSize,\r\n        string fileType,\r\n        string fileName,\r\n        string fileDescription,\r\n        uint256 uploadTime,\r\n        address payable uploader\r\n    );\r\n\r\n    event documentationUpdated (\r\n        uint256 documentationID,\r\n        string filehash,\r\n        uint256 fileSize,\r\n        string fileType,\r\n        string fileName,\r\n        string fileDescription,\r\n        uint256 uploadTime,\r\n        address payable uploader\r\n    );\r\n\r\n    event setAntiqueIDByDocumentationID(\r\n        uint256 documentationID,\r\n        uint256 antiqueID,\r\n        uint256 uploadTime,\r\n        address payable uploader\r\n    );\r\n\r\n    constructor() {\r\n        name = \"Documentation\";\r\n    }\r\n    \r\n    // POST: Add Documentation\r\n    function AddDocumentation(\r\n        string memory _fileHash,\r\n        uint256 _fileSize,\r\n        string memory _fileType,\r\n        string memory _fileName,\r\n        string memory _fileDescription,\r\n        address payable _uploader\r\n    ) public returns (uint256)\r\n    {\r\n        require(bytes(_fileHash).length > 0);\r\n        require(bytes(_fileType).length > 0);\r\n        require(bytes(_fileName).length > 0);\r\n        require(bytes(_fileDescription).length > 0);\r\n        require(_uploader != address(0));\r\n        require(_fileSize > 0);\r\n        \r\n        documentationCount++;\r\n\r\n        //Set Default Antique ID \r\n        uint256 _antiqueDefaultID = 0;\r\n\r\n\r\n          // add file to the list\r\n        documentationMapp[documentationCount] = DocumentationObject(\r\n            documentationCount,\r\n            _antiqueDefaultID,\r\n            _fileHash,\r\n            _fileSize,\r\n            _fileType,\r\n            _fileName,\r\n            _fileDescription,\r\n            block.timestamp,\r\n            _uploader\r\n        );\r\n\r\n        //Trigger the event\r\n        emit documentationUploaded(\r\n            documentationCount,\r\n            _fileHash,\r\n            _fileSize,\r\n            _fileType,\r\n            _fileName,\r\n            _fileDescription,\r\n            block.timestamp,\r\n            _uploader\r\n        );\r\n        return documentationCount;\r\n    }\r\n\r\n    //PUT: Update Documentation\r\n    function UpdateDocumentation \r\n    (\r\n        uint256 _documentationID,\r\n        string memory _fileHash,\r\n        uint256 _fileSize,\r\n        string memory _fileType,\r\n        string memory _fileName,\r\n        string memory _fileDescription,\r\n        address payable _uploader\r\n    )\r\n    public \r\n    {\r\n        require (_documentationID > 0 && _documentationID <= documentationCount );\r\n        require (_uploader != address(0));\r\n        //Get File From Blockchain and Update Data\r\n        DocumentationObject memory _documentationData = documentationMapp[_documentationID];\r\n        if (bytes(_fileHash).length > 0) \r\n        {\r\n          _documentationData.filehash = _fileHash;  \r\n        }\r\n        if(bytes(_fileType).length > 0) \r\n        {\r\n            _documentationData.fileType = _fileType;\r\n        }\r\n        if(bytes(_fileName).length > 0)\r\n        {\r\n            _documentationData.fileName = _fileName;\r\n        }\r\n        if(bytes(_fileDescription).length > 0)\r\n        {\r\n            _documentationData.fileDescription = _fileDescription;\r\n        }\r\n\r\n        if(_fileSize > 0) \r\n        {\r\n            _documentationData.fileSize = _fileSize;\r\n        }\r\n\r\n        //Update Blockchain Data\r\n        documentationMapp[_documentationID] = _documentationData;\r\n        emit documentationUpdated (\r\n            _documentationID,\r\n            _fileHash,\r\n            _fileSize,\r\n            _fileType,\r\n            _fileName,\r\n            _fileDescription,\r\n            block.timestamp,\r\n            _uploader\r\n\r\n        );\r\n    }\r\n\r\n    //GET Documentation By ID\r\n    function GetDocumentationByID\r\n    (uint256 _documentationID)\r\n    external view returns (DocumentationObject memory)\r\n    {\r\n        require (ValidateDocumentationID(_documentationID) == true);\r\n        return documentationMapp[_documentationID];\r\n    }\r\n\r\n    //Validate ID \r\n    function ValidateDocumentationID \r\n    (uint _documentationID)\r\n    public view returns (bool)\r\n    {\r\n        if (_documentationID  < 0 ||  _documentationID > documentationCount)\r\n        {\r\n            return false;\r\n        }\r\n        DocumentationObject memory _documentationData = documentationMapp[_documentationID];\r\n        if (bytes(_documentationData.filehash).length < 0)\r\n        {\r\n            return false;\r\n        }\r\n        if (bytes(_documentationData.fileName).length < 0)\r\n        {\r\n            return false; \r\n        }\r\n        return true;\r\n    }\r\n\r\n    //PUT: Set Antique ID By Documentation ID \r\n    function SetAntiqueIDByDocumentationID \r\n    (\r\n        uint256 _documentationID,\r\n        uint256 _antiqueID,\r\n        address payable _uploader\r\n    )\r\n    public \r\n    {\r\n        require (ValidateDocumentationID(_documentationID) == true);\r\n        require (_antiqueID > 0);\r\n        require(_uploader != address(0));\r\n\r\n        //Update Antique ID by Documentation ID\r\n        DocumentationObject memory _documentationData = documentationMapp[_documentationID];\r\n        _documentationData.antiqueID = _antiqueID;\r\n\r\n        // Add Data To Blockchain\r\n        emit setAntiqueIDByDocumentationID\r\n        (\r\n            _documentationID,\r\n            _antiqueID,\r\n            block.timestamp,\r\n            _uploader\r\n        );\r\n    }\r\n\r\n\r\n}",
  "sourcePath": "C:\\Users\\Natha\\OneDrive - The University of Sydney (Students)\\University of Sydney Materials\\Studying\\Year 5\\Semester 1\\Thesis B\\AntiqueIoTChain\\truffle\\contracts\\Database\\Documentation.sol",
  "compiler": {
    "name": "solc",
    "version": "0.8.14+commit.80d49f37.Emscripten.clang"
  },
  "schemaVersion": "3.4.11",
  "updatedAt": "2023-01-21T04:30:42.364Z",
  "networkType": "ethereum",
  "devdoc": {
    "kind": "dev",
    "methods": {},
    "version": 1
  },
  "userdoc": {
    "kind": "user",
    "methods": {},
    "version": 1
  }
}